{
	"LoadManager.sol": {
		"LoanManager": {
			"abi": [
				{
					"inputs": [],
					"stateMutability": "nonpayable",
					"type": "constructor"
				},
				{
					"anonymous": false,
					"inputs": [
						{
							"indexed": false,
							"internalType": "address",
							"name": "",
							"type": "address"
						},
						{
							"indexed": false,
							"internalType": "uint256",
							"name": "",
							"type": "uint256"
						},
						{
							"indexed": false,
							"internalType": "uint256",
							"name": "",
							"type": "uint256"
						}
					],
					"name": "lendDone",
					"type": "event"
				},
				{
					"inputs": [
						{
							"internalType": "address",
							"name": "",
							"type": "address"
						},
						{
							"internalType": "int256",
							"name": "borrowId",
							"type": "int256"
						}
					],
					"name": "Borrower",
					"outputs": [
						{
							"internalType": "string",
							"name": "state",
							"type": "string"
						},
						{
							"internalType": "uint256",
							"name": "dueDate",
							"type": "uint256"
						},
						{
							"internalType": "uint256",
							"name": "APY",
							"type": "uint256"
						},
						{
							"internalType": "uint256",
							"name": "borrowAmount",
							"type": "uint256"
						},
						{
							"internalType": "uint256",
							"name": "paybackAmount",
							"type": "uint256"
						}
					],
					"stateMutability": "view",
					"type": "function"
				},
				{
					"inputs": [
						{
							"internalType": "address",
							"name": "",
							"type": "address"
						},
						{
							"internalType": "uint256",
							"name": "",
							"type": "uint256"
						}
					],
					"name": "Lender",
					"outputs": [
						{
							"internalType": "int256",
							"name": "lendId",
							"type": "int256"
						},
						{
							"internalType": "uint256",
							"name": "depositTime",
							"type": "uint256"
						},
						{
							"internalType": "uint256",
							"name": "amount",
							"type": "uint256"
						}
					],
					"stateMutability": "view",
					"type": "function"
				},
				{
					"inputs": [
						{
							"internalType": "address",
							"name": "",
							"type": "address"
						}
					],
					"name": "borrowCount",
					"outputs": [
						{
							"internalType": "int256",
							"name": "",
							"type": "int256"
						}
					],
					"stateMutability": "view",
					"type": "function"
				},
				{
					"inputs": [],
					"name": "borrowersCounter",
					"outputs": [
						{
							"internalType": "uint256",
							"name": "",
							"type": "uint256"
						}
					],
					"stateMutability": "view",
					"type": "function"
				},
				{
					"inputs": [
						{
							"internalType": "address",
							"name": "_address",
							"type": "address"
						}
					],
					"name": "calculateInterest",
					"outputs": [
						{
							"internalType": "uint256",
							"name": "",
							"type": "uint256"
						}
					],
					"stateMutability": "view",
					"type": "function"
				},
				{
					"inputs": [],
					"name": "getContractBalance",
					"outputs": [
						{
							"internalType": "uint256",
							"name": "",
							"type": "uint256"
						}
					],
					"stateMutability": "view",
					"type": "function"
				},
				{
					"inputs": [],
					"name": "getInterestMatured",
					"outputs": [
						{
							"internalType": "uint256",
							"name": "",
							"type": "uint256"
						}
					],
					"stateMutability": "nonpayable",
					"type": "function"
				},
				{
					"inputs": [],
					"name": "getUserBorrowerList",
					"outputs": [
						{
							"internalType": "address[]",
							"name": "",
							"type": "address[]"
						}
					],
					"stateMutability": "view",
					"type": "function"
				},
				{
					"inputs": [],
					"name": "getUserLendersList",
					"outputs": [
						{
							"internalType": "address[]",
							"name": "",
							"type": "address[]"
						}
					],
					"stateMutability": "view",
					"type": "function"
				},
				{
					"inputs": [
						{
							"internalType": "address",
							"name": "",
							"type": "address"
						}
					],
					"name": "interestMatured",
					"outputs": [
						{
							"internalType": "uint256",
							"name": "",
							"type": "uint256"
						}
					],
					"stateMutability": "view",
					"type": "function"
				},
				{
					"inputs": [
						{
							"internalType": "address",
							"name": "",
							"type": "address"
						}
					],
					"name": "isAddressActive",
					"outputs": [
						{
							"internalType": "bool",
							"name": "isActive",
							"type": "bool"
						}
					],
					"stateMutability": "view",
					"type": "function"
				},
				{
					"inputs": [],
					"name": "lend",
					"outputs": [],
					"stateMutability": "payable",
					"type": "function"
				},
				{
					"inputs": [],
					"name": "lendAPY",
					"outputs": [
						{
							"internalType": "uint256",
							"name": "",
							"type": "uint256"
						}
					],
					"stateMutability": "view",
					"type": "function"
				},
				{
					"inputs": [],
					"name": "lendersCounter",
					"outputs": [
						{
							"internalType": "uint256",
							"name": "",
							"type": "uint256"
						}
					],
					"stateMutability": "view",
					"type": "function"
				},
				{
					"inputs": [
						{
							"internalType": "address",
							"name": "",
							"type": "address"
						}
					],
					"name": "netPosition",
					"outputs": [
						{
							"internalType": "uint256",
							"name": "",
							"type": "uint256"
						}
					],
					"stateMutability": "view",
					"type": "function"
				},
				{
					"inputs": [
						{
							"internalType": "uint256",
							"name": "_weeks",
							"type": "uint256"
						},
						{
							"internalType": "uint256",
							"name": "amount",
							"type": "uint256"
						}
					],
					"name": "openBorrow",
					"outputs": [],
					"stateMutability": "payable",
					"type": "function"
				},
				{
					"inputs": [],
					"name": "owner",
					"outputs": [
						{
							"internalType": "address",
							"name": "",
							"type": "address"
						}
					],
					"stateMutability": "view",
					"type": "function"
				},
				{
					"inputs": [
						{
							"internalType": "uint256",
							"name": "amount",
							"type": "uint256"
						}
					],
					"name": "withdraw",
					"outputs": [],
					"stateMutability": "nonpayable",
					"type": "function"
				},
				{
					"inputs": [],
					"name": "withdrawInterest",
					"outputs": [],
					"stateMutability": "nonpayable",
					"type": "function"
				}
			],
			"devdoc": {
				"kind": "dev",
				"methods": {},
				"version": 1
			},
			"evm": {
				"assembly": "    /* \"LoadManager.sol\":62:5386  contract LoanManager {... */\n  mstore(0x40, 0x80)\n    /* \"LoadManager.sol\":324:325  3 */\n  0x03\n    /* \"LoadManager.sol\":299:325  uint256 public lendAPY = 3 */\n  0x06\n  sstore\n    /* \"LoadManager.sol\":1029:1074  constructor() {... */\n  callvalue\n  dup1\n  iszero\n  tag_1\n  jumpi\n  revert(0x00, 0x00)\ntag_1:\n  pop\n    /* \"LoadManager.sol\":1058:1068  msg.sender */\n  caller\n    /* \"LoadManager.sol\":1050:1055  owner */\n  0x00\n  0x00\n    /* \"LoadManager.sol\":1050:1068  owner = msg.sender */\n  0x0100\n  exp\n  dup2\n  sload\n  dup2\n  0xffffffffffffffffffffffffffffffffffffffff\n  mul\n  not\n  and\n  swap1\n  dup4\n  0xffffffffffffffffffffffffffffffffffffffff\n  and\n  mul\n  or\n  swap1\n  sstore\n  pop\n    /* \"LoadManager.sol\":62:5386  contract LoanManager {... */\n  dataSize(sub_0)\n  dup1\n  dataOffset(sub_0)\n  0x00\n  codecopy\n  0x00\n  return\nstop\n\nsub_0: assembly {\n        /* \"LoadManager.sol\":62:5386  contract LoanManager {... */\n      mstore(0x40, 0x80)\n      jumpi(tag_1, lt(calldatasize, 0x04))\n      shr(0xe0, calldataload(0x00))\n      dup1\n      0x6f9fb98a\n      gt\n      tag_21\n      jumpi\n      dup1\n      0xd6020811\n      gt\n      tag_22\n      jumpi\n      dup1\n      0xd6020811\n      eq\n      tag_16\n      jumpi\n      dup1\n      0xdce8e848\n      eq\n      tag_17\n      jumpi\n      dup1\n      0xddd899a1\n      eq\n      tag_18\n      jumpi\n      dup1\n      0xe11932cf\n      eq\n      tag_19\n      jumpi\n      dup1\n      0xff6d4f73\n      eq\n      tag_20\n      jumpi\n      jump(tag_1)\n    tag_22:\n      dup1\n      0x6f9fb98a\n      eq\n      tag_11\n      jumpi\n      dup1\n      0x71604909\n      eq\n      tag_12\n      jumpi\n      dup1\n      0x8da5cb5b\n      eq\n      tag_13\n      jumpi\n      dup1\n      0x97dffc61\n      eq\n      tag_14\n      jumpi\n      dup1\n      0xcb50bb74\n      eq\n      tag_15\n      jumpi\n      jump(tag_1)\n    tag_21:\n      dup1\n      0x2e1a7d4d\n      gt\n      tag_23\n      jumpi\n      dup1\n      0x2e1a7d4d\n      eq\n      tag_6\n      jumpi\n      dup1\n      0x2f1158f7\n      eq\n      tag_7\n      jumpi\n      dup1\n      0x33d5281f\n      eq\n      tag_8\n      jumpi\n      dup1\n      0x3e86e213\n      eq\n      tag_9\n      jumpi\n      dup1\n      0x65ad976e\n      eq\n      tag_10\n      jumpi\n      jump(tag_1)\n    tag_23:\n      dup1\n      0x63750c\n      eq\n      tag_2\n      jumpi\n      dup1\n      0x0aff7198\n      eq\n      tag_3\n      jumpi\n      dup1\n      0x11c6bf8f\n      eq\n      tag_4\n      jumpi\n      dup1\n      0x26a39c07\n      eq\n      tag_5\n      jumpi\n    tag_1:\n      revert(0x00, 0x00)\n        /* \"LoadManager.sol\":4246:4547  function withdrawInterest() public {... */\n    tag_2:\n      callvalue\n      dup1\n      iszero\n      tag_24\n      jumpi\n      revert(0x00, 0x00)\n    tag_24:\n      pop\n      tag_25\n      tag_26\n      jump\t// in\n    tag_25:\n      stop\n        /* \"LoadManager.sol\":3397:3565  function getInterestMatured() public returns (uint256) {... */\n    tag_3:\n      callvalue\n      dup1\n      iszero\n      tag_27\n      jumpi\n      revert(0x00, 0x00)\n    tag_27:\n      pop\n      tag_28\n      tag_29\n      jump\t// in\n    tag_28:\n      mload(0x40)\n      tag_30\n      swap2\n      swap1\n      tag_31\n      jump\t// in\n    tag_30:\n      mload(0x40)\n      dup1\n      swap2\n      sub\n      swap1\n      return\n        /* \"LoadManager.sol\":678:752  mapping(address => mapping(int256 borrowId => borrowInfo)) public Borrower */\n    tag_4:\n      callvalue\n      dup1\n      iszero\n      tag_32\n      jumpi\n      revert(0x00, 0x00)\n    tag_32:\n      pop\n      tag_33\n      0x04\n      dup1\n      calldatasize\n      sub\n      dup2\n      add\n      swap1\n      tag_34\n      swap2\n      swap1\n      tag_35\n      jump\t// in\n    tag_34:\n      tag_36\n      jump\t// in\n    tag_33:\n      mload(0x40)\n      tag_37\n      swap6\n      swap5\n      swap4\n      swap3\n      swap2\n      swap1\n      tag_38\n      jump\t// in\n    tag_37:\n      mload(0x40)\n      dup1\n      swap2\n      sub\n      swap1\n      return\n        /* \"LoadManager.sol\":858:908  mapping(address => uint256) public interestMatured */\n    tag_5:\n      callvalue\n      dup1\n      iszero\n      tag_39\n      jumpi\n      revert(0x00, 0x00)\n    tag_39:\n      pop\n      tag_40\n      0x04\n      dup1\n      calldatasize\n      sub\n      dup2\n      add\n      swap1\n      tag_41\n      swap2\n      swap1\n      tag_42\n      jump\t// in\n    tag_41:\n      tag_43\n      jump\t// in\n    tag_40:\n      mload(0x40)\n      tag_44\n      swap2\n      swap1\n      tag_31\n      jump\t// in\n    tag_44:\n      mload(0x40)\n      dup1\n      swap2\n      sub\n      swap1\n      return\n        /* \"LoadManager.sol\":4014:4240  function withdraw(uint256 amount) public checkNetPosition(amount) {... */\n    tag_6:\n      callvalue\n      dup1\n      iszero\n      tag_45\n      jumpi\n      revert(0x00, 0x00)\n    tag_45:\n      pop\n      tag_46\n      0x04\n      dup1\n      calldatasize\n      sub\n      dup2\n      add\n      swap1\n      tag_47\n      swap2\n      swap1\n      tag_48\n      jump\t// in\n    tag_47:\n      tag_49\n      jump\t// in\n    tag_46:\n      stop\n        /* \"LoadManager.sol\":966:1022  mapping(address => bool isActive) public isAddressActive */\n    tag_7:\n      callvalue\n      dup1\n      iszero\n      tag_50\n      jumpi\n      revert(0x00, 0x00)\n    tag_50:\n      pop\n      tag_51\n      0x04\n      dup1\n      calldatasize\n      sub\n      dup2\n      add\n      swap1\n      tag_52\n      swap2\n      swap1\n      tag_42\n      jump\t// in\n    tag_52:\n      tag_53\n      jump\t// in\n    tag_51:\n      mload(0x40)\n      tag_54\n      swap2\n      swap1\n      tag_55\n      jump\t// in\n    tag_54:\n      mload(0x40)\n      dup1\n      swap2\n      sub\n      swap1\n      return\n        /* \"LoadManager.sol\":4553:5383  function openBorrow(... */\n    tag_8:\n      tag_56\n      0x04\n      dup1\n      calldatasize\n      sub\n      dup2\n      add\n      swap1\n      tag_57\n      swap2\n      swap1\n      tag_58\n      jump\t// in\n    tag_57:\n      tag_59\n      jump\t// in\n    tag_56:\n      stop\n        /* \"LoadManager.sol\":1080:1187  function getUserBorrowerList() public view returns (address[] memory) {... */\n    tag_9:\n      callvalue\n      dup1\n      iszero\n      tag_60\n      jumpi\n      revert(0x00, 0x00)\n    tag_60:\n      pop\n      tag_61\n      tag_62\n      jump\t// in\n    tag_61:\n      mload(0x40)\n      tag_63\n      swap2\n      swap1\n      tag_64\n      jump\t// in\n    tag_63:\n      mload(0x40)\n      dup1\n      swap2\n      sub\n      swap1\n      return\n        /* \"LoadManager.sol\":299:325  uint256 public lendAPY = 3 */\n    tag_10:\n      callvalue\n      dup1\n      iszero\n      tag_65\n      jumpi\n      revert(0x00, 0x00)\n    tag_65:\n      pop\n      tag_66\n      tag_67\n      jump\t// in\n    tag_66:\n      mload(0x40)\n      tag_68\n      swap2\n      swap1\n      tag_31\n      jump\t// in\n    tag_68:\n      mload(0x40)\n      dup1\n      swap2\n      sub\n      swap1\n      return\n        /* \"LoadManager.sol\":332:433  function getContractBalance() public view returns (uint256) {... */\n    tag_11:\n      callvalue\n      dup1\n      iszero\n      tag_69\n      jumpi\n      revert(0x00, 0x00)\n    tag_69:\n      pop\n      tag_70\n      tag_71\n      jump\t// in\n    tag_70:\n      mload(0x40)\n      tag_72\n      swap2\n      swap1\n      tag_31\n      jump\t// in\n    tag_72:\n      mload(0x40)\n      dup1\n      swap2\n      sub\n      swap1\n      return\n        /* \"LoadManager.sol\":757:802  mapping(address => int256) public borrowCount */\n    tag_12:\n      callvalue\n      dup1\n      iszero\n      tag_73\n      jumpi\n      revert(0x00, 0x00)\n    tag_73:\n      pop\n      tag_74\n      0x04\n      dup1\n      calldatasize\n      sub\n      dup2\n      add\n      swap1\n      tag_75\n      swap2\n      swap1\n      tag_42\n      jump\t// in\n    tag_75:\n      tag_76\n      jump\t// in\n    tag_74:\n      mload(0x40)\n      tag_77\n      swap2\n      swap1\n      tag_78\n      jump\t// in\n    tag_77:\n      mload(0x40)\n      dup1\n      swap2\n      sub\n      swap1\n      return\n        /* \"LoadManager.sol\":88:108  address public owner */\n    tag_13:\n      callvalue\n      dup1\n      iszero\n      tag_79\n      jumpi\n      revert(0x00, 0x00)\n    tag_79:\n      pop\n      tag_80\n      tag_81\n      jump\t// in\n    tag_80:\n      mload(0x40)\n      tag_82\n      swap2\n      swap1\n      tag_83\n      jump\t// in\n    tag_82:\n      mload(0x40)\n      dup1\n      swap2\n      sub\n      swap1\n      return\n        /* \"LoadManager.sol\":2936:3391  function lend() public payable checkMinimalLend {... */\n    tag_14:\n      tag_84\n      tag_85\n      jump\t// in\n    tag_84:\n      stop\n        /* \"LoadManager.sol\":265:294  uint256 public lendersCounter */\n    tag_15:\n      callvalue\n      dup1\n      iszero\n      tag_86\n      jumpi\n      revert(0x00, 0x00)\n    tag_86:\n      pop\n      tag_87\n      tag_88\n      jump\t// in\n    tag_87:\n      mload(0x40)\n      tag_89\n      swap2\n      swap1\n      tag_31\n      jump\t// in\n    tag_89:\n      mload(0x40)\n      dup1\n      swap2\n      sub\n      swap1\n      return\n        /* \"LoadManager.sol\":1193:1297  function getUserLendersList() public view returns (address[] memory) {... */\n    tag_16:\n      callvalue\n      dup1\n      iszero\n      tag_90\n      jumpi\n      revert(0x00, 0x00)\n    tag_90:\n      pop\n      tag_91\n      tag_92\n      jump\t// in\n    tag_91:\n      mload(0x40)\n      tag_93\n      swap2\n      swap1\n      tag_64\n      jump\t// in\n    tag_93:\n      mload(0x40)\n      dup1\n      swap2\n      sub\n      swap1\n      return\n        /* \"LoadManager.sol\":915:961  mapping(address => uint256) public netPosition */\n    tag_17:\n      callvalue\n      dup1\n      iszero\n      tag_94\n      jumpi\n      revert(0x00, 0x00)\n    tag_94:\n      pop\n      tag_95\n      0x04\n      dup1\n      calldatasize\n      sub\n      dup2\n      add\n      swap1\n      tag_96\n      swap2\n      swap1\n      tag_42\n      jump\t// in\n    tag_96:\n      tag_97\n      jump\t// in\n    tag_95:\n      mload(0x40)\n      tag_98\n      swap2\n      swap1\n      tag_31\n      jump\t// in\n    tag_98:\n      mload(0x40)\n      dup1\n      swap2\n      sub\n      swap1\n      return\n        /* \"LoadManager.sol\":229:260  uint256 public borrowersCounter */\n    tag_18:\n      callvalue\n      dup1\n      iszero\n      tag_99\n      jumpi\n      revert(0x00, 0x00)\n    tag_99:\n      pop\n      tag_100\n      tag_101\n      jump\t// in\n    tag_100:\n      mload(0x40)\n      tag_102\n      swap2\n      swap1\n      tag_31\n      jump\t// in\n    tag_102:\n      mload(0x40)\n      dup1\n      swap2\n      sub\n      swap1\n      return\n        /* \"LoadManager.sol\":3571:4008  function calculateInterest(address _address) public view returns (uint256) {... */\n    tag_19:\n      callvalue\n      dup1\n      iszero\n      tag_103\n      jumpi\n      revert(0x00, 0x00)\n    tag_103:\n      pop\n      tag_104\n      0x04\n      dup1\n      calldatasize\n      sub\n      dup2\n      add\n      swap1\n      tag_105\n      swap2\n      swap1\n      tag_42\n      jump\t// in\n    tag_105:\n      tag_106\n      jump\t// in\n    tag_104:\n      mload(0x40)\n      tag_107\n      swap2\n      swap1\n      tag_31\n      jump\t// in\n    tag_107:\n      mload(0x40)\n      dup1\n      swap2\n      sub\n      swap1\n      return\n        /* \"LoadManager.sol\":809:853  mapping(address => lendInfo[]) public Lender */\n    tag_20:\n      callvalue\n      dup1\n      iszero\n      tag_108\n      jumpi\n      revert(0x00, 0x00)\n    tag_108:\n      pop\n      tag_109\n      0x04\n      dup1\n      calldatasize\n      sub\n      dup2\n      add\n      swap1\n      tag_110\n      swap2\n      swap1\n      tag_111\n      jump\t// in\n    tag_110:\n      tag_112\n      jump\t// in\n    tag_109:\n      mload(0x40)\n      tag_113\n      swap4\n      swap3\n      swap2\n      swap1\n      tag_114\n      jump\t// in\n    tag_113:\n      mload(0x40)\n      dup1\n      swap2\n      sub\n      swap1\n      return\n        /* \"LoadManager.sol\":4246:4547  function withdrawInterest() public {... */\n    tag_26:\n        /* \"LoadManager.sol\":4289:4301  bool success */\n      0x00\n        /* \"LoadManager.sol\":4307:4317  msg.sender */\n      caller\n        /* \"LoadManager.sol\":4307:4322  msg.sender.call */\n      0xffffffffffffffffffffffffffffffffffffffff\n      and\n        /* \"LoadManager.sol\":4331:4360  calculateInterest(msg.sender) */\n      tag_116\n        /* \"LoadManager.sol\":4349:4359  msg.sender */\n      caller\n        /* \"LoadManager.sol\":4331:4348  calculateInterest */\n      tag_106\n        /* \"LoadManager.sol\":4331:4360  calculateInterest(msg.sender) */\n      jump\t// in\n    tag_116:\n        /* \"LoadManager.sol\":4307:4366  msg.sender.call{ value: calculateInterest(msg.sender) }('') */\n      mload(0x40)\n      tag_117\n      swap1\n      tag_118\n      jump\t// in\n    tag_117:\n      0x00\n      mload(0x40)\n      dup1\n      dup4\n      sub\n      dup2\n      dup6\n      dup8\n      gas\n      call\n      swap3\n      pop\n      pop\n      pop\n      returndatasize\n      dup1\n      0x00\n      dup2\n      eq\n      tag_121\n      jumpi\n      mload(0x40)\n      swap2\n      pop\n      and(add(returndatasize, 0x3f), not(0x1f))\n      dup3\n      add\n      0x40\n      mstore\n      returndatasize\n      dup3\n      mstore\n      returndatasize\n      0x00\n      0x20\n      dup5\n      add\n      returndatacopy\n      jump(tag_120)\n    tag_121:\n      0x60\n      swap2\n      pop\n    tag_120:\n      pop\n        /* \"LoadManager.sol\":4288:4366  (bool success, ) = msg.sender.call{ value: calculateInterest(msg.sender) }('') */\n      pop\n      swap1\n      pop\n        /* \"LoadManager.sol\":4381:4388  success */\n      dup1\n        /* \"LoadManager.sol\":4373:4411  require(success, 'Transaction failed') */\n      tag_122\n      jumpi\n      mload(0x40)\n      0x08c379a000000000000000000000000000000000000000000000000000000000\n      dup2\n      mstore\n      0x04\n      add\n      tag_123\n      swap1\n      tag_124\n      jump\t// in\n    tag_123:\n      mload(0x40)\n      dup1\n      swap2\n      sub\n      swap1\n      revert\n    tag_122:\n        /* \"LoadManager.sol\":4423:4432  uint256 i */\n      0x00\n        /* \"LoadManager.sol\":4435:4436  0 */\n      0x00\n        /* \"LoadManager.sol\":4423:4436  uint256 i = 0 */\n      swap1\n      pop\n        /* \"LoadManager.sol\":4418:4542  for (uint256 i = 0; Lender[msg.sender].length > i; i++) {... */\n    tag_125:\n        /* \"LoadManager.sol\":4466:4467  i */\n      dup1\n        /* \"LoadManager.sol\":4438:4444  Lender */\n      0x09\n        /* \"LoadManager.sol\":4438:4456  Lender[msg.sender] */\n      0x00\n        /* \"LoadManager.sol\":4445:4455  msg.sender */\n      caller\n        /* \"LoadManager.sol\":4438:4456  Lender[msg.sender] */\n      0xffffffffffffffffffffffffffffffffffffffff\n      and\n      0xffffffffffffffffffffffffffffffffffffffff\n      and\n      dup2\n      mstore\n      0x20\n      add\n      swap1\n      dup2\n      mstore\n      0x20\n      add\n      0x00\n      keccak256\n        /* \"LoadManager.sol\":4438:4463  Lender[msg.sender].length */\n      dup1\n      sload\n      swap1\n      pop\n        /* \"LoadManager.sol\":4438:4467  Lender[msg.sender].length > i */\n      gt\n        /* \"LoadManager.sol\":4418:4542  for (uint256 i = 0; Lender[msg.sender].length > i; i++) {... */\n      iszero\n      tag_126\n      jumpi\n        /* \"LoadManager.sol\":4519:4534  block.timestamp */\n      timestamp\n        /* \"LoadManager.sol\":4483:4489  Lender */\n      0x09\n        /* \"LoadManager.sol\":4483:4501  Lender[msg.sender] */\n      0x00\n        /* \"LoadManager.sol\":4490:4500  msg.sender */\n      caller\n        /* \"LoadManager.sol\":4483:4501  Lender[msg.sender] */\n      0xffffffffffffffffffffffffffffffffffffffff\n      and\n      0xffffffffffffffffffffffffffffffffffffffff\n      and\n      dup2\n      mstore\n      0x20\n      add\n      swap1\n      dup2\n      mstore\n      0x20\n      add\n      0x00\n      keccak256\n        /* \"LoadManager.sol\":4502:4503  i */\n      dup3\n        /* \"LoadManager.sol\":4483:4504  Lender[msg.sender][i] */\n      dup2\n      sload\n      dup2\n      lt\n      tag_128\n      jumpi\n      tag_129\n      tag_130\n      jump\t// in\n    tag_129:\n    tag_128:\n      swap1\n      0x00\n      mstore\n      keccak256(0x00, 0x20)\n      swap1\n      0x03\n      mul\n      add\n        /* \"LoadManager.sol\":4483:4516  Lender[msg.sender][i].depositTime */\n      0x01\n      add\n        /* \"LoadManager.sol\":4483:4534  Lender[msg.sender][i].depositTime = block.timestamp */\n      dup2\n      swap1\n      sstore\n      pop\n        /* \"LoadManager.sol\":4469:4472  i++ */\n      dup1\n      dup1\n      tag_132\n      swap1\n      tag_133\n      jump\t// in\n    tag_132:\n      swap2\n      pop\n      pop\n        /* \"LoadManager.sol\":4418:4542  for (uint256 i = 0; Lender[msg.sender].length > i; i++) {... */\n      jump(tag_125)\n    tag_126:\n      pop\n        /* \"LoadManager.sol\":4281:4547  {... */\n      pop\n        /* \"LoadManager.sol\":4246:4547  function withdrawInterest() public {... */\n      jump\t// out\n        /* \"LoadManager.sol\":3397:3565  function getInterestMatured() public returns (uint256) {... */\n    tag_29:\n        /* \"LoadManager.sol\":3443:3450  uint256 */\n      0x00\n        /* \"LoadManager.sol\":3489:3518  calculateInterest(msg.sender) */\n      tag_135\n        /* \"LoadManager.sol\":3507:3517  msg.sender */\n      caller\n        /* \"LoadManager.sol\":3489:3506  calculateInterest */\n      tag_106\n        /* \"LoadManager.sol\":3489:3518  calculateInterest(msg.sender) */\n      jump\t// in\n    tag_135:\n        /* \"LoadManager.sol\":3459:3474  interestMatured */\n      0x0a\n        /* \"LoadManager.sol\":3459:3486  interestMatured[msg.sender] */\n      0x00\n        /* \"LoadManager.sol\":3475:3485  msg.sender */\n      caller\n        /* \"LoadManager.sol\":3459:3486  interestMatured[msg.sender] */\n      0xffffffffffffffffffffffffffffffffffffffff\n      and\n      0xffffffffffffffffffffffffffffffffffffffff\n      and\n      dup2\n      mstore\n      0x20\n      add\n      swap1\n      dup2\n      mstore\n      0x20\n      add\n      0x00\n      keccak256\n        /* \"LoadManager.sol\":3459:3518  interestMatured[msg.sender] = calculateInterest(msg.sender) */\n      dup2\n      swap1\n      sstore\n      pop\n        /* \"LoadManager.sol\":3532:3547  interestMatured */\n      0x0a\n        /* \"LoadManager.sol\":3532:3559  interestMatured[msg.sender] */\n      0x00\n        /* \"LoadManager.sol\":3548:3558  msg.sender */\n      caller\n        /* \"LoadManager.sol\":3532:3559  interestMatured[msg.sender] */\n      0xffffffffffffffffffffffffffffffffffffffff\n      and\n      0xffffffffffffffffffffffffffffffffffffffff\n      and\n      dup2\n      mstore\n      0x20\n      add\n      swap1\n      dup2\n      mstore\n      0x20\n      add\n      0x00\n      keccak256\n      sload\n        /* \"LoadManager.sol\":3525:3559  return interestMatured[msg.sender] */\n      swap1\n      pop\n        /* \"LoadManager.sol\":3397:3565  function getInterestMatured() public returns (uint256) {... */\n      swap1\n      jump\t// out\n        /* \"LoadManager.sol\":678:752  mapping(address => mapping(int256 borrowId => borrowInfo)) public Borrower */\n    tag_36:\n      mstore(0x20, 0x07)\n      dup2\n      0x00\n      mstore\n      mstore(0x20, keccak256(0x00, 0x40))\n      dup1\n      0x00\n      mstore\n      keccak256(0x00, 0x40)\n      0x00\n      swap2\n      pop\n      swap2\n      pop\n      pop\n      dup1\n      0x00\n      add\n      dup1\n      sload\n      tag_136\n      swap1\n      tag_137\n      jump\t// in\n    tag_136:\n      dup1\n      0x1f\n      add\n      0x20\n      dup1\n      swap2\n      div\n      mul\n      0x20\n      add\n      mload(0x40)\n      swap1\n      dup2\n      add\n      0x40\n      mstore\n      dup1\n      swap3\n      swap2\n      swap1\n      dup2\n      dup2\n      mstore\n      0x20\n      add\n      dup3\n      dup1\n      sload\n      tag_138\n      swap1\n      tag_137\n      jump\t// in\n    tag_138:\n      dup1\n      iszero\n      tag_139\n      jumpi\n      dup1\n      0x1f\n      lt\n      tag_140\n      jumpi\n      0x0100\n      dup1\n      dup4\n      sload\n      div\n      mul\n      dup4\n      mstore\n      swap2\n      0x20\n      add\n      swap2\n      jump(tag_139)\n    tag_140:\n      dup3\n      add\n      swap2\n      swap1\n      0x00\n      mstore\n      keccak256(0x00, 0x20)\n      swap1\n    tag_141:\n      dup2\n      sload\n      dup2\n      mstore\n      swap1\n      0x01\n      add\n      swap1\n      0x20\n      add\n      dup1\n      dup4\n      gt\n      tag_141\n      jumpi\n      dup3\n      swap1\n      sub\n      0x1f\n      and\n      dup3\n      add\n      swap2\n    tag_139:\n      pop\n      pop\n      pop\n      pop\n      pop\n      swap1\n      dup1\n      0x01\n      add\n      sload\n      swap1\n      dup1\n      0x02\n      add\n      sload\n      swap1\n      dup1\n      0x03\n      add\n      sload\n      swap1\n      dup1\n      0x04\n      add\n      sload\n      swap1\n      pop\n      dup6\n      jump\t// out\n        /* \"LoadManager.sol\":858:908  mapping(address => uint256) public interestMatured */\n    tag_43:\n      mstore(0x20, 0x0a)\n      dup1\n      0x00\n      mstore\n      keccak256(0x00, 0x40)\n      0x00\n      swap2\n      pop\n      swap1\n      pop\n      sload\n      dup2\n      jump\t// out\n        /* \"LoadManager.sol\":4014:4240  function withdraw(uint256 amount) public checkNetPosition(amount) {... */\n    tag_49:\n        /* \"LoadManager.sol\":4072:4078  amount */\n      dup1\n        /* \"LoadManager.sol\":2832:2838  amount */\n      dup1\n        /* \"LoadManager.sol\":2805:2816  netPosition */\n      0x0b\n        /* \"LoadManager.sol\":2805:2828  netPosition[msg.sender] */\n      0x00\n        /* \"LoadManager.sol\":2817:2827  msg.sender */\n      caller\n        /* \"LoadManager.sol\":2805:2828  netPosition[msg.sender] */\n      0xffffffffffffffffffffffffffffffffffffffff\n      and\n      0xffffffffffffffffffffffffffffffffffffffff\n      and\n      dup2\n      mstore\n      0x20\n      add\n      swap1\n      dup2\n      mstore\n      0x20\n      add\n      0x00\n      keccak256\n      sload\n        /* \"LoadManager.sol\":2805:2838  netPosition[msg.sender] >= amount */\n      lt\n      iszero\n        /* \"LoadManager.sol\":2797:2868  require(netPosition[msg.sender] >= amount, 'Excedeed maximum withdraw') */\n      tag_143\n      jumpi\n      mload(0x40)\n      0x08c379a000000000000000000000000000000000000000000000000000000000\n      dup2\n      mstore\n      0x04\n      add\n      tag_144\n      swap1\n      tag_145\n      jump\t// in\n    tag_144:\n      mload(0x40)\n      dup1\n      swap2\n      sub\n      swap1\n      revert\n    tag_143:\n        /* \"LoadManager.sol\":4114:4120  amount */\n      dup2\n        /* \"LoadManager.sol\":4087:4098  netPosition */\n      0x0b\n        /* \"LoadManager.sol\":4087:4110  netPosition[msg.sender] */\n      0x00\n        /* \"LoadManager.sol\":4099:4109  msg.sender */\n      caller\n        /* \"LoadManager.sol\":4087:4110  netPosition[msg.sender] */\n      0xffffffffffffffffffffffffffffffffffffffff\n      and\n      0xffffffffffffffffffffffffffffffffffffffff\n      and\n      dup2\n      mstore\n      0x20\n      add\n      swap1\n      dup2\n      mstore\n      0x20\n      add\n      0x00\n      keccak256\n      0x00\n        /* \"LoadManager.sol\":4087:4120  netPosition[msg.sender] -= amount */\n      dup3\n      dup3\n      sload\n      tag_147\n      swap2\n      swap1\n      tag_148\n      jump\t// in\n    tag_147:\n      swap3\n      pop\n      pop\n      dup2\n      swap1\n      sstore\n      pop\n        /* \"LoadManager.sol\":4128:4139  bool result */\n      0x00\n        /* \"LoadManager.sol\":4153:4163  msg.sender */\n      caller\n        /* \"LoadManager.sol\":4145:4169  payable(msg.sender).call */\n      0xffffffffffffffffffffffffffffffffffffffff\n      and\n        /* \"LoadManager.sol\":4178:4184  amount */\n      dup4\n        /* \"LoadManager.sol\":4145:4190  payable(msg.sender).call{ value: amount }('') */\n      mload(0x40)\n      tag_149\n      swap1\n      tag_118\n      jump\t// in\n    tag_149:\n      0x00\n      mload(0x40)\n      dup1\n      dup4\n      sub\n      dup2\n      dup6\n      dup8\n      gas\n      call\n      swap3\n      pop\n      pop\n      pop\n      returndatasize\n      dup1\n      0x00\n      dup2\n      eq\n      tag_152\n      jumpi\n      mload(0x40)\n      swap2\n      pop\n      and(add(returndatasize, 0x3f), not(0x1f))\n      dup3\n      add\n      0x40\n      mstore\n      returndatasize\n      dup3\n      mstore\n      returndatasize\n      0x00\n      0x20\n      dup5\n      add\n      returndatacopy\n      jump(tag_151)\n    tag_152:\n      0x60\n      swap2\n      pop\n    tag_151:\n      pop\n        /* \"LoadManager.sol\":4127:4190  (bool result, ) = payable(msg.sender).call{ value: amount }('') */\n      pop\n      swap1\n      pop\n        /* \"LoadManager.sol\":4205:4211  result */\n      dup1\n        /* \"LoadManager.sol\":4197:4234  require(result, 'Transaction failed') */\n      tag_153\n      jumpi\n      mload(0x40)\n      0x08c379a000000000000000000000000000000000000000000000000000000000\n      dup2\n      mstore\n      0x04\n      add\n      tag_154\n      swap1\n      tag_124\n      jump\t// in\n    tag_154:\n      mload(0x40)\n      dup1\n      swap2\n      sub\n      swap1\n      revert\n    tag_153:\n        /* \"LoadManager.sol\":4080:4240  {... */\n      pop\n        /* \"LoadManager.sol\":4014:4240  function withdraw(uint256 amount) public checkNetPosition(amount) {... */\n      pop\n      pop\n      jump\t// out\n        /* \"LoadManager.sol\":966:1022  mapping(address => bool isActive) public isAddressActive */\n    tag_53:\n      mstore(0x20, 0x0c)\n      dup1\n      0x00\n      mstore\n      keccak256(0x00, 0x40)\n      0x00\n      swap2\n      pop\n      sload\n      swap1\n      0x0100\n      exp\n      swap1\n      div\n      0xff\n      and\n      dup2\n      jump\t// out\n        /* \"LoadManager.sol\":4553:5383  function openBorrow(... */\n    tag_59:\n        /* \"LoadManager.sol\":4651:4657  _weeks */\n      dup2\n        /* \"LoadManager.sol\":2388:2391  260 */\n      0x0104\n        /* \"LoadManager.sol\":2378:2384  _weeks */\n      dup2\n        /* \"LoadManager.sol\":2378:2391  _weeks <= 260 */\n      gt\n      iszero\n        /* \"LoadManager.sol\":2370:2415  require(_weeks <= 260, 'Invalid week number') */\n      tag_156\n      jumpi\n      mload(0x40)\n      0x08c379a000000000000000000000000000000000000000000000000000000000\n      dup2\n      mstore\n      0x04\n      add\n      tag_157\n      swap1\n      tag_158\n      jump\t// in\n    tag_157:\n      mload(0x40)\n      dup1\n      swap2\n      sub\n      swap1\n      revert\n    tag_156:\n        /* \"LoadManager.sol\":4678:4684  amount */\n      dup2\n        /* \"LoadManager.sol\":2577:2586  0.2 ether */\n      0x02c68af0bb140000\n        /* \"LoadManager.sol\":2568:2574  amount */\n      dup2\n        /* \"LoadManager.sol\":2568:2586  amount > 0.2 ether */\n      gt\n        /* \"LoadManager.sol\":2560:2615  require(amount > 0.2 ether, 'Minmum borrow is 0.2 Eth') */\n      tag_160\n      jumpi\n      mload(0x40)\n      0x08c379a000000000000000000000000000000000000000000000000000000000\n      dup2\n      mstore\n      0x04\n      add\n      tag_161\n      swap1\n      tag_162\n      jump\t// in\n    tag_161:\n      mload(0x40)\n      dup1\n      swap2\n      sub\n      swap1\n      revert\n    tag_160:\n        /* \"LoadManager.sol\":4693:4707  int256 counter */\n      0x00\n        /* \"LoadManager.sol\":4710:4721  borrowCount */\n      0x08\n        /* \"LoadManager.sol\":4710:4733  borrowCount[msg.sender] */\n      0x00\n        /* \"LoadManager.sol\":4722:4732  msg.sender */\n      caller\n        /* \"LoadManager.sol\":4710:4733  borrowCount[msg.sender] */\n      0xffffffffffffffffffffffffffffffffffffffff\n      and\n      0xffffffffffffffffffffffffffffffffffffffff\n      and\n      dup2\n      mstore\n      0x20\n      add\n      swap1\n      dup2\n      mstore\n      0x20\n      add\n      0x00\n      keccak256\n      0x00\n        /* \"LoadManager.sol\":4710:4735  borrowCount[msg.sender]++ */\n      dup2\n      sload\n      dup1\n      swap3\n      swap2\n      swap1\n      tag_164\n      swap1\n      tag_165\n      jump\t// in\n    tag_164:\n      swap2\n      swap1\n      pop\n      sstore\n        /* \"LoadManager.sol\":4693:4735  int256 counter = borrowCount[msg.sender]++ */\n      swap1\n      pop\n        /* \"LoadManager.sol\":4742:4758  uint256 _dueDate */\n      0x00\n        /* \"LoadManager.sol\":4789:4795  604800 */\n      0x093a80\n        /* \"LoadManager.sol\":4780:4786  _weeks */\n      dup7\n        /* \"LoadManager.sol\":4780:4795  _weeks * 604800 */\n      tag_166\n      swap2\n      swap1\n      tag_167\n      jump\t// in\n    tag_166:\n        /* \"LoadManager.sol\":4761:4776  block.timestamp */\n      timestamp\n        /* \"LoadManager.sol\":4761:4796  block.timestamp + (_weeks * 604800) */\n      tag_168\n      swap2\n      swap1\n      tag_169\n      jump\t// in\n    tag_168:\n        /* \"LoadManager.sol\":4742:4796  uint256 _dueDate = block.timestamp + (_weeks * 604800) */\n      swap1\n      pop\n        /* \"LoadManager.sol\":4803:4814  uint256 APY */\n      0x00\n        /* \"LoadManager.sol\":4834:4836  24 */\n      0x18\n        /* \"LoadManager.sol\":4825:4831  _weeks */\n      dup8\n        /* \"LoadManager.sol\":4825:4836  _weeks < 24 */\n      lt\n        /* \"LoadManager.sol\":4821:4992  if (_weeks < 24) {... */\n      iszero\n      tag_170\n      jumpi\n        /* \"LoadManager.sol\":4853:4854  7 */\n      0x07\n        /* \"LoadManager.sol\":4847:4854  APY = 7 */\n      swap1\n      pop\n        /* \"LoadManager.sol\":4821:4992  if (_weeks < 24) {... */\n      jump(tag_171)\n    tag_170:\n        /* \"LoadManager.sol\":4882:4884  24 */\n      0x18\n        /* \"LoadManager.sol\":4872:4878  _weeks */\n      dup8\n        /* \"LoadManager.sol\":4872:4884  _weeks >= 24 */\n      lt\n      iszero\n        /* \"LoadManager.sol\":4872:4900  _weeks >= 24 && _weeks < 104 */\n      dup1\n      iszero\n      tag_172\n      jumpi\n      pop\n        /* \"LoadManager.sol\":4897:4900  104 */\n      0x68\n        /* \"LoadManager.sol\":4888:4894  _weeks */\n      dup8\n        /* \"LoadManager.sol\":4888:4900  _weeks < 104 */\n      lt\n        /* \"LoadManager.sol\":4872:4900  _weeks >= 24 && _weeks < 104 */\n    tag_172:\n        /* \"LoadManager.sol\":4868:4992  if (_weeks >= 24 && _weeks < 104) {... */\n      iszero\n      tag_173\n      jumpi\n        /* \"LoadManager.sol\":4917:4918  6 */\n      0x06\n        /* \"LoadManager.sol\":4911:4918  APY = 6 */\n      swap1\n      pop\n        /* \"LoadManager.sol\":4868:4992  if (_weeks >= 24 && _weeks < 104) {... */\n      jump(tag_174)\n    tag_173:\n        /* \"LoadManager.sol\":4946:4949  104 */\n      0x68\n        /* \"LoadManager.sol\":4936:4942  _weeks */\n      dup8\n        /* \"LoadManager.sol\":4936:4949  _weeks >= 104 */\n      lt\n      iszero\n        /* \"LoadManager.sol\":4936:4966  _weeks >= 104 && _weeks <= 260 */\n      dup1\n      iszero\n      tag_175\n      jumpi\n      pop\n        /* \"LoadManager.sol\":4963:4966  260 */\n      0x0104\n        /* \"LoadManager.sol\":4953:4959  _weeks */\n      dup8\n        /* \"LoadManager.sol\":4953:4966  _weeks <= 260 */\n      gt\n      iszero\n        /* \"LoadManager.sol\":4936:4966  _weeks >= 104 && _weeks <= 260 */\n    tag_175:\n        /* \"LoadManager.sol\":4932:4992  if (_weeks >= 104 && _weeks <= 260) {... */\n      iszero\n      tag_176\n      jumpi\n        /* \"LoadManager.sol\":4983:4984  5 */\n      0x05\n        /* \"LoadManager.sol\":4977:4984  APY = 5 */\n      swap1\n      pop\n        /* \"LoadManager.sol\":4932:4992  if (_weeks >= 104 && _weeks <= 260) {... */\n    tag_176:\n        /* \"LoadManager.sol\":4868:4992  if (_weeks >= 24 && _weeks < 104) {... */\n    tag_174:\n        /* \"LoadManager.sol\":4821:4992  if (_weeks < 24) {... */\n    tag_171:\n        /* \"LoadManager.sol\":4998:5020  uint256 _paybackAmount */\n      0x00\n        /* \"LoadManager.sol\":5050:5053  100 */\n      0x64\n        /* \"LoadManager.sol\":5043:5046  APY */\n      dup3\n        /* \"LoadManager.sol\":5034:5040  amount */\n      dup9\n        /* \"LoadManager.sol\":5034:5046  amount * APY */\n      tag_177\n      swap2\n      swap1\n      tag_167\n      jump\t// in\n    tag_177:\n        /* \"LoadManager.sol\":5033:5053  (amount * APY) / 100 */\n      tag_178\n      swap2\n      swap1\n      tag_179\n      jump\t// in\n    tag_178:\n        /* \"LoadManager.sol\":5023:5029  amount */\n      dup8\n        /* \"LoadManager.sol\":5023:5054  amount + ((amount * APY) / 100) */\n      tag_180\n      swap2\n      swap1\n      tag_169\n      jump\t// in\n    tag_180:\n        /* \"LoadManager.sol\":4998:5054  uint256 _paybackAmount = amount + ((amount * APY) / 100) */\n      swap1\n      pop\n        /* \"LoadManager.sol\":5062:5074  bool success */\n      0x00\n        /* \"LoadManager.sol\":5080:5090  msg.sender */\n      caller\n        /* \"LoadManager.sol\":5080:5095  msg.sender.call */\n      0xffffffffffffffffffffffffffffffffffffffff\n      and\n        /* \"LoadManager.sol\":5104:5110  amount */\n      dup9\n        /* \"LoadManager.sol\":5080:5116  msg.sender.call{ value: amount }('') */\n      mload(0x40)\n      tag_181\n      swap1\n      tag_118\n      jump\t// in\n    tag_181:\n      0x00\n      mload(0x40)\n      dup1\n      dup4\n      sub\n      dup2\n      dup6\n      dup8\n      gas\n      call\n      swap3\n      pop\n      pop\n      pop\n      returndatasize\n      dup1\n      0x00\n      dup2\n      eq\n      tag_184\n      jumpi\n      mload(0x40)\n      swap2\n      pop\n      and(add(returndatasize, 0x3f), not(0x1f))\n      dup3\n      add\n      0x40\n      mstore\n      returndatasize\n      dup3\n      mstore\n      returndatasize\n      0x00\n      0x20\n      dup5\n      add\n      returndatacopy\n      jump(tag_183)\n    tag_184:\n      0x60\n      swap2\n      pop\n    tag_183:\n      pop\n        /* \"LoadManager.sol\":5061:5116  (bool success, ) = msg.sender.call{ value: amount }('') */\n      pop\n      swap1\n      pop\n        /* \"LoadManager.sol\":5131:5138  success */\n      dup1\n        /* \"LoadManager.sol\":5123:5161  require(success, 'Transaction failed') */\n      tag_185\n      jumpi\n      mload(0x40)\n      0x08c379a000000000000000000000000000000000000000000000000000000000\n      dup2\n      mstore\n      0x04\n      add\n      tag_186\n      swap1\n      tag_124\n      jump\t// in\n    tag_186:\n      mload(0x40)\n      dup1\n      swap2\n      sub\n      swap1\n      revert\n    tag_185:\n        /* \"LoadManager.sol\":5200:5259  borrowInfo('active', _dueDate, APY, amount, _paybackAmount) */\n      mload(0x40)\n      dup1\n      0xa0\n      add\n      0x40\n      mstore\n      dup1\n      mload(0x40)\n      dup1\n      0x40\n      add\n      0x40\n      mstore\n      dup1\n      0x06\n      dup2\n      mstore\n      0x20\n      add\n      0x6163746976650000000000000000000000000000000000000000000000000000\n      dup2\n      mstore\n      pop\n      dup2\n      mstore\n      0x20\n      add\n        /* \"LoadManager.sol\":5221:5229  _dueDate */\n      dup6\n        /* \"LoadManager.sol\":5200:5259  borrowInfo('active', _dueDate, APY, amount, _paybackAmount) */\n      dup2\n      mstore\n      0x20\n      add\n        /* \"LoadManager.sol\":5231:5234  APY */\n      dup5\n        /* \"LoadManager.sol\":5200:5259  borrowInfo('active', _dueDate, APY, amount, _paybackAmount) */\n      dup2\n      mstore\n      0x20\n      add\n        /* \"LoadManager.sol\":5236:5242  amount */\n      dup10\n        /* \"LoadManager.sol\":5200:5259  borrowInfo('active', _dueDate, APY, amount, _paybackAmount) */\n      dup2\n      mstore\n      0x20\n      add\n        /* \"LoadManager.sol\":5244:5258  _paybackAmount */\n      dup4\n        /* \"LoadManager.sol\":5200:5259  borrowInfo('active', _dueDate, APY, amount, _paybackAmount) */\n      dup2\n      mstore\n      pop\n        /* \"LoadManager.sol\":5168:5176  Borrower */\n      0x07\n        /* \"LoadManager.sol\":5168:5188  Borrower[msg.sender] */\n      0x00\n        /* \"LoadManager.sol\":5177:5187  msg.sender */\n      caller\n        /* \"LoadManager.sol\":5168:5188  Borrower[msg.sender] */\n      0xffffffffffffffffffffffffffffffffffffffff\n      and\n      0xffffffffffffffffffffffffffffffffffffffff\n      and\n      dup2\n      mstore\n      0x20\n      add\n      swap1\n      dup2\n      mstore\n      0x20\n      add\n      0x00\n      keccak256\n        /* \"LoadManager.sol\":5168:5197  Borrower[msg.sender][counter] */\n      0x00\n        /* \"LoadManager.sol\":5189:5196  counter */\n      dup8\n        /* \"LoadManager.sol\":5168:5197  Borrower[msg.sender][counter] */\n      dup2\n      mstore\n      0x20\n      add\n      swap1\n      dup2\n      mstore\n      0x20\n      add\n      0x00\n      keccak256\n        /* \"LoadManager.sol\":5168:5259  Borrower[msg.sender][counter] = borrowInfo('active', _dueDate, APY, amount, _paybackAmount) */\n      0x00\n      dup3\n      add\n      mload\n      dup2\n      0x00\n      add\n      swap1\n      dup2\n      tag_187\n      swap2\n      swap1\n      tag_188\n      jump\t// in\n    tag_187:\n      pop\n      0x20\n      dup3\n      add\n      mload\n      dup2\n      0x01\n      add\n      sstore\n      0x40\n      dup3\n      add\n      mload\n      dup2\n      0x02\n      add\n      sstore\n      0x60\n      dup3\n      add\n      mload\n      dup2\n      0x03\n      add\n      sstore\n      0x80\n      dup3\n      add\n      mload\n      dup2\n      0x04\n      add\n      sstore\n      swap1\n      pop\n      pop\n        /* \"LoadManager.sol\":5266:5327  checkCategoryRegistration(userBorrowersList, userLendersList) */\n      tag_189\n        /* \"LoadManager.sol\":5292:5309  userBorrowersList */\n      0x02\n        /* \"LoadManager.sol\":5311:5326  userLendersList */\n      0x03\n        /* \"LoadManager.sol\":5266:5291  checkCategoryRegistration */\n      tag_190\n        /* \"LoadManager.sol\":5266:5327  checkCategoryRegistration(userBorrowersList, userLendersList) */\n      jump\t// in\n    tag_189:\n        /* \"LoadManager.sol\":5353:5370  userBorrowersList */\n      0x02\n        /* \"LoadManager.sol\":5353:5377  userBorrowersList.length */\n      dup1\n      sload\n      swap1\n      pop\n        /* \"LoadManager.sol\":5334:5350  borrowersCounter */\n      0x04\n        /* \"LoadManager.sol\":5334:5377  borrowersCounter = userBorrowersList.length */\n      dup2\n      swap1\n      sstore\n      pop\n        /* \"LoadManager.sol\":4686:5383  {... */\n      pop\n      pop\n      pop\n      pop\n      pop\n        /* \"LoadManager.sol\":2422:2423  _ */\n      pop\n        /* \"LoadManager.sol\":4553:5383  function openBorrow(... */\n      pop\n      pop\n      pop\n      jump\t// out\n        /* \"LoadManager.sol\":1080:1187  function getUserBorrowerList() public view returns (address[] memory) {... */\n    tag_62:\n        /* \"LoadManager.sol\":1132:1148  address[] memory */\n      0x60\n        /* \"LoadManager.sol\":1164:1181  userBorrowersList */\n      0x02\n        /* \"LoadManager.sol\":1157:1181  return userBorrowersList */\n      dup1\n      sload\n      dup1\n      0x20\n      mul\n      0x20\n      add\n      mload(0x40)\n      swap1\n      dup2\n      add\n      0x40\n      mstore\n      dup1\n      swap3\n      swap2\n      swap1\n      dup2\n      dup2\n      mstore\n      0x20\n      add\n      dup3\n      dup1\n      sload\n      dup1\n      iszero\n      tag_192\n      jumpi\n      0x20\n      mul\n      dup3\n      add\n      swap2\n      swap1\n      0x00\n      mstore\n      keccak256(0x00, 0x20)\n      swap1\n    tag_193:\n      dup2\n      0x00\n      swap1\n      sload\n      swap1\n      0x0100\n      exp\n      swap1\n      div\n      0xffffffffffffffffffffffffffffffffffffffff\n      and\n      0xffffffffffffffffffffffffffffffffffffffff\n      and\n      dup2\n      mstore\n      0x20\n      add\n      swap1\n      0x01\n      add\n      swap1\n      dup1\n      dup4\n      gt\n      tag_193\n      jumpi\n    tag_192:\n      pop\n      pop\n      pop\n      pop\n      pop\n      swap1\n      pop\n        /* \"LoadManager.sol\":1080:1187  function getUserBorrowerList() public view returns (address[] memory) {... */\n      swap1\n      jump\t// out\n        /* \"LoadManager.sol\":299:325  uint256 public lendAPY = 3 */\n    tag_67:\n      sload(0x06)\n      dup2\n      jump\t// out\n        /* \"LoadManager.sol\":332:433  function getContractBalance() public view returns (uint256) {... */\n    tag_71:\n        /* \"LoadManager.sol\":383:390  uint256 */\n      0x00\n        /* \"LoadManager.sol\":406:427  address(this).balance */\n      selfbalance\n        /* \"LoadManager.sol\":399:427  return address(this).balance */\n      swap1\n      pop\n        /* \"LoadManager.sol\":332:433  function getContractBalance() public view returns (uint256) {... */\n      swap1\n      jump\t// out\n        /* \"LoadManager.sol\":757:802  mapping(address => int256) public borrowCount */\n    tag_76:\n      mstore(0x20, 0x08)\n      dup1\n      0x00\n      mstore\n      keccak256(0x00, 0x40)\n      0x00\n      swap2\n      pop\n      swap1\n      pop\n      sload\n      dup2\n      jump\t// out\n        /* \"LoadManager.sol\":88:108  address public owner */\n    tag_81:\n      0x00\n      0x00\n      swap1\n      sload\n      swap1\n      0x0100\n      exp\n      swap1\n      div\n      0xffffffffffffffffffffffffffffffffffffffff\n      and\n      dup2\n      jump\t// out\n        /* \"LoadManager.sol\":2936:3391  function lend() public payable checkMinimalLend {... */\n    tag_85:\n        /* \"LoadManager.sol\":2690:2699  0.1 ether */\n      0x016345785d8a0000\n        /* \"LoadManager.sol\":2678:2687  msg.value */\n      callvalue\n        /* \"LoadManager.sol\":2678:2699  msg.value > 0.1 ether */\n      gt\n        /* \"LoadManager.sol\":2670:2728  require(msg.value > 0.1 ether, 'Minmum borrow is 0.1 Eth') */\n      tag_196\n      jumpi\n      mload(0x40)\n      0x08c379a000000000000000000000000000000000000000000000000000000000\n      dup2\n      mstore\n      0x04\n      add\n      tag_197\n      swap1\n      tag_198\n      jump\t// in\n    tag_197:\n      mload(0x40)\n      dup1\n      swap2\n      sub\n      swap1\n      revert\n    tag_196:\n        /* \"LoadManager.sol\":3018:3027  msg.value */\n      callvalue\n        /* \"LoadManager.sol\":2991:3002  netPosition */\n      0x0b\n        /* \"LoadManager.sol\":2991:3014  netPosition[msg.sender] */\n      0x00\n        /* \"LoadManager.sol\":3003:3013  msg.sender */\n      caller\n        /* \"LoadManager.sol\":2991:3014  netPosition[msg.sender] */\n      0xffffffffffffffffffffffffffffffffffffffff\n      and\n      0xffffffffffffffffffffffffffffffffffffffff\n      and\n      dup2\n      mstore\n      0x20\n      add\n      swap1\n      dup2\n      mstore\n      0x20\n      add\n      0x00\n      keccak256\n      0x00\n        /* \"LoadManager.sol\":2991:3027  netPosition[msg.sender] += msg.value */\n      dup3\n      dup3\n      sload\n      tag_200\n      swap2\n      swap1\n      tag_169\n      jump\t// in\n    tag_200:\n      swap3\n      pop\n      pop\n      dup2\n      swap1\n      sstore\n      pop\n        /* \"LoadManager.sol\":3034:3095  checkCategoryRegistration(userLendersList, userBorrowersList) */\n      tag_201\n        /* \"LoadManager.sol\":3060:3075  userLendersList */\n      0x03\n        /* \"LoadManager.sol\":3077:3094  userBorrowersList */\n      0x02\n        /* \"LoadManager.sol\":3034:3059  checkCategoryRegistration */\n      tag_190\n        /* \"LoadManager.sol\":3034:3095  checkCategoryRegistration(userLendersList, userBorrowersList) */\n      jump\t// in\n    tag_201:\n        /* \"LoadManager.sol\":3119:3134  userLendersList */\n      0x03\n        /* \"LoadManager.sol\":3119:3141  userLendersList.length */\n      dup1\n      sload\n      swap1\n      pop\n        /* \"LoadManager.sol\":3102:3116  lendersCounter */\n      0x05\n        /* \"LoadManager.sol\":3102:3141  lendersCounter = userLendersList.length */\n      dup2\n      swap1\n      sstore\n      pop\n        /* \"LoadManager.sol\":3148:3154  Lender */\n      0x09\n        /* \"LoadManager.sol\":3148:3166  Lender[msg.sender] */\n      0x00\n        /* \"LoadManager.sol\":3155:3165  msg.sender */\n      caller\n        /* \"LoadManager.sol\":3148:3166  Lender[msg.sender] */\n      0xffffffffffffffffffffffffffffffffffffffff\n      and\n      0xffffffffffffffffffffffffffffffffffffffff\n      and\n      dup2\n      mstore\n      0x20\n      add\n      swap1\n      dup2\n      mstore\n      0x20\n      add\n      0x00\n      keccak256\n        /* \"LoadManager.sol\":3180:3318  lendInfo({... */\n      mload(0x40)\n      dup1\n      0x60\n      add\n      0x40\n      mstore\n      dup1\n        /* \"LoadManager.sol\":3215:3221  Lender */\n      0x09\n        /* \"LoadManager.sol\":3215:3233  Lender[msg.sender] */\n      0x00\n        /* \"LoadManager.sol\":3222:3232  msg.sender */\n      caller\n        /* \"LoadManager.sol\":3215:3233  Lender[msg.sender] */\n      0xffffffffffffffffffffffffffffffffffffffff\n      and\n      0xffffffffffffffffffffffffffffffffffffffff\n      and\n      dup2\n      mstore\n      0x20\n      add\n      swap1\n      dup2\n      mstore\n      0x20\n      add\n      0x00\n      keccak256\n        /* \"LoadManager.sol\":3215:3240  Lender[msg.sender].length */\n      dup1\n      sload\n      swap1\n      pop\n        /* \"LoadManager.sol\":3180:3318  lendInfo({... */\n      dup2\n      mstore\n      0x20\n      add\n        /* \"LoadManager.sol\":3265:3280  block.timestamp */\n      timestamp\n        /* \"LoadManager.sol\":3180:3318  lendInfo({... */\n      dup2\n      mstore\n      0x20\n      add\n        /* \"LoadManager.sol\":3299:3308  msg.value */\n      callvalue\n        /* \"LoadManager.sol\":3180:3318  lendInfo({... */\n      dup2\n      mstore\n      pop\n        /* \"LoadManager.sol\":3148:3325  Lender[msg.sender].push(... */\n      swap1\n      dup1\n      0x01\n      dup2\n      sload\n      add\n      dup1\n      dup3\n      sstore\n      dup1\n      swap2\n      pop\n      pop\n      0x01\n      swap1\n      sub\n      swap1\n      0x00\n      mstore\n      keccak256(0x00, 0x20)\n      swap1\n      0x03\n      mul\n      add\n      0x00\n      swap1\n      swap2\n      swap1\n      swap2\n      swap1\n      swap2\n      pop\n      0x00\n      dup3\n      add\n      mload\n      dup2\n      0x00\n      add\n      sstore\n      0x20\n      dup3\n      add\n      mload\n      dup2\n      0x01\n      add\n      sstore\n      0x40\n      dup3\n      add\n      mload\n      dup2\n      0x02\n      add\n      sstore\n      pop\n      pop\n        /* \"LoadManager.sol\":3337:3385  lendDone(msg.sender, msg.value, block.timestamp) */\n      0xf6285a60c92fd2767bc48a572b64940a62be26cb7c523e64bf3bd75a82062559\n        /* \"LoadManager.sol\":3346:3356  msg.sender */\n      caller\n        /* \"LoadManager.sol\":3358:3367  msg.value */\n      callvalue\n        /* \"LoadManager.sol\":3369:3384  block.timestamp */\n      timestamp\n        /* \"LoadManager.sol\":3337:3385  lendDone(msg.sender, msg.value, block.timestamp) */\n      mload(0x40)\n      tag_203\n      swap4\n      swap3\n      swap2\n      swap1\n      tag_204\n      jump\t// in\n    tag_203:\n      mload(0x40)\n      dup1\n      swap2\n      sub\n      swap1\n      log1\n        /* \"LoadManager.sol\":2936:3391  function lend() public payable checkMinimalLend {... */\n      jump\t// out\n        /* \"LoadManager.sol\":265:294  uint256 public lendersCounter */\n    tag_88:\n      sload(0x05)\n      dup2\n      jump\t// out\n        /* \"LoadManager.sol\":1193:1297  function getUserLendersList() public view returns (address[] memory) {... */\n    tag_92:\n        /* \"LoadManager.sol\":1244:1260  address[] memory */\n      0x60\n        /* \"LoadManager.sol\":1276:1291  userLendersList */\n      0x03\n        /* \"LoadManager.sol\":1269:1291  return userLendersList */\n      dup1\n      sload\n      dup1\n      0x20\n      mul\n      0x20\n      add\n      mload(0x40)\n      swap1\n      dup2\n      add\n      0x40\n      mstore\n      dup1\n      swap3\n      swap2\n      swap1\n      dup2\n      dup2\n      mstore\n      0x20\n      add\n      dup3\n      dup1\n      sload\n      dup1\n      iszero\n      tag_206\n      jumpi\n      0x20\n      mul\n      dup3\n      add\n      swap2\n      swap1\n      0x00\n      mstore\n      keccak256(0x00, 0x20)\n      swap1\n    tag_207:\n      dup2\n      0x00\n      swap1\n      sload\n      swap1\n      0x0100\n      exp\n      swap1\n      div\n      0xffffffffffffffffffffffffffffffffffffffff\n      and\n      0xffffffffffffffffffffffffffffffffffffffff\n      and\n      dup2\n      mstore\n      0x20\n      add\n      swap1\n      0x01\n      add\n      swap1\n      dup1\n      dup4\n      gt\n      tag_207\n      jumpi\n    tag_206:\n      pop\n      pop\n      pop\n      pop\n      pop\n      swap1\n      pop\n        /* \"LoadManager.sol\":1193:1297  function getUserLendersList() public view returns (address[] memory) {... */\n      swap1\n      jump\t// out\n        /* \"LoadManager.sol\":915:961  mapping(address => uint256) public netPosition */\n    tag_97:\n      mstore(0x20, 0x0b)\n      dup1\n      0x00\n      mstore\n      keccak256(0x00, 0x40)\n      0x00\n      swap2\n      pop\n      swap1\n      pop\n      sload\n      dup2\n      jump\t// out\n        /* \"LoadManager.sol\":229:260  uint256 public borrowersCounter */\n    tag_101:\n      sload(0x04)\n      dup2\n      jump\t// out\n        /* \"LoadManager.sol\":3571:4008  function calculateInterest(address _address) public view returns (uint256) {... */\n    tag_106:\n        /* \"LoadManager.sol\":3637:3644  uint256 */\n      0x00\n        /* \"LoadManager.sol\":3653:3674  uint256 totalInterest */\n      0x00\n        /* \"LoadManager.sol\":3688:3697  uint256 i */\n      0x00\n        /* \"LoadManager.sol\":3700:3701  0 */\n      0x00\n        /* \"LoadManager.sol\":3688:3701  uint256 i = 0 */\n      swap1\n      pop\n        /* \"LoadManager.sol\":3683:3976  for (uint256 i = 0; Lender[_address].length > i; i++) {... */\n    tag_209:\n        /* \"LoadManager.sol\":3729:3730  i */\n      dup1\n        /* \"LoadManager.sol\":3703:3709  Lender */\n      0x09\n        /* \"LoadManager.sol\":3703:3719  Lender[_address] */\n      0x00\n        /* \"LoadManager.sol\":3710:3718  _address */\n      dup7\n        /* \"LoadManager.sol\":3703:3719  Lender[_address] */\n      0xffffffffffffffffffffffffffffffffffffffff\n      and\n      0xffffffffffffffffffffffffffffffffffffffff\n      and\n      dup2\n      mstore\n      0x20\n      add\n      swap1\n      dup2\n      mstore\n      0x20\n      add\n      0x00\n      keccak256\n        /* \"LoadManager.sol\":3703:3726  Lender[_address].length */\n      dup1\n      sload\n      swap1\n      pop\n        /* \"LoadManager.sol\":3703:3730  Lender[_address].length > i */\n      gt\n        /* \"LoadManager.sol\":3683:3976  for (uint256 i = 0; Lender[_address].length > i; i++) {... */\n      iszero\n      tag_210\n      jumpi\n        /* \"LoadManager.sol\":3780:3781  0 */\n      0x00\n        /* \"LoadManager.sol\":3750:3756  Lender */\n      0x09\n        /* \"LoadManager.sol\":3750:3766  Lender[_address] */\n      0x00\n        /* \"LoadManager.sol\":3757:3765  _address */\n      dup7\n        /* \"LoadManager.sol\":3750:3766  Lender[_address] */\n      0xffffffffffffffffffffffffffffffffffffffff\n      and\n      0xffffffffffffffffffffffffffffffffffffffff\n      and\n      dup2\n      mstore\n      0x20\n      add\n      swap1\n      dup2\n      mstore\n      0x20\n      add\n      0x00\n      keccak256\n        /* \"LoadManager.sol\":3767:3768  i */\n      dup3\n        /* \"LoadManager.sol\":3750:3769  Lender[_address][i] */\n      dup2\n      sload\n      dup2\n      lt\n      tag_212\n      jumpi\n      tag_213\n      tag_130\n      jump\t// in\n    tag_213:\n    tag_212:\n      swap1\n      0x00\n      mstore\n      keccak256(0x00, 0x20)\n      swap1\n      0x03\n      mul\n      add\n        /* \"LoadManager.sol\":3750:3776  Lender[_address][i].amount */\n      0x02\n      add\n      sload\n        /* \"LoadManager.sol\":3750:3781  Lender[_address][i].amount == 0 */\n      sub\n        /* \"LoadManager.sol\":3746:3791  if (Lender[_address][i].amount == 0) continue */\n      iszero\n        /* \"LoadManager.sol\":3783:3791  continue */\n      tag_211\n        /* \"LoadManager.sol\":3746:3791  if (Lender[_address][i].amount == 0) continue */\n      jumpi\n        /* \"LoadManager.sol\":3953:3967  100 * 365 days */\n      0xbbf81e00\n        /* \"LoadManager.sol\":3913:3919  Lender */\n      0x09\n        /* \"LoadManager.sol\":3913:3929  Lender[_address] */\n      0x00\n        /* \"LoadManager.sol\":3920:3928  _address */\n      dup7\n        /* \"LoadManager.sol\":3913:3929  Lender[_address] */\n      0xffffffffffffffffffffffffffffffffffffffff\n      and\n      0xffffffffffffffffffffffffffffffffffffffff\n      and\n      dup2\n      mstore\n      0x20\n      add\n      swap1\n      dup2\n      mstore\n      0x20\n      add\n      0x00\n      keccak256\n        /* \"LoadManager.sol\":3930:3931  i */\n      dup3\n        /* \"LoadManager.sol\":3913:3932  Lender[_address][i] */\n      dup2\n      sload\n      dup2\n      lt\n      tag_216\n      jumpi\n      tag_217\n      tag_130\n      jump\t// in\n    tag_217:\n    tag_216:\n      swap1\n      0x00\n      mstore\n      keccak256(0x00, 0x20)\n      swap1\n      0x03\n      mul\n      add\n        /* \"LoadManager.sol\":3913:3939  Lender[_address][i].amount */\n      0x02\n      add\n      sload\n        /* \"LoadManager.sol\":3892:3899  lendAPY */\n      sload(0x06)\n        /* \"LoadManager.sol\":3846:3852  Lender */\n      0x09\n        /* \"LoadManager.sol\":3846:3862  Lender[_address] */\n      0x00\n        /* \"LoadManager.sol\":3853:3861  _address */\n      dup9\n        /* \"LoadManager.sol\":3846:3862  Lender[_address] */\n      0xffffffffffffffffffffffffffffffffffffffff\n      and\n      0xffffffffffffffffffffffffffffffffffffffff\n      and\n      dup2\n      mstore\n      0x20\n      add\n      swap1\n      dup2\n      mstore\n      0x20\n      add\n      0x00\n      keccak256\n        /* \"LoadManager.sol\":3863:3864  i */\n      dup5\n        /* \"LoadManager.sol\":3846:3865  Lender[_address][i] */\n      dup2\n      sload\n      dup2\n      lt\n      tag_219\n      jumpi\n      tag_220\n      tag_130\n      jump\t// in\n    tag_220:\n    tag_219:\n      swap1\n      0x00\n      mstore\n      keccak256(0x00, 0x20)\n      swap1\n      0x03\n      mul\n      add\n        /* \"LoadManager.sol\":3846:3877  Lender[_address][i].depositTime */\n      0x01\n      add\n      sload\n        /* \"LoadManager.sol\":3828:3843  block.timestamp */\n      timestamp\n        /* \"LoadManager.sol\":3828:3877  block.timestamp - Lender[_address][i].depositTime */\n      tag_222\n      swap2\n      swap1\n      tag_148\n      jump\t// in\n    tag_222:\n        /* \"LoadManager.sol\":3827:3899  (block.timestamp - Lender[_address][i].depositTime) *... */\n      tag_223\n      swap2\n      swap1\n      tag_167\n      jump\t// in\n    tag_223:\n        /* \"LoadManager.sol\":3827:3939  (block.timestamp - Lender[_address][i].depositTime) *... */\n      tag_224\n      swap2\n      swap1\n      tag_167\n      jump\t// in\n    tag_224:\n        /* \"LoadManager.sol\":3826:3968  ((block.timestamp - Lender[_address][i].depositTime) *... */\n      tag_225\n      swap2\n      swap1\n      tag_179\n      jump\t// in\n    tag_225:\n        /* \"LoadManager.sol\":3800:3968  totalInterest +=... */\n      dup3\n      tag_226\n      swap2\n      swap1\n      tag_169\n      jump\t// in\n    tag_226:\n      swap2\n      pop\n        /* \"LoadManager.sol\":3683:3976  for (uint256 i = 0; Lender[_address].length > i; i++) {... */\n    tag_211:\n        /* \"LoadManager.sol\":3732:3735  i++ */\n      dup1\n      dup1\n      tag_227\n      swap1\n      tag_133\n      jump\t// in\n    tag_227:\n      swap2\n      pop\n      pop\n        /* \"LoadManager.sol\":3683:3976  for (uint256 i = 0; Lender[_address].length > i; i++) {... */\n      jump(tag_209)\n    tag_210:\n      pop\n        /* \"LoadManager.sol\":3989:4002  totalInterest */\n      dup1\n        /* \"LoadManager.sol\":3982:4002  return totalInterest */\n      swap2\n      pop\n      pop\n        /* \"LoadManager.sol\":3571:4008  function calculateInterest(address _address) public view returns (uint256) {... */\n      swap2\n      swap1\n      pop\n      jump\t// out\n        /* \"LoadManager.sol\":809:853  mapping(address => lendInfo[]) public Lender */\n    tag_112:\n      mstore(0x20, 0x09)\n      dup2\n      0x00\n      mstore\n      keccak256(0x00, 0x40)\n      dup2\n      dup2\n      sload\n      dup2\n      lt\n      tag_228\n      jumpi\n      0x00\n      dup1\n      revert\n    tag_228:\n      swap1\n      0x00\n      mstore\n      keccak256(0x00, 0x20)\n      swap1\n      0x03\n      mul\n      add\n      0x00\n      swap2\n      pop\n      swap2\n      pop\n      pop\n      dup1\n      0x00\n      add\n      sload\n      swap1\n      dup1\n      0x01\n      add\n      sload\n      swap1\n      dup1\n      0x02\n      add\n      sload\n      swap1\n      pop\n      dup4\n      jump\t// out\n        /* \"LoadManager.sol\":1404:2271  function checkCategoryRegistration(address[] storage list, address[] storage list2) internal {... */\n    tag_190:\n        /* \"LoadManager.sol\":1504:1514  bool found */\n      0x00\n        /* \"LoadManager.sol\":1521:1532  bool found2 */\n      0x00\n        /* \"LoadManager.sol\":1642:1651  uint256 i */\n      0x00\n        /* \"LoadManager.sol\":1654:1655  0 */\n      0x00\n        /* \"LoadManager.sol\":1642:1655  uint256 i = 0 */\n      swap1\n      pop\n        /* \"LoadManager.sol\":1637:1771  for (uint256 i = 0; i < list.length; i++) {... */\n    tag_231:\n        /* \"LoadManager.sol\":1661:1665  list */\n      dup5\n        /* \"LoadManager.sol\":1661:1672  list.length */\n      dup1\n      sload\n      swap1\n      pop\n        /* \"LoadManager.sol\":1657:1658  i */\n      dup2\n        /* \"LoadManager.sol\":1657:1672  i < list.length */\n      lt\n        /* \"LoadManager.sol\":1637:1771  for (uint256 i = 0; i < list.length; i++) {... */\n      iszero\n      tag_232\n      jumpi\n        /* \"LoadManager.sol\":1703:1713  msg.sender */\n      caller\n        /* \"LoadManager.sol\":1692:1713  list[i] == msg.sender */\n      0xffffffffffffffffffffffffffffffffffffffff\n      and\n        /* \"LoadManager.sol\":1692:1696  list */\n      dup6\n        /* \"LoadManager.sol\":1697:1698  i */\n      dup3\n        /* \"LoadManager.sol\":1692:1699  list[i] */\n      dup2\n      sload\n      dup2\n      lt\n      tag_234\n      jumpi\n      tag_235\n      tag_130\n      jump\t// in\n    tag_235:\n    tag_234:\n      swap1\n      0x00\n      mstore\n      keccak256(0x00, 0x20)\n      add\n      0x00\n      swap1\n      sload\n      swap1\n      0x0100\n      exp\n      swap1\n      div\n      0xffffffffffffffffffffffffffffffffffffffff\n      and\n        /* \"LoadManager.sol\":1692:1713  list[i] == msg.sender */\n      0xffffffffffffffffffffffffffffffffffffffff\n      and\n      sub\n        /* \"LoadManager.sol\":1688:1764  if (list[i] == msg.sender) {... */\n      tag_237\n      jumpi\n        /* \"LoadManager.sol\":1734:1738  true */\n      0x01\n        /* \"LoadManager.sol\":1726:1738  found = true */\n      swap3\n      pop\n        /* \"LoadManager.sol\":1749:1754  break */\n      jump(tag_232)\n        /* \"LoadManager.sol\":1688:1764  if (list[i] == msg.sender) {... */\n    tag_237:\n        /* \"LoadManager.sol\":1674:1677  i++ */\n      dup1\n      dup1\n      0x01\n      add\n      swap2\n      pop\n      pop\n        /* \"LoadManager.sol\":1637:1771  for (uint256 i = 0; i < list.length; i++) {... */\n      jump(tag_231)\n    tag_232:\n      pop\n        /* \"LoadManager.sol\":1819:1824  found */\n      dup2\n        /* \"LoadManager.sol\":1814:1864  if (!found) {... */\n      tag_238\n      jumpi\n        /* \"LoadManager.sol\":1835:1839  list */\n      dup4\n        /* \"LoadManager.sol\":1845:1855  msg.sender */\n      caller\n        /* \"LoadManager.sol\":1835:1856  list.push(msg.sender) */\n      swap1\n      dup1\n      0x01\n      dup2\n      sload\n      add\n      dup1\n      dup3\n      sstore\n      dup1\n      swap2\n      pop\n      pop\n      0x01\n      swap1\n      sub\n      swap1\n      0x00\n      mstore\n      keccak256(0x00, 0x20)\n      add\n      0x00\n      swap1\n      swap2\n      swap1\n      swap2\n      swap1\n      swap2\n      0x0100\n      exp\n      dup2\n      sload\n      dup2\n      0xffffffffffffffffffffffffffffffffffffffff\n      mul\n      not\n      and\n      swap1\n      dup4\n      0xffffffffffffffffffffffffffffffffffffffff\n      and\n      mul\n      or\n      swap1\n      sstore\n      pop\n        /* \"LoadManager.sol\":1814:1864  if (!found) {... */\n    tag_238:\n        /* \"LoadManager.sol\":1932:1941  uint256 i */\n      0x00\n        /* \"LoadManager.sol\":1944:1945  0 */\n      0x00\n        /* \"LoadManager.sol\":1932:1945  uint256 i = 0 */\n      swap1\n      pop\n        /* \"LoadManager.sol\":1927:2064  for (uint256 i = 0; i < list2.length; i++) {... */\n    tag_240:\n        /* \"LoadManager.sol\":1951:1956  list2 */\n      dup4\n        /* \"LoadManager.sol\":1951:1963  list2.length */\n      dup1\n      sload\n      swap1\n      pop\n        /* \"LoadManager.sol\":1947:1948  i */\n      dup2\n        /* \"LoadManager.sol\":1947:1963  i < list2.length */\n      lt\n        /* \"LoadManager.sol\":1927:2064  for (uint256 i = 0; i < list2.length; i++) {... */\n      iszero\n      tag_241\n      jumpi\n        /* \"LoadManager.sol\":1995:2005  msg.sender */\n      caller\n        /* \"LoadManager.sol\":1983:2005  list2[i] == msg.sender */\n      0xffffffffffffffffffffffffffffffffffffffff\n      and\n        /* \"LoadManager.sol\":1983:1988  list2 */\n      dup5\n        /* \"LoadManager.sol\":1989:1990  i */\n      dup3\n        /* \"LoadManager.sol\":1983:1991  list2[i] */\n      dup2\n      sload\n      dup2\n      lt\n      tag_243\n      jumpi\n      tag_244\n      tag_130\n      jump\t// in\n    tag_244:\n    tag_243:\n      swap1\n      0x00\n      mstore\n      keccak256(0x00, 0x20)\n      add\n      0x00\n      swap1\n      sload\n      swap1\n      0x0100\n      exp\n      swap1\n      div\n      0xffffffffffffffffffffffffffffffffffffffff\n      and\n        /* \"LoadManager.sol\":1983:2005  list2[i] == msg.sender */\n      0xffffffffffffffffffffffffffffffffffffffff\n      and\n      sub\n        /* \"LoadManager.sol\":1979:2057  if (list2[i] == msg.sender) {... */\n      tag_246\n      jumpi\n        /* \"LoadManager.sol\":2027:2031  true */\n      0x01\n        /* \"LoadManager.sol\":2018:2031  found2 = true */\n      swap2\n      pop\n        /* \"LoadManager.sol\":2042:2047  break */\n      jump(tag_241)\n        /* \"LoadManager.sol\":1979:2057  if (list2[i] == msg.sender) {... */\n    tag_246:\n        /* \"LoadManager.sol\":1965:1968  i++ */\n      dup1\n      dup1\n      0x01\n      add\n      swap2\n      pop\n      pop\n        /* \"LoadManager.sol\":1927:2064  for (uint256 i = 0; i < list2.length; i++) {... */\n      jump(tag_240)\n    tag_241:\n      pop\n        /* \"LoadManager.sol\":2191:2196  false */\n      0x00\n        /* \"LoadManager.sol\":2182:2196  found == false */\n      iszero\n      iszero\n        /* \"LoadManager.sol\":2182:2187  found */\n      dup3\n        /* \"LoadManager.sol\":2182:2196  found == false */\n      iszero\n      iszero\n      eq\n        /* \"LoadManager.sol\":2182:2215  found == false && found2 == false */\n      dup1\n      iszero\n      tag_247\n      jumpi\n      pop\n        /* \"LoadManager.sol\":2210:2215  false */\n      0x00\n        /* \"LoadManager.sol\":2200:2215  found2 == false */\n      iszero\n      iszero\n        /* \"LoadManager.sol\":2200:2206  found2 */\n      dup2\n        /* \"LoadManager.sol\":2200:2215  found2 == false */\n      iszero\n      iszero\n      eq\n        /* \"LoadManager.sol\":2182:2215  found == false && found2 == false */\n    tag_247:\n        /* \"LoadManager.sol\":2178:2266  if (found == false && found2 == false) {... */\n      iszero\n      tag_248\n      jumpi\n        /* \"LoadManager.sol\":2226:2241  userAddressList */\n      0x01\n        /* \"LoadManager.sol\":2247:2257  msg.sender */\n      caller\n        /* \"LoadManager.sol\":2226:2258  userAddressList.push(msg.sender) */\n      swap1\n      dup1\n      0x01\n      dup2\n      sload\n      add\n      dup1\n      dup3\n      sstore\n      dup1\n      swap2\n      pop\n      pop\n      0x01\n      swap1\n      sub\n      swap1\n      0x00\n      mstore\n      keccak256(0x00, 0x20)\n      add\n      0x00\n      swap1\n      swap2\n      swap1\n      swap2\n      swap1\n      swap2\n      0x0100\n      exp\n      dup2\n      sload\n      dup2\n      0xffffffffffffffffffffffffffffffffffffffff\n      mul\n      not\n      and\n      swap1\n      dup4\n      0xffffffffffffffffffffffffffffffffffffffff\n      and\n      mul\n      or\n      swap1\n      sstore\n      pop\n        /* \"LoadManager.sol\":2178:2266  if (found == false && found2 == false) {... */\n    tag_248:\n        /* \"LoadManager.sol\":1497:2271  {... */\n      pop\n      pop\n        /* \"LoadManager.sol\":1404:2271  function checkCategoryRegistration(address[] storage list, address[] storage list2) internal {... */\n      pop\n      pop\n      jump\t// out\n        /* \"#utility.yul\":7:84   */\n    tag_250:\n        /* \"#utility.yul\":44:51   */\n      0x00\n        /* \"#utility.yul\":73:78   */\n      dup2\n        /* \"#utility.yul\":62:78   */\n      swap1\n      pop\n        /* \"#utility.yul\":7:84   */\n      swap2\n      swap1\n      pop\n      jump\t// out\n        /* \"#utility.yul\":90:208   */\n    tag_251:\n        /* \"#utility.yul\":177:201   */\n      tag_315\n        /* \"#utility.yul\":195:200   */\n      dup2\n        /* \"#utility.yul\":177:201   */\n      tag_250\n      jump\t// in\n    tag_315:\n        /* \"#utility.yul\":172:175   */\n      dup3\n        /* \"#utility.yul\":165:202   */\n      mstore\n        /* \"#utility.yul\":90:208   */\n      pop\n      pop\n      jump\t// out\n        /* \"#utility.yul\":214:436   */\n    tag_31:\n        /* \"#utility.yul\":307:311   */\n      0x00\n        /* \"#utility.yul\":345:347   */\n      0x20\n        /* \"#utility.yul\":334:343   */\n      dup3\n        /* \"#utility.yul\":330:348   */\n      add\n        /* \"#utility.yul\":322:348   */\n      swap1\n      pop\n        /* \"#utility.yul\":358:429   */\n      tag_317\n        /* \"#utility.yul\":426:427   */\n      0x00\n        /* \"#utility.yul\":415:424   */\n      dup4\n        /* \"#utility.yul\":411:428   */\n      add\n        /* \"#utility.yul\":402:408   */\n      dup5\n        /* \"#utility.yul\":358:429   */\n      tag_251\n      jump\t// in\n    tag_317:\n        /* \"#utility.yul\":214:436   */\n      swap3\n      swap2\n      pop\n      pop\n      jump\t// out\n        /* \"#utility.yul\":523:640   */\n    tag_253:\n        /* \"#utility.yul\":632:633   */\n      0x00\n        /* \"#utility.yul\":629:630   */\n      0x00\n        /* \"#utility.yul\":622:634   */\n      revert\n        /* \"#utility.yul\":769:895   */\n    tag_255:\n        /* \"#utility.yul\":806:813   */\n      0x00\n        /* \"#utility.yul\":846:888   */\n      0xffffffffffffffffffffffffffffffffffffffff\n        /* \"#utility.yul\":839:844   */\n      dup3\n        /* \"#utility.yul\":835:889   */\n      and\n        /* \"#utility.yul\":824:889   */\n      swap1\n      pop\n        /* \"#utility.yul\":769:895   */\n      swap2\n      swap1\n      pop\n      jump\t// out\n        /* \"#utility.yul\":901:997   */\n    tag_256:\n        /* \"#utility.yul\":938:945   */\n      0x00\n        /* \"#utility.yul\":967:991   */\n      tag_323\n        /* \"#utility.yul\":985:990   */\n      dup3\n        /* \"#utility.yul\":967:991   */\n      tag_255\n      jump\t// in\n    tag_323:\n        /* \"#utility.yul\":956:991   */\n      swap1\n      pop\n        /* \"#utility.yul\":901:997   */\n      swap2\n      swap1\n      pop\n      jump\t// out\n        /* \"#utility.yul\":1003:1125   */\n    tag_257:\n        /* \"#utility.yul\":1076:1100   */\n      tag_325\n        /* \"#utility.yul\":1094:1099   */\n      dup2\n        /* \"#utility.yul\":1076:1100   */\n      tag_256\n      jump\t// in\n    tag_325:\n        /* \"#utility.yul\":1069:1074   */\n      dup2\n        /* \"#utility.yul\":1066:1101   */\n      eq\n        /* \"#utility.yul\":1056:1119   */\n      tag_326\n      jumpi\n        /* \"#utility.yul\":1115:1116   */\n      0x00\n        /* \"#utility.yul\":1112:1113   */\n      0x00\n        /* \"#utility.yul\":1105:1117   */\n      revert\n        /* \"#utility.yul\":1056:1119   */\n    tag_326:\n        /* \"#utility.yul\":1003:1125   */\n      pop\n      jump\t// out\n        /* \"#utility.yul\":1131:1270   */\n    tag_258:\n        /* \"#utility.yul\":1177:1182   */\n      0x00\n        /* \"#utility.yul\":1215:1221   */\n      dup2\n        /* \"#utility.yul\":1202:1222   */\n      calldataload\n        /* \"#utility.yul\":1193:1222   */\n      swap1\n      pop\n        /* \"#utility.yul\":1231:1264   */\n      tag_328\n        /* \"#utility.yul\":1258:1263   */\n      dup2\n        /* \"#utility.yul\":1231:1264   */\n      tag_257\n      jump\t// in\n    tag_328:\n        /* \"#utility.yul\":1131:1270   */\n      swap3\n      swap2\n      pop\n      pop\n      jump\t// out\n        /* \"#utility.yul\":1276:1352   */\n    tag_259:\n        /* \"#utility.yul\":1312:1319   */\n      0x00\n        /* \"#utility.yul\":1341:1346   */\n      dup2\n        /* \"#utility.yul\":1330:1346   */\n      swap1\n      pop\n        /* \"#utility.yul\":1276:1352   */\n      swap2\n      swap1\n      pop\n      jump\t// out\n        /* \"#utility.yul\":1358:1478   */\n    tag_260:\n        /* \"#utility.yul\":1430:1453   */\n      tag_331\n        /* \"#utility.yul\":1447:1452   */\n      dup2\n        /* \"#utility.yul\":1430:1453   */\n      tag_259\n      jump\t// in\n    tag_331:\n        /* \"#utility.yul\":1423:1428   */\n      dup2\n        /* \"#utility.yul\":1420:1454   */\n      eq\n        /* \"#utility.yul\":1410:1472   */\n      tag_332\n      jumpi\n        /* \"#utility.yul\":1468:1469   */\n      0x00\n        /* \"#utility.yul\":1465:1466   */\n      0x00\n        /* \"#utility.yul\":1458:1470   */\n      revert\n        /* \"#utility.yul\":1410:1472   */\n    tag_332:\n        /* \"#utility.yul\":1358:1478   */\n      pop\n      jump\t// out\n        /* \"#utility.yul\":1484:1621   */\n    tag_261:\n        /* \"#utility.yul\":1529:1534   */\n      0x00\n        /* \"#utility.yul\":1567:1573   */\n      dup2\n        /* \"#utility.yul\":1554:1574   */\n      calldataload\n        /* \"#utility.yul\":1545:1574   */\n      swap1\n      pop\n        /* \"#utility.yul\":1583:1615   */\n      tag_334\n        /* \"#utility.yul\":1609:1614   */\n      dup2\n        /* \"#utility.yul\":1583:1615   */\n      tag_260\n      jump\t// in\n    tag_334:\n        /* \"#utility.yul\":1484:1621   */\n      swap3\n      swap2\n      pop\n      pop\n      jump\t// out\n        /* \"#utility.yul\":1627:2099   */\n    tag_35:\n        /* \"#utility.yul\":1694:1700   */\n      0x00\n        /* \"#utility.yul\":1702:1708   */\n      0x00\n        /* \"#utility.yul\":1751:1753   */\n      0x40\n        /* \"#utility.yul\":1739:1748   */\n      dup4\n        /* \"#utility.yul\":1730:1737   */\n      dup6\n        /* \"#utility.yul\":1726:1749   */\n      sub\n        /* \"#utility.yul\":1722:1754   */\n      slt\n        /* \"#utility.yul\":1719:1838   */\n      iszero\n      tag_336\n      jumpi\n        /* \"#utility.yul\":1757:1836   */\n      tag_337\n      tag_253\n      jump\t// in\n    tag_337:\n        /* \"#utility.yul\":1719:1838   */\n    tag_336:\n        /* \"#utility.yul\":1877:1878   */\n      0x00\n        /* \"#utility.yul\":1902:1955   */\n      tag_338\n        /* \"#utility.yul\":1947:1954   */\n      dup6\n        /* \"#utility.yul\":1938:1944   */\n      dup3\n        /* \"#utility.yul\":1927:1936   */\n      dup7\n        /* \"#utility.yul\":1923:1945   */\n      add\n        /* \"#utility.yul\":1902:1955   */\n      tag_258\n      jump\t// in\n    tag_338:\n        /* \"#utility.yul\":1892:1955   */\n      swap3\n      pop\n        /* \"#utility.yul\":1848:1965   */\n      pop\n        /* \"#utility.yul\":2004:2006   */\n      0x20\n        /* \"#utility.yul\":2030:2082   */\n      tag_339\n        /* \"#utility.yul\":2074:2081   */\n      dup6\n        /* \"#utility.yul\":2065:2071   */\n      dup3\n        /* \"#utility.yul\":2054:2063   */\n      dup7\n        /* \"#utility.yul\":2050:2072   */\n      add\n        /* \"#utility.yul\":2030:2082   */\n      tag_261\n      jump\t// in\n    tag_339:\n        /* \"#utility.yul\":2020:2082   */\n      swap2\n      pop\n        /* \"#utility.yul\":1975:2092   */\n      pop\n        /* \"#utility.yul\":1627:2099   */\n      swap3\n      pop\n      swap3\n      swap1\n      pop\n      jump\t// out\n        /* \"#utility.yul\":2105:2204   */\n    tag_262:\n        /* \"#utility.yul\":2157:2163   */\n      0x00\n        /* \"#utility.yul\":2191:2196   */\n      dup2\n        /* \"#utility.yul\":2185:2197   */\n      mload\n        /* \"#utility.yul\":2175:2197   */\n      swap1\n      pop\n        /* \"#utility.yul\":2105:2204   */\n      swap2\n      swap1\n      pop\n      jump\t// out\n        /* \"#utility.yul\":2210:2379   */\n    tag_263:\n        /* \"#utility.yul\":2294:2305   */\n      0x00\n        /* \"#utility.yul\":2328:2334   */\n      dup3\n        /* \"#utility.yul\":2323:2326   */\n      dup3\n        /* \"#utility.yul\":2316:2335   */\n      mstore\n        /* \"#utility.yul\":2368:2372   */\n      0x20\n        /* \"#utility.yul\":2363:2366   */\n      dup3\n        /* \"#utility.yul\":2359:2373   */\n      add\n        /* \"#utility.yul\":2344:2373   */\n      swap1\n      pop\n        /* \"#utility.yul\":2210:2379   */\n      swap3\n      swap2\n      pop\n      pop\n      jump\t// out\n        /* \"#utility.yul\":2385:2524   */\n    tag_264:\n        /* \"#utility.yul\":2474:2480   */\n      dup3\n        /* \"#utility.yul\":2469:2472   */\n      dup2\n        /* \"#utility.yul\":2464:2467   */\n      dup4\n        /* \"#utility.yul\":2458:2481   */\n      mcopy\n        /* \"#utility.yul\":2515:2516   */\n      0x00\n        /* \"#utility.yul\":2506:2512   */\n      dup4\n        /* \"#utility.yul\":2501:2504   */\n      dup4\n        /* \"#utility.yul\":2497:2513   */\n      add\n        /* \"#utility.yul\":2490:2517   */\n      mstore\n        /* \"#utility.yul\":2385:2524   */\n      pop\n      pop\n      pop\n      jump\t// out\n        /* \"#utility.yul\":2530:2632   */\n    tag_265:\n        /* \"#utility.yul\":2571:2577   */\n      0x00\n        /* \"#utility.yul\":2622:2624   */\n      0x1f\n        /* \"#utility.yul\":2618:2625   */\n      not\n        /* \"#utility.yul\":2613:2615   */\n      0x1f\n        /* \"#utility.yul\":2606:2611   */\n      dup4\n        /* \"#utility.yul\":2602:2616   */\n      add\n        /* \"#utility.yul\":2598:2626   */\n      and\n        /* \"#utility.yul\":2588:2626   */\n      swap1\n      pop\n        /* \"#utility.yul\":2530:2632   */\n      swap2\n      swap1\n      pop\n      jump\t// out\n        /* \"#utility.yul\":2638:3015   */\n    tag_266:\n        /* \"#utility.yul\":2726:2729   */\n      0x00\n        /* \"#utility.yul\":2754:2793   */\n      tag_345\n        /* \"#utility.yul\":2787:2792   */\n      dup3\n        /* \"#utility.yul\":2754:2793   */\n      tag_262\n      jump\t// in\n    tag_345:\n        /* \"#utility.yul\":2809:2880   */\n      tag_346\n        /* \"#utility.yul\":2873:2879   */\n      dup2\n        /* \"#utility.yul\":2868:2871   */\n      dup6\n        /* \"#utility.yul\":2809:2880   */\n      tag_263\n      jump\t// in\n    tag_346:\n        /* \"#utility.yul\":2802:2880   */\n      swap4\n      pop\n        /* \"#utility.yul\":2889:2954   */\n      tag_347\n        /* \"#utility.yul\":2947:2953   */\n      dup2\n        /* \"#utility.yul\":2942:2945   */\n      dup6\n        /* \"#utility.yul\":2935:2939   */\n      0x20\n        /* \"#utility.yul\":2928:2933   */\n      dup7\n        /* \"#utility.yul\":2924:2940   */\n      add\n        /* \"#utility.yul\":2889:2954   */\n      tag_264\n      jump\t// in\n    tag_347:\n        /* \"#utility.yul\":2979:3008   */\n      tag_348\n        /* \"#utility.yul\":3001:3007   */\n      dup2\n        /* \"#utility.yul\":2979:3008   */\n      tag_265\n      jump\t// in\n    tag_348:\n        /* \"#utility.yul\":2974:2977   */\n      dup5\n        /* \"#utility.yul\":2970:3009   */\n      add\n        /* \"#utility.yul\":2963:3009   */\n      swap2\n      pop\n        /* \"#utility.yul\":2730:3015   */\n      pop\n        /* \"#utility.yul\":2638:3015   */\n      swap3\n      swap2\n      pop\n      pop\n      jump\t// out\n        /* \"#utility.yul\":3021:3776   */\n    tag_38:\n        /* \"#utility.yul\":3246:3250   */\n      0x00\n        /* \"#utility.yul\":3284:3287   */\n      0xa0\n        /* \"#utility.yul\":3273:3282   */\n      dup3\n        /* \"#utility.yul\":3269:3288   */\n      add\n        /* \"#utility.yul\":3261:3288   */\n      swap1\n      pop\n        /* \"#utility.yul\":3334:3343   */\n      dup2\n        /* \"#utility.yul\":3328:3332   */\n      dup2\n        /* \"#utility.yul\":3324:3344   */\n      sub\n        /* \"#utility.yul\":3320:3321   */\n      0x00\n        /* \"#utility.yul\":3309:3318   */\n      dup4\n        /* \"#utility.yul\":3305:3322   */\n      add\n        /* \"#utility.yul\":3298:3345   */\n      mstore\n        /* \"#utility.yul\":3362:3440   */\n      tag_350\n        /* \"#utility.yul\":3435:3439   */\n      dup2\n        /* \"#utility.yul\":3426:3432   */\n      dup9\n        /* \"#utility.yul\":3362:3440   */\n      tag_266\n      jump\t// in\n    tag_350:\n        /* \"#utility.yul\":3354:3440   */\n      swap1\n      pop\n        /* \"#utility.yul\":3450:3522   */\n      tag_351\n        /* \"#utility.yul\":3518:3520   */\n      0x20\n        /* \"#utility.yul\":3507:3516   */\n      dup4\n        /* \"#utility.yul\":3503:3521   */\n      add\n        /* \"#utility.yul\":3494:3500   */\n      dup8\n        /* \"#utility.yul\":3450:3522   */\n      tag_251\n      jump\t// in\n    tag_351:\n        /* \"#utility.yul\":3532:3604   */\n      tag_352\n        /* \"#utility.yul\":3600:3602   */\n      0x40\n        /* \"#utility.yul\":3589:3598   */\n      dup4\n        /* \"#utility.yul\":3585:3603   */\n      add\n        /* \"#utility.yul\":3576:3582   */\n      dup7\n        /* \"#utility.yul\":3532:3604   */\n      tag_251\n      jump\t// in\n    tag_352:\n        /* \"#utility.yul\":3614:3686   */\n      tag_353\n        /* \"#utility.yul\":3682:3684   */\n      0x60\n        /* \"#utility.yul\":3671:3680   */\n      dup4\n        /* \"#utility.yul\":3667:3685   */\n      add\n        /* \"#utility.yul\":3658:3664   */\n      dup6\n        /* \"#utility.yul\":3614:3686   */\n      tag_251\n      jump\t// in\n    tag_353:\n        /* \"#utility.yul\":3696:3769   */\n      tag_354\n        /* \"#utility.yul\":3764:3767   */\n      0x80\n        /* \"#utility.yul\":3753:3762   */\n      dup4\n        /* \"#utility.yul\":3749:3768   */\n      add\n        /* \"#utility.yul\":3740:3746   */\n      dup5\n        /* \"#utility.yul\":3696:3769   */\n      tag_251\n      jump\t// in\n    tag_354:\n        /* \"#utility.yul\":3021:3776   */\n      swap7\n      swap6\n      pop\n      pop\n      pop\n      pop\n      pop\n      pop\n      jump\t// out\n        /* \"#utility.yul\":3782:4111   */\n    tag_42:\n        /* \"#utility.yul\":3841:3847   */\n      0x00\n        /* \"#utility.yul\":3890:3892   */\n      0x20\n        /* \"#utility.yul\":3878:3887   */\n      dup3\n        /* \"#utility.yul\":3869:3876   */\n      dup5\n        /* \"#utility.yul\":3865:3888   */\n      sub\n        /* \"#utility.yul\":3861:3893   */\n      slt\n        /* \"#utility.yul\":3858:3977   */\n      iszero\n      tag_356\n      jumpi\n        /* \"#utility.yul\":3896:3975   */\n      tag_357\n      tag_253\n      jump\t// in\n    tag_357:\n        /* \"#utility.yul\":3858:3977   */\n    tag_356:\n        /* \"#utility.yul\":4016:4017   */\n      0x00\n        /* \"#utility.yul\":4041:4094   */\n      tag_358\n        /* \"#utility.yul\":4086:4093   */\n      dup5\n        /* \"#utility.yul\":4077:4083   */\n      dup3\n        /* \"#utility.yul\":4066:4075   */\n      dup6\n        /* \"#utility.yul\":4062:4084   */\n      add\n        /* \"#utility.yul\":4041:4094   */\n      tag_258\n      jump\t// in\n    tag_358:\n        /* \"#utility.yul\":4031:4094   */\n      swap2\n      pop\n        /* \"#utility.yul\":3987:4104   */\n      pop\n        /* \"#utility.yul\":3782:4111   */\n      swap3\n      swap2\n      pop\n      pop\n      jump\t// out\n        /* \"#utility.yul\":4117:4239   */\n    tag_267:\n        /* \"#utility.yul\":4190:4214   */\n      tag_360\n        /* \"#utility.yul\":4208:4213   */\n      dup2\n        /* \"#utility.yul\":4190:4214   */\n      tag_250\n      jump\t// in\n    tag_360:\n        /* \"#utility.yul\":4183:4188   */\n      dup2\n        /* \"#utility.yul\":4180:4215   */\n      eq\n        /* \"#utility.yul\":4170:4233   */\n      tag_361\n      jumpi\n        /* \"#utility.yul\":4229:4230   */\n      0x00\n        /* \"#utility.yul\":4226:4227   */\n      0x00\n        /* \"#utility.yul\":4219:4231   */\n      revert\n        /* \"#utility.yul\":4170:4233   */\n    tag_361:\n        /* \"#utility.yul\":4117:4239   */\n      pop\n      jump\t// out\n        /* \"#utility.yul\":4245:4384   */\n    tag_268:\n        /* \"#utility.yul\":4291:4296   */\n      0x00\n        /* \"#utility.yul\":4329:4335   */\n      dup2\n        /* \"#utility.yul\":4316:4336   */\n      calldataload\n        /* \"#utility.yul\":4307:4336   */\n      swap1\n      pop\n        /* \"#utility.yul\":4345:4378   */\n      tag_363\n        /* \"#utility.yul\":4372:4377   */\n      dup2\n        /* \"#utility.yul\":4345:4378   */\n      tag_267\n      jump\t// in\n    tag_363:\n        /* \"#utility.yul\":4245:4384   */\n      swap3\n      swap2\n      pop\n      pop\n      jump\t// out\n        /* \"#utility.yul\":4390:4719   */\n    tag_48:\n        /* \"#utility.yul\":4449:4455   */\n      0x00\n        /* \"#utility.yul\":4498:4500   */\n      0x20\n        /* \"#utility.yul\":4486:4495   */\n      dup3\n        /* \"#utility.yul\":4477:4484   */\n      dup5\n        /* \"#utility.yul\":4473:4496   */\n      sub\n        /* \"#utility.yul\":4469:4501   */\n      slt\n        /* \"#utility.yul\":4466:4585   */\n      iszero\n      tag_365\n      jumpi\n        /* \"#utility.yul\":4504:4583   */\n      tag_366\n      tag_253\n      jump\t// in\n    tag_366:\n        /* \"#utility.yul\":4466:4585   */\n    tag_365:\n        /* \"#utility.yul\":4624:4625   */\n      0x00\n        /* \"#utility.yul\":4649:4702   */\n      tag_367\n        /* \"#utility.yul\":4694:4701   */\n      dup5\n        /* \"#utility.yul\":4685:4691   */\n      dup3\n        /* \"#utility.yul\":4674:4683   */\n      dup6\n        /* \"#utility.yul\":4670:4692   */\n      add\n        /* \"#utility.yul\":4649:4702   */\n      tag_268\n      jump\t// in\n    tag_367:\n        /* \"#utility.yul\":4639:4702   */\n      swap2\n      pop\n        /* \"#utility.yul\":4595:4712   */\n      pop\n        /* \"#utility.yul\":4390:4719   */\n      swap3\n      swap2\n      pop\n      pop\n      jump\t// out\n        /* \"#utility.yul\":4725:4815   */\n    tag_269:\n        /* \"#utility.yul\":4759:4766   */\n      0x00\n        /* \"#utility.yul\":4802:4807   */\n      dup2\n        /* \"#utility.yul\":4795:4808   */\n      iszero\n        /* \"#utility.yul\":4788:4809   */\n      iszero\n        /* \"#utility.yul\":4777:4809   */\n      swap1\n      pop\n        /* \"#utility.yul\":4725:4815   */\n      swap2\n      swap1\n      pop\n      jump\t// out\n        /* \"#utility.yul\":4821:4930   */\n    tag_270:\n        /* \"#utility.yul\":4902:4923   */\n      tag_370\n        /* \"#utility.yul\":4917:4922   */\n      dup2\n        /* \"#utility.yul\":4902:4923   */\n      tag_269\n      jump\t// in\n    tag_370:\n        /* \"#utility.yul\":4897:4900   */\n      dup3\n        /* \"#utility.yul\":4890:4924   */\n      mstore\n        /* \"#utility.yul\":4821:4930   */\n      pop\n      pop\n      jump\t// out\n        /* \"#utility.yul\":4936:5146   */\n    tag_55:\n        /* \"#utility.yul\":5023:5027   */\n      0x00\n        /* \"#utility.yul\":5061:5063   */\n      0x20\n        /* \"#utility.yul\":5050:5059   */\n      dup3\n        /* \"#utility.yul\":5046:5064   */\n      add\n        /* \"#utility.yul\":5038:5064   */\n      swap1\n      pop\n        /* \"#utility.yul\":5074:5139   */\n      tag_372\n        /* \"#utility.yul\":5136:5137   */\n      0x00\n        /* \"#utility.yul\":5125:5134   */\n      dup4\n        /* \"#utility.yul\":5121:5138   */\n      add\n        /* \"#utility.yul\":5112:5118   */\n      dup5\n        /* \"#utility.yul\":5074:5139   */\n      tag_270\n      jump\t// in\n    tag_372:\n        /* \"#utility.yul\":4936:5146   */\n      swap3\n      swap2\n      pop\n      pop\n      jump\t// out\n        /* \"#utility.yul\":5152:5626   */\n    tag_58:\n        /* \"#utility.yul\":5220:5226   */\n      0x00\n        /* \"#utility.yul\":5228:5234   */\n      0x00\n        /* \"#utility.yul\":5277:5279   */\n      0x40\n        /* \"#utility.yul\":5265:5274   */\n      dup4\n        /* \"#utility.yul\":5256:5263   */\n      dup6\n        /* \"#utility.yul\":5252:5275   */\n      sub\n        /* \"#utility.yul\":5248:5280   */\n      slt\n        /* \"#utility.yul\":5245:5364   */\n      iszero\n      tag_374\n      jumpi\n        /* \"#utility.yul\":5283:5362   */\n      tag_375\n      tag_253\n      jump\t// in\n    tag_375:\n        /* \"#utility.yul\":5245:5364   */\n    tag_374:\n        /* \"#utility.yul\":5403:5404   */\n      0x00\n        /* \"#utility.yul\":5428:5481   */\n      tag_376\n        /* \"#utility.yul\":5473:5480   */\n      dup6\n        /* \"#utility.yul\":5464:5470   */\n      dup3\n        /* \"#utility.yul\":5453:5462   */\n      dup7\n        /* \"#utility.yul\":5449:5471   */\n      add\n        /* \"#utility.yul\":5428:5481   */\n      tag_268\n      jump\t// in\n    tag_376:\n        /* \"#utility.yul\":5418:5481   */\n      swap3\n      pop\n        /* \"#utility.yul\":5374:5491   */\n      pop\n        /* \"#utility.yul\":5530:5532   */\n      0x20\n        /* \"#utility.yul\":5556:5609   */\n      tag_377\n        /* \"#utility.yul\":5601:5608   */\n      dup6\n        /* \"#utility.yul\":5592:5598   */\n      dup3\n        /* \"#utility.yul\":5581:5590   */\n      dup7\n        /* \"#utility.yul\":5577:5599   */\n      add\n        /* \"#utility.yul\":5556:5609   */\n      tag_268\n      jump\t// in\n    tag_377:\n        /* \"#utility.yul\":5546:5609   */\n      swap2\n      pop\n        /* \"#utility.yul\":5501:5619   */\n      pop\n        /* \"#utility.yul\":5152:5626   */\n      swap3\n      pop\n      swap3\n      swap1\n      pop\n      jump\t// out\n        /* \"#utility.yul\":5632:5746   */\n    tag_271:\n        /* \"#utility.yul\":5699:5705   */\n      0x00\n        /* \"#utility.yul\":5733:5738   */\n      dup2\n        /* \"#utility.yul\":5727:5739   */\n      mload\n        /* \"#utility.yul\":5717:5739   */\n      swap1\n      pop\n        /* \"#utility.yul\":5632:5746   */\n      swap2\n      swap1\n      pop\n      jump\t// out\n        /* \"#utility.yul\":5752:5936   */\n    tag_272:\n        /* \"#utility.yul\":5851:5862   */\n      0x00\n        /* \"#utility.yul\":5885:5891   */\n      dup3\n        /* \"#utility.yul\":5880:5883   */\n      dup3\n        /* \"#utility.yul\":5873:5892   */\n      mstore\n        /* \"#utility.yul\":5925:5929   */\n      0x20\n        /* \"#utility.yul\":5920:5923   */\n      dup3\n        /* \"#utility.yul\":5916:5930   */\n      add\n        /* \"#utility.yul\":5901:5930   */\n      swap1\n      pop\n        /* \"#utility.yul\":5752:5936   */\n      swap3\n      swap2\n      pop\n      pop\n      jump\t// out\n        /* \"#utility.yul\":5942:6074   */\n    tag_273:\n        /* \"#utility.yul\":6009:6013   */\n      0x00\n        /* \"#utility.yul\":6032:6035   */\n      dup2\n        /* \"#utility.yul\":6024:6035   */\n      swap1\n      pop\n        /* \"#utility.yul\":6062:6066   */\n      0x20\n        /* \"#utility.yul\":6057:6060   */\n      dup3\n        /* \"#utility.yul\":6053:6067   */\n      add\n        /* \"#utility.yul\":6045:6067   */\n      swap1\n      pop\n        /* \"#utility.yul\":5942:6074   */\n      swap2\n      swap1\n      pop\n      jump\t// out\n        /* \"#utility.yul\":6080:6188   */\n    tag_274:\n        /* \"#utility.yul\":6157:6181   */\n      tag_382\n        /* \"#utility.yul\":6175:6180   */\n      dup2\n        /* \"#utility.yul\":6157:6181   */\n      tag_256\n      jump\t// in\n    tag_382:\n        /* \"#utility.yul\":6152:6155   */\n      dup3\n        /* \"#utility.yul\":6145:6182   */\n      mstore\n        /* \"#utility.yul\":6080:6188   */\n      pop\n      pop\n      jump\t// out\n        /* \"#utility.yul\":6194:6373   */\n    tag_275:\n        /* \"#utility.yul\":6263:6273   */\n      0x00\n        /* \"#utility.yul\":6284:6330   */\n      tag_384\n        /* \"#utility.yul\":6326:6329   */\n      dup4\n        /* \"#utility.yul\":6318:6324   */\n      dup4\n        /* \"#utility.yul\":6284:6330   */\n      tag_274\n      jump\t// in\n    tag_384:\n        /* \"#utility.yul\":6362:6366   */\n      0x20\n        /* \"#utility.yul\":6357:6360   */\n      dup4\n        /* \"#utility.yul\":6353:6367   */\n      add\n        /* \"#utility.yul\":6339:6367   */\n      swap1\n      pop\n        /* \"#utility.yul\":6194:6373   */\n      swap3\n      swap2\n      pop\n      pop\n      jump\t// out\n        /* \"#utility.yul\":6379:6492   */\n    tag_276:\n        /* \"#utility.yul\":6449:6453   */\n      0x00\n        /* \"#utility.yul\":6481:6485   */\n      0x20\n        /* \"#utility.yul\":6476:6479   */\n      dup3\n        /* \"#utility.yul\":6472:6486   */\n      add\n        /* \"#utility.yul\":6464:6486   */\n      swap1\n      pop\n        /* \"#utility.yul\":6379:6492   */\n      swap2\n      swap1\n      pop\n      jump\t// out\n        /* \"#utility.yul\":6528:7260   */\n    tag_277:\n        /* \"#utility.yul\":6647:6650   */\n      0x00\n        /* \"#utility.yul\":6676:6730   */\n      tag_387\n        /* \"#utility.yul\":6724:6729   */\n      dup3\n        /* \"#utility.yul\":6676:6730   */\n      tag_271\n      jump\t// in\n    tag_387:\n        /* \"#utility.yul\":6746:6832   */\n      tag_388\n        /* \"#utility.yul\":6825:6831   */\n      dup2\n        /* \"#utility.yul\":6820:6823   */\n      dup6\n        /* \"#utility.yul\":6746:6832   */\n      tag_272\n      jump\t// in\n    tag_388:\n        /* \"#utility.yul\":6739:6832   */\n      swap4\n      pop\n        /* \"#utility.yul\":6856:6912   */\n      tag_389\n        /* \"#utility.yul\":6906:6911   */\n      dup4\n        /* \"#utility.yul\":6856:6912   */\n      tag_273\n      jump\t// in\n    tag_389:\n        /* \"#utility.yul\":6935:6942   */\n      dup1\n        /* \"#utility.yul\":6966:6967   */\n      0x00\n        /* \"#utility.yul\":6951:7235   */\n    tag_390:\n        /* \"#utility.yul\":6976:6982   */\n      dup4\n        /* \"#utility.yul\":6973:6974   */\n      dup2\n        /* \"#utility.yul\":6970:6983   */\n      lt\n        /* \"#utility.yul\":6951:7235   */\n      iszero\n      tag_392\n      jumpi\n        /* \"#utility.yul\":7052:7058   */\n      dup2\n        /* \"#utility.yul\":7046:7059   */\n      mload\n        /* \"#utility.yul\":7079:7142   */\n      tag_393\n        /* \"#utility.yul\":7138:7141   */\n      dup9\n        /* \"#utility.yul\":7123:7136   */\n      dup3\n        /* \"#utility.yul\":7079:7142   */\n      tag_275\n      jump\t// in\n    tag_393:\n        /* \"#utility.yul\":7072:7142   */\n      swap8\n      pop\n        /* \"#utility.yul\":7165:7225   */\n      tag_394\n        /* \"#utility.yul\":7218:7224   */\n      dup4\n        /* \"#utility.yul\":7165:7225   */\n      tag_276\n      jump\t// in\n    tag_394:\n        /* \"#utility.yul\":7155:7225   */\n      swap3\n      pop\n        /* \"#utility.yul\":7011:7235   */\n      pop\n        /* \"#utility.yul\":6998:6999   */\n      0x01\n        /* \"#utility.yul\":6995:6996   */\n      dup2\n        /* \"#utility.yul\":6991:7000   */\n      add\n        /* \"#utility.yul\":6986:7000   */\n      swap1\n      pop\n        /* \"#utility.yul\":6951:7235   */\n      jump(tag_390)\n    tag_392:\n        /* \"#utility.yul\":6955:6969   */\n      pop\n        /* \"#utility.yul\":7251:7254   */\n      dup6\n        /* \"#utility.yul\":7244:7254   */\n      swap4\n      pop\n        /* \"#utility.yul\":6652:7260   */\n      pop\n      pop\n      pop\n        /* \"#utility.yul\":6528:7260   */\n      swap3\n      swap2\n      pop\n      pop\n      jump\t// out\n        /* \"#utility.yul\":7266:7639   */\n    tag_64:\n        /* \"#utility.yul\":7409:7413   */\n      0x00\n        /* \"#utility.yul\":7447:7449   */\n      0x20\n        /* \"#utility.yul\":7436:7445   */\n      dup3\n        /* \"#utility.yul\":7432:7450   */\n      add\n        /* \"#utility.yul\":7424:7450   */\n      swap1\n      pop\n        /* \"#utility.yul\":7496:7505   */\n      dup2\n        /* \"#utility.yul\":7490:7494   */\n      dup2\n        /* \"#utility.yul\":7486:7506   */\n      sub\n        /* \"#utility.yul\":7482:7483   */\n      0x00\n        /* \"#utility.yul\":7471:7480   */\n      dup4\n        /* \"#utility.yul\":7467:7484   */\n      add\n        /* \"#utility.yul\":7460:7507   */\n      mstore\n        /* \"#utility.yul\":7524:7632   */\n      tag_396\n        /* \"#utility.yul\":7627:7631   */\n      dup2\n        /* \"#utility.yul\":7618:7624   */\n      dup5\n        /* \"#utility.yul\":7524:7632   */\n      tag_277\n      jump\t// in\n    tag_396:\n        /* \"#utility.yul\":7516:7632   */\n      swap1\n      pop\n        /* \"#utility.yul\":7266:7639   */\n      swap3\n      swap2\n      pop\n      pop\n      jump\t// out\n        /* \"#utility.yul\":7645:7760   */\n    tag_278:\n        /* \"#utility.yul\":7730:7753   */\n      tag_398\n        /* \"#utility.yul\":7747:7752   */\n      dup2\n        /* \"#utility.yul\":7730:7753   */\n      tag_259\n      jump\t// in\n    tag_398:\n        /* \"#utility.yul\":7725:7728   */\n      dup3\n        /* \"#utility.yul\":7718:7754   */\n      mstore\n        /* \"#utility.yul\":7645:7760   */\n      pop\n      pop\n      jump\t// out\n        /* \"#utility.yul\":7766:7984   */\n    tag_78:\n        /* \"#utility.yul\":7857:7861   */\n      0x00\n        /* \"#utility.yul\":7895:7897   */\n      0x20\n        /* \"#utility.yul\":7884:7893   */\n      dup3\n        /* \"#utility.yul\":7880:7898   */\n      add\n        /* \"#utility.yul\":7872:7898   */\n      swap1\n      pop\n        /* \"#utility.yul\":7908:7977   */\n      tag_400\n        /* \"#utility.yul\":7974:7975   */\n      0x00\n        /* \"#utility.yul\":7963:7972   */\n      dup4\n        /* \"#utility.yul\":7959:7976   */\n      add\n        /* \"#utility.yul\":7950:7956   */\n      dup5\n        /* \"#utility.yul\":7908:7977   */\n      tag_278\n      jump\t// in\n    tag_400:\n        /* \"#utility.yul\":7766:7984   */\n      swap3\n      swap2\n      pop\n      pop\n      jump\t// out\n        /* \"#utility.yul\":7990:8108   */\n    tag_279:\n        /* \"#utility.yul\":8077:8101   */\n      tag_402\n        /* \"#utility.yul\":8095:8100   */\n      dup2\n        /* \"#utility.yul\":8077:8101   */\n      tag_256\n      jump\t// in\n    tag_402:\n        /* \"#utility.yul\":8072:8075   */\n      dup3\n        /* \"#utility.yul\":8065:8102   */\n      mstore\n        /* \"#utility.yul\":7990:8108   */\n      pop\n      pop\n      jump\t// out\n        /* \"#utility.yul\":8114:8336   */\n    tag_83:\n        /* \"#utility.yul\":8207:8211   */\n      0x00\n        /* \"#utility.yul\":8245:8247   */\n      0x20\n        /* \"#utility.yul\":8234:8243   */\n      dup3\n        /* \"#utility.yul\":8230:8248   */\n      add\n        /* \"#utility.yul\":8222:8248   */\n      swap1\n      pop\n        /* \"#utility.yul\":8258:8329   */\n      tag_404\n        /* \"#utility.yul\":8326:8327   */\n      0x00\n        /* \"#utility.yul\":8315:8324   */\n      dup4\n        /* \"#utility.yul\":8311:8328   */\n      add\n        /* \"#utility.yul\":8302:8308   */\n      dup5\n        /* \"#utility.yul\":8258:8329   */\n      tag_279\n      jump\t// in\n    tag_404:\n        /* \"#utility.yul\":8114:8336   */\n      swap3\n      swap2\n      pop\n      pop\n      jump\t// out\n        /* \"#utility.yul\":8342:8816   */\n    tag_111:\n        /* \"#utility.yul\":8410:8416   */\n      0x00\n        /* \"#utility.yul\":8418:8424   */\n      0x00\n        /* \"#utility.yul\":8467:8469   */\n      0x40\n        /* \"#utility.yul\":8455:8464   */\n      dup4\n        /* \"#utility.yul\":8446:8453   */\n      dup6\n        /* \"#utility.yul\":8442:8465   */\n      sub\n        /* \"#utility.yul\":8438:8470   */\n      slt\n        /* \"#utility.yul\":8435:8554   */\n      iszero\n      tag_406\n      jumpi\n        /* \"#utility.yul\":8473:8552   */\n      tag_407\n      tag_253\n      jump\t// in\n    tag_407:\n        /* \"#utility.yul\":8435:8554   */\n    tag_406:\n        /* \"#utility.yul\":8593:8594   */\n      0x00\n        /* \"#utility.yul\":8618:8671   */\n      tag_408\n        /* \"#utility.yul\":8663:8670   */\n      dup6\n        /* \"#utility.yul\":8654:8660   */\n      dup3\n        /* \"#utility.yul\":8643:8652   */\n      dup7\n        /* \"#utility.yul\":8639:8661   */\n      add\n        /* \"#utility.yul\":8618:8671   */\n      tag_258\n      jump\t// in\n    tag_408:\n        /* \"#utility.yul\":8608:8671   */\n      swap3\n      pop\n        /* \"#utility.yul\":8564:8681   */\n      pop\n        /* \"#utility.yul\":8720:8722   */\n      0x20\n        /* \"#utility.yul\":8746:8799   */\n      tag_409\n        /* \"#utility.yul\":8791:8798   */\n      dup6\n        /* \"#utility.yul\":8782:8788   */\n      dup3\n        /* \"#utility.yul\":8771:8780   */\n      dup7\n        /* \"#utility.yul\":8767:8789   */\n      add\n        /* \"#utility.yul\":8746:8799   */\n      tag_268\n      jump\t// in\n    tag_409:\n        /* \"#utility.yul\":8736:8799   */\n      swap2\n      pop\n        /* \"#utility.yul\":8691:8809   */\n      pop\n        /* \"#utility.yul\":8342:8816   */\n      swap3\n      pop\n      swap3\n      swap1\n      pop\n      jump\t// out\n        /* \"#utility.yul\":8822:9260   */\n    tag_114:\n        /* \"#utility.yul\":8969:8973   */\n      0x00\n        /* \"#utility.yul\":9007:9009   */\n      0x60\n        /* \"#utility.yul\":8996:9005   */\n      dup3\n        /* \"#utility.yul\":8992:9010   */\n      add\n        /* \"#utility.yul\":8984:9010   */\n      swap1\n      pop\n        /* \"#utility.yul\":9020:9089   */\n      tag_411\n        /* \"#utility.yul\":9086:9087   */\n      0x00\n        /* \"#utility.yul\":9075:9084   */\n      dup4\n        /* \"#utility.yul\":9071:9088   */\n      add\n        /* \"#utility.yul\":9062:9068   */\n      dup7\n        /* \"#utility.yul\":9020:9089   */\n      tag_278\n      jump\t// in\n    tag_411:\n        /* \"#utility.yul\":9099:9171   */\n      tag_412\n        /* \"#utility.yul\":9167:9169   */\n      0x20\n        /* \"#utility.yul\":9156:9165   */\n      dup4\n        /* \"#utility.yul\":9152:9170   */\n      add\n        /* \"#utility.yul\":9143:9149   */\n      dup6\n        /* \"#utility.yul\":9099:9171   */\n      tag_251\n      jump\t// in\n    tag_412:\n        /* \"#utility.yul\":9181:9253   */\n      tag_413\n        /* \"#utility.yul\":9249:9251   */\n      0x40\n        /* \"#utility.yul\":9238:9247   */\n      dup4\n        /* \"#utility.yul\":9234:9252   */\n      add\n        /* \"#utility.yul\":9225:9231   */\n      dup5\n        /* \"#utility.yul\":9181:9253   */\n      tag_251\n      jump\t// in\n    tag_413:\n        /* \"#utility.yul\":8822:9260   */\n      swap5\n      swap4\n      pop\n      pop\n      pop\n      pop\n      jump\t// out\n        /* \"#utility.yul\":9266:9413   */\n    tag_280:\n        /* \"#utility.yul\":9367:9378   */\n      0x00\n        /* \"#utility.yul\":9404:9407   */\n      dup2\n        /* \"#utility.yul\":9389:9407   */\n      swap1\n      pop\n        /* \"#utility.yul\":9266:9413   */\n      swap3\n      swap2\n      pop\n      pop\n      jump\t// out\n        /* \"#utility.yul\":9419:9533   */\n    tag_281:\n      pop\n      jump\t// out\n        /* \"#utility.yul\":9539:9937   */\n    tag_282:\n        /* \"#utility.yul\":9698:9701   */\n      0x00\n        /* \"#utility.yul\":9719:9802   */\n      tag_417\n        /* \"#utility.yul\":9800:9801   */\n      0x00\n        /* \"#utility.yul\":9795:9798   */\n      dup4\n        /* \"#utility.yul\":9719:9802   */\n      tag_280\n      jump\t// in\n    tag_417:\n        /* \"#utility.yul\":9712:9802   */\n      swap2\n      pop\n        /* \"#utility.yul\":9811:9904   */\n      tag_418\n        /* \"#utility.yul\":9900:9903   */\n      dup3\n        /* \"#utility.yul\":9811:9904   */\n      tag_281\n      jump\t// in\n    tag_418:\n        /* \"#utility.yul\":9929:9930   */\n      0x00\n        /* \"#utility.yul\":9924:9927   */\n      dup3\n        /* \"#utility.yul\":9920:9931   */\n      add\n        /* \"#utility.yul\":9913:9931   */\n      swap1\n      pop\n        /* \"#utility.yul\":9539:9937   */\n      swap2\n      swap1\n      pop\n      jump\t// out\n        /* \"#utility.yul\":9943:10322   */\n    tag_118:\n        /* \"#utility.yul\":10127:10130   */\n      0x00\n        /* \"#utility.yul\":10149:10296   */\n      tag_420\n        /* \"#utility.yul\":10292:10295   */\n      dup3\n        /* \"#utility.yul\":10149:10296   */\n      tag_282\n      jump\t// in\n    tag_420:\n        /* \"#utility.yul\":10142:10296   */\n      swap2\n      pop\n        /* \"#utility.yul\":10313:10316   */\n      dup2\n        /* \"#utility.yul\":10306:10316   */\n      swap1\n      pop\n        /* \"#utility.yul\":9943:10322   */\n      swap2\n      swap1\n      pop\n      jump\t// out\n        /* \"#utility.yul\":10328:10496   */\n    tag_283:\n        /* \"#utility.yul\":10468:10488   */\n      0x5472616e73616374696f6e206661696c65640000000000000000000000000000\n        /* \"#utility.yul\":10464:10465   */\n      0x00\n        /* \"#utility.yul\":10456:10462   */\n      dup3\n        /* \"#utility.yul\":10452:10466   */\n      add\n        /* \"#utility.yul\":10445:10489   */\n      mstore\n        /* \"#utility.yul\":10328:10496   */\n      pop\n      jump\t// out\n        /* \"#utility.yul\":10502:10868   */\n    tag_284:\n        /* \"#utility.yul\":10644:10647   */\n      0x00\n        /* \"#utility.yul\":10665:10732   */\n      tag_423\n        /* \"#utility.yul\":10729:10731   */\n      0x12\n        /* \"#utility.yul\":10724:10727   */\n      dup4\n        /* \"#utility.yul\":10665:10732   */\n      tag_263\n      jump\t// in\n    tag_423:\n        /* \"#utility.yul\":10658:10732   */\n      swap2\n      pop\n        /* \"#utility.yul\":10741:10834   */\n      tag_424\n        /* \"#utility.yul\":10830:10833   */\n      dup3\n        /* \"#utility.yul\":10741:10834   */\n      tag_283\n      jump\t// in\n    tag_424:\n        /* \"#utility.yul\":10859:10861   */\n      0x20\n        /* \"#utility.yul\":10854:10857   */\n      dup3\n        /* \"#utility.yul\":10850:10862   */\n      add\n        /* \"#utility.yul\":10843:10862   */\n      swap1\n      pop\n        /* \"#utility.yul\":10502:10868   */\n      swap2\n      swap1\n      pop\n      jump\t// out\n        /* \"#utility.yul\":10874:11293   */\n    tag_124:\n        /* \"#utility.yul\":11040:11044   */\n      0x00\n        /* \"#utility.yul\":11078:11080   */\n      0x20\n        /* \"#utility.yul\":11067:11076   */\n      dup3\n        /* \"#utility.yul\":11063:11081   */\n      add\n        /* \"#utility.yul\":11055:11081   */\n      swap1\n      pop\n        /* \"#utility.yul\":11127:11136   */\n      dup2\n        /* \"#utility.yul\":11121:11125   */\n      dup2\n        /* \"#utility.yul\":11117:11137   */\n      sub\n        /* \"#utility.yul\":11113:11114   */\n      0x00\n        /* \"#utility.yul\":11102:11111   */\n      dup4\n        /* \"#utility.yul\":11098:11115   */\n      add\n        /* \"#utility.yul\":11091:11138   */\n      mstore\n        /* \"#utility.yul\":11155:11286   */\n      tag_426\n        /* \"#utility.yul\":11281:11285   */\n      dup2\n        /* \"#utility.yul\":11155:11286   */\n      tag_284\n      jump\t// in\n    tag_426:\n        /* \"#utility.yul\":11147:11286   */\n      swap1\n      pop\n        /* \"#utility.yul\":10874:11293   */\n      swap2\n      swap1\n      pop\n      jump\t// out\n        /* \"#utility.yul\":11299:11479   */\n    tag_130:\n        /* \"#utility.yul\":11347:11424   */\n      0x4e487b7100000000000000000000000000000000000000000000000000000000\n        /* \"#utility.yul\":11344:11345   */\n      0x00\n        /* \"#utility.yul\":11337:11425   */\n      mstore\n        /* \"#utility.yul\":11444:11448   */\n      0x32\n        /* \"#utility.yul\":11441:11442   */\n      0x04\n        /* \"#utility.yul\":11434:11449   */\n      mstore\n        /* \"#utility.yul\":11468:11472   */\n      0x24\n        /* \"#utility.yul\":11465:11466   */\n      0x00\n        /* \"#utility.yul\":11458:11473   */\n      revert\n        /* \"#utility.yul\":11485:11665   */\n    tag_285:\n        /* \"#utility.yul\":11533:11610   */\n      0x4e487b7100000000000000000000000000000000000000000000000000000000\n        /* \"#utility.yul\":11530:11531   */\n      0x00\n        /* \"#utility.yul\":11523:11611   */\n      mstore\n        /* \"#utility.yul\":11630:11634   */\n      0x11\n        /* \"#utility.yul\":11627:11628   */\n      0x04\n        /* \"#utility.yul\":11620:11635   */\n      mstore\n        /* \"#utility.yul\":11654:11658   */\n      0x24\n        /* \"#utility.yul\":11651:11652   */\n      0x00\n        /* \"#utility.yul\":11644:11659   */\n      revert\n        /* \"#utility.yul\":11671:11904   */\n    tag_133:\n        /* \"#utility.yul\":11710:11713   */\n      0x00\n        /* \"#utility.yul\":11733:11757   */\n      tag_430\n        /* \"#utility.yul\":11751:11756   */\n      dup3\n        /* \"#utility.yul\":11733:11757   */\n      tag_250\n      jump\t// in\n    tag_430:\n        /* \"#utility.yul\":11724:11757   */\n      swap2\n      pop\n        /* \"#utility.yul\":11779:11845   */\n      0xffffffffffffffffffffffffffffffffffffffffffffffffffffffffffffffff\n        /* \"#utility.yul\":11772:11777   */\n      dup3\n        /* \"#utility.yul\":11769:11846   */\n      sub\n        /* \"#utility.yul\":11766:11869   */\n      tag_431\n      jumpi\n        /* \"#utility.yul\":11849:11867   */\n      tag_432\n      tag_285\n      jump\t// in\n    tag_432:\n        /* \"#utility.yul\":11766:11869   */\n    tag_431:\n        /* \"#utility.yul\":11896:11897   */\n      0x01\n        /* \"#utility.yul\":11889:11894   */\n      dup3\n        /* \"#utility.yul\":11885:11898   */\n      add\n        /* \"#utility.yul\":11878:11898   */\n      swap1\n      pop\n        /* \"#utility.yul\":11671:11904   */\n      swap2\n      swap1\n      pop\n      jump\t// out\n        /* \"#utility.yul\":11910:12090   */\n    tag_286:\n        /* \"#utility.yul\":11958:12035   */\n      0x4e487b7100000000000000000000000000000000000000000000000000000000\n        /* \"#utility.yul\":11955:11956   */\n      0x00\n        /* \"#utility.yul\":11948:12036   */\n      mstore\n        /* \"#utility.yul\":12055:12059   */\n      0x22\n        /* \"#utility.yul\":12052:12053   */\n      0x04\n        /* \"#utility.yul\":12045:12060   */\n      mstore\n        /* \"#utility.yul\":12079:12083   */\n      0x24\n        /* \"#utility.yul\":12076:12077   */\n      0x00\n        /* \"#utility.yul\":12069:12084   */\n      revert\n        /* \"#utility.yul\":12096:12416   */\n    tag_137:\n        /* \"#utility.yul\":12140:12146   */\n      0x00\n        /* \"#utility.yul\":12177:12178   */\n      0x02\n        /* \"#utility.yul\":12171:12175   */\n      dup3\n        /* \"#utility.yul\":12167:12179   */\n      div\n        /* \"#utility.yul\":12157:12179   */\n      swap1\n      pop\n        /* \"#utility.yul\":12224:12225   */\n      0x01\n        /* \"#utility.yul\":12218:12222   */\n      dup3\n        /* \"#utility.yul\":12214:12226   */\n      and\n        /* \"#utility.yul\":12245:12263   */\n      dup1\n        /* \"#utility.yul\":12235:12316   */\n      tag_435\n      jumpi\n        /* \"#utility.yul\":12301:12305   */\n      0x7f\n        /* \"#utility.yul\":12293:12299   */\n      dup3\n        /* \"#utility.yul\":12289:12306   */\n      and\n        /* \"#utility.yul\":12279:12306   */\n      swap2\n      pop\n        /* \"#utility.yul\":12235:12316   */\n    tag_435:\n        /* \"#utility.yul\":12363:12365   */\n      0x20\n        /* \"#utility.yul\":12355:12361   */\n      dup3\n        /* \"#utility.yul\":12352:12366   */\n      lt\n        /* \"#utility.yul\":12332:12350   */\n      dup2\n        /* \"#utility.yul\":12329:12367   */\n      sub\n        /* \"#utility.yul\":12326:12410   */\n      tag_436\n      jumpi\n        /* \"#utility.yul\":12382:12400   */\n      tag_437\n      tag_286\n      jump\t// in\n    tag_437:\n        /* \"#utility.yul\":12326:12410   */\n    tag_436:\n        /* \"#utility.yul\":12147:12416   */\n      pop\n        /* \"#utility.yul\":12096:12416   */\n      swap2\n      swap1\n      pop\n      jump\t// out\n        /* \"#utility.yul\":12422:12597   */\n    tag_287:\n        /* \"#utility.yul\":12562:12589   */\n      0x4578636564656564206d6178696d756d20776974686472617700000000000000\n        /* \"#utility.yul\":12558:12559   */\n      0x00\n        /* \"#utility.yul\":12550:12556   */\n      dup3\n        /* \"#utility.yul\":12546:12560   */\n      add\n        /* \"#utility.yul\":12539:12590   */\n      mstore\n        /* \"#utility.yul\":12422:12597   */\n      pop\n      jump\t// out\n        /* \"#utility.yul\":12603:12969   */\n    tag_288:\n        /* \"#utility.yul\":12745:12748   */\n      0x00\n        /* \"#utility.yul\":12766:12833   */\n      tag_440\n        /* \"#utility.yul\":12830:12832   */\n      0x19\n        /* \"#utility.yul\":12825:12828   */\n      dup4\n        /* \"#utility.yul\":12766:12833   */\n      tag_263\n      jump\t// in\n    tag_440:\n        /* \"#utility.yul\":12759:12833   */\n      swap2\n      pop\n        /* \"#utility.yul\":12842:12935   */\n      tag_441\n        /* \"#utility.yul\":12931:12934   */\n      dup3\n        /* \"#utility.yul\":12842:12935   */\n      tag_287\n      jump\t// in\n    tag_441:\n        /* \"#utility.yul\":12960:12962   */\n      0x20\n        /* \"#utility.yul\":12955:12958   */\n      dup3\n        /* \"#utility.yul\":12951:12963   */\n      add\n        /* \"#utility.yul\":12944:12963   */\n      swap1\n      pop\n        /* \"#utility.yul\":12603:12969   */\n      swap2\n      swap1\n      pop\n      jump\t// out\n        /* \"#utility.yul\":12975:13394   */\n    tag_145:\n        /* \"#utility.yul\":13141:13145   */\n      0x00\n        /* \"#utility.yul\":13179:13181   */\n      0x20\n        /* \"#utility.yul\":13168:13177   */\n      dup3\n        /* \"#utility.yul\":13164:13182   */\n      add\n        /* \"#utility.yul\":13156:13182   */\n      swap1\n      pop\n        /* \"#utility.yul\":13228:13237   */\n      dup2\n        /* \"#utility.yul\":13222:13226   */\n      dup2\n        /* \"#utility.yul\":13218:13238   */\n      sub\n        /* \"#utility.yul\":13214:13215   */\n      0x00\n        /* \"#utility.yul\":13203:13212   */\n      dup4\n        /* \"#utility.yul\":13199:13216   */\n      add\n        /* \"#utility.yul\":13192:13239   */\n      mstore\n        /* \"#utility.yul\":13256:13387   */\n      tag_443\n        /* \"#utility.yul\":13382:13386   */\n      dup2\n        /* \"#utility.yul\":13256:13387   */\n      tag_288\n      jump\t// in\n    tag_443:\n        /* \"#utility.yul\":13248:13387   */\n      swap1\n      pop\n        /* \"#utility.yul\":12975:13394   */\n      swap2\n      swap1\n      pop\n      jump\t// out\n        /* \"#utility.yul\":13400:13594   */\n    tag_148:\n        /* \"#utility.yul\":13440:13444   */\n      0x00\n        /* \"#utility.yul\":13460:13480   */\n      tag_445\n        /* \"#utility.yul\":13478:13479   */\n      dup3\n        /* \"#utility.yul\":13460:13480   */\n      tag_250\n      jump\t// in\n    tag_445:\n        /* \"#utility.yul\":13455:13480   */\n      swap2\n      pop\n        /* \"#utility.yul\":13494:13514   */\n      tag_446\n        /* \"#utility.yul\":13512:13513   */\n      dup4\n        /* \"#utility.yul\":13494:13514   */\n      tag_250\n      jump\t// in\n    tag_446:\n        /* \"#utility.yul\":13489:13514   */\n      swap3\n      pop\n        /* \"#utility.yul\":13538:13539   */\n      dup3\n        /* \"#utility.yul\":13535:13536   */\n      dup3\n        /* \"#utility.yul\":13531:13540   */\n      sub\n        /* \"#utility.yul\":13523:13540   */\n      swap1\n      pop\n        /* \"#utility.yul\":13562:13563   */\n      dup2\n        /* \"#utility.yul\":13556:13560   */\n      dup2\n        /* \"#utility.yul\":13553:13564   */\n      gt\n        /* \"#utility.yul\":13550:13587   */\n      iszero\n      tag_447\n      jumpi\n        /* \"#utility.yul\":13567:13585   */\n      tag_448\n      tag_285\n      jump\t// in\n    tag_448:\n        /* \"#utility.yul\":13550:13587   */\n    tag_447:\n        /* \"#utility.yul\":13400:13594   */\n      swap3\n      swap2\n      pop\n      pop\n      jump\t// out\n        /* \"#utility.yul\":13600:13769   */\n    tag_289:\n        /* \"#utility.yul\":13740:13761   */\n      0x496e76616c6964207765656b206e756d62657200000000000000000000000000\n        /* \"#utility.yul\":13736:13737   */\n      0x00\n        /* \"#utility.yul\":13728:13734   */\n      dup3\n        /* \"#utility.yul\":13724:13738   */\n      add\n        /* \"#utility.yul\":13717:13762   */\n      mstore\n        /* \"#utility.yul\":13600:13769   */\n      pop\n      jump\t// out\n        /* \"#utility.yul\":13775:14141   */\n    tag_290:\n        /* \"#utility.yul\":13917:13920   */\n      0x00\n        /* \"#utility.yul\":13938:14005   */\n      tag_451\n        /* \"#utility.yul\":14002:14004   */\n      0x13\n        /* \"#utility.yul\":13997:14000   */\n      dup4\n        /* \"#utility.yul\":13938:14005   */\n      tag_263\n      jump\t// in\n    tag_451:\n        /* \"#utility.yul\":13931:14005   */\n      swap2\n      pop\n        /* \"#utility.yul\":14014:14107   */\n      tag_452\n        /* \"#utility.yul\":14103:14106   */\n      dup3\n        /* \"#utility.yul\":14014:14107   */\n      tag_289\n      jump\t// in\n    tag_452:\n        /* \"#utility.yul\":14132:14134   */\n      0x20\n        /* \"#utility.yul\":14127:14130   */\n      dup3\n        /* \"#utility.yul\":14123:14135   */\n      add\n        /* \"#utility.yul\":14116:14135   */\n      swap1\n      pop\n        /* \"#utility.yul\":13775:14141   */\n      swap2\n      swap1\n      pop\n      jump\t// out\n        /* \"#utility.yul\":14147:14566   */\n    tag_158:\n        /* \"#utility.yul\":14313:14317   */\n      0x00\n        /* \"#utility.yul\":14351:14353   */\n      0x20\n        /* \"#utility.yul\":14340:14349   */\n      dup3\n        /* \"#utility.yul\":14336:14354   */\n      add\n        /* \"#utility.yul\":14328:14354   */\n      swap1\n      pop\n        /* \"#utility.yul\":14400:14409   */\n      dup2\n        /* \"#utility.yul\":14394:14398   */\n      dup2\n        /* \"#utility.yul\":14390:14410   */\n      sub\n        /* \"#utility.yul\":14386:14387   */\n      0x00\n        /* \"#utility.yul\":14375:14384   */\n      dup4\n        /* \"#utility.yul\":14371:14388   */\n      add\n        /* \"#utility.yul\":14364:14411   */\n      mstore\n        /* \"#utility.yul\":14428:14559   */\n      tag_454\n        /* \"#utility.yul\":14554:14558   */\n      dup2\n        /* \"#utility.yul\":14428:14559   */\n      tag_290\n      jump\t// in\n    tag_454:\n        /* \"#utility.yul\":14420:14559   */\n      swap1\n      pop\n        /* \"#utility.yul\":14147:14566   */\n      swap2\n      swap1\n      pop\n      jump\t// out\n        /* \"#utility.yul\":14572:14746   */\n    tag_291:\n        /* \"#utility.yul\":14712:14738   */\n      0x4d696e6d756d20626f72726f7720697320302e32204574680000000000000000\n        /* \"#utility.yul\":14708:14709   */\n      0x00\n        /* \"#utility.yul\":14700:14706   */\n      dup3\n        /* \"#utility.yul\":14696:14710   */\n      add\n        /* \"#utility.yul\":14689:14739   */\n      mstore\n        /* \"#utility.yul\":14572:14746   */\n      pop\n      jump\t// out\n        /* \"#utility.yul\":14752:15118   */\n    tag_292:\n        /* \"#utility.yul\":14894:14897   */\n      0x00\n        /* \"#utility.yul\":14915:14982   */\n      tag_457\n        /* \"#utility.yul\":14979:14981   */\n      0x18\n        /* \"#utility.yul\":14974:14977   */\n      dup4\n        /* \"#utility.yul\":14915:14982   */\n      tag_263\n      jump\t// in\n    tag_457:\n        /* \"#utility.yul\":14908:14982   */\n      swap2\n      pop\n        /* \"#utility.yul\":14991:15084   */\n      tag_458\n        /* \"#utility.yul\":15080:15083   */\n      dup3\n        /* \"#utility.yul\":14991:15084   */\n      tag_291\n      jump\t// in\n    tag_458:\n        /* \"#utility.yul\":15109:15111   */\n      0x20\n        /* \"#utility.yul\":15104:15107   */\n      dup3\n        /* \"#utility.yul\":15100:15112   */\n      add\n        /* \"#utility.yul\":15093:15112   */\n      swap1\n      pop\n        /* \"#utility.yul\":14752:15118   */\n      swap2\n      swap1\n      pop\n      jump\t// out\n        /* \"#utility.yul\":15124:15543   */\n    tag_162:\n        /* \"#utility.yul\":15290:15294   */\n      0x00\n        /* \"#utility.yul\":15328:15330   */\n      0x20\n        /* \"#utility.yul\":15317:15326   */\n      dup3\n        /* \"#utility.yul\":15313:15331   */\n      add\n        /* \"#utility.yul\":15305:15331   */\n      swap1\n      pop\n        /* \"#utility.yul\":15377:15386   */\n      dup2\n        /* \"#utility.yul\":15371:15375   */\n      dup2\n        /* \"#utility.yul\":15367:15387   */\n      sub\n        /* \"#utility.yul\":15363:15364   */\n      0x00\n        /* \"#utility.yul\":15352:15361   */\n      dup4\n        /* \"#utility.yul\":15348:15365   */\n      add\n        /* \"#utility.yul\":15341:15388   */\n      mstore\n        /* \"#utility.yul\":15405:15536   */\n      tag_460\n        /* \"#utility.yul\":15531:15535   */\n      dup2\n        /* \"#utility.yul\":15405:15536   */\n      tag_292\n      jump\t// in\n    tag_460:\n        /* \"#utility.yul\":15397:15536   */\n      swap1\n      pop\n        /* \"#utility.yul\":15124:15543   */\n      swap2\n      swap1\n      pop\n      jump\t// out\n        /* \"#utility.yul\":15549:15780   */\n    tag_165:\n        /* \"#utility.yul\":15587:15590   */\n      0x00\n        /* \"#utility.yul\":15610:15633   */\n      tag_462\n        /* \"#utility.yul\":15627:15632   */\n      dup3\n        /* \"#utility.yul\":15610:15633   */\n      tag_259\n      jump\t// in\n    tag_462:\n        /* \"#utility.yul\":15601:15633   */\n      swap2\n      pop\n        /* \"#utility.yul\":15655:15721   */\n      0x7fffffffffffffffffffffffffffffffffffffffffffffffffffffffffffffff\n        /* \"#utility.yul\":15648:15653   */\n      dup3\n        /* \"#utility.yul\":15645:15722   */\n      sub\n        /* \"#utility.yul\":15642:15745   */\n      tag_463\n      jumpi\n        /* \"#utility.yul\":15725:15743   */\n      tag_464\n      tag_285\n      jump\t// in\n    tag_464:\n        /* \"#utility.yul\":15642:15745   */\n    tag_463:\n        /* \"#utility.yul\":15772:15773   */\n      0x01\n        /* \"#utility.yul\":15765:15770   */\n      dup3\n        /* \"#utility.yul\":15761:15774   */\n      add\n        /* \"#utility.yul\":15754:15774   */\n      swap1\n      pop\n        /* \"#utility.yul\":15549:15780   */\n      swap2\n      swap1\n      pop\n      jump\t// out\n        /* \"#utility.yul\":15786:16196   */\n    tag_167:\n        /* \"#utility.yul\":15826:15833   */\n      0x00\n        /* \"#utility.yul\":15849:15869   */\n      tag_466\n        /* \"#utility.yul\":15867:15868   */\n      dup3\n        /* \"#utility.yul\":15849:15869   */\n      tag_250\n      jump\t// in\n    tag_466:\n        /* \"#utility.yul\":15844:15869   */\n      swap2\n      pop\n        /* \"#utility.yul\":15883:15903   */\n      tag_467\n        /* \"#utility.yul\":15901:15902   */\n      dup4\n        /* \"#utility.yul\":15883:15903   */\n      tag_250\n      jump\t// in\n    tag_467:\n        /* \"#utility.yul\":15878:15903   */\n      swap3\n      pop\n        /* \"#utility.yul\":15938:15939   */\n      dup3\n        /* \"#utility.yul\":15935:15936   */\n      dup3\n        /* \"#utility.yul\":15931:15940   */\n      mul\n        /* \"#utility.yul\":15960:15990   */\n      tag_468\n        /* \"#utility.yul\":15978:15989   */\n      dup2\n        /* \"#utility.yul\":15960:15990   */\n      tag_250\n      jump\t// in\n    tag_468:\n        /* \"#utility.yul\":15949:15990   */\n      swap2\n      pop\n        /* \"#utility.yul\":16139:16140   */\n      dup3\n        /* \"#utility.yul\":16130:16137   */\n      dup3\n        /* \"#utility.yul\":16126:16141   */\n      div\n        /* \"#utility.yul\":16123:16124   */\n      dup5\n        /* \"#utility.yul\":16120:16142   */\n      eq\n        /* \"#utility.yul\":16100:16101   */\n      dup4\n        /* \"#utility.yul\":16093:16102   */\n      iszero\n        /* \"#utility.yul\":16073:16156   */\n      or\n        /* \"#utility.yul\":16050:16189   */\n      tag_469\n      jumpi\n        /* \"#utility.yul\":16169:16187   */\n      tag_470\n      tag_285\n      jump\t// in\n    tag_470:\n        /* \"#utility.yul\":16050:16189   */\n    tag_469:\n        /* \"#utility.yul\":15834:16196   */\n      pop\n        /* \"#utility.yul\":15786:16196   */\n      swap3\n      swap2\n      pop\n      pop\n      jump\t// out\n        /* \"#utility.yul\":16202:16393   */\n    tag_169:\n        /* \"#utility.yul\":16242:16245   */\n      0x00\n        /* \"#utility.yul\":16261:16281   */\n      tag_472\n        /* \"#utility.yul\":16279:16280   */\n      dup3\n        /* \"#utility.yul\":16261:16281   */\n      tag_250\n      jump\t// in\n    tag_472:\n        /* \"#utility.yul\":16256:16281   */\n      swap2\n      pop\n        /* \"#utility.yul\":16295:16315   */\n      tag_473\n        /* \"#utility.yul\":16313:16314   */\n      dup4\n        /* \"#utility.yul\":16295:16315   */\n      tag_250\n      jump\t// in\n    tag_473:\n        /* \"#utility.yul\":16290:16315   */\n      swap3\n      pop\n        /* \"#utility.yul\":16338:16339   */\n      dup3\n        /* \"#utility.yul\":16335:16336   */\n      dup3\n        /* \"#utility.yul\":16331:16340   */\n      add\n        /* \"#utility.yul\":16324:16340   */\n      swap1\n      pop\n        /* \"#utility.yul\":16359:16362   */\n      dup1\n        /* \"#utility.yul\":16356:16357   */\n      dup3\n        /* \"#utility.yul\":16353:16363   */\n      gt\n        /* \"#utility.yul\":16350:16386   */\n      iszero\n      tag_474\n      jumpi\n        /* \"#utility.yul\":16366:16384   */\n      tag_475\n      tag_285\n      jump\t// in\n    tag_475:\n        /* \"#utility.yul\":16350:16386   */\n    tag_474:\n        /* \"#utility.yul\":16202:16393   */\n      swap3\n      swap2\n      pop\n      pop\n      jump\t// out\n        /* \"#utility.yul\":16399:16579   */\n    tag_293:\n        /* \"#utility.yul\":16447:16524   */\n      0x4e487b7100000000000000000000000000000000000000000000000000000000\n        /* \"#utility.yul\":16444:16445   */\n      0x00\n        /* \"#utility.yul\":16437:16525   */\n      mstore\n        /* \"#utility.yul\":16544:16548   */\n      0x12\n        /* \"#utility.yul\":16541:16542   */\n      0x04\n        /* \"#utility.yul\":16534:16549   */\n      mstore\n        /* \"#utility.yul\":16568:16572   */\n      0x24\n        /* \"#utility.yul\":16565:16566   */\n      0x00\n        /* \"#utility.yul\":16558:16573   */\n      revert\n        /* \"#utility.yul\":16585:16770   */\n    tag_179:\n        /* \"#utility.yul\":16625:16626   */\n      0x00\n        /* \"#utility.yul\":16642:16662   */\n      tag_478\n        /* \"#utility.yul\":16660:16661   */\n      dup3\n        /* \"#utility.yul\":16642:16662   */\n      tag_250\n      jump\t// in\n    tag_478:\n        /* \"#utility.yul\":16637:16662   */\n      swap2\n      pop\n        /* \"#utility.yul\":16676:16696   */\n      tag_479\n        /* \"#utility.yul\":16694:16695   */\n      dup4\n        /* \"#utility.yul\":16676:16696   */\n      tag_250\n      jump\t// in\n    tag_479:\n        /* \"#utility.yul\":16671:16696   */\n      swap3\n      pop\n        /* \"#utility.yul\":16715:16716   */\n      dup3\n        /* \"#utility.yul\":16705:16740   */\n      tag_480\n      jumpi\n        /* \"#utility.yul\":16720:16738   */\n      tag_481\n      tag_293\n      jump\t// in\n    tag_481:\n        /* \"#utility.yul\":16705:16740   */\n    tag_480:\n        /* \"#utility.yul\":16762:16763   */\n      dup3\n        /* \"#utility.yul\":16759:16760   */\n      dup3\n        /* \"#utility.yul\":16755:16764   */\n      div\n        /* \"#utility.yul\":16750:16764   */\n      swap1\n      pop\n        /* \"#utility.yul\":16585:16770   */\n      swap3\n      swap2\n      pop\n      pop\n      jump\t// out\n        /* \"#utility.yul\":16776:16956   */\n    tag_294:\n        /* \"#utility.yul\":16824:16901   */\n      0x4e487b7100000000000000000000000000000000000000000000000000000000\n        /* \"#utility.yul\":16821:16822   */\n      0x00\n        /* \"#utility.yul\":16814:16902   */\n      mstore\n        /* \"#utility.yul\":16921:16925   */\n      0x41\n        /* \"#utility.yul\":16918:16919   */\n      0x04\n        /* \"#utility.yul\":16911:16926   */\n      mstore\n        /* \"#utility.yul\":16945:16949   */\n      0x24\n        /* \"#utility.yul\":16942:16943   */\n      0x00\n        /* \"#utility.yul\":16935:16950   */\n      revert\n        /* \"#utility.yul\":16962:17103   */\n    tag_295:\n        /* \"#utility.yul\":17011:17015   */\n      0x00\n        /* \"#utility.yul\":17034:17037   */\n      dup2\n        /* \"#utility.yul\":17026:17037   */\n      swap1\n      pop\n        /* \"#utility.yul\":17057:17060   */\n      dup2\n        /* \"#utility.yul\":17054:17055   */\n      0x00\n        /* \"#utility.yul\":17047:17061   */\n      mstore\n        /* \"#utility.yul\":17091:17095   */\n      0x20\n        /* \"#utility.yul\":17088:17089   */\n      0x00\n        /* \"#utility.yul\":17078:17096   */\n      keccak256\n        /* \"#utility.yul\":17070:17096   */\n      swap1\n      pop\n        /* \"#utility.yul\":16962:17103   */\n      swap2\n      swap1\n      pop\n      jump\t// out\n        /* \"#utility.yul\":17109:17202   */\n    tag_296:\n        /* \"#utility.yul\":17146:17152   */\n      0x00\n        /* \"#utility.yul\":17193:17195   */\n      0x20\n        /* \"#utility.yul\":17188:17190   */\n      0x1f\n        /* \"#utility.yul\":17181:17186   */\n      dup4\n        /* \"#utility.yul\":17177:17191   */\n      add\n        /* \"#utility.yul\":17173:17196   */\n      div\n        /* \"#utility.yul\":17163:17196   */\n      swap1\n      pop\n        /* \"#utility.yul\":17109:17202   */\n      swap2\n      swap1\n      pop\n      jump\t// out\n        /* \"#utility.yul\":17208:17315   */\n    tag_297:\n        /* \"#utility.yul\":17252:17260   */\n      0x00\n        /* \"#utility.yul\":17302:17307   */\n      dup3\n        /* \"#utility.yul\":17296:17300   */\n      dup3\n        /* \"#utility.yul\":17292:17308   */\n      shl\n        /* \"#utility.yul\":17271:17308   */\n      swap1\n      pop\n        /* \"#utility.yul\":17208:17315   */\n      swap3\n      swap2\n      pop\n      pop\n      jump\t// out\n        /* \"#utility.yul\":17321:17714   */\n    tag_298:\n        /* \"#utility.yul\":17390:17396   */\n      0x00\n        /* \"#utility.yul\":17440:17441   */\n      0x08\n        /* \"#utility.yul\":17428:17438   */\n      dup4\n        /* \"#utility.yul\":17424:17442   */\n      mul\n        /* \"#utility.yul\":17463:17560   */\n      tag_487\n        /* \"#utility.yul\":17493:17559   */\n      0xffffffffffffffffffffffffffffffffffffffffffffffffffffffffffffffff\n        /* \"#utility.yul\":17482:17491   */\n      dup3\n        /* \"#utility.yul\":17463:17560   */\n      tag_297\n      jump\t// in\n    tag_487:\n        /* \"#utility.yul\":17581:17620   */\n      tag_488\n        /* \"#utility.yul\":17611:17619   */\n      dup7\n        /* \"#utility.yul\":17600:17609   */\n      dup4\n        /* \"#utility.yul\":17581:17620   */\n      tag_297\n      jump\t// in\n    tag_488:\n        /* \"#utility.yul\":17569:17620   */\n      swap6\n      pop\n        /* \"#utility.yul\":17653:17657   */\n      dup1\n        /* \"#utility.yul\":17649:17658   */\n      not\n        /* \"#utility.yul\":17642:17647   */\n      dup5\n        /* \"#utility.yul\":17638:17659   */\n      and\n        /* \"#utility.yul\":17629:17659   */\n      swap4\n      pop\n        /* \"#utility.yul\":17702:17706   */\n      dup1\n        /* \"#utility.yul\":17692:17700   */\n      dup7\n        /* \"#utility.yul\":17688:17707   */\n      and\n        /* \"#utility.yul\":17681:17686   */\n      dup5\n        /* \"#utility.yul\":17678:17708   */\n      or\n        /* \"#utility.yul\":17668:17708   */\n      swap3\n      pop\n        /* \"#utility.yul\":17397:17714   */\n      pop\n      pop\n        /* \"#utility.yul\":17321:17714   */\n      swap4\n      swap3\n      pop\n      pop\n      pop\n      jump\t// out\n        /* \"#utility.yul\":17720:17780   */\n    tag_299:\n        /* \"#utility.yul\":17748:17751   */\n      0x00\n        /* \"#utility.yul\":17769:17774   */\n      dup2\n        /* \"#utility.yul\":17762:17774   */\n      swap1\n      pop\n        /* \"#utility.yul\":17720:17780   */\n      swap2\n      swap1\n      pop\n      jump\t// out\n        /* \"#utility.yul\":17786:17928   */\n    tag_300:\n        /* \"#utility.yul\":17836:17845   */\n      0x00\n        /* \"#utility.yul\":17869:17922   */\n      tag_491\n        /* \"#utility.yul\":17887:17921   */\n      tag_492\n        /* \"#utility.yul\":17896:17920   */\n      tag_493\n        /* \"#utility.yul\":17914:17919   */\n      dup5\n        /* \"#utility.yul\":17896:17920   */\n      tag_250\n      jump\t// in\n    tag_493:\n        /* \"#utility.yul\":17887:17921   */\n      tag_299\n      jump\t// in\n    tag_492:\n        /* \"#utility.yul\":17869:17922   */\n      tag_250\n      jump\t// in\n    tag_491:\n        /* \"#utility.yul\":17856:17922   */\n      swap1\n      pop\n        /* \"#utility.yul\":17786:17928   */\n      swap2\n      swap1\n      pop\n      jump\t// out\n        /* \"#utility.yul\":17934:18009   */\n    tag_301:\n        /* \"#utility.yul\":17977:17980   */\n      0x00\n        /* \"#utility.yul\":17998:18003   */\n      dup2\n        /* \"#utility.yul\":17991:18003   */\n      swap1\n      pop\n        /* \"#utility.yul\":17934:18009   */\n      swap2\n      swap1\n      pop\n      jump\t// out\n        /* \"#utility.yul\":18015:18284   */\n    tag_302:\n        /* \"#utility.yul\":18125:18164   */\n      tag_496\n        /* \"#utility.yul\":18156:18163   */\n      dup4\n        /* \"#utility.yul\":18125:18164   */\n      tag_300\n      jump\t// in\n    tag_496:\n        /* \"#utility.yul\":18186:18277   */\n      tag_497\n        /* \"#utility.yul\":18235:18276   */\n      tag_498\n        /* \"#utility.yul\":18259:18275   */\n      dup3\n        /* \"#utility.yul\":18235:18276   */\n      tag_301\n      jump\t// in\n    tag_498:\n        /* \"#utility.yul\":18227:18233   */\n      dup5\n        /* \"#utility.yul\":18220:18224   */\n      dup5\n        /* \"#utility.yul\":18214:18225   */\n      sload\n        /* \"#utility.yul\":18186:18277   */\n      tag_298\n      jump\t// in\n    tag_497:\n        /* \"#utility.yul\":18180:18184   */\n      dup3\n        /* \"#utility.yul\":18173:18278   */\n      sstore\n        /* \"#utility.yul\":18091:18284   */\n      pop\n        /* \"#utility.yul\":18015:18284   */\n      pop\n      pop\n      pop\n      jump\t// out\n        /* \"#utility.yul\":18290:18363   */\n    tag_303:\n        /* \"#utility.yul\":18335:18338   */\n      0x00\n        /* \"#utility.yul\":18356:18357   */\n      0x00\n        /* \"#utility.yul\":18349:18357   */\n      swap1\n      pop\n        /* \"#utility.yul\":18290:18363   */\n      swap1\n      jump\t// out\n        /* \"#utility.yul\":18369:18558   */\n    tag_304:\n        /* \"#utility.yul\":18446:18478   */\n      tag_501\n      tag_303\n      jump\t// in\n    tag_501:\n        /* \"#utility.yul\":18487:18552   */\n      tag_502\n        /* \"#utility.yul\":18545:18551   */\n      dup2\n        /* \"#utility.yul\":18537:18543   */\n      dup5\n        /* \"#utility.yul\":18531:18535   */\n      dup5\n        /* \"#utility.yul\":18487:18552   */\n      tag_302\n      jump\t// in\n    tag_502:\n        /* \"#utility.yul\":18422:18558   */\n      pop\n        /* \"#utility.yul\":18369:18558   */\n      pop\n      pop\n      jump\t// out\n        /* \"#utility.yul\":18564:18750   */\n    tag_305:\n        /* \"#utility.yul\":18624:18744   */\n    tag_504:\n        /* \"#utility.yul\":18641:18644   */\n      dup2\n        /* \"#utility.yul\":18634:18639   */\n      dup2\n        /* \"#utility.yul\":18631:18645   */\n      lt\n        /* \"#utility.yul\":18624:18744   */\n      iszero\n      tag_506\n      jumpi\n        /* \"#utility.yul\":18695:18734   */\n      tag_507\n        /* \"#utility.yul\":18732:18733   */\n      0x00\n        /* \"#utility.yul\":18725:18730   */\n      dup3\n        /* \"#utility.yul\":18695:18734   */\n      tag_304\n      jump\t// in\n    tag_507:\n        /* \"#utility.yul\":18668:18669   */\n      0x01\n        /* \"#utility.yul\":18661:18666   */\n      dup2\n        /* \"#utility.yul\":18657:18670   */\n      add\n        /* \"#utility.yul\":18648:18670   */\n      swap1\n      pop\n        /* \"#utility.yul\":18624:18744   */\n      jump(tag_504)\n    tag_506:\n        /* \"#utility.yul\":18564:18750   */\n      pop\n      pop\n      jump\t// out\n        /* \"#utility.yul\":18756:19299   */\n    tag_306:\n        /* \"#utility.yul\":18857:18859   */\n      0x1f\n        /* \"#utility.yul\":18852:18855   */\n      dup3\n        /* \"#utility.yul\":18849:18860   */\n      gt\n        /* \"#utility.yul\":18846:19292   */\n      iszero\n      tag_509\n      jumpi\n        /* \"#utility.yul\":18891:18929   */\n      tag_510\n        /* \"#utility.yul\":18923:18928   */\n      dup2\n        /* \"#utility.yul\":18891:18929   */\n      tag_295\n      jump\t// in\n    tag_510:\n        /* \"#utility.yul\":18975:19004   */\n      tag_511\n        /* \"#utility.yul\":18993:19003   */\n      dup5\n        /* \"#utility.yul\":18975:19004   */\n      tag_296\n      jump\t// in\n    tag_511:\n        /* \"#utility.yul\":18965:18973   */\n      dup2\n        /* \"#utility.yul\":18961:19005   */\n      add\n        /* \"#utility.yul\":19158:19160   */\n      0x20\n        /* \"#utility.yul\":19146:19156   */\n      dup6\n        /* \"#utility.yul\":19143:19161   */\n      lt\n        /* \"#utility.yul\":19140:19189   */\n      iszero\n      tag_512\n      jumpi\n        /* \"#utility.yul\":19179:19187   */\n      dup2\n        /* \"#utility.yul\":19164:19187   */\n      swap1\n      pop\n        /* \"#utility.yul\":19140:19189   */\n    tag_512:\n        /* \"#utility.yul\":19202:19282   */\n      tag_513\n        /* \"#utility.yul\":19258:19280   */\n      tag_514\n        /* \"#utility.yul\":19276:19279   */\n      dup6\n        /* \"#utility.yul\":19258:19280   */\n      tag_296\n      jump\t// in\n    tag_514:\n        /* \"#utility.yul\":19248:19256   */\n      dup4\n        /* \"#utility.yul\":19244:19281   */\n      add\n        /* \"#utility.yul\":19231:19242   */\n      dup3\n        /* \"#utility.yul\":19202:19282   */\n      tag_305\n      jump\t// in\n    tag_513:\n        /* \"#utility.yul\":18861:19292   */\n      pop\n      pop\n        /* \"#utility.yul\":18846:19292   */\n    tag_509:\n        /* \"#utility.yul\":18756:19299   */\n      pop\n      pop\n      pop\n      jump\t// out\n        /* \"#utility.yul\":19305:19422   */\n    tag_307:\n        /* \"#utility.yul\":19359:19367   */\n      0x00\n        /* \"#utility.yul\":19409:19414   */\n      dup3\n        /* \"#utility.yul\":19403:19407   */\n      dup3\n        /* \"#utility.yul\":19399:19415   */\n      shr\n        /* \"#utility.yul\":19378:19415   */\n      swap1\n      pop\n        /* \"#utility.yul\":19305:19422   */\n      swap3\n      swap2\n      pop\n      pop\n      jump\t// out\n        /* \"#utility.yul\":19428:19597   */\n    tag_308:\n        /* \"#utility.yul\":19472:19478   */\n      0x00\n        /* \"#utility.yul\":19505:19556   */\n      tag_517\n        /* \"#utility.yul\":19553:19554   */\n      0x00\n        /* \"#utility.yul\":19549:19555   */\n      not\n        /* \"#utility.yul\":19541:19546   */\n      dup5\n        /* \"#utility.yul\":19538:19539   */\n      0x08\n        /* \"#utility.yul\":19534:19547   */\n      mul\n        /* \"#utility.yul\":19505:19556   */\n      tag_307\n      jump\t// in\n    tag_517:\n        /* \"#utility.yul\":19501:19557   */\n      not\n        /* \"#utility.yul\":19586:19590   */\n      dup1\n        /* \"#utility.yul\":19580:19584   */\n      dup4\n        /* \"#utility.yul\":19576:19591   */\n      and\n        /* \"#utility.yul\":19566:19591   */\n      swap2\n      pop\n        /* \"#utility.yul\":19479:19597   */\n      pop\n        /* \"#utility.yul\":19428:19597   */\n      swap3\n      swap2\n      pop\n      pop\n      jump\t// out\n        /* \"#utility.yul\":19602:19897   */\n    tag_309:\n        /* \"#utility.yul\":19678:19682   */\n      0x00\n        /* \"#utility.yul\":19824:19853   */\n      tag_519\n        /* \"#utility.yul\":19849:19852   */\n      dup4\n        /* \"#utility.yul\":19843:19847   */\n      dup4\n        /* \"#utility.yul\":19824:19853   */\n      tag_308\n      jump\t// in\n    tag_519:\n        /* \"#utility.yul\":19816:19853   */\n      swap2\n      pop\n        /* \"#utility.yul\":19886:19889   */\n      dup3\n        /* \"#utility.yul\":19883:19884   */\n      0x02\n        /* \"#utility.yul\":19879:19890   */\n      mul\n        /* \"#utility.yul\":19873:19877   */\n      dup3\n        /* \"#utility.yul\":19870:19891   */\n      or\n        /* \"#utility.yul\":19862:19891   */\n      swap1\n      pop\n        /* \"#utility.yul\":19602:19897   */\n      swap3\n      swap2\n      pop\n      pop\n      jump\t// out\n        /* \"#utility.yul\":19902:21297   */\n    tag_188:\n        /* \"#utility.yul\":20019:20056   */\n      tag_521\n        /* \"#utility.yul\":20052:20055   */\n      dup3\n        /* \"#utility.yul\":20019:20056   */\n      tag_262\n      jump\t// in\n    tag_521:\n        /* \"#utility.yul\":20121:20139   */\n      0xffffffffffffffff\n        /* \"#utility.yul\":20113:20119   */\n      dup2\n        /* \"#utility.yul\":20110:20140   */\n      gt\n        /* \"#utility.yul\":20107:20163   */\n      iszero\n      tag_522\n      jumpi\n        /* \"#utility.yul\":20143:20161   */\n      tag_523\n      tag_294\n      jump\t// in\n    tag_523:\n        /* \"#utility.yul\":20107:20163   */\n    tag_522:\n        /* \"#utility.yul\":20187:20225   */\n      tag_524\n        /* \"#utility.yul\":20219:20223   */\n      dup3\n        /* \"#utility.yul\":20213:20224   */\n      sload\n        /* \"#utility.yul\":20187:20225   */\n      tag_137\n      jump\t// in\n    tag_524:\n        /* \"#utility.yul\":20272:20339   */\n      tag_525\n        /* \"#utility.yul\":20332:20338   */\n      dup3\n        /* \"#utility.yul\":20324:20330   */\n      dup3\n        /* \"#utility.yul\":20318:20322   */\n      dup6\n        /* \"#utility.yul\":20272:20339   */\n      tag_306\n      jump\t// in\n    tag_525:\n        /* \"#utility.yul\":20366:20367   */\n      0x00\n        /* \"#utility.yul\":20390:20394   */\n      0x20\n        /* \"#utility.yul\":20377:20394   */\n      swap1\n      pop\n        /* \"#utility.yul\":20422:20424   */\n      0x1f\n        /* \"#utility.yul\":20414:20420   */\n      dup4\n        /* \"#utility.yul\":20411:20425   */\n      gt\n        /* \"#utility.yul\":20439:20440   */\n      0x01\n        /* \"#utility.yul\":20434:21052   */\n      dup2\n      eq\n      tag_527\n      jumpi\n        /* \"#utility.yul\":21096:21097   */\n      0x00\n        /* \"#utility.yul\":21113:21119   */\n      dup5\n        /* \"#utility.yul\":21110:21187   */\n      iszero\n      tag_528\n      jumpi\n        /* \"#utility.yul\":21162:21171   */\n      dup3\n        /* \"#utility.yul\":21157:21160   */\n      dup8\n        /* \"#utility.yul\":21153:21172   */\n      add\n        /* \"#utility.yul\":21147:21173   */\n      mload\n        /* \"#utility.yul\":21138:21173   */\n      swap1\n      pop\n        /* \"#utility.yul\":21110:21187   */\n    tag_528:\n        /* \"#utility.yul\":21213:21280   */\n      tag_529\n        /* \"#utility.yul\":21273:21279   */\n      dup6\n        /* \"#utility.yul\":21266:21271   */\n      dup3\n        /* \"#utility.yul\":21213:21280   */\n      tag_309\n      jump\t// in\n    tag_529:\n        /* \"#utility.yul\":21207:21211   */\n      dup7\n        /* \"#utility.yul\":21200:21281   */\n      sstore\n        /* \"#utility.yul\":21069:21291   */\n      pop\n        /* \"#utility.yul\":20404:21291   */\n      jump(tag_526)\n        /* \"#utility.yul\":20434:21052   */\n    tag_527:\n        /* \"#utility.yul\":20486:20490   */\n      0x1f\n        /* \"#utility.yul\":20482:20491   */\n      not\n        /* \"#utility.yul\":20474:20480   */\n      dup5\n        /* \"#utility.yul\":20470:20492   */\n      and\n        /* \"#utility.yul\":20520:20557   */\n      tag_530\n        /* \"#utility.yul\":20552:20556   */\n      dup7\n        /* \"#utility.yul\":20520:20557   */\n      tag_295\n      jump\t// in\n    tag_530:\n        /* \"#utility.yul\":20579:20580   */\n      0x00\n        /* \"#utility.yul\":20593:20801   */\n    tag_531:\n        /* \"#utility.yul\":20607:20614   */\n      dup3\n        /* \"#utility.yul\":20604:20605   */\n      dup2\n        /* \"#utility.yul\":20601:20615   */\n      lt\n        /* \"#utility.yul\":20593:20801   */\n      iszero\n      tag_533\n      jumpi\n        /* \"#utility.yul\":20686:20695   */\n      dup5\n        /* \"#utility.yul\":20681:20684   */\n      dup10\n        /* \"#utility.yul\":20677:20696   */\n      add\n        /* \"#utility.yul\":20671:20697   */\n      mload\n        /* \"#utility.yul\":20663:20669   */\n      dup3\n        /* \"#utility.yul\":20656:20698   */\n      sstore\n        /* \"#utility.yul\":20737:20738   */\n      0x01\n        /* \"#utility.yul\":20729:20735   */\n      dup3\n        /* \"#utility.yul\":20725:20739   */\n      add\n        /* \"#utility.yul\":20715:20739   */\n      swap2\n      pop\n        /* \"#utility.yul\":20784:20786   */\n      0x20\n        /* \"#utility.yul\":20773:20782   */\n      dup6\n        /* \"#utility.yul\":20769:20787   */\n      add\n        /* \"#utility.yul\":20756:20787   */\n      swap5\n      pop\n        /* \"#utility.yul\":20630:20634   */\n      0x20\n        /* \"#utility.yul\":20627:20628   */\n      dup2\n        /* \"#utility.yul\":20623:20635   */\n      add\n        /* \"#utility.yul\":20618:20635   */\n      swap1\n      pop\n        /* \"#utility.yul\":20593:20801   */\n      jump(tag_531)\n    tag_533:\n        /* \"#utility.yul\":20829:20835   */\n      dup7\n        /* \"#utility.yul\":20820:20827   */\n      dup4\n        /* \"#utility.yul\":20817:20836   */\n      lt\n        /* \"#utility.yul\":20814:20993   */\n      iszero\n      tag_534\n      jumpi\n        /* \"#utility.yul\":20887:20896   */\n      dup5\n        /* \"#utility.yul\":20882:20885   */\n      dup10\n        /* \"#utility.yul\":20878:20897   */\n      add\n        /* \"#utility.yul\":20872:20898   */\n      mload\n        /* \"#utility.yul\":20930:20978   */\n      tag_535\n        /* \"#utility.yul\":20972:20976   */\n      0x1f\n        /* \"#utility.yul\":20964:20970   */\n      dup10\n        /* \"#utility.yul\":20960:20977   */\n      and\n        /* \"#utility.yul\":20949:20958   */\n      dup3\n        /* \"#utility.yul\":20930:20978   */\n      tag_308\n      jump\t// in\n    tag_535:\n        /* \"#utility.yul\":20922:20928   */\n      dup4\n        /* \"#utility.yul\":20915:20979   */\n      sstore\n        /* \"#utility.yul\":20837:20993   */\n      pop\n        /* \"#utility.yul\":20814:20993   */\n    tag_534:\n        /* \"#utility.yul\":21039:21040   */\n      0x01\n        /* \"#utility.yul\":21035:21036   */\n      0x02\n        /* \"#utility.yul\":21027:21033   */\n      dup9\n        /* \"#utility.yul\":21023:21037   */\n      mul\n        /* \"#utility.yul\":21019:21041   */\n      add\n        /* \"#utility.yul\":21013:21017   */\n      dup9\n        /* \"#utility.yul\":21006:21042   */\n      sstore\n        /* \"#utility.yul\":20441:21052   */\n      pop\n      pop\n      pop\n        /* \"#utility.yul\":20404:21291   */\n    tag_526:\n      pop\n        /* \"#utility.yul\":19994:21297   */\n      pop\n      pop\n      pop\n        /* \"#utility.yul\":19902:21297   */\n      pop\n      pop\n      jump\t// out\n        /* \"#utility.yul\":21303:21477   */\n    tag_310:\n        /* \"#utility.yul\":21443:21469   */\n      0x4d696e6d756d20626f72726f7720697320302e31204574680000000000000000\n        /* \"#utility.yul\":21439:21440   */\n      0x00\n        /* \"#utility.yul\":21431:21437   */\n      dup3\n        /* \"#utility.yul\":21427:21441   */\n      add\n        /* \"#utility.yul\":21420:21470   */\n      mstore\n        /* \"#utility.yul\":21303:21477   */\n      pop\n      jump\t// out\n        /* \"#utility.yul\":21483:21849   */\n    tag_311:\n        /* \"#utility.yul\":21625:21628   */\n      0x00\n        /* \"#utility.yul\":21646:21713   */\n      tag_538\n        /* \"#utility.yul\":21710:21712   */\n      0x18\n        /* \"#utility.yul\":21705:21708   */\n      dup4\n        /* \"#utility.yul\":21646:21713   */\n      tag_263\n      jump\t// in\n    tag_538:\n        /* \"#utility.yul\":21639:21713   */\n      swap2\n      pop\n        /* \"#utility.yul\":21722:21815   */\n      tag_539\n        /* \"#utility.yul\":21811:21814   */\n      dup3\n        /* \"#utility.yul\":21722:21815   */\n      tag_310\n      jump\t// in\n    tag_539:\n        /* \"#utility.yul\":21840:21842   */\n      0x20\n        /* \"#utility.yul\":21835:21838   */\n      dup3\n        /* \"#utility.yul\":21831:21843   */\n      add\n        /* \"#utility.yul\":21824:21843   */\n      swap1\n      pop\n        /* \"#utility.yul\":21483:21849   */\n      swap2\n      swap1\n      pop\n      jump\t// out\n        /* \"#utility.yul\":21855:22274   */\n    tag_198:\n        /* \"#utility.yul\":22021:22025   */\n      0x00\n        /* \"#utility.yul\":22059:22061   */\n      0x20\n        /* \"#utility.yul\":22048:22057   */\n      dup3\n        /* \"#utility.yul\":22044:22062   */\n      add\n        /* \"#utility.yul\":22036:22062   */\n      swap1\n      pop\n        /* \"#utility.yul\":22108:22117   */\n      dup2\n        /* \"#utility.yul\":22102:22106   */\n      dup2\n        /* \"#utility.yul\":22098:22118   */\n      sub\n        /* \"#utility.yul\":22094:22095   */\n      0x00\n        /* \"#utility.yul\":22083:22092   */\n      dup4\n        /* \"#utility.yul\":22079:22096   */\n      add\n        /* \"#utility.yul\":22072:22119   */\n      mstore\n        /* \"#utility.yul\":22136:22267   */\n      tag_541\n        /* \"#utility.yul\":22262:22266   */\n      dup2\n        /* \"#utility.yul\":22136:22267   */\n      tag_311\n      jump\t// in\n    tag_541:\n        /* \"#utility.yul\":22128:22267   */\n      swap1\n      pop\n        /* \"#utility.yul\":21855:22274   */\n      swap2\n      swap1\n      pop\n      jump\t// out\n        /* \"#utility.yul\":22280:22722   */\n    tag_204:\n        /* \"#utility.yul\":22429:22433   */\n      0x00\n        /* \"#utility.yul\":22467:22469   */\n      0x60\n        /* \"#utility.yul\":22456:22465   */\n      dup3\n        /* \"#utility.yul\":22452:22470   */\n      add\n        /* \"#utility.yul\":22444:22470   */\n      swap1\n      pop\n        /* \"#utility.yul\":22480:22551   */\n      tag_543\n        /* \"#utility.yul\":22548:22549   */\n      0x00\n        /* \"#utility.yul\":22537:22546   */\n      dup4\n        /* \"#utility.yul\":22533:22550   */\n      add\n        /* \"#utility.yul\":22524:22530   */\n      dup7\n        /* \"#utility.yul\":22480:22551   */\n      tag_279\n      jump\t// in\n    tag_543:\n        /* \"#utility.yul\":22561:22633   */\n      tag_544\n        /* \"#utility.yul\":22629:22631   */\n      0x20\n        /* \"#utility.yul\":22618:22627   */\n      dup4\n        /* \"#utility.yul\":22614:22632   */\n      add\n        /* \"#utility.yul\":22605:22611   */\n      dup6\n        /* \"#utility.yul\":22561:22633   */\n      tag_251\n      jump\t// in\n    tag_544:\n        /* \"#utility.yul\":22643:22715   */\n      tag_545\n        /* \"#utility.yul\":22711:22713   */\n      0x40\n        /* \"#utility.yul\":22700:22709   */\n      dup4\n        /* \"#utility.yul\":22696:22714   */\n      add\n        /* \"#utility.yul\":22687:22693   */\n      dup5\n        /* \"#utility.yul\":22643:22715   */\n      tag_251\n      jump\t// in\n    tag_545:\n        /* \"#utility.yul\":22280:22722   */\n      swap5\n      swap4\n      pop\n      pop\n      pop\n      pop\n      jump\t// out\n\n    auxdata: 0xa2646970667358221220b041741e2bd498332cf0d2406cc0f9ddd2ea0e14a92683e12122e8c4581f3e4464736f6c634300081e0033\n}\n",
				"bytecode": {
					"linkReferences": {},
					"object": "608060405260036006553480156013575f5ffd5b50335f5f6101000a81548173ffffffffffffffffffffffffffffffffffffffff021916908373ffffffffffffffffffffffffffffffffffffffff160217905550611f73806100605f395ff3fe608060405260043610610112575f3560e01c80636f9fb98a1161009f578063d602081111610063578063d60208111461036a578063dce8e84814610394578063ddd899a1146103d0578063e11932cf146103fa578063ff6d4f731461043657610112565b80636f9fb98a146102a657806371604909146102d05780638da5cb5b1461030c57806397dffc6114610336578063cb50bb741461034057610112565b80632e1a7d4d116100e65780632e1a7d4d146101d25780632f1158f7146101fa57806333d5281f146102365780633e86e2131461025257806365ad976e1461027c57610112565b806263750c146101165780630aff71981461012c57806311c6bf8f1461015657806326a39c0714610196575b5f5ffd5b348015610121575f5ffd5b5061012a610474565b005b348015610137575f5ffd5b506101406105eb565b60405161014d919061139f565b60405180910390f35b348015610161575f5ffd5b5061017c60048036038101906101779190611449565b610679565b60405161018d9594939291906114f7565b60405180910390f35b3480156101a1575f5ffd5b506101bc60048036038101906101b7919061154f565b61073c565b6040516101c9919061139f565b60405180910390f35b3480156101dd575f5ffd5b506101f860048036038101906101f391906115a4565b610751565b005b348015610205575f5ffd5b50610220600480360381019061021b919061154f565b6108d2565b60405161022d91906115e9565b60405180910390f35b610250600480360381019061024b9190611602565b6108ef565b005b34801561025d575f5ffd5b50610266610c1a565b60405161027391906116f7565b60405180910390f35b348015610287575f5ffd5b50610290610ca5565b60405161029d919061139f565b60405180910390f35b3480156102b1575f5ffd5b506102ba610cab565b6040516102c7919061139f565b60405180910390f35b3480156102db575f5ffd5b506102f660048036038101906102f1919061154f565b610cb2565b6040516103039190611726565b60405180910390f35b348015610317575f5ffd5b50610320610cc7565b60405161032d919061174e565b60405180910390f35b61033e610ceb565b005b34801561034b575f5ffd5b50610354610eb9565b604051610361919061139f565b60405180910390f35b348015610375575f5ffd5b5061037e610ebf565b60405161038b91906116f7565b60405180910390f35b34801561039f575f5ffd5b506103ba60048036038101906103b5919061154f565b610f4a565b6040516103c7919061139f565b60405180910390f35b3480156103db575f5ffd5b506103e4610f5f565b6040516103f1919061139f565b60405180910390f35b348015610405575f5ffd5b50610420600480360381019061041b919061154f565b610f65565b60405161042d919061139f565b60405180910390f35b348015610441575f5ffd5b5061045c60048036038101906104579190611767565b611134565b60405161046b939291906117a5565b60405180910390f35b5f3373ffffffffffffffffffffffffffffffffffffffff1661049533610f65565b6040516104a190611807565b5f6040518083038185875af1925050503d805f81146104db576040519150601f19603f3d011682016040523d82523d5f602084013e6104e0565b606091505b5050905080610524576040517f08c379a000000000000000000000000000000000000000000000000000000000815260040161051b90611865565b60405180910390fd5b5f5f90505b8060095f3373ffffffffffffffffffffffffffffffffffffffff1673ffffffffffffffffffffffffffffffffffffffff1681526020019081526020015f208054905011156105e7574260095f3373ffffffffffffffffffffffffffffffffffffffff1673ffffffffffffffffffffffffffffffffffffffff1681526020019081526020015f2082815481106105c1576105c0611883565b5b905f5260205f2090600302016001018190555080806105df906118dd565b915050610529565b5050565b5f6105f533610f65565b600a5f3373ffffffffffffffffffffffffffffffffffffffff1673ffffffffffffffffffffffffffffffffffffffff1681526020019081526020015f2081905550600a5f3373ffffffffffffffffffffffffffffffffffffffff1673ffffffffffffffffffffffffffffffffffffffff1681526020019081526020015f2054905090565b6007602052815f5260405f20602052805f5260405f205f9150915050805f0180546106a390611951565b80601f01602080910402602001604051908101604052809291908181526020018280546106cf90611951565b801561071a5780601f106106f15761010080835404028352916020019161071a565b820191905f5260205f20905b8154815290600101906020018083116106fd57829003601f168201915b5050505050908060010154908060020154908060030154908060040154905085565b600a602052805f5260405f205f915090505481565b8080600b5f3373ffffffffffffffffffffffffffffffffffffffff1673ffffffffffffffffffffffffffffffffffffffff1681526020019081526020015f205410156107d2576040517f08c379a00000000000000000000000000000000000000000000000000000000081526004016107c9906119cb565b60405180910390fd5b81600b5f3373ffffffffffffffffffffffffffffffffffffffff1673ffffffffffffffffffffffffffffffffffffffff1681526020019081526020015f205f82825461081e91906119e9565b925050819055505f3373ffffffffffffffffffffffffffffffffffffffff168360405161084a90611807565b5f6040518083038185875af1925050503d805f8114610884576040519150601f19603f3d011682016040523d82523d5f602084013e610889565b606091505b50509050806108cd576040517f08c379a00000000000000000000000000000000000000000000000000000000081526004016108c490611865565b60405180910390fd5b505050565b600c602052805f5260405f205f915054906101000a900460ff1681565b81610104811115610935576040517f08c379a000000000000000000000000000000000000000000000000000000000815260040161092c90611a66565b60405180910390fd5b816702c68af0bb1400008111610980576040517f08c379a000000000000000000000000000000000000000000000000000000000815260040161097790611ace565b60405180910390fd5b5f60085f3373ffffffffffffffffffffffffffffffffffffffff1673ffffffffffffffffffffffffffffffffffffffff1681526020019081526020015f205f8154809291906109ce90611aec565b9190505590505f62093a80866109e49190611b33565b426109ef9190611b74565b90505f6018871015610a045760079050610a42565b60188710158015610a155750606887105b15610a235760069050610a41565b60688710158015610a3657506101048711155b15610a4057600590505b5b5b5f60648288610a519190611b33565b610a5b9190611bd4565b87610a669190611b74565b90505f3373ffffffffffffffffffffffffffffffffffffffff1688604051610a8d90611807565b5f6040518083038185875af1925050503d805f8114610ac7576040519150601f19603f3d011682016040523d82523d5f602084013e610acc565b606091505b5050905080610b10576040517f08c379a0000000000000000000000000000000000000000000000000000000008152600401610b0790611865565b60405180910390fd5b6040518060a001604052806040518060400160405280600681526020017f616374697665000000000000000000000000000000000000000000000000000081525081526020018581526020018481526020018981526020018381525060075f3373ffffffffffffffffffffffffffffffffffffffff1673ffffffffffffffffffffffffffffffffffffffff1681526020019081526020015f205f8781526020019081526020015f205f820151815f019081610bcb9190611dd1565b5060208201518160010155604082015181600201556060820151816003015560808201518160040155905050610c0360026003611174565b600280549050600481905550505050505050505050565b60606002805480602002602001604051908101604052809291908181526020018280548015610c9b57602002820191905f5260205f20905b815f9054906101000a900473ffffffffffffffffffffffffffffffffffffffff1673ffffffffffffffffffffffffffffffffffffffff1681526020019060010190808311610c52575b5050505050905090565b60065481565b5f47905090565b6008602052805f5260405f205f915090505481565b5f5f9054906101000a900473ffffffffffffffffffffffffffffffffffffffff1681565b67016345785d8a00003411610d35576040517f08c379a0000000000000000000000000000000000000000000000000000000008152600401610d2c90611eea565b60405180910390fd5b34600b5f3373ffffffffffffffffffffffffffffffffffffffff1673ffffffffffffffffffffffffffffffffffffffff1681526020019081526020015f205f828254610d819190611b74565b92505081905550610d9460036002611174565b60038054905060058190555060095f3373ffffffffffffffffffffffffffffffffffffffff1673ffffffffffffffffffffffffffffffffffffffff1681526020019081526020015f20604051806060016040528060095f3373ffffffffffffffffffffffffffffffffffffffff1673ffffffffffffffffffffffffffffffffffffffff1681526020019081526020015f2080549050815260200142815260200134815250908060018154018082558091505060019003905f5260205f2090600302015f909190919091505f820151815f0155602082015181600101556040820151816002015550507ff6285a60c92fd2767bc48a572b64940a62be26cb7c523e64bf3bd75a82062559333442604051610eaf93929190611f08565b60405180910390a1565b60055481565b60606003805480602002602001604051908101604052809291908181526020018280548015610f4057602002820191905f5260205f20905b815f9054906101000a900473ffffffffffffffffffffffffffffffffffffffff1673ffffffffffffffffffffffffffffffffffffffff1681526020019060010190808311610ef7575b5050505050905090565b600b602052805f5260405f205f915090505481565b60045481565b5f5f5f5f90505b8060095f8673ffffffffffffffffffffffffffffffffffffffff1673ffffffffffffffffffffffffffffffffffffffff1681526020019081526020015f2080549050111561112a575f60095f8673ffffffffffffffffffffffffffffffffffffffff1673ffffffffffffffffffffffffffffffffffffffff1681526020019081526020015f20828154811061100457611003611883565b5b905f5260205f2090600302016002015403156111175763bbf81e0060095f8673ffffffffffffffffffffffffffffffffffffffff1673ffffffffffffffffffffffffffffffffffffffff1681526020019081526020015f20828154811061106e5761106d611883565b5b905f5260205f2090600302016002015460065460095f8873ffffffffffffffffffffffffffffffffffffffff1673ffffffffffffffffffffffffffffffffffffffff1681526020019081526020015f2084815481106110d0576110cf611883565b5b905f5260205f20906003020160010154426110eb91906119e9565b6110f59190611b33565b6110ff9190611b33565b6111099190611bd4565b826111149190611b74565b91505b8080611122906118dd565b915050610f6c565b5080915050919050565b6009602052815f5260405f20818154811061114d575f80fd5b905f5260205f2090600302015f9150915050805f0154908060010154908060020154905083565b5f5f5f5f90505b848054905081101561120a573373ffffffffffffffffffffffffffffffffffffffff168582815481106111b1576111b0611883565b5b905f5260205f20015f9054906101000a900473ffffffffffffffffffffffffffffffffffffffff1673ffffffffffffffffffffffffffffffffffffffff16036111fd576001925061120a565b808060010191505061117b565b5081611270578333908060018154018082558091505060019003905f5260205f20015f9091909190916101000a81548173ffffffffffffffffffffffffffffffffffffffff021916908373ffffffffffffffffffffffffffffffffffffffff1602179055505b5f5f90505b8380549050811015611304573373ffffffffffffffffffffffffffffffffffffffff168482815481106112ab576112aa611883565b5b905f5260205f20015f9054906101000a900473ffffffffffffffffffffffffffffffffffffffff1673ffffffffffffffffffffffffffffffffffffffff16036112f75760019150611304565b8080600101915050611275565b505f151582151514801561131b57505f1515811515145b1561138157600133908060018154018082558091505060019003905f5260205f20015f9091909190916101000a81548173ffffffffffffffffffffffffffffffffffffffff021916908373ffffffffffffffffffffffffffffffffffffffff1602179055505b50505050565b5f819050919050565b61139981611387565b82525050565b5f6020820190506113b25f830184611390565b92915050565b5f5ffd5b5f73ffffffffffffffffffffffffffffffffffffffff82169050919050565b5f6113e5826113bc565b9050919050565b6113f5816113db565b81146113ff575f5ffd5b50565b5f81359050611410816113ec565b92915050565b5f819050919050565b61142881611416565b8114611432575f5ffd5b50565b5f813590506114438161141f565b92915050565b5f5f6040838503121561145f5761145e6113b8565b5b5f61146c85828601611402565b925050602061147d85828601611435565b9150509250929050565b5f81519050919050565b5f82825260208201905092915050565b8281835e5f83830152505050565b5f601f19601f8301169050919050565b5f6114c982611487565b6114d38185611491565b93506114e38185602086016114a1565b6114ec816114af565b840191505092915050565b5f60a0820190508181035f83015261150f81886114bf565b905061151e6020830187611390565b61152b6040830186611390565b6115386060830185611390565b6115456080830184611390565b9695505050505050565b5f60208284031215611564576115636113b8565b5b5f61157184828501611402565b91505092915050565b61158381611387565b811461158d575f5ffd5b50565b5f8135905061159e8161157a565b92915050565b5f602082840312156115b9576115b86113b8565b5b5f6115c684828501611590565b91505092915050565b5f8115159050919050565b6115e3816115cf565b82525050565b5f6020820190506115fc5f8301846115da565b92915050565b5f5f60408385031215611618576116176113b8565b5b5f61162585828601611590565b925050602061163685828601611590565b9150509250929050565b5f81519050919050565b5f82825260208201905092915050565b5f819050602082019050919050565b611672816113db565b82525050565b5f6116838383611669565b60208301905092915050565b5f602082019050919050565b5f6116a582611640565b6116af818561164a565b93506116ba8361165a565b805f5b838110156116ea5781516116d18882611678565b97506116dc8361168f565b9250506001810190506116bd565b5085935050505092915050565b5f6020820190508181035f83015261170f818461169b565b905092915050565b61172081611416565b82525050565b5f6020820190506117395f830184611717565b92915050565b611748816113db565b82525050565b5f6020820190506117615f83018461173f565b92915050565b5f5f6040838503121561177d5761177c6113b8565b5b5f61178a85828601611402565b925050602061179b85828601611590565b9150509250929050565b5f6060820190506117b85f830186611717565b6117c56020830185611390565b6117d26040830184611390565b949350505050565b5f81905092915050565b50565b5f6117f25f836117da565b91506117fd826117e4565b5f82019050919050565b5f611811826117e7565b9150819050919050565b7f5472616e73616374696f6e206661696c656400000000000000000000000000005f82015250565b5f61184f601283611491565b915061185a8261181b565b602082019050919050565b5f6020820190508181035f83015261187c81611843565b9050919050565b7f4e487b71000000000000000000000000000000000000000000000000000000005f52603260045260245ffd5b7f4e487b71000000000000000000000000000000000000000000000000000000005f52601160045260245ffd5b5f6118e782611387565b91507fffffffffffffffffffffffffffffffffffffffffffffffffffffffffffffffff8203611919576119186118b0565b5b600182019050919050565b7f4e487b71000000000000000000000000000000000000000000000000000000005f52602260045260245ffd5b5f600282049050600182168061196857607f821691505b60208210810361197b5761197a611924565b5b50919050565b7f4578636564656564206d6178696d756d207769746864726177000000000000005f82015250565b5f6119b5601983611491565b91506119c082611981565b602082019050919050565b5f6020820190508181035f8301526119e2816119a9565b9050919050565b5f6119f382611387565b91506119fe83611387565b9250828203905081811115611a1657611a156118b0565b5b92915050565b7f496e76616c6964207765656b206e756d626572000000000000000000000000005f82015250565b5f611a50601383611491565b9150611a5b82611a1c565b602082019050919050565b5f6020820190508181035f830152611a7d81611a44565b9050919050565b7f4d696e6d756d20626f72726f7720697320302e322045746800000000000000005f82015250565b5f611ab8601883611491565b9150611ac382611a84565b602082019050919050565b5f6020820190508181035f830152611ae581611aac565b9050919050565b5f611af682611416565b91507f7fffffffffffffffffffffffffffffffffffffffffffffffffffffffffffffff8203611b2857611b276118b0565b5b600182019050919050565b5f611b3d82611387565b9150611b4883611387565b9250828202611b5681611387565b91508282048414831517611b6d57611b6c6118b0565b5b5092915050565b5f611b7e82611387565b9150611b8983611387565b9250828201905080821115611ba157611ba06118b0565b5b92915050565b7f4e487b71000000000000000000000000000000000000000000000000000000005f52601260045260245ffd5b5f611bde82611387565b9150611be983611387565b925082611bf957611bf8611ba7565b5b828204905092915050565b7f4e487b71000000000000000000000000000000000000000000000000000000005f52604160045260245ffd5b5f819050815f5260205f209050919050565b5f6020601f8301049050919050565b5f82821b905092915050565b5f60088302611c8d7fffffffffffffffffffffffffffffffffffffffffffffffffffffffffffffffff82611c52565b611c978683611c52565b95508019841693508086168417925050509392505050565b5f819050919050565b5f611cd2611ccd611cc884611387565b611caf565b611387565b9050919050565b5f819050919050565b611ceb83611cb8565b611cff611cf782611cd9565b848454611c5e565b825550505050565b5f5f905090565b611d16611d07565b611d21818484611ce2565b505050565b5b81811015611d4457611d395f82611d0e565b600181019050611d27565b5050565b601f821115611d8957611d5a81611c31565b611d6384611c43565b81016020851015611d72578190505b611d86611d7e85611c43565b830182611d26565b50505b505050565b5f82821c905092915050565b5f611da95f1984600802611d8e565b1980831691505092915050565b5f611dc18383611d9a565b9150826002028217905092915050565b611dda82611487565b67ffffffffffffffff811115611df357611df2611c04565b5b611dfd8254611951565b611e08828285611d48565b5f60209050601f831160018114611e39575f8415611e27578287015190505b611e318582611db6565b865550611e98565b601f198416611e4786611c31565b5f5b82811015611e6e57848901518255600182019150602085019450602081019050611e49565b86831015611e8b5784890151611e87601f891682611d9a565b8355505b6001600288020188555050505b505050505050565b7f4d696e6d756d20626f72726f7720697320302e312045746800000000000000005f82015250565b5f611ed4601883611491565b9150611edf82611ea0565b602082019050919050565b5f6020820190508181035f830152611f0181611ec8565b9050919050565b5f606082019050611f1b5f83018661173f565b611f286020830185611390565b611f356040830184611390565b94935050505056fea2646970667358221220b041741e2bd498332cf0d2406cc0f9ddd2ea0e14a92683e12122e8c4581f3e4464736f6c634300081e0033",
					"opcodes": "PUSH1 0x80 PUSH1 0x40 MSTORE PUSH1 0x3 PUSH1 0x6 SSTORE CALLVALUE DUP1 ISZERO PUSH1 0x13 JUMPI PUSH0 PUSH0 REVERT JUMPDEST POP CALLER PUSH0 PUSH0 PUSH2 0x100 EXP DUP2 SLOAD DUP2 PUSH20 0xFFFFFFFFFFFFFFFFFFFFFFFFFFFFFFFFFFFFFFFF MUL NOT AND SWAP1 DUP4 PUSH20 0xFFFFFFFFFFFFFFFFFFFFFFFFFFFFFFFFFFFFFFFF AND MUL OR SWAP1 SSTORE POP PUSH2 0x1F73 DUP1 PUSH2 0x60 PUSH0 CODECOPY PUSH0 RETURN INVALID PUSH1 0x80 PUSH1 0x40 MSTORE PUSH1 0x4 CALLDATASIZE LT PUSH2 0x112 JUMPI PUSH0 CALLDATALOAD PUSH1 0xE0 SHR DUP1 PUSH4 0x6F9FB98A GT PUSH2 0x9F JUMPI DUP1 PUSH4 0xD6020811 GT PUSH2 0x63 JUMPI DUP1 PUSH4 0xD6020811 EQ PUSH2 0x36A JUMPI DUP1 PUSH4 0xDCE8E848 EQ PUSH2 0x394 JUMPI DUP1 PUSH4 0xDDD899A1 EQ PUSH2 0x3D0 JUMPI DUP1 PUSH4 0xE11932CF EQ PUSH2 0x3FA JUMPI DUP1 PUSH4 0xFF6D4F73 EQ PUSH2 0x436 JUMPI PUSH2 0x112 JUMP JUMPDEST DUP1 PUSH4 0x6F9FB98A EQ PUSH2 0x2A6 JUMPI DUP1 PUSH4 0x71604909 EQ PUSH2 0x2D0 JUMPI DUP1 PUSH4 0x8DA5CB5B EQ PUSH2 0x30C JUMPI DUP1 PUSH4 0x97DFFC61 EQ PUSH2 0x336 JUMPI DUP1 PUSH4 0xCB50BB74 EQ PUSH2 0x340 JUMPI PUSH2 0x112 JUMP JUMPDEST DUP1 PUSH4 0x2E1A7D4D GT PUSH2 0xE6 JUMPI DUP1 PUSH4 0x2E1A7D4D EQ PUSH2 0x1D2 JUMPI DUP1 PUSH4 0x2F1158F7 EQ PUSH2 0x1FA JUMPI DUP1 PUSH4 0x33D5281F EQ PUSH2 0x236 JUMPI DUP1 PUSH4 0x3E86E213 EQ PUSH2 0x252 JUMPI DUP1 PUSH4 0x65AD976E EQ PUSH2 0x27C JUMPI PUSH2 0x112 JUMP JUMPDEST DUP1 PUSH3 0x63750C EQ PUSH2 0x116 JUMPI DUP1 PUSH4 0xAFF7198 EQ PUSH2 0x12C JUMPI DUP1 PUSH4 0x11C6BF8F EQ PUSH2 0x156 JUMPI DUP1 PUSH4 0x26A39C07 EQ PUSH2 0x196 JUMPI JUMPDEST PUSH0 PUSH0 REVERT JUMPDEST CALLVALUE DUP1 ISZERO PUSH2 0x121 JUMPI PUSH0 PUSH0 REVERT JUMPDEST POP PUSH2 0x12A PUSH2 0x474 JUMP JUMPDEST STOP JUMPDEST CALLVALUE DUP1 ISZERO PUSH2 0x137 JUMPI PUSH0 PUSH0 REVERT JUMPDEST POP PUSH2 0x140 PUSH2 0x5EB JUMP JUMPDEST PUSH1 0x40 MLOAD PUSH2 0x14D SWAP2 SWAP1 PUSH2 0x139F JUMP JUMPDEST PUSH1 0x40 MLOAD DUP1 SWAP2 SUB SWAP1 RETURN JUMPDEST CALLVALUE DUP1 ISZERO PUSH2 0x161 JUMPI PUSH0 PUSH0 REVERT JUMPDEST POP PUSH2 0x17C PUSH1 0x4 DUP1 CALLDATASIZE SUB DUP2 ADD SWAP1 PUSH2 0x177 SWAP2 SWAP1 PUSH2 0x1449 JUMP JUMPDEST PUSH2 0x679 JUMP JUMPDEST PUSH1 0x40 MLOAD PUSH2 0x18D SWAP6 SWAP5 SWAP4 SWAP3 SWAP2 SWAP1 PUSH2 0x14F7 JUMP JUMPDEST PUSH1 0x40 MLOAD DUP1 SWAP2 SUB SWAP1 RETURN JUMPDEST CALLVALUE DUP1 ISZERO PUSH2 0x1A1 JUMPI PUSH0 PUSH0 REVERT JUMPDEST POP PUSH2 0x1BC PUSH1 0x4 DUP1 CALLDATASIZE SUB DUP2 ADD SWAP1 PUSH2 0x1B7 SWAP2 SWAP1 PUSH2 0x154F JUMP JUMPDEST PUSH2 0x73C JUMP JUMPDEST PUSH1 0x40 MLOAD PUSH2 0x1C9 SWAP2 SWAP1 PUSH2 0x139F JUMP JUMPDEST PUSH1 0x40 MLOAD DUP1 SWAP2 SUB SWAP1 RETURN JUMPDEST CALLVALUE DUP1 ISZERO PUSH2 0x1DD JUMPI PUSH0 PUSH0 REVERT JUMPDEST POP PUSH2 0x1F8 PUSH1 0x4 DUP1 CALLDATASIZE SUB DUP2 ADD SWAP1 PUSH2 0x1F3 SWAP2 SWAP1 PUSH2 0x15A4 JUMP JUMPDEST PUSH2 0x751 JUMP JUMPDEST STOP JUMPDEST CALLVALUE DUP1 ISZERO PUSH2 0x205 JUMPI PUSH0 PUSH0 REVERT JUMPDEST POP PUSH2 0x220 PUSH1 0x4 DUP1 CALLDATASIZE SUB DUP2 ADD SWAP1 PUSH2 0x21B SWAP2 SWAP1 PUSH2 0x154F JUMP JUMPDEST PUSH2 0x8D2 JUMP JUMPDEST PUSH1 0x40 MLOAD PUSH2 0x22D SWAP2 SWAP1 PUSH2 0x15E9 JUMP JUMPDEST PUSH1 0x40 MLOAD DUP1 SWAP2 SUB SWAP1 RETURN JUMPDEST PUSH2 0x250 PUSH1 0x4 DUP1 CALLDATASIZE SUB DUP2 ADD SWAP1 PUSH2 0x24B SWAP2 SWAP1 PUSH2 0x1602 JUMP JUMPDEST PUSH2 0x8EF JUMP JUMPDEST STOP JUMPDEST CALLVALUE DUP1 ISZERO PUSH2 0x25D JUMPI PUSH0 PUSH0 REVERT JUMPDEST POP PUSH2 0x266 PUSH2 0xC1A JUMP JUMPDEST PUSH1 0x40 MLOAD PUSH2 0x273 SWAP2 SWAP1 PUSH2 0x16F7 JUMP JUMPDEST PUSH1 0x40 MLOAD DUP1 SWAP2 SUB SWAP1 RETURN JUMPDEST CALLVALUE DUP1 ISZERO PUSH2 0x287 JUMPI PUSH0 PUSH0 REVERT JUMPDEST POP PUSH2 0x290 PUSH2 0xCA5 JUMP JUMPDEST PUSH1 0x40 MLOAD PUSH2 0x29D SWAP2 SWAP1 PUSH2 0x139F JUMP JUMPDEST PUSH1 0x40 MLOAD DUP1 SWAP2 SUB SWAP1 RETURN JUMPDEST CALLVALUE DUP1 ISZERO PUSH2 0x2B1 JUMPI PUSH0 PUSH0 REVERT JUMPDEST POP PUSH2 0x2BA PUSH2 0xCAB JUMP JUMPDEST PUSH1 0x40 MLOAD PUSH2 0x2C7 SWAP2 SWAP1 PUSH2 0x139F JUMP JUMPDEST PUSH1 0x40 MLOAD DUP1 SWAP2 SUB SWAP1 RETURN JUMPDEST CALLVALUE DUP1 ISZERO PUSH2 0x2DB JUMPI PUSH0 PUSH0 REVERT JUMPDEST POP PUSH2 0x2F6 PUSH1 0x4 DUP1 CALLDATASIZE SUB DUP2 ADD SWAP1 PUSH2 0x2F1 SWAP2 SWAP1 PUSH2 0x154F JUMP JUMPDEST PUSH2 0xCB2 JUMP JUMPDEST PUSH1 0x40 MLOAD PUSH2 0x303 SWAP2 SWAP1 PUSH2 0x1726 JUMP JUMPDEST PUSH1 0x40 MLOAD DUP1 SWAP2 SUB SWAP1 RETURN JUMPDEST CALLVALUE DUP1 ISZERO PUSH2 0x317 JUMPI PUSH0 PUSH0 REVERT JUMPDEST POP PUSH2 0x320 PUSH2 0xCC7 JUMP JUMPDEST PUSH1 0x40 MLOAD PUSH2 0x32D SWAP2 SWAP1 PUSH2 0x174E JUMP JUMPDEST PUSH1 0x40 MLOAD DUP1 SWAP2 SUB SWAP1 RETURN JUMPDEST PUSH2 0x33E PUSH2 0xCEB JUMP JUMPDEST STOP JUMPDEST CALLVALUE DUP1 ISZERO PUSH2 0x34B JUMPI PUSH0 PUSH0 REVERT JUMPDEST POP PUSH2 0x354 PUSH2 0xEB9 JUMP JUMPDEST PUSH1 0x40 MLOAD PUSH2 0x361 SWAP2 SWAP1 PUSH2 0x139F JUMP JUMPDEST PUSH1 0x40 MLOAD DUP1 SWAP2 SUB SWAP1 RETURN JUMPDEST CALLVALUE DUP1 ISZERO PUSH2 0x375 JUMPI PUSH0 PUSH0 REVERT JUMPDEST POP PUSH2 0x37E PUSH2 0xEBF JUMP JUMPDEST PUSH1 0x40 MLOAD PUSH2 0x38B SWAP2 SWAP1 PUSH2 0x16F7 JUMP JUMPDEST PUSH1 0x40 MLOAD DUP1 SWAP2 SUB SWAP1 RETURN JUMPDEST CALLVALUE DUP1 ISZERO PUSH2 0x39F JUMPI PUSH0 PUSH0 REVERT JUMPDEST POP PUSH2 0x3BA PUSH1 0x4 DUP1 CALLDATASIZE SUB DUP2 ADD SWAP1 PUSH2 0x3B5 SWAP2 SWAP1 PUSH2 0x154F JUMP JUMPDEST PUSH2 0xF4A JUMP JUMPDEST PUSH1 0x40 MLOAD PUSH2 0x3C7 SWAP2 SWAP1 PUSH2 0x139F JUMP JUMPDEST PUSH1 0x40 MLOAD DUP1 SWAP2 SUB SWAP1 RETURN JUMPDEST CALLVALUE DUP1 ISZERO PUSH2 0x3DB JUMPI PUSH0 PUSH0 REVERT JUMPDEST POP PUSH2 0x3E4 PUSH2 0xF5F JUMP JUMPDEST PUSH1 0x40 MLOAD PUSH2 0x3F1 SWAP2 SWAP1 PUSH2 0x139F JUMP JUMPDEST PUSH1 0x40 MLOAD DUP1 SWAP2 SUB SWAP1 RETURN JUMPDEST CALLVALUE DUP1 ISZERO PUSH2 0x405 JUMPI PUSH0 PUSH0 REVERT JUMPDEST POP PUSH2 0x420 PUSH1 0x4 DUP1 CALLDATASIZE SUB DUP2 ADD SWAP1 PUSH2 0x41B SWAP2 SWAP1 PUSH2 0x154F JUMP JUMPDEST PUSH2 0xF65 JUMP JUMPDEST PUSH1 0x40 MLOAD PUSH2 0x42D SWAP2 SWAP1 PUSH2 0x139F JUMP JUMPDEST PUSH1 0x40 MLOAD DUP1 SWAP2 SUB SWAP1 RETURN JUMPDEST CALLVALUE DUP1 ISZERO PUSH2 0x441 JUMPI PUSH0 PUSH0 REVERT JUMPDEST POP PUSH2 0x45C PUSH1 0x4 DUP1 CALLDATASIZE SUB DUP2 ADD SWAP1 PUSH2 0x457 SWAP2 SWAP1 PUSH2 0x1767 JUMP JUMPDEST PUSH2 0x1134 JUMP JUMPDEST PUSH1 0x40 MLOAD PUSH2 0x46B SWAP4 SWAP3 SWAP2 SWAP1 PUSH2 0x17A5 JUMP JUMPDEST PUSH1 0x40 MLOAD DUP1 SWAP2 SUB SWAP1 RETURN JUMPDEST PUSH0 CALLER PUSH20 0xFFFFFFFFFFFFFFFFFFFFFFFFFFFFFFFFFFFFFFFF AND PUSH2 0x495 CALLER PUSH2 0xF65 JUMP JUMPDEST PUSH1 0x40 MLOAD PUSH2 0x4A1 SWAP1 PUSH2 0x1807 JUMP JUMPDEST PUSH0 PUSH1 0x40 MLOAD DUP1 DUP4 SUB DUP2 DUP6 DUP8 GAS CALL SWAP3 POP POP POP RETURNDATASIZE DUP1 PUSH0 DUP2 EQ PUSH2 0x4DB JUMPI PUSH1 0x40 MLOAD SWAP2 POP PUSH1 0x1F NOT PUSH1 0x3F RETURNDATASIZE ADD AND DUP3 ADD PUSH1 0x40 MSTORE RETURNDATASIZE DUP3 MSTORE RETURNDATASIZE PUSH0 PUSH1 0x20 DUP5 ADD RETURNDATACOPY PUSH2 0x4E0 JUMP JUMPDEST PUSH1 0x60 SWAP2 POP JUMPDEST POP POP SWAP1 POP DUP1 PUSH2 0x524 JUMPI PUSH1 0x40 MLOAD PUSH32 0x8C379A000000000000000000000000000000000000000000000000000000000 DUP2 MSTORE PUSH1 0x4 ADD PUSH2 0x51B SWAP1 PUSH2 0x1865 JUMP JUMPDEST PUSH1 0x40 MLOAD DUP1 SWAP2 SUB SWAP1 REVERT JUMPDEST PUSH0 PUSH0 SWAP1 POP JUMPDEST DUP1 PUSH1 0x9 PUSH0 CALLER PUSH20 0xFFFFFFFFFFFFFFFFFFFFFFFFFFFFFFFFFFFFFFFF AND PUSH20 0xFFFFFFFFFFFFFFFFFFFFFFFFFFFFFFFFFFFFFFFF AND DUP2 MSTORE PUSH1 0x20 ADD SWAP1 DUP2 MSTORE PUSH1 0x20 ADD PUSH0 KECCAK256 DUP1 SLOAD SWAP1 POP GT ISZERO PUSH2 0x5E7 JUMPI TIMESTAMP PUSH1 0x9 PUSH0 CALLER PUSH20 0xFFFFFFFFFFFFFFFFFFFFFFFFFFFFFFFFFFFFFFFF AND PUSH20 0xFFFFFFFFFFFFFFFFFFFFFFFFFFFFFFFFFFFFFFFF AND DUP2 MSTORE PUSH1 0x20 ADD SWAP1 DUP2 MSTORE PUSH1 0x20 ADD PUSH0 KECCAK256 DUP3 DUP2 SLOAD DUP2 LT PUSH2 0x5C1 JUMPI PUSH2 0x5C0 PUSH2 0x1883 JUMP JUMPDEST JUMPDEST SWAP1 PUSH0 MSTORE PUSH1 0x20 PUSH0 KECCAK256 SWAP1 PUSH1 0x3 MUL ADD PUSH1 0x1 ADD DUP2 SWAP1 SSTORE POP DUP1 DUP1 PUSH2 0x5DF SWAP1 PUSH2 0x18DD JUMP JUMPDEST SWAP2 POP POP PUSH2 0x529 JUMP JUMPDEST POP POP JUMP JUMPDEST PUSH0 PUSH2 0x5F5 CALLER PUSH2 0xF65 JUMP JUMPDEST PUSH1 0xA PUSH0 CALLER PUSH20 0xFFFFFFFFFFFFFFFFFFFFFFFFFFFFFFFFFFFFFFFF AND PUSH20 0xFFFFFFFFFFFFFFFFFFFFFFFFFFFFFFFFFFFFFFFF AND DUP2 MSTORE PUSH1 0x20 ADD SWAP1 DUP2 MSTORE PUSH1 0x20 ADD PUSH0 KECCAK256 DUP2 SWAP1 SSTORE POP PUSH1 0xA PUSH0 CALLER PUSH20 0xFFFFFFFFFFFFFFFFFFFFFFFFFFFFFFFFFFFFFFFF AND PUSH20 0xFFFFFFFFFFFFFFFFFFFFFFFFFFFFFFFFFFFFFFFF AND DUP2 MSTORE PUSH1 0x20 ADD SWAP1 DUP2 MSTORE PUSH1 0x20 ADD PUSH0 KECCAK256 SLOAD SWAP1 POP SWAP1 JUMP JUMPDEST PUSH1 0x7 PUSH1 0x20 MSTORE DUP2 PUSH0 MSTORE PUSH1 0x40 PUSH0 KECCAK256 PUSH1 0x20 MSTORE DUP1 PUSH0 MSTORE PUSH1 0x40 PUSH0 KECCAK256 PUSH0 SWAP2 POP SWAP2 POP POP DUP1 PUSH0 ADD DUP1 SLOAD PUSH2 0x6A3 SWAP1 PUSH2 0x1951 JUMP JUMPDEST DUP1 PUSH1 0x1F ADD PUSH1 0x20 DUP1 SWAP2 DIV MUL PUSH1 0x20 ADD PUSH1 0x40 MLOAD SWAP1 DUP2 ADD PUSH1 0x40 MSTORE DUP1 SWAP3 SWAP2 SWAP1 DUP2 DUP2 MSTORE PUSH1 0x20 ADD DUP3 DUP1 SLOAD PUSH2 0x6CF SWAP1 PUSH2 0x1951 JUMP JUMPDEST DUP1 ISZERO PUSH2 0x71A JUMPI DUP1 PUSH1 0x1F LT PUSH2 0x6F1 JUMPI PUSH2 0x100 DUP1 DUP4 SLOAD DIV MUL DUP4 MSTORE SWAP2 PUSH1 0x20 ADD SWAP2 PUSH2 0x71A JUMP JUMPDEST DUP3 ADD SWAP2 SWAP1 PUSH0 MSTORE PUSH1 0x20 PUSH0 KECCAK256 SWAP1 JUMPDEST DUP2 SLOAD DUP2 MSTORE SWAP1 PUSH1 0x1 ADD SWAP1 PUSH1 0x20 ADD DUP1 DUP4 GT PUSH2 0x6FD JUMPI DUP3 SWAP1 SUB PUSH1 0x1F AND DUP3 ADD SWAP2 JUMPDEST POP POP POP POP POP SWAP1 DUP1 PUSH1 0x1 ADD SLOAD SWAP1 DUP1 PUSH1 0x2 ADD SLOAD SWAP1 DUP1 PUSH1 0x3 ADD SLOAD SWAP1 DUP1 PUSH1 0x4 ADD SLOAD SWAP1 POP DUP6 JUMP JUMPDEST PUSH1 0xA PUSH1 0x20 MSTORE DUP1 PUSH0 MSTORE PUSH1 0x40 PUSH0 KECCAK256 PUSH0 SWAP2 POP SWAP1 POP SLOAD DUP2 JUMP JUMPDEST DUP1 DUP1 PUSH1 0xB PUSH0 CALLER PUSH20 0xFFFFFFFFFFFFFFFFFFFFFFFFFFFFFFFFFFFFFFFF AND PUSH20 0xFFFFFFFFFFFFFFFFFFFFFFFFFFFFFFFFFFFFFFFF AND DUP2 MSTORE PUSH1 0x20 ADD SWAP1 DUP2 MSTORE PUSH1 0x20 ADD PUSH0 KECCAK256 SLOAD LT ISZERO PUSH2 0x7D2 JUMPI PUSH1 0x40 MLOAD PUSH32 0x8C379A000000000000000000000000000000000000000000000000000000000 DUP2 MSTORE PUSH1 0x4 ADD PUSH2 0x7C9 SWAP1 PUSH2 0x19CB JUMP JUMPDEST PUSH1 0x40 MLOAD DUP1 SWAP2 SUB SWAP1 REVERT JUMPDEST DUP2 PUSH1 0xB PUSH0 CALLER PUSH20 0xFFFFFFFFFFFFFFFFFFFFFFFFFFFFFFFFFFFFFFFF AND PUSH20 0xFFFFFFFFFFFFFFFFFFFFFFFFFFFFFFFFFFFFFFFF AND DUP2 MSTORE PUSH1 0x20 ADD SWAP1 DUP2 MSTORE PUSH1 0x20 ADD PUSH0 KECCAK256 PUSH0 DUP3 DUP3 SLOAD PUSH2 0x81E SWAP2 SWAP1 PUSH2 0x19E9 JUMP JUMPDEST SWAP3 POP POP DUP2 SWAP1 SSTORE POP PUSH0 CALLER PUSH20 0xFFFFFFFFFFFFFFFFFFFFFFFFFFFFFFFFFFFFFFFF AND DUP4 PUSH1 0x40 MLOAD PUSH2 0x84A SWAP1 PUSH2 0x1807 JUMP JUMPDEST PUSH0 PUSH1 0x40 MLOAD DUP1 DUP4 SUB DUP2 DUP6 DUP8 GAS CALL SWAP3 POP POP POP RETURNDATASIZE DUP1 PUSH0 DUP2 EQ PUSH2 0x884 JUMPI PUSH1 0x40 MLOAD SWAP2 POP PUSH1 0x1F NOT PUSH1 0x3F RETURNDATASIZE ADD AND DUP3 ADD PUSH1 0x40 MSTORE RETURNDATASIZE DUP3 MSTORE RETURNDATASIZE PUSH0 PUSH1 0x20 DUP5 ADD RETURNDATACOPY PUSH2 0x889 JUMP JUMPDEST PUSH1 0x60 SWAP2 POP JUMPDEST POP POP SWAP1 POP DUP1 PUSH2 0x8CD JUMPI PUSH1 0x40 MLOAD PUSH32 0x8C379A000000000000000000000000000000000000000000000000000000000 DUP2 MSTORE PUSH1 0x4 ADD PUSH2 0x8C4 SWAP1 PUSH2 0x1865 JUMP JUMPDEST PUSH1 0x40 MLOAD DUP1 SWAP2 SUB SWAP1 REVERT JUMPDEST POP POP POP JUMP JUMPDEST PUSH1 0xC PUSH1 0x20 MSTORE DUP1 PUSH0 MSTORE PUSH1 0x40 PUSH0 KECCAK256 PUSH0 SWAP2 POP SLOAD SWAP1 PUSH2 0x100 EXP SWAP1 DIV PUSH1 0xFF AND DUP2 JUMP JUMPDEST DUP2 PUSH2 0x104 DUP2 GT ISZERO PUSH2 0x935 JUMPI PUSH1 0x40 MLOAD PUSH32 0x8C379A000000000000000000000000000000000000000000000000000000000 DUP2 MSTORE PUSH1 0x4 ADD PUSH2 0x92C SWAP1 PUSH2 0x1A66 JUMP JUMPDEST PUSH1 0x40 MLOAD DUP1 SWAP2 SUB SWAP1 REVERT JUMPDEST DUP2 PUSH8 0x2C68AF0BB140000 DUP2 GT PUSH2 0x980 JUMPI PUSH1 0x40 MLOAD PUSH32 0x8C379A000000000000000000000000000000000000000000000000000000000 DUP2 MSTORE PUSH1 0x4 ADD PUSH2 0x977 SWAP1 PUSH2 0x1ACE JUMP JUMPDEST PUSH1 0x40 MLOAD DUP1 SWAP2 SUB SWAP1 REVERT JUMPDEST PUSH0 PUSH1 0x8 PUSH0 CALLER PUSH20 0xFFFFFFFFFFFFFFFFFFFFFFFFFFFFFFFFFFFFFFFF AND PUSH20 0xFFFFFFFFFFFFFFFFFFFFFFFFFFFFFFFFFFFFFFFF AND DUP2 MSTORE PUSH1 0x20 ADD SWAP1 DUP2 MSTORE PUSH1 0x20 ADD PUSH0 KECCAK256 PUSH0 DUP2 SLOAD DUP1 SWAP3 SWAP2 SWAP1 PUSH2 0x9CE SWAP1 PUSH2 0x1AEC JUMP JUMPDEST SWAP2 SWAP1 POP SSTORE SWAP1 POP PUSH0 PUSH3 0x93A80 DUP7 PUSH2 0x9E4 SWAP2 SWAP1 PUSH2 0x1B33 JUMP JUMPDEST TIMESTAMP PUSH2 0x9EF SWAP2 SWAP1 PUSH2 0x1B74 JUMP JUMPDEST SWAP1 POP PUSH0 PUSH1 0x18 DUP8 LT ISZERO PUSH2 0xA04 JUMPI PUSH1 0x7 SWAP1 POP PUSH2 0xA42 JUMP JUMPDEST PUSH1 0x18 DUP8 LT ISZERO DUP1 ISZERO PUSH2 0xA15 JUMPI POP PUSH1 0x68 DUP8 LT JUMPDEST ISZERO PUSH2 0xA23 JUMPI PUSH1 0x6 SWAP1 POP PUSH2 0xA41 JUMP JUMPDEST PUSH1 0x68 DUP8 LT ISZERO DUP1 ISZERO PUSH2 0xA36 JUMPI POP PUSH2 0x104 DUP8 GT ISZERO JUMPDEST ISZERO PUSH2 0xA40 JUMPI PUSH1 0x5 SWAP1 POP JUMPDEST JUMPDEST JUMPDEST PUSH0 PUSH1 0x64 DUP3 DUP9 PUSH2 0xA51 SWAP2 SWAP1 PUSH2 0x1B33 JUMP JUMPDEST PUSH2 0xA5B SWAP2 SWAP1 PUSH2 0x1BD4 JUMP JUMPDEST DUP8 PUSH2 0xA66 SWAP2 SWAP1 PUSH2 0x1B74 JUMP JUMPDEST SWAP1 POP PUSH0 CALLER PUSH20 0xFFFFFFFFFFFFFFFFFFFFFFFFFFFFFFFFFFFFFFFF AND DUP9 PUSH1 0x40 MLOAD PUSH2 0xA8D SWAP1 PUSH2 0x1807 JUMP JUMPDEST PUSH0 PUSH1 0x40 MLOAD DUP1 DUP4 SUB DUP2 DUP6 DUP8 GAS CALL SWAP3 POP POP POP RETURNDATASIZE DUP1 PUSH0 DUP2 EQ PUSH2 0xAC7 JUMPI PUSH1 0x40 MLOAD SWAP2 POP PUSH1 0x1F NOT PUSH1 0x3F RETURNDATASIZE ADD AND DUP3 ADD PUSH1 0x40 MSTORE RETURNDATASIZE DUP3 MSTORE RETURNDATASIZE PUSH0 PUSH1 0x20 DUP5 ADD RETURNDATACOPY PUSH2 0xACC JUMP JUMPDEST PUSH1 0x60 SWAP2 POP JUMPDEST POP POP SWAP1 POP DUP1 PUSH2 0xB10 JUMPI PUSH1 0x40 MLOAD PUSH32 0x8C379A000000000000000000000000000000000000000000000000000000000 DUP2 MSTORE PUSH1 0x4 ADD PUSH2 0xB07 SWAP1 PUSH2 0x1865 JUMP JUMPDEST PUSH1 0x40 MLOAD DUP1 SWAP2 SUB SWAP1 REVERT JUMPDEST PUSH1 0x40 MLOAD DUP1 PUSH1 0xA0 ADD PUSH1 0x40 MSTORE DUP1 PUSH1 0x40 MLOAD DUP1 PUSH1 0x40 ADD PUSH1 0x40 MSTORE DUP1 PUSH1 0x6 DUP2 MSTORE PUSH1 0x20 ADD PUSH32 0x6163746976650000000000000000000000000000000000000000000000000000 DUP2 MSTORE POP DUP2 MSTORE PUSH1 0x20 ADD DUP6 DUP2 MSTORE PUSH1 0x20 ADD DUP5 DUP2 MSTORE PUSH1 0x20 ADD DUP10 DUP2 MSTORE PUSH1 0x20 ADD DUP4 DUP2 MSTORE POP PUSH1 0x7 PUSH0 CALLER PUSH20 0xFFFFFFFFFFFFFFFFFFFFFFFFFFFFFFFFFFFFFFFF AND PUSH20 0xFFFFFFFFFFFFFFFFFFFFFFFFFFFFFFFFFFFFFFFF AND DUP2 MSTORE PUSH1 0x20 ADD SWAP1 DUP2 MSTORE PUSH1 0x20 ADD PUSH0 KECCAK256 PUSH0 DUP8 DUP2 MSTORE PUSH1 0x20 ADD SWAP1 DUP2 MSTORE PUSH1 0x20 ADD PUSH0 KECCAK256 PUSH0 DUP3 ADD MLOAD DUP2 PUSH0 ADD SWAP1 DUP2 PUSH2 0xBCB SWAP2 SWAP1 PUSH2 0x1DD1 JUMP JUMPDEST POP PUSH1 0x20 DUP3 ADD MLOAD DUP2 PUSH1 0x1 ADD SSTORE PUSH1 0x40 DUP3 ADD MLOAD DUP2 PUSH1 0x2 ADD SSTORE PUSH1 0x60 DUP3 ADD MLOAD DUP2 PUSH1 0x3 ADD SSTORE PUSH1 0x80 DUP3 ADD MLOAD DUP2 PUSH1 0x4 ADD SSTORE SWAP1 POP POP PUSH2 0xC03 PUSH1 0x2 PUSH1 0x3 PUSH2 0x1174 JUMP JUMPDEST PUSH1 0x2 DUP1 SLOAD SWAP1 POP PUSH1 0x4 DUP2 SWAP1 SSTORE POP POP POP POP POP POP POP POP POP POP JUMP JUMPDEST PUSH1 0x60 PUSH1 0x2 DUP1 SLOAD DUP1 PUSH1 0x20 MUL PUSH1 0x20 ADD PUSH1 0x40 MLOAD SWAP1 DUP2 ADD PUSH1 0x40 MSTORE DUP1 SWAP3 SWAP2 SWAP1 DUP2 DUP2 MSTORE PUSH1 0x20 ADD DUP3 DUP1 SLOAD DUP1 ISZERO PUSH2 0xC9B JUMPI PUSH1 0x20 MUL DUP3 ADD SWAP2 SWAP1 PUSH0 MSTORE PUSH1 0x20 PUSH0 KECCAK256 SWAP1 JUMPDEST DUP2 PUSH0 SWAP1 SLOAD SWAP1 PUSH2 0x100 EXP SWAP1 DIV PUSH20 0xFFFFFFFFFFFFFFFFFFFFFFFFFFFFFFFFFFFFFFFF AND PUSH20 0xFFFFFFFFFFFFFFFFFFFFFFFFFFFFFFFFFFFFFFFF AND DUP2 MSTORE PUSH1 0x20 ADD SWAP1 PUSH1 0x1 ADD SWAP1 DUP1 DUP4 GT PUSH2 0xC52 JUMPI JUMPDEST POP POP POP POP POP SWAP1 POP SWAP1 JUMP JUMPDEST PUSH1 0x6 SLOAD DUP2 JUMP JUMPDEST PUSH0 SELFBALANCE SWAP1 POP SWAP1 JUMP JUMPDEST PUSH1 0x8 PUSH1 0x20 MSTORE DUP1 PUSH0 MSTORE PUSH1 0x40 PUSH0 KECCAK256 PUSH0 SWAP2 POP SWAP1 POP SLOAD DUP2 JUMP JUMPDEST PUSH0 PUSH0 SWAP1 SLOAD SWAP1 PUSH2 0x100 EXP SWAP1 DIV PUSH20 0xFFFFFFFFFFFFFFFFFFFFFFFFFFFFFFFFFFFFFFFF AND DUP2 JUMP JUMPDEST PUSH8 0x16345785D8A0000 CALLVALUE GT PUSH2 0xD35 JUMPI PUSH1 0x40 MLOAD PUSH32 0x8C379A000000000000000000000000000000000000000000000000000000000 DUP2 MSTORE PUSH1 0x4 ADD PUSH2 0xD2C SWAP1 PUSH2 0x1EEA JUMP JUMPDEST PUSH1 0x40 MLOAD DUP1 SWAP2 SUB SWAP1 REVERT JUMPDEST CALLVALUE PUSH1 0xB PUSH0 CALLER PUSH20 0xFFFFFFFFFFFFFFFFFFFFFFFFFFFFFFFFFFFFFFFF AND PUSH20 0xFFFFFFFFFFFFFFFFFFFFFFFFFFFFFFFFFFFFFFFF AND DUP2 MSTORE PUSH1 0x20 ADD SWAP1 DUP2 MSTORE PUSH1 0x20 ADD PUSH0 KECCAK256 PUSH0 DUP3 DUP3 SLOAD PUSH2 0xD81 SWAP2 SWAP1 PUSH2 0x1B74 JUMP JUMPDEST SWAP3 POP POP DUP2 SWAP1 SSTORE POP PUSH2 0xD94 PUSH1 0x3 PUSH1 0x2 PUSH2 0x1174 JUMP JUMPDEST PUSH1 0x3 DUP1 SLOAD SWAP1 POP PUSH1 0x5 DUP2 SWAP1 SSTORE POP PUSH1 0x9 PUSH0 CALLER PUSH20 0xFFFFFFFFFFFFFFFFFFFFFFFFFFFFFFFFFFFFFFFF AND PUSH20 0xFFFFFFFFFFFFFFFFFFFFFFFFFFFFFFFFFFFFFFFF AND DUP2 MSTORE PUSH1 0x20 ADD SWAP1 DUP2 MSTORE PUSH1 0x20 ADD PUSH0 KECCAK256 PUSH1 0x40 MLOAD DUP1 PUSH1 0x60 ADD PUSH1 0x40 MSTORE DUP1 PUSH1 0x9 PUSH0 CALLER PUSH20 0xFFFFFFFFFFFFFFFFFFFFFFFFFFFFFFFFFFFFFFFF AND PUSH20 0xFFFFFFFFFFFFFFFFFFFFFFFFFFFFFFFFFFFFFFFF AND DUP2 MSTORE PUSH1 0x20 ADD SWAP1 DUP2 MSTORE PUSH1 0x20 ADD PUSH0 KECCAK256 DUP1 SLOAD SWAP1 POP DUP2 MSTORE PUSH1 0x20 ADD TIMESTAMP DUP2 MSTORE PUSH1 0x20 ADD CALLVALUE DUP2 MSTORE POP SWAP1 DUP1 PUSH1 0x1 DUP2 SLOAD ADD DUP1 DUP3 SSTORE DUP1 SWAP2 POP POP PUSH1 0x1 SWAP1 SUB SWAP1 PUSH0 MSTORE PUSH1 0x20 PUSH0 KECCAK256 SWAP1 PUSH1 0x3 MUL ADD PUSH0 SWAP1 SWAP2 SWAP1 SWAP2 SWAP1 SWAP2 POP PUSH0 DUP3 ADD MLOAD DUP2 PUSH0 ADD SSTORE PUSH1 0x20 DUP3 ADD MLOAD DUP2 PUSH1 0x1 ADD SSTORE PUSH1 0x40 DUP3 ADD MLOAD DUP2 PUSH1 0x2 ADD SSTORE POP POP PUSH32 0xF6285A60C92FD2767BC48A572B64940A62BE26CB7C523E64BF3BD75A82062559 CALLER CALLVALUE TIMESTAMP PUSH1 0x40 MLOAD PUSH2 0xEAF SWAP4 SWAP3 SWAP2 SWAP1 PUSH2 0x1F08 JUMP JUMPDEST PUSH1 0x40 MLOAD DUP1 SWAP2 SUB SWAP1 LOG1 JUMP JUMPDEST PUSH1 0x5 SLOAD DUP2 JUMP JUMPDEST PUSH1 0x60 PUSH1 0x3 DUP1 SLOAD DUP1 PUSH1 0x20 MUL PUSH1 0x20 ADD PUSH1 0x40 MLOAD SWAP1 DUP2 ADD PUSH1 0x40 MSTORE DUP1 SWAP3 SWAP2 SWAP1 DUP2 DUP2 MSTORE PUSH1 0x20 ADD DUP3 DUP1 SLOAD DUP1 ISZERO PUSH2 0xF40 JUMPI PUSH1 0x20 MUL DUP3 ADD SWAP2 SWAP1 PUSH0 MSTORE PUSH1 0x20 PUSH0 KECCAK256 SWAP1 JUMPDEST DUP2 PUSH0 SWAP1 SLOAD SWAP1 PUSH2 0x100 EXP SWAP1 DIV PUSH20 0xFFFFFFFFFFFFFFFFFFFFFFFFFFFFFFFFFFFFFFFF AND PUSH20 0xFFFFFFFFFFFFFFFFFFFFFFFFFFFFFFFFFFFFFFFF AND DUP2 MSTORE PUSH1 0x20 ADD SWAP1 PUSH1 0x1 ADD SWAP1 DUP1 DUP4 GT PUSH2 0xEF7 JUMPI JUMPDEST POP POP POP POP POP SWAP1 POP SWAP1 JUMP JUMPDEST PUSH1 0xB PUSH1 0x20 MSTORE DUP1 PUSH0 MSTORE PUSH1 0x40 PUSH0 KECCAK256 PUSH0 SWAP2 POP SWAP1 POP SLOAD DUP2 JUMP JUMPDEST PUSH1 0x4 SLOAD DUP2 JUMP JUMPDEST PUSH0 PUSH0 PUSH0 PUSH0 SWAP1 POP JUMPDEST DUP1 PUSH1 0x9 PUSH0 DUP7 PUSH20 0xFFFFFFFFFFFFFFFFFFFFFFFFFFFFFFFFFFFFFFFF AND PUSH20 0xFFFFFFFFFFFFFFFFFFFFFFFFFFFFFFFFFFFFFFFF AND DUP2 MSTORE PUSH1 0x20 ADD SWAP1 DUP2 MSTORE PUSH1 0x20 ADD PUSH0 KECCAK256 DUP1 SLOAD SWAP1 POP GT ISZERO PUSH2 0x112A JUMPI PUSH0 PUSH1 0x9 PUSH0 DUP7 PUSH20 0xFFFFFFFFFFFFFFFFFFFFFFFFFFFFFFFFFFFFFFFF AND PUSH20 0xFFFFFFFFFFFFFFFFFFFFFFFFFFFFFFFFFFFFFFFF AND DUP2 MSTORE PUSH1 0x20 ADD SWAP1 DUP2 MSTORE PUSH1 0x20 ADD PUSH0 KECCAK256 DUP3 DUP2 SLOAD DUP2 LT PUSH2 0x1004 JUMPI PUSH2 0x1003 PUSH2 0x1883 JUMP JUMPDEST JUMPDEST SWAP1 PUSH0 MSTORE PUSH1 0x20 PUSH0 KECCAK256 SWAP1 PUSH1 0x3 MUL ADD PUSH1 0x2 ADD SLOAD SUB ISZERO PUSH2 0x1117 JUMPI PUSH4 0xBBF81E00 PUSH1 0x9 PUSH0 DUP7 PUSH20 0xFFFFFFFFFFFFFFFFFFFFFFFFFFFFFFFFFFFFFFFF AND PUSH20 0xFFFFFFFFFFFFFFFFFFFFFFFFFFFFFFFFFFFFFFFF AND DUP2 MSTORE PUSH1 0x20 ADD SWAP1 DUP2 MSTORE PUSH1 0x20 ADD PUSH0 KECCAK256 DUP3 DUP2 SLOAD DUP2 LT PUSH2 0x106E JUMPI PUSH2 0x106D PUSH2 0x1883 JUMP JUMPDEST JUMPDEST SWAP1 PUSH0 MSTORE PUSH1 0x20 PUSH0 KECCAK256 SWAP1 PUSH1 0x3 MUL ADD PUSH1 0x2 ADD SLOAD PUSH1 0x6 SLOAD PUSH1 0x9 PUSH0 DUP9 PUSH20 0xFFFFFFFFFFFFFFFFFFFFFFFFFFFFFFFFFFFFFFFF AND PUSH20 0xFFFFFFFFFFFFFFFFFFFFFFFFFFFFFFFFFFFFFFFF AND DUP2 MSTORE PUSH1 0x20 ADD SWAP1 DUP2 MSTORE PUSH1 0x20 ADD PUSH0 KECCAK256 DUP5 DUP2 SLOAD DUP2 LT PUSH2 0x10D0 JUMPI PUSH2 0x10CF PUSH2 0x1883 JUMP JUMPDEST JUMPDEST SWAP1 PUSH0 MSTORE PUSH1 0x20 PUSH0 KECCAK256 SWAP1 PUSH1 0x3 MUL ADD PUSH1 0x1 ADD SLOAD TIMESTAMP PUSH2 0x10EB SWAP2 SWAP1 PUSH2 0x19E9 JUMP JUMPDEST PUSH2 0x10F5 SWAP2 SWAP1 PUSH2 0x1B33 JUMP JUMPDEST PUSH2 0x10FF SWAP2 SWAP1 PUSH2 0x1B33 JUMP JUMPDEST PUSH2 0x1109 SWAP2 SWAP1 PUSH2 0x1BD4 JUMP JUMPDEST DUP3 PUSH2 0x1114 SWAP2 SWAP1 PUSH2 0x1B74 JUMP JUMPDEST SWAP2 POP JUMPDEST DUP1 DUP1 PUSH2 0x1122 SWAP1 PUSH2 0x18DD JUMP JUMPDEST SWAP2 POP POP PUSH2 0xF6C JUMP JUMPDEST POP DUP1 SWAP2 POP POP SWAP2 SWAP1 POP JUMP JUMPDEST PUSH1 0x9 PUSH1 0x20 MSTORE DUP2 PUSH0 MSTORE PUSH1 0x40 PUSH0 KECCAK256 DUP2 DUP2 SLOAD DUP2 LT PUSH2 0x114D JUMPI PUSH0 DUP1 REVERT JUMPDEST SWAP1 PUSH0 MSTORE PUSH1 0x20 PUSH0 KECCAK256 SWAP1 PUSH1 0x3 MUL ADD PUSH0 SWAP2 POP SWAP2 POP POP DUP1 PUSH0 ADD SLOAD SWAP1 DUP1 PUSH1 0x1 ADD SLOAD SWAP1 DUP1 PUSH1 0x2 ADD SLOAD SWAP1 POP DUP4 JUMP JUMPDEST PUSH0 PUSH0 PUSH0 PUSH0 SWAP1 POP JUMPDEST DUP5 DUP1 SLOAD SWAP1 POP DUP2 LT ISZERO PUSH2 0x120A JUMPI CALLER PUSH20 0xFFFFFFFFFFFFFFFFFFFFFFFFFFFFFFFFFFFFFFFF AND DUP6 DUP3 DUP2 SLOAD DUP2 LT PUSH2 0x11B1 JUMPI PUSH2 0x11B0 PUSH2 0x1883 JUMP JUMPDEST JUMPDEST SWAP1 PUSH0 MSTORE PUSH1 0x20 PUSH0 KECCAK256 ADD PUSH0 SWAP1 SLOAD SWAP1 PUSH2 0x100 EXP SWAP1 DIV PUSH20 0xFFFFFFFFFFFFFFFFFFFFFFFFFFFFFFFFFFFFFFFF AND PUSH20 0xFFFFFFFFFFFFFFFFFFFFFFFFFFFFFFFFFFFFFFFF AND SUB PUSH2 0x11FD JUMPI PUSH1 0x1 SWAP3 POP PUSH2 0x120A JUMP JUMPDEST DUP1 DUP1 PUSH1 0x1 ADD SWAP2 POP POP PUSH2 0x117B JUMP JUMPDEST POP DUP2 PUSH2 0x1270 JUMPI DUP4 CALLER SWAP1 DUP1 PUSH1 0x1 DUP2 SLOAD ADD DUP1 DUP3 SSTORE DUP1 SWAP2 POP POP PUSH1 0x1 SWAP1 SUB SWAP1 PUSH0 MSTORE PUSH1 0x20 PUSH0 KECCAK256 ADD PUSH0 SWAP1 SWAP2 SWAP1 SWAP2 SWAP1 SWAP2 PUSH2 0x100 EXP DUP2 SLOAD DUP2 PUSH20 0xFFFFFFFFFFFFFFFFFFFFFFFFFFFFFFFFFFFFFFFF MUL NOT AND SWAP1 DUP4 PUSH20 0xFFFFFFFFFFFFFFFFFFFFFFFFFFFFFFFFFFFFFFFF AND MUL OR SWAP1 SSTORE POP JUMPDEST PUSH0 PUSH0 SWAP1 POP JUMPDEST DUP4 DUP1 SLOAD SWAP1 POP DUP2 LT ISZERO PUSH2 0x1304 JUMPI CALLER PUSH20 0xFFFFFFFFFFFFFFFFFFFFFFFFFFFFFFFFFFFFFFFF AND DUP5 DUP3 DUP2 SLOAD DUP2 LT PUSH2 0x12AB JUMPI PUSH2 0x12AA PUSH2 0x1883 JUMP JUMPDEST JUMPDEST SWAP1 PUSH0 MSTORE PUSH1 0x20 PUSH0 KECCAK256 ADD PUSH0 SWAP1 SLOAD SWAP1 PUSH2 0x100 EXP SWAP1 DIV PUSH20 0xFFFFFFFFFFFFFFFFFFFFFFFFFFFFFFFFFFFFFFFF AND PUSH20 0xFFFFFFFFFFFFFFFFFFFFFFFFFFFFFFFFFFFFFFFF AND SUB PUSH2 0x12F7 JUMPI PUSH1 0x1 SWAP2 POP PUSH2 0x1304 JUMP JUMPDEST DUP1 DUP1 PUSH1 0x1 ADD SWAP2 POP POP PUSH2 0x1275 JUMP JUMPDEST POP PUSH0 ISZERO ISZERO DUP3 ISZERO ISZERO EQ DUP1 ISZERO PUSH2 0x131B JUMPI POP PUSH0 ISZERO ISZERO DUP2 ISZERO ISZERO EQ JUMPDEST ISZERO PUSH2 0x1381 JUMPI PUSH1 0x1 CALLER SWAP1 DUP1 PUSH1 0x1 DUP2 SLOAD ADD DUP1 DUP3 SSTORE DUP1 SWAP2 POP POP PUSH1 0x1 SWAP1 SUB SWAP1 PUSH0 MSTORE PUSH1 0x20 PUSH0 KECCAK256 ADD PUSH0 SWAP1 SWAP2 SWAP1 SWAP2 SWAP1 SWAP2 PUSH2 0x100 EXP DUP2 SLOAD DUP2 PUSH20 0xFFFFFFFFFFFFFFFFFFFFFFFFFFFFFFFFFFFFFFFF MUL NOT AND SWAP1 DUP4 PUSH20 0xFFFFFFFFFFFFFFFFFFFFFFFFFFFFFFFFFFFFFFFF AND MUL OR SWAP1 SSTORE POP JUMPDEST POP POP POP POP JUMP JUMPDEST PUSH0 DUP2 SWAP1 POP SWAP2 SWAP1 POP JUMP JUMPDEST PUSH2 0x1399 DUP2 PUSH2 0x1387 JUMP JUMPDEST DUP3 MSTORE POP POP JUMP JUMPDEST PUSH0 PUSH1 0x20 DUP3 ADD SWAP1 POP PUSH2 0x13B2 PUSH0 DUP4 ADD DUP5 PUSH2 0x1390 JUMP JUMPDEST SWAP3 SWAP2 POP POP JUMP JUMPDEST PUSH0 PUSH0 REVERT JUMPDEST PUSH0 PUSH20 0xFFFFFFFFFFFFFFFFFFFFFFFFFFFFFFFFFFFFFFFF DUP3 AND SWAP1 POP SWAP2 SWAP1 POP JUMP JUMPDEST PUSH0 PUSH2 0x13E5 DUP3 PUSH2 0x13BC JUMP JUMPDEST SWAP1 POP SWAP2 SWAP1 POP JUMP JUMPDEST PUSH2 0x13F5 DUP2 PUSH2 0x13DB JUMP JUMPDEST DUP2 EQ PUSH2 0x13FF JUMPI PUSH0 PUSH0 REVERT JUMPDEST POP JUMP JUMPDEST PUSH0 DUP2 CALLDATALOAD SWAP1 POP PUSH2 0x1410 DUP2 PUSH2 0x13EC JUMP JUMPDEST SWAP3 SWAP2 POP POP JUMP JUMPDEST PUSH0 DUP2 SWAP1 POP SWAP2 SWAP1 POP JUMP JUMPDEST PUSH2 0x1428 DUP2 PUSH2 0x1416 JUMP JUMPDEST DUP2 EQ PUSH2 0x1432 JUMPI PUSH0 PUSH0 REVERT JUMPDEST POP JUMP JUMPDEST PUSH0 DUP2 CALLDATALOAD SWAP1 POP PUSH2 0x1443 DUP2 PUSH2 0x141F JUMP JUMPDEST SWAP3 SWAP2 POP POP JUMP JUMPDEST PUSH0 PUSH0 PUSH1 0x40 DUP4 DUP6 SUB SLT ISZERO PUSH2 0x145F JUMPI PUSH2 0x145E PUSH2 0x13B8 JUMP JUMPDEST JUMPDEST PUSH0 PUSH2 0x146C DUP6 DUP3 DUP7 ADD PUSH2 0x1402 JUMP JUMPDEST SWAP3 POP POP PUSH1 0x20 PUSH2 0x147D DUP6 DUP3 DUP7 ADD PUSH2 0x1435 JUMP JUMPDEST SWAP2 POP POP SWAP3 POP SWAP3 SWAP1 POP JUMP JUMPDEST PUSH0 DUP2 MLOAD SWAP1 POP SWAP2 SWAP1 POP JUMP JUMPDEST PUSH0 DUP3 DUP3 MSTORE PUSH1 0x20 DUP3 ADD SWAP1 POP SWAP3 SWAP2 POP POP JUMP JUMPDEST DUP3 DUP2 DUP4 MCOPY PUSH0 DUP4 DUP4 ADD MSTORE POP POP POP JUMP JUMPDEST PUSH0 PUSH1 0x1F NOT PUSH1 0x1F DUP4 ADD AND SWAP1 POP SWAP2 SWAP1 POP JUMP JUMPDEST PUSH0 PUSH2 0x14C9 DUP3 PUSH2 0x1487 JUMP JUMPDEST PUSH2 0x14D3 DUP2 DUP6 PUSH2 0x1491 JUMP JUMPDEST SWAP4 POP PUSH2 0x14E3 DUP2 DUP6 PUSH1 0x20 DUP7 ADD PUSH2 0x14A1 JUMP JUMPDEST PUSH2 0x14EC DUP2 PUSH2 0x14AF JUMP JUMPDEST DUP5 ADD SWAP2 POP POP SWAP3 SWAP2 POP POP JUMP JUMPDEST PUSH0 PUSH1 0xA0 DUP3 ADD SWAP1 POP DUP2 DUP2 SUB PUSH0 DUP4 ADD MSTORE PUSH2 0x150F DUP2 DUP9 PUSH2 0x14BF JUMP JUMPDEST SWAP1 POP PUSH2 0x151E PUSH1 0x20 DUP4 ADD DUP8 PUSH2 0x1390 JUMP JUMPDEST PUSH2 0x152B PUSH1 0x40 DUP4 ADD DUP7 PUSH2 0x1390 JUMP JUMPDEST PUSH2 0x1538 PUSH1 0x60 DUP4 ADD DUP6 PUSH2 0x1390 JUMP JUMPDEST PUSH2 0x1545 PUSH1 0x80 DUP4 ADD DUP5 PUSH2 0x1390 JUMP JUMPDEST SWAP7 SWAP6 POP POP POP POP POP POP JUMP JUMPDEST PUSH0 PUSH1 0x20 DUP3 DUP5 SUB SLT ISZERO PUSH2 0x1564 JUMPI PUSH2 0x1563 PUSH2 0x13B8 JUMP JUMPDEST JUMPDEST PUSH0 PUSH2 0x1571 DUP5 DUP3 DUP6 ADD PUSH2 0x1402 JUMP JUMPDEST SWAP2 POP POP SWAP3 SWAP2 POP POP JUMP JUMPDEST PUSH2 0x1583 DUP2 PUSH2 0x1387 JUMP JUMPDEST DUP2 EQ PUSH2 0x158D JUMPI PUSH0 PUSH0 REVERT JUMPDEST POP JUMP JUMPDEST PUSH0 DUP2 CALLDATALOAD SWAP1 POP PUSH2 0x159E DUP2 PUSH2 0x157A JUMP JUMPDEST SWAP3 SWAP2 POP POP JUMP JUMPDEST PUSH0 PUSH1 0x20 DUP3 DUP5 SUB SLT ISZERO PUSH2 0x15B9 JUMPI PUSH2 0x15B8 PUSH2 0x13B8 JUMP JUMPDEST JUMPDEST PUSH0 PUSH2 0x15C6 DUP5 DUP3 DUP6 ADD PUSH2 0x1590 JUMP JUMPDEST SWAP2 POP POP SWAP3 SWAP2 POP POP JUMP JUMPDEST PUSH0 DUP2 ISZERO ISZERO SWAP1 POP SWAP2 SWAP1 POP JUMP JUMPDEST PUSH2 0x15E3 DUP2 PUSH2 0x15CF JUMP JUMPDEST DUP3 MSTORE POP POP JUMP JUMPDEST PUSH0 PUSH1 0x20 DUP3 ADD SWAP1 POP PUSH2 0x15FC PUSH0 DUP4 ADD DUP5 PUSH2 0x15DA JUMP JUMPDEST SWAP3 SWAP2 POP POP JUMP JUMPDEST PUSH0 PUSH0 PUSH1 0x40 DUP4 DUP6 SUB SLT ISZERO PUSH2 0x1618 JUMPI PUSH2 0x1617 PUSH2 0x13B8 JUMP JUMPDEST JUMPDEST PUSH0 PUSH2 0x1625 DUP6 DUP3 DUP7 ADD PUSH2 0x1590 JUMP JUMPDEST SWAP3 POP POP PUSH1 0x20 PUSH2 0x1636 DUP6 DUP3 DUP7 ADD PUSH2 0x1590 JUMP JUMPDEST SWAP2 POP POP SWAP3 POP SWAP3 SWAP1 POP JUMP JUMPDEST PUSH0 DUP2 MLOAD SWAP1 POP SWAP2 SWAP1 POP JUMP JUMPDEST PUSH0 DUP3 DUP3 MSTORE PUSH1 0x20 DUP3 ADD SWAP1 POP SWAP3 SWAP2 POP POP JUMP JUMPDEST PUSH0 DUP2 SWAP1 POP PUSH1 0x20 DUP3 ADD SWAP1 POP SWAP2 SWAP1 POP JUMP JUMPDEST PUSH2 0x1672 DUP2 PUSH2 0x13DB JUMP JUMPDEST DUP3 MSTORE POP POP JUMP JUMPDEST PUSH0 PUSH2 0x1683 DUP4 DUP4 PUSH2 0x1669 JUMP JUMPDEST PUSH1 0x20 DUP4 ADD SWAP1 POP SWAP3 SWAP2 POP POP JUMP JUMPDEST PUSH0 PUSH1 0x20 DUP3 ADD SWAP1 POP SWAP2 SWAP1 POP JUMP JUMPDEST PUSH0 PUSH2 0x16A5 DUP3 PUSH2 0x1640 JUMP JUMPDEST PUSH2 0x16AF DUP2 DUP6 PUSH2 0x164A JUMP JUMPDEST SWAP4 POP PUSH2 0x16BA DUP4 PUSH2 0x165A JUMP JUMPDEST DUP1 PUSH0 JUMPDEST DUP4 DUP2 LT ISZERO PUSH2 0x16EA JUMPI DUP2 MLOAD PUSH2 0x16D1 DUP9 DUP3 PUSH2 0x1678 JUMP JUMPDEST SWAP8 POP PUSH2 0x16DC DUP4 PUSH2 0x168F JUMP JUMPDEST SWAP3 POP POP PUSH1 0x1 DUP2 ADD SWAP1 POP PUSH2 0x16BD JUMP JUMPDEST POP DUP6 SWAP4 POP POP POP POP SWAP3 SWAP2 POP POP JUMP JUMPDEST PUSH0 PUSH1 0x20 DUP3 ADD SWAP1 POP DUP2 DUP2 SUB PUSH0 DUP4 ADD MSTORE PUSH2 0x170F DUP2 DUP5 PUSH2 0x169B JUMP JUMPDEST SWAP1 POP SWAP3 SWAP2 POP POP JUMP JUMPDEST PUSH2 0x1720 DUP2 PUSH2 0x1416 JUMP JUMPDEST DUP3 MSTORE POP POP JUMP JUMPDEST PUSH0 PUSH1 0x20 DUP3 ADD SWAP1 POP PUSH2 0x1739 PUSH0 DUP4 ADD DUP5 PUSH2 0x1717 JUMP JUMPDEST SWAP3 SWAP2 POP POP JUMP JUMPDEST PUSH2 0x1748 DUP2 PUSH2 0x13DB JUMP JUMPDEST DUP3 MSTORE POP POP JUMP JUMPDEST PUSH0 PUSH1 0x20 DUP3 ADD SWAP1 POP PUSH2 0x1761 PUSH0 DUP4 ADD DUP5 PUSH2 0x173F JUMP JUMPDEST SWAP3 SWAP2 POP POP JUMP JUMPDEST PUSH0 PUSH0 PUSH1 0x40 DUP4 DUP6 SUB SLT ISZERO PUSH2 0x177D JUMPI PUSH2 0x177C PUSH2 0x13B8 JUMP JUMPDEST JUMPDEST PUSH0 PUSH2 0x178A DUP6 DUP3 DUP7 ADD PUSH2 0x1402 JUMP JUMPDEST SWAP3 POP POP PUSH1 0x20 PUSH2 0x179B DUP6 DUP3 DUP7 ADD PUSH2 0x1590 JUMP JUMPDEST SWAP2 POP POP SWAP3 POP SWAP3 SWAP1 POP JUMP JUMPDEST PUSH0 PUSH1 0x60 DUP3 ADD SWAP1 POP PUSH2 0x17B8 PUSH0 DUP4 ADD DUP7 PUSH2 0x1717 JUMP JUMPDEST PUSH2 0x17C5 PUSH1 0x20 DUP4 ADD DUP6 PUSH2 0x1390 JUMP JUMPDEST PUSH2 0x17D2 PUSH1 0x40 DUP4 ADD DUP5 PUSH2 0x1390 JUMP JUMPDEST SWAP5 SWAP4 POP POP POP POP JUMP JUMPDEST PUSH0 DUP2 SWAP1 POP SWAP3 SWAP2 POP POP JUMP JUMPDEST POP JUMP JUMPDEST PUSH0 PUSH2 0x17F2 PUSH0 DUP4 PUSH2 0x17DA JUMP JUMPDEST SWAP2 POP PUSH2 0x17FD DUP3 PUSH2 0x17E4 JUMP JUMPDEST PUSH0 DUP3 ADD SWAP1 POP SWAP2 SWAP1 POP JUMP JUMPDEST PUSH0 PUSH2 0x1811 DUP3 PUSH2 0x17E7 JUMP JUMPDEST SWAP2 POP DUP2 SWAP1 POP SWAP2 SWAP1 POP JUMP JUMPDEST PUSH32 0x5472616E73616374696F6E206661696C65640000000000000000000000000000 PUSH0 DUP3 ADD MSTORE POP JUMP JUMPDEST PUSH0 PUSH2 0x184F PUSH1 0x12 DUP4 PUSH2 0x1491 JUMP JUMPDEST SWAP2 POP PUSH2 0x185A DUP3 PUSH2 0x181B JUMP JUMPDEST PUSH1 0x20 DUP3 ADD SWAP1 POP SWAP2 SWAP1 POP JUMP JUMPDEST PUSH0 PUSH1 0x20 DUP3 ADD SWAP1 POP DUP2 DUP2 SUB PUSH0 DUP4 ADD MSTORE PUSH2 0x187C DUP2 PUSH2 0x1843 JUMP JUMPDEST SWAP1 POP SWAP2 SWAP1 POP JUMP JUMPDEST PUSH32 0x4E487B7100000000000000000000000000000000000000000000000000000000 PUSH0 MSTORE PUSH1 0x32 PUSH1 0x4 MSTORE PUSH1 0x24 PUSH0 REVERT JUMPDEST PUSH32 0x4E487B7100000000000000000000000000000000000000000000000000000000 PUSH0 MSTORE PUSH1 0x11 PUSH1 0x4 MSTORE PUSH1 0x24 PUSH0 REVERT JUMPDEST PUSH0 PUSH2 0x18E7 DUP3 PUSH2 0x1387 JUMP JUMPDEST SWAP2 POP PUSH32 0xFFFFFFFFFFFFFFFFFFFFFFFFFFFFFFFFFFFFFFFFFFFFFFFFFFFFFFFFFFFFFFFF DUP3 SUB PUSH2 0x1919 JUMPI PUSH2 0x1918 PUSH2 0x18B0 JUMP JUMPDEST JUMPDEST PUSH1 0x1 DUP3 ADD SWAP1 POP SWAP2 SWAP1 POP JUMP JUMPDEST PUSH32 0x4E487B7100000000000000000000000000000000000000000000000000000000 PUSH0 MSTORE PUSH1 0x22 PUSH1 0x4 MSTORE PUSH1 0x24 PUSH0 REVERT JUMPDEST PUSH0 PUSH1 0x2 DUP3 DIV SWAP1 POP PUSH1 0x1 DUP3 AND DUP1 PUSH2 0x1968 JUMPI PUSH1 0x7F DUP3 AND SWAP2 POP JUMPDEST PUSH1 0x20 DUP3 LT DUP2 SUB PUSH2 0x197B JUMPI PUSH2 0x197A PUSH2 0x1924 JUMP JUMPDEST JUMPDEST POP SWAP2 SWAP1 POP JUMP JUMPDEST PUSH32 0x4578636564656564206D6178696D756D20776974686472617700000000000000 PUSH0 DUP3 ADD MSTORE POP JUMP JUMPDEST PUSH0 PUSH2 0x19B5 PUSH1 0x19 DUP4 PUSH2 0x1491 JUMP JUMPDEST SWAP2 POP PUSH2 0x19C0 DUP3 PUSH2 0x1981 JUMP JUMPDEST PUSH1 0x20 DUP3 ADD SWAP1 POP SWAP2 SWAP1 POP JUMP JUMPDEST PUSH0 PUSH1 0x20 DUP3 ADD SWAP1 POP DUP2 DUP2 SUB PUSH0 DUP4 ADD MSTORE PUSH2 0x19E2 DUP2 PUSH2 0x19A9 JUMP JUMPDEST SWAP1 POP SWAP2 SWAP1 POP JUMP JUMPDEST PUSH0 PUSH2 0x19F3 DUP3 PUSH2 0x1387 JUMP JUMPDEST SWAP2 POP PUSH2 0x19FE DUP4 PUSH2 0x1387 JUMP JUMPDEST SWAP3 POP DUP3 DUP3 SUB SWAP1 POP DUP2 DUP2 GT ISZERO PUSH2 0x1A16 JUMPI PUSH2 0x1A15 PUSH2 0x18B0 JUMP JUMPDEST JUMPDEST SWAP3 SWAP2 POP POP JUMP JUMPDEST PUSH32 0x496E76616C6964207765656B206E756D62657200000000000000000000000000 PUSH0 DUP3 ADD MSTORE POP JUMP JUMPDEST PUSH0 PUSH2 0x1A50 PUSH1 0x13 DUP4 PUSH2 0x1491 JUMP JUMPDEST SWAP2 POP PUSH2 0x1A5B DUP3 PUSH2 0x1A1C JUMP JUMPDEST PUSH1 0x20 DUP3 ADD SWAP1 POP SWAP2 SWAP1 POP JUMP JUMPDEST PUSH0 PUSH1 0x20 DUP3 ADD SWAP1 POP DUP2 DUP2 SUB PUSH0 DUP4 ADD MSTORE PUSH2 0x1A7D DUP2 PUSH2 0x1A44 JUMP JUMPDEST SWAP1 POP SWAP2 SWAP1 POP JUMP JUMPDEST PUSH32 0x4D696E6D756D20626F72726F7720697320302E32204574680000000000000000 PUSH0 DUP3 ADD MSTORE POP JUMP JUMPDEST PUSH0 PUSH2 0x1AB8 PUSH1 0x18 DUP4 PUSH2 0x1491 JUMP JUMPDEST SWAP2 POP PUSH2 0x1AC3 DUP3 PUSH2 0x1A84 JUMP JUMPDEST PUSH1 0x20 DUP3 ADD SWAP1 POP SWAP2 SWAP1 POP JUMP JUMPDEST PUSH0 PUSH1 0x20 DUP3 ADD SWAP1 POP DUP2 DUP2 SUB PUSH0 DUP4 ADD MSTORE PUSH2 0x1AE5 DUP2 PUSH2 0x1AAC JUMP JUMPDEST SWAP1 POP SWAP2 SWAP1 POP JUMP JUMPDEST PUSH0 PUSH2 0x1AF6 DUP3 PUSH2 0x1416 JUMP JUMPDEST SWAP2 POP PUSH32 0x7FFFFFFFFFFFFFFFFFFFFFFFFFFFFFFFFFFFFFFFFFFFFFFFFFFFFFFFFFFFFFFF DUP3 SUB PUSH2 0x1B28 JUMPI PUSH2 0x1B27 PUSH2 0x18B0 JUMP JUMPDEST JUMPDEST PUSH1 0x1 DUP3 ADD SWAP1 POP SWAP2 SWAP1 POP JUMP JUMPDEST PUSH0 PUSH2 0x1B3D DUP3 PUSH2 0x1387 JUMP JUMPDEST SWAP2 POP PUSH2 0x1B48 DUP4 PUSH2 0x1387 JUMP JUMPDEST SWAP3 POP DUP3 DUP3 MUL PUSH2 0x1B56 DUP2 PUSH2 0x1387 JUMP JUMPDEST SWAP2 POP DUP3 DUP3 DIV DUP5 EQ DUP4 ISZERO OR PUSH2 0x1B6D JUMPI PUSH2 0x1B6C PUSH2 0x18B0 JUMP JUMPDEST JUMPDEST POP SWAP3 SWAP2 POP POP JUMP JUMPDEST PUSH0 PUSH2 0x1B7E DUP3 PUSH2 0x1387 JUMP JUMPDEST SWAP2 POP PUSH2 0x1B89 DUP4 PUSH2 0x1387 JUMP JUMPDEST SWAP3 POP DUP3 DUP3 ADD SWAP1 POP DUP1 DUP3 GT ISZERO PUSH2 0x1BA1 JUMPI PUSH2 0x1BA0 PUSH2 0x18B0 JUMP JUMPDEST JUMPDEST SWAP3 SWAP2 POP POP JUMP JUMPDEST PUSH32 0x4E487B7100000000000000000000000000000000000000000000000000000000 PUSH0 MSTORE PUSH1 0x12 PUSH1 0x4 MSTORE PUSH1 0x24 PUSH0 REVERT JUMPDEST PUSH0 PUSH2 0x1BDE DUP3 PUSH2 0x1387 JUMP JUMPDEST SWAP2 POP PUSH2 0x1BE9 DUP4 PUSH2 0x1387 JUMP JUMPDEST SWAP3 POP DUP3 PUSH2 0x1BF9 JUMPI PUSH2 0x1BF8 PUSH2 0x1BA7 JUMP JUMPDEST JUMPDEST DUP3 DUP3 DIV SWAP1 POP SWAP3 SWAP2 POP POP JUMP JUMPDEST PUSH32 0x4E487B7100000000000000000000000000000000000000000000000000000000 PUSH0 MSTORE PUSH1 0x41 PUSH1 0x4 MSTORE PUSH1 0x24 PUSH0 REVERT JUMPDEST PUSH0 DUP2 SWAP1 POP DUP2 PUSH0 MSTORE PUSH1 0x20 PUSH0 KECCAK256 SWAP1 POP SWAP2 SWAP1 POP JUMP JUMPDEST PUSH0 PUSH1 0x20 PUSH1 0x1F DUP4 ADD DIV SWAP1 POP SWAP2 SWAP1 POP JUMP JUMPDEST PUSH0 DUP3 DUP3 SHL SWAP1 POP SWAP3 SWAP2 POP POP JUMP JUMPDEST PUSH0 PUSH1 0x8 DUP4 MUL PUSH2 0x1C8D PUSH32 0xFFFFFFFFFFFFFFFFFFFFFFFFFFFFFFFFFFFFFFFFFFFFFFFFFFFFFFFFFFFFFFFF DUP3 PUSH2 0x1C52 JUMP JUMPDEST PUSH2 0x1C97 DUP7 DUP4 PUSH2 0x1C52 JUMP JUMPDEST SWAP6 POP DUP1 NOT DUP5 AND SWAP4 POP DUP1 DUP7 AND DUP5 OR SWAP3 POP POP POP SWAP4 SWAP3 POP POP POP JUMP JUMPDEST PUSH0 DUP2 SWAP1 POP SWAP2 SWAP1 POP JUMP JUMPDEST PUSH0 PUSH2 0x1CD2 PUSH2 0x1CCD PUSH2 0x1CC8 DUP5 PUSH2 0x1387 JUMP JUMPDEST PUSH2 0x1CAF JUMP JUMPDEST PUSH2 0x1387 JUMP JUMPDEST SWAP1 POP SWAP2 SWAP1 POP JUMP JUMPDEST PUSH0 DUP2 SWAP1 POP SWAP2 SWAP1 POP JUMP JUMPDEST PUSH2 0x1CEB DUP4 PUSH2 0x1CB8 JUMP JUMPDEST PUSH2 0x1CFF PUSH2 0x1CF7 DUP3 PUSH2 0x1CD9 JUMP JUMPDEST DUP5 DUP5 SLOAD PUSH2 0x1C5E JUMP JUMPDEST DUP3 SSTORE POP POP POP POP JUMP JUMPDEST PUSH0 PUSH0 SWAP1 POP SWAP1 JUMP JUMPDEST PUSH2 0x1D16 PUSH2 0x1D07 JUMP JUMPDEST PUSH2 0x1D21 DUP2 DUP5 DUP5 PUSH2 0x1CE2 JUMP JUMPDEST POP POP POP JUMP JUMPDEST JUMPDEST DUP2 DUP2 LT ISZERO PUSH2 0x1D44 JUMPI PUSH2 0x1D39 PUSH0 DUP3 PUSH2 0x1D0E JUMP JUMPDEST PUSH1 0x1 DUP2 ADD SWAP1 POP PUSH2 0x1D27 JUMP JUMPDEST POP POP JUMP JUMPDEST PUSH1 0x1F DUP3 GT ISZERO PUSH2 0x1D89 JUMPI PUSH2 0x1D5A DUP2 PUSH2 0x1C31 JUMP JUMPDEST PUSH2 0x1D63 DUP5 PUSH2 0x1C43 JUMP JUMPDEST DUP2 ADD PUSH1 0x20 DUP6 LT ISZERO PUSH2 0x1D72 JUMPI DUP2 SWAP1 POP JUMPDEST PUSH2 0x1D86 PUSH2 0x1D7E DUP6 PUSH2 0x1C43 JUMP JUMPDEST DUP4 ADD DUP3 PUSH2 0x1D26 JUMP JUMPDEST POP POP JUMPDEST POP POP POP JUMP JUMPDEST PUSH0 DUP3 DUP3 SHR SWAP1 POP SWAP3 SWAP2 POP POP JUMP JUMPDEST PUSH0 PUSH2 0x1DA9 PUSH0 NOT DUP5 PUSH1 0x8 MUL PUSH2 0x1D8E JUMP JUMPDEST NOT DUP1 DUP4 AND SWAP2 POP POP SWAP3 SWAP2 POP POP JUMP JUMPDEST PUSH0 PUSH2 0x1DC1 DUP4 DUP4 PUSH2 0x1D9A JUMP JUMPDEST SWAP2 POP DUP3 PUSH1 0x2 MUL DUP3 OR SWAP1 POP SWAP3 SWAP2 POP POP JUMP JUMPDEST PUSH2 0x1DDA DUP3 PUSH2 0x1487 JUMP JUMPDEST PUSH8 0xFFFFFFFFFFFFFFFF DUP2 GT ISZERO PUSH2 0x1DF3 JUMPI PUSH2 0x1DF2 PUSH2 0x1C04 JUMP JUMPDEST JUMPDEST PUSH2 0x1DFD DUP3 SLOAD PUSH2 0x1951 JUMP JUMPDEST PUSH2 0x1E08 DUP3 DUP3 DUP6 PUSH2 0x1D48 JUMP JUMPDEST PUSH0 PUSH1 0x20 SWAP1 POP PUSH1 0x1F DUP4 GT PUSH1 0x1 DUP2 EQ PUSH2 0x1E39 JUMPI PUSH0 DUP5 ISZERO PUSH2 0x1E27 JUMPI DUP3 DUP8 ADD MLOAD SWAP1 POP JUMPDEST PUSH2 0x1E31 DUP6 DUP3 PUSH2 0x1DB6 JUMP JUMPDEST DUP7 SSTORE POP PUSH2 0x1E98 JUMP JUMPDEST PUSH1 0x1F NOT DUP5 AND PUSH2 0x1E47 DUP7 PUSH2 0x1C31 JUMP JUMPDEST PUSH0 JUMPDEST DUP3 DUP2 LT ISZERO PUSH2 0x1E6E JUMPI DUP5 DUP10 ADD MLOAD DUP3 SSTORE PUSH1 0x1 DUP3 ADD SWAP2 POP PUSH1 0x20 DUP6 ADD SWAP5 POP PUSH1 0x20 DUP2 ADD SWAP1 POP PUSH2 0x1E49 JUMP JUMPDEST DUP7 DUP4 LT ISZERO PUSH2 0x1E8B JUMPI DUP5 DUP10 ADD MLOAD PUSH2 0x1E87 PUSH1 0x1F DUP10 AND DUP3 PUSH2 0x1D9A JUMP JUMPDEST DUP4 SSTORE POP JUMPDEST PUSH1 0x1 PUSH1 0x2 DUP9 MUL ADD DUP9 SSTORE POP POP POP JUMPDEST POP POP POP POP POP POP JUMP JUMPDEST PUSH32 0x4D696E6D756D20626F72726F7720697320302E31204574680000000000000000 PUSH0 DUP3 ADD MSTORE POP JUMP JUMPDEST PUSH0 PUSH2 0x1ED4 PUSH1 0x18 DUP4 PUSH2 0x1491 JUMP JUMPDEST SWAP2 POP PUSH2 0x1EDF DUP3 PUSH2 0x1EA0 JUMP JUMPDEST PUSH1 0x20 DUP3 ADD SWAP1 POP SWAP2 SWAP1 POP JUMP JUMPDEST PUSH0 PUSH1 0x20 DUP3 ADD SWAP1 POP DUP2 DUP2 SUB PUSH0 DUP4 ADD MSTORE PUSH2 0x1F01 DUP2 PUSH2 0x1EC8 JUMP JUMPDEST SWAP1 POP SWAP2 SWAP1 POP JUMP JUMPDEST PUSH0 PUSH1 0x60 DUP3 ADD SWAP1 POP PUSH2 0x1F1B PUSH0 DUP4 ADD DUP7 PUSH2 0x173F JUMP JUMPDEST PUSH2 0x1F28 PUSH1 0x20 DUP4 ADD DUP6 PUSH2 0x1390 JUMP JUMPDEST PUSH2 0x1F35 PUSH1 0x40 DUP4 ADD DUP5 PUSH2 0x1390 JUMP JUMPDEST SWAP5 SWAP4 POP POP POP POP JUMP INVALID LOG2 PUSH5 0x6970667358 0x22 SLT KECCAK256 0xB0 COINBASE PUSH21 0x1E2BD498332CF0D2406CC0F9DDD2EA0E14A92683E1 0x21 0x22 0xE8 0xC4 PC 0x1F RETURNDATACOPY PREVRANDAO PUSH5 0x736F6C6343 STOP ADDMOD 0x1E STOP CALLER "
				},
				"gasEstimates": {
					"creation": {
						"codeDepositCost": "1610200",
						"executionCost": "48055",
						"totalCost": "1658255"
					},
					"external": {
						"Borrower(address,int256)": "infinite",
						"Lender(address,uint256)": "infinite",
						"borrowCount(address)": "2847",
						"borrowersCounter()": "2491",
						"calculateInterest(address)": "infinite",
						"getContractBalance()": "357",
						"getInterestMatured()": "infinite",
						"getUserBorrowerList()": "infinite",
						"getUserLendersList()": "infinite",
						"interestMatured(address)": "2892",
						"isAddressActive(address)": "2878",
						"lend()": "infinite",
						"lendAPY()": "2536",
						"lendersCounter()": "2536",
						"netPosition(address)": "2846",
						"openBorrow(uint256,uint256)": "infinite",
						"owner()": "2574",
						"withdraw(uint256)": "infinite",
						"withdrawInterest()": "infinite"
					},
					"internal": {
						"checkCategoryRegistration(address[] storage pointer,address[] storage pointer)": "infinite"
					}
				},
				"methodIdentifiers": {
					"Borrower(address,int256)": "11c6bf8f",
					"Lender(address,uint256)": "ff6d4f73",
					"borrowCount(address)": "71604909",
					"borrowersCounter()": "ddd899a1",
					"calculateInterest(address)": "e11932cf",
					"getContractBalance()": "6f9fb98a",
					"getInterestMatured()": "0aff7198",
					"getUserBorrowerList()": "3e86e213",
					"getUserLendersList()": "d6020811",
					"interestMatured(address)": "26a39c07",
					"isAddressActive(address)": "2f1158f7",
					"lend()": "97dffc61",
					"lendAPY()": "65ad976e",
					"lendersCounter()": "cb50bb74",
					"netPosition(address)": "dce8e848",
					"openBorrow(uint256,uint256)": "33d5281f",
					"owner()": "8da5cb5b",
					"withdraw(uint256)": "2e1a7d4d",
					"withdrawInterest()": "0063750c"
				}
			},
			"storageLayout": {
				"storage": [
					{
						"astId": 3,
						"contract": "LoadManager.sol:LoanManager",
						"label": "owner",
						"offset": 0,
						"slot": "0",
						"type": "t_address"
					},
					{
						"astId": 6,
						"contract": "LoadManager.sol:LoanManager",
						"label": "userAddressList",
						"offset": 0,
						"slot": "1",
						"type": "t_array(t_address)dyn_storage"
					},
					{
						"astId": 9,
						"contract": "LoadManager.sol:LoanManager",
						"label": "userBorrowersList",
						"offset": 0,
						"slot": "2",
						"type": "t_array(t_address)dyn_storage"
					},
					{
						"astId": 12,
						"contract": "LoadManager.sol:LoanManager",
						"label": "userLendersList",
						"offset": 0,
						"slot": "3",
						"type": "t_array(t_address)dyn_storage"
					},
					{
						"astId": 14,
						"contract": "LoadManager.sol:LoanManager",
						"label": "borrowersCounter",
						"offset": 0,
						"slot": "4",
						"type": "t_uint256"
					},
					{
						"astId": 16,
						"contract": "LoadManager.sol:LoanManager",
						"label": "lendersCounter",
						"offset": 0,
						"slot": "5",
						"type": "t_uint256"
					},
					{
						"astId": 19,
						"contract": "LoadManager.sol:LoanManager",
						"label": "lendAPY",
						"offset": 0,
						"slot": "6",
						"type": "t_uint256"
					},
					{
						"astId": 56,
						"contract": "LoadManager.sol:LoanManager",
						"label": "Borrower",
						"offset": 0,
						"slot": "7",
						"type": "t_mapping(t_address,t_mapping(t_int256,t_struct(borrowInfo)42_storage))"
					},
					{
						"astId": 60,
						"contract": "LoadManager.sol:LoanManager",
						"label": "borrowCount",
						"offset": 0,
						"slot": "8",
						"type": "t_mapping(t_address,t_int256)"
					},
					{
						"astId": 66,
						"contract": "LoadManager.sol:LoanManager",
						"label": "Lender",
						"offset": 0,
						"slot": "9",
						"type": "t_mapping(t_address,t_array(t_struct(lendInfo)49_storage)dyn_storage)"
					},
					{
						"astId": 70,
						"contract": "LoadManager.sol:LoanManager",
						"label": "interestMatured",
						"offset": 0,
						"slot": "10",
						"type": "t_mapping(t_address,t_uint256)"
					},
					{
						"astId": 74,
						"contract": "LoadManager.sol:LoanManager",
						"label": "netPosition",
						"offset": 0,
						"slot": "11",
						"type": "t_mapping(t_address,t_uint256)"
					},
					{
						"astId": 78,
						"contract": "LoadManager.sol:LoanManager",
						"label": "isAddressActive",
						"offset": 0,
						"slot": "12",
						"type": "t_mapping(t_address,t_bool)"
					}
				],
				"types": {
					"t_address": {
						"encoding": "inplace",
						"label": "address",
						"numberOfBytes": "20"
					},
					"t_array(t_address)dyn_storage": {
						"base": "t_address",
						"encoding": "dynamic_array",
						"label": "address[]",
						"numberOfBytes": "32"
					},
					"t_array(t_struct(lendInfo)49_storage)dyn_storage": {
						"base": "t_struct(lendInfo)49_storage",
						"encoding": "dynamic_array",
						"label": "struct LoanManager.lendInfo[]",
						"numberOfBytes": "32"
					},
					"t_bool": {
						"encoding": "inplace",
						"label": "bool",
						"numberOfBytes": "1"
					},
					"t_int256": {
						"encoding": "inplace",
						"label": "int256",
						"numberOfBytes": "32"
					},
					"t_mapping(t_address,t_array(t_struct(lendInfo)49_storage)dyn_storage)": {
						"encoding": "mapping",
						"key": "t_address",
						"label": "mapping(address => struct LoanManager.lendInfo[])",
						"numberOfBytes": "32",
						"value": "t_array(t_struct(lendInfo)49_storage)dyn_storage"
					},
					"t_mapping(t_address,t_bool)": {
						"encoding": "mapping",
						"key": "t_address",
						"label": "mapping(address => bool)",
						"numberOfBytes": "32",
						"value": "t_bool"
					},
					"t_mapping(t_address,t_int256)": {
						"encoding": "mapping",
						"key": "t_address",
						"label": "mapping(address => int256)",
						"numberOfBytes": "32",
						"value": "t_int256"
					},
					"t_mapping(t_address,t_mapping(t_int256,t_struct(borrowInfo)42_storage))": {
						"encoding": "mapping",
						"key": "t_address",
						"label": "mapping(address => mapping(int256 => struct LoanManager.borrowInfo))",
						"numberOfBytes": "32",
						"value": "t_mapping(t_int256,t_struct(borrowInfo)42_storage)"
					},
					"t_mapping(t_address,t_uint256)": {
						"encoding": "mapping",
						"key": "t_address",
						"label": "mapping(address => uint256)",
						"numberOfBytes": "32",
						"value": "t_uint256"
					},
					"t_mapping(t_int256,t_struct(borrowInfo)42_storage)": {
						"encoding": "mapping",
						"key": "t_int256",
						"label": "mapping(int256 => struct LoanManager.borrowInfo)",
						"numberOfBytes": "32",
						"value": "t_struct(borrowInfo)42_storage"
					},
					"t_string_storage": {
						"encoding": "bytes",
						"label": "string",
						"numberOfBytes": "32"
					},
					"t_struct(borrowInfo)42_storage": {
						"encoding": "inplace",
						"label": "struct LoanManager.borrowInfo",
						"members": [
							{
								"astId": 33,
								"contract": "LoadManager.sol:LoanManager",
								"label": "state",
								"offset": 0,
								"slot": "0",
								"type": "t_string_storage"
							},
							{
								"astId": 35,
								"contract": "LoadManager.sol:LoanManager",
								"label": "dueDate",
								"offset": 0,
								"slot": "1",
								"type": "t_uint256"
							},
							{
								"astId": 37,
								"contract": "LoadManager.sol:LoanManager",
								"label": "APY",
								"offset": 0,
								"slot": "2",
								"type": "t_uint256"
							},
							{
								"astId": 39,
								"contract": "LoadManager.sol:LoanManager",
								"label": "borrowAmount",
								"offset": 0,
								"slot": "3",
								"type": "t_uint256"
							},
							{
								"astId": 41,
								"contract": "LoadManager.sol:LoanManager",
								"label": "paybackAmount",
								"offset": 0,
								"slot": "4",
								"type": "t_uint256"
							}
						],
						"numberOfBytes": "160"
					},
					"t_struct(lendInfo)49_storage": {
						"encoding": "inplace",
						"label": "struct LoanManager.lendInfo",
						"members": [
							{
								"astId": 44,
								"contract": "LoadManager.sol:LoanManager",
								"label": "lendId",
								"offset": 0,
								"slot": "0",
								"type": "t_int256"
							},
							{
								"astId": 46,
								"contract": "LoadManager.sol:LoanManager",
								"label": "depositTime",
								"offset": 0,
								"slot": "1",
								"type": "t_uint256"
							},
							{
								"astId": 48,
								"contract": "LoadManager.sol:LoanManager",
								"label": "amount",
								"offset": 0,
								"slot": "2",
								"type": "t_uint256"
							}
						],
						"numberOfBytes": "96"
					},
					"t_uint256": {
						"encoding": "inplace",
						"label": "uint256",
						"numberOfBytes": "32"
					}
				}
			},
			"userdoc": {
				"kind": "user",
				"methods": {},
				"version": 1
			}
		}
	}
}