{
	"LoadManager.sol": {
		"LoanManager": {
			"abi": [
				{
					"inputs": [],
					"stateMutability": "nonpayable",
					"type": "constructor"
				},
				{
					"anonymous": false,
					"inputs": [
						{
							"indexed": false,
							"internalType": "address",
							"name": "who",
							"type": "address"
						},
						{
							"indexed": false,
							"internalType": "uint256",
							"name": "howMuch",
							"type": "uint256"
						},
						{
							"indexed": false,
							"internalType": "uint256",
							"name": "when",
							"type": "uint256"
						}
					],
					"name": "lendDone",
					"type": "event"
				},
				{
					"anonymous": false,
					"inputs": [
						{
							"indexed": false,
							"internalType": "address",
							"name": "who",
							"type": "address"
						},
						{
							"indexed": false,
							"internalType": "uint256",
							"name": "howMuch",
							"type": "uint256"
						},
						{
							"indexed": false,
							"internalType": "uint256",
							"name": "when",
							"type": "uint256"
						}
					],
					"name": "withdrawDone",
					"type": "event"
				},
				{
					"inputs": [
						{
							"internalType": "address",
							"name": "",
							"type": "address"
						},
						{
							"internalType": "int256",
							"name": "borrowId",
							"type": "int256"
						}
					],
					"name": "Borrower",
					"outputs": [
						{
							"internalType": "string",
							"name": "state",
							"type": "string"
						},
						{
							"internalType": "uint256",
							"name": "dueDate",
							"type": "uint256"
						},
						{
							"internalType": "uint256",
							"name": "APY",
							"type": "uint256"
						},
						{
							"internalType": "uint256",
							"name": "borrowAmount",
							"type": "uint256"
						},
						{
							"internalType": "uint256",
							"name": "paybackAmount",
							"type": "uint256"
						}
					],
					"stateMutability": "view",
					"type": "function"
				},
				{
					"inputs": [
						{
							"internalType": "address",
							"name": "",
							"type": "address"
						},
						{
							"internalType": "uint256",
							"name": "",
							"type": "uint256"
						}
					],
					"name": "Lender",
					"outputs": [
						{
							"internalType": "uint256",
							"name": "lendId",
							"type": "uint256"
						},
						{
							"internalType": "uint256",
							"name": "depositTime",
							"type": "uint256"
						},
						{
							"internalType": "uint256",
							"name": "amount",
							"type": "uint256"
						}
					],
					"stateMutability": "view",
					"type": "function"
				},
				{
					"inputs": [
						{
							"internalType": "address",
							"name": "",
							"type": "address"
						}
					],
					"name": "borrowCount",
					"outputs": [
						{
							"internalType": "int256",
							"name": "",
							"type": "int256"
						}
					],
					"stateMutability": "view",
					"type": "function"
				},
				{
					"inputs": [],
					"name": "borrowersCounter",
					"outputs": [
						{
							"internalType": "uint256",
							"name": "",
							"type": "uint256"
						}
					],
					"stateMutability": "view",
					"type": "function"
				},
				{
					"inputs": [],
					"name": "getContractBalance",
					"outputs": [
						{
							"internalType": "uint256",
							"name": "",
							"type": "uint256"
						}
					],
					"stateMutability": "view",
					"type": "function"
				},
				{
					"inputs": [],
					"name": "getUserBorrowerList",
					"outputs": [
						{
							"internalType": "address[]",
							"name": "",
							"type": "address[]"
						}
					],
					"stateMutability": "view",
					"type": "function"
				},
				{
					"inputs": [],
					"name": "getUserLendersList",
					"outputs": [
						{
							"internalType": "address[]",
							"name": "",
							"type": "address[]"
						}
					],
					"stateMutability": "view",
					"type": "function"
				},
				{
					"inputs": [
						{
							"internalType": "address",
							"name": "",
							"type": "address"
						}
					],
					"name": "interestMatured",
					"outputs": [
						{
							"internalType": "uint256",
							"name": "",
							"type": "uint256"
						}
					],
					"stateMutability": "view",
					"type": "function"
				},
				{
					"inputs": [
						{
							"internalType": "address",
							"name": "",
							"type": "address"
						}
					],
					"name": "isAddressActive",
					"outputs": [
						{
							"internalType": "bool",
							"name": "isActive",
							"type": "bool"
						}
					],
					"stateMutability": "view",
					"type": "function"
				},
				{
					"inputs": [],
					"name": "lend",
					"outputs": [],
					"stateMutability": "payable",
					"type": "function"
				},
				{
					"inputs": [],
					"name": "lendAPY",
					"outputs": [
						{
							"internalType": "uint256",
							"name": "",
							"type": "uint256"
						}
					],
					"stateMutability": "view",
					"type": "function"
				},
				{
					"inputs": [],
					"name": "lendersCounter",
					"outputs": [
						{
							"internalType": "uint256",
							"name": "",
							"type": "uint256"
						}
					],
					"stateMutability": "view",
					"type": "function"
				},
				{
					"inputs": [
						{
							"internalType": "address",
							"name": "",
							"type": "address"
						}
					],
					"name": "netPosition",
					"outputs": [
						{
							"internalType": "uint256",
							"name": "",
							"type": "uint256"
						}
					],
					"stateMutability": "view",
					"type": "function"
				},
				{
					"inputs": [
						{
							"internalType": "uint256",
							"name": "_weeks",
							"type": "uint256"
						},
						{
							"internalType": "uint256",
							"name": "amount",
							"type": "uint256"
						}
					],
					"name": "openBorrow",
					"outputs": [],
					"stateMutability": "payable",
					"type": "function"
				},
				{
					"inputs": [],
					"name": "owner",
					"outputs": [
						{
							"internalType": "address",
							"name": "",
							"type": "address"
						}
					],
					"stateMutability": "view",
					"type": "function"
				},
				{
					"inputs": [],
					"name": "updateInterestMatured",
					"outputs": [
						{
							"internalType": "uint256",
							"name": "",
							"type": "uint256"
						}
					],
					"stateMutability": "nonpayable",
					"type": "function"
				},
				{
					"inputs": [
						{
							"internalType": "uint256",
							"name": "amount",
							"type": "uint256"
						}
					],
					"name": "withdraw",
					"outputs": [],
					"stateMutability": "payable",
					"type": "function"
				},
				{
					"inputs": [],
					"name": "withdrawInterest",
					"outputs": [],
					"stateMutability": "nonpayable",
					"type": "function"
				}
			],
			"devdoc": {
				"kind": "dev",
				"methods": {},
				"version": 1
			},
			"evm": {
				"assembly": "    /* \"LoadManager.sol\":62:6039  contract LoanManager {... */\n  mstore(0x40, 0x80)\n    /* \"LoadManager.sol\":324:325  3 */\n  0x03\n    /* \"LoadManager.sol\":299:325  uint256 public lendAPY = 3 */\n  0x06\n  sstore\n    /* \"LoadManager.sol\":1030:1075  constructor() {... */\n  callvalue\n  dup1\n  iszero\n  tag_1\n  jumpi\n  revert(0x00, 0x00)\ntag_1:\n  pop\n    /* \"LoadManager.sol\":1059:1069  msg.sender */\n  caller\n    /* \"LoadManager.sol\":1051:1056  owner */\n  0x00\n  0x00\n    /* \"LoadManager.sol\":1051:1069  owner = msg.sender */\n  0x0100\n  exp\n  dup2\n  sload\n  dup2\n  0xffffffffffffffffffffffffffffffffffffffff\n  mul\n  not\n  and\n  swap1\n  dup4\n  0xffffffffffffffffffffffffffffffffffffffff\n  and\n  mul\n  or\n  swap1\n  sstore\n  pop\n    /* \"LoadManager.sol\":62:6039  contract LoanManager {... */\n  dataSize(sub_0)\n  dup1\n  dataOffset(sub_0)\n  0x00\n  codecopy\n  0x00\n  return\nstop\n\nsub_0: assembly {\n        /* \"LoadManager.sol\":62:6039  contract LoanManager {... */\n      mstore(0x40, 0x80)\n      jumpi(tag_1, lt(calldatasize, 0x04))\n      shr(0xe0, calldataload(0x00))\n      dup1\n      0x6f9fb98a\n      gt\n      tag_20\n      jumpi\n      dup1\n      0xcb50bb74\n      gt\n      tag_21\n      jumpi\n      dup1\n      0xcb50bb74\n      eq\n      tag_15\n      jumpi\n      dup1\n      0xd6020811\n      eq\n      tag_16\n      jumpi\n      dup1\n      0xdce8e848\n      eq\n      tag_17\n      jumpi\n      dup1\n      0xddd899a1\n      eq\n      tag_18\n      jumpi\n      dup1\n      0xff6d4f73\n      eq\n      tag_19\n      jumpi\n      jump(tag_1)\n    tag_21:\n      dup1\n      0x6f9fb98a\n      eq\n      tag_11\n      jumpi\n      dup1\n      0x71604909\n      eq\n      tag_12\n      jumpi\n      dup1\n      0x8da5cb5b\n      eq\n      tag_13\n      jumpi\n      dup1\n      0x97dffc61\n      eq\n      tag_14\n      jumpi\n      jump(tag_1)\n    tag_20:\n      dup1\n      0x2f1158f7\n      gt\n      tag_22\n      jumpi\n      dup1\n      0x2f1158f7\n      eq\n      tag_6\n      jumpi\n      dup1\n      0x33d5281f\n      eq\n      tag_7\n      jumpi\n      dup1\n      0x392f6356\n      eq\n      tag_8\n      jumpi\n      dup1\n      0x3e86e213\n      eq\n      tag_9\n      jumpi\n      dup1\n      0x65ad976e\n      eq\n      tag_10\n      jumpi\n      jump(tag_1)\n    tag_22:\n      dup1\n      0x63750c\n      eq\n      tag_2\n      jumpi\n      dup1\n      0x11c6bf8f\n      eq\n      tag_3\n      jumpi\n      dup1\n      0x26a39c07\n      eq\n      tag_4\n      jumpi\n      dup1\n      0x2e1a7d4d\n      eq\n      tag_5\n      jumpi\n    tag_1:\n      revert(0x00, 0x00)\n        /* \"LoadManager.sol\":4886:5184  function withdrawInterest() public {... */\n    tag_2:\n      callvalue\n      dup1\n      iszero\n      tag_23\n      jumpi\n      revert(0x00, 0x00)\n    tag_23:\n      pop\n      tag_24\n      tag_25\n      jump\t// in\n    tag_24:\n      stop\n        /* \"LoadManager.sol\":679:753  mapping(address => mapping(int256 borrowId => borrowInfo)) public Borrower */\n    tag_3:\n      callvalue\n      dup1\n      iszero\n      tag_26\n      jumpi\n      revert(0x00, 0x00)\n    tag_26:\n      pop\n      tag_27\n      0x04\n      dup1\n      calldatasize\n      sub\n      dup2\n      add\n      swap1\n      tag_28\n      swap2\n      swap1\n      tag_29\n      jump\t// in\n    tag_28:\n      tag_30\n      jump\t// in\n    tag_27:\n      mload(0x40)\n      tag_31\n      swap6\n      swap5\n      swap4\n      swap3\n      swap2\n      swap1\n      tag_32\n      jump\t// in\n    tag_31:\n      mload(0x40)\n      dup1\n      swap2\n      sub\n      swap1\n      return\n        /* \"LoadManager.sol\":859:909  mapping(address => uint256) public interestMatured */\n    tag_4:\n      callvalue\n      dup1\n      iszero\n      tag_33\n      jumpi\n      revert(0x00, 0x00)\n    tag_33:\n      pop\n      tag_34\n      0x04\n      dup1\n      calldatasize\n      sub\n      dup2\n      add\n      swap1\n      tag_35\n      swap2\n      swap1\n      tag_36\n      jump\t// in\n    tag_35:\n      tag_37\n      jump\t// in\n    tag_34:\n      mload(0x40)\n      tag_38\n      swap2\n      swap1\n      tag_39\n      jump\t// in\n    tag_38:\n      mload(0x40)\n      dup1\n      swap2\n      sub\n      swap1\n      return\n        /* \"LoadManager.sol\":4096:4880  function withdraw(uint256 amount) public payable checkNetPosition(amount) {... */\n    tag_5:\n      tag_40\n      0x04\n      dup1\n      calldatasize\n      sub\n      dup2\n      add\n      swap1\n      tag_41\n      swap2\n      swap1\n      tag_42\n      jump\t// in\n    tag_41:\n      tag_43\n      jump\t// in\n    tag_40:\n      stop\n        /* \"LoadManager.sol\":967:1023  mapping(address => bool isActive) public isAddressActive */\n    tag_6:\n      callvalue\n      dup1\n      iszero\n      tag_44\n      jumpi\n      revert(0x00, 0x00)\n    tag_44:\n      pop\n      tag_45\n      0x04\n      dup1\n      calldatasize\n      sub\n      dup2\n      add\n      swap1\n      tag_46\n      swap2\n      swap1\n      tag_36\n      jump\t// in\n    tag_46:\n      tag_47\n      jump\t// in\n    tag_45:\n      mload(0x40)\n      tag_48\n      swap2\n      swap1\n      tag_49\n      jump\t// in\n    tag_48:\n      mload(0x40)\n      dup1\n      swap2\n      sub\n      swap1\n      return\n        /* \"LoadManager.sol\":5190:6036  function openBorrow(... */\n    tag_7:\n      tag_50\n      0x04\n      dup1\n      calldatasize\n      sub\n      dup2\n      add\n      swap1\n      tag_51\n      swap2\n      swap1\n      tag_52\n      jump\t// in\n    tag_51:\n      tag_53\n      jump\t// in\n    tag_50:\n      stop\n        /* \"LoadManager.sol\":3416:3520  function updateInterestMatured() public returns (uint256) {... */\n    tag_8:\n      callvalue\n      dup1\n      iszero\n      tag_54\n      jumpi\n      revert(0x00, 0x00)\n    tag_54:\n      pop\n      tag_55\n      tag_56\n      jump\t// in\n    tag_55:\n      mload(0x40)\n      tag_57\n      swap2\n      swap1\n      tag_39\n      jump\t// in\n    tag_57:\n      mload(0x40)\n      dup1\n      swap2\n      sub\n      swap1\n      return\n        /* \"LoadManager.sol\":1081:1188  function getUserBorrowerList() public view returns (address[] memory) {... */\n    tag_9:\n      callvalue\n      dup1\n      iszero\n      tag_58\n      jumpi\n      revert(0x00, 0x00)\n    tag_58:\n      pop\n      tag_59\n      tag_60\n      jump\t// in\n    tag_59:\n      mload(0x40)\n      tag_61\n      swap2\n      swap1\n      tag_62\n      jump\t// in\n    tag_61:\n      mload(0x40)\n      dup1\n      swap2\n      sub\n      swap1\n      return\n        /* \"LoadManager.sol\":299:325  uint256 public lendAPY = 3 */\n    tag_10:\n      callvalue\n      dup1\n      iszero\n      tag_63\n      jumpi\n      revert(0x00, 0x00)\n    tag_63:\n      pop\n      tag_64\n      tag_65\n      jump\t// in\n    tag_64:\n      mload(0x40)\n      tag_66\n      swap2\n      swap1\n      tag_39\n      jump\t// in\n    tag_66:\n      mload(0x40)\n      dup1\n      swap2\n      sub\n      swap1\n      return\n        /* \"LoadManager.sol\":332:433  function getContractBalance() public view returns (uint256) {... */\n    tag_11:\n      callvalue\n      dup1\n      iszero\n      tag_67\n      jumpi\n      revert(0x00, 0x00)\n    tag_67:\n      pop\n      tag_68\n      tag_69\n      jump\t// in\n    tag_68:\n      mload(0x40)\n      tag_70\n      swap2\n      swap1\n      tag_39\n      jump\t// in\n    tag_70:\n      mload(0x40)\n      dup1\n      swap2\n      sub\n      swap1\n      return\n        /* \"LoadManager.sol\":758:803  mapping(address => int256) public borrowCount */\n    tag_12:\n      callvalue\n      dup1\n      iszero\n      tag_71\n      jumpi\n      revert(0x00, 0x00)\n    tag_71:\n      pop\n      tag_72\n      0x04\n      dup1\n      calldatasize\n      sub\n      dup2\n      add\n      swap1\n      tag_73\n      swap2\n      swap1\n      tag_36\n      jump\t// in\n    tag_73:\n      tag_74\n      jump\t// in\n    tag_72:\n      mload(0x40)\n      tag_75\n      swap2\n      swap1\n      tag_76\n      jump\t// in\n    tag_75:\n      mload(0x40)\n      dup1\n      swap2\n      sub\n      swap1\n      return\n        /* \"LoadManager.sol\":88:108  address public owner */\n    tag_13:\n      callvalue\n      dup1\n      iszero\n      tag_77\n      jumpi\n      revert(0x00, 0x00)\n    tag_77:\n      pop\n      tag_78\n      tag_79\n      jump\t// in\n    tag_78:\n      mload(0x40)\n      tag_80\n      swap2\n      swap1\n      tag_81\n      jump\t// in\n    tag_80:\n      mload(0x40)\n      dup1\n      swap2\n      sub\n      swap1\n      return\n        /* \"LoadManager.sol\":2954:3410  function lend() public payable checkMinimalLend {... */\n    tag_14:\n      tag_82\n      tag_83\n      jump\t// in\n    tag_82:\n      stop\n        /* \"LoadManager.sol\":265:294  uint256 public lendersCounter */\n    tag_15:\n      callvalue\n      dup1\n      iszero\n      tag_84\n      jumpi\n      revert(0x00, 0x00)\n    tag_84:\n      pop\n      tag_85\n      tag_86\n      jump\t// in\n    tag_85:\n      mload(0x40)\n      tag_87\n      swap2\n      swap1\n      tag_39\n      jump\t// in\n    tag_87:\n      mload(0x40)\n      dup1\n      swap2\n      sub\n      swap1\n      return\n        /* \"LoadManager.sol\":1194:1298  function getUserLendersList() public view returns (address[] memory) {... */\n    tag_16:\n      callvalue\n      dup1\n      iszero\n      tag_88\n      jumpi\n      revert(0x00, 0x00)\n    tag_88:\n      pop\n      tag_89\n      tag_90\n      jump\t// in\n    tag_89:\n      mload(0x40)\n      tag_91\n      swap2\n      swap1\n      tag_62\n      jump\t// in\n    tag_91:\n      mload(0x40)\n      dup1\n      swap2\n      sub\n      swap1\n      return\n        /* \"LoadManager.sol\":916:962  mapping(address => uint256) public netPosition */\n    tag_17:\n      callvalue\n      dup1\n      iszero\n      tag_92\n      jumpi\n      revert(0x00, 0x00)\n    tag_92:\n      pop\n      tag_93\n      0x04\n      dup1\n      calldatasize\n      sub\n      dup2\n      add\n      swap1\n      tag_94\n      swap2\n      swap1\n      tag_36\n      jump\t// in\n    tag_94:\n      tag_95\n      jump\t// in\n    tag_93:\n      mload(0x40)\n      tag_96\n      swap2\n      swap1\n      tag_39\n      jump\t// in\n    tag_96:\n      mload(0x40)\n      dup1\n      swap2\n      sub\n      swap1\n      return\n        /* \"LoadManager.sol\":229:260  uint256 public borrowersCounter */\n    tag_18:\n      callvalue\n      dup1\n      iszero\n      tag_97\n      jumpi\n      revert(0x00, 0x00)\n    tag_97:\n      pop\n      tag_98\n      tag_99\n      jump\t// in\n    tag_98:\n      mload(0x40)\n      tag_100\n      swap2\n      swap1\n      tag_39\n      jump\t// in\n    tag_100:\n      mload(0x40)\n      dup1\n      swap2\n      sub\n      swap1\n      return\n        /* \"LoadManager.sol\":810:854  mapping(address => lendInfo[]) public Lender */\n    tag_19:\n      callvalue\n      dup1\n      iszero\n      tag_101\n      jumpi\n      revert(0x00, 0x00)\n    tag_101:\n      pop\n      tag_102\n      0x04\n      dup1\n      calldatasize\n      sub\n      dup2\n      add\n      swap1\n      tag_103\n      swap2\n      swap1\n      tag_104\n      jump\t// in\n    tag_103:\n      tag_105\n      jump\t// in\n    tag_102:\n      mload(0x40)\n      tag_106\n      swap4\n      swap3\n      swap2\n      swap1\n      tag_107\n      jump\t// in\n    tag_106:\n      mload(0x40)\n      dup1\n      swap2\n      sub\n      swap1\n      return\n        /* \"LoadManager.sol\":4886:5184  function withdrawInterest() public {... */\n    tag_25:\n        /* \"LoadManager.sol\":4933:4942  uint256 i */\n      0x00\n        /* \"LoadManager.sol\":4945:4946  0 */\n      0x00\n        /* \"LoadManager.sol\":4933:4946  uint256 i = 0 */\n      swap1\n      pop\n        /* \"LoadManager.sol\":4928:5052  for (uint256 i = 0; Lender[msg.sender].length > i; i++) {... */\n    tag_109:\n        /* \"LoadManager.sol\":4976:4977  i */\n      dup1\n        /* \"LoadManager.sol\":4948:4954  Lender */\n      0x09\n        /* \"LoadManager.sol\":4948:4966  Lender[msg.sender] */\n      0x00\n        /* \"LoadManager.sol\":4955:4965  msg.sender */\n      caller\n        /* \"LoadManager.sol\":4948:4966  Lender[msg.sender] */\n      0xffffffffffffffffffffffffffffffffffffffff\n      and\n      0xffffffffffffffffffffffffffffffffffffffff\n      and\n      dup2\n      mstore\n      0x20\n      add\n      swap1\n      dup2\n      mstore\n      0x20\n      add\n      0x00\n      keccak256\n        /* \"LoadManager.sol\":4948:4973  Lender[msg.sender].length */\n      dup1\n      sload\n      swap1\n      pop\n        /* \"LoadManager.sol\":4948:4977  Lender[msg.sender].length > i */\n      gt\n        /* \"LoadManager.sol\":4928:5052  for (uint256 i = 0; Lender[msg.sender].length > i; i++) {... */\n      iszero\n      tag_110\n      jumpi\n        /* \"LoadManager.sol\":5029:5044  block.timestamp */\n      timestamp\n        /* \"LoadManager.sol\":4993:4999  Lender */\n      0x09\n        /* \"LoadManager.sol\":4993:5011  Lender[msg.sender] */\n      0x00\n        /* \"LoadManager.sol\":5000:5010  msg.sender */\n      caller\n        /* \"LoadManager.sol\":4993:5011  Lender[msg.sender] */\n      0xffffffffffffffffffffffffffffffffffffffff\n      and\n      0xffffffffffffffffffffffffffffffffffffffff\n      and\n      dup2\n      mstore\n      0x20\n      add\n      swap1\n      dup2\n      mstore\n      0x20\n      add\n      0x00\n      keccak256\n        /* \"LoadManager.sol\":5012:5013  i */\n      dup3\n        /* \"LoadManager.sol\":4993:5014  Lender[msg.sender][i] */\n      dup2\n      sload\n      dup2\n      lt\n      tag_112\n      jumpi\n      tag_113\n      tag_114\n      jump\t// in\n    tag_113:\n    tag_112:\n      swap1\n      0x00\n      mstore\n      keccak256(0x00, 0x20)\n      swap1\n      0x03\n      mul\n      add\n        /* \"LoadManager.sol\":4993:5026  Lender[msg.sender][i].depositTime */\n      0x01\n      add\n        /* \"LoadManager.sol\":4993:5044  Lender[msg.sender][i].depositTime = block.timestamp */\n      dup2\n      swap1\n      sstore\n      pop\n        /* \"LoadManager.sol\":4979:4982  i++ */\n      dup1\n      dup1\n      tag_116\n      swap1\n      tag_117\n      jump\t// in\n    tag_116:\n      swap2\n      pop\n      pop\n        /* \"LoadManager.sol\":4928:5052  for (uint256 i = 0; Lender[msg.sender].length > i; i++) {... */\n      jump(tag_109)\n    tag_110:\n      pop\n        /* \"LoadManager.sol\":5059:5071  bool success */\n      0x00\n        /* \"LoadManager.sol\":5077:5087  msg.sender */\n      caller\n        /* \"LoadManager.sol\":5077:5092  msg.sender.call */\n      0xffffffffffffffffffffffffffffffffffffffff\n      and\n        /* \"LoadManager.sol\":5101:5127  calculateInterestMatured() */\n      tag_118\n        /* \"LoadManager.sol\":5101:5125  calculateInterestMatured */\n      tag_119\n        /* \"LoadManager.sol\":5101:5127  calculateInterestMatured() */\n      jump\t// in\n    tag_118:\n        /* \"LoadManager.sol\":5077:5133  msg.sender.call{ value: calculateInterestMatured() }('') */\n      mload(0x40)\n      tag_120\n      swap1\n      tag_121\n      jump\t// in\n    tag_120:\n      0x00\n      mload(0x40)\n      dup1\n      dup4\n      sub\n      dup2\n      dup6\n      dup8\n      gas\n      call\n      swap3\n      pop\n      pop\n      pop\n      returndatasize\n      dup1\n      0x00\n      dup2\n      eq\n      tag_124\n      jumpi\n      mload(0x40)\n      swap2\n      pop\n      and(add(returndatasize, 0x3f), not(0x1f))\n      dup3\n      add\n      0x40\n      mstore\n      returndatasize\n      dup3\n      mstore\n      returndatasize\n      0x00\n      0x20\n      dup5\n      add\n      returndatacopy\n      jump(tag_123)\n    tag_124:\n      0x60\n      swap2\n      pop\n    tag_123:\n      pop\n        /* \"LoadManager.sol\":5058:5133  (bool success, ) = msg.sender.call{ value: calculateInterestMatured() }('') */\n      pop\n      swap1\n      pop\n        /* \"LoadManager.sol\":5148:5155  success */\n      dup1\n        /* \"LoadManager.sol\":5140:5178  require(success, 'Transaction failed') */\n      tag_125\n      jumpi\n      mload(0x40)\n      0x08c379a000000000000000000000000000000000000000000000000000000000\n      dup2\n      mstore\n      0x04\n      add\n      tag_126\n      swap1\n      tag_127\n      jump\t// in\n    tag_126:\n      mload(0x40)\n      dup1\n      swap2\n      sub\n      swap1\n      revert\n    tag_125:\n        /* \"LoadManager.sol\":4921:5184  {... */\n      pop\n        /* \"LoadManager.sol\":4886:5184  function withdrawInterest() public {... */\n      jump\t// out\n        /* \"LoadManager.sol\":679:753  mapping(address => mapping(int256 borrowId => borrowInfo)) public Borrower */\n    tag_30:\n      mstore(0x20, 0x07)\n      dup2\n      0x00\n      mstore\n      mstore(0x20, keccak256(0x00, 0x40))\n      dup1\n      0x00\n      mstore\n      keccak256(0x00, 0x40)\n      0x00\n      swap2\n      pop\n      swap2\n      pop\n      pop\n      dup1\n      0x00\n      add\n      dup1\n      sload\n      tag_128\n      swap1\n      tag_129\n      jump\t// in\n    tag_128:\n      dup1\n      0x1f\n      add\n      0x20\n      dup1\n      swap2\n      div\n      mul\n      0x20\n      add\n      mload(0x40)\n      swap1\n      dup2\n      add\n      0x40\n      mstore\n      dup1\n      swap3\n      swap2\n      swap1\n      dup2\n      dup2\n      mstore\n      0x20\n      add\n      dup3\n      dup1\n      sload\n      tag_130\n      swap1\n      tag_129\n      jump\t// in\n    tag_130:\n      dup1\n      iszero\n      tag_131\n      jumpi\n      dup1\n      0x1f\n      lt\n      tag_132\n      jumpi\n      0x0100\n      dup1\n      dup4\n      sload\n      div\n      mul\n      dup4\n      mstore\n      swap2\n      0x20\n      add\n      swap2\n      jump(tag_131)\n    tag_132:\n      dup3\n      add\n      swap2\n      swap1\n      0x00\n      mstore\n      keccak256(0x00, 0x20)\n      swap1\n    tag_133:\n      dup2\n      sload\n      dup2\n      mstore\n      swap1\n      0x01\n      add\n      swap1\n      0x20\n      add\n      dup1\n      dup4\n      gt\n      tag_133\n      jumpi\n      dup3\n      swap1\n      sub\n      0x1f\n      and\n      dup3\n      add\n      swap2\n    tag_131:\n      pop\n      pop\n      pop\n      pop\n      pop\n      swap1\n      dup1\n      0x01\n      add\n      sload\n      swap1\n      dup1\n      0x02\n      add\n      sload\n      swap1\n      dup1\n      0x03\n      add\n      sload\n      swap1\n      dup1\n      0x04\n      add\n      sload\n      swap1\n      pop\n      dup6\n      jump\t// out\n        /* \"LoadManager.sol\":859:909  mapping(address => uint256) public interestMatured */\n    tag_37:\n      mstore(0x20, 0x0a)\n      dup1\n      0x00\n      mstore\n      keccak256(0x00, 0x40)\n      0x00\n      swap2\n      pop\n      swap1\n      pop\n      sload\n      dup2\n      jump\t// out\n        /* \"LoadManager.sol\":4096:4880  function withdraw(uint256 amount) public payable checkNetPosition(amount) {... */\n    tag_43:\n        /* \"LoadManager.sol\":4162:4168  amount */\n      dup1\n        /* \"LoadManager.sol\":2833:2839  amount */\n      dup1\n        /* \"LoadManager.sol\":2806:2817  netPosition */\n      0x0b\n        /* \"LoadManager.sol\":2806:2829  netPosition[msg.sender] */\n      0x00\n        /* \"LoadManager.sol\":2818:2828  msg.sender */\n      caller\n        /* \"LoadManager.sol\":2806:2829  netPosition[msg.sender] */\n      0xffffffffffffffffffffffffffffffffffffffff\n      and\n      0xffffffffffffffffffffffffffffffffffffffff\n      and\n      dup2\n      mstore\n      0x20\n      add\n      swap1\n      dup2\n      mstore\n      0x20\n      add\n      0x00\n      keccak256\n      sload\n        /* \"LoadManager.sol\":2806:2839  netPosition[msg.sender] >= amount */\n      lt\n      iszero\n        /* \"LoadManager.sol\":2798:2869  require(netPosition[msg.sender] >= amount, 'Excedeed maximum withdraw') */\n      tag_135\n      jumpi\n      mload(0x40)\n      0x08c379a000000000000000000000000000000000000000000000000000000000\n      dup2\n      mstore\n      0x04\n      add\n      tag_136\n      swap1\n      tag_137\n      jump\t// in\n    tag_136:\n      mload(0x40)\n      dup1\n      swap2\n      sub\n      swap1\n      revert\n    tag_135:\n        /* \"LoadManager.sol\":4177:4199  uint256 startingAmount */\n      0x00\n        /* \"LoadManager.sol\":4202:4208  amount */\n      dup3\n        /* \"LoadManager.sol\":4177:4208  uint256 startingAmount = amount */\n      swap1\n      pop\n        /* \"LoadManager.sol\":4220:4229  uint256 i */\n      0x00\n        /* \"LoadManager.sol\":4232:4233  0 */\n      0x00\n        /* \"LoadManager.sol\":4220:4233  uint256 i = 0 */\n      swap1\n      pop\n        /* \"LoadManager.sol\":4215:4557  for (uint256 i = 0; i < Lender[msg.sender].length; i++) {... */\n    tag_139:\n        /* \"LoadManager.sol\":4239:4245  Lender */\n      0x09\n        /* \"LoadManager.sol\":4239:4257  Lender[msg.sender] */\n      0x00\n        /* \"LoadManager.sol\":4246:4256  msg.sender */\n      caller\n        /* \"LoadManager.sol\":4239:4257  Lender[msg.sender] */\n      0xffffffffffffffffffffffffffffffffffffffff\n      and\n      0xffffffffffffffffffffffffffffffffffffffff\n      and\n      dup2\n      mstore\n      0x20\n      add\n      swap1\n      dup2\n      mstore\n      0x20\n      add\n      0x00\n      keccak256\n        /* \"LoadManager.sol\":4239:4264  Lender[msg.sender].length */\n      dup1\n      sload\n      swap1\n      pop\n        /* \"LoadManager.sol\":4235:4236  i */\n      dup2\n        /* \"LoadManager.sol\":4235:4264  i < Lender[msg.sender].length */\n      lt\n        /* \"LoadManager.sol\":4215:4557  for (uint256 i = 0; i < Lender[msg.sender].length; i++) {... */\n      iszero\n      tag_140\n      jumpi\n        /* \"LoadManager.sol\":4293:4299  Lender */\n      0x09\n        /* \"LoadManager.sol\":4293:4311  Lender[msg.sender] */\n      0x00\n        /* \"LoadManager.sol\":4300:4310  msg.sender */\n      caller\n        /* \"LoadManager.sol\":4293:4311  Lender[msg.sender] */\n      0xffffffffffffffffffffffffffffffffffffffff\n      and\n      0xffffffffffffffffffffffffffffffffffffffff\n      and\n      dup2\n      mstore\n      0x20\n      add\n      swap1\n      dup2\n      mstore\n      0x20\n      add\n      0x00\n      keccak256\n        /* \"LoadManager.sol\":4312:4313  i */\n      dup2\n        /* \"LoadManager.sol\":4293:4314  Lender[msg.sender][i] */\n      dup2\n      sload\n      dup2\n      lt\n      tag_142\n      jumpi\n      tag_143\n      tag_114\n      jump\t// in\n    tag_143:\n    tag_142:\n      swap1\n      0x00\n      mstore\n      keccak256(0x00, 0x20)\n      swap1\n      0x03\n      mul\n      add\n        /* \"LoadManager.sol\":4293:4321  Lender[msg.sender][i].amount */\n      0x02\n      add\n      sload\n        /* \"LoadManager.sol\":4284:4290  amount */\n      dup5\n        /* \"LoadManager.sol\":4284:4321  amount > Lender[msg.sender][i].amount */\n      gt\n        /* \"LoadManager.sol\":4280:4550  if (amount > Lender[msg.sender][i].amount) {... */\n      iszero\n      tag_145\n      jumpi\n        /* \"LoadManager.sol\":4344:4350  Lender */\n      0x09\n        /* \"LoadManager.sol\":4344:4362  Lender[msg.sender] */\n      0x00\n        /* \"LoadManager.sol\":4351:4361  msg.sender */\n      caller\n        /* \"LoadManager.sol\":4344:4362  Lender[msg.sender] */\n      0xffffffffffffffffffffffffffffffffffffffff\n      and\n      0xffffffffffffffffffffffffffffffffffffffff\n      and\n      dup2\n      mstore\n      0x20\n      add\n      swap1\n      dup2\n      mstore\n      0x20\n      add\n      0x00\n      keccak256\n        /* \"LoadManager.sol\":4363:4364  i */\n      dup2\n        /* \"LoadManager.sol\":4344:4365  Lender[msg.sender][i] */\n      dup2\n      sload\n      dup2\n      lt\n      tag_146\n      jumpi\n      tag_147\n      tag_114\n      jump\t// in\n    tag_147:\n    tag_146:\n      swap1\n      0x00\n      mstore\n      keccak256(0x00, 0x20)\n      swap1\n      0x03\n      mul\n      add\n        /* \"LoadManager.sol\":4344:4372  Lender[msg.sender][i].amount */\n      0x02\n      add\n      sload\n        /* \"LoadManager.sol\":4334:4372  amount -= Lender[msg.sender][i].amount */\n      dup5\n      tag_149\n      swap2\n      swap1\n      tag_150\n      jump\t// in\n    tag_149:\n      swap4\n      pop\n        /* \"LoadManager.sol\":4414:4415  0 */\n      0x00\n        /* \"LoadManager.sol\":4383:4389  Lender */\n      0x09\n        /* \"LoadManager.sol\":4383:4401  Lender[msg.sender] */\n      0x00\n        /* \"LoadManager.sol\":4390:4400  msg.sender */\n      caller\n        /* \"LoadManager.sol\":4383:4401  Lender[msg.sender] */\n      0xffffffffffffffffffffffffffffffffffffffff\n      and\n      0xffffffffffffffffffffffffffffffffffffffff\n      and\n      dup2\n      mstore\n      0x20\n      add\n      swap1\n      dup2\n      mstore\n      0x20\n      add\n      0x00\n      keccak256\n        /* \"LoadManager.sol\":4402:4403  i */\n      dup3\n        /* \"LoadManager.sol\":4383:4404  Lender[msg.sender][i] */\n      dup2\n      sload\n      dup2\n      lt\n      tag_151\n      jumpi\n      tag_152\n      tag_114\n      jump\t// in\n    tag_152:\n    tag_151:\n      swap1\n      0x00\n      mstore\n      keccak256(0x00, 0x20)\n      swap1\n      0x03\n      mul\n      add\n        /* \"LoadManager.sol\":4383:4411  Lender[msg.sender][i].amount */\n      0x02\n      add\n        /* \"LoadManager.sol\":4383:4415  Lender[msg.sender][i].amount = 0 */\n      dup2\n      swap1\n      sstore\n      pop\n        /* \"LoadManager.sol\":4280:4550  if (amount > Lender[msg.sender][i].amount) {... */\n      jump(tag_154)\n    tag_145:\n        /* \"LoadManager.sol\":4467:4473  amount */\n      dup4\n        /* \"LoadManager.sol\":4435:4441  Lender */\n      0x09\n        /* \"LoadManager.sol\":4435:4453  Lender[msg.sender] */\n      0x00\n        /* \"LoadManager.sol\":4442:4452  msg.sender */\n      caller\n        /* \"LoadManager.sol\":4435:4453  Lender[msg.sender] */\n      0xffffffffffffffffffffffffffffffffffffffff\n      and\n      0xffffffffffffffffffffffffffffffffffffffff\n      and\n      dup2\n      mstore\n      0x20\n      add\n      swap1\n      dup2\n      mstore\n      0x20\n      add\n      0x00\n      keccak256\n        /* \"LoadManager.sol\":4454:4455  i */\n      dup3\n        /* \"LoadManager.sol\":4435:4456  Lender[msg.sender][i] */\n      dup2\n      sload\n      dup2\n      lt\n      tag_155\n      jumpi\n      tag_156\n      tag_114\n      jump\t// in\n    tag_156:\n    tag_155:\n      swap1\n      0x00\n      mstore\n      keccak256(0x00, 0x20)\n      swap1\n      0x03\n      mul\n      add\n        /* \"LoadManager.sol\":4435:4463  Lender[msg.sender][i].amount */\n      0x02\n      add\n      sload\n        /* \"LoadManager.sol\":4435:4473  Lender[msg.sender][i].amount >= amount */\n      lt\n        /* \"LoadManager.sol\":4431:4550  if (Lender[msg.sender][i].amount >= amount) {... */\n      tag_158\n      jumpi\n        /* \"LoadManager.sol\":4518:4524  amount */\n      dup4\n        /* \"LoadManager.sol\":4486:4492  Lender */\n      0x09\n        /* \"LoadManager.sol\":4486:4504  Lender[msg.sender] */\n      0x00\n        /* \"LoadManager.sol\":4493:4503  msg.sender */\n      caller\n        /* \"LoadManager.sol\":4486:4504  Lender[msg.sender] */\n      0xffffffffffffffffffffffffffffffffffffffff\n      and\n      0xffffffffffffffffffffffffffffffffffffffff\n      and\n      dup2\n      mstore\n      0x20\n      add\n      swap1\n      dup2\n      mstore\n      0x20\n      add\n      0x00\n      keccak256\n        /* \"LoadManager.sol\":4505:4506  i */\n      dup3\n        /* \"LoadManager.sol\":4486:4507  Lender[msg.sender][i] */\n      dup2\n      sload\n      dup2\n      lt\n      tag_159\n      jumpi\n      tag_160\n      tag_114\n      jump\t// in\n    tag_160:\n    tag_159:\n      swap1\n      0x00\n      mstore\n      keccak256(0x00, 0x20)\n      swap1\n      0x03\n      mul\n      add\n        /* \"LoadManager.sol\":4486:4514  Lender[msg.sender][i].amount */\n      0x02\n      add\n      0x00\n        /* \"LoadManager.sol\":4486:4524  Lender[msg.sender][i].amount -= amount */\n      dup3\n      dup3\n      sload\n      tag_162\n      swap2\n      swap1\n      tag_150\n      jump\t// in\n    tag_162:\n      swap3\n      pop\n      pop\n      dup2\n      swap1\n      sstore\n      pop\n        /* \"LoadManager.sol\":4535:4540  break */\n      jump(tag_140)\n        /* \"LoadManager.sol\":4431:4550  if (Lender[msg.sender][i].amount >= amount) {... */\n    tag_158:\n        /* \"LoadManager.sol\":4280:4550  if (amount > Lender[msg.sender][i].amount) {... */\n    tag_154:\n        /* \"LoadManager.sol\":4266:4269  i++ */\n      dup1\n      dup1\n      0x01\n      add\n      swap2\n      pop\n      pop\n        /* \"LoadManager.sol\":4215:4557  for (uint256 i = 0; i < Lender[msg.sender].length; i++) {... */\n      jump(tag_139)\n    tag_140:\n      pop\n        /* \"LoadManager.sol\":4590:4604  startingAmount */\n      dup1\n        /* \"LoadManager.sol\":4563:4574  netPosition */\n      0x0b\n        /* \"LoadManager.sol\":4563:4586  netPosition[msg.sender] */\n      0x00\n        /* \"LoadManager.sol\":4575:4585  msg.sender */\n      caller\n        /* \"LoadManager.sol\":4563:4586  netPosition[msg.sender] */\n      0xffffffffffffffffffffffffffffffffffffffff\n      and\n      0xffffffffffffffffffffffffffffffffffffffff\n      and\n      dup2\n      mstore\n      0x20\n      add\n      swap1\n      dup2\n      mstore\n      0x20\n      add\n      0x00\n      keccak256\n      0x00\n        /* \"LoadManager.sol\":4563:4604  netPosition[msg.sender] -= startingAmount */\n      dup3\n      dup3\n      sload\n      tag_163\n      swap2\n      swap1\n      tag_150\n      jump\t// in\n    tag_163:\n      swap3\n      pop\n      pop\n      dup2\n      swap1\n      sstore\n      pop\n        /* \"LoadManager.sol\":4612:4623  bool result */\n      0x00\n        /* \"LoadManager.sol\":4637:4647  msg.sender */\n      caller\n        /* \"LoadManager.sol\":4629:4653  payable(msg.sender).call */\n      0xffffffffffffffffffffffffffffffffffffffff\n      and\n        /* \"LoadManager.sol\":4662:4676  startingAmount */\n      dup3\n        /* \"LoadManager.sol\":4629:4682  payable(msg.sender).call{ value: startingAmount }('') */\n      mload(0x40)\n      tag_164\n      swap1\n      tag_121\n      jump\t// in\n    tag_164:\n      0x00\n      mload(0x40)\n      dup1\n      dup4\n      sub\n      dup2\n      dup6\n      dup8\n      gas\n      call\n      swap3\n      pop\n      pop\n      pop\n      returndatasize\n      dup1\n      0x00\n      dup2\n      eq\n      tag_167\n      jumpi\n      mload(0x40)\n      swap2\n      pop\n      and(add(returndatasize, 0x3f), not(0x1f))\n      dup3\n      add\n      0x40\n      mstore\n      returndatasize\n      dup3\n      mstore\n      returndatasize\n      0x00\n      0x20\n      dup5\n      add\n      returndatacopy\n      jump(tag_166)\n    tag_167:\n      0x60\n      swap2\n      pop\n    tag_166:\n      pop\n        /* \"LoadManager.sol\":4611:4682  (bool result, ) = payable(msg.sender).call{ value: startingAmount }('') */\n      pop\n      swap1\n      pop\n        /* \"LoadManager.sol\":4697:4703  result */\n      dup1\n        /* \"LoadManager.sol\":4689:4726  require(result, 'Transaction failed') */\n      tag_168\n      jumpi\n      mload(0x40)\n      0x08c379a000000000000000000000000000000000000000000000000000000000\n      dup2\n      mstore\n      0x04\n      add\n      tag_169\n      swap1\n      tag_127\n      jump\t// in\n    tag_169:\n      mload(0x40)\n      dup1\n      swap2\n      sub\n      swap1\n      revert\n    tag_168:\n        /* \"LoadManager.sol\":4751:4752  0 */\n      0x00\n        /* \"LoadManager.sol\":4741:4747  amount */\n      dup5\n        /* \"LoadManager.sol\":4741:4752  amount == 0 */\n      eq\n        /* \"LoadManager.sol\":4733:4805  require(amount == 0, 'Not enough funds in deposits to cover withdrawal') */\n      tag_170\n      jumpi\n      mload(0x40)\n      0x08c379a000000000000000000000000000000000000000000000000000000000\n      dup2\n      mstore\n      0x04\n      add\n      tag_171\n      swap1\n      tag_172\n      jump\t// in\n    tag_171:\n      mload(0x40)\n      dup1\n      swap2\n      sub\n      swap1\n      revert\n    tag_170:\n        /* \"LoadManager.sol\":4817:4874  withdrawDone(msg.sender, startingAmount, block.timestamp) */\n      0x4061a3c2fb8ed4fa13eb41ac8af4b4b8f67955285ea176d176be39483c38136a\n        /* \"LoadManager.sol\":4830:4840  msg.sender */\n      caller\n        /* \"LoadManager.sol\":4842:4856  startingAmount */\n      dup4\n        /* \"LoadManager.sol\":4858:4873  block.timestamp */\n      timestamp\n        /* \"LoadManager.sol\":4817:4874  withdrawDone(msg.sender, startingAmount, block.timestamp) */\n      mload(0x40)\n      tag_173\n      swap4\n      swap3\n      swap2\n      swap1\n      tag_174\n      jump\t// in\n    tag_173:\n      mload(0x40)\n      dup1\n      swap2\n      sub\n      swap1\n      log1\n        /* \"LoadManager.sol\":4170:4880  {... */\n      pop\n      pop\n        /* \"LoadManager.sol\":4096:4880  function withdraw(uint256 amount) public payable checkNetPosition(amount) {... */\n      pop\n      pop\n      jump\t// out\n        /* \"LoadManager.sol\":967:1023  mapping(address => bool isActive) public isAddressActive */\n    tag_47:\n      mstore(0x20, 0x0c)\n      dup1\n      0x00\n      mstore\n      keccak256(0x00, 0x40)\n      0x00\n      swap2\n      pop\n      sload\n      swap1\n      0x0100\n      exp\n      swap1\n      div\n      0xff\n      and\n      dup2\n      jump\t// out\n        /* \"LoadManager.sol\":5190:6036  function openBorrow(... */\n    tag_53:\n        /* \"LoadManager.sol\":5288:5294  _weeks */\n      dup2\n        /* \"LoadManager.sol\":2389:2392  260 */\n      0x0104\n        /* \"LoadManager.sol\":2379:2385  _weeks */\n      dup2\n        /* \"LoadManager.sol\":2379:2392  _weeks <= 260 */\n      gt\n      iszero\n        /* \"LoadManager.sol\":2371:2416  require(_weeks <= 260, 'Invalid week number') */\n      tag_176\n      jumpi\n      mload(0x40)\n      0x08c379a000000000000000000000000000000000000000000000000000000000\n      dup2\n      mstore\n      0x04\n      add\n      tag_177\n      swap1\n      tag_178\n      jump\t// in\n    tag_177:\n      mload(0x40)\n      dup1\n      swap2\n      sub\n      swap1\n      revert\n    tag_176:\n        /* \"LoadManager.sol\":5315:5321  amount */\n      dup2\n        /* \"LoadManager.sol\":2578:2587  0.2 ether */\n      0x02c68af0bb140000\n        /* \"LoadManager.sol\":2569:2575  amount */\n      dup2\n        /* \"LoadManager.sol\":2569:2587  amount > 0.2 ether */\n      gt\n        /* \"LoadManager.sol\":2561:2616  require(amount > 0.2 ether, 'Minmum borrow is 0.2 Eth') */\n      tag_180\n      jumpi\n      mload(0x40)\n      0x08c379a000000000000000000000000000000000000000000000000000000000\n      dup2\n      mstore\n      0x04\n      add\n      tag_181\n      swap1\n      tag_182\n      jump\t// in\n    tag_181:\n      mload(0x40)\n      dup1\n      swap2\n      sub\n      swap1\n      revert\n    tag_180:\n        /* \"LoadManager.sol\":5330:5344  int256 counter */\n      0x00\n        /* \"LoadManager.sol\":5347:5358  borrowCount */\n      0x08\n        /* \"LoadManager.sol\":5347:5370  borrowCount[msg.sender] */\n      0x00\n        /* \"LoadManager.sol\":5359:5369  msg.sender */\n      caller\n        /* \"LoadManager.sol\":5347:5370  borrowCount[msg.sender] */\n      0xffffffffffffffffffffffffffffffffffffffff\n      and\n      0xffffffffffffffffffffffffffffffffffffffff\n      and\n      dup2\n      mstore\n      0x20\n      add\n      swap1\n      dup2\n      mstore\n      0x20\n      add\n      0x00\n      keccak256\n      0x00\n        /* \"LoadManager.sol\":5347:5372  borrowCount[msg.sender]++ */\n      dup2\n      sload\n      dup1\n      swap3\n      swap2\n      swap1\n      tag_184\n      swap1\n      tag_185\n      jump\t// in\n    tag_184:\n      swap2\n      swap1\n      pop\n      sstore\n        /* \"LoadManager.sol\":5330:5372  int256 counter = borrowCount[msg.sender]++ */\n      swap1\n      pop\n        /* \"LoadManager.sol\":5379:5395  uint256 _dueDate */\n      0x00\n        /* \"LoadManager.sol\":5426:5432  604800 */\n      0x093a80\n        /* \"LoadManager.sol\":5417:5423  _weeks */\n      dup7\n        /* \"LoadManager.sol\":5417:5432  _weeks * 604800 */\n      tag_186\n      swap2\n      swap1\n      tag_187\n      jump\t// in\n    tag_186:\n        /* \"LoadManager.sol\":5398:5413  block.timestamp */\n      timestamp\n        /* \"LoadManager.sol\":5398:5433  block.timestamp + (_weeks * 604800) */\n      tag_188\n      swap2\n      swap1\n      tag_189\n      jump\t// in\n    tag_188:\n        /* \"LoadManager.sol\":5379:5433  uint256 _dueDate = block.timestamp + (_weeks * 604800) */\n      swap1\n      pop\n        /* \"LoadManager.sol\":5440:5451  uint256 APY */\n      0x00\n        /* \"LoadManager.sol\":5471:5473  24 */\n      0x18\n        /* \"LoadManager.sol\":5462:5468  _weeks */\n      dup8\n        /* \"LoadManager.sol\":5462:5473  _weeks < 24 */\n      lt\n        /* \"LoadManager.sol\":5458:5629  if (_weeks < 24) {... */\n      iszero\n      tag_190\n      jumpi\n        /* \"LoadManager.sol\":5490:5491  7 */\n      0x07\n        /* \"LoadManager.sol\":5484:5491  APY = 7 */\n      swap1\n      pop\n        /* \"LoadManager.sol\":5458:5629  if (_weeks < 24) {... */\n      jump(tag_191)\n    tag_190:\n        /* \"LoadManager.sol\":5519:5521  24 */\n      0x18\n        /* \"LoadManager.sol\":5509:5515  _weeks */\n      dup8\n        /* \"LoadManager.sol\":5509:5521  _weeks >= 24 */\n      lt\n      iszero\n        /* \"LoadManager.sol\":5509:5537  _weeks >= 24 && _weeks < 104 */\n      dup1\n      iszero\n      tag_192\n      jumpi\n      pop\n        /* \"LoadManager.sol\":5534:5537  104 */\n      0x68\n        /* \"LoadManager.sol\":5525:5531  _weeks */\n      dup8\n        /* \"LoadManager.sol\":5525:5537  _weeks < 104 */\n      lt\n        /* \"LoadManager.sol\":5509:5537  _weeks >= 24 && _weeks < 104 */\n    tag_192:\n        /* \"LoadManager.sol\":5505:5629  if (_weeks >= 24 && _weeks < 104) {... */\n      iszero\n      tag_193\n      jumpi\n        /* \"LoadManager.sol\":5554:5555  6 */\n      0x06\n        /* \"LoadManager.sol\":5548:5555  APY = 6 */\n      swap1\n      pop\n        /* \"LoadManager.sol\":5505:5629  if (_weeks >= 24 && _weeks < 104) {... */\n      jump(tag_194)\n    tag_193:\n        /* \"LoadManager.sol\":5583:5586  104 */\n      0x68\n        /* \"LoadManager.sol\":5573:5579  _weeks */\n      dup8\n        /* \"LoadManager.sol\":5573:5586  _weeks >= 104 */\n      lt\n      iszero\n        /* \"LoadManager.sol\":5573:5603  _weeks >= 104 && _weeks <= 260 */\n      dup1\n      iszero\n      tag_195\n      jumpi\n      pop\n        /* \"LoadManager.sol\":5600:5603  260 */\n      0x0104\n        /* \"LoadManager.sol\":5590:5596  _weeks */\n      dup8\n        /* \"LoadManager.sol\":5590:5603  _weeks <= 260 */\n      gt\n      iszero\n        /* \"LoadManager.sol\":5573:5603  _weeks >= 104 && _weeks <= 260 */\n    tag_195:\n        /* \"LoadManager.sol\":5569:5629  if (_weeks >= 104 && _weeks <= 260) {... */\n      iszero\n      tag_196\n      jumpi\n        /* \"LoadManager.sol\":5620:5621  5 */\n      0x05\n        /* \"LoadManager.sol\":5614:5621  APY = 5 */\n      swap1\n      pop\n        /* \"LoadManager.sol\":5569:5629  if (_weeks >= 104 && _weeks <= 260) {... */\n    tag_196:\n        /* \"LoadManager.sol\":5505:5629  if (_weeks >= 24 && _weeks < 104) {... */\n    tag_194:\n        /* \"LoadManager.sol\":5458:5629  if (_weeks < 24) {... */\n    tag_191:\n        /* \"LoadManager.sol\":5635:5657  uint256 _paybackAmount */\n      0x00\n        /* \"LoadManager.sol\":5697:5705  100 * 52 */\n      0x1450\n        /* \"LoadManager.sol\":5686:5692  _weeks */\n      dup9\n        /* \"LoadManager.sol\":5680:5683  APY */\n      dup4\n        /* \"LoadManager.sol\":5671:5677  amount */\n      dup10\n        /* \"LoadManager.sol\":5671:5683  amount * APY */\n      tag_197\n      swap2\n      swap1\n      tag_187\n      jump\t// in\n    tag_197:\n        /* \"LoadManager.sol\":5671:5692  amount * APY * _weeks */\n      tag_198\n      swap2\n      swap1\n      tag_187\n      jump\t// in\n    tag_198:\n        /* \"LoadManager.sol\":5670:5706  (amount * APY * _weeks) / (100 * 52) */\n      tag_199\n      swap2\n      swap1\n      tag_200\n      jump\t// in\n    tag_199:\n        /* \"LoadManager.sol\":5660:5666  amount */\n      dup8\n        /* \"LoadManager.sol\":5660:5707  amount + ((amount * APY * _weeks) / (100 * 52)) */\n      tag_201\n      swap2\n      swap1\n      tag_189\n      jump\t// in\n    tag_201:\n        /* \"LoadManager.sol\":5635:5707  uint256 _paybackAmount = amount + ((amount * APY * _weeks) / (100 * 52)) */\n      swap1\n      pop\n        /* \"LoadManager.sol\":5715:5727  bool success */\n      0x00\n        /* \"LoadManager.sol\":5733:5743  msg.sender */\n      caller\n        /* \"LoadManager.sol\":5733:5748  msg.sender.call */\n      0xffffffffffffffffffffffffffffffffffffffff\n      and\n        /* \"LoadManager.sol\":5757:5763  amount */\n      dup9\n        /* \"LoadManager.sol\":5733:5769  msg.sender.call{ value: amount }('') */\n      mload(0x40)\n      tag_202\n      swap1\n      tag_121\n      jump\t// in\n    tag_202:\n      0x00\n      mload(0x40)\n      dup1\n      dup4\n      sub\n      dup2\n      dup6\n      dup8\n      gas\n      call\n      swap3\n      pop\n      pop\n      pop\n      returndatasize\n      dup1\n      0x00\n      dup2\n      eq\n      tag_205\n      jumpi\n      mload(0x40)\n      swap2\n      pop\n      and(add(returndatasize, 0x3f), not(0x1f))\n      dup3\n      add\n      0x40\n      mstore\n      returndatasize\n      dup3\n      mstore\n      returndatasize\n      0x00\n      0x20\n      dup5\n      add\n      returndatacopy\n      jump(tag_204)\n    tag_205:\n      0x60\n      swap2\n      pop\n    tag_204:\n      pop\n        /* \"LoadManager.sol\":5714:5769  (bool success, ) = msg.sender.call{ value: amount }('') */\n      pop\n      swap1\n      pop\n        /* \"LoadManager.sol\":5784:5791  success */\n      dup1\n        /* \"LoadManager.sol\":5776:5814  require(success, 'Transaction failed') */\n      tag_206\n      jumpi\n      mload(0x40)\n      0x08c379a000000000000000000000000000000000000000000000000000000000\n      dup2\n      mstore\n      0x04\n      add\n      tag_207\n      swap1\n      tag_127\n      jump\t// in\n    tag_207:\n      mload(0x40)\n      dup1\n      swap2\n      sub\n      swap1\n      revert\n    tag_206:\n        /* \"LoadManager.sol\":5853:5912  borrowInfo('active', _dueDate, APY, amount, _paybackAmount) */\n      mload(0x40)\n      dup1\n      0xa0\n      add\n      0x40\n      mstore\n      dup1\n      mload(0x40)\n      dup1\n      0x40\n      add\n      0x40\n      mstore\n      dup1\n      0x06\n      dup2\n      mstore\n      0x20\n      add\n      0x6163746976650000000000000000000000000000000000000000000000000000\n      dup2\n      mstore\n      pop\n      dup2\n      mstore\n      0x20\n      add\n        /* \"LoadManager.sol\":5874:5882  _dueDate */\n      dup6\n        /* \"LoadManager.sol\":5853:5912  borrowInfo('active', _dueDate, APY, amount, _paybackAmount) */\n      dup2\n      mstore\n      0x20\n      add\n        /* \"LoadManager.sol\":5884:5887  APY */\n      dup5\n        /* \"LoadManager.sol\":5853:5912  borrowInfo('active', _dueDate, APY, amount, _paybackAmount) */\n      dup2\n      mstore\n      0x20\n      add\n        /* \"LoadManager.sol\":5889:5895  amount */\n      dup10\n        /* \"LoadManager.sol\":5853:5912  borrowInfo('active', _dueDate, APY, amount, _paybackAmount) */\n      dup2\n      mstore\n      0x20\n      add\n        /* \"LoadManager.sol\":5897:5911  _paybackAmount */\n      dup4\n        /* \"LoadManager.sol\":5853:5912  borrowInfo('active', _dueDate, APY, amount, _paybackAmount) */\n      dup2\n      mstore\n      pop\n        /* \"LoadManager.sol\":5821:5829  Borrower */\n      0x07\n        /* \"LoadManager.sol\":5821:5841  Borrower[msg.sender] */\n      0x00\n        /* \"LoadManager.sol\":5830:5840  msg.sender */\n      caller\n        /* \"LoadManager.sol\":5821:5841  Borrower[msg.sender] */\n      0xffffffffffffffffffffffffffffffffffffffff\n      and\n      0xffffffffffffffffffffffffffffffffffffffff\n      and\n      dup2\n      mstore\n      0x20\n      add\n      swap1\n      dup2\n      mstore\n      0x20\n      add\n      0x00\n      keccak256\n        /* \"LoadManager.sol\":5821:5850  Borrower[msg.sender][counter] */\n      0x00\n        /* \"LoadManager.sol\":5842:5849  counter */\n      dup8\n        /* \"LoadManager.sol\":5821:5850  Borrower[msg.sender][counter] */\n      dup2\n      mstore\n      0x20\n      add\n      swap1\n      dup2\n      mstore\n      0x20\n      add\n      0x00\n      keccak256\n        /* \"LoadManager.sol\":5821:5912  Borrower[msg.sender][counter] = borrowInfo('active', _dueDate, APY, amount, _paybackAmount) */\n      0x00\n      dup3\n      add\n      mload\n      dup2\n      0x00\n      add\n      swap1\n      dup2\n      tag_208\n      swap2\n      swap1\n      tag_209\n      jump\t// in\n    tag_208:\n      pop\n      0x20\n      dup3\n      add\n      mload\n      dup2\n      0x01\n      add\n      sstore\n      0x40\n      dup3\n      add\n      mload\n      dup2\n      0x02\n      add\n      sstore\n      0x60\n      dup3\n      add\n      mload\n      dup2\n      0x03\n      add\n      sstore\n      0x80\n      dup3\n      add\n      mload\n      dup2\n      0x04\n      add\n      sstore\n      swap1\n      pop\n      pop\n        /* \"LoadManager.sol\":5919:5980  checkCategoryRegistration(userBorrowersList, userLendersList) */\n      tag_210\n        /* \"LoadManager.sol\":5945:5962  userBorrowersList */\n      0x02\n        /* \"LoadManager.sol\":5964:5979  userLendersList */\n      0x03\n        /* \"LoadManager.sol\":5919:5944  checkCategoryRegistration */\n      tag_211\n        /* \"LoadManager.sol\":5919:5980  checkCategoryRegistration(userBorrowersList, userLendersList) */\n      jump\t// in\n    tag_210:\n        /* \"LoadManager.sol\":6006:6023  userBorrowersList */\n      0x02\n        /* \"LoadManager.sol\":6006:6030  userBorrowersList.length */\n      dup1\n      sload\n      swap1\n      pop\n        /* \"LoadManager.sol\":5987:6003  borrowersCounter */\n      0x04\n        /* \"LoadManager.sol\":5987:6030  borrowersCounter = userBorrowersList.length */\n      dup2\n      swap1\n      sstore\n      pop\n        /* \"LoadManager.sol\":5323:6036  {... */\n      pop\n      pop\n      pop\n      pop\n      pop\n        /* \"LoadManager.sol\":2423:2424  _ */\n      pop\n        /* \"LoadManager.sol\":5190:6036  function openBorrow(... */\n      pop\n      pop\n      pop\n      jump\t// out\n        /* \"LoadManager.sol\":3416:3520  function updateInterestMatured() public returns (uint256) {... */\n    tag_56:\n        /* \"LoadManager.sol\":3465:3472  uint256 */\n      0x00\n        /* \"LoadManager.sol\":3488:3514  calculateInterestMatured() */\n      tag_213\n        /* \"LoadManager.sol\":3488:3512  calculateInterestMatured */\n      tag_119\n        /* \"LoadManager.sol\":3488:3514  calculateInterestMatured() */\n      jump\t// in\n    tag_213:\n        /* \"LoadManager.sol\":3481:3514  return calculateInterestMatured() */\n      swap1\n      pop\n        /* \"LoadManager.sol\":3416:3520  function updateInterestMatured() public returns (uint256) {... */\n      swap1\n      jump\t// out\n        /* \"LoadManager.sol\":1081:1188  function getUserBorrowerList() public view returns (address[] memory) {... */\n    tag_60:\n        /* \"LoadManager.sol\":1133:1149  address[] memory */\n      0x60\n        /* \"LoadManager.sol\":1165:1182  userBorrowersList */\n      0x02\n        /* \"LoadManager.sol\":1158:1182  return userBorrowersList */\n      dup1\n      sload\n      dup1\n      0x20\n      mul\n      0x20\n      add\n      mload(0x40)\n      swap1\n      dup2\n      add\n      0x40\n      mstore\n      dup1\n      swap3\n      swap2\n      swap1\n      dup2\n      dup2\n      mstore\n      0x20\n      add\n      dup3\n      dup1\n      sload\n      dup1\n      iszero\n      tag_215\n      jumpi\n      0x20\n      mul\n      dup3\n      add\n      swap2\n      swap1\n      0x00\n      mstore\n      keccak256(0x00, 0x20)\n      swap1\n    tag_216:\n      dup2\n      0x00\n      swap1\n      sload\n      swap1\n      0x0100\n      exp\n      swap1\n      div\n      0xffffffffffffffffffffffffffffffffffffffff\n      and\n      0xffffffffffffffffffffffffffffffffffffffff\n      and\n      dup2\n      mstore\n      0x20\n      add\n      swap1\n      0x01\n      add\n      swap1\n      dup1\n      dup4\n      gt\n      tag_216\n      jumpi\n    tag_215:\n      pop\n      pop\n      pop\n      pop\n      pop\n      swap1\n      pop\n        /* \"LoadManager.sol\":1081:1188  function getUserBorrowerList() public view returns (address[] memory) {... */\n      swap1\n      jump\t// out\n        /* \"LoadManager.sol\":299:325  uint256 public lendAPY = 3 */\n    tag_65:\n      sload(0x06)\n      dup2\n      jump\t// out\n        /* \"LoadManager.sol\":332:433  function getContractBalance() public view returns (uint256) {... */\n    tag_69:\n        /* \"LoadManager.sol\":383:390  uint256 */\n      0x00\n        /* \"LoadManager.sol\":406:427  address(this).balance */\n      selfbalance\n        /* \"LoadManager.sol\":399:427  return address(this).balance */\n      swap1\n      pop\n        /* \"LoadManager.sol\":332:433  function getContractBalance() public view returns (uint256) {... */\n      swap1\n      jump\t// out\n        /* \"LoadManager.sol\":758:803  mapping(address => int256) public borrowCount */\n    tag_74:\n      mstore(0x20, 0x08)\n      dup1\n      0x00\n      mstore\n      keccak256(0x00, 0x40)\n      0x00\n      swap2\n      pop\n      swap1\n      pop\n      sload\n      dup2\n      jump\t// out\n        /* \"LoadManager.sol\":88:108  address public owner */\n    tag_79:\n      0x00\n      0x00\n      swap1\n      sload\n      swap1\n      0x0100\n      exp\n      swap1\n      div\n      0xffffffffffffffffffffffffffffffffffffffff\n      and\n      dup2\n      jump\t// out\n        /* \"LoadManager.sol\":2954:3410  function lend() public payable checkMinimalLend {... */\n    tag_83:\n        /* \"LoadManager.sol\":2691:2700  0.1 ether */\n      0x016345785d8a0000\n        /* \"LoadManager.sol\":2679:2688  msg.value */\n      callvalue\n        /* \"LoadManager.sol\":2679:2700  msg.value > 0.1 ether */\n      gt\n        /* \"LoadManager.sol\":2671:2729  require(msg.value > 0.1 ether, 'Minmum borrow is 0.1 Eth') */\n      tag_219\n      jumpi\n      mload(0x40)\n      0x08c379a000000000000000000000000000000000000000000000000000000000\n      dup2\n      mstore\n      0x04\n      add\n      tag_220\n      swap1\n      tag_221\n      jump\t// in\n    tag_220:\n      mload(0x40)\n      dup1\n      swap2\n      sub\n      swap1\n      revert\n    tag_219:\n        /* \"LoadManager.sol\":3036:3045  msg.value */\n      callvalue\n        /* \"LoadManager.sol\":3009:3020  netPosition */\n      0x0b\n        /* \"LoadManager.sol\":3009:3032  netPosition[msg.sender] */\n      0x00\n        /* \"LoadManager.sol\":3021:3031  msg.sender */\n      caller\n        /* \"LoadManager.sol\":3009:3032  netPosition[msg.sender] */\n      0xffffffffffffffffffffffffffffffffffffffff\n      and\n      0xffffffffffffffffffffffffffffffffffffffff\n      and\n      dup2\n      mstore\n      0x20\n      add\n      swap1\n      dup2\n      mstore\n      0x20\n      add\n      0x00\n      keccak256\n      0x00\n        /* \"LoadManager.sol\":3009:3045  netPosition[msg.sender] += msg.value */\n      dup3\n      dup3\n      sload\n      tag_223\n      swap2\n      swap1\n      tag_189\n      jump\t// in\n    tag_223:\n      swap3\n      pop\n      pop\n      dup2\n      swap1\n      sstore\n      pop\n        /* \"LoadManager.sol\":3052:3113  checkCategoryRegistration(userLendersList, userBorrowersList) */\n      tag_224\n        /* \"LoadManager.sol\":3078:3093  userLendersList */\n      0x03\n        /* \"LoadManager.sol\":3095:3112  userBorrowersList */\n      0x02\n        /* \"LoadManager.sol\":3052:3077  checkCategoryRegistration */\n      tag_211\n        /* \"LoadManager.sol\":3052:3113  checkCategoryRegistration(userLendersList, userBorrowersList) */\n      jump\t// in\n    tag_224:\n        /* \"LoadManager.sol\":3137:3152  userLendersList */\n      0x03\n        /* \"LoadManager.sol\":3137:3159  userLendersList.length */\n      dup1\n      sload\n      swap1\n      pop\n        /* \"LoadManager.sol\":3120:3134  lendersCounter */\n      0x05\n        /* \"LoadManager.sol\":3120:3159  lendersCounter = userLendersList.length */\n      dup2\n      swap1\n      sstore\n      pop\n        /* \"LoadManager.sol\":3166:3172  Lender */\n      0x09\n        /* \"LoadManager.sol\":3166:3184  Lender[msg.sender] */\n      0x00\n        /* \"LoadManager.sol\":3173:3183  msg.sender */\n      caller\n        /* \"LoadManager.sol\":3166:3184  Lender[msg.sender] */\n      0xffffffffffffffffffffffffffffffffffffffff\n      and\n      0xffffffffffffffffffffffffffffffffffffffff\n      and\n      dup2\n      mstore\n      0x20\n      add\n      swap1\n      dup2\n      mstore\n      0x20\n      add\n      0x00\n      keccak256\n        /* \"LoadManager.sol\":3198:3337  lendInfo({... */\n      mload(0x40)\n      dup1\n      0x60\n      add\n      0x40\n      mstore\n      dup1\n        /* \"LoadManager.sol\":3234:3240  Lender */\n      0x09\n        /* \"LoadManager.sol\":3234:3252  Lender[msg.sender] */\n      0x00\n        /* \"LoadManager.sol\":3241:3251  msg.sender */\n      caller\n        /* \"LoadManager.sol\":3234:3252  Lender[msg.sender] */\n      0xffffffffffffffffffffffffffffffffffffffff\n      and\n      0xffffffffffffffffffffffffffffffffffffffff\n      and\n      dup2\n      mstore\n      0x20\n      add\n      swap1\n      dup2\n      mstore\n      0x20\n      add\n      0x00\n      keccak256\n        /* \"LoadManager.sol\":3234:3259  Lender[msg.sender].length */\n      dup1\n      sload\n      swap1\n      pop\n        /* \"LoadManager.sol\":3198:3337  lendInfo({... */\n      dup2\n      mstore\n      0x20\n      add\n        /* \"LoadManager.sol\":3284:3299  block.timestamp */\n      timestamp\n        /* \"LoadManager.sol\":3198:3337  lendInfo({... */\n      dup2\n      mstore\n      0x20\n      add\n        /* \"LoadManager.sol\":3318:3327  msg.value */\n      callvalue\n        /* \"LoadManager.sol\":3198:3337  lendInfo({... */\n      dup2\n      mstore\n      pop\n        /* \"LoadManager.sol\":3166:3344  Lender[msg.sender].push(... */\n      swap1\n      dup1\n      0x01\n      dup2\n      sload\n      add\n      dup1\n      dup3\n      sstore\n      dup1\n      swap2\n      pop\n      pop\n      0x01\n      swap1\n      sub\n      swap1\n      0x00\n      mstore\n      keccak256(0x00, 0x20)\n      swap1\n      0x03\n      mul\n      add\n      0x00\n      swap1\n      swap2\n      swap1\n      swap2\n      swap1\n      swap2\n      pop\n      0x00\n      dup3\n      add\n      mload\n      dup2\n      0x00\n      add\n      sstore\n      0x20\n      dup3\n      add\n      mload\n      dup2\n      0x01\n      add\n      sstore\n      0x40\n      dup3\n      add\n      mload\n      dup2\n      0x02\n      add\n      sstore\n      pop\n      pop\n        /* \"LoadManager.sol\":3356:3404  lendDone(msg.sender, msg.value, block.timestamp) */\n      0xf6285a60c92fd2767bc48a572b64940a62be26cb7c523e64bf3bd75a82062559\n        /* \"LoadManager.sol\":3365:3375  msg.sender */\n      caller\n        /* \"LoadManager.sol\":3377:3386  msg.value */\n      callvalue\n        /* \"LoadManager.sol\":3388:3403  block.timestamp */\n      timestamp\n        /* \"LoadManager.sol\":3356:3404  lendDone(msg.sender, msg.value, block.timestamp) */\n      mload(0x40)\n      tag_226\n      swap4\n      swap3\n      swap2\n      swap1\n      tag_174\n      jump\t// in\n    tag_226:\n      mload(0x40)\n      dup1\n      swap2\n      sub\n      swap1\n      log1\n        /* \"LoadManager.sol\":2954:3410  function lend() public payable checkMinimalLend {... */\n      jump\t// out\n        /* \"LoadManager.sol\":265:294  uint256 public lendersCounter */\n    tag_86:\n      sload(0x05)\n      dup2\n      jump\t// out\n        /* \"LoadManager.sol\":1194:1298  function getUserLendersList() public view returns (address[] memory) {... */\n    tag_90:\n        /* \"LoadManager.sol\":1245:1261  address[] memory */\n      0x60\n        /* \"LoadManager.sol\":1277:1292  userLendersList */\n      0x03\n        /* \"LoadManager.sol\":1270:1292  return userLendersList */\n      dup1\n      sload\n      dup1\n      0x20\n      mul\n      0x20\n      add\n      mload(0x40)\n      swap1\n      dup2\n      add\n      0x40\n      mstore\n      dup1\n      swap3\n      swap2\n      swap1\n      dup2\n      dup2\n      mstore\n      0x20\n      add\n      dup3\n      dup1\n      sload\n      dup1\n      iszero\n      tag_228\n      jumpi\n      0x20\n      mul\n      dup3\n      add\n      swap2\n      swap1\n      0x00\n      mstore\n      keccak256(0x00, 0x20)\n      swap1\n    tag_229:\n      dup2\n      0x00\n      swap1\n      sload\n      swap1\n      0x0100\n      exp\n      swap1\n      div\n      0xffffffffffffffffffffffffffffffffffffffff\n      and\n      0xffffffffffffffffffffffffffffffffffffffff\n      and\n      dup2\n      mstore\n      0x20\n      add\n      swap1\n      0x01\n      add\n      swap1\n      dup1\n      dup4\n      gt\n      tag_229\n      jumpi\n    tag_228:\n      pop\n      pop\n      pop\n      pop\n      pop\n      swap1\n      pop\n        /* \"LoadManager.sol\":1194:1298  function getUserLendersList() public view returns (address[] memory) {... */\n      swap1\n      jump\t// out\n        /* \"LoadManager.sol\":916:962  mapping(address => uint256) public netPosition */\n    tag_95:\n      mstore(0x20, 0x0b)\n      dup1\n      0x00\n      mstore\n      keccak256(0x00, 0x40)\n      0x00\n      swap2\n      pop\n      swap1\n      pop\n      sload\n      dup2\n      jump\t// out\n        /* \"LoadManager.sol\":229:260  uint256 public borrowersCounter */\n    tag_99:\n      sload(0x04)\n      dup2\n      jump\t// out\n        /* \"LoadManager.sol\":810:854  mapping(address => lendInfo[]) public Lender */\n    tag_105:\n      mstore(0x20, 0x09)\n      dup2\n      0x00\n      mstore\n      keccak256(0x00, 0x40)\n      dup2\n      dup2\n      sload\n      dup2\n      lt\n      tag_230\n      jumpi\n      0x00\n      dup1\n      revert\n    tag_230:\n      swap1\n      0x00\n      mstore\n      keccak256(0x00, 0x20)\n      swap1\n      0x03\n      mul\n      add\n      0x00\n      swap2\n      pop\n      swap2\n      pop\n      pop\n      dup1\n      0x00\n      add\n      sload\n      swap1\n      dup1\n      0x01\n      add\n      sload\n      swap1\n      dup1\n      0x02\n      add\n      sload\n      swap1\n      pop\n      dup4\n      jump\t// out\n        /* \"LoadManager.sol\":3526:4021  function calculateInterestMatured() internal returns (uint256) {... */\n    tag_119:\n        /* \"LoadManager.sol\":3580:3587  uint256 */\n      0x00\n        /* \"LoadManager.sol\":3596:3617  uint256 totalInterest */\n      0x00\n        /* \"LoadManager.sol\":3629:3638  uint256 i */\n      0x00\n        /* \"LoadManager.sol\":3641:3642  0 */\n      0x00\n        /* \"LoadManager.sol\":3629:3642  uint256 i = 0 */\n      swap1\n      pop\n        /* \"LoadManager.sol\":3624:3925  for (uint256 i = 0; Lender[msg.sender].length > i; i++) {... */\n    tag_233:\n        /* \"LoadManager.sol\":3672:3673  i */\n      dup1\n        /* \"LoadManager.sol\":3644:3650  Lender */\n      0x09\n        /* \"LoadManager.sol\":3644:3662  Lender[msg.sender] */\n      0x00\n        /* \"LoadManager.sol\":3651:3661  msg.sender */\n      caller\n        /* \"LoadManager.sol\":3644:3662  Lender[msg.sender] */\n      0xffffffffffffffffffffffffffffffffffffffff\n      and\n      0xffffffffffffffffffffffffffffffffffffffff\n      and\n      dup2\n      mstore\n      0x20\n      add\n      swap1\n      dup2\n      mstore\n      0x20\n      add\n      0x00\n      keccak256\n        /* \"LoadManager.sol\":3644:3669  Lender[msg.sender].length */\n      dup1\n      sload\n      swap1\n      pop\n        /* \"LoadManager.sol\":3644:3673  Lender[msg.sender].length > i */\n      gt\n        /* \"LoadManager.sol\":3624:3925  for (uint256 i = 0; Lender[msg.sender].length > i; i++) {... */\n      iszero\n      tag_234\n      jumpi\n        /* \"LoadManager.sol\":3725:3726  0 */\n      0x00\n        /* \"LoadManager.sol\":3693:3699  Lender */\n      0x09\n        /* \"LoadManager.sol\":3693:3711  Lender[msg.sender] */\n      0x00\n        /* \"LoadManager.sol\":3700:3710  msg.sender */\n      caller\n        /* \"LoadManager.sol\":3693:3711  Lender[msg.sender] */\n      0xffffffffffffffffffffffffffffffffffffffff\n      and\n      0xffffffffffffffffffffffffffffffffffffffff\n      and\n      dup2\n      mstore\n      0x20\n      add\n      swap1\n      dup2\n      mstore\n      0x20\n      add\n      0x00\n      keccak256\n        /* \"LoadManager.sol\":3712:3713  i */\n      dup3\n        /* \"LoadManager.sol\":3693:3714  Lender[msg.sender][i] */\n      dup2\n      sload\n      dup2\n      lt\n      tag_236\n      jumpi\n      tag_237\n      tag_114\n      jump\t// in\n    tag_237:\n    tag_236:\n      swap1\n      0x00\n      mstore\n      keccak256(0x00, 0x20)\n      swap1\n      0x03\n      mul\n      add\n        /* \"LoadManager.sol\":3693:3721  Lender[msg.sender][i].amount */\n      0x02\n      add\n      sload\n        /* \"LoadManager.sol\":3693:3726  Lender[msg.sender][i].amount == 0 */\n      sub\n        /* \"LoadManager.sol\":3689:3736  if (Lender[msg.sender][i].amount == 0) continue */\n      iszero\n        /* \"LoadManager.sol\":3728:3736  continue */\n      tag_235\n        /* \"LoadManager.sol\":3689:3736  if (Lender[msg.sender][i].amount == 0) continue */\n      jumpi\n        /* \"LoadManager.sol\":3902:3916  100 * 365 days */\n      0xbbf81e00\n        /* \"LoadManager.sol\":3860:3866  Lender */\n      0x09\n        /* \"LoadManager.sol\":3860:3878  Lender[msg.sender] */\n      0x00\n        /* \"LoadManager.sol\":3867:3877  msg.sender */\n      caller\n        /* \"LoadManager.sol\":3860:3878  Lender[msg.sender] */\n      0xffffffffffffffffffffffffffffffffffffffff\n      and\n      0xffffffffffffffffffffffffffffffffffffffff\n      and\n      dup2\n      mstore\n      0x20\n      add\n      swap1\n      dup2\n      mstore\n      0x20\n      add\n      0x00\n      keccak256\n        /* \"LoadManager.sol\":3879:3880  i */\n      dup3\n        /* \"LoadManager.sol\":3860:3881  Lender[msg.sender][i] */\n      dup2\n      sload\n      dup2\n      lt\n      tag_240\n      jumpi\n      tag_241\n      tag_114\n      jump\t// in\n    tag_241:\n    tag_240:\n      swap1\n      0x00\n      mstore\n      keccak256(0x00, 0x20)\n      swap1\n      0x03\n      mul\n      add\n        /* \"LoadManager.sol\":3860:3888  Lender[msg.sender][i].amount */\n      0x02\n      add\n      sload\n        /* \"LoadManager.sol\":3839:3846  lendAPY */\n      sload(0x06)\n        /* \"LoadManager.sol\":3791:3797  Lender */\n      0x09\n        /* \"LoadManager.sol\":3791:3809  Lender[msg.sender] */\n      0x00\n        /* \"LoadManager.sol\":3798:3808  msg.sender */\n      caller\n        /* \"LoadManager.sol\":3791:3809  Lender[msg.sender] */\n      0xffffffffffffffffffffffffffffffffffffffff\n      and\n      0xffffffffffffffffffffffffffffffffffffffff\n      and\n      dup2\n      mstore\n      0x20\n      add\n      swap1\n      dup2\n      mstore\n      0x20\n      add\n      0x00\n      keccak256\n        /* \"LoadManager.sol\":3810:3811  i */\n      dup5\n        /* \"LoadManager.sol\":3791:3812  Lender[msg.sender][i] */\n      dup2\n      sload\n      dup2\n      lt\n      tag_243\n      jumpi\n      tag_244\n      tag_114\n      jump\t// in\n    tag_244:\n    tag_243:\n      swap1\n      0x00\n      mstore\n      keccak256(0x00, 0x20)\n      swap1\n      0x03\n      mul\n      add\n        /* \"LoadManager.sol\":3791:3824  Lender[msg.sender][i].depositTime */\n      0x01\n      add\n      sload\n        /* \"LoadManager.sol\":3773:3788  block.timestamp */\n      timestamp\n        /* \"LoadManager.sol\":3773:3824  block.timestamp - Lender[msg.sender][i].depositTime */\n      tag_246\n      swap2\n      swap1\n      tag_150\n      jump\t// in\n    tag_246:\n        /* \"LoadManager.sol\":3772:3846  (block.timestamp - Lender[msg.sender][i].depositTime) *... */\n      tag_247\n      swap2\n      swap1\n      tag_187\n      jump\t// in\n    tag_247:\n        /* \"LoadManager.sol\":3772:3888  (block.timestamp - Lender[msg.sender][i].depositTime) *... */\n      tag_248\n      swap2\n      swap1\n      tag_187\n      jump\t// in\n    tag_248:\n        /* \"LoadManager.sol\":3771:3917  ((block.timestamp - Lender[msg.sender][i].depositTime) *... */\n      tag_249\n      swap2\n      swap1\n      tag_200\n      jump\t// in\n    tag_249:\n        /* \"LoadManager.sol\":3745:3917  totalInterest +=... */\n      dup3\n      tag_250\n      swap2\n      swap1\n      tag_189\n      jump\t// in\n    tag_250:\n      swap2\n      pop\n        /* \"LoadManager.sol\":3624:3925  for (uint256 i = 0; Lender[msg.sender].length > i; i++) {... */\n    tag_235:\n        /* \"LoadManager.sol\":3675:3678  i++ */\n      dup1\n      dup1\n      tag_251\n      swap1\n      tag_117\n      jump\t// in\n    tag_251:\n      swap2\n      pop\n      pop\n        /* \"LoadManager.sol\":3624:3925  for (uint256 i = 0; Lender[msg.sender].length > i; i++) {... */\n      jump(tag_233)\n    tag_234:\n      pop\n        /* \"LoadManager.sol\":3961:3974  totalInterest */\n      dup1\n        /* \"LoadManager.sol\":3931:3946  interestMatured */\n      0x0a\n        /* \"LoadManager.sol\":3931:3958  interestMatured[msg.sender] */\n      0x00\n        /* \"LoadManager.sol\":3947:3957  msg.sender */\n      caller\n        /* \"LoadManager.sol\":3931:3958  interestMatured[msg.sender] */\n      0xffffffffffffffffffffffffffffffffffffffff\n      and\n      0xffffffffffffffffffffffffffffffffffffffff\n      and\n      dup2\n      mstore\n      0x20\n      add\n      swap1\n      dup2\n      mstore\n      0x20\n      add\n      0x00\n      keccak256\n        /* \"LoadManager.sol\":3931:3974  interestMatured[msg.sender] = totalInterest */\n      dup2\n      swap1\n      sstore\n      pop\n        /* \"LoadManager.sol\":3988:4003  interestMatured */\n      0x0a\n        /* \"LoadManager.sol\":3988:4015  interestMatured[msg.sender] */\n      0x00\n        /* \"LoadManager.sol\":4004:4014  msg.sender */\n      caller\n        /* \"LoadManager.sol\":3988:4015  interestMatured[msg.sender] */\n      0xffffffffffffffffffffffffffffffffffffffff\n      and\n      0xffffffffffffffffffffffffffffffffffffffff\n      and\n      dup2\n      mstore\n      0x20\n      add\n      swap1\n      dup2\n      mstore\n      0x20\n      add\n      0x00\n      keccak256\n      sload\n        /* \"LoadManager.sol\":3981:4015  return interestMatured[msg.sender] */\n      swap2\n      pop\n      pop\n        /* \"LoadManager.sol\":3526:4021  function calculateInterestMatured() internal returns (uint256) {... */\n      swap1\n      jump\t// out\n        /* \"LoadManager.sol\":1405:2272  function checkCategoryRegistration(address[] storage list, address[] storage list2) internal {... */\n    tag_211:\n        /* \"LoadManager.sol\":1505:1515  bool found */\n      0x00\n        /* \"LoadManager.sol\":1522:1533  bool found2 */\n      0x00\n        /* \"LoadManager.sol\":1643:1652  uint256 i */\n      0x00\n        /* \"LoadManager.sol\":1655:1656  0 */\n      0x00\n        /* \"LoadManager.sol\":1643:1656  uint256 i = 0 */\n      swap1\n      pop\n        /* \"LoadManager.sol\":1638:1772  for (uint256 i = 0; i < list.length; i++) {... */\n    tag_253:\n        /* \"LoadManager.sol\":1662:1666  list */\n      dup5\n        /* \"LoadManager.sol\":1662:1673  list.length */\n      dup1\n      sload\n      swap1\n      pop\n        /* \"LoadManager.sol\":1658:1659  i */\n      dup2\n        /* \"LoadManager.sol\":1658:1673  i < list.length */\n      lt\n        /* \"LoadManager.sol\":1638:1772  for (uint256 i = 0; i < list.length; i++) {... */\n      iszero\n      tag_254\n      jumpi\n        /* \"LoadManager.sol\":1704:1714  msg.sender */\n      caller\n        /* \"LoadManager.sol\":1693:1714  list[i] == msg.sender */\n      0xffffffffffffffffffffffffffffffffffffffff\n      and\n        /* \"LoadManager.sol\":1693:1697  list */\n      dup6\n        /* \"LoadManager.sol\":1698:1699  i */\n      dup3\n        /* \"LoadManager.sol\":1693:1700  list[i] */\n      dup2\n      sload\n      dup2\n      lt\n      tag_256\n      jumpi\n      tag_257\n      tag_114\n      jump\t// in\n    tag_257:\n    tag_256:\n      swap1\n      0x00\n      mstore\n      keccak256(0x00, 0x20)\n      add\n      0x00\n      swap1\n      sload\n      swap1\n      0x0100\n      exp\n      swap1\n      div\n      0xffffffffffffffffffffffffffffffffffffffff\n      and\n        /* \"LoadManager.sol\":1693:1714  list[i] == msg.sender */\n      0xffffffffffffffffffffffffffffffffffffffff\n      and\n      sub\n        /* \"LoadManager.sol\":1689:1765  if (list[i] == msg.sender) {... */\n      tag_259\n      jumpi\n        /* \"LoadManager.sol\":1735:1739  true */\n      0x01\n        /* \"LoadManager.sol\":1727:1739  found = true */\n      swap3\n      pop\n        /* \"LoadManager.sol\":1750:1755  break */\n      jump(tag_254)\n        /* \"LoadManager.sol\":1689:1765  if (list[i] == msg.sender) {... */\n    tag_259:\n        /* \"LoadManager.sol\":1675:1678  i++ */\n      dup1\n      dup1\n      0x01\n      add\n      swap2\n      pop\n      pop\n        /* \"LoadManager.sol\":1638:1772  for (uint256 i = 0; i < list.length; i++) {... */\n      jump(tag_253)\n    tag_254:\n      pop\n        /* \"LoadManager.sol\":1820:1825  found */\n      dup2\n        /* \"LoadManager.sol\":1815:1865  if (!found) {... */\n      tag_260\n      jumpi\n        /* \"LoadManager.sol\":1836:1840  list */\n      dup4\n        /* \"LoadManager.sol\":1846:1856  msg.sender */\n      caller\n        /* \"LoadManager.sol\":1836:1857  list.push(msg.sender) */\n      swap1\n      dup1\n      0x01\n      dup2\n      sload\n      add\n      dup1\n      dup3\n      sstore\n      dup1\n      swap2\n      pop\n      pop\n      0x01\n      swap1\n      sub\n      swap1\n      0x00\n      mstore\n      keccak256(0x00, 0x20)\n      add\n      0x00\n      swap1\n      swap2\n      swap1\n      swap2\n      swap1\n      swap2\n      0x0100\n      exp\n      dup2\n      sload\n      dup2\n      0xffffffffffffffffffffffffffffffffffffffff\n      mul\n      not\n      and\n      swap1\n      dup4\n      0xffffffffffffffffffffffffffffffffffffffff\n      and\n      mul\n      or\n      swap1\n      sstore\n      pop\n        /* \"LoadManager.sol\":1815:1865  if (!found) {... */\n    tag_260:\n        /* \"LoadManager.sol\":1933:1942  uint256 i */\n      0x00\n        /* \"LoadManager.sol\":1945:1946  0 */\n      0x00\n        /* \"LoadManager.sol\":1933:1946  uint256 i = 0 */\n      swap1\n      pop\n        /* \"LoadManager.sol\":1928:2065  for (uint256 i = 0; i < list2.length; i++) {... */\n    tag_262:\n        /* \"LoadManager.sol\":1952:1957  list2 */\n      dup4\n        /* \"LoadManager.sol\":1952:1964  list2.length */\n      dup1\n      sload\n      swap1\n      pop\n        /* \"LoadManager.sol\":1948:1949  i */\n      dup2\n        /* \"LoadManager.sol\":1948:1964  i < list2.length */\n      lt\n        /* \"LoadManager.sol\":1928:2065  for (uint256 i = 0; i < list2.length; i++) {... */\n      iszero\n      tag_263\n      jumpi\n        /* \"LoadManager.sol\":1996:2006  msg.sender */\n      caller\n        /* \"LoadManager.sol\":1984:2006  list2[i] == msg.sender */\n      0xffffffffffffffffffffffffffffffffffffffff\n      and\n        /* \"LoadManager.sol\":1984:1989  list2 */\n      dup5\n        /* \"LoadManager.sol\":1990:1991  i */\n      dup3\n        /* \"LoadManager.sol\":1984:1992  list2[i] */\n      dup2\n      sload\n      dup2\n      lt\n      tag_265\n      jumpi\n      tag_266\n      tag_114\n      jump\t// in\n    tag_266:\n    tag_265:\n      swap1\n      0x00\n      mstore\n      keccak256(0x00, 0x20)\n      add\n      0x00\n      swap1\n      sload\n      swap1\n      0x0100\n      exp\n      swap1\n      div\n      0xffffffffffffffffffffffffffffffffffffffff\n      and\n        /* \"LoadManager.sol\":1984:2006  list2[i] == msg.sender */\n      0xffffffffffffffffffffffffffffffffffffffff\n      and\n      sub\n        /* \"LoadManager.sol\":1980:2058  if (list2[i] == msg.sender) {... */\n      tag_268\n      jumpi\n        /* \"LoadManager.sol\":2028:2032  true */\n      0x01\n        /* \"LoadManager.sol\":2019:2032  found2 = true */\n      swap2\n      pop\n        /* \"LoadManager.sol\":2043:2048  break */\n      jump(tag_263)\n        /* \"LoadManager.sol\":1980:2058  if (list2[i] == msg.sender) {... */\n    tag_268:\n        /* \"LoadManager.sol\":1966:1969  i++ */\n      dup1\n      dup1\n      0x01\n      add\n      swap2\n      pop\n      pop\n        /* \"LoadManager.sol\":1928:2065  for (uint256 i = 0; i < list2.length; i++) {... */\n      jump(tag_262)\n    tag_263:\n      pop\n        /* \"LoadManager.sol\":2192:2197  false */\n      0x00\n        /* \"LoadManager.sol\":2183:2197  found == false */\n      iszero\n      iszero\n        /* \"LoadManager.sol\":2183:2188  found */\n      dup3\n        /* \"LoadManager.sol\":2183:2197  found == false */\n      iszero\n      iszero\n      eq\n        /* \"LoadManager.sol\":2183:2216  found == false && found2 == false */\n      dup1\n      iszero\n      tag_269\n      jumpi\n      pop\n        /* \"LoadManager.sol\":2211:2216  false */\n      0x00\n        /* \"LoadManager.sol\":2201:2216  found2 == false */\n      iszero\n      iszero\n        /* \"LoadManager.sol\":2201:2207  found2 */\n      dup2\n        /* \"LoadManager.sol\":2201:2216  found2 == false */\n      iszero\n      iszero\n      eq\n        /* \"LoadManager.sol\":2183:2216  found == false && found2 == false */\n    tag_269:\n        /* \"LoadManager.sol\":2179:2267  if (found == false && found2 == false) {... */\n      iszero\n      tag_270\n      jumpi\n        /* \"LoadManager.sol\":2227:2242  userAddressList */\n      0x01\n        /* \"LoadManager.sol\":2248:2258  msg.sender */\n      caller\n        /* \"LoadManager.sol\":2227:2259  userAddressList.push(msg.sender) */\n      swap1\n      dup1\n      0x01\n      dup2\n      sload\n      add\n      dup1\n      dup3\n      sstore\n      dup1\n      swap2\n      pop\n      pop\n      0x01\n      swap1\n      sub\n      swap1\n      0x00\n      mstore\n      keccak256(0x00, 0x20)\n      add\n      0x00\n      swap1\n      swap2\n      swap1\n      swap2\n      swap1\n      swap2\n      0x0100\n      exp\n      dup2\n      sload\n      dup2\n      0xffffffffffffffffffffffffffffffffffffffff\n      mul\n      not\n      and\n      swap1\n      dup4\n      0xffffffffffffffffffffffffffffffffffffffff\n      and\n      mul\n      or\n      swap1\n      sstore\n      pop\n        /* \"LoadManager.sol\":2179:2267  if (found == false && found2 == false) {... */\n    tag_270:\n        /* \"LoadManager.sol\":1498:2272  {... */\n      pop\n      pop\n        /* \"LoadManager.sol\":1405:2272  function checkCategoryRegistration(address[] storage list, address[] storage list2) internal {... */\n      pop\n      pop\n      jump\t// out\n        /* \"#utility.yul\":88:205   */\n    tag_273:\n        /* \"#utility.yul\":197:198   */\n      0x00\n        /* \"#utility.yul\":194:195   */\n      0x00\n        /* \"#utility.yul\":187:199   */\n      revert\n        /* \"#utility.yul\":334:460   */\n    tag_275:\n        /* \"#utility.yul\":371:378   */\n      0x00\n        /* \"#utility.yul\":411:453   */\n      0xffffffffffffffffffffffffffffffffffffffff\n        /* \"#utility.yul\":404:409   */\n      dup3\n        /* \"#utility.yul\":400:454   */\n      and\n        /* \"#utility.yul\":389:454   */\n      swap1\n      pop\n        /* \"#utility.yul\":334:460   */\n      swap2\n      swap1\n      pop\n      jump\t// out\n        /* \"#utility.yul\":466:562   */\n    tag_276:\n        /* \"#utility.yul\":503:510   */\n      0x00\n        /* \"#utility.yul\":532:556   */\n      tag_342\n        /* \"#utility.yul\":550:555   */\n      dup3\n        /* \"#utility.yul\":532:556   */\n      tag_275\n      jump\t// in\n    tag_342:\n        /* \"#utility.yul\":521:556   */\n      swap1\n      pop\n        /* \"#utility.yul\":466:562   */\n      swap2\n      swap1\n      pop\n      jump\t// out\n        /* \"#utility.yul\":568:690   */\n    tag_277:\n        /* \"#utility.yul\":641:665   */\n      tag_344\n        /* \"#utility.yul\":659:664   */\n      dup2\n        /* \"#utility.yul\":641:665   */\n      tag_276\n      jump\t// in\n    tag_344:\n        /* \"#utility.yul\":634:639   */\n      dup2\n        /* \"#utility.yul\":631:666   */\n      eq\n        /* \"#utility.yul\":621:684   */\n      tag_345\n      jumpi\n        /* \"#utility.yul\":680:681   */\n      0x00\n        /* \"#utility.yul\":677:678   */\n      0x00\n        /* \"#utility.yul\":670:682   */\n      revert\n        /* \"#utility.yul\":621:684   */\n    tag_345:\n        /* \"#utility.yul\":568:690   */\n      pop\n      jump\t// out\n        /* \"#utility.yul\":696:835   */\n    tag_278:\n        /* \"#utility.yul\":742:747   */\n      0x00\n        /* \"#utility.yul\":780:786   */\n      dup2\n        /* \"#utility.yul\":767:787   */\n      calldataload\n        /* \"#utility.yul\":758:787   */\n      swap1\n      pop\n        /* \"#utility.yul\":796:829   */\n      tag_347\n        /* \"#utility.yul\":823:828   */\n      dup2\n        /* \"#utility.yul\":796:829   */\n      tag_277\n      jump\t// in\n    tag_347:\n        /* \"#utility.yul\":696:835   */\n      swap3\n      swap2\n      pop\n      pop\n      jump\t// out\n        /* \"#utility.yul\":841:917   */\n    tag_279:\n        /* \"#utility.yul\":877:884   */\n      0x00\n        /* \"#utility.yul\":906:911   */\n      dup2\n        /* \"#utility.yul\":895:911   */\n      swap1\n      pop\n        /* \"#utility.yul\":841:917   */\n      swap2\n      swap1\n      pop\n      jump\t// out\n        /* \"#utility.yul\":923:1043   */\n    tag_280:\n        /* \"#utility.yul\":995:1018   */\n      tag_350\n        /* \"#utility.yul\":1012:1017   */\n      dup2\n        /* \"#utility.yul\":995:1018   */\n      tag_279\n      jump\t// in\n    tag_350:\n        /* \"#utility.yul\":988:993   */\n      dup2\n        /* \"#utility.yul\":985:1019   */\n      eq\n        /* \"#utility.yul\":975:1037   */\n      tag_351\n      jumpi\n        /* \"#utility.yul\":1033:1034   */\n      0x00\n        /* \"#utility.yul\":1030:1031   */\n      0x00\n        /* \"#utility.yul\":1023:1035   */\n      revert\n        /* \"#utility.yul\":975:1037   */\n    tag_351:\n        /* \"#utility.yul\":923:1043   */\n      pop\n      jump\t// out\n        /* \"#utility.yul\":1049:1186   */\n    tag_281:\n        /* \"#utility.yul\":1094:1099   */\n      0x00\n        /* \"#utility.yul\":1132:1138   */\n      dup2\n        /* \"#utility.yul\":1119:1139   */\n      calldataload\n        /* \"#utility.yul\":1110:1139   */\n      swap1\n      pop\n        /* \"#utility.yul\":1148:1180   */\n      tag_353\n        /* \"#utility.yul\":1174:1179   */\n      dup2\n        /* \"#utility.yul\":1148:1180   */\n      tag_280\n      jump\t// in\n    tag_353:\n        /* \"#utility.yul\":1049:1186   */\n      swap3\n      swap2\n      pop\n      pop\n      jump\t// out\n        /* \"#utility.yul\":1192:1664   */\n    tag_29:\n        /* \"#utility.yul\":1259:1265   */\n      0x00\n        /* \"#utility.yul\":1267:1273   */\n      0x00\n        /* \"#utility.yul\":1316:1318   */\n      0x40\n        /* \"#utility.yul\":1304:1313   */\n      dup4\n        /* \"#utility.yul\":1295:1302   */\n      dup6\n        /* \"#utility.yul\":1291:1314   */\n      sub\n        /* \"#utility.yul\":1287:1319   */\n      slt\n        /* \"#utility.yul\":1284:1403   */\n      iszero\n      tag_355\n      jumpi\n        /* \"#utility.yul\":1322:1401   */\n      tag_356\n      tag_273\n      jump\t// in\n    tag_356:\n        /* \"#utility.yul\":1284:1403   */\n    tag_355:\n        /* \"#utility.yul\":1442:1443   */\n      0x00\n        /* \"#utility.yul\":1467:1520   */\n      tag_357\n        /* \"#utility.yul\":1512:1519   */\n      dup6\n        /* \"#utility.yul\":1503:1509   */\n      dup3\n        /* \"#utility.yul\":1492:1501   */\n      dup7\n        /* \"#utility.yul\":1488:1510   */\n      add\n        /* \"#utility.yul\":1467:1520   */\n      tag_278\n      jump\t// in\n    tag_357:\n        /* \"#utility.yul\":1457:1520   */\n      swap3\n      pop\n        /* \"#utility.yul\":1413:1530   */\n      pop\n        /* \"#utility.yul\":1569:1571   */\n      0x20\n        /* \"#utility.yul\":1595:1647   */\n      tag_358\n        /* \"#utility.yul\":1639:1646   */\n      dup6\n        /* \"#utility.yul\":1630:1636   */\n      dup3\n        /* \"#utility.yul\":1619:1628   */\n      dup7\n        /* \"#utility.yul\":1615:1637   */\n      add\n        /* \"#utility.yul\":1595:1647   */\n      tag_281\n      jump\t// in\n    tag_358:\n        /* \"#utility.yul\":1585:1647   */\n      swap2\n      pop\n        /* \"#utility.yul\":1540:1657   */\n      pop\n        /* \"#utility.yul\":1192:1664   */\n      swap3\n      pop\n      swap3\n      swap1\n      pop\n      jump\t// out\n        /* \"#utility.yul\":1670:1769   */\n    tag_282:\n        /* \"#utility.yul\":1722:1728   */\n      0x00\n        /* \"#utility.yul\":1756:1761   */\n      dup2\n        /* \"#utility.yul\":1750:1762   */\n      mload\n        /* \"#utility.yul\":1740:1762   */\n      swap1\n      pop\n        /* \"#utility.yul\":1670:1769   */\n      swap2\n      swap1\n      pop\n      jump\t// out\n        /* \"#utility.yul\":1775:1944   */\n    tag_283:\n        /* \"#utility.yul\":1859:1870   */\n      0x00\n        /* \"#utility.yul\":1893:1899   */\n      dup3\n        /* \"#utility.yul\":1888:1891   */\n      dup3\n        /* \"#utility.yul\":1881:1900   */\n      mstore\n        /* \"#utility.yul\":1933:1937   */\n      0x20\n        /* \"#utility.yul\":1928:1931   */\n      dup3\n        /* \"#utility.yul\":1924:1938   */\n      add\n        /* \"#utility.yul\":1909:1938   */\n      swap1\n      pop\n        /* \"#utility.yul\":1775:1944   */\n      swap3\n      swap2\n      pop\n      pop\n      jump\t// out\n        /* \"#utility.yul\":1950:2089   */\n    tag_284:\n        /* \"#utility.yul\":2039:2045   */\n      dup3\n        /* \"#utility.yul\":2034:2037   */\n      dup2\n        /* \"#utility.yul\":2029:2032   */\n      dup4\n        /* \"#utility.yul\":2023:2046   */\n      mcopy\n        /* \"#utility.yul\":2080:2081   */\n      0x00\n        /* \"#utility.yul\":2071:2077   */\n      dup4\n        /* \"#utility.yul\":2066:2069   */\n      dup4\n        /* \"#utility.yul\":2062:2078   */\n      add\n        /* \"#utility.yul\":2055:2082   */\n      mstore\n        /* \"#utility.yul\":1950:2089   */\n      pop\n      pop\n      pop\n      jump\t// out\n        /* \"#utility.yul\":2095:2197   */\n    tag_285:\n        /* \"#utility.yul\":2136:2142   */\n      0x00\n        /* \"#utility.yul\":2187:2189   */\n      0x1f\n        /* \"#utility.yul\":2183:2190   */\n      not\n        /* \"#utility.yul\":2178:2180   */\n      0x1f\n        /* \"#utility.yul\":2171:2176   */\n      dup4\n        /* \"#utility.yul\":2167:2181   */\n      add\n        /* \"#utility.yul\":2163:2191   */\n      and\n        /* \"#utility.yul\":2153:2191   */\n      swap1\n      pop\n        /* \"#utility.yul\":2095:2197   */\n      swap2\n      swap1\n      pop\n      jump\t// out\n        /* \"#utility.yul\":2203:2580   */\n    tag_286:\n        /* \"#utility.yul\":2291:2294   */\n      0x00\n        /* \"#utility.yul\":2319:2358   */\n      tag_364\n        /* \"#utility.yul\":2352:2357   */\n      dup3\n        /* \"#utility.yul\":2319:2358   */\n      tag_282\n      jump\t// in\n    tag_364:\n        /* \"#utility.yul\":2374:2445   */\n      tag_365\n        /* \"#utility.yul\":2438:2444   */\n      dup2\n        /* \"#utility.yul\":2433:2436   */\n      dup6\n        /* \"#utility.yul\":2374:2445   */\n      tag_283\n      jump\t// in\n    tag_365:\n        /* \"#utility.yul\":2367:2445   */\n      swap4\n      pop\n        /* \"#utility.yul\":2454:2519   */\n      tag_366\n        /* \"#utility.yul\":2512:2518   */\n      dup2\n        /* \"#utility.yul\":2507:2510   */\n      dup6\n        /* \"#utility.yul\":2500:2504   */\n      0x20\n        /* \"#utility.yul\":2493:2498   */\n      dup7\n        /* \"#utility.yul\":2489:2505   */\n      add\n        /* \"#utility.yul\":2454:2519   */\n      tag_284\n      jump\t// in\n    tag_366:\n        /* \"#utility.yul\":2544:2573   */\n      tag_367\n        /* \"#utility.yul\":2566:2572   */\n      dup2\n        /* \"#utility.yul\":2544:2573   */\n      tag_285\n      jump\t// in\n    tag_367:\n        /* \"#utility.yul\":2539:2542   */\n      dup5\n        /* \"#utility.yul\":2535:2574   */\n      add\n        /* \"#utility.yul\":2528:2574   */\n      swap2\n      pop\n        /* \"#utility.yul\":2295:2580   */\n      pop\n        /* \"#utility.yul\":2203:2580   */\n      swap3\n      swap2\n      pop\n      pop\n      jump\t// out\n        /* \"#utility.yul\":2586:2663   */\n    tag_287:\n        /* \"#utility.yul\":2623:2630   */\n      0x00\n        /* \"#utility.yul\":2652:2657   */\n      dup2\n        /* \"#utility.yul\":2641:2657   */\n      swap1\n      pop\n        /* \"#utility.yul\":2586:2663   */\n      swap2\n      swap1\n      pop\n      jump\t// out\n        /* \"#utility.yul\":2669:2787   */\n    tag_288:\n        /* \"#utility.yul\":2756:2780   */\n      tag_370\n        /* \"#utility.yul\":2774:2779   */\n      dup2\n        /* \"#utility.yul\":2756:2780   */\n      tag_287\n      jump\t// in\n    tag_370:\n        /* \"#utility.yul\":2751:2754   */\n      dup3\n        /* \"#utility.yul\":2744:2781   */\n      mstore\n        /* \"#utility.yul\":2669:2787   */\n      pop\n      pop\n      jump\t// out\n        /* \"#utility.yul\":2793:3548   */\n    tag_32:\n        /* \"#utility.yul\":3018:3022   */\n      0x00\n        /* \"#utility.yul\":3056:3059   */\n      0xa0\n        /* \"#utility.yul\":3045:3054   */\n      dup3\n        /* \"#utility.yul\":3041:3060   */\n      add\n        /* \"#utility.yul\":3033:3060   */\n      swap1\n      pop\n        /* \"#utility.yul\":3106:3115   */\n      dup2\n        /* \"#utility.yul\":3100:3104   */\n      dup2\n        /* \"#utility.yul\":3096:3116   */\n      sub\n        /* \"#utility.yul\":3092:3093   */\n      0x00\n        /* \"#utility.yul\":3081:3090   */\n      dup4\n        /* \"#utility.yul\":3077:3094   */\n      add\n        /* \"#utility.yul\":3070:3117   */\n      mstore\n        /* \"#utility.yul\":3134:3212   */\n      tag_372\n        /* \"#utility.yul\":3207:3211   */\n      dup2\n        /* \"#utility.yul\":3198:3204   */\n      dup9\n        /* \"#utility.yul\":3134:3212   */\n      tag_286\n      jump\t// in\n    tag_372:\n        /* \"#utility.yul\":3126:3212   */\n      swap1\n      pop\n        /* \"#utility.yul\":3222:3294   */\n      tag_373\n        /* \"#utility.yul\":3290:3292   */\n      0x20\n        /* \"#utility.yul\":3279:3288   */\n      dup4\n        /* \"#utility.yul\":3275:3293   */\n      add\n        /* \"#utility.yul\":3266:3272   */\n      dup8\n        /* \"#utility.yul\":3222:3294   */\n      tag_288\n      jump\t// in\n    tag_373:\n        /* \"#utility.yul\":3304:3376   */\n      tag_374\n        /* \"#utility.yul\":3372:3374   */\n      0x40\n        /* \"#utility.yul\":3361:3370   */\n      dup4\n        /* \"#utility.yul\":3357:3375   */\n      add\n        /* \"#utility.yul\":3348:3354   */\n      dup7\n        /* \"#utility.yul\":3304:3376   */\n      tag_288\n      jump\t// in\n    tag_374:\n        /* \"#utility.yul\":3386:3458   */\n      tag_375\n        /* \"#utility.yul\":3454:3456   */\n      0x60\n        /* \"#utility.yul\":3443:3452   */\n      dup4\n        /* \"#utility.yul\":3439:3457   */\n      add\n        /* \"#utility.yul\":3430:3436   */\n      dup6\n        /* \"#utility.yul\":3386:3458   */\n      tag_288\n      jump\t// in\n    tag_375:\n        /* \"#utility.yul\":3468:3541   */\n      tag_376\n        /* \"#utility.yul\":3536:3539   */\n      0x80\n        /* \"#utility.yul\":3525:3534   */\n      dup4\n        /* \"#utility.yul\":3521:3540   */\n      add\n        /* \"#utility.yul\":3512:3518   */\n      dup5\n        /* \"#utility.yul\":3468:3541   */\n      tag_288\n      jump\t// in\n    tag_376:\n        /* \"#utility.yul\":2793:3548   */\n      swap7\n      swap6\n      pop\n      pop\n      pop\n      pop\n      pop\n      pop\n      jump\t// out\n        /* \"#utility.yul\":3554:3883   */\n    tag_36:\n        /* \"#utility.yul\":3613:3619   */\n      0x00\n        /* \"#utility.yul\":3662:3664   */\n      0x20\n        /* \"#utility.yul\":3650:3659   */\n      dup3\n        /* \"#utility.yul\":3641:3648   */\n      dup5\n        /* \"#utility.yul\":3637:3660   */\n      sub\n        /* \"#utility.yul\":3633:3665   */\n      slt\n        /* \"#utility.yul\":3630:3749   */\n      iszero\n      tag_378\n      jumpi\n        /* \"#utility.yul\":3668:3747   */\n      tag_379\n      tag_273\n      jump\t// in\n    tag_379:\n        /* \"#utility.yul\":3630:3749   */\n    tag_378:\n        /* \"#utility.yul\":3788:3789   */\n      0x00\n        /* \"#utility.yul\":3813:3866   */\n      tag_380\n        /* \"#utility.yul\":3858:3865   */\n      dup5\n        /* \"#utility.yul\":3849:3855   */\n      dup3\n        /* \"#utility.yul\":3838:3847   */\n      dup6\n        /* \"#utility.yul\":3834:3856   */\n      add\n        /* \"#utility.yul\":3813:3866   */\n      tag_278\n      jump\t// in\n    tag_380:\n        /* \"#utility.yul\":3803:3866   */\n      swap2\n      pop\n        /* \"#utility.yul\":3759:3876   */\n      pop\n        /* \"#utility.yul\":3554:3883   */\n      swap3\n      swap2\n      pop\n      pop\n      jump\t// out\n        /* \"#utility.yul\":3889:4111   */\n    tag_39:\n        /* \"#utility.yul\":3982:3986   */\n      0x00\n        /* \"#utility.yul\":4020:4022   */\n      0x20\n        /* \"#utility.yul\":4009:4018   */\n      dup3\n        /* \"#utility.yul\":4005:4023   */\n      add\n        /* \"#utility.yul\":3997:4023   */\n      swap1\n      pop\n        /* \"#utility.yul\":4033:4104   */\n      tag_382\n        /* \"#utility.yul\":4101:4102   */\n      0x00\n        /* \"#utility.yul\":4090:4099   */\n      dup4\n        /* \"#utility.yul\":4086:4103   */\n      add\n        /* \"#utility.yul\":4077:4083   */\n      dup5\n        /* \"#utility.yul\":4033:4104   */\n      tag_288\n      jump\t// in\n    tag_382:\n        /* \"#utility.yul\":3889:4111   */\n      swap3\n      swap2\n      pop\n      pop\n      jump\t// out\n        /* \"#utility.yul\":4117:4239   */\n    tag_289:\n        /* \"#utility.yul\":4190:4214   */\n      tag_384\n        /* \"#utility.yul\":4208:4213   */\n      dup2\n        /* \"#utility.yul\":4190:4214   */\n      tag_287\n      jump\t// in\n    tag_384:\n        /* \"#utility.yul\":4183:4188   */\n      dup2\n        /* \"#utility.yul\":4180:4215   */\n      eq\n        /* \"#utility.yul\":4170:4233   */\n      tag_385\n      jumpi\n        /* \"#utility.yul\":4229:4230   */\n      0x00\n        /* \"#utility.yul\":4226:4227   */\n      0x00\n        /* \"#utility.yul\":4219:4231   */\n      revert\n        /* \"#utility.yul\":4170:4233   */\n    tag_385:\n        /* \"#utility.yul\":4117:4239   */\n      pop\n      jump\t// out\n        /* \"#utility.yul\":4245:4384   */\n    tag_290:\n        /* \"#utility.yul\":4291:4296   */\n      0x00\n        /* \"#utility.yul\":4329:4335   */\n      dup2\n        /* \"#utility.yul\":4316:4336   */\n      calldataload\n        /* \"#utility.yul\":4307:4336   */\n      swap1\n      pop\n        /* \"#utility.yul\":4345:4378   */\n      tag_387\n        /* \"#utility.yul\":4372:4377   */\n      dup2\n        /* \"#utility.yul\":4345:4378   */\n      tag_289\n      jump\t// in\n    tag_387:\n        /* \"#utility.yul\":4245:4384   */\n      swap3\n      swap2\n      pop\n      pop\n      jump\t// out\n        /* \"#utility.yul\":4390:4719   */\n    tag_42:\n        /* \"#utility.yul\":4449:4455   */\n      0x00\n        /* \"#utility.yul\":4498:4500   */\n      0x20\n        /* \"#utility.yul\":4486:4495   */\n      dup3\n        /* \"#utility.yul\":4477:4484   */\n      dup5\n        /* \"#utility.yul\":4473:4496   */\n      sub\n        /* \"#utility.yul\":4469:4501   */\n      slt\n        /* \"#utility.yul\":4466:4585   */\n      iszero\n      tag_389\n      jumpi\n        /* \"#utility.yul\":4504:4583   */\n      tag_390\n      tag_273\n      jump\t// in\n    tag_390:\n        /* \"#utility.yul\":4466:4585   */\n    tag_389:\n        /* \"#utility.yul\":4624:4625   */\n      0x00\n        /* \"#utility.yul\":4649:4702   */\n      tag_391\n        /* \"#utility.yul\":4694:4701   */\n      dup5\n        /* \"#utility.yul\":4685:4691   */\n      dup3\n        /* \"#utility.yul\":4674:4683   */\n      dup6\n        /* \"#utility.yul\":4670:4692   */\n      add\n        /* \"#utility.yul\":4649:4702   */\n      tag_290\n      jump\t// in\n    tag_391:\n        /* \"#utility.yul\":4639:4702   */\n      swap2\n      pop\n        /* \"#utility.yul\":4595:4712   */\n      pop\n        /* \"#utility.yul\":4390:4719   */\n      swap3\n      swap2\n      pop\n      pop\n      jump\t// out\n        /* \"#utility.yul\":4725:4815   */\n    tag_291:\n        /* \"#utility.yul\":4759:4766   */\n      0x00\n        /* \"#utility.yul\":4802:4807   */\n      dup2\n        /* \"#utility.yul\":4795:4808   */\n      iszero\n        /* \"#utility.yul\":4788:4809   */\n      iszero\n        /* \"#utility.yul\":4777:4809   */\n      swap1\n      pop\n        /* \"#utility.yul\":4725:4815   */\n      swap2\n      swap1\n      pop\n      jump\t// out\n        /* \"#utility.yul\":4821:4930   */\n    tag_292:\n        /* \"#utility.yul\":4902:4923   */\n      tag_394\n        /* \"#utility.yul\":4917:4922   */\n      dup2\n        /* \"#utility.yul\":4902:4923   */\n      tag_291\n      jump\t// in\n    tag_394:\n        /* \"#utility.yul\":4897:4900   */\n      dup3\n        /* \"#utility.yul\":4890:4924   */\n      mstore\n        /* \"#utility.yul\":4821:4930   */\n      pop\n      pop\n      jump\t// out\n        /* \"#utility.yul\":4936:5146   */\n    tag_49:\n        /* \"#utility.yul\":5023:5027   */\n      0x00\n        /* \"#utility.yul\":5061:5063   */\n      0x20\n        /* \"#utility.yul\":5050:5059   */\n      dup3\n        /* \"#utility.yul\":5046:5064   */\n      add\n        /* \"#utility.yul\":5038:5064   */\n      swap1\n      pop\n        /* \"#utility.yul\":5074:5139   */\n      tag_396\n        /* \"#utility.yul\":5136:5137   */\n      0x00\n        /* \"#utility.yul\":5125:5134   */\n      dup4\n        /* \"#utility.yul\":5121:5138   */\n      add\n        /* \"#utility.yul\":5112:5118   */\n      dup5\n        /* \"#utility.yul\":5074:5139   */\n      tag_292\n      jump\t// in\n    tag_396:\n        /* \"#utility.yul\":4936:5146   */\n      swap3\n      swap2\n      pop\n      pop\n      jump\t// out\n        /* \"#utility.yul\":5152:5626   */\n    tag_52:\n        /* \"#utility.yul\":5220:5226   */\n      0x00\n        /* \"#utility.yul\":5228:5234   */\n      0x00\n        /* \"#utility.yul\":5277:5279   */\n      0x40\n        /* \"#utility.yul\":5265:5274   */\n      dup4\n        /* \"#utility.yul\":5256:5263   */\n      dup6\n        /* \"#utility.yul\":5252:5275   */\n      sub\n        /* \"#utility.yul\":5248:5280   */\n      slt\n        /* \"#utility.yul\":5245:5364   */\n      iszero\n      tag_398\n      jumpi\n        /* \"#utility.yul\":5283:5362   */\n      tag_399\n      tag_273\n      jump\t// in\n    tag_399:\n        /* \"#utility.yul\":5245:5364   */\n    tag_398:\n        /* \"#utility.yul\":5403:5404   */\n      0x00\n        /* \"#utility.yul\":5428:5481   */\n      tag_400\n        /* \"#utility.yul\":5473:5480   */\n      dup6\n        /* \"#utility.yul\":5464:5470   */\n      dup3\n        /* \"#utility.yul\":5453:5462   */\n      dup7\n        /* \"#utility.yul\":5449:5471   */\n      add\n        /* \"#utility.yul\":5428:5481   */\n      tag_290\n      jump\t// in\n    tag_400:\n        /* \"#utility.yul\":5418:5481   */\n      swap3\n      pop\n        /* \"#utility.yul\":5374:5491   */\n      pop\n        /* \"#utility.yul\":5530:5532   */\n      0x20\n        /* \"#utility.yul\":5556:5609   */\n      tag_401\n        /* \"#utility.yul\":5601:5608   */\n      dup6\n        /* \"#utility.yul\":5592:5598   */\n      dup3\n        /* \"#utility.yul\":5581:5590   */\n      dup7\n        /* \"#utility.yul\":5577:5599   */\n      add\n        /* \"#utility.yul\":5556:5609   */\n      tag_290\n      jump\t// in\n    tag_401:\n        /* \"#utility.yul\":5546:5609   */\n      swap2\n      pop\n        /* \"#utility.yul\":5501:5619   */\n      pop\n        /* \"#utility.yul\":5152:5626   */\n      swap3\n      pop\n      swap3\n      swap1\n      pop\n      jump\t// out\n        /* \"#utility.yul\":5632:5746   */\n    tag_293:\n        /* \"#utility.yul\":5699:5705   */\n      0x00\n        /* \"#utility.yul\":5733:5738   */\n      dup2\n        /* \"#utility.yul\":5727:5739   */\n      mload\n        /* \"#utility.yul\":5717:5739   */\n      swap1\n      pop\n        /* \"#utility.yul\":5632:5746   */\n      swap2\n      swap1\n      pop\n      jump\t// out\n        /* \"#utility.yul\":5752:5936   */\n    tag_294:\n        /* \"#utility.yul\":5851:5862   */\n      0x00\n        /* \"#utility.yul\":5885:5891   */\n      dup3\n        /* \"#utility.yul\":5880:5883   */\n      dup3\n        /* \"#utility.yul\":5873:5892   */\n      mstore\n        /* \"#utility.yul\":5925:5929   */\n      0x20\n        /* \"#utility.yul\":5920:5923   */\n      dup3\n        /* \"#utility.yul\":5916:5930   */\n      add\n        /* \"#utility.yul\":5901:5930   */\n      swap1\n      pop\n        /* \"#utility.yul\":5752:5936   */\n      swap3\n      swap2\n      pop\n      pop\n      jump\t// out\n        /* \"#utility.yul\":5942:6074   */\n    tag_295:\n        /* \"#utility.yul\":6009:6013   */\n      0x00\n        /* \"#utility.yul\":6032:6035   */\n      dup2\n        /* \"#utility.yul\":6024:6035   */\n      swap1\n      pop\n        /* \"#utility.yul\":6062:6066   */\n      0x20\n        /* \"#utility.yul\":6057:6060   */\n      dup3\n        /* \"#utility.yul\":6053:6067   */\n      add\n        /* \"#utility.yul\":6045:6067   */\n      swap1\n      pop\n        /* \"#utility.yul\":5942:6074   */\n      swap2\n      swap1\n      pop\n      jump\t// out\n        /* \"#utility.yul\":6080:6188   */\n    tag_296:\n        /* \"#utility.yul\":6157:6181   */\n      tag_406\n        /* \"#utility.yul\":6175:6180   */\n      dup2\n        /* \"#utility.yul\":6157:6181   */\n      tag_276\n      jump\t// in\n    tag_406:\n        /* \"#utility.yul\":6152:6155   */\n      dup3\n        /* \"#utility.yul\":6145:6182   */\n      mstore\n        /* \"#utility.yul\":6080:6188   */\n      pop\n      pop\n      jump\t// out\n        /* \"#utility.yul\":6194:6373   */\n    tag_297:\n        /* \"#utility.yul\":6263:6273   */\n      0x00\n        /* \"#utility.yul\":6284:6330   */\n      tag_408\n        /* \"#utility.yul\":6326:6329   */\n      dup4\n        /* \"#utility.yul\":6318:6324   */\n      dup4\n        /* \"#utility.yul\":6284:6330   */\n      tag_296\n      jump\t// in\n    tag_408:\n        /* \"#utility.yul\":6362:6366   */\n      0x20\n        /* \"#utility.yul\":6357:6360   */\n      dup4\n        /* \"#utility.yul\":6353:6367   */\n      add\n        /* \"#utility.yul\":6339:6367   */\n      swap1\n      pop\n        /* \"#utility.yul\":6194:6373   */\n      swap3\n      swap2\n      pop\n      pop\n      jump\t// out\n        /* \"#utility.yul\":6379:6492   */\n    tag_298:\n        /* \"#utility.yul\":6449:6453   */\n      0x00\n        /* \"#utility.yul\":6481:6485   */\n      0x20\n        /* \"#utility.yul\":6476:6479   */\n      dup3\n        /* \"#utility.yul\":6472:6486   */\n      add\n        /* \"#utility.yul\":6464:6486   */\n      swap1\n      pop\n        /* \"#utility.yul\":6379:6492   */\n      swap2\n      swap1\n      pop\n      jump\t// out\n        /* \"#utility.yul\":6528:7260   */\n    tag_299:\n        /* \"#utility.yul\":6647:6650   */\n      0x00\n        /* \"#utility.yul\":6676:6730   */\n      tag_411\n        /* \"#utility.yul\":6724:6729   */\n      dup3\n        /* \"#utility.yul\":6676:6730   */\n      tag_293\n      jump\t// in\n    tag_411:\n        /* \"#utility.yul\":6746:6832   */\n      tag_412\n        /* \"#utility.yul\":6825:6831   */\n      dup2\n        /* \"#utility.yul\":6820:6823   */\n      dup6\n        /* \"#utility.yul\":6746:6832   */\n      tag_294\n      jump\t// in\n    tag_412:\n        /* \"#utility.yul\":6739:6832   */\n      swap4\n      pop\n        /* \"#utility.yul\":6856:6912   */\n      tag_413\n        /* \"#utility.yul\":6906:6911   */\n      dup4\n        /* \"#utility.yul\":6856:6912   */\n      tag_295\n      jump\t// in\n    tag_413:\n        /* \"#utility.yul\":6935:6942   */\n      dup1\n        /* \"#utility.yul\":6966:6967   */\n      0x00\n        /* \"#utility.yul\":6951:7235   */\n    tag_414:\n        /* \"#utility.yul\":6976:6982   */\n      dup4\n        /* \"#utility.yul\":6973:6974   */\n      dup2\n        /* \"#utility.yul\":6970:6983   */\n      lt\n        /* \"#utility.yul\":6951:7235   */\n      iszero\n      tag_416\n      jumpi\n        /* \"#utility.yul\":7052:7058   */\n      dup2\n        /* \"#utility.yul\":7046:7059   */\n      mload\n        /* \"#utility.yul\":7079:7142   */\n      tag_417\n        /* \"#utility.yul\":7138:7141   */\n      dup9\n        /* \"#utility.yul\":7123:7136   */\n      dup3\n        /* \"#utility.yul\":7079:7142   */\n      tag_297\n      jump\t// in\n    tag_417:\n        /* \"#utility.yul\":7072:7142   */\n      swap8\n      pop\n        /* \"#utility.yul\":7165:7225   */\n      tag_418\n        /* \"#utility.yul\":7218:7224   */\n      dup4\n        /* \"#utility.yul\":7165:7225   */\n      tag_298\n      jump\t// in\n    tag_418:\n        /* \"#utility.yul\":7155:7225   */\n      swap3\n      pop\n        /* \"#utility.yul\":7011:7235   */\n      pop\n        /* \"#utility.yul\":6998:6999   */\n      0x01\n        /* \"#utility.yul\":6995:6996   */\n      dup2\n        /* \"#utility.yul\":6991:7000   */\n      add\n        /* \"#utility.yul\":6986:7000   */\n      swap1\n      pop\n        /* \"#utility.yul\":6951:7235   */\n      jump(tag_414)\n    tag_416:\n        /* \"#utility.yul\":6955:6969   */\n      pop\n        /* \"#utility.yul\":7251:7254   */\n      dup6\n        /* \"#utility.yul\":7244:7254   */\n      swap4\n      pop\n        /* \"#utility.yul\":6652:7260   */\n      pop\n      pop\n      pop\n        /* \"#utility.yul\":6528:7260   */\n      swap3\n      swap2\n      pop\n      pop\n      jump\t// out\n        /* \"#utility.yul\":7266:7639   */\n    tag_62:\n        /* \"#utility.yul\":7409:7413   */\n      0x00\n        /* \"#utility.yul\":7447:7449   */\n      0x20\n        /* \"#utility.yul\":7436:7445   */\n      dup3\n        /* \"#utility.yul\":7432:7450   */\n      add\n        /* \"#utility.yul\":7424:7450   */\n      swap1\n      pop\n        /* \"#utility.yul\":7496:7505   */\n      dup2\n        /* \"#utility.yul\":7490:7494   */\n      dup2\n        /* \"#utility.yul\":7486:7506   */\n      sub\n        /* \"#utility.yul\":7482:7483   */\n      0x00\n        /* \"#utility.yul\":7471:7480   */\n      dup4\n        /* \"#utility.yul\":7467:7484   */\n      add\n        /* \"#utility.yul\":7460:7507   */\n      mstore\n        /* \"#utility.yul\":7524:7632   */\n      tag_420\n        /* \"#utility.yul\":7627:7631   */\n      dup2\n        /* \"#utility.yul\":7618:7624   */\n      dup5\n        /* \"#utility.yul\":7524:7632   */\n      tag_299\n      jump\t// in\n    tag_420:\n        /* \"#utility.yul\":7516:7632   */\n      swap1\n      pop\n        /* \"#utility.yul\":7266:7639   */\n      swap3\n      swap2\n      pop\n      pop\n      jump\t// out\n        /* \"#utility.yul\":7645:7760   */\n    tag_300:\n        /* \"#utility.yul\":7730:7753   */\n      tag_422\n        /* \"#utility.yul\":7747:7752   */\n      dup2\n        /* \"#utility.yul\":7730:7753   */\n      tag_279\n      jump\t// in\n    tag_422:\n        /* \"#utility.yul\":7725:7728   */\n      dup3\n        /* \"#utility.yul\":7718:7754   */\n      mstore\n        /* \"#utility.yul\":7645:7760   */\n      pop\n      pop\n      jump\t// out\n        /* \"#utility.yul\":7766:7984   */\n    tag_76:\n        /* \"#utility.yul\":7857:7861   */\n      0x00\n        /* \"#utility.yul\":7895:7897   */\n      0x20\n        /* \"#utility.yul\":7884:7893   */\n      dup3\n        /* \"#utility.yul\":7880:7898   */\n      add\n        /* \"#utility.yul\":7872:7898   */\n      swap1\n      pop\n        /* \"#utility.yul\":7908:7977   */\n      tag_424\n        /* \"#utility.yul\":7974:7975   */\n      0x00\n        /* \"#utility.yul\":7963:7972   */\n      dup4\n        /* \"#utility.yul\":7959:7976   */\n      add\n        /* \"#utility.yul\":7950:7956   */\n      dup5\n        /* \"#utility.yul\":7908:7977   */\n      tag_300\n      jump\t// in\n    tag_424:\n        /* \"#utility.yul\":7766:7984   */\n      swap3\n      swap2\n      pop\n      pop\n      jump\t// out\n        /* \"#utility.yul\":7990:8108   */\n    tag_301:\n        /* \"#utility.yul\":8077:8101   */\n      tag_426\n        /* \"#utility.yul\":8095:8100   */\n      dup2\n        /* \"#utility.yul\":8077:8101   */\n      tag_276\n      jump\t// in\n    tag_426:\n        /* \"#utility.yul\":8072:8075   */\n      dup3\n        /* \"#utility.yul\":8065:8102   */\n      mstore\n        /* \"#utility.yul\":7990:8108   */\n      pop\n      pop\n      jump\t// out\n        /* \"#utility.yul\":8114:8336   */\n    tag_81:\n        /* \"#utility.yul\":8207:8211   */\n      0x00\n        /* \"#utility.yul\":8245:8247   */\n      0x20\n        /* \"#utility.yul\":8234:8243   */\n      dup3\n        /* \"#utility.yul\":8230:8248   */\n      add\n        /* \"#utility.yul\":8222:8248   */\n      swap1\n      pop\n        /* \"#utility.yul\":8258:8329   */\n      tag_428\n        /* \"#utility.yul\":8326:8327   */\n      0x00\n        /* \"#utility.yul\":8315:8324   */\n      dup4\n        /* \"#utility.yul\":8311:8328   */\n      add\n        /* \"#utility.yul\":8302:8308   */\n      dup5\n        /* \"#utility.yul\":8258:8329   */\n      tag_301\n      jump\t// in\n    tag_428:\n        /* \"#utility.yul\":8114:8336   */\n      swap3\n      swap2\n      pop\n      pop\n      jump\t// out\n        /* \"#utility.yul\":8342:8816   */\n    tag_104:\n        /* \"#utility.yul\":8410:8416   */\n      0x00\n        /* \"#utility.yul\":8418:8424   */\n      0x00\n        /* \"#utility.yul\":8467:8469   */\n      0x40\n        /* \"#utility.yul\":8455:8464   */\n      dup4\n        /* \"#utility.yul\":8446:8453   */\n      dup6\n        /* \"#utility.yul\":8442:8465   */\n      sub\n        /* \"#utility.yul\":8438:8470   */\n      slt\n        /* \"#utility.yul\":8435:8554   */\n      iszero\n      tag_430\n      jumpi\n        /* \"#utility.yul\":8473:8552   */\n      tag_431\n      tag_273\n      jump\t// in\n    tag_431:\n        /* \"#utility.yul\":8435:8554   */\n    tag_430:\n        /* \"#utility.yul\":8593:8594   */\n      0x00\n        /* \"#utility.yul\":8618:8671   */\n      tag_432\n        /* \"#utility.yul\":8663:8670   */\n      dup6\n        /* \"#utility.yul\":8654:8660   */\n      dup3\n        /* \"#utility.yul\":8643:8652   */\n      dup7\n        /* \"#utility.yul\":8639:8661   */\n      add\n        /* \"#utility.yul\":8618:8671   */\n      tag_278\n      jump\t// in\n    tag_432:\n        /* \"#utility.yul\":8608:8671   */\n      swap3\n      pop\n        /* \"#utility.yul\":8564:8681   */\n      pop\n        /* \"#utility.yul\":8720:8722   */\n      0x20\n        /* \"#utility.yul\":8746:8799   */\n      tag_433\n        /* \"#utility.yul\":8791:8798   */\n      dup6\n        /* \"#utility.yul\":8782:8788   */\n      dup3\n        /* \"#utility.yul\":8771:8780   */\n      dup7\n        /* \"#utility.yul\":8767:8789   */\n      add\n        /* \"#utility.yul\":8746:8799   */\n      tag_290\n      jump\t// in\n    tag_433:\n        /* \"#utility.yul\":8736:8799   */\n      swap2\n      pop\n        /* \"#utility.yul\":8691:8809   */\n      pop\n        /* \"#utility.yul\":8342:8816   */\n      swap3\n      pop\n      swap3\n      swap1\n      pop\n      jump\t// out\n        /* \"#utility.yul\":8822:9264   */\n    tag_107:\n        /* \"#utility.yul\":8971:8975   */\n      0x00\n        /* \"#utility.yul\":9009:9011   */\n      0x60\n        /* \"#utility.yul\":8998:9007   */\n      dup3\n        /* \"#utility.yul\":8994:9012   */\n      add\n        /* \"#utility.yul\":8986:9012   */\n      swap1\n      pop\n        /* \"#utility.yul\":9022:9093   */\n      tag_435\n        /* \"#utility.yul\":9090:9091   */\n      0x00\n        /* \"#utility.yul\":9079:9088   */\n      dup4\n        /* \"#utility.yul\":9075:9092   */\n      add\n        /* \"#utility.yul\":9066:9072   */\n      dup7\n        /* \"#utility.yul\":9022:9093   */\n      tag_288\n      jump\t// in\n    tag_435:\n        /* \"#utility.yul\":9103:9175   */\n      tag_436\n        /* \"#utility.yul\":9171:9173   */\n      0x20\n        /* \"#utility.yul\":9160:9169   */\n      dup4\n        /* \"#utility.yul\":9156:9174   */\n      add\n        /* \"#utility.yul\":9147:9153   */\n      dup6\n        /* \"#utility.yul\":9103:9175   */\n      tag_288\n      jump\t// in\n    tag_436:\n        /* \"#utility.yul\":9185:9257   */\n      tag_437\n        /* \"#utility.yul\":9253:9255   */\n      0x40\n        /* \"#utility.yul\":9242:9251   */\n      dup4\n        /* \"#utility.yul\":9238:9256   */\n      add\n        /* \"#utility.yul\":9229:9235   */\n      dup5\n        /* \"#utility.yul\":9185:9257   */\n      tag_288\n      jump\t// in\n    tag_437:\n        /* \"#utility.yul\":8822:9264   */\n      swap5\n      swap4\n      pop\n      pop\n      pop\n      pop\n      jump\t// out\n        /* \"#utility.yul\":9270:9450   */\n    tag_114:\n        /* \"#utility.yul\":9318:9395   */\n      0x4e487b7100000000000000000000000000000000000000000000000000000000\n        /* \"#utility.yul\":9315:9316   */\n      0x00\n        /* \"#utility.yul\":9308:9396   */\n      mstore\n        /* \"#utility.yul\":9415:9419   */\n      0x32\n        /* \"#utility.yul\":9412:9413   */\n      0x04\n        /* \"#utility.yul\":9405:9420   */\n      mstore\n        /* \"#utility.yul\":9439:9443   */\n      0x24\n        /* \"#utility.yul\":9436:9437   */\n      0x00\n        /* \"#utility.yul\":9429:9444   */\n      revert\n        /* \"#utility.yul\":9456:9636   */\n    tag_302:\n        /* \"#utility.yul\":9504:9581   */\n      0x4e487b7100000000000000000000000000000000000000000000000000000000\n        /* \"#utility.yul\":9501:9502   */\n      0x00\n        /* \"#utility.yul\":9494:9582   */\n      mstore\n        /* \"#utility.yul\":9601:9605   */\n      0x11\n        /* \"#utility.yul\":9598:9599   */\n      0x04\n        /* \"#utility.yul\":9591:9606   */\n      mstore\n        /* \"#utility.yul\":9625:9629   */\n      0x24\n        /* \"#utility.yul\":9622:9623   */\n      0x00\n        /* \"#utility.yul\":9615:9630   */\n      revert\n        /* \"#utility.yul\":9642:9875   */\n    tag_117:\n        /* \"#utility.yul\":9681:9684   */\n      0x00\n        /* \"#utility.yul\":9704:9728   */\n      tag_441\n        /* \"#utility.yul\":9722:9727   */\n      dup3\n        /* \"#utility.yul\":9704:9728   */\n      tag_287\n      jump\t// in\n    tag_441:\n        /* \"#utility.yul\":9695:9728   */\n      swap2\n      pop\n        /* \"#utility.yul\":9750:9816   */\n      0xffffffffffffffffffffffffffffffffffffffffffffffffffffffffffffffff\n        /* \"#utility.yul\":9743:9748   */\n      dup3\n        /* \"#utility.yul\":9740:9817   */\n      sub\n        /* \"#utility.yul\":9737:9840   */\n      tag_442\n      jumpi\n        /* \"#utility.yul\":9820:9838   */\n      tag_443\n      tag_302\n      jump\t// in\n    tag_443:\n        /* \"#utility.yul\":9737:9840   */\n    tag_442:\n        /* \"#utility.yul\":9867:9868   */\n      0x01\n        /* \"#utility.yul\":9860:9865   */\n      dup3\n        /* \"#utility.yul\":9856:9869   */\n      add\n        /* \"#utility.yul\":9849:9869   */\n      swap1\n      pop\n        /* \"#utility.yul\":9642:9875   */\n      swap2\n      swap1\n      pop\n      jump\t// out\n        /* \"#utility.yul\":9881:10028   */\n    tag_303:\n        /* \"#utility.yul\":9982:9993   */\n      0x00\n        /* \"#utility.yul\":10019:10022   */\n      dup2\n        /* \"#utility.yul\":10004:10022   */\n      swap1\n      pop\n        /* \"#utility.yul\":9881:10028   */\n      swap3\n      swap2\n      pop\n      pop\n      jump\t// out\n        /* \"#utility.yul\":10034:10148   */\n    tag_304:\n      pop\n      jump\t// out\n        /* \"#utility.yul\":10154:10552   */\n    tag_305:\n        /* \"#utility.yul\":10313:10316   */\n      0x00\n        /* \"#utility.yul\":10334:10417   */\n      tag_447\n        /* \"#utility.yul\":10415:10416   */\n      0x00\n        /* \"#utility.yul\":10410:10413   */\n      dup4\n        /* \"#utility.yul\":10334:10417   */\n      tag_303\n      jump\t// in\n    tag_447:\n        /* \"#utility.yul\":10327:10417   */\n      swap2\n      pop\n        /* \"#utility.yul\":10426:10519   */\n      tag_448\n        /* \"#utility.yul\":10515:10518   */\n      dup3\n        /* \"#utility.yul\":10426:10519   */\n      tag_304\n      jump\t// in\n    tag_448:\n        /* \"#utility.yul\":10544:10545   */\n      0x00\n        /* \"#utility.yul\":10539:10542   */\n      dup3\n        /* \"#utility.yul\":10535:10546   */\n      add\n        /* \"#utility.yul\":10528:10546   */\n      swap1\n      pop\n        /* \"#utility.yul\":10154:10552   */\n      swap2\n      swap1\n      pop\n      jump\t// out\n        /* \"#utility.yul\":10558:10937   */\n    tag_121:\n        /* \"#utility.yul\":10742:10745   */\n      0x00\n        /* \"#utility.yul\":10764:10911   */\n      tag_450\n        /* \"#utility.yul\":10907:10910   */\n      dup3\n        /* \"#utility.yul\":10764:10911   */\n      tag_305\n      jump\t// in\n    tag_450:\n        /* \"#utility.yul\":10757:10911   */\n      swap2\n      pop\n        /* \"#utility.yul\":10928:10931   */\n      dup2\n        /* \"#utility.yul\":10921:10931   */\n      swap1\n      pop\n        /* \"#utility.yul\":10558:10937   */\n      swap2\n      swap1\n      pop\n      jump\t// out\n        /* \"#utility.yul\":10943:11111   */\n    tag_306:\n        /* \"#utility.yul\":11083:11103   */\n      0x5472616e73616374696f6e206661696c65640000000000000000000000000000\n        /* \"#utility.yul\":11079:11080   */\n      0x00\n        /* \"#utility.yul\":11071:11077   */\n      dup3\n        /* \"#utility.yul\":11067:11081   */\n      add\n        /* \"#utility.yul\":11060:11104   */\n      mstore\n        /* \"#utility.yul\":10943:11111   */\n      pop\n      jump\t// out\n        /* \"#utility.yul\":11117:11483   */\n    tag_307:\n        /* \"#utility.yul\":11259:11262   */\n      0x00\n        /* \"#utility.yul\":11280:11347   */\n      tag_453\n        /* \"#utility.yul\":11344:11346   */\n      0x12\n        /* \"#utility.yul\":11339:11342   */\n      dup4\n        /* \"#utility.yul\":11280:11347   */\n      tag_283\n      jump\t// in\n    tag_453:\n        /* \"#utility.yul\":11273:11347   */\n      swap2\n      pop\n        /* \"#utility.yul\":11356:11449   */\n      tag_454\n        /* \"#utility.yul\":11445:11448   */\n      dup3\n        /* \"#utility.yul\":11356:11449   */\n      tag_306\n      jump\t// in\n    tag_454:\n        /* \"#utility.yul\":11474:11476   */\n      0x20\n        /* \"#utility.yul\":11469:11472   */\n      dup3\n        /* \"#utility.yul\":11465:11477   */\n      add\n        /* \"#utility.yul\":11458:11477   */\n      swap1\n      pop\n        /* \"#utility.yul\":11117:11483   */\n      swap2\n      swap1\n      pop\n      jump\t// out\n        /* \"#utility.yul\":11489:11908   */\n    tag_127:\n        /* \"#utility.yul\":11655:11659   */\n      0x00\n        /* \"#utility.yul\":11693:11695   */\n      0x20\n        /* \"#utility.yul\":11682:11691   */\n      dup3\n        /* \"#utility.yul\":11678:11696   */\n      add\n        /* \"#utility.yul\":11670:11696   */\n      swap1\n      pop\n        /* \"#utility.yul\":11742:11751   */\n      dup2\n        /* \"#utility.yul\":11736:11740   */\n      dup2\n        /* \"#utility.yul\":11732:11752   */\n      sub\n        /* \"#utility.yul\":11728:11729   */\n      0x00\n        /* \"#utility.yul\":11717:11726   */\n      dup4\n        /* \"#utility.yul\":11713:11730   */\n      add\n        /* \"#utility.yul\":11706:11753   */\n      mstore\n        /* \"#utility.yul\":11770:11901   */\n      tag_456\n        /* \"#utility.yul\":11896:11900   */\n      dup2\n        /* \"#utility.yul\":11770:11901   */\n      tag_307\n      jump\t// in\n    tag_456:\n        /* \"#utility.yul\":11762:11901   */\n      swap1\n      pop\n        /* \"#utility.yul\":11489:11908   */\n      swap2\n      swap1\n      pop\n      jump\t// out\n        /* \"#utility.yul\":11914:12094   */\n    tag_308:\n        /* \"#utility.yul\":11962:12039   */\n      0x4e487b7100000000000000000000000000000000000000000000000000000000\n        /* \"#utility.yul\":11959:11960   */\n      0x00\n        /* \"#utility.yul\":11952:12040   */\n      mstore\n        /* \"#utility.yul\":12059:12063   */\n      0x22\n        /* \"#utility.yul\":12056:12057   */\n      0x04\n        /* \"#utility.yul\":12049:12064   */\n      mstore\n        /* \"#utility.yul\":12083:12087   */\n      0x24\n        /* \"#utility.yul\":12080:12081   */\n      0x00\n        /* \"#utility.yul\":12073:12088   */\n      revert\n        /* \"#utility.yul\":12100:12420   */\n    tag_129:\n        /* \"#utility.yul\":12144:12150   */\n      0x00\n        /* \"#utility.yul\":12181:12182   */\n      0x02\n        /* \"#utility.yul\":12175:12179   */\n      dup3\n        /* \"#utility.yul\":12171:12183   */\n      div\n        /* \"#utility.yul\":12161:12183   */\n      swap1\n      pop\n        /* \"#utility.yul\":12228:12229   */\n      0x01\n        /* \"#utility.yul\":12222:12226   */\n      dup3\n        /* \"#utility.yul\":12218:12230   */\n      and\n        /* \"#utility.yul\":12249:12267   */\n      dup1\n        /* \"#utility.yul\":12239:12320   */\n      tag_459\n      jumpi\n        /* \"#utility.yul\":12305:12309   */\n      0x7f\n        /* \"#utility.yul\":12297:12303   */\n      dup3\n        /* \"#utility.yul\":12293:12310   */\n      and\n        /* \"#utility.yul\":12283:12310   */\n      swap2\n      pop\n        /* \"#utility.yul\":12239:12320   */\n    tag_459:\n        /* \"#utility.yul\":12367:12369   */\n      0x20\n        /* \"#utility.yul\":12359:12365   */\n      dup3\n        /* \"#utility.yul\":12356:12370   */\n      lt\n        /* \"#utility.yul\":12336:12354   */\n      dup2\n        /* \"#utility.yul\":12333:12371   */\n      sub\n        /* \"#utility.yul\":12330:12414   */\n      tag_460\n      jumpi\n        /* \"#utility.yul\":12386:12404   */\n      tag_461\n      tag_308\n      jump\t// in\n    tag_461:\n        /* \"#utility.yul\":12330:12414   */\n    tag_460:\n        /* \"#utility.yul\":12151:12420   */\n      pop\n        /* \"#utility.yul\":12100:12420   */\n      swap2\n      swap1\n      pop\n      jump\t// out\n        /* \"#utility.yul\":12426:12601   */\n    tag_309:\n        /* \"#utility.yul\":12566:12593   */\n      0x4578636564656564206d6178696d756d20776974686472617700000000000000\n        /* \"#utility.yul\":12562:12563   */\n      0x00\n        /* \"#utility.yul\":12554:12560   */\n      dup3\n        /* \"#utility.yul\":12550:12564   */\n      add\n        /* \"#utility.yul\":12543:12594   */\n      mstore\n        /* \"#utility.yul\":12426:12601   */\n      pop\n      jump\t// out\n        /* \"#utility.yul\":12607:12973   */\n    tag_310:\n        /* \"#utility.yul\":12749:12752   */\n      0x00\n        /* \"#utility.yul\":12770:12837   */\n      tag_464\n        /* \"#utility.yul\":12834:12836   */\n      0x19\n        /* \"#utility.yul\":12829:12832   */\n      dup4\n        /* \"#utility.yul\":12770:12837   */\n      tag_283\n      jump\t// in\n    tag_464:\n        /* \"#utility.yul\":12763:12837   */\n      swap2\n      pop\n        /* \"#utility.yul\":12846:12939   */\n      tag_465\n        /* \"#utility.yul\":12935:12938   */\n      dup3\n        /* \"#utility.yul\":12846:12939   */\n      tag_309\n      jump\t// in\n    tag_465:\n        /* \"#utility.yul\":12964:12966   */\n      0x20\n        /* \"#utility.yul\":12959:12962   */\n      dup3\n        /* \"#utility.yul\":12955:12967   */\n      add\n        /* \"#utility.yul\":12948:12967   */\n      swap1\n      pop\n        /* \"#utility.yul\":12607:12973   */\n      swap2\n      swap1\n      pop\n      jump\t// out\n        /* \"#utility.yul\":12979:13398   */\n    tag_137:\n        /* \"#utility.yul\":13145:13149   */\n      0x00\n        /* \"#utility.yul\":13183:13185   */\n      0x20\n        /* \"#utility.yul\":13172:13181   */\n      dup3\n        /* \"#utility.yul\":13168:13186   */\n      add\n        /* \"#utility.yul\":13160:13186   */\n      swap1\n      pop\n        /* \"#utility.yul\":13232:13241   */\n      dup2\n        /* \"#utility.yul\":13226:13230   */\n      dup2\n        /* \"#utility.yul\":13222:13242   */\n      sub\n        /* \"#utility.yul\":13218:13219   */\n      0x00\n        /* \"#utility.yul\":13207:13216   */\n      dup4\n        /* \"#utility.yul\":13203:13220   */\n      add\n        /* \"#utility.yul\":13196:13243   */\n      mstore\n        /* \"#utility.yul\":13260:13391   */\n      tag_467\n        /* \"#utility.yul\":13386:13390   */\n      dup2\n        /* \"#utility.yul\":13260:13391   */\n      tag_310\n      jump\t// in\n    tag_467:\n        /* \"#utility.yul\":13252:13391   */\n      swap1\n      pop\n        /* \"#utility.yul\":12979:13398   */\n      swap2\n      swap1\n      pop\n      jump\t// out\n        /* \"#utility.yul\":13404:13598   */\n    tag_150:\n        /* \"#utility.yul\":13444:13448   */\n      0x00\n        /* \"#utility.yul\":13464:13484   */\n      tag_469\n        /* \"#utility.yul\":13482:13483   */\n      dup3\n        /* \"#utility.yul\":13464:13484   */\n      tag_287\n      jump\t// in\n    tag_469:\n        /* \"#utility.yul\":13459:13484   */\n      swap2\n      pop\n        /* \"#utility.yul\":13498:13518   */\n      tag_470\n        /* \"#utility.yul\":13516:13517   */\n      dup4\n        /* \"#utility.yul\":13498:13518   */\n      tag_287\n      jump\t// in\n    tag_470:\n        /* \"#utility.yul\":13493:13518   */\n      swap3\n      pop\n        /* \"#utility.yul\":13542:13543   */\n      dup3\n        /* \"#utility.yul\":13539:13540   */\n      dup3\n        /* \"#utility.yul\":13535:13544   */\n      sub\n        /* \"#utility.yul\":13527:13544   */\n      swap1\n      pop\n        /* \"#utility.yul\":13566:13567   */\n      dup2\n        /* \"#utility.yul\":13560:13564   */\n      dup2\n        /* \"#utility.yul\":13557:13568   */\n      gt\n        /* \"#utility.yul\":13554:13591   */\n      iszero\n      tag_471\n      jumpi\n        /* \"#utility.yul\":13571:13589   */\n      tag_472\n      tag_302\n      jump\t// in\n    tag_472:\n        /* \"#utility.yul\":13554:13591   */\n    tag_471:\n        /* \"#utility.yul\":13404:13598   */\n      swap3\n      swap2\n      pop\n      pop\n      jump\t// out\n        /* \"#utility.yul\":13604:13839   */\n    tag_311:\n        /* \"#utility.yul\":13744:13778   */\n      0x4e6f7420656e6f7567682066756e647320696e206465706f7369747320746f20\n        /* \"#utility.yul\":13740:13741   */\n      0x00\n        /* \"#utility.yul\":13732:13738   */\n      dup3\n        /* \"#utility.yul\":13728:13742   */\n      add\n        /* \"#utility.yul\":13721:13779   */\n      mstore\n        /* \"#utility.yul\":13813:13831   */\n      0x636f766572207769746864726177616c00000000000000000000000000000000\n        /* \"#utility.yul\":13808:13810   */\n      0x20\n        /* \"#utility.yul\":13800:13806   */\n      dup3\n        /* \"#utility.yul\":13796:13811   */\n      add\n        /* \"#utility.yul\":13789:13832   */\n      mstore\n        /* \"#utility.yul\":13604:13839   */\n      pop\n      jump\t// out\n        /* \"#utility.yul\":13845:14211   */\n    tag_312:\n        /* \"#utility.yul\":13987:13990   */\n      0x00\n        /* \"#utility.yul\":14008:14075   */\n      tag_475\n        /* \"#utility.yul\":14072:14074   */\n      0x30\n        /* \"#utility.yul\":14067:14070   */\n      dup4\n        /* \"#utility.yul\":14008:14075   */\n      tag_283\n      jump\t// in\n    tag_475:\n        /* \"#utility.yul\":14001:14075   */\n      swap2\n      pop\n        /* \"#utility.yul\":14084:14177   */\n      tag_476\n        /* \"#utility.yul\":14173:14176   */\n      dup3\n        /* \"#utility.yul\":14084:14177   */\n      tag_311\n      jump\t// in\n    tag_476:\n        /* \"#utility.yul\":14202:14204   */\n      0x40\n        /* \"#utility.yul\":14197:14200   */\n      dup3\n        /* \"#utility.yul\":14193:14205   */\n      add\n        /* \"#utility.yul\":14186:14205   */\n      swap1\n      pop\n        /* \"#utility.yul\":13845:14211   */\n      swap2\n      swap1\n      pop\n      jump\t// out\n        /* \"#utility.yul\":14217:14636   */\n    tag_172:\n        /* \"#utility.yul\":14383:14387   */\n      0x00\n        /* \"#utility.yul\":14421:14423   */\n      0x20\n        /* \"#utility.yul\":14410:14419   */\n      dup3\n        /* \"#utility.yul\":14406:14424   */\n      add\n        /* \"#utility.yul\":14398:14424   */\n      swap1\n      pop\n        /* \"#utility.yul\":14470:14479   */\n      dup2\n        /* \"#utility.yul\":14464:14468   */\n      dup2\n        /* \"#utility.yul\":14460:14480   */\n      sub\n        /* \"#utility.yul\":14456:14457   */\n      0x00\n        /* \"#utility.yul\":14445:14454   */\n      dup4\n        /* \"#utility.yul\":14441:14458   */\n      add\n        /* \"#utility.yul\":14434:14481   */\n      mstore\n        /* \"#utility.yul\":14498:14629   */\n      tag_478\n        /* \"#utility.yul\":14624:14628   */\n      dup2\n        /* \"#utility.yul\":14498:14629   */\n      tag_312\n      jump\t// in\n    tag_478:\n        /* \"#utility.yul\":14490:14629   */\n      swap1\n      pop\n        /* \"#utility.yul\":14217:14636   */\n      swap2\n      swap1\n      pop\n      jump\t// out\n        /* \"#utility.yul\":14642:15084   */\n    tag_174:\n        /* \"#utility.yul\":14791:14795   */\n      0x00\n        /* \"#utility.yul\":14829:14831   */\n      0x60\n        /* \"#utility.yul\":14818:14827   */\n      dup3\n        /* \"#utility.yul\":14814:14832   */\n      add\n        /* \"#utility.yul\":14806:14832   */\n      swap1\n      pop\n        /* \"#utility.yul\":14842:14913   */\n      tag_480\n        /* \"#utility.yul\":14910:14911   */\n      0x00\n        /* \"#utility.yul\":14899:14908   */\n      dup4\n        /* \"#utility.yul\":14895:14912   */\n      add\n        /* \"#utility.yul\":14886:14892   */\n      dup7\n        /* \"#utility.yul\":14842:14913   */\n      tag_301\n      jump\t// in\n    tag_480:\n        /* \"#utility.yul\":14923:14995   */\n      tag_481\n        /* \"#utility.yul\":14991:14993   */\n      0x20\n        /* \"#utility.yul\":14980:14989   */\n      dup4\n        /* \"#utility.yul\":14976:14994   */\n      add\n        /* \"#utility.yul\":14967:14973   */\n      dup6\n        /* \"#utility.yul\":14923:14995   */\n      tag_288\n      jump\t// in\n    tag_481:\n        /* \"#utility.yul\":15005:15077   */\n      tag_482\n        /* \"#utility.yul\":15073:15075   */\n      0x40\n        /* \"#utility.yul\":15062:15071   */\n      dup4\n        /* \"#utility.yul\":15058:15076   */\n      add\n        /* \"#utility.yul\":15049:15055   */\n      dup5\n        /* \"#utility.yul\":15005:15077   */\n      tag_288\n      jump\t// in\n    tag_482:\n        /* \"#utility.yul\":14642:15084   */\n      swap5\n      swap4\n      pop\n      pop\n      pop\n      pop\n      jump\t// out\n        /* \"#utility.yul\":15090:15259   */\n    tag_313:\n        /* \"#utility.yul\":15230:15251   */\n      0x496e76616c6964207765656b206e756d62657200000000000000000000000000\n        /* \"#utility.yul\":15226:15227   */\n      0x00\n        /* \"#utility.yul\":15218:15224   */\n      dup3\n        /* \"#utility.yul\":15214:15228   */\n      add\n        /* \"#utility.yul\":15207:15252   */\n      mstore\n        /* \"#utility.yul\":15090:15259   */\n      pop\n      jump\t// out\n        /* \"#utility.yul\":15265:15631   */\n    tag_314:\n        /* \"#utility.yul\":15407:15410   */\n      0x00\n        /* \"#utility.yul\":15428:15495   */\n      tag_485\n        /* \"#utility.yul\":15492:15494   */\n      0x13\n        /* \"#utility.yul\":15487:15490   */\n      dup4\n        /* \"#utility.yul\":15428:15495   */\n      tag_283\n      jump\t// in\n    tag_485:\n        /* \"#utility.yul\":15421:15495   */\n      swap2\n      pop\n        /* \"#utility.yul\":15504:15597   */\n      tag_486\n        /* \"#utility.yul\":15593:15596   */\n      dup3\n        /* \"#utility.yul\":15504:15597   */\n      tag_313\n      jump\t// in\n    tag_486:\n        /* \"#utility.yul\":15622:15624   */\n      0x20\n        /* \"#utility.yul\":15617:15620   */\n      dup3\n        /* \"#utility.yul\":15613:15625   */\n      add\n        /* \"#utility.yul\":15606:15625   */\n      swap1\n      pop\n        /* \"#utility.yul\":15265:15631   */\n      swap2\n      swap1\n      pop\n      jump\t// out\n        /* \"#utility.yul\":15637:16056   */\n    tag_178:\n        /* \"#utility.yul\":15803:15807   */\n      0x00\n        /* \"#utility.yul\":15841:15843   */\n      0x20\n        /* \"#utility.yul\":15830:15839   */\n      dup3\n        /* \"#utility.yul\":15826:15844   */\n      add\n        /* \"#utility.yul\":15818:15844   */\n      swap1\n      pop\n        /* \"#utility.yul\":15890:15899   */\n      dup2\n        /* \"#utility.yul\":15884:15888   */\n      dup2\n        /* \"#utility.yul\":15880:15900   */\n      sub\n        /* \"#utility.yul\":15876:15877   */\n      0x00\n        /* \"#utility.yul\":15865:15874   */\n      dup4\n        /* \"#utility.yul\":15861:15878   */\n      add\n        /* \"#utility.yul\":15854:15901   */\n      mstore\n        /* \"#utility.yul\":15918:16049   */\n      tag_488\n        /* \"#utility.yul\":16044:16048   */\n      dup2\n        /* \"#utility.yul\":15918:16049   */\n      tag_314\n      jump\t// in\n    tag_488:\n        /* \"#utility.yul\":15910:16049   */\n      swap1\n      pop\n        /* \"#utility.yul\":15637:16056   */\n      swap2\n      swap1\n      pop\n      jump\t// out\n        /* \"#utility.yul\":16062:16236   */\n    tag_315:\n        /* \"#utility.yul\":16202:16228   */\n      0x4d696e6d756d20626f72726f7720697320302e32204574680000000000000000\n        /* \"#utility.yul\":16198:16199   */\n      0x00\n        /* \"#utility.yul\":16190:16196   */\n      dup3\n        /* \"#utility.yul\":16186:16200   */\n      add\n        /* \"#utility.yul\":16179:16229   */\n      mstore\n        /* \"#utility.yul\":16062:16236   */\n      pop\n      jump\t// out\n        /* \"#utility.yul\":16242:16608   */\n    tag_316:\n        /* \"#utility.yul\":16384:16387   */\n      0x00\n        /* \"#utility.yul\":16405:16472   */\n      tag_491\n        /* \"#utility.yul\":16469:16471   */\n      0x18\n        /* \"#utility.yul\":16464:16467   */\n      dup4\n        /* \"#utility.yul\":16405:16472   */\n      tag_283\n      jump\t// in\n    tag_491:\n        /* \"#utility.yul\":16398:16472   */\n      swap2\n      pop\n        /* \"#utility.yul\":16481:16574   */\n      tag_492\n        /* \"#utility.yul\":16570:16573   */\n      dup3\n        /* \"#utility.yul\":16481:16574   */\n      tag_315\n      jump\t// in\n    tag_492:\n        /* \"#utility.yul\":16599:16601   */\n      0x20\n        /* \"#utility.yul\":16594:16597   */\n      dup3\n        /* \"#utility.yul\":16590:16602   */\n      add\n        /* \"#utility.yul\":16583:16602   */\n      swap1\n      pop\n        /* \"#utility.yul\":16242:16608   */\n      swap2\n      swap1\n      pop\n      jump\t// out\n        /* \"#utility.yul\":16614:17033   */\n    tag_182:\n        /* \"#utility.yul\":16780:16784   */\n      0x00\n        /* \"#utility.yul\":16818:16820   */\n      0x20\n        /* \"#utility.yul\":16807:16816   */\n      dup3\n        /* \"#utility.yul\":16803:16821   */\n      add\n        /* \"#utility.yul\":16795:16821   */\n      swap1\n      pop\n        /* \"#utility.yul\":16867:16876   */\n      dup2\n        /* \"#utility.yul\":16861:16865   */\n      dup2\n        /* \"#utility.yul\":16857:16877   */\n      sub\n        /* \"#utility.yul\":16853:16854   */\n      0x00\n        /* \"#utility.yul\":16842:16851   */\n      dup4\n        /* \"#utility.yul\":16838:16855   */\n      add\n        /* \"#utility.yul\":16831:16878   */\n      mstore\n        /* \"#utility.yul\":16895:17026   */\n      tag_494\n        /* \"#utility.yul\":17021:17025   */\n      dup2\n        /* \"#utility.yul\":16895:17026   */\n      tag_316\n      jump\t// in\n    tag_494:\n        /* \"#utility.yul\":16887:17026   */\n      swap1\n      pop\n        /* \"#utility.yul\":16614:17033   */\n      swap2\n      swap1\n      pop\n      jump\t// out\n        /* \"#utility.yul\":17039:17270   */\n    tag_185:\n        /* \"#utility.yul\":17077:17080   */\n      0x00\n        /* \"#utility.yul\":17100:17123   */\n      tag_496\n        /* \"#utility.yul\":17117:17122   */\n      dup3\n        /* \"#utility.yul\":17100:17123   */\n      tag_279\n      jump\t// in\n    tag_496:\n        /* \"#utility.yul\":17091:17123   */\n      swap2\n      pop\n        /* \"#utility.yul\":17145:17211   */\n      0x7fffffffffffffffffffffffffffffffffffffffffffffffffffffffffffffff\n        /* \"#utility.yul\":17138:17143   */\n      dup3\n        /* \"#utility.yul\":17135:17212   */\n      sub\n        /* \"#utility.yul\":17132:17235   */\n      tag_497\n      jumpi\n        /* \"#utility.yul\":17215:17233   */\n      tag_498\n      tag_302\n      jump\t// in\n    tag_498:\n        /* \"#utility.yul\":17132:17235   */\n    tag_497:\n        /* \"#utility.yul\":17262:17263   */\n      0x01\n        /* \"#utility.yul\":17255:17260   */\n      dup3\n        /* \"#utility.yul\":17251:17264   */\n      add\n        /* \"#utility.yul\":17244:17264   */\n      swap1\n      pop\n        /* \"#utility.yul\":17039:17270   */\n      swap2\n      swap1\n      pop\n      jump\t// out\n        /* \"#utility.yul\":17276:17686   */\n    tag_187:\n        /* \"#utility.yul\":17316:17323   */\n      0x00\n        /* \"#utility.yul\":17339:17359   */\n      tag_500\n        /* \"#utility.yul\":17357:17358   */\n      dup3\n        /* \"#utility.yul\":17339:17359   */\n      tag_287\n      jump\t// in\n    tag_500:\n        /* \"#utility.yul\":17334:17359   */\n      swap2\n      pop\n        /* \"#utility.yul\":17373:17393   */\n      tag_501\n        /* \"#utility.yul\":17391:17392   */\n      dup4\n        /* \"#utility.yul\":17373:17393   */\n      tag_287\n      jump\t// in\n    tag_501:\n        /* \"#utility.yul\":17368:17393   */\n      swap3\n      pop\n        /* \"#utility.yul\":17428:17429   */\n      dup3\n        /* \"#utility.yul\":17425:17426   */\n      dup3\n        /* \"#utility.yul\":17421:17430   */\n      mul\n        /* \"#utility.yul\":17450:17480   */\n      tag_502\n        /* \"#utility.yul\":17468:17479   */\n      dup2\n        /* \"#utility.yul\":17450:17480   */\n      tag_287\n      jump\t// in\n    tag_502:\n        /* \"#utility.yul\":17439:17480   */\n      swap2\n      pop\n        /* \"#utility.yul\":17629:17630   */\n      dup3\n        /* \"#utility.yul\":17620:17627   */\n      dup3\n        /* \"#utility.yul\":17616:17631   */\n      div\n        /* \"#utility.yul\":17613:17614   */\n      dup5\n        /* \"#utility.yul\":17610:17632   */\n      eq\n        /* \"#utility.yul\":17590:17591   */\n      dup4\n        /* \"#utility.yul\":17583:17592   */\n      iszero\n        /* \"#utility.yul\":17563:17646   */\n      or\n        /* \"#utility.yul\":17540:17679   */\n      tag_503\n      jumpi\n        /* \"#utility.yul\":17659:17677   */\n      tag_504\n      tag_302\n      jump\t// in\n    tag_504:\n        /* \"#utility.yul\":17540:17679   */\n    tag_503:\n        /* \"#utility.yul\":17324:17686   */\n      pop\n        /* \"#utility.yul\":17276:17686   */\n      swap3\n      swap2\n      pop\n      pop\n      jump\t// out\n        /* \"#utility.yul\":17692:17883   */\n    tag_189:\n        /* \"#utility.yul\":17732:17735   */\n      0x00\n        /* \"#utility.yul\":17751:17771   */\n      tag_506\n        /* \"#utility.yul\":17769:17770   */\n      dup3\n        /* \"#utility.yul\":17751:17771   */\n      tag_287\n      jump\t// in\n    tag_506:\n        /* \"#utility.yul\":17746:17771   */\n      swap2\n      pop\n        /* \"#utility.yul\":17785:17805   */\n      tag_507\n        /* \"#utility.yul\":17803:17804   */\n      dup4\n        /* \"#utility.yul\":17785:17805   */\n      tag_287\n      jump\t// in\n    tag_507:\n        /* \"#utility.yul\":17780:17805   */\n      swap3\n      pop\n        /* \"#utility.yul\":17828:17829   */\n      dup3\n        /* \"#utility.yul\":17825:17826   */\n      dup3\n        /* \"#utility.yul\":17821:17830   */\n      add\n        /* \"#utility.yul\":17814:17830   */\n      swap1\n      pop\n        /* \"#utility.yul\":17849:17852   */\n      dup1\n        /* \"#utility.yul\":17846:17847   */\n      dup3\n        /* \"#utility.yul\":17843:17853   */\n      gt\n        /* \"#utility.yul\":17840:17876   */\n      iszero\n      tag_508\n      jumpi\n        /* \"#utility.yul\":17856:17874   */\n      tag_509\n      tag_302\n      jump\t// in\n    tag_509:\n        /* \"#utility.yul\":17840:17876   */\n    tag_508:\n        /* \"#utility.yul\":17692:17883   */\n      swap3\n      swap2\n      pop\n      pop\n      jump\t// out\n        /* \"#utility.yul\":17889:18069   */\n    tag_317:\n        /* \"#utility.yul\":17937:18014   */\n      0x4e487b7100000000000000000000000000000000000000000000000000000000\n        /* \"#utility.yul\":17934:17935   */\n      0x00\n        /* \"#utility.yul\":17927:18015   */\n      mstore\n        /* \"#utility.yul\":18034:18038   */\n      0x12\n        /* \"#utility.yul\":18031:18032   */\n      0x04\n        /* \"#utility.yul\":18024:18039   */\n      mstore\n        /* \"#utility.yul\":18058:18062   */\n      0x24\n        /* \"#utility.yul\":18055:18056   */\n      0x00\n        /* \"#utility.yul\":18048:18063   */\n      revert\n        /* \"#utility.yul\":18075:18260   */\n    tag_200:\n        /* \"#utility.yul\":18115:18116   */\n      0x00\n        /* \"#utility.yul\":18132:18152   */\n      tag_512\n        /* \"#utility.yul\":18150:18151   */\n      dup3\n        /* \"#utility.yul\":18132:18152   */\n      tag_287\n      jump\t// in\n    tag_512:\n        /* \"#utility.yul\":18127:18152   */\n      swap2\n      pop\n        /* \"#utility.yul\":18166:18186   */\n      tag_513\n        /* \"#utility.yul\":18184:18185   */\n      dup4\n        /* \"#utility.yul\":18166:18186   */\n      tag_287\n      jump\t// in\n    tag_513:\n        /* \"#utility.yul\":18161:18186   */\n      swap3\n      pop\n        /* \"#utility.yul\":18205:18206   */\n      dup3\n        /* \"#utility.yul\":18195:18230   */\n      tag_514\n      jumpi\n        /* \"#utility.yul\":18210:18228   */\n      tag_515\n      tag_317\n      jump\t// in\n    tag_515:\n        /* \"#utility.yul\":18195:18230   */\n    tag_514:\n        /* \"#utility.yul\":18252:18253   */\n      dup3\n        /* \"#utility.yul\":18249:18250   */\n      dup3\n        /* \"#utility.yul\":18245:18254   */\n      div\n        /* \"#utility.yul\":18240:18254   */\n      swap1\n      pop\n        /* \"#utility.yul\":18075:18260   */\n      swap3\n      swap2\n      pop\n      pop\n      jump\t// out\n        /* \"#utility.yul\":18266:18446   */\n    tag_318:\n        /* \"#utility.yul\":18314:18391   */\n      0x4e487b7100000000000000000000000000000000000000000000000000000000\n        /* \"#utility.yul\":18311:18312   */\n      0x00\n        /* \"#utility.yul\":18304:18392   */\n      mstore\n        /* \"#utility.yul\":18411:18415   */\n      0x41\n        /* \"#utility.yul\":18408:18409   */\n      0x04\n        /* \"#utility.yul\":18401:18416   */\n      mstore\n        /* \"#utility.yul\":18435:18439   */\n      0x24\n        /* \"#utility.yul\":18432:18433   */\n      0x00\n        /* \"#utility.yul\":18425:18440   */\n      revert\n        /* \"#utility.yul\":18452:18593   */\n    tag_319:\n        /* \"#utility.yul\":18501:18505   */\n      0x00\n        /* \"#utility.yul\":18524:18527   */\n      dup2\n        /* \"#utility.yul\":18516:18527   */\n      swap1\n      pop\n        /* \"#utility.yul\":18547:18550   */\n      dup2\n        /* \"#utility.yul\":18544:18545   */\n      0x00\n        /* \"#utility.yul\":18537:18551   */\n      mstore\n        /* \"#utility.yul\":18581:18585   */\n      0x20\n        /* \"#utility.yul\":18578:18579   */\n      0x00\n        /* \"#utility.yul\":18568:18586   */\n      keccak256\n        /* \"#utility.yul\":18560:18586   */\n      swap1\n      pop\n        /* \"#utility.yul\":18452:18593   */\n      swap2\n      swap1\n      pop\n      jump\t// out\n        /* \"#utility.yul\":18599:18692   */\n    tag_320:\n        /* \"#utility.yul\":18636:18642   */\n      0x00\n        /* \"#utility.yul\":18683:18685   */\n      0x20\n        /* \"#utility.yul\":18678:18680   */\n      0x1f\n        /* \"#utility.yul\":18671:18676   */\n      dup4\n        /* \"#utility.yul\":18667:18681   */\n      add\n        /* \"#utility.yul\":18663:18686   */\n      div\n        /* \"#utility.yul\":18653:18686   */\n      swap1\n      pop\n        /* \"#utility.yul\":18599:18692   */\n      swap2\n      swap1\n      pop\n      jump\t// out\n        /* \"#utility.yul\":18698:18805   */\n    tag_321:\n        /* \"#utility.yul\":18742:18750   */\n      0x00\n        /* \"#utility.yul\":18792:18797   */\n      dup3\n        /* \"#utility.yul\":18786:18790   */\n      dup3\n        /* \"#utility.yul\":18782:18798   */\n      shl\n        /* \"#utility.yul\":18761:18798   */\n      swap1\n      pop\n        /* \"#utility.yul\":18698:18805   */\n      swap3\n      swap2\n      pop\n      pop\n      jump\t// out\n        /* \"#utility.yul\":18811:19204   */\n    tag_322:\n        /* \"#utility.yul\":18880:18886   */\n      0x00\n        /* \"#utility.yul\":18930:18931   */\n      0x08\n        /* \"#utility.yul\":18918:18928   */\n      dup4\n        /* \"#utility.yul\":18914:18932   */\n      mul\n        /* \"#utility.yul\":18953:19050   */\n      tag_521\n        /* \"#utility.yul\":18983:19049   */\n      0xffffffffffffffffffffffffffffffffffffffffffffffffffffffffffffffff\n        /* \"#utility.yul\":18972:18981   */\n      dup3\n        /* \"#utility.yul\":18953:19050   */\n      tag_321\n      jump\t// in\n    tag_521:\n        /* \"#utility.yul\":19071:19110   */\n      tag_522\n        /* \"#utility.yul\":19101:19109   */\n      dup7\n        /* \"#utility.yul\":19090:19099   */\n      dup4\n        /* \"#utility.yul\":19071:19110   */\n      tag_321\n      jump\t// in\n    tag_522:\n        /* \"#utility.yul\":19059:19110   */\n      swap6\n      pop\n        /* \"#utility.yul\":19143:19147   */\n      dup1\n        /* \"#utility.yul\":19139:19148   */\n      not\n        /* \"#utility.yul\":19132:19137   */\n      dup5\n        /* \"#utility.yul\":19128:19149   */\n      and\n        /* \"#utility.yul\":19119:19149   */\n      swap4\n      pop\n        /* \"#utility.yul\":19192:19196   */\n      dup1\n        /* \"#utility.yul\":19182:19190   */\n      dup7\n        /* \"#utility.yul\":19178:19197   */\n      and\n        /* \"#utility.yul\":19171:19176   */\n      dup5\n        /* \"#utility.yul\":19168:19198   */\n      or\n        /* \"#utility.yul\":19158:19198   */\n      swap3\n      pop\n        /* \"#utility.yul\":18887:19204   */\n      pop\n      pop\n        /* \"#utility.yul\":18811:19204   */\n      swap4\n      swap3\n      pop\n      pop\n      pop\n      jump\t// out\n        /* \"#utility.yul\":19210:19270   */\n    tag_323:\n        /* \"#utility.yul\":19238:19241   */\n      0x00\n        /* \"#utility.yul\":19259:19264   */\n      dup2\n        /* \"#utility.yul\":19252:19264   */\n      swap1\n      pop\n        /* \"#utility.yul\":19210:19270   */\n      swap2\n      swap1\n      pop\n      jump\t// out\n        /* \"#utility.yul\":19276:19418   */\n    tag_324:\n        /* \"#utility.yul\":19326:19335   */\n      0x00\n        /* \"#utility.yul\":19359:19412   */\n      tag_525\n        /* \"#utility.yul\":19377:19411   */\n      tag_526\n        /* \"#utility.yul\":19386:19410   */\n      tag_527\n        /* \"#utility.yul\":19404:19409   */\n      dup5\n        /* \"#utility.yul\":19386:19410   */\n      tag_287\n      jump\t// in\n    tag_527:\n        /* \"#utility.yul\":19377:19411   */\n      tag_323\n      jump\t// in\n    tag_526:\n        /* \"#utility.yul\":19359:19412   */\n      tag_287\n      jump\t// in\n    tag_525:\n        /* \"#utility.yul\":19346:19412   */\n      swap1\n      pop\n        /* \"#utility.yul\":19276:19418   */\n      swap2\n      swap1\n      pop\n      jump\t// out\n        /* \"#utility.yul\":19424:19499   */\n    tag_325:\n        /* \"#utility.yul\":19467:19470   */\n      0x00\n        /* \"#utility.yul\":19488:19493   */\n      dup2\n        /* \"#utility.yul\":19481:19493   */\n      swap1\n      pop\n        /* \"#utility.yul\":19424:19499   */\n      swap2\n      swap1\n      pop\n      jump\t// out\n        /* \"#utility.yul\":19505:19774   */\n    tag_326:\n        /* \"#utility.yul\":19615:19654   */\n      tag_530\n        /* \"#utility.yul\":19646:19653   */\n      dup4\n        /* \"#utility.yul\":19615:19654   */\n      tag_324\n      jump\t// in\n    tag_530:\n        /* \"#utility.yul\":19676:19767   */\n      tag_531\n        /* \"#utility.yul\":19725:19766   */\n      tag_532\n        /* \"#utility.yul\":19749:19765   */\n      dup3\n        /* \"#utility.yul\":19725:19766   */\n      tag_325\n      jump\t// in\n    tag_532:\n        /* \"#utility.yul\":19717:19723   */\n      dup5\n        /* \"#utility.yul\":19710:19714   */\n      dup5\n        /* \"#utility.yul\":19704:19715   */\n      sload\n        /* \"#utility.yul\":19676:19767   */\n      tag_322\n      jump\t// in\n    tag_531:\n        /* \"#utility.yul\":19670:19674   */\n      dup3\n        /* \"#utility.yul\":19663:19768   */\n      sstore\n        /* \"#utility.yul\":19581:19774   */\n      pop\n        /* \"#utility.yul\":19505:19774   */\n      pop\n      pop\n      pop\n      jump\t// out\n        /* \"#utility.yul\":19780:19853   */\n    tag_327:\n        /* \"#utility.yul\":19825:19828   */\n      0x00\n        /* \"#utility.yul\":19846:19847   */\n      0x00\n        /* \"#utility.yul\":19839:19847   */\n      swap1\n      pop\n        /* \"#utility.yul\":19780:19853   */\n      swap1\n      jump\t// out\n        /* \"#utility.yul\":19859:20048   */\n    tag_328:\n        /* \"#utility.yul\":19936:19968   */\n      tag_535\n      tag_327\n      jump\t// in\n    tag_535:\n        /* \"#utility.yul\":19977:20042   */\n      tag_536\n        /* \"#utility.yul\":20035:20041   */\n      dup2\n        /* \"#utility.yul\":20027:20033   */\n      dup5\n        /* \"#utility.yul\":20021:20025   */\n      dup5\n        /* \"#utility.yul\":19977:20042   */\n      tag_326\n      jump\t// in\n    tag_536:\n        /* \"#utility.yul\":19912:20048   */\n      pop\n        /* \"#utility.yul\":19859:20048   */\n      pop\n      pop\n      jump\t// out\n        /* \"#utility.yul\":20054:20240   */\n    tag_329:\n        /* \"#utility.yul\":20114:20234   */\n    tag_538:\n        /* \"#utility.yul\":20131:20134   */\n      dup2\n        /* \"#utility.yul\":20124:20129   */\n      dup2\n        /* \"#utility.yul\":20121:20135   */\n      lt\n        /* \"#utility.yul\":20114:20234   */\n      iszero\n      tag_540\n      jumpi\n        /* \"#utility.yul\":20185:20224   */\n      tag_541\n        /* \"#utility.yul\":20222:20223   */\n      0x00\n        /* \"#utility.yul\":20215:20220   */\n      dup3\n        /* \"#utility.yul\":20185:20224   */\n      tag_328\n      jump\t// in\n    tag_541:\n        /* \"#utility.yul\":20158:20159   */\n      0x01\n        /* \"#utility.yul\":20151:20156   */\n      dup2\n        /* \"#utility.yul\":20147:20160   */\n      add\n        /* \"#utility.yul\":20138:20160   */\n      swap1\n      pop\n        /* \"#utility.yul\":20114:20234   */\n      jump(tag_538)\n    tag_540:\n        /* \"#utility.yul\":20054:20240   */\n      pop\n      pop\n      jump\t// out\n        /* \"#utility.yul\":20246:20789   */\n    tag_330:\n        /* \"#utility.yul\":20347:20349   */\n      0x1f\n        /* \"#utility.yul\":20342:20345   */\n      dup3\n        /* \"#utility.yul\":20339:20350   */\n      gt\n        /* \"#utility.yul\":20336:20782   */\n      iszero\n      tag_543\n      jumpi\n        /* \"#utility.yul\":20381:20419   */\n      tag_544\n        /* \"#utility.yul\":20413:20418   */\n      dup2\n        /* \"#utility.yul\":20381:20419   */\n      tag_319\n      jump\t// in\n    tag_544:\n        /* \"#utility.yul\":20465:20494   */\n      tag_545\n        /* \"#utility.yul\":20483:20493   */\n      dup5\n        /* \"#utility.yul\":20465:20494   */\n      tag_320\n      jump\t// in\n    tag_545:\n        /* \"#utility.yul\":20455:20463   */\n      dup2\n        /* \"#utility.yul\":20451:20495   */\n      add\n        /* \"#utility.yul\":20648:20650   */\n      0x20\n        /* \"#utility.yul\":20636:20646   */\n      dup6\n        /* \"#utility.yul\":20633:20651   */\n      lt\n        /* \"#utility.yul\":20630:20679   */\n      iszero\n      tag_546\n      jumpi\n        /* \"#utility.yul\":20669:20677   */\n      dup2\n        /* \"#utility.yul\":20654:20677   */\n      swap1\n      pop\n        /* \"#utility.yul\":20630:20679   */\n    tag_546:\n        /* \"#utility.yul\":20692:20772   */\n      tag_547\n        /* \"#utility.yul\":20748:20770   */\n      tag_548\n        /* \"#utility.yul\":20766:20769   */\n      dup6\n        /* \"#utility.yul\":20748:20770   */\n      tag_320\n      jump\t// in\n    tag_548:\n        /* \"#utility.yul\":20738:20746   */\n      dup4\n        /* \"#utility.yul\":20734:20771   */\n      add\n        /* \"#utility.yul\":20721:20732   */\n      dup3\n        /* \"#utility.yul\":20692:20772   */\n      tag_329\n      jump\t// in\n    tag_547:\n        /* \"#utility.yul\":20351:20782   */\n      pop\n      pop\n        /* \"#utility.yul\":20336:20782   */\n    tag_543:\n        /* \"#utility.yul\":20246:20789   */\n      pop\n      pop\n      pop\n      jump\t// out\n        /* \"#utility.yul\":20795:20912   */\n    tag_331:\n        /* \"#utility.yul\":20849:20857   */\n      0x00\n        /* \"#utility.yul\":20899:20904   */\n      dup3\n        /* \"#utility.yul\":20893:20897   */\n      dup3\n        /* \"#utility.yul\":20889:20905   */\n      shr\n        /* \"#utility.yul\":20868:20905   */\n      swap1\n      pop\n        /* \"#utility.yul\":20795:20912   */\n      swap3\n      swap2\n      pop\n      pop\n      jump\t// out\n        /* \"#utility.yul\":20918:21087   */\n    tag_332:\n        /* \"#utility.yul\":20962:20968   */\n      0x00\n        /* \"#utility.yul\":20995:21046   */\n      tag_551\n        /* \"#utility.yul\":21043:21044   */\n      0x00\n        /* \"#utility.yul\":21039:21045   */\n      not\n        /* \"#utility.yul\":21031:21036   */\n      dup5\n        /* \"#utility.yul\":21028:21029   */\n      0x08\n        /* \"#utility.yul\":21024:21037   */\n      mul\n        /* \"#utility.yul\":20995:21046   */\n      tag_331\n      jump\t// in\n    tag_551:\n        /* \"#utility.yul\":20991:21047   */\n      not\n        /* \"#utility.yul\":21076:21080   */\n      dup1\n        /* \"#utility.yul\":21070:21074   */\n      dup4\n        /* \"#utility.yul\":21066:21081   */\n      and\n        /* \"#utility.yul\":21056:21081   */\n      swap2\n      pop\n        /* \"#utility.yul\":20969:21087   */\n      pop\n        /* \"#utility.yul\":20918:21087   */\n      swap3\n      swap2\n      pop\n      pop\n      jump\t// out\n        /* \"#utility.yul\":21092:21387   */\n    tag_333:\n        /* \"#utility.yul\":21168:21172   */\n      0x00\n        /* \"#utility.yul\":21314:21343   */\n      tag_553\n        /* \"#utility.yul\":21339:21342   */\n      dup4\n        /* \"#utility.yul\":21333:21337   */\n      dup4\n        /* \"#utility.yul\":21314:21343   */\n      tag_332\n      jump\t// in\n    tag_553:\n        /* \"#utility.yul\":21306:21343   */\n      swap2\n      pop\n        /* \"#utility.yul\":21376:21379   */\n      dup3\n        /* \"#utility.yul\":21373:21374   */\n      0x02\n        /* \"#utility.yul\":21369:21380   */\n      mul\n        /* \"#utility.yul\":21363:21367   */\n      dup3\n        /* \"#utility.yul\":21360:21381   */\n      or\n        /* \"#utility.yul\":21352:21381   */\n      swap1\n      pop\n        /* \"#utility.yul\":21092:21387   */\n      swap3\n      swap2\n      pop\n      pop\n      jump\t// out\n        /* \"#utility.yul\":21392:22787   */\n    tag_209:\n        /* \"#utility.yul\":21509:21546   */\n      tag_555\n        /* \"#utility.yul\":21542:21545   */\n      dup3\n        /* \"#utility.yul\":21509:21546   */\n      tag_282\n      jump\t// in\n    tag_555:\n        /* \"#utility.yul\":21611:21629   */\n      0xffffffffffffffff\n        /* \"#utility.yul\":21603:21609   */\n      dup2\n        /* \"#utility.yul\":21600:21630   */\n      gt\n        /* \"#utility.yul\":21597:21653   */\n      iszero\n      tag_556\n      jumpi\n        /* \"#utility.yul\":21633:21651   */\n      tag_557\n      tag_318\n      jump\t// in\n    tag_557:\n        /* \"#utility.yul\":21597:21653   */\n    tag_556:\n        /* \"#utility.yul\":21677:21715   */\n      tag_558\n        /* \"#utility.yul\":21709:21713   */\n      dup3\n        /* \"#utility.yul\":21703:21714   */\n      sload\n        /* \"#utility.yul\":21677:21715   */\n      tag_129\n      jump\t// in\n    tag_558:\n        /* \"#utility.yul\":21762:21829   */\n      tag_559\n        /* \"#utility.yul\":21822:21828   */\n      dup3\n        /* \"#utility.yul\":21814:21820   */\n      dup3\n        /* \"#utility.yul\":21808:21812   */\n      dup6\n        /* \"#utility.yul\":21762:21829   */\n      tag_330\n      jump\t// in\n    tag_559:\n        /* \"#utility.yul\":21856:21857   */\n      0x00\n        /* \"#utility.yul\":21880:21884   */\n      0x20\n        /* \"#utility.yul\":21867:21884   */\n      swap1\n      pop\n        /* \"#utility.yul\":21912:21914   */\n      0x1f\n        /* \"#utility.yul\":21904:21910   */\n      dup4\n        /* \"#utility.yul\":21901:21915   */\n      gt\n        /* \"#utility.yul\":21929:21930   */\n      0x01\n        /* \"#utility.yul\":21924:22542   */\n      dup2\n      eq\n      tag_561\n      jumpi\n        /* \"#utility.yul\":22586:22587   */\n      0x00\n        /* \"#utility.yul\":22603:22609   */\n      dup5\n        /* \"#utility.yul\":22600:22677   */\n      iszero\n      tag_562\n      jumpi\n        /* \"#utility.yul\":22652:22661   */\n      dup3\n        /* \"#utility.yul\":22647:22650   */\n      dup8\n        /* \"#utility.yul\":22643:22662   */\n      add\n        /* \"#utility.yul\":22637:22663   */\n      mload\n        /* \"#utility.yul\":22628:22663   */\n      swap1\n      pop\n        /* \"#utility.yul\":22600:22677   */\n    tag_562:\n        /* \"#utility.yul\":22703:22770   */\n      tag_563\n        /* \"#utility.yul\":22763:22769   */\n      dup6\n        /* \"#utility.yul\":22756:22761   */\n      dup3\n        /* \"#utility.yul\":22703:22770   */\n      tag_333\n      jump\t// in\n    tag_563:\n        /* \"#utility.yul\":22697:22701   */\n      dup7\n        /* \"#utility.yul\":22690:22771   */\n      sstore\n        /* \"#utility.yul\":22559:22781   */\n      pop\n        /* \"#utility.yul\":21894:22781   */\n      jump(tag_560)\n        /* \"#utility.yul\":21924:22542   */\n    tag_561:\n        /* \"#utility.yul\":21976:21980   */\n      0x1f\n        /* \"#utility.yul\":21972:21981   */\n      not\n        /* \"#utility.yul\":21964:21970   */\n      dup5\n        /* \"#utility.yul\":21960:21982   */\n      and\n        /* \"#utility.yul\":22010:22047   */\n      tag_564\n        /* \"#utility.yul\":22042:22046   */\n      dup7\n        /* \"#utility.yul\":22010:22047   */\n      tag_319\n      jump\t// in\n    tag_564:\n        /* \"#utility.yul\":22069:22070   */\n      0x00\n        /* \"#utility.yul\":22083:22291   */\n    tag_565:\n        /* \"#utility.yul\":22097:22104   */\n      dup3\n        /* \"#utility.yul\":22094:22095   */\n      dup2\n        /* \"#utility.yul\":22091:22105   */\n      lt\n        /* \"#utility.yul\":22083:22291   */\n      iszero\n      tag_567\n      jumpi\n        /* \"#utility.yul\":22176:22185   */\n      dup5\n        /* \"#utility.yul\":22171:22174   */\n      dup10\n        /* \"#utility.yul\":22167:22186   */\n      add\n        /* \"#utility.yul\":22161:22187   */\n      mload\n        /* \"#utility.yul\":22153:22159   */\n      dup3\n        /* \"#utility.yul\":22146:22188   */\n      sstore\n        /* \"#utility.yul\":22227:22228   */\n      0x01\n        /* \"#utility.yul\":22219:22225   */\n      dup3\n        /* \"#utility.yul\":22215:22229   */\n      add\n        /* \"#utility.yul\":22205:22229   */\n      swap2\n      pop\n        /* \"#utility.yul\":22274:22276   */\n      0x20\n        /* \"#utility.yul\":22263:22272   */\n      dup6\n        /* \"#utility.yul\":22259:22277   */\n      add\n        /* \"#utility.yul\":22246:22277   */\n      swap5\n      pop\n        /* \"#utility.yul\":22120:22124   */\n      0x20\n        /* \"#utility.yul\":22117:22118   */\n      dup2\n        /* \"#utility.yul\":22113:22125   */\n      add\n        /* \"#utility.yul\":22108:22125   */\n      swap1\n      pop\n        /* \"#utility.yul\":22083:22291   */\n      jump(tag_565)\n    tag_567:\n        /* \"#utility.yul\":22319:22325   */\n      dup7\n        /* \"#utility.yul\":22310:22317   */\n      dup4\n        /* \"#utility.yul\":22307:22326   */\n      lt\n        /* \"#utility.yul\":22304:22483   */\n      iszero\n      tag_568\n      jumpi\n        /* \"#utility.yul\":22377:22386   */\n      dup5\n        /* \"#utility.yul\":22372:22375   */\n      dup10\n        /* \"#utility.yul\":22368:22387   */\n      add\n        /* \"#utility.yul\":22362:22388   */\n      mload\n        /* \"#utility.yul\":22420:22468   */\n      tag_569\n        /* \"#utility.yul\":22462:22466   */\n      0x1f\n        /* \"#utility.yul\":22454:22460   */\n      dup10\n        /* \"#utility.yul\":22450:22467   */\n      and\n        /* \"#utility.yul\":22439:22448   */\n      dup3\n        /* \"#utility.yul\":22420:22468   */\n      tag_332\n      jump\t// in\n    tag_569:\n        /* \"#utility.yul\":22412:22418   */\n      dup4\n        /* \"#utility.yul\":22405:22469   */\n      sstore\n        /* \"#utility.yul\":22327:22483   */\n      pop\n        /* \"#utility.yul\":22304:22483   */\n    tag_568:\n        /* \"#utility.yul\":22529:22530   */\n      0x01\n        /* \"#utility.yul\":22525:22526   */\n      0x02\n        /* \"#utility.yul\":22517:22523   */\n      dup9\n        /* \"#utility.yul\":22513:22527   */\n      mul\n        /* \"#utility.yul\":22509:22531   */\n      add\n        /* \"#utility.yul\":22503:22507   */\n      dup9\n        /* \"#utility.yul\":22496:22532   */\n      sstore\n        /* \"#utility.yul\":21931:22542   */\n      pop\n      pop\n      pop\n        /* \"#utility.yul\":21894:22781   */\n    tag_560:\n      pop\n        /* \"#utility.yul\":21484:22787   */\n      pop\n      pop\n      pop\n        /* \"#utility.yul\":21392:22787   */\n      pop\n      pop\n      jump\t// out\n        /* \"#utility.yul\":22793:22967   */\n    tag_334:\n        /* \"#utility.yul\":22933:22959   */\n      0x4d696e6d756d20626f72726f7720697320302e31204574680000000000000000\n        /* \"#utility.yul\":22929:22930   */\n      0x00\n        /* \"#utility.yul\":22921:22927   */\n      dup3\n        /* \"#utility.yul\":22917:22931   */\n      add\n        /* \"#utility.yul\":22910:22960   */\n      mstore\n        /* \"#utility.yul\":22793:22967   */\n      pop\n      jump\t// out\n        /* \"#utility.yul\":22973:23339   */\n    tag_335:\n        /* \"#utility.yul\":23115:23118   */\n      0x00\n        /* \"#utility.yul\":23136:23203   */\n      tag_572\n        /* \"#utility.yul\":23200:23202   */\n      0x18\n        /* \"#utility.yul\":23195:23198   */\n      dup4\n        /* \"#utility.yul\":23136:23203   */\n      tag_283\n      jump\t// in\n    tag_572:\n        /* \"#utility.yul\":23129:23203   */\n      swap2\n      pop\n        /* \"#utility.yul\":23212:23305   */\n      tag_573\n        /* \"#utility.yul\":23301:23304   */\n      dup3\n        /* \"#utility.yul\":23212:23305   */\n      tag_334\n      jump\t// in\n    tag_573:\n        /* \"#utility.yul\":23330:23332   */\n      0x20\n        /* \"#utility.yul\":23325:23328   */\n      dup3\n        /* \"#utility.yul\":23321:23333   */\n      add\n        /* \"#utility.yul\":23314:23333   */\n      swap1\n      pop\n        /* \"#utility.yul\":22973:23339   */\n      swap2\n      swap1\n      pop\n      jump\t// out\n        /* \"#utility.yul\":23345:23764   */\n    tag_221:\n        /* \"#utility.yul\":23511:23515   */\n      0x00\n        /* \"#utility.yul\":23549:23551   */\n      0x20\n        /* \"#utility.yul\":23538:23547   */\n      dup3\n        /* \"#utility.yul\":23534:23552   */\n      add\n        /* \"#utility.yul\":23526:23552   */\n      swap1\n      pop\n        /* \"#utility.yul\":23598:23607   */\n      dup2\n        /* \"#utility.yul\":23592:23596   */\n      dup2\n        /* \"#utility.yul\":23588:23608   */\n      sub\n        /* \"#utility.yul\":23584:23585   */\n      0x00\n        /* \"#utility.yul\":23573:23582   */\n      dup4\n        /* \"#utility.yul\":23569:23586   */\n      add\n        /* \"#utility.yul\":23562:23609   */\n      mstore\n        /* \"#utility.yul\":23626:23757   */\n      tag_575\n        /* \"#utility.yul\":23752:23756   */\n      dup2\n        /* \"#utility.yul\":23626:23757   */\n      tag_335\n      jump\t// in\n    tag_575:\n        /* \"#utility.yul\":23618:23757   */\n      swap1\n      pop\n        /* \"#utility.yul\":23345:23764   */\n      swap2\n      swap1\n      pop\n      jump\t// out\n\n    auxdata: 0xa2646970667358221220d6f05508972fac13f18bd5acbf8913e1199369b3b5161d19ebc2c112b019698364736f6c634300081e0033\n}\n",
				"bytecode": {
					"linkReferences": {},
					"object": "608060405260036006553480156013575f5ffd5b50335f5f6101000a81548173ffffffffffffffffffffffffffffffffffffffff021916908373ffffffffffffffffffffffffffffffffffffffff1602179055506122ac806100605f395ff3fe608060405260043610610107575f3560e01c80636f9fb98a11610094578063cb50bb7411610063578063cb50bb7414610329578063d602081114610353578063dce8e8481461037d578063ddd899a1146103b9578063ff6d4f73146103e357610107565b80636f9fb98a1461028f57806371604909146102b95780638da5cb5b146102f557806397dffc611461031f57610107565b80632f1158f7116100db5780632f1158f7146101b957806333d5281f146101f5578063392f6356146102115780633e86e2131461023b57806365ad976e1461026557610107565b806263750c1461010b57806311c6bf8f1461012157806326a39c07146101615780632e1a7d4d1461019d575b5f5ffd5b348015610116575f5ffd5b5061011f610421565b005b34801561012c575f5ffd5b50610147600480360381019061014291906116c3565b610597565b604051610158959493929190611789565b60405180910390f35b34801561016c575f5ffd5b50610187600480360381019061018291906117e1565b61065a565b604051610194919061180c565b60405180910390f35b6101b760048036038101906101b2919061184f565b61066f565b005b3480156101c4575f5ffd5b506101df60048036038101906101da91906117e1565b610ae6565b6040516101ec9190611894565b60405180910390f35b61020f600480360381019061020a91906118ad565b610b03565b005b34801561021c575f5ffd5b50610225610e3a565b604051610232919061180c565b60405180910390f35b348015610246575f5ffd5b5061024f610e48565b60405161025c91906119a2565b60405180910390f35b348015610270575f5ffd5b50610279610ed3565b604051610286919061180c565b60405180910390f35b34801561029a575f5ffd5b506102a3610ed9565b6040516102b0919061180c565b60405180910390f35b3480156102c4575f5ffd5b506102df60048036038101906102da91906117e1565b610ee0565b6040516102ec91906119d1565b60405180910390f35b348015610300575f5ffd5b50610309610ef5565b60405161031691906119f9565b60405180910390f35b610327610f19565b005b348015610334575f5ffd5b5061033d6110e7565b60405161034a919061180c565b60405180910390f35b34801561035e575f5ffd5b506103676110ed565b60405161037491906119a2565b60405180910390f35b348015610388575f5ffd5b506103a3600480360381019061039e91906117e1565b611178565b6040516103b0919061180c565b60405180910390f35b3480156103c4575f5ffd5b506103cd61118d565b6040516103da919061180c565b60405180910390f35b3480156103ee575f5ffd5b5061040960048036038101906104049190611a12565b611193565b60405161041893929190611a50565b60405180910390f35b5f5f90505b8060095f3373ffffffffffffffffffffffffffffffffffffffff1673ffffffffffffffffffffffffffffffffffffffff1681526020019081526020015f208054905011156104e4574260095f3373ffffffffffffffffffffffffffffffffffffffff1673ffffffffffffffffffffffffffffffffffffffff1681526020019081526020015f2082815481106104be576104bd611a85565b5b905f5260205f2090600302016001018190555080806104dc90611adf565b915050610426565b505f3373ffffffffffffffffffffffffffffffffffffffff166105056111d3565b60405161051190611b53565b5f6040518083038185875af1925050503d805f811461054b576040519150601f19603f3d011682016040523d82523d5f602084013e610550565b606091505b5050905080610594576040517f08c379a000000000000000000000000000000000000000000000000000000000815260040161058b90611bb1565b60405180910390fd5b50565b6007602052815f5260405f20602052805f5260405f205f9150915050805f0180546105c190611bfc565b80601f01602080910402602001604051908101604052809291908181526020018280546105ed90611bfc565b80156106385780601f1061060f57610100808354040283529160200191610638565b820191905f5260205f20905b81548152906001019060200180831161061b57829003601f168201915b5050505050908060010154908060020154908060030154908060040154905085565b600a602052805f5260405f205f915090505481565b8080600b5f3373ffffffffffffffffffffffffffffffffffffffff1673ffffffffffffffffffffffffffffffffffffffff1681526020019081526020015f205410156106f0576040517f08c379a00000000000000000000000000000000000000000000000000000000081526004016106e790611c76565b60405180910390fd5b5f8290505f5f90505b60095f3373ffffffffffffffffffffffffffffffffffffffff1673ffffffffffffffffffffffffffffffffffffffff1681526020019081526020015f20805490508110156109675760095f3373ffffffffffffffffffffffffffffffffffffffff1673ffffffffffffffffffffffffffffffffffffffff1681526020019081526020015f2081815481106107905761078f611a85565b5b905f5260205f2090600302016002015484111561087b5760095f3373ffffffffffffffffffffffffffffffffffffffff1673ffffffffffffffffffffffffffffffffffffffff1681526020019081526020015f2081815481106107f6576107f5611a85565b5b905f5260205f20906003020160020154846108119190611c94565b93505f60095f3373ffffffffffffffffffffffffffffffffffffffff1673ffffffffffffffffffffffffffffffffffffffff1681526020019081526020015f20828154811061086357610862611a85565b5b905f5260205f2090600302016002018190555061095a565b8360095f3373ffffffffffffffffffffffffffffffffffffffff1673ffffffffffffffffffffffffffffffffffffffff1681526020019081526020015f2082815481106108cb576108ca611a85565b5b905f5260205f2090600302016002015410610959578360095f3373ffffffffffffffffffffffffffffffffffffffff1673ffffffffffffffffffffffffffffffffffffffff1681526020019081526020015f2082815481106109305761092f611a85565b5b905f5260205f2090600302016002015f82825461094d9190611c94565b92505081905550610967565b5b80806001019150506106f9565b5080600b5f3373ffffffffffffffffffffffffffffffffffffffff1673ffffffffffffffffffffffffffffffffffffffff1681526020019081526020015f205f8282546109b49190611c94565b925050819055505f3373ffffffffffffffffffffffffffffffffffffffff16826040516109e090611b53565b5f6040518083038185875af1925050503d805f8114610a1a576040519150601f19603f3d011682016040523d82523d5f602084013e610a1f565b606091505b5050905080610a63576040517f08c379a0000000000000000000000000000000000000000000000000000000008152600401610a5a90611bb1565b60405180910390fd5b5f8414610aa5576040517f08c379a0000000000000000000000000000000000000000000000000000000008152600401610a9c90611d37565b60405180910390fd5b7f4061a3c2fb8ed4fa13eb41ac8af4b4b8f67955285ea176d176be39483c38136a338342604051610ad893929190611d55565b60405180910390a150505050565b600c602052805f5260405f205f915054906101000a900460ff1681565b81610104811115610b49576040517f08c379a0000000000000000000000000000000000000000000000000000000008152600401610b4090611dd4565b60405180910390fd5b816702c68af0bb1400008111610b94576040517f08c379a0000000000000000000000000000000000000000000000000000000008152600401610b8b90611e3c565b60405180910390fd5b5f60085f3373ffffffffffffffffffffffffffffffffffffffff1673ffffffffffffffffffffffffffffffffffffffff1681526020019081526020015f205f815480929190610be290611e5a565b9190505590505f62093a8086610bf89190611ea1565b42610c039190611ee2565b90505f6018871015610c185760079050610c56565b60188710158015610c295750606887105b15610c375760069050610c55565b60688710158015610c4a57506101048711155b15610c5457600590505b5b5b5f611450888389610c679190611ea1565b610c719190611ea1565b610c7b9190611f42565b87610c869190611ee2565b90505f3373ffffffffffffffffffffffffffffffffffffffff1688604051610cad90611b53565b5f6040518083038185875af1925050503d805f8114610ce7576040519150601f19603f3d011682016040523d82523d5f602084013e610cec565b606091505b5050905080610d30576040517f08c379a0000000000000000000000000000000000000000000000000000000008152600401610d2790611bb1565b60405180910390fd5b6040518060a001604052806040518060400160405280600681526020017f616374697665000000000000000000000000000000000000000000000000000081525081526020018581526020018481526020018981526020018381525060075f3373ffffffffffffffffffffffffffffffffffffffff1673ffffffffffffffffffffffffffffffffffffffff1681526020019081526020015f205f8781526020019081526020015f205f820151815f019081610deb919061213f565b5060208201518160010155604082015181600201556060820151816003015560808201518160040155905050610e236002600361141f565b600280549050600481905550505050505050505050565b5f610e436111d3565b905090565b60606002805480602002602001604051908101604052809291908181526020018280548015610ec957602002820191905f5260205f20905b815f9054906101000a900473ffffffffffffffffffffffffffffffffffffffff1673ffffffffffffffffffffffffffffffffffffffff1681526020019060010190808311610e80575b5050505050905090565b60065481565b5f47905090565b6008602052805f5260405f205f915090505481565b5f5f9054906101000a900473ffffffffffffffffffffffffffffffffffffffff1681565b67016345785d8a00003411610f63576040517f08c379a0000000000000000000000000000000000000000000000000000000008152600401610f5a90612258565b60405180910390fd5b34600b5f3373ffffffffffffffffffffffffffffffffffffffff1673ffffffffffffffffffffffffffffffffffffffff1681526020019081526020015f205f828254610faf9190611ee2565b92505081905550610fc26003600261141f565b60038054905060058190555060095f3373ffffffffffffffffffffffffffffffffffffffff1673ffffffffffffffffffffffffffffffffffffffff1681526020019081526020015f20604051806060016040528060095f3373ffffffffffffffffffffffffffffffffffffffff1673ffffffffffffffffffffffffffffffffffffffff1681526020019081526020015f2080549050815260200142815260200134815250908060018154018082558091505060019003905f5260205f2090600302015f909190919091505f820151815f0155602082015181600101556040820151816002015550507ff6285a60c92fd2767bc48a572b64940a62be26cb7c523e64bf3bd75a820625593334426040516110dd93929190611d55565b60405180910390a1565b60055481565b6060600380548060200260200160405190810160405280929190818152602001828054801561116e57602002820191905f5260205f20905b815f9054906101000a900473ffffffffffffffffffffffffffffffffffffffff1673ffffffffffffffffffffffffffffffffffffffff1681526020019060010190808311611125575b5050505050905090565b600b602052805f5260405f205f915090505481565b60045481565b6009602052815f5260405f2081815481106111ac575f80fd5b905f5260205f2090600302015f9150915050805f0154908060010154908060020154905083565b5f5f5f5f90505b8060095f3373ffffffffffffffffffffffffffffffffffffffff1673ffffffffffffffffffffffffffffffffffffffff1681526020019081526020015f20805490501115611398575f60095f3373ffffffffffffffffffffffffffffffffffffffff1673ffffffffffffffffffffffffffffffffffffffff1681526020019081526020015f20828154811061127257611271611a85565b5b905f5260205f2090600302016002015403156113855763bbf81e0060095f3373ffffffffffffffffffffffffffffffffffffffff1673ffffffffffffffffffffffffffffffffffffffff1681526020019081526020015f2082815481106112dc576112db611a85565b5b905f5260205f2090600302016002015460065460095f3373ffffffffffffffffffffffffffffffffffffffff1673ffffffffffffffffffffffffffffffffffffffff1681526020019081526020015f20848154811061133e5761133d611a85565b5b905f5260205f20906003020160010154426113599190611c94565b6113639190611ea1565b61136d9190611ea1565b6113779190611f42565b826113829190611ee2565b91505b808061139090611adf565b9150506111da565b5080600a5f3373ffffffffffffffffffffffffffffffffffffffff1673ffffffffffffffffffffffffffffffffffffffff1681526020019081526020015f2081905550600a5f3373ffffffffffffffffffffffffffffffffffffffff1673ffffffffffffffffffffffffffffffffffffffff1681526020019081526020015f205491505090565b5f5f5f5f90505b84805490508110156114b5573373ffffffffffffffffffffffffffffffffffffffff1685828154811061145c5761145b611a85565b5b905f5260205f20015f9054906101000a900473ffffffffffffffffffffffffffffffffffffffff1673ffffffffffffffffffffffffffffffffffffffff16036114a857600192506114b5565b8080600101915050611426565b508161151b578333908060018154018082558091505060019003905f5260205f20015f9091909190916101000a81548173ffffffffffffffffffffffffffffffffffffffff021916908373ffffffffffffffffffffffffffffffffffffffff1602179055505b5f5f90505b83805490508110156115af573373ffffffffffffffffffffffffffffffffffffffff1684828154811061155657611555611a85565b5b905f5260205f20015f9054906101000a900473ffffffffffffffffffffffffffffffffffffffff1673ffffffffffffffffffffffffffffffffffffffff16036115a257600191506115af565b8080600101915050611520565b505f15158215151480156115c657505f1515811515145b1561162c57600133908060018154018082558091505060019003905f5260205f20015f9091909190916101000a81548173ffffffffffffffffffffffffffffffffffffffff021916908373ffffffffffffffffffffffffffffffffffffffff1602179055505b50505050565b5f5ffd5b5f73ffffffffffffffffffffffffffffffffffffffff82169050919050565b5f61165f82611636565b9050919050565b61166f81611655565b8114611679575f5ffd5b50565b5f8135905061168a81611666565b92915050565b5f819050919050565b6116a281611690565b81146116ac575f5ffd5b50565b5f813590506116bd81611699565b92915050565b5f5f604083850312156116d9576116d8611632565b5b5f6116e68582860161167c565b92505060206116f7858286016116af565b9150509250929050565b5f81519050919050565b5f82825260208201905092915050565b8281835e5f83830152505050565b5f601f19601f8301169050919050565b5f61174382611701565b61174d818561170b565b935061175d81856020860161171b565b61176681611729565b840191505092915050565b5f819050919050565b61178381611771565b82525050565b5f60a0820190508181035f8301526117a18188611739565b90506117b0602083018761177a565b6117bd604083018661177a565b6117ca606083018561177a565b6117d7608083018461177a565b9695505050505050565b5f602082840312156117f6576117f5611632565b5b5f6118038482850161167c565b91505092915050565b5f60208201905061181f5f83018461177a565b92915050565b61182e81611771565b8114611838575f5ffd5b50565b5f8135905061184981611825565b92915050565b5f6020828403121561186457611863611632565b5b5f6118718482850161183b565b91505092915050565b5f8115159050919050565b61188e8161187a565b82525050565b5f6020820190506118a75f830184611885565b92915050565b5f5f604083850312156118c3576118c2611632565b5b5f6118d08582860161183b565b92505060206118e18582860161183b565b9150509250929050565b5f81519050919050565b5f82825260208201905092915050565b5f819050602082019050919050565b61191d81611655565b82525050565b5f61192e8383611914565b60208301905092915050565b5f602082019050919050565b5f611950826118eb565b61195a81856118f5565b935061196583611905565b805f5b8381101561199557815161197c8882611923565b97506119878361193a565b925050600181019050611968565b5085935050505092915050565b5f6020820190508181035f8301526119ba8184611946565b905092915050565b6119cb81611690565b82525050565b5f6020820190506119e45f8301846119c2565b92915050565b6119f381611655565b82525050565b5f602082019050611a0c5f8301846119ea565b92915050565b5f5f60408385031215611a2857611a27611632565b5b5f611a358582860161167c565b9250506020611a468582860161183b565b9150509250929050565b5f606082019050611a635f83018661177a565b611a70602083018561177a565b611a7d604083018461177a565b949350505050565b7f4e487b71000000000000000000000000000000000000000000000000000000005f52603260045260245ffd5b7f4e487b71000000000000000000000000000000000000000000000000000000005f52601160045260245ffd5b5f611ae982611771565b91507fffffffffffffffffffffffffffffffffffffffffffffffffffffffffffffffff8203611b1b57611b1a611ab2565b5b600182019050919050565b5f81905092915050565b50565b5f611b3e5f83611b26565b9150611b4982611b30565b5f82019050919050565b5f611b5d82611b33565b9150819050919050565b7f5472616e73616374696f6e206661696c656400000000000000000000000000005f82015250565b5f611b9b60128361170b565b9150611ba682611b67565b602082019050919050565b5f6020820190508181035f830152611bc881611b8f565b9050919050565b7f4e487b71000000000000000000000000000000000000000000000000000000005f52602260045260245ffd5b5f6002820490506001821680611c1357607f821691505b602082108103611c2657611c25611bcf565b5b50919050565b7f4578636564656564206d6178696d756d207769746864726177000000000000005f82015250565b5f611c6060198361170b565b9150611c6b82611c2c565b602082019050919050565b5f6020820190508181035f830152611c8d81611c54565b9050919050565b5f611c9e82611771565b9150611ca983611771565b9250828203905081811115611cc157611cc0611ab2565b5b92915050565b7f4e6f7420656e6f7567682066756e647320696e206465706f7369747320746f205f8201527f636f766572207769746864726177616c00000000000000000000000000000000602082015250565b5f611d2160308361170b565b9150611d2c82611cc7565b604082019050919050565b5f6020820190508181035f830152611d4e81611d15565b9050919050565b5f606082019050611d685f8301866119ea565b611d75602083018561177a565b611d82604083018461177a565b949350505050565b7f496e76616c6964207765656b206e756d626572000000000000000000000000005f82015250565b5f611dbe60138361170b565b9150611dc982611d8a565b602082019050919050565b5f6020820190508181035f830152611deb81611db2565b9050919050565b7f4d696e6d756d20626f72726f7720697320302e322045746800000000000000005f82015250565b5f611e2660188361170b565b9150611e3182611df2565b602082019050919050565b5f6020820190508181035f830152611e5381611e1a565b9050919050565b5f611e6482611690565b91507f7fffffffffffffffffffffffffffffffffffffffffffffffffffffffffffffff8203611e9657611e95611ab2565b5b600182019050919050565b5f611eab82611771565b9150611eb683611771565b9250828202611ec481611771565b91508282048414831517611edb57611eda611ab2565b5b5092915050565b5f611eec82611771565b9150611ef783611771565b9250828201905080821115611f0f57611f0e611ab2565b5b92915050565b7f4e487b71000000000000000000000000000000000000000000000000000000005f52601260045260245ffd5b5f611f4c82611771565b9150611f5783611771565b925082611f6757611f66611f15565b5b828204905092915050565b7f4e487b71000000000000000000000000000000000000000000000000000000005f52604160045260245ffd5b5f819050815f5260205f209050919050565b5f6020601f8301049050919050565b5f82821b905092915050565b5f60088302611ffb7fffffffffffffffffffffffffffffffffffffffffffffffffffffffffffffffff82611fc0565b6120058683611fc0565b95508019841693508086168417925050509392505050565b5f819050919050565b5f61204061203b61203684611771565b61201d565b611771565b9050919050565b5f819050919050565b61205983612026565b61206d61206582612047565b848454611fcc565b825550505050565b5f5f905090565b612084612075565b61208f818484612050565b505050565b5b818110156120b2576120a75f8261207c565b600181019050612095565b5050565b601f8211156120f7576120c881611f9f565b6120d184611fb1565b810160208510156120e0578190505b6120f46120ec85611fb1565b830182612094565b50505b505050565b5f82821c905092915050565b5f6121175f19846008026120fc565b1980831691505092915050565b5f61212f8383612108565b9150826002028217905092915050565b61214882611701565b67ffffffffffffffff81111561216157612160611f72565b5b61216b8254611bfc565b6121768282856120b6565b5f60209050601f8311600181146121a7575f8415612195578287015190505b61219f8582612124565b865550612206565b601f1984166121b586611f9f565b5f5b828110156121dc578489015182556001820191506020850194506020810190506121b7565b868310156121f957848901516121f5601f891682612108565b8355505b6001600288020188555050505b505050505050565b7f4d696e6d756d20626f72726f7720697320302e312045746800000000000000005f82015250565b5f61224260188361170b565b915061224d8261220e565b602082019050919050565b5f6020820190508181035f83015261226f81612236565b905091905056fea2646970667358221220d6f05508972fac13f18bd5acbf8913e1199369b3b5161d19ebc2c112b019698364736f6c634300081e0033",
					"opcodes": "PUSH1 0x80 PUSH1 0x40 MSTORE PUSH1 0x3 PUSH1 0x6 SSTORE CALLVALUE DUP1 ISZERO PUSH1 0x13 JUMPI PUSH0 PUSH0 REVERT JUMPDEST POP CALLER PUSH0 PUSH0 PUSH2 0x100 EXP DUP2 SLOAD DUP2 PUSH20 0xFFFFFFFFFFFFFFFFFFFFFFFFFFFFFFFFFFFFFFFF MUL NOT AND SWAP1 DUP4 PUSH20 0xFFFFFFFFFFFFFFFFFFFFFFFFFFFFFFFFFFFFFFFF AND MUL OR SWAP1 SSTORE POP PUSH2 0x22AC DUP1 PUSH2 0x60 PUSH0 CODECOPY PUSH0 RETURN INVALID PUSH1 0x80 PUSH1 0x40 MSTORE PUSH1 0x4 CALLDATASIZE LT PUSH2 0x107 JUMPI PUSH0 CALLDATALOAD PUSH1 0xE0 SHR DUP1 PUSH4 0x6F9FB98A GT PUSH2 0x94 JUMPI DUP1 PUSH4 0xCB50BB74 GT PUSH2 0x63 JUMPI DUP1 PUSH4 0xCB50BB74 EQ PUSH2 0x329 JUMPI DUP1 PUSH4 0xD6020811 EQ PUSH2 0x353 JUMPI DUP1 PUSH4 0xDCE8E848 EQ PUSH2 0x37D JUMPI DUP1 PUSH4 0xDDD899A1 EQ PUSH2 0x3B9 JUMPI DUP1 PUSH4 0xFF6D4F73 EQ PUSH2 0x3E3 JUMPI PUSH2 0x107 JUMP JUMPDEST DUP1 PUSH4 0x6F9FB98A EQ PUSH2 0x28F JUMPI DUP1 PUSH4 0x71604909 EQ PUSH2 0x2B9 JUMPI DUP1 PUSH4 0x8DA5CB5B EQ PUSH2 0x2F5 JUMPI DUP1 PUSH4 0x97DFFC61 EQ PUSH2 0x31F JUMPI PUSH2 0x107 JUMP JUMPDEST DUP1 PUSH4 0x2F1158F7 GT PUSH2 0xDB JUMPI DUP1 PUSH4 0x2F1158F7 EQ PUSH2 0x1B9 JUMPI DUP1 PUSH4 0x33D5281F EQ PUSH2 0x1F5 JUMPI DUP1 PUSH4 0x392F6356 EQ PUSH2 0x211 JUMPI DUP1 PUSH4 0x3E86E213 EQ PUSH2 0x23B JUMPI DUP1 PUSH4 0x65AD976E EQ PUSH2 0x265 JUMPI PUSH2 0x107 JUMP JUMPDEST DUP1 PUSH3 0x63750C EQ PUSH2 0x10B JUMPI DUP1 PUSH4 0x11C6BF8F EQ PUSH2 0x121 JUMPI DUP1 PUSH4 0x26A39C07 EQ PUSH2 0x161 JUMPI DUP1 PUSH4 0x2E1A7D4D EQ PUSH2 0x19D JUMPI JUMPDEST PUSH0 PUSH0 REVERT JUMPDEST CALLVALUE DUP1 ISZERO PUSH2 0x116 JUMPI PUSH0 PUSH0 REVERT JUMPDEST POP PUSH2 0x11F PUSH2 0x421 JUMP JUMPDEST STOP JUMPDEST CALLVALUE DUP1 ISZERO PUSH2 0x12C JUMPI PUSH0 PUSH0 REVERT JUMPDEST POP PUSH2 0x147 PUSH1 0x4 DUP1 CALLDATASIZE SUB DUP2 ADD SWAP1 PUSH2 0x142 SWAP2 SWAP1 PUSH2 0x16C3 JUMP JUMPDEST PUSH2 0x597 JUMP JUMPDEST PUSH1 0x40 MLOAD PUSH2 0x158 SWAP6 SWAP5 SWAP4 SWAP3 SWAP2 SWAP1 PUSH2 0x1789 JUMP JUMPDEST PUSH1 0x40 MLOAD DUP1 SWAP2 SUB SWAP1 RETURN JUMPDEST CALLVALUE DUP1 ISZERO PUSH2 0x16C JUMPI PUSH0 PUSH0 REVERT JUMPDEST POP PUSH2 0x187 PUSH1 0x4 DUP1 CALLDATASIZE SUB DUP2 ADD SWAP1 PUSH2 0x182 SWAP2 SWAP1 PUSH2 0x17E1 JUMP JUMPDEST PUSH2 0x65A JUMP JUMPDEST PUSH1 0x40 MLOAD PUSH2 0x194 SWAP2 SWAP1 PUSH2 0x180C JUMP JUMPDEST PUSH1 0x40 MLOAD DUP1 SWAP2 SUB SWAP1 RETURN JUMPDEST PUSH2 0x1B7 PUSH1 0x4 DUP1 CALLDATASIZE SUB DUP2 ADD SWAP1 PUSH2 0x1B2 SWAP2 SWAP1 PUSH2 0x184F JUMP JUMPDEST PUSH2 0x66F JUMP JUMPDEST STOP JUMPDEST CALLVALUE DUP1 ISZERO PUSH2 0x1C4 JUMPI PUSH0 PUSH0 REVERT JUMPDEST POP PUSH2 0x1DF PUSH1 0x4 DUP1 CALLDATASIZE SUB DUP2 ADD SWAP1 PUSH2 0x1DA SWAP2 SWAP1 PUSH2 0x17E1 JUMP JUMPDEST PUSH2 0xAE6 JUMP JUMPDEST PUSH1 0x40 MLOAD PUSH2 0x1EC SWAP2 SWAP1 PUSH2 0x1894 JUMP JUMPDEST PUSH1 0x40 MLOAD DUP1 SWAP2 SUB SWAP1 RETURN JUMPDEST PUSH2 0x20F PUSH1 0x4 DUP1 CALLDATASIZE SUB DUP2 ADD SWAP1 PUSH2 0x20A SWAP2 SWAP1 PUSH2 0x18AD JUMP JUMPDEST PUSH2 0xB03 JUMP JUMPDEST STOP JUMPDEST CALLVALUE DUP1 ISZERO PUSH2 0x21C JUMPI PUSH0 PUSH0 REVERT JUMPDEST POP PUSH2 0x225 PUSH2 0xE3A JUMP JUMPDEST PUSH1 0x40 MLOAD PUSH2 0x232 SWAP2 SWAP1 PUSH2 0x180C JUMP JUMPDEST PUSH1 0x40 MLOAD DUP1 SWAP2 SUB SWAP1 RETURN JUMPDEST CALLVALUE DUP1 ISZERO PUSH2 0x246 JUMPI PUSH0 PUSH0 REVERT JUMPDEST POP PUSH2 0x24F PUSH2 0xE48 JUMP JUMPDEST PUSH1 0x40 MLOAD PUSH2 0x25C SWAP2 SWAP1 PUSH2 0x19A2 JUMP JUMPDEST PUSH1 0x40 MLOAD DUP1 SWAP2 SUB SWAP1 RETURN JUMPDEST CALLVALUE DUP1 ISZERO PUSH2 0x270 JUMPI PUSH0 PUSH0 REVERT JUMPDEST POP PUSH2 0x279 PUSH2 0xED3 JUMP JUMPDEST PUSH1 0x40 MLOAD PUSH2 0x286 SWAP2 SWAP1 PUSH2 0x180C JUMP JUMPDEST PUSH1 0x40 MLOAD DUP1 SWAP2 SUB SWAP1 RETURN JUMPDEST CALLVALUE DUP1 ISZERO PUSH2 0x29A JUMPI PUSH0 PUSH0 REVERT JUMPDEST POP PUSH2 0x2A3 PUSH2 0xED9 JUMP JUMPDEST PUSH1 0x40 MLOAD PUSH2 0x2B0 SWAP2 SWAP1 PUSH2 0x180C JUMP JUMPDEST PUSH1 0x40 MLOAD DUP1 SWAP2 SUB SWAP1 RETURN JUMPDEST CALLVALUE DUP1 ISZERO PUSH2 0x2C4 JUMPI PUSH0 PUSH0 REVERT JUMPDEST POP PUSH2 0x2DF PUSH1 0x4 DUP1 CALLDATASIZE SUB DUP2 ADD SWAP1 PUSH2 0x2DA SWAP2 SWAP1 PUSH2 0x17E1 JUMP JUMPDEST PUSH2 0xEE0 JUMP JUMPDEST PUSH1 0x40 MLOAD PUSH2 0x2EC SWAP2 SWAP1 PUSH2 0x19D1 JUMP JUMPDEST PUSH1 0x40 MLOAD DUP1 SWAP2 SUB SWAP1 RETURN JUMPDEST CALLVALUE DUP1 ISZERO PUSH2 0x300 JUMPI PUSH0 PUSH0 REVERT JUMPDEST POP PUSH2 0x309 PUSH2 0xEF5 JUMP JUMPDEST PUSH1 0x40 MLOAD PUSH2 0x316 SWAP2 SWAP1 PUSH2 0x19F9 JUMP JUMPDEST PUSH1 0x40 MLOAD DUP1 SWAP2 SUB SWAP1 RETURN JUMPDEST PUSH2 0x327 PUSH2 0xF19 JUMP JUMPDEST STOP JUMPDEST CALLVALUE DUP1 ISZERO PUSH2 0x334 JUMPI PUSH0 PUSH0 REVERT JUMPDEST POP PUSH2 0x33D PUSH2 0x10E7 JUMP JUMPDEST PUSH1 0x40 MLOAD PUSH2 0x34A SWAP2 SWAP1 PUSH2 0x180C JUMP JUMPDEST PUSH1 0x40 MLOAD DUP1 SWAP2 SUB SWAP1 RETURN JUMPDEST CALLVALUE DUP1 ISZERO PUSH2 0x35E JUMPI PUSH0 PUSH0 REVERT JUMPDEST POP PUSH2 0x367 PUSH2 0x10ED JUMP JUMPDEST PUSH1 0x40 MLOAD PUSH2 0x374 SWAP2 SWAP1 PUSH2 0x19A2 JUMP JUMPDEST PUSH1 0x40 MLOAD DUP1 SWAP2 SUB SWAP1 RETURN JUMPDEST CALLVALUE DUP1 ISZERO PUSH2 0x388 JUMPI PUSH0 PUSH0 REVERT JUMPDEST POP PUSH2 0x3A3 PUSH1 0x4 DUP1 CALLDATASIZE SUB DUP2 ADD SWAP1 PUSH2 0x39E SWAP2 SWAP1 PUSH2 0x17E1 JUMP JUMPDEST PUSH2 0x1178 JUMP JUMPDEST PUSH1 0x40 MLOAD PUSH2 0x3B0 SWAP2 SWAP1 PUSH2 0x180C JUMP JUMPDEST PUSH1 0x40 MLOAD DUP1 SWAP2 SUB SWAP1 RETURN JUMPDEST CALLVALUE DUP1 ISZERO PUSH2 0x3C4 JUMPI PUSH0 PUSH0 REVERT JUMPDEST POP PUSH2 0x3CD PUSH2 0x118D JUMP JUMPDEST PUSH1 0x40 MLOAD PUSH2 0x3DA SWAP2 SWAP1 PUSH2 0x180C JUMP JUMPDEST PUSH1 0x40 MLOAD DUP1 SWAP2 SUB SWAP1 RETURN JUMPDEST CALLVALUE DUP1 ISZERO PUSH2 0x3EE JUMPI PUSH0 PUSH0 REVERT JUMPDEST POP PUSH2 0x409 PUSH1 0x4 DUP1 CALLDATASIZE SUB DUP2 ADD SWAP1 PUSH2 0x404 SWAP2 SWAP1 PUSH2 0x1A12 JUMP JUMPDEST PUSH2 0x1193 JUMP JUMPDEST PUSH1 0x40 MLOAD PUSH2 0x418 SWAP4 SWAP3 SWAP2 SWAP1 PUSH2 0x1A50 JUMP JUMPDEST PUSH1 0x40 MLOAD DUP1 SWAP2 SUB SWAP1 RETURN JUMPDEST PUSH0 PUSH0 SWAP1 POP JUMPDEST DUP1 PUSH1 0x9 PUSH0 CALLER PUSH20 0xFFFFFFFFFFFFFFFFFFFFFFFFFFFFFFFFFFFFFFFF AND PUSH20 0xFFFFFFFFFFFFFFFFFFFFFFFFFFFFFFFFFFFFFFFF AND DUP2 MSTORE PUSH1 0x20 ADD SWAP1 DUP2 MSTORE PUSH1 0x20 ADD PUSH0 KECCAK256 DUP1 SLOAD SWAP1 POP GT ISZERO PUSH2 0x4E4 JUMPI TIMESTAMP PUSH1 0x9 PUSH0 CALLER PUSH20 0xFFFFFFFFFFFFFFFFFFFFFFFFFFFFFFFFFFFFFFFF AND PUSH20 0xFFFFFFFFFFFFFFFFFFFFFFFFFFFFFFFFFFFFFFFF AND DUP2 MSTORE PUSH1 0x20 ADD SWAP1 DUP2 MSTORE PUSH1 0x20 ADD PUSH0 KECCAK256 DUP3 DUP2 SLOAD DUP2 LT PUSH2 0x4BE JUMPI PUSH2 0x4BD PUSH2 0x1A85 JUMP JUMPDEST JUMPDEST SWAP1 PUSH0 MSTORE PUSH1 0x20 PUSH0 KECCAK256 SWAP1 PUSH1 0x3 MUL ADD PUSH1 0x1 ADD DUP2 SWAP1 SSTORE POP DUP1 DUP1 PUSH2 0x4DC SWAP1 PUSH2 0x1ADF JUMP JUMPDEST SWAP2 POP POP PUSH2 0x426 JUMP JUMPDEST POP PUSH0 CALLER PUSH20 0xFFFFFFFFFFFFFFFFFFFFFFFFFFFFFFFFFFFFFFFF AND PUSH2 0x505 PUSH2 0x11D3 JUMP JUMPDEST PUSH1 0x40 MLOAD PUSH2 0x511 SWAP1 PUSH2 0x1B53 JUMP JUMPDEST PUSH0 PUSH1 0x40 MLOAD DUP1 DUP4 SUB DUP2 DUP6 DUP8 GAS CALL SWAP3 POP POP POP RETURNDATASIZE DUP1 PUSH0 DUP2 EQ PUSH2 0x54B JUMPI PUSH1 0x40 MLOAD SWAP2 POP PUSH1 0x1F NOT PUSH1 0x3F RETURNDATASIZE ADD AND DUP3 ADD PUSH1 0x40 MSTORE RETURNDATASIZE DUP3 MSTORE RETURNDATASIZE PUSH0 PUSH1 0x20 DUP5 ADD RETURNDATACOPY PUSH2 0x550 JUMP JUMPDEST PUSH1 0x60 SWAP2 POP JUMPDEST POP POP SWAP1 POP DUP1 PUSH2 0x594 JUMPI PUSH1 0x40 MLOAD PUSH32 0x8C379A000000000000000000000000000000000000000000000000000000000 DUP2 MSTORE PUSH1 0x4 ADD PUSH2 0x58B SWAP1 PUSH2 0x1BB1 JUMP JUMPDEST PUSH1 0x40 MLOAD DUP1 SWAP2 SUB SWAP1 REVERT JUMPDEST POP JUMP JUMPDEST PUSH1 0x7 PUSH1 0x20 MSTORE DUP2 PUSH0 MSTORE PUSH1 0x40 PUSH0 KECCAK256 PUSH1 0x20 MSTORE DUP1 PUSH0 MSTORE PUSH1 0x40 PUSH0 KECCAK256 PUSH0 SWAP2 POP SWAP2 POP POP DUP1 PUSH0 ADD DUP1 SLOAD PUSH2 0x5C1 SWAP1 PUSH2 0x1BFC JUMP JUMPDEST DUP1 PUSH1 0x1F ADD PUSH1 0x20 DUP1 SWAP2 DIV MUL PUSH1 0x20 ADD PUSH1 0x40 MLOAD SWAP1 DUP2 ADD PUSH1 0x40 MSTORE DUP1 SWAP3 SWAP2 SWAP1 DUP2 DUP2 MSTORE PUSH1 0x20 ADD DUP3 DUP1 SLOAD PUSH2 0x5ED SWAP1 PUSH2 0x1BFC JUMP JUMPDEST DUP1 ISZERO PUSH2 0x638 JUMPI DUP1 PUSH1 0x1F LT PUSH2 0x60F JUMPI PUSH2 0x100 DUP1 DUP4 SLOAD DIV MUL DUP4 MSTORE SWAP2 PUSH1 0x20 ADD SWAP2 PUSH2 0x638 JUMP JUMPDEST DUP3 ADD SWAP2 SWAP1 PUSH0 MSTORE PUSH1 0x20 PUSH0 KECCAK256 SWAP1 JUMPDEST DUP2 SLOAD DUP2 MSTORE SWAP1 PUSH1 0x1 ADD SWAP1 PUSH1 0x20 ADD DUP1 DUP4 GT PUSH2 0x61B JUMPI DUP3 SWAP1 SUB PUSH1 0x1F AND DUP3 ADD SWAP2 JUMPDEST POP POP POP POP POP SWAP1 DUP1 PUSH1 0x1 ADD SLOAD SWAP1 DUP1 PUSH1 0x2 ADD SLOAD SWAP1 DUP1 PUSH1 0x3 ADD SLOAD SWAP1 DUP1 PUSH1 0x4 ADD SLOAD SWAP1 POP DUP6 JUMP JUMPDEST PUSH1 0xA PUSH1 0x20 MSTORE DUP1 PUSH0 MSTORE PUSH1 0x40 PUSH0 KECCAK256 PUSH0 SWAP2 POP SWAP1 POP SLOAD DUP2 JUMP JUMPDEST DUP1 DUP1 PUSH1 0xB PUSH0 CALLER PUSH20 0xFFFFFFFFFFFFFFFFFFFFFFFFFFFFFFFFFFFFFFFF AND PUSH20 0xFFFFFFFFFFFFFFFFFFFFFFFFFFFFFFFFFFFFFFFF AND DUP2 MSTORE PUSH1 0x20 ADD SWAP1 DUP2 MSTORE PUSH1 0x20 ADD PUSH0 KECCAK256 SLOAD LT ISZERO PUSH2 0x6F0 JUMPI PUSH1 0x40 MLOAD PUSH32 0x8C379A000000000000000000000000000000000000000000000000000000000 DUP2 MSTORE PUSH1 0x4 ADD PUSH2 0x6E7 SWAP1 PUSH2 0x1C76 JUMP JUMPDEST PUSH1 0x40 MLOAD DUP1 SWAP2 SUB SWAP1 REVERT JUMPDEST PUSH0 DUP3 SWAP1 POP PUSH0 PUSH0 SWAP1 POP JUMPDEST PUSH1 0x9 PUSH0 CALLER PUSH20 0xFFFFFFFFFFFFFFFFFFFFFFFFFFFFFFFFFFFFFFFF AND PUSH20 0xFFFFFFFFFFFFFFFFFFFFFFFFFFFFFFFFFFFFFFFF AND DUP2 MSTORE PUSH1 0x20 ADD SWAP1 DUP2 MSTORE PUSH1 0x20 ADD PUSH0 KECCAK256 DUP1 SLOAD SWAP1 POP DUP2 LT ISZERO PUSH2 0x967 JUMPI PUSH1 0x9 PUSH0 CALLER PUSH20 0xFFFFFFFFFFFFFFFFFFFFFFFFFFFFFFFFFFFFFFFF AND PUSH20 0xFFFFFFFFFFFFFFFFFFFFFFFFFFFFFFFFFFFFFFFF AND DUP2 MSTORE PUSH1 0x20 ADD SWAP1 DUP2 MSTORE PUSH1 0x20 ADD PUSH0 KECCAK256 DUP2 DUP2 SLOAD DUP2 LT PUSH2 0x790 JUMPI PUSH2 0x78F PUSH2 0x1A85 JUMP JUMPDEST JUMPDEST SWAP1 PUSH0 MSTORE PUSH1 0x20 PUSH0 KECCAK256 SWAP1 PUSH1 0x3 MUL ADD PUSH1 0x2 ADD SLOAD DUP5 GT ISZERO PUSH2 0x87B JUMPI PUSH1 0x9 PUSH0 CALLER PUSH20 0xFFFFFFFFFFFFFFFFFFFFFFFFFFFFFFFFFFFFFFFF AND PUSH20 0xFFFFFFFFFFFFFFFFFFFFFFFFFFFFFFFFFFFFFFFF AND DUP2 MSTORE PUSH1 0x20 ADD SWAP1 DUP2 MSTORE PUSH1 0x20 ADD PUSH0 KECCAK256 DUP2 DUP2 SLOAD DUP2 LT PUSH2 0x7F6 JUMPI PUSH2 0x7F5 PUSH2 0x1A85 JUMP JUMPDEST JUMPDEST SWAP1 PUSH0 MSTORE PUSH1 0x20 PUSH0 KECCAK256 SWAP1 PUSH1 0x3 MUL ADD PUSH1 0x2 ADD SLOAD DUP5 PUSH2 0x811 SWAP2 SWAP1 PUSH2 0x1C94 JUMP JUMPDEST SWAP4 POP PUSH0 PUSH1 0x9 PUSH0 CALLER PUSH20 0xFFFFFFFFFFFFFFFFFFFFFFFFFFFFFFFFFFFFFFFF AND PUSH20 0xFFFFFFFFFFFFFFFFFFFFFFFFFFFFFFFFFFFFFFFF AND DUP2 MSTORE PUSH1 0x20 ADD SWAP1 DUP2 MSTORE PUSH1 0x20 ADD PUSH0 KECCAK256 DUP3 DUP2 SLOAD DUP2 LT PUSH2 0x863 JUMPI PUSH2 0x862 PUSH2 0x1A85 JUMP JUMPDEST JUMPDEST SWAP1 PUSH0 MSTORE PUSH1 0x20 PUSH0 KECCAK256 SWAP1 PUSH1 0x3 MUL ADD PUSH1 0x2 ADD DUP2 SWAP1 SSTORE POP PUSH2 0x95A JUMP JUMPDEST DUP4 PUSH1 0x9 PUSH0 CALLER PUSH20 0xFFFFFFFFFFFFFFFFFFFFFFFFFFFFFFFFFFFFFFFF AND PUSH20 0xFFFFFFFFFFFFFFFFFFFFFFFFFFFFFFFFFFFFFFFF AND DUP2 MSTORE PUSH1 0x20 ADD SWAP1 DUP2 MSTORE PUSH1 0x20 ADD PUSH0 KECCAK256 DUP3 DUP2 SLOAD DUP2 LT PUSH2 0x8CB JUMPI PUSH2 0x8CA PUSH2 0x1A85 JUMP JUMPDEST JUMPDEST SWAP1 PUSH0 MSTORE PUSH1 0x20 PUSH0 KECCAK256 SWAP1 PUSH1 0x3 MUL ADD PUSH1 0x2 ADD SLOAD LT PUSH2 0x959 JUMPI DUP4 PUSH1 0x9 PUSH0 CALLER PUSH20 0xFFFFFFFFFFFFFFFFFFFFFFFFFFFFFFFFFFFFFFFF AND PUSH20 0xFFFFFFFFFFFFFFFFFFFFFFFFFFFFFFFFFFFFFFFF AND DUP2 MSTORE PUSH1 0x20 ADD SWAP1 DUP2 MSTORE PUSH1 0x20 ADD PUSH0 KECCAK256 DUP3 DUP2 SLOAD DUP2 LT PUSH2 0x930 JUMPI PUSH2 0x92F PUSH2 0x1A85 JUMP JUMPDEST JUMPDEST SWAP1 PUSH0 MSTORE PUSH1 0x20 PUSH0 KECCAK256 SWAP1 PUSH1 0x3 MUL ADD PUSH1 0x2 ADD PUSH0 DUP3 DUP3 SLOAD PUSH2 0x94D SWAP2 SWAP1 PUSH2 0x1C94 JUMP JUMPDEST SWAP3 POP POP DUP2 SWAP1 SSTORE POP PUSH2 0x967 JUMP JUMPDEST JUMPDEST DUP1 DUP1 PUSH1 0x1 ADD SWAP2 POP POP PUSH2 0x6F9 JUMP JUMPDEST POP DUP1 PUSH1 0xB PUSH0 CALLER PUSH20 0xFFFFFFFFFFFFFFFFFFFFFFFFFFFFFFFFFFFFFFFF AND PUSH20 0xFFFFFFFFFFFFFFFFFFFFFFFFFFFFFFFFFFFFFFFF AND DUP2 MSTORE PUSH1 0x20 ADD SWAP1 DUP2 MSTORE PUSH1 0x20 ADD PUSH0 KECCAK256 PUSH0 DUP3 DUP3 SLOAD PUSH2 0x9B4 SWAP2 SWAP1 PUSH2 0x1C94 JUMP JUMPDEST SWAP3 POP POP DUP2 SWAP1 SSTORE POP PUSH0 CALLER PUSH20 0xFFFFFFFFFFFFFFFFFFFFFFFFFFFFFFFFFFFFFFFF AND DUP3 PUSH1 0x40 MLOAD PUSH2 0x9E0 SWAP1 PUSH2 0x1B53 JUMP JUMPDEST PUSH0 PUSH1 0x40 MLOAD DUP1 DUP4 SUB DUP2 DUP6 DUP8 GAS CALL SWAP3 POP POP POP RETURNDATASIZE DUP1 PUSH0 DUP2 EQ PUSH2 0xA1A JUMPI PUSH1 0x40 MLOAD SWAP2 POP PUSH1 0x1F NOT PUSH1 0x3F RETURNDATASIZE ADD AND DUP3 ADD PUSH1 0x40 MSTORE RETURNDATASIZE DUP3 MSTORE RETURNDATASIZE PUSH0 PUSH1 0x20 DUP5 ADD RETURNDATACOPY PUSH2 0xA1F JUMP JUMPDEST PUSH1 0x60 SWAP2 POP JUMPDEST POP POP SWAP1 POP DUP1 PUSH2 0xA63 JUMPI PUSH1 0x40 MLOAD PUSH32 0x8C379A000000000000000000000000000000000000000000000000000000000 DUP2 MSTORE PUSH1 0x4 ADD PUSH2 0xA5A SWAP1 PUSH2 0x1BB1 JUMP JUMPDEST PUSH1 0x40 MLOAD DUP1 SWAP2 SUB SWAP1 REVERT JUMPDEST PUSH0 DUP5 EQ PUSH2 0xAA5 JUMPI PUSH1 0x40 MLOAD PUSH32 0x8C379A000000000000000000000000000000000000000000000000000000000 DUP2 MSTORE PUSH1 0x4 ADD PUSH2 0xA9C SWAP1 PUSH2 0x1D37 JUMP JUMPDEST PUSH1 0x40 MLOAD DUP1 SWAP2 SUB SWAP1 REVERT JUMPDEST PUSH32 0x4061A3C2FB8ED4FA13EB41AC8AF4B4B8F67955285EA176D176BE39483C38136A CALLER DUP4 TIMESTAMP PUSH1 0x40 MLOAD PUSH2 0xAD8 SWAP4 SWAP3 SWAP2 SWAP1 PUSH2 0x1D55 JUMP JUMPDEST PUSH1 0x40 MLOAD DUP1 SWAP2 SUB SWAP1 LOG1 POP POP POP POP JUMP JUMPDEST PUSH1 0xC PUSH1 0x20 MSTORE DUP1 PUSH0 MSTORE PUSH1 0x40 PUSH0 KECCAK256 PUSH0 SWAP2 POP SLOAD SWAP1 PUSH2 0x100 EXP SWAP1 DIV PUSH1 0xFF AND DUP2 JUMP JUMPDEST DUP2 PUSH2 0x104 DUP2 GT ISZERO PUSH2 0xB49 JUMPI PUSH1 0x40 MLOAD PUSH32 0x8C379A000000000000000000000000000000000000000000000000000000000 DUP2 MSTORE PUSH1 0x4 ADD PUSH2 0xB40 SWAP1 PUSH2 0x1DD4 JUMP JUMPDEST PUSH1 0x40 MLOAD DUP1 SWAP2 SUB SWAP1 REVERT JUMPDEST DUP2 PUSH8 0x2C68AF0BB140000 DUP2 GT PUSH2 0xB94 JUMPI PUSH1 0x40 MLOAD PUSH32 0x8C379A000000000000000000000000000000000000000000000000000000000 DUP2 MSTORE PUSH1 0x4 ADD PUSH2 0xB8B SWAP1 PUSH2 0x1E3C JUMP JUMPDEST PUSH1 0x40 MLOAD DUP1 SWAP2 SUB SWAP1 REVERT JUMPDEST PUSH0 PUSH1 0x8 PUSH0 CALLER PUSH20 0xFFFFFFFFFFFFFFFFFFFFFFFFFFFFFFFFFFFFFFFF AND PUSH20 0xFFFFFFFFFFFFFFFFFFFFFFFFFFFFFFFFFFFFFFFF AND DUP2 MSTORE PUSH1 0x20 ADD SWAP1 DUP2 MSTORE PUSH1 0x20 ADD PUSH0 KECCAK256 PUSH0 DUP2 SLOAD DUP1 SWAP3 SWAP2 SWAP1 PUSH2 0xBE2 SWAP1 PUSH2 0x1E5A JUMP JUMPDEST SWAP2 SWAP1 POP SSTORE SWAP1 POP PUSH0 PUSH3 0x93A80 DUP7 PUSH2 0xBF8 SWAP2 SWAP1 PUSH2 0x1EA1 JUMP JUMPDEST TIMESTAMP PUSH2 0xC03 SWAP2 SWAP1 PUSH2 0x1EE2 JUMP JUMPDEST SWAP1 POP PUSH0 PUSH1 0x18 DUP8 LT ISZERO PUSH2 0xC18 JUMPI PUSH1 0x7 SWAP1 POP PUSH2 0xC56 JUMP JUMPDEST PUSH1 0x18 DUP8 LT ISZERO DUP1 ISZERO PUSH2 0xC29 JUMPI POP PUSH1 0x68 DUP8 LT JUMPDEST ISZERO PUSH2 0xC37 JUMPI PUSH1 0x6 SWAP1 POP PUSH2 0xC55 JUMP JUMPDEST PUSH1 0x68 DUP8 LT ISZERO DUP1 ISZERO PUSH2 0xC4A JUMPI POP PUSH2 0x104 DUP8 GT ISZERO JUMPDEST ISZERO PUSH2 0xC54 JUMPI PUSH1 0x5 SWAP1 POP JUMPDEST JUMPDEST JUMPDEST PUSH0 PUSH2 0x1450 DUP9 DUP4 DUP10 PUSH2 0xC67 SWAP2 SWAP1 PUSH2 0x1EA1 JUMP JUMPDEST PUSH2 0xC71 SWAP2 SWAP1 PUSH2 0x1EA1 JUMP JUMPDEST PUSH2 0xC7B SWAP2 SWAP1 PUSH2 0x1F42 JUMP JUMPDEST DUP8 PUSH2 0xC86 SWAP2 SWAP1 PUSH2 0x1EE2 JUMP JUMPDEST SWAP1 POP PUSH0 CALLER PUSH20 0xFFFFFFFFFFFFFFFFFFFFFFFFFFFFFFFFFFFFFFFF AND DUP9 PUSH1 0x40 MLOAD PUSH2 0xCAD SWAP1 PUSH2 0x1B53 JUMP JUMPDEST PUSH0 PUSH1 0x40 MLOAD DUP1 DUP4 SUB DUP2 DUP6 DUP8 GAS CALL SWAP3 POP POP POP RETURNDATASIZE DUP1 PUSH0 DUP2 EQ PUSH2 0xCE7 JUMPI PUSH1 0x40 MLOAD SWAP2 POP PUSH1 0x1F NOT PUSH1 0x3F RETURNDATASIZE ADD AND DUP3 ADD PUSH1 0x40 MSTORE RETURNDATASIZE DUP3 MSTORE RETURNDATASIZE PUSH0 PUSH1 0x20 DUP5 ADD RETURNDATACOPY PUSH2 0xCEC JUMP JUMPDEST PUSH1 0x60 SWAP2 POP JUMPDEST POP POP SWAP1 POP DUP1 PUSH2 0xD30 JUMPI PUSH1 0x40 MLOAD PUSH32 0x8C379A000000000000000000000000000000000000000000000000000000000 DUP2 MSTORE PUSH1 0x4 ADD PUSH2 0xD27 SWAP1 PUSH2 0x1BB1 JUMP JUMPDEST PUSH1 0x40 MLOAD DUP1 SWAP2 SUB SWAP1 REVERT JUMPDEST PUSH1 0x40 MLOAD DUP1 PUSH1 0xA0 ADD PUSH1 0x40 MSTORE DUP1 PUSH1 0x40 MLOAD DUP1 PUSH1 0x40 ADD PUSH1 0x40 MSTORE DUP1 PUSH1 0x6 DUP2 MSTORE PUSH1 0x20 ADD PUSH32 0x6163746976650000000000000000000000000000000000000000000000000000 DUP2 MSTORE POP DUP2 MSTORE PUSH1 0x20 ADD DUP6 DUP2 MSTORE PUSH1 0x20 ADD DUP5 DUP2 MSTORE PUSH1 0x20 ADD DUP10 DUP2 MSTORE PUSH1 0x20 ADD DUP4 DUP2 MSTORE POP PUSH1 0x7 PUSH0 CALLER PUSH20 0xFFFFFFFFFFFFFFFFFFFFFFFFFFFFFFFFFFFFFFFF AND PUSH20 0xFFFFFFFFFFFFFFFFFFFFFFFFFFFFFFFFFFFFFFFF AND DUP2 MSTORE PUSH1 0x20 ADD SWAP1 DUP2 MSTORE PUSH1 0x20 ADD PUSH0 KECCAK256 PUSH0 DUP8 DUP2 MSTORE PUSH1 0x20 ADD SWAP1 DUP2 MSTORE PUSH1 0x20 ADD PUSH0 KECCAK256 PUSH0 DUP3 ADD MLOAD DUP2 PUSH0 ADD SWAP1 DUP2 PUSH2 0xDEB SWAP2 SWAP1 PUSH2 0x213F JUMP JUMPDEST POP PUSH1 0x20 DUP3 ADD MLOAD DUP2 PUSH1 0x1 ADD SSTORE PUSH1 0x40 DUP3 ADD MLOAD DUP2 PUSH1 0x2 ADD SSTORE PUSH1 0x60 DUP3 ADD MLOAD DUP2 PUSH1 0x3 ADD SSTORE PUSH1 0x80 DUP3 ADD MLOAD DUP2 PUSH1 0x4 ADD SSTORE SWAP1 POP POP PUSH2 0xE23 PUSH1 0x2 PUSH1 0x3 PUSH2 0x141F JUMP JUMPDEST PUSH1 0x2 DUP1 SLOAD SWAP1 POP PUSH1 0x4 DUP2 SWAP1 SSTORE POP POP POP POP POP POP POP POP POP POP JUMP JUMPDEST PUSH0 PUSH2 0xE43 PUSH2 0x11D3 JUMP JUMPDEST SWAP1 POP SWAP1 JUMP JUMPDEST PUSH1 0x60 PUSH1 0x2 DUP1 SLOAD DUP1 PUSH1 0x20 MUL PUSH1 0x20 ADD PUSH1 0x40 MLOAD SWAP1 DUP2 ADD PUSH1 0x40 MSTORE DUP1 SWAP3 SWAP2 SWAP1 DUP2 DUP2 MSTORE PUSH1 0x20 ADD DUP3 DUP1 SLOAD DUP1 ISZERO PUSH2 0xEC9 JUMPI PUSH1 0x20 MUL DUP3 ADD SWAP2 SWAP1 PUSH0 MSTORE PUSH1 0x20 PUSH0 KECCAK256 SWAP1 JUMPDEST DUP2 PUSH0 SWAP1 SLOAD SWAP1 PUSH2 0x100 EXP SWAP1 DIV PUSH20 0xFFFFFFFFFFFFFFFFFFFFFFFFFFFFFFFFFFFFFFFF AND PUSH20 0xFFFFFFFFFFFFFFFFFFFFFFFFFFFFFFFFFFFFFFFF AND DUP2 MSTORE PUSH1 0x20 ADD SWAP1 PUSH1 0x1 ADD SWAP1 DUP1 DUP4 GT PUSH2 0xE80 JUMPI JUMPDEST POP POP POP POP POP SWAP1 POP SWAP1 JUMP JUMPDEST PUSH1 0x6 SLOAD DUP2 JUMP JUMPDEST PUSH0 SELFBALANCE SWAP1 POP SWAP1 JUMP JUMPDEST PUSH1 0x8 PUSH1 0x20 MSTORE DUP1 PUSH0 MSTORE PUSH1 0x40 PUSH0 KECCAK256 PUSH0 SWAP2 POP SWAP1 POP SLOAD DUP2 JUMP JUMPDEST PUSH0 PUSH0 SWAP1 SLOAD SWAP1 PUSH2 0x100 EXP SWAP1 DIV PUSH20 0xFFFFFFFFFFFFFFFFFFFFFFFFFFFFFFFFFFFFFFFF AND DUP2 JUMP JUMPDEST PUSH8 0x16345785D8A0000 CALLVALUE GT PUSH2 0xF63 JUMPI PUSH1 0x40 MLOAD PUSH32 0x8C379A000000000000000000000000000000000000000000000000000000000 DUP2 MSTORE PUSH1 0x4 ADD PUSH2 0xF5A SWAP1 PUSH2 0x2258 JUMP JUMPDEST PUSH1 0x40 MLOAD DUP1 SWAP2 SUB SWAP1 REVERT JUMPDEST CALLVALUE PUSH1 0xB PUSH0 CALLER PUSH20 0xFFFFFFFFFFFFFFFFFFFFFFFFFFFFFFFFFFFFFFFF AND PUSH20 0xFFFFFFFFFFFFFFFFFFFFFFFFFFFFFFFFFFFFFFFF AND DUP2 MSTORE PUSH1 0x20 ADD SWAP1 DUP2 MSTORE PUSH1 0x20 ADD PUSH0 KECCAK256 PUSH0 DUP3 DUP3 SLOAD PUSH2 0xFAF SWAP2 SWAP1 PUSH2 0x1EE2 JUMP JUMPDEST SWAP3 POP POP DUP2 SWAP1 SSTORE POP PUSH2 0xFC2 PUSH1 0x3 PUSH1 0x2 PUSH2 0x141F JUMP JUMPDEST PUSH1 0x3 DUP1 SLOAD SWAP1 POP PUSH1 0x5 DUP2 SWAP1 SSTORE POP PUSH1 0x9 PUSH0 CALLER PUSH20 0xFFFFFFFFFFFFFFFFFFFFFFFFFFFFFFFFFFFFFFFF AND PUSH20 0xFFFFFFFFFFFFFFFFFFFFFFFFFFFFFFFFFFFFFFFF AND DUP2 MSTORE PUSH1 0x20 ADD SWAP1 DUP2 MSTORE PUSH1 0x20 ADD PUSH0 KECCAK256 PUSH1 0x40 MLOAD DUP1 PUSH1 0x60 ADD PUSH1 0x40 MSTORE DUP1 PUSH1 0x9 PUSH0 CALLER PUSH20 0xFFFFFFFFFFFFFFFFFFFFFFFFFFFFFFFFFFFFFFFF AND PUSH20 0xFFFFFFFFFFFFFFFFFFFFFFFFFFFFFFFFFFFFFFFF AND DUP2 MSTORE PUSH1 0x20 ADD SWAP1 DUP2 MSTORE PUSH1 0x20 ADD PUSH0 KECCAK256 DUP1 SLOAD SWAP1 POP DUP2 MSTORE PUSH1 0x20 ADD TIMESTAMP DUP2 MSTORE PUSH1 0x20 ADD CALLVALUE DUP2 MSTORE POP SWAP1 DUP1 PUSH1 0x1 DUP2 SLOAD ADD DUP1 DUP3 SSTORE DUP1 SWAP2 POP POP PUSH1 0x1 SWAP1 SUB SWAP1 PUSH0 MSTORE PUSH1 0x20 PUSH0 KECCAK256 SWAP1 PUSH1 0x3 MUL ADD PUSH0 SWAP1 SWAP2 SWAP1 SWAP2 SWAP1 SWAP2 POP PUSH0 DUP3 ADD MLOAD DUP2 PUSH0 ADD SSTORE PUSH1 0x20 DUP3 ADD MLOAD DUP2 PUSH1 0x1 ADD SSTORE PUSH1 0x40 DUP3 ADD MLOAD DUP2 PUSH1 0x2 ADD SSTORE POP POP PUSH32 0xF6285A60C92FD2767BC48A572B64940A62BE26CB7C523E64BF3BD75A82062559 CALLER CALLVALUE TIMESTAMP PUSH1 0x40 MLOAD PUSH2 0x10DD SWAP4 SWAP3 SWAP2 SWAP1 PUSH2 0x1D55 JUMP JUMPDEST PUSH1 0x40 MLOAD DUP1 SWAP2 SUB SWAP1 LOG1 JUMP JUMPDEST PUSH1 0x5 SLOAD DUP2 JUMP JUMPDEST PUSH1 0x60 PUSH1 0x3 DUP1 SLOAD DUP1 PUSH1 0x20 MUL PUSH1 0x20 ADD PUSH1 0x40 MLOAD SWAP1 DUP2 ADD PUSH1 0x40 MSTORE DUP1 SWAP3 SWAP2 SWAP1 DUP2 DUP2 MSTORE PUSH1 0x20 ADD DUP3 DUP1 SLOAD DUP1 ISZERO PUSH2 0x116E JUMPI PUSH1 0x20 MUL DUP3 ADD SWAP2 SWAP1 PUSH0 MSTORE PUSH1 0x20 PUSH0 KECCAK256 SWAP1 JUMPDEST DUP2 PUSH0 SWAP1 SLOAD SWAP1 PUSH2 0x100 EXP SWAP1 DIV PUSH20 0xFFFFFFFFFFFFFFFFFFFFFFFFFFFFFFFFFFFFFFFF AND PUSH20 0xFFFFFFFFFFFFFFFFFFFFFFFFFFFFFFFFFFFFFFFF AND DUP2 MSTORE PUSH1 0x20 ADD SWAP1 PUSH1 0x1 ADD SWAP1 DUP1 DUP4 GT PUSH2 0x1125 JUMPI JUMPDEST POP POP POP POP POP SWAP1 POP SWAP1 JUMP JUMPDEST PUSH1 0xB PUSH1 0x20 MSTORE DUP1 PUSH0 MSTORE PUSH1 0x40 PUSH0 KECCAK256 PUSH0 SWAP2 POP SWAP1 POP SLOAD DUP2 JUMP JUMPDEST PUSH1 0x4 SLOAD DUP2 JUMP JUMPDEST PUSH1 0x9 PUSH1 0x20 MSTORE DUP2 PUSH0 MSTORE PUSH1 0x40 PUSH0 KECCAK256 DUP2 DUP2 SLOAD DUP2 LT PUSH2 0x11AC JUMPI PUSH0 DUP1 REVERT JUMPDEST SWAP1 PUSH0 MSTORE PUSH1 0x20 PUSH0 KECCAK256 SWAP1 PUSH1 0x3 MUL ADD PUSH0 SWAP2 POP SWAP2 POP POP DUP1 PUSH0 ADD SLOAD SWAP1 DUP1 PUSH1 0x1 ADD SLOAD SWAP1 DUP1 PUSH1 0x2 ADD SLOAD SWAP1 POP DUP4 JUMP JUMPDEST PUSH0 PUSH0 PUSH0 PUSH0 SWAP1 POP JUMPDEST DUP1 PUSH1 0x9 PUSH0 CALLER PUSH20 0xFFFFFFFFFFFFFFFFFFFFFFFFFFFFFFFFFFFFFFFF AND PUSH20 0xFFFFFFFFFFFFFFFFFFFFFFFFFFFFFFFFFFFFFFFF AND DUP2 MSTORE PUSH1 0x20 ADD SWAP1 DUP2 MSTORE PUSH1 0x20 ADD PUSH0 KECCAK256 DUP1 SLOAD SWAP1 POP GT ISZERO PUSH2 0x1398 JUMPI PUSH0 PUSH1 0x9 PUSH0 CALLER PUSH20 0xFFFFFFFFFFFFFFFFFFFFFFFFFFFFFFFFFFFFFFFF AND PUSH20 0xFFFFFFFFFFFFFFFFFFFFFFFFFFFFFFFFFFFFFFFF AND DUP2 MSTORE PUSH1 0x20 ADD SWAP1 DUP2 MSTORE PUSH1 0x20 ADD PUSH0 KECCAK256 DUP3 DUP2 SLOAD DUP2 LT PUSH2 0x1272 JUMPI PUSH2 0x1271 PUSH2 0x1A85 JUMP JUMPDEST JUMPDEST SWAP1 PUSH0 MSTORE PUSH1 0x20 PUSH0 KECCAK256 SWAP1 PUSH1 0x3 MUL ADD PUSH1 0x2 ADD SLOAD SUB ISZERO PUSH2 0x1385 JUMPI PUSH4 0xBBF81E00 PUSH1 0x9 PUSH0 CALLER PUSH20 0xFFFFFFFFFFFFFFFFFFFFFFFFFFFFFFFFFFFFFFFF AND PUSH20 0xFFFFFFFFFFFFFFFFFFFFFFFFFFFFFFFFFFFFFFFF AND DUP2 MSTORE PUSH1 0x20 ADD SWAP1 DUP2 MSTORE PUSH1 0x20 ADD PUSH0 KECCAK256 DUP3 DUP2 SLOAD DUP2 LT PUSH2 0x12DC JUMPI PUSH2 0x12DB PUSH2 0x1A85 JUMP JUMPDEST JUMPDEST SWAP1 PUSH0 MSTORE PUSH1 0x20 PUSH0 KECCAK256 SWAP1 PUSH1 0x3 MUL ADD PUSH1 0x2 ADD SLOAD PUSH1 0x6 SLOAD PUSH1 0x9 PUSH0 CALLER PUSH20 0xFFFFFFFFFFFFFFFFFFFFFFFFFFFFFFFFFFFFFFFF AND PUSH20 0xFFFFFFFFFFFFFFFFFFFFFFFFFFFFFFFFFFFFFFFF AND DUP2 MSTORE PUSH1 0x20 ADD SWAP1 DUP2 MSTORE PUSH1 0x20 ADD PUSH0 KECCAK256 DUP5 DUP2 SLOAD DUP2 LT PUSH2 0x133E JUMPI PUSH2 0x133D PUSH2 0x1A85 JUMP JUMPDEST JUMPDEST SWAP1 PUSH0 MSTORE PUSH1 0x20 PUSH0 KECCAK256 SWAP1 PUSH1 0x3 MUL ADD PUSH1 0x1 ADD SLOAD TIMESTAMP PUSH2 0x1359 SWAP2 SWAP1 PUSH2 0x1C94 JUMP JUMPDEST PUSH2 0x1363 SWAP2 SWAP1 PUSH2 0x1EA1 JUMP JUMPDEST PUSH2 0x136D SWAP2 SWAP1 PUSH2 0x1EA1 JUMP JUMPDEST PUSH2 0x1377 SWAP2 SWAP1 PUSH2 0x1F42 JUMP JUMPDEST DUP3 PUSH2 0x1382 SWAP2 SWAP1 PUSH2 0x1EE2 JUMP JUMPDEST SWAP2 POP JUMPDEST DUP1 DUP1 PUSH2 0x1390 SWAP1 PUSH2 0x1ADF JUMP JUMPDEST SWAP2 POP POP PUSH2 0x11DA JUMP JUMPDEST POP DUP1 PUSH1 0xA PUSH0 CALLER PUSH20 0xFFFFFFFFFFFFFFFFFFFFFFFFFFFFFFFFFFFFFFFF AND PUSH20 0xFFFFFFFFFFFFFFFFFFFFFFFFFFFFFFFFFFFFFFFF AND DUP2 MSTORE PUSH1 0x20 ADD SWAP1 DUP2 MSTORE PUSH1 0x20 ADD PUSH0 KECCAK256 DUP2 SWAP1 SSTORE POP PUSH1 0xA PUSH0 CALLER PUSH20 0xFFFFFFFFFFFFFFFFFFFFFFFFFFFFFFFFFFFFFFFF AND PUSH20 0xFFFFFFFFFFFFFFFFFFFFFFFFFFFFFFFFFFFFFFFF AND DUP2 MSTORE PUSH1 0x20 ADD SWAP1 DUP2 MSTORE PUSH1 0x20 ADD PUSH0 KECCAK256 SLOAD SWAP2 POP POP SWAP1 JUMP JUMPDEST PUSH0 PUSH0 PUSH0 PUSH0 SWAP1 POP JUMPDEST DUP5 DUP1 SLOAD SWAP1 POP DUP2 LT ISZERO PUSH2 0x14B5 JUMPI CALLER PUSH20 0xFFFFFFFFFFFFFFFFFFFFFFFFFFFFFFFFFFFFFFFF AND DUP6 DUP3 DUP2 SLOAD DUP2 LT PUSH2 0x145C JUMPI PUSH2 0x145B PUSH2 0x1A85 JUMP JUMPDEST JUMPDEST SWAP1 PUSH0 MSTORE PUSH1 0x20 PUSH0 KECCAK256 ADD PUSH0 SWAP1 SLOAD SWAP1 PUSH2 0x100 EXP SWAP1 DIV PUSH20 0xFFFFFFFFFFFFFFFFFFFFFFFFFFFFFFFFFFFFFFFF AND PUSH20 0xFFFFFFFFFFFFFFFFFFFFFFFFFFFFFFFFFFFFFFFF AND SUB PUSH2 0x14A8 JUMPI PUSH1 0x1 SWAP3 POP PUSH2 0x14B5 JUMP JUMPDEST DUP1 DUP1 PUSH1 0x1 ADD SWAP2 POP POP PUSH2 0x1426 JUMP JUMPDEST POP DUP2 PUSH2 0x151B JUMPI DUP4 CALLER SWAP1 DUP1 PUSH1 0x1 DUP2 SLOAD ADD DUP1 DUP3 SSTORE DUP1 SWAP2 POP POP PUSH1 0x1 SWAP1 SUB SWAP1 PUSH0 MSTORE PUSH1 0x20 PUSH0 KECCAK256 ADD PUSH0 SWAP1 SWAP2 SWAP1 SWAP2 SWAP1 SWAP2 PUSH2 0x100 EXP DUP2 SLOAD DUP2 PUSH20 0xFFFFFFFFFFFFFFFFFFFFFFFFFFFFFFFFFFFFFFFF MUL NOT AND SWAP1 DUP4 PUSH20 0xFFFFFFFFFFFFFFFFFFFFFFFFFFFFFFFFFFFFFFFF AND MUL OR SWAP1 SSTORE POP JUMPDEST PUSH0 PUSH0 SWAP1 POP JUMPDEST DUP4 DUP1 SLOAD SWAP1 POP DUP2 LT ISZERO PUSH2 0x15AF JUMPI CALLER PUSH20 0xFFFFFFFFFFFFFFFFFFFFFFFFFFFFFFFFFFFFFFFF AND DUP5 DUP3 DUP2 SLOAD DUP2 LT PUSH2 0x1556 JUMPI PUSH2 0x1555 PUSH2 0x1A85 JUMP JUMPDEST JUMPDEST SWAP1 PUSH0 MSTORE PUSH1 0x20 PUSH0 KECCAK256 ADD PUSH0 SWAP1 SLOAD SWAP1 PUSH2 0x100 EXP SWAP1 DIV PUSH20 0xFFFFFFFFFFFFFFFFFFFFFFFFFFFFFFFFFFFFFFFF AND PUSH20 0xFFFFFFFFFFFFFFFFFFFFFFFFFFFFFFFFFFFFFFFF AND SUB PUSH2 0x15A2 JUMPI PUSH1 0x1 SWAP2 POP PUSH2 0x15AF JUMP JUMPDEST DUP1 DUP1 PUSH1 0x1 ADD SWAP2 POP POP PUSH2 0x1520 JUMP JUMPDEST POP PUSH0 ISZERO ISZERO DUP3 ISZERO ISZERO EQ DUP1 ISZERO PUSH2 0x15C6 JUMPI POP PUSH0 ISZERO ISZERO DUP2 ISZERO ISZERO EQ JUMPDEST ISZERO PUSH2 0x162C JUMPI PUSH1 0x1 CALLER SWAP1 DUP1 PUSH1 0x1 DUP2 SLOAD ADD DUP1 DUP3 SSTORE DUP1 SWAP2 POP POP PUSH1 0x1 SWAP1 SUB SWAP1 PUSH0 MSTORE PUSH1 0x20 PUSH0 KECCAK256 ADD PUSH0 SWAP1 SWAP2 SWAP1 SWAP2 SWAP1 SWAP2 PUSH2 0x100 EXP DUP2 SLOAD DUP2 PUSH20 0xFFFFFFFFFFFFFFFFFFFFFFFFFFFFFFFFFFFFFFFF MUL NOT AND SWAP1 DUP4 PUSH20 0xFFFFFFFFFFFFFFFFFFFFFFFFFFFFFFFFFFFFFFFF AND MUL OR SWAP1 SSTORE POP JUMPDEST POP POP POP POP JUMP JUMPDEST PUSH0 PUSH0 REVERT JUMPDEST PUSH0 PUSH20 0xFFFFFFFFFFFFFFFFFFFFFFFFFFFFFFFFFFFFFFFF DUP3 AND SWAP1 POP SWAP2 SWAP1 POP JUMP JUMPDEST PUSH0 PUSH2 0x165F DUP3 PUSH2 0x1636 JUMP JUMPDEST SWAP1 POP SWAP2 SWAP1 POP JUMP JUMPDEST PUSH2 0x166F DUP2 PUSH2 0x1655 JUMP JUMPDEST DUP2 EQ PUSH2 0x1679 JUMPI PUSH0 PUSH0 REVERT JUMPDEST POP JUMP JUMPDEST PUSH0 DUP2 CALLDATALOAD SWAP1 POP PUSH2 0x168A DUP2 PUSH2 0x1666 JUMP JUMPDEST SWAP3 SWAP2 POP POP JUMP JUMPDEST PUSH0 DUP2 SWAP1 POP SWAP2 SWAP1 POP JUMP JUMPDEST PUSH2 0x16A2 DUP2 PUSH2 0x1690 JUMP JUMPDEST DUP2 EQ PUSH2 0x16AC JUMPI PUSH0 PUSH0 REVERT JUMPDEST POP JUMP JUMPDEST PUSH0 DUP2 CALLDATALOAD SWAP1 POP PUSH2 0x16BD DUP2 PUSH2 0x1699 JUMP JUMPDEST SWAP3 SWAP2 POP POP JUMP JUMPDEST PUSH0 PUSH0 PUSH1 0x40 DUP4 DUP6 SUB SLT ISZERO PUSH2 0x16D9 JUMPI PUSH2 0x16D8 PUSH2 0x1632 JUMP JUMPDEST JUMPDEST PUSH0 PUSH2 0x16E6 DUP6 DUP3 DUP7 ADD PUSH2 0x167C JUMP JUMPDEST SWAP3 POP POP PUSH1 0x20 PUSH2 0x16F7 DUP6 DUP3 DUP7 ADD PUSH2 0x16AF JUMP JUMPDEST SWAP2 POP POP SWAP3 POP SWAP3 SWAP1 POP JUMP JUMPDEST PUSH0 DUP2 MLOAD SWAP1 POP SWAP2 SWAP1 POP JUMP JUMPDEST PUSH0 DUP3 DUP3 MSTORE PUSH1 0x20 DUP3 ADD SWAP1 POP SWAP3 SWAP2 POP POP JUMP JUMPDEST DUP3 DUP2 DUP4 MCOPY PUSH0 DUP4 DUP4 ADD MSTORE POP POP POP JUMP JUMPDEST PUSH0 PUSH1 0x1F NOT PUSH1 0x1F DUP4 ADD AND SWAP1 POP SWAP2 SWAP1 POP JUMP JUMPDEST PUSH0 PUSH2 0x1743 DUP3 PUSH2 0x1701 JUMP JUMPDEST PUSH2 0x174D DUP2 DUP6 PUSH2 0x170B JUMP JUMPDEST SWAP4 POP PUSH2 0x175D DUP2 DUP6 PUSH1 0x20 DUP7 ADD PUSH2 0x171B JUMP JUMPDEST PUSH2 0x1766 DUP2 PUSH2 0x1729 JUMP JUMPDEST DUP5 ADD SWAP2 POP POP SWAP3 SWAP2 POP POP JUMP JUMPDEST PUSH0 DUP2 SWAP1 POP SWAP2 SWAP1 POP JUMP JUMPDEST PUSH2 0x1783 DUP2 PUSH2 0x1771 JUMP JUMPDEST DUP3 MSTORE POP POP JUMP JUMPDEST PUSH0 PUSH1 0xA0 DUP3 ADD SWAP1 POP DUP2 DUP2 SUB PUSH0 DUP4 ADD MSTORE PUSH2 0x17A1 DUP2 DUP9 PUSH2 0x1739 JUMP JUMPDEST SWAP1 POP PUSH2 0x17B0 PUSH1 0x20 DUP4 ADD DUP8 PUSH2 0x177A JUMP JUMPDEST PUSH2 0x17BD PUSH1 0x40 DUP4 ADD DUP7 PUSH2 0x177A JUMP JUMPDEST PUSH2 0x17CA PUSH1 0x60 DUP4 ADD DUP6 PUSH2 0x177A JUMP JUMPDEST PUSH2 0x17D7 PUSH1 0x80 DUP4 ADD DUP5 PUSH2 0x177A JUMP JUMPDEST SWAP7 SWAP6 POP POP POP POP POP POP JUMP JUMPDEST PUSH0 PUSH1 0x20 DUP3 DUP5 SUB SLT ISZERO PUSH2 0x17F6 JUMPI PUSH2 0x17F5 PUSH2 0x1632 JUMP JUMPDEST JUMPDEST PUSH0 PUSH2 0x1803 DUP5 DUP3 DUP6 ADD PUSH2 0x167C JUMP JUMPDEST SWAP2 POP POP SWAP3 SWAP2 POP POP JUMP JUMPDEST PUSH0 PUSH1 0x20 DUP3 ADD SWAP1 POP PUSH2 0x181F PUSH0 DUP4 ADD DUP5 PUSH2 0x177A JUMP JUMPDEST SWAP3 SWAP2 POP POP JUMP JUMPDEST PUSH2 0x182E DUP2 PUSH2 0x1771 JUMP JUMPDEST DUP2 EQ PUSH2 0x1838 JUMPI PUSH0 PUSH0 REVERT JUMPDEST POP JUMP JUMPDEST PUSH0 DUP2 CALLDATALOAD SWAP1 POP PUSH2 0x1849 DUP2 PUSH2 0x1825 JUMP JUMPDEST SWAP3 SWAP2 POP POP JUMP JUMPDEST PUSH0 PUSH1 0x20 DUP3 DUP5 SUB SLT ISZERO PUSH2 0x1864 JUMPI PUSH2 0x1863 PUSH2 0x1632 JUMP JUMPDEST JUMPDEST PUSH0 PUSH2 0x1871 DUP5 DUP3 DUP6 ADD PUSH2 0x183B JUMP JUMPDEST SWAP2 POP POP SWAP3 SWAP2 POP POP JUMP JUMPDEST PUSH0 DUP2 ISZERO ISZERO SWAP1 POP SWAP2 SWAP1 POP JUMP JUMPDEST PUSH2 0x188E DUP2 PUSH2 0x187A JUMP JUMPDEST DUP3 MSTORE POP POP JUMP JUMPDEST PUSH0 PUSH1 0x20 DUP3 ADD SWAP1 POP PUSH2 0x18A7 PUSH0 DUP4 ADD DUP5 PUSH2 0x1885 JUMP JUMPDEST SWAP3 SWAP2 POP POP JUMP JUMPDEST PUSH0 PUSH0 PUSH1 0x40 DUP4 DUP6 SUB SLT ISZERO PUSH2 0x18C3 JUMPI PUSH2 0x18C2 PUSH2 0x1632 JUMP JUMPDEST JUMPDEST PUSH0 PUSH2 0x18D0 DUP6 DUP3 DUP7 ADD PUSH2 0x183B JUMP JUMPDEST SWAP3 POP POP PUSH1 0x20 PUSH2 0x18E1 DUP6 DUP3 DUP7 ADD PUSH2 0x183B JUMP JUMPDEST SWAP2 POP POP SWAP3 POP SWAP3 SWAP1 POP JUMP JUMPDEST PUSH0 DUP2 MLOAD SWAP1 POP SWAP2 SWAP1 POP JUMP JUMPDEST PUSH0 DUP3 DUP3 MSTORE PUSH1 0x20 DUP3 ADD SWAP1 POP SWAP3 SWAP2 POP POP JUMP JUMPDEST PUSH0 DUP2 SWAP1 POP PUSH1 0x20 DUP3 ADD SWAP1 POP SWAP2 SWAP1 POP JUMP JUMPDEST PUSH2 0x191D DUP2 PUSH2 0x1655 JUMP JUMPDEST DUP3 MSTORE POP POP JUMP JUMPDEST PUSH0 PUSH2 0x192E DUP4 DUP4 PUSH2 0x1914 JUMP JUMPDEST PUSH1 0x20 DUP4 ADD SWAP1 POP SWAP3 SWAP2 POP POP JUMP JUMPDEST PUSH0 PUSH1 0x20 DUP3 ADD SWAP1 POP SWAP2 SWAP1 POP JUMP JUMPDEST PUSH0 PUSH2 0x1950 DUP3 PUSH2 0x18EB JUMP JUMPDEST PUSH2 0x195A DUP2 DUP6 PUSH2 0x18F5 JUMP JUMPDEST SWAP4 POP PUSH2 0x1965 DUP4 PUSH2 0x1905 JUMP JUMPDEST DUP1 PUSH0 JUMPDEST DUP4 DUP2 LT ISZERO PUSH2 0x1995 JUMPI DUP2 MLOAD PUSH2 0x197C DUP9 DUP3 PUSH2 0x1923 JUMP JUMPDEST SWAP8 POP PUSH2 0x1987 DUP4 PUSH2 0x193A JUMP JUMPDEST SWAP3 POP POP PUSH1 0x1 DUP2 ADD SWAP1 POP PUSH2 0x1968 JUMP JUMPDEST POP DUP6 SWAP4 POP POP POP POP SWAP3 SWAP2 POP POP JUMP JUMPDEST PUSH0 PUSH1 0x20 DUP3 ADD SWAP1 POP DUP2 DUP2 SUB PUSH0 DUP4 ADD MSTORE PUSH2 0x19BA DUP2 DUP5 PUSH2 0x1946 JUMP JUMPDEST SWAP1 POP SWAP3 SWAP2 POP POP JUMP JUMPDEST PUSH2 0x19CB DUP2 PUSH2 0x1690 JUMP JUMPDEST DUP3 MSTORE POP POP JUMP JUMPDEST PUSH0 PUSH1 0x20 DUP3 ADD SWAP1 POP PUSH2 0x19E4 PUSH0 DUP4 ADD DUP5 PUSH2 0x19C2 JUMP JUMPDEST SWAP3 SWAP2 POP POP JUMP JUMPDEST PUSH2 0x19F3 DUP2 PUSH2 0x1655 JUMP JUMPDEST DUP3 MSTORE POP POP JUMP JUMPDEST PUSH0 PUSH1 0x20 DUP3 ADD SWAP1 POP PUSH2 0x1A0C PUSH0 DUP4 ADD DUP5 PUSH2 0x19EA JUMP JUMPDEST SWAP3 SWAP2 POP POP JUMP JUMPDEST PUSH0 PUSH0 PUSH1 0x40 DUP4 DUP6 SUB SLT ISZERO PUSH2 0x1A28 JUMPI PUSH2 0x1A27 PUSH2 0x1632 JUMP JUMPDEST JUMPDEST PUSH0 PUSH2 0x1A35 DUP6 DUP3 DUP7 ADD PUSH2 0x167C JUMP JUMPDEST SWAP3 POP POP PUSH1 0x20 PUSH2 0x1A46 DUP6 DUP3 DUP7 ADD PUSH2 0x183B JUMP JUMPDEST SWAP2 POP POP SWAP3 POP SWAP3 SWAP1 POP JUMP JUMPDEST PUSH0 PUSH1 0x60 DUP3 ADD SWAP1 POP PUSH2 0x1A63 PUSH0 DUP4 ADD DUP7 PUSH2 0x177A JUMP JUMPDEST PUSH2 0x1A70 PUSH1 0x20 DUP4 ADD DUP6 PUSH2 0x177A JUMP JUMPDEST PUSH2 0x1A7D PUSH1 0x40 DUP4 ADD DUP5 PUSH2 0x177A JUMP JUMPDEST SWAP5 SWAP4 POP POP POP POP JUMP JUMPDEST PUSH32 0x4E487B7100000000000000000000000000000000000000000000000000000000 PUSH0 MSTORE PUSH1 0x32 PUSH1 0x4 MSTORE PUSH1 0x24 PUSH0 REVERT JUMPDEST PUSH32 0x4E487B7100000000000000000000000000000000000000000000000000000000 PUSH0 MSTORE PUSH1 0x11 PUSH1 0x4 MSTORE PUSH1 0x24 PUSH0 REVERT JUMPDEST PUSH0 PUSH2 0x1AE9 DUP3 PUSH2 0x1771 JUMP JUMPDEST SWAP2 POP PUSH32 0xFFFFFFFFFFFFFFFFFFFFFFFFFFFFFFFFFFFFFFFFFFFFFFFFFFFFFFFFFFFFFFFF DUP3 SUB PUSH2 0x1B1B JUMPI PUSH2 0x1B1A PUSH2 0x1AB2 JUMP JUMPDEST JUMPDEST PUSH1 0x1 DUP3 ADD SWAP1 POP SWAP2 SWAP1 POP JUMP JUMPDEST PUSH0 DUP2 SWAP1 POP SWAP3 SWAP2 POP POP JUMP JUMPDEST POP JUMP JUMPDEST PUSH0 PUSH2 0x1B3E PUSH0 DUP4 PUSH2 0x1B26 JUMP JUMPDEST SWAP2 POP PUSH2 0x1B49 DUP3 PUSH2 0x1B30 JUMP JUMPDEST PUSH0 DUP3 ADD SWAP1 POP SWAP2 SWAP1 POP JUMP JUMPDEST PUSH0 PUSH2 0x1B5D DUP3 PUSH2 0x1B33 JUMP JUMPDEST SWAP2 POP DUP2 SWAP1 POP SWAP2 SWAP1 POP JUMP JUMPDEST PUSH32 0x5472616E73616374696F6E206661696C65640000000000000000000000000000 PUSH0 DUP3 ADD MSTORE POP JUMP JUMPDEST PUSH0 PUSH2 0x1B9B PUSH1 0x12 DUP4 PUSH2 0x170B JUMP JUMPDEST SWAP2 POP PUSH2 0x1BA6 DUP3 PUSH2 0x1B67 JUMP JUMPDEST PUSH1 0x20 DUP3 ADD SWAP1 POP SWAP2 SWAP1 POP JUMP JUMPDEST PUSH0 PUSH1 0x20 DUP3 ADD SWAP1 POP DUP2 DUP2 SUB PUSH0 DUP4 ADD MSTORE PUSH2 0x1BC8 DUP2 PUSH2 0x1B8F JUMP JUMPDEST SWAP1 POP SWAP2 SWAP1 POP JUMP JUMPDEST PUSH32 0x4E487B7100000000000000000000000000000000000000000000000000000000 PUSH0 MSTORE PUSH1 0x22 PUSH1 0x4 MSTORE PUSH1 0x24 PUSH0 REVERT JUMPDEST PUSH0 PUSH1 0x2 DUP3 DIV SWAP1 POP PUSH1 0x1 DUP3 AND DUP1 PUSH2 0x1C13 JUMPI PUSH1 0x7F DUP3 AND SWAP2 POP JUMPDEST PUSH1 0x20 DUP3 LT DUP2 SUB PUSH2 0x1C26 JUMPI PUSH2 0x1C25 PUSH2 0x1BCF JUMP JUMPDEST JUMPDEST POP SWAP2 SWAP1 POP JUMP JUMPDEST PUSH32 0x4578636564656564206D6178696D756D20776974686472617700000000000000 PUSH0 DUP3 ADD MSTORE POP JUMP JUMPDEST PUSH0 PUSH2 0x1C60 PUSH1 0x19 DUP4 PUSH2 0x170B JUMP JUMPDEST SWAP2 POP PUSH2 0x1C6B DUP3 PUSH2 0x1C2C JUMP JUMPDEST PUSH1 0x20 DUP3 ADD SWAP1 POP SWAP2 SWAP1 POP JUMP JUMPDEST PUSH0 PUSH1 0x20 DUP3 ADD SWAP1 POP DUP2 DUP2 SUB PUSH0 DUP4 ADD MSTORE PUSH2 0x1C8D DUP2 PUSH2 0x1C54 JUMP JUMPDEST SWAP1 POP SWAP2 SWAP1 POP JUMP JUMPDEST PUSH0 PUSH2 0x1C9E DUP3 PUSH2 0x1771 JUMP JUMPDEST SWAP2 POP PUSH2 0x1CA9 DUP4 PUSH2 0x1771 JUMP JUMPDEST SWAP3 POP DUP3 DUP3 SUB SWAP1 POP DUP2 DUP2 GT ISZERO PUSH2 0x1CC1 JUMPI PUSH2 0x1CC0 PUSH2 0x1AB2 JUMP JUMPDEST JUMPDEST SWAP3 SWAP2 POP POP JUMP JUMPDEST PUSH32 0x4E6F7420656E6F7567682066756E647320696E206465706F7369747320746F20 PUSH0 DUP3 ADD MSTORE PUSH32 0x636F766572207769746864726177616C00000000000000000000000000000000 PUSH1 0x20 DUP3 ADD MSTORE POP JUMP JUMPDEST PUSH0 PUSH2 0x1D21 PUSH1 0x30 DUP4 PUSH2 0x170B JUMP JUMPDEST SWAP2 POP PUSH2 0x1D2C DUP3 PUSH2 0x1CC7 JUMP JUMPDEST PUSH1 0x40 DUP3 ADD SWAP1 POP SWAP2 SWAP1 POP JUMP JUMPDEST PUSH0 PUSH1 0x20 DUP3 ADD SWAP1 POP DUP2 DUP2 SUB PUSH0 DUP4 ADD MSTORE PUSH2 0x1D4E DUP2 PUSH2 0x1D15 JUMP JUMPDEST SWAP1 POP SWAP2 SWAP1 POP JUMP JUMPDEST PUSH0 PUSH1 0x60 DUP3 ADD SWAP1 POP PUSH2 0x1D68 PUSH0 DUP4 ADD DUP7 PUSH2 0x19EA JUMP JUMPDEST PUSH2 0x1D75 PUSH1 0x20 DUP4 ADD DUP6 PUSH2 0x177A JUMP JUMPDEST PUSH2 0x1D82 PUSH1 0x40 DUP4 ADD DUP5 PUSH2 0x177A JUMP JUMPDEST SWAP5 SWAP4 POP POP POP POP JUMP JUMPDEST PUSH32 0x496E76616C6964207765656B206E756D62657200000000000000000000000000 PUSH0 DUP3 ADD MSTORE POP JUMP JUMPDEST PUSH0 PUSH2 0x1DBE PUSH1 0x13 DUP4 PUSH2 0x170B JUMP JUMPDEST SWAP2 POP PUSH2 0x1DC9 DUP3 PUSH2 0x1D8A JUMP JUMPDEST PUSH1 0x20 DUP3 ADD SWAP1 POP SWAP2 SWAP1 POP JUMP JUMPDEST PUSH0 PUSH1 0x20 DUP3 ADD SWAP1 POP DUP2 DUP2 SUB PUSH0 DUP4 ADD MSTORE PUSH2 0x1DEB DUP2 PUSH2 0x1DB2 JUMP JUMPDEST SWAP1 POP SWAP2 SWAP1 POP JUMP JUMPDEST PUSH32 0x4D696E6D756D20626F72726F7720697320302E32204574680000000000000000 PUSH0 DUP3 ADD MSTORE POP JUMP JUMPDEST PUSH0 PUSH2 0x1E26 PUSH1 0x18 DUP4 PUSH2 0x170B JUMP JUMPDEST SWAP2 POP PUSH2 0x1E31 DUP3 PUSH2 0x1DF2 JUMP JUMPDEST PUSH1 0x20 DUP3 ADD SWAP1 POP SWAP2 SWAP1 POP JUMP JUMPDEST PUSH0 PUSH1 0x20 DUP3 ADD SWAP1 POP DUP2 DUP2 SUB PUSH0 DUP4 ADD MSTORE PUSH2 0x1E53 DUP2 PUSH2 0x1E1A JUMP JUMPDEST SWAP1 POP SWAP2 SWAP1 POP JUMP JUMPDEST PUSH0 PUSH2 0x1E64 DUP3 PUSH2 0x1690 JUMP JUMPDEST SWAP2 POP PUSH32 0x7FFFFFFFFFFFFFFFFFFFFFFFFFFFFFFFFFFFFFFFFFFFFFFFFFFFFFFFFFFFFFFF DUP3 SUB PUSH2 0x1E96 JUMPI PUSH2 0x1E95 PUSH2 0x1AB2 JUMP JUMPDEST JUMPDEST PUSH1 0x1 DUP3 ADD SWAP1 POP SWAP2 SWAP1 POP JUMP JUMPDEST PUSH0 PUSH2 0x1EAB DUP3 PUSH2 0x1771 JUMP JUMPDEST SWAP2 POP PUSH2 0x1EB6 DUP4 PUSH2 0x1771 JUMP JUMPDEST SWAP3 POP DUP3 DUP3 MUL PUSH2 0x1EC4 DUP2 PUSH2 0x1771 JUMP JUMPDEST SWAP2 POP DUP3 DUP3 DIV DUP5 EQ DUP4 ISZERO OR PUSH2 0x1EDB JUMPI PUSH2 0x1EDA PUSH2 0x1AB2 JUMP JUMPDEST JUMPDEST POP SWAP3 SWAP2 POP POP JUMP JUMPDEST PUSH0 PUSH2 0x1EEC DUP3 PUSH2 0x1771 JUMP JUMPDEST SWAP2 POP PUSH2 0x1EF7 DUP4 PUSH2 0x1771 JUMP JUMPDEST SWAP3 POP DUP3 DUP3 ADD SWAP1 POP DUP1 DUP3 GT ISZERO PUSH2 0x1F0F JUMPI PUSH2 0x1F0E PUSH2 0x1AB2 JUMP JUMPDEST JUMPDEST SWAP3 SWAP2 POP POP JUMP JUMPDEST PUSH32 0x4E487B7100000000000000000000000000000000000000000000000000000000 PUSH0 MSTORE PUSH1 0x12 PUSH1 0x4 MSTORE PUSH1 0x24 PUSH0 REVERT JUMPDEST PUSH0 PUSH2 0x1F4C DUP3 PUSH2 0x1771 JUMP JUMPDEST SWAP2 POP PUSH2 0x1F57 DUP4 PUSH2 0x1771 JUMP JUMPDEST SWAP3 POP DUP3 PUSH2 0x1F67 JUMPI PUSH2 0x1F66 PUSH2 0x1F15 JUMP JUMPDEST JUMPDEST DUP3 DUP3 DIV SWAP1 POP SWAP3 SWAP2 POP POP JUMP JUMPDEST PUSH32 0x4E487B7100000000000000000000000000000000000000000000000000000000 PUSH0 MSTORE PUSH1 0x41 PUSH1 0x4 MSTORE PUSH1 0x24 PUSH0 REVERT JUMPDEST PUSH0 DUP2 SWAP1 POP DUP2 PUSH0 MSTORE PUSH1 0x20 PUSH0 KECCAK256 SWAP1 POP SWAP2 SWAP1 POP JUMP JUMPDEST PUSH0 PUSH1 0x20 PUSH1 0x1F DUP4 ADD DIV SWAP1 POP SWAP2 SWAP1 POP JUMP JUMPDEST PUSH0 DUP3 DUP3 SHL SWAP1 POP SWAP3 SWAP2 POP POP JUMP JUMPDEST PUSH0 PUSH1 0x8 DUP4 MUL PUSH2 0x1FFB PUSH32 0xFFFFFFFFFFFFFFFFFFFFFFFFFFFFFFFFFFFFFFFFFFFFFFFFFFFFFFFFFFFFFFFF DUP3 PUSH2 0x1FC0 JUMP JUMPDEST PUSH2 0x2005 DUP7 DUP4 PUSH2 0x1FC0 JUMP JUMPDEST SWAP6 POP DUP1 NOT DUP5 AND SWAP4 POP DUP1 DUP7 AND DUP5 OR SWAP3 POP POP POP SWAP4 SWAP3 POP POP POP JUMP JUMPDEST PUSH0 DUP2 SWAP1 POP SWAP2 SWAP1 POP JUMP JUMPDEST PUSH0 PUSH2 0x2040 PUSH2 0x203B PUSH2 0x2036 DUP5 PUSH2 0x1771 JUMP JUMPDEST PUSH2 0x201D JUMP JUMPDEST PUSH2 0x1771 JUMP JUMPDEST SWAP1 POP SWAP2 SWAP1 POP JUMP JUMPDEST PUSH0 DUP2 SWAP1 POP SWAP2 SWAP1 POP JUMP JUMPDEST PUSH2 0x2059 DUP4 PUSH2 0x2026 JUMP JUMPDEST PUSH2 0x206D PUSH2 0x2065 DUP3 PUSH2 0x2047 JUMP JUMPDEST DUP5 DUP5 SLOAD PUSH2 0x1FCC JUMP JUMPDEST DUP3 SSTORE POP POP POP POP JUMP JUMPDEST PUSH0 PUSH0 SWAP1 POP SWAP1 JUMP JUMPDEST PUSH2 0x2084 PUSH2 0x2075 JUMP JUMPDEST PUSH2 0x208F DUP2 DUP5 DUP5 PUSH2 0x2050 JUMP JUMPDEST POP POP POP JUMP JUMPDEST JUMPDEST DUP2 DUP2 LT ISZERO PUSH2 0x20B2 JUMPI PUSH2 0x20A7 PUSH0 DUP3 PUSH2 0x207C JUMP JUMPDEST PUSH1 0x1 DUP2 ADD SWAP1 POP PUSH2 0x2095 JUMP JUMPDEST POP POP JUMP JUMPDEST PUSH1 0x1F DUP3 GT ISZERO PUSH2 0x20F7 JUMPI PUSH2 0x20C8 DUP2 PUSH2 0x1F9F JUMP JUMPDEST PUSH2 0x20D1 DUP5 PUSH2 0x1FB1 JUMP JUMPDEST DUP2 ADD PUSH1 0x20 DUP6 LT ISZERO PUSH2 0x20E0 JUMPI DUP2 SWAP1 POP JUMPDEST PUSH2 0x20F4 PUSH2 0x20EC DUP6 PUSH2 0x1FB1 JUMP JUMPDEST DUP4 ADD DUP3 PUSH2 0x2094 JUMP JUMPDEST POP POP JUMPDEST POP POP POP JUMP JUMPDEST PUSH0 DUP3 DUP3 SHR SWAP1 POP SWAP3 SWAP2 POP POP JUMP JUMPDEST PUSH0 PUSH2 0x2117 PUSH0 NOT DUP5 PUSH1 0x8 MUL PUSH2 0x20FC JUMP JUMPDEST NOT DUP1 DUP4 AND SWAP2 POP POP SWAP3 SWAP2 POP POP JUMP JUMPDEST PUSH0 PUSH2 0x212F DUP4 DUP4 PUSH2 0x2108 JUMP JUMPDEST SWAP2 POP DUP3 PUSH1 0x2 MUL DUP3 OR SWAP1 POP SWAP3 SWAP2 POP POP JUMP JUMPDEST PUSH2 0x2148 DUP3 PUSH2 0x1701 JUMP JUMPDEST PUSH8 0xFFFFFFFFFFFFFFFF DUP2 GT ISZERO PUSH2 0x2161 JUMPI PUSH2 0x2160 PUSH2 0x1F72 JUMP JUMPDEST JUMPDEST PUSH2 0x216B DUP3 SLOAD PUSH2 0x1BFC JUMP JUMPDEST PUSH2 0x2176 DUP3 DUP3 DUP6 PUSH2 0x20B6 JUMP JUMPDEST PUSH0 PUSH1 0x20 SWAP1 POP PUSH1 0x1F DUP4 GT PUSH1 0x1 DUP2 EQ PUSH2 0x21A7 JUMPI PUSH0 DUP5 ISZERO PUSH2 0x2195 JUMPI DUP3 DUP8 ADD MLOAD SWAP1 POP JUMPDEST PUSH2 0x219F DUP6 DUP3 PUSH2 0x2124 JUMP JUMPDEST DUP7 SSTORE POP PUSH2 0x2206 JUMP JUMPDEST PUSH1 0x1F NOT DUP5 AND PUSH2 0x21B5 DUP7 PUSH2 0x1F9F JUMP JUMPDEST PUSH0 JUMPDEST DUP3 DUP2 LT ISZERO PUSH2 0x21DC JUMPI DUP5 DUP10 ADD MLOAD DUP3 SSTORE PUSH1 0x1 DUP3 ADD SWAP2 POP PUSH1 0x20 DUP6 ADD SWAP5 POP PUSH1 0x20 DUP2 ADD SWAP1 POP PUSH2 0x21B7 JUMP JUMPDEST DUP7 DUP4 LT ISZERO PUSH2 0x21F9 JUMPI DUP5 DUP10 ADD MLOAD PUSH2 0x21F5 PUSH1 0x1F DUP10 AND DUP3 PUSH2 0x2108 JUMP JUMPDEST DUP4 SSTORE POP JUMPDEST PUSH1 0x1 PUSH1 0x2 DUP9 MUL ADD DUP9 SSTORE POP POP POP JUMPDEST POP POP POP POP POP POP JUMP JUMPDEST PUSH32 0x4D696E6D756D20626F72726F7720697320302E31204574680000000000000000 PUSH0 DUP3 ADD MSTORE POP JUMP JUMPDEST PUSH0 PUSH2 0x2242 PUSH1 0x18 DUP4 PUSH2 0x170B JUMP JUMPDEST SWAP2 POP PUSH2 0x224D DUP3 PUSH2 0x220E JUMP JUMPDEST PUSH1 0x20 DUP3 ADD SWAP1 POP SWAP2 SWAP1 POP JUMP JUMPDEST PUSH0 PUSH1 0x20 DUP3 ADD SWAP1 POP DUP2 DUP2 SUB PUSH0 DUP4 ADD MSTORE PUSH2 0x226F DUP2 PUSH2 0x2236 JUMP JUMPDEST SWAP1 POP SWAP2 SWAP1 POP JUMP INVALID LOG2 PUSH5 0x6970667358 0x22 SLT KECCAK256 0xD6 CREATE SSTORE ADDMOD SWAP8 0x2F 0xAC SGT CALL DUP12 0xD5 0xAC 0xBF DUP10 SGT RJUMPI 0x1993 PUSH10 0xB3B5161D19EBC2C112B0 NOT PUSH10 0x8364736F6C634300081E STOP CALLER "
				},
				"gasEstimates": {
					"creation": {
						"codeDepositCost": "1775200",
						"executionCost": "48237",
						"totalCost": "1823437"
					},
					"external": {
						"Borrower(address,int256)": "infinite",
						"Lender(address,uint256)": "infinite",
						"borrowCount(address)": "2847",
						"borrowersCounter()": "2513",
						"getContractBalance()": "357",
						"getUserBorrowerList()": "infinite",
						"getUserLendersList()": "infinite",
						"interestMatured(address)": "2870",
						"isAddressActive(address)": "2856",
						"lend()": "infinite",
						"lendAPY()": "2536",
						"lendersCounter()": "2447",
						"netPosition(address)": "2868",
						"openBorrow(uint256,uint256)": "infinite",
						"owner()": "2574",
						"updateInterestMatured()": "infinite",
						"withdraw(uint256)": "infinite",
						"withdrawInterest()": "infinite"
					},
					"internal": {
						"calculateInterestMatured()": "infinite",
						"checkCategoryRegistration(address[] storage pointer,address[] storage pointer)": "infinite"
					}
				},
				"methodIdentifiers": {
					"Borrower(address,int256)": "11c6bf8f",
					"Lender(address,uint256)": "ff6d4f73",
					"borrowCount(address)": "71604909",
					"borrowersCounter()": "ddd899a1",
					"getContractBalance()": "6f9fb98a",
					"getUserBorrowerList()": "3e86e213",
					"getUserLendersList()": "d6020811",
					"interestMatured(address)": "26a39c07",
					"isAddressActive(address)": "2f1158f7",
					"lend()": "97dffc61",
					"lendAPY()": "65ad976e",
					"lendersCounter()": "cb50bb74",
					"netPosition(address)": "dce8e848",
					"openBorrow(uint256,uint256)": "33d5281f",
					"owner()": "8da5cb5b",
					"updateInterestMatured()": "392f6356",
					"withdraw(uint256)": "2e1a7d4d",
					"withdrawInterest()": "0063750c"
				}
			},
			"storageLayout": {
				"storage": [
					{
						"astId": 3,
						"contract": "LoadManager.sol:LoanManager",
						"label": "owner",
						"offset": 0,
						"slot": "0",
						"type": "t_address"
					},
					{
						"astId": 6,
						"contract": "LoadManager.sol:LoanManager",
						"label": "userAddressList",
						"offset": 0,
						"slot": "1",
						"type": "t_array(t_address)dyn_storage"
					},
					{
						"astId": 9,
						"contract": "LoadManager.sol:LoanManager",
						"label": "userBorrowersList",
						"offset": 0,
						"slot": "2",
						"type": "t_array(t_address)dyn_storage"
					},
					{
						"astId": 12,
						"contract": "LoadManager.sol:LoanManager",
						"label": "userLendersList",
						"offset": 0,
						"slot": "3",
						"type": "t_array(t_address)dyn_storage"
					},
					{
						"astId": 14,
						"contract": "LoadManager.sol:LoanManager",
						"label": "borrowersCounter",
						"offset": 0,
						"slot": "4",
						"type": "t_uint256"
					},
					{
						"astId": 16,
						"contract": "LoadManager.sol:LoanManager",
						"label": "lendersCounter",
						"offset": 0,
						"slot": "5",
						"type": "t_uint256"
					},
					{
						"astId": 19,
						"contract": "LoadManager.sol:LoanManager",
						"label": "lendAPY",
						"offset": 0,
						"slot": "6",
						"type": "t_uint256"
					},
					{
						"astId": 56,
						"contract": "LoadManager.sol:LoanManager",
						"label": "Borrower",
						"offset": 0,
						"slot": "7",
						"type": "t_mapping(t_address,t_mapping(t_int256,t_struct(borrowInfo)42_storage))"
					},
					{
						"astId": 60,
						"contract": "LoadManager.sol:LoanManager",
						"label": "borrowCount",
						"offset": 0,
						"slot": "8",
						"type": "t_mapping(t_address,t_int256)"
					},
					{
						"astId": 66,
						"contract": "LoadManager.sol:LoanManager",
						"label": "Lender",
						"offset": 0,
						"slot": "9",
						"type": "t_mapping(t_address,t_array(t_struct(lendInfo)49_storage)dyn_storage)"
					},
					{
						"astId": 70,
						"contract": "LoadManager.sol:LoanManager",
						"label": "interestMatured",
						"offset": 0,
						"slot": "10",
						"type": "t_mapping(t_address,t_uint256)"
					},
					{
						"astId": 74,
						"contract": "LoadManager.sol:LoanManager",
						"label": "netPosition",
						"offset": 0,
						"slot": "11",
						"type": "t_mapping(t_address,t_uint256)"
					},
					{
						"astId": 78,
						"contract": "LoadManager.sol:LoanManager",
						"label": "isAddressActive",
						"offset": 0,
						"slot": "12",
						"type": "t_mapping(t_address,t_bool)"
					}
				],
				"types": {
					"t_address": {
						"encoding": "inplace",
						"label": "address",
						"numberOfBytes": "20"
					},
					"t_array(t_address)dyn_storage": {
						"base": "t_address",
						"encoding": "dynamic_array",
						"label": "address[]",
						"numberOfBytes": "32"
					},
					"t_array(t_struct(lendInfo)49_storage)dyn_storage": {
						"base": "t_struct(lendInfo)49_storage",
						"encoding": "dynamic_array",
						"label": "struct LoanManager.lendInfo[]",
						"numberOfBytes": "32"
					},
					"t_bool": {
						"encoding": "inplace",
						"label": "bool",
						"numberOfBytes": "1"
					},
					"t_int256": {
						"encoding": "inplace",
						"label": "int256",
						"numberOfBytes": "32"
					},
					"t_mapping(t_address,t_array(t_struct(lendInfo)49_storage)dyn_storage)": {
						"encoding": "mapping",
						"key": "t_address",
						"label": "mapping(address => struct LoanManager.lendInfo[])",
						"numberOfBytes": "32",
						"value": "t_array(t_struct(lendInfo)49_storage)dyn_storage"
					},
					"t_mapping(t_address,t_bool)": {
						"encoding": "mapping",
						"key": "t_address",
						"label": "mapping(address => bool)",
						"numberOfBytes": "32",
						"value": "t_bool"
					},
					"t_mapping(t_address,t_int256)": {
						"encoding": "mapping",
						"key": "t_address",
						"label": "mapping(address => int256)",
						"numberOfBytes": "32",
						"value": "t_int256"
					},
					"t_mapping(t_address,t_mapping(t_int256,t_struct(borrowInfo)42_storage))": {
						"encoding": "mapping",
						"key": "t_address",
						"label": "mapping(address => mapping(int256 => struct LoanManager.borrowInfo))",
						"numberOfBytes": "32",
						"value": "t_mapping(t_int256,t_struct(borrowInfo)42_storage)"
					},
					"t_mapping(t_address,t_uint256)": {
						"encoding": "mapping",
						"key": "t_address",
						"label": "mapping(address => uint256)",
						"numberOfBytes": "32",
						"value": "t_uint256"
					},
					"t_mapping(t_int256,t_struct(borrowInfo)42_storage)": {
						"encoding": "mapping",
						"key": "t_int256",
						"label": "mapping(int256 => struct LoanManager.borrowInfo)",
						"numberOfBytes": "32",
						"value": "t_struct(borrowInfo)42_storage"
					},
					"t_string_storage": {
						"encoding": "bytes",
						"label": "string",
						"numberOfBytes": "32"
					},
					"t_struct(borrowInfo)42_storage": {
						"encoding": "inplace",
						"label": "struct LoanManager.borrowInfo",
						"members": [
							{
								"astId": 33,
								"contract": "LoadManager.sol:LoanManager",
								"label": "state",
								"offset": 0,
								"slot": "0",
								"type": "t_string_storage"
							},
							{
								"astId": 35,
								"contract": "LoadManager.sol:LoanManager",
								"label": "dueDate",
								"offset": 0,
								"slot": "1",
								"type": "t_uint256"
							},
							{
								"astId": 37,
								"contract": "LoadManager.sol:LoanManager",
								"label": "APY",
								"offset": 0,
								"slot": "2",
								"type": "t_uint256"
							},
							{
								"astId": 39,
								"contract": "LoadManager.sol:LoanManager",
								"label": "borrowAmount",
								"offset": 0,
								"slot": "3",
								"type": "t_uint256"
							},
							{
								"astId": 41,
								"contract": "LoadManager.sol:LoanManager",
								"label": "paybackAmount",
								"offset": 0,
								"slot": "4",
								"type": "t_uint256"
							}
						],
						"numberOfBytes": "160"
					},
					"t_struct(lendInfo)49_storage": {
						"encoding": "inplace",
						"label": "struct LoanManager.lendInfo",
						"members": [
							{
								"astId": 44,
								"contract": "LoadManager.sol:LoanManager",
								"label": "lendId",
								"offset": 0,
								"slot": "0",
								"type": "t_uint256"
							},
							{
								"astId": 46,
								"contract": "LoadManager.sol:LoanManager",
								"label": "depositTime",
								"offset": 0,
								"slot": "1",
								"type": "t_uint256"
							},
							{
								"astId": 48,
								"contract": "LoadManager.sol:LoanManager",
								"label": "amount",
								"offset": 0,
								"slot": "2",
								"type": "t_uint256"
							}
						],
						"numberOfBytes": "96"
					},
					"t_uint256": {
						"encoding": "inplace",
						"label": "uint256",
						"numberOfBytes": "32"
					}
				}
			},
			"userdoc": {
				"kind": "user",
				"methods": {},
				"version": 1
			}
		}
	}
}