{
	"LoadManager.sol": {
		"LoanManager": {
			"abi": [
				{
					"inputs": [],
					"stateMutability": "nonpayable",
					"type": "constructor"
				},
				{
					"anonymous": false,
					"inputs": [
						{
							"indexed": false,
							"internalType": "address",
							"name": "who",
							"type": "address"
						},
						{
							"indexed": false,
							"internalType": "uint256",
							"name": "howmuch",
							"type": "uint256"
						},
						{
							"indexed": false,
							"internalType": "uint256",
							"name": "when",
							"type": "uint256"
						},
						{
							"indexed": false,
							"internalType": "uint256",
							"name": "initialBorrow",
							"type": "uint256"
						}
					],
					"name": "borrowRepaid",
					"type": "event"
				},
				{
					"anonymous": false,
					"inputs": [
						{
							"indexed": false,
							"internalType": "address",
							"name": "who",
							"type": "address"
						},
						{
							"indexed": false,
							"internalType": "uint256",
							"name": "howMuch",
							"type": "uint256"
						},
						{
							"indexed": false,
							"internalType": "uint256",
							"name": "when",
							"type": "uint256"
						}
					],
					"name": "lendDone",
					"type": "event"
				},
				{
					"anonymous": false,
					"inputs": [
						{
							"indexed": false,
							"internalType": "address",
							"name": "who",
							"type": "address"
						},
						{
							"indexed": false,
							"internalType": "uint256",
							"name": "howMuch",
							"type": "uint256"
						},
						{
							"indexed": false,
							"internalType": "uint256",
							"name": "when",
							"type": "uint256"
						}
					],
					"name": "withdrawDone",
					"type": "event"
				},
				{
					"inputs": [
						{
							"internalType": "address",
							"name": "",
							"type": "address"
						},
						{
							"internalType": "uint256",
							"name": "",
							"type": "uint256"
						}
					],
					"name": "Borrower",
					"outputs": [
						{
							"internalType": "uint256",
							"name": "startDate",
							"type": "uint256"
						},
						{
							"internalType": "uint256",
							"name": "endDate",
							"type": "uint256"
						},
						{
							"internalType": "uint256",
							"name": "borrowId",
							"type": "uint256"
						},
						{
							"internalType": "string",
							"name": "state",
							"type": "string"
						},
						{
							"internalType": "uint256",
							"name": "dueDate",
							"type": "uint256"
						},
						{
							"internalType": "uint256",
							"name": "APY",
							"type": "uint256"
						},
						{
							"internalType": "uint256",
							"name": "borrowAmount",
							"type": "uint256"
						},
						{
							"internalType": "uint256",
							"name": "paybackAmount",
							"type": "uint256"
						}
					],
					"stateMutability": "view",
					"type": "function"
				},
				{
					"inputs": [
						{
							"internalType": "address",
							"name": "",
							"type": "address"
						},
						{
							"internalType": "uint256",
							"name": "",
							"type": "uint256"
						}
					],
					"name": "Lender",
					"outputs": [
						{
							"internalType": "uint256",
							"name": "lendId",
							"type": "uint256"
						},
						{
							"internalType": "uint256",
							"name": "depositTime",
							"type": "uint256"
						},
						{
							"internalType": "uint256",
							"name": "amount",
							"type": "uint256"
						}
					],
					"stateMutability": "view",
					"type": "function"
				},
				{
					"inputs": [
						{
							"internalType": "address",
							"name": "",
							"type": "address"
						}
					],
					"name": "borrowCount",
					"outputs": [
						{
							"internalType": "int256",
							"name": "",
							"type": "int256"
						}
					],
					"stateMutability": "view",
					"type": "function"
				},
				{
					"inputs": [],
					"name": "borrowersCounter",
					"outputs": [
						{
							"internalType": "uint256",
							"name": "",
							"type": "uint256"
						}
					],
					"stateMutability": "view",
					"type": "function"
				},
				{
					"inputs": [],
					"name": "getContractBalance",
					"outputs": [
						{
							"internalType": "uint256",
							"name": "",
							"type": "uint256"
						}
					],
					"stateMutability": "view",
					"type": "function"
				},
				{
					"inputs": [],
					"name": "getUserBorrowerList",
					"outputs": [
						{
							"internalType": "address[]",
							"name": "",
							"type": "address[]"
						}
					],
					"stateMutability": "view",
					"type": "function"
				},
				{
					"inputs": [],
					"name": "getUserLendersList",
					"outputs": [
						{
							"internalType": "address[]",
							"name": "",
							"type": "address[]"
						}
					],
					"stateMutability": "view",
					"type": "function"
				},
				{
					"inputs": [
						{
							"internalType": "address",
							"name": "",
							"type": "address"
						}
					],
					"name": "interestMatured",
					"outputs": [
						{
							"internalType": "uint256",
							"name": "",
							"type": "uint256"
						}
					],
					"stateMutability": "view",
					"type": "function"
				},
				{
					"inputs": [],
					"name": "lend",
					"outputs": [],
					"stateMutability": "payable",
					"type": "function"
				},
				{
					"inputs": [],
					"name": "lendAPY",
					"outputs": [
						{
							"internalType": "uint256",
							"name": "",
							"type": "uint256"
						}
					],
					"stateMutability": "view",
					"type": "function"
				},
				{
					"inputs": [],
					"name": "lendersCounter",
					"outputs": [
						{
							"internalType": "uint256",
							"name": "",
							"type": "uint256"
						}
					],
					"stateMutability": "view",
					"type": "function"
				},
				{
					"inputs": [
						{
							"internalType": "address",
							"name": "",
							"type": "address"
						}
					],
					"name": "netPosition",
					"outputs": [
						{
							"internalType": "uint256",
							"name": "",
							"type": "uint256"
						}
					],
					"stateMutability": "view",
					"type": "function"
				},
				{
					"inputs": [
						{
							"internalType": "uint256",
							"name": "_weeks",
							"type": "uint256"
						},
						{
							"internalType": "uint256",
							"name": "amount",
							"type": "uint256"
						}
					],
					"name": "openBorrow",
					"outputs": [],
					"stateMutability": "payable",
					"type": "function"
				},
				{
					"inputs": [],
					"name": "owner",
					"outputs": [
						{
							"internalType": "address",
							"name": "",
							"type": "address"
						}
					],
					"stateMutability": "view",
					"type": "function"
				},
				{
					"inputs": [
						{
							"internalType": "uint256",
							"name": "borrowNumber",
							"type": "uint256"
						}
					],
					"name": "payBorrow",
					"outputs": [],
					"stateMutability": "payable",
					"type": "function"
				},
				{
					"inputs": [],
					"name": "penalty",
					"outputs": [
						{
							"internalType": "uint256",
							"name": "",
							"type": "uint256"
						}
					],
					"stateMutability": "view",
					"type": "function"
				},
				{
					"inputs": [],
					"name": "updateInterestMatured",
					"outputs": [
						{
							"internalType": "uint256",
							"name": "",
							"type": "uint256"
						}
					],
					"stateMutability": "nonpayable",
					"type": "function"
				},
				{
					"inputs": [
						{
							"internalType": "uint256",
							"name": "amount",
							"type": "uint256"
						}
					],
					"name": "withdraw",
					"outputs": [],
					"stateMutability": "nonpayable",
					"type": "function"
				},
				{
					"inputs": [],
					"name": "withdrawInterest",
					"outputs": [],
					"stateMutability": "nonpayable",
					"type": "function"
				}
			],
			"devdoc": {
				"kind": "dev",
				"methods": {},
				"version": 1
			},
			"evm": {
				"assembly": "    /* \"LoadManager.sol\":1382:10094  contract LoanManager {... */\n  mstore(0x40, 0x80)\n    /* \"LoadManager.sol\":1762:1763  3 */\n  0x03\n    /* \"LoadManager.sol\":1737:1763  uint256 public lendAPY = 3 */\n  0x06\n  sstore\n    /* \"LoadManager.sol\":1794:1796  25 */\n  0x19\n    /* \"LoadManager.sol\":1769:1796  uint256 public penalty = 25 */\n  0x07\n  sstore\n    /* \"LoadManager.sol\":2290:2335  constructor() {... */\n  callvalue\n  dup1\n  iszero\n  tag_1\n  jumpi\n  revert(0x00, 0x00)\ntag_1:\n  pop\n    /* \"LoadManager.sol\":2319:2329  msg.sender */\n  caller\n    /* \"LoadManager.sol\":2311:2316  owner */\n  0x00\n  0x00\n    /* \"LoadManager.sol\":2311:2329  owner = msg.sender */\n  0x0100\n  exp\n  dup2\n  sload\n  dup2\n  0xffffffffffffffffffffffffffffffffffffffff\n  mul\n  not\n  and\n  swap1\n  dup4\n  0xffffffffffffffffffffffffffffffffffffffff\n  and\n  mul\n  or\n  swap1\n  sstore\n  pop\n    /* \"LoadManager.sol\":1382:10094  contract LoanManager {... */\n  dataSize(sub_0)\n  dup1\n  dataOffset(sub_0)\n  0x00\n  codecopy\n  0x00\n  return\nstop\n\nsub_0: assembly {\n        /* \"LoadManager.sol\":1382:10094  contract LoanManager {... */\n      mstore(0x40, 0x80)\n      jumpi(tag_1, lt(calldatasize, 0x04))\n      shr(0xe0, calldataload(0x00))\n      dup1\n      0x71604909\n      gt\n      tag_21\n      jumpi\n      dup1\n      0xd6020811\n      gt\n      tag_22\n      jumpi\n      dup1\n      0xd6020811\n      eq\n      tag_16\n      jumpi\n      dup1\n      0xdce8e848\n      eq\n      tag_17\n      jumpi\n      dup1\n      0xddd899a1\n      eq\n      tag_18\n      jumpi\n      dup1\n      0xf5d1b7e8\n      eq\n      tag_19\n      jumpi\n      dup1\n      0xff6d4f73\n      eq\n      tag_20\n      jumpi\n      jump(tag_1)\n    tag_22:\n      dup1\n      0x71604909\n      eq\n      tag_11\n      jumpi\n      dup1\n      0x8da5cb5b\n      eq\n      tag_12\n      jumpi\n      dup1\n      0x97dffc61\n      eq\n      tag_13\n      jumpi\n      dup1\n      0x99c8fbf6\n      eq\n      tag_14\n      jumpi\n      dup1\n      0xcb50bb74\n      eq\n      tag_15\n      jumpi\n      jump(tag_1)\n    tag_21:\n      dup1\n      0x33d5281f\n      gt\n      tag_23\n      jumpi\n      dup1\n      0x33d5281f\n      eq\n      tag_6\n      jumpi\n      dup1\n      0x392f6356\n      eq\n      tag_7\n      jumpi\n      dup1\n      0x3e86e213\n      eq\n      tag_8\n      jumpi\n      dup1\n      0x65ad976e\n      eq\n      tag_9\n      jumpi\n      dup1\n      0x6f9fb98a\n      eq\n      tag_10\n      jumpi\n      jump(tag_1)\n    tag_23:\n      dup1\n      0x63750c\n      eq\n      tag_2\n      jumpi\n      dup1\n      0x0edd2ffc\n      eq\n      tag_3\n      jumpi\n      dup1\n      0x26a39c07\n      eq\n      tag_4\n      jumpi\n      dup1\n      0x2e1a7d4d\n      eq\n      tag_5\n      jumpi\n    tag_1:\n      revert(0x00, 0x00)\n        /* \"LoadManager.sol\":6059:6462  function withdrawInterest() public nonReentrant {... */\n    tag_2:\n      callvalue\n      dup1\n      iszero\n      tag_24\n      jumpi\n      revert(0x00, 0x00)\n    tag_24:\n      pop\n      tag_25\n      tag_26\n      jump\t// in\n    tag_25:\n      stop\n        /* \"LoadManager.sol\":1769:1796  uint256 public penalty = 25 */\n    tag_3:\n      callvalue\n      dup1\n      iszero\n      tag_27\n      jumpi\n      revert(0x00, 0x00)\n    tag_27:\n      pop\n      tag_28\n      tag_29\n      jump\t// in\n    tag_28:\n      mload(0x40)\n      tag_30\n      swap2\n      swap1\n      tag_31\n      jump\t// in\n    tag_30:\n      mload(0x40)\n      dup1\n      swap2\n      sub\n      swap1\n      return\n        /* \"LoadManager.sol\":2180:2230  mapping(address => uint256) public interestMatured */\n    tag_4:\n      callvalue\n      dup1\n      iszero\n      tag_32\n      jumpi\n      revert(0x00, 0x00)\n    tag_32:\n      pop\n      tag_33\n      0x04\n      dup1\n      calldatasize\n      sub\n      dup2\n      add\n      swap1\n      tag_34\n      swap2\n      swap1\n      tag_35\n      jump\t// in\n    tag_34:\n      tag_36\n      jump\t// in\n    tag_33:\n      mload(0x40)\n      tag_37\n      swap2\n      swap1\n      tag_31\n      jump\t// in\n    tag_37:\n      mload(0x40)\n      dup1\n      swap2\n      sub\n      swap1\n      return\n        /* \"LoadManager.sol\":5120:6053  function withdraw(uint256 amount) public checkNetPosition(amount) nonReentrant {... */\n    tag_5:\n      callvalue\n      dup1\n      iszero\n      tag_38\n      jumpi\n      revert(0x00, 0x00)\n    tag_38:\n      pop\n      tag_39\n      0x04\n      dup1\n      calldatasize\n      sub\n      dup2\n      add\n      swap1\n      tag_40\n      swap2\n      swap1\n      tag_41\n      jump\t// in\n    tag_40:\n      tag_42\n      jump\t// in\n    tag_39:\n      stop\n        /* \"LoadManager.sol\":6468:8048  function openBorrow(... */\n    tag_6:\n      tag_43\n      0x04\n      dup1\n      calldatasize\n      sub\n      dup2\n      add\n      swap1\n      tag_44\n      swap2\n      swap1\n      tag_45\n      jump\t// in\n    tag_44:\n      tag_46\n      jump\t// in\n    tag_43:\n      stop\n        /* \"LoadManager.sol\":4876:5114  function updateInterestMatured() public returns (uint256) {... */\n    tag_7:\n      callvalue\n      dup1\n      iszero\n      tag_47\n      jumpi\n      revert(0x00, 0x00)\n    tag_47:\n      pop\n      tag_48\n      tag_49\n      jump\t// in\n    tag_48:\n      mload(0x40)\n      tag_50\n      swap2\n      swap1\n      tag_31\n      jump\t// in\n    tag_50:\n      mload(0x40)\n      dup1\n      swap2\n      sub\n      swap1\n      return\n        /* \"LoadManager.sol\":2341:2448  function getUserBorrowerList() public view returns (address[] memory) {... */\n    tag_8:\n      callvalue\n      dup1\n      iszero\n      tag_51\n      jumpi\n      revert(0x00, 0x00)\n    tag_51:\n      pop\n      tag_52\n      tag_53\n      jump\t// in\n    tag_52:\n      mload(0x40)\n      tag_54\n      swap2\n      swap1\n      tag_55\n      jump\t// in\n    tag_54:\n      mload(0x40)\n      dup1\n      swap2\n      sub\n      swap1\n      return\n        /* \"LoadManager.sol\":1737:1763  uint256 public lendAPY = 3 */\n    tag_9:\n      callvalue\n      dup1\n      iszero\n      tag_56\n      jumpi\n      revert(0x00, 0x00)\n    tag_56:\n      pop\n      tag_57\n      tag_58\n      jump\t// in\n    tag_57:\n      mload(0x40)\n      tag_59\n      swap2\n      swap1\n      tag_31\n      jump\t// in\n    tag_59:\n      mload(0x40)\n      dup1\n      swap2\n      sub\n      swap1\n      return\n        /* \"LoadManager.sol\":1869:1970  function getContractBalance() public view returns (uint256) {... */\n    tag_10:\n      callvalue\n      dup1\n      iszero\n      tag_60\n      jumpi\n      revert(0x00, 0x00)\n    tag_60:\n      pop\n      tag_61\n      tag_62\n      jump\t// in\n    tag_61:\n      mload(0x40)\n      tag_63\n      swap2\n      swap1\n      tag_31\n      jump\t// in\n    tag_63:\n      mload(0x40)\n      dup1\n      swap2\n      sub\n      swap1\n      return\n        /* \"LoadManager.sol\":2029:2074  mapping(address => int256) public borrowCount */\n    tag_11:\n      callvalue\n      dup1\n      iszero\n      tag_64\n      jumpi\n      revert(0x00, 0x00)\n    tag_64:\n      pop\n      tag_65\n      0x04\n      dup1\n      calldatasize\n      sub\n      dup2\n      add\n      swap1\n      tag_66\n      swap2\n      swap1\n      tag_35\n      jump\t// in\n    tag_66:\n      tag_67\n      jump\t// in\n    tag_65:\n      mload(0x40)\n      tag_68\n      swap2\n      swap1\n      tag_69\n      jump\t// in\n    tag_68:\n      mload(0x40)\n      dup1\n      swap2\n      sub\n      swap1\n      return\n        /* \"LoadManager.sol\":1526:1546  address public owner */\n    tag_12:\n      callvalue\n      dup1\n      iszero\n      tag_70\n      jumpi\n      revert(0x00, 0x00)\n    tag_70:\n      pop\n      tag_71\n      tag_72\n      jump\t// in\n    tag_71:\n      mload(0x40)\n      tag_73\n      swap2\n      swap1\n      tag_74\n      jump\t// in\n    tag_73:\n      mload(0x40)\n      dup1\n      swap2\n      sub\n      swap1\n      return\n        /* \"LoadManager.sol\":4372:4866  function lend() public payable checkMinimalLend {... */\n    tag_13:\n      tag_75\n      tag_76\n      jump\t// in\n    tag_75:\n      stop\n        /* \"LoadManager.sol\":1976:2024  mapping(address => borrowInfo[]) public Borrower */\n    tag_14:\n      callvalue\n      dup1\n      iszero\n      tag_77\n      jumpi\n      revert(0x00, 0x00)\n    tag_77:\n      pop\n      tag_78\n      0x04\n      dup1\n      calldatasize\n      sub\n      dup2\n      add\n      swap1\n      tag_79\n      swap2\n      swap1\n      tag_80\n      jump\t// in\n    tag_79:\n      tag_81\n      jump\t// in\n    tag_78:\n      mload(0x40)\n      tag_82\n      swap9\n      swap8\n      swap7\n      swap6\n      swap5\n      swap4\n      swap3\n      swap2\n      swap1\n      tag_83\n      jump\t// in\n    tag_82:\n      mload(0x40)\n      dup1\n      swap2\n      sub\n      swap1\n      return\n        /* \"LoadManager.sol\":1703:1732  uint256 public lendersCounter */\n    tag_15:\n      callvalue\n      dup1\n      iszero\n      tag_84\n      jumpi\n      revert(0x00, 0x00)\n    tag_84:\n      pop\n      tag_85\n      tag_86\n      jump\t// in\n    tag_85:\n      mload(0x40)\n      tag_87\n      swap2\n      swap1\n      tag_31\n      jump\t// in\n    tag_87:\n      mload(0x40)\n      dup1\n      swap2\n      sub\n      swap1\n      return\n        /* \"LoadManager.sol\":2454:2558  function getUserLendersList() public view returns (address[] memory) {... */\n    tag_16:\n      callvalue\n      dup1\n      iszero\n      tag_88\n      jumpi\n      revert(0x00, 0x00)\n    tag_88:\n      pop\n      tag_89\n      tag_90\n      jump\t// in\n    tag_89:\n      mload(0x40)\n      tag_91\n      swap2\n      swap1\n      tag_55\n      jump\t// in\n    tag_91:\n      mload(0x40)\n      dup1\n      swap2\n      sub\n      swap1\n      return\n        /* \"LoadManager.sol\":2237:2283  mapping(address => uint256) public netPosition */\n    tag_17:\n      callvalue\n      dup1\n      iszero\n      tag_92\n      jumpi\n      revert(0x00, 0x00)\n    tag_92:\n      pop\n      tag_93\n      0x04\n      dup1\n      calldatasize\n      sub\n      dup2\n      add\n      swap1\n      tag_94\n      swap2\n      swap1\n      tag_35\n      jump\t// in\n    tag_94:\n      tag_95\n      jump\t// in\n    tag_93:\n      mload(0x40)\n      tag_96\n      swap2\n      swap1\n      tag_31\n      jump\t// in\n    tag_96:\n      mload(0x40)\n      dup1\n      swap2\n      sub\n      swap1\n      return\n        /* \"LoadManager.sol\":1667:1698  uint256 public borrowersCounter */\n    tag_18:\n      callvalue\n      dup1\n      iszero\n      tag_97\n      jumpi\n      revert(0x00, 0x00)\n    tag_97:\n      pop\n      tag_98\n      tag_99\n      jump\t// in\n    tag_98:\n      mload(0x40)\n      tag_100\n      swap2\n      swap1\n      tag_31\n      jump\t// in\n    tag_100:\n      mload(0x40)\n      dup1\n      swap2\n      sub\n      swap1\n      return\n        /* \"LoadManager.sol\":8298:10091  function payBorrow(uint256 borrowNumber) public payable nonReentrant {... */\n    tag_19:\n      tag_101\n      0x04\n      dup1\n      calldatasize\n      sub\n      dup2\n      add\n      swap1\n      tag_102\n      swap2\n      swap1\n      tag_41\n      jump\t// in\n    tag_102:\n      tag_103\n      jump\t// in\n    tag_101:\n      stop\n        /* \"LoadManager.sol\":2131:2175  mapping(address => lendInfo[]) public Lender */\n    tag_20:\n      callvalue\n      dup1\n      iszero\n      tag_104\n      jumpi\n      revert(0x00, 0x00)\n    tag_104:\n      pop\n      tag_105\n      0x04\n      dup1\n      calldatasize\n      sub\n      dup2\n      add\n      swap1\n      tag_106\n      swap2\n      swap1\n      tag_80\n      jump\t// in\n    tag_106:\n      tag_107\n      jump\t// in\n    tag_105:\n      mload(0x40)\n      tag_108\n      swap4\n      swap3\n      swap2\n      swap1\n      tag_109\n      jump\t// in\n    tag_108:\n      mload(0x40)\n      dup1\n      swap2\n      sub\n      swap1\n      return\n        /* \"LoadManager.sol\":6059:6462  function withdrawInterest() public nonReentrant {... */\n    tag_26:\n        /* \"LoadManager.sol\":3947:3953  locked */\n      0x08\n      0x00\n      swap1\n      sload\n      swap1\n      0x0100\n      exp\n      swap1\n      div\n      0xff\n      and\n        /* \"LoadManager.sol\":3946:3953  !locked */\n      iszero\n        /* \"LoadManager.sol\":3938:3968  require(!locked, 'Reentrancy') */\n      tag_111\n      jumpi\n      mload(0x40)\n      0x08c379a000000000000000000000000000000000000000000000000000000000\n      dup2\n      mstore\n      0x04\n      add\n      tag_112\n      swap1\n      tag_113\n      jump\t// in\n    tag_112:\n      mload(0x40)\n      dup1\n      swap2\n      sub\n      swap1\n      revert\n    tag_111:\n        /* \"LoadManager.sol\":3984:3988  true */\n      0x01\n        /* \"LoadManager.sol\":3975:3981  locked */\n      0x08\n      0x00\n        /* \"LoadManager.sol\":3975:3988  locked = true */\n      0x0100\n      exp\n      dup2\n      sload\n      dup2\n      0xff\n      mul\n      not\n      and\n      swap1\n      dup4\n      iszero\n      iszero\n      mul\n      or\n      swap1\n      sstore\n      pop\n        /* \"LoadManager.sol\":6114:6130  uint256 interest */\n      0x00\n        /* \"LoadManager.sol\":6133:6156  updateInterestMatured() */\n      tag_115\n        /* \"LoadManager.sol\":6133:6154  updateInterestMatured */\n      tag_49\n        /* \"LoadManager.sol\":6133:6156  updateInterestMatured() */\n      jump\t// in\n    tag_115:\n        /* \"LoadManager.sol\":6114:6156  uint256 interest = updateInterestMatured() */\n      swap1\n      pop\n        /* \"LoadManager.sol\":6182:6183  0 */\n      0x00\n        /* \"LoadManager.sol\":6171:6179  interest */\n      dup2\n        /* \"LoadManager.sol\":6171:6183  interest > 0 */\n      gt\n        /* \"LoadManager.sol\":6163:6211  require(interest > 0, 'No interest to withdraw') */\n      tag_116\n      jumpi\n      mload(0x40)\n      0x08c379a000000000000000000000000000000000000000000000000000000000\n      dup2\n      mstore\n      0x04\n      add\n      tag_117\n      swap1\n      tag_118\n      jump\t// in\n    tag_117:\n      mload(0x40)\n      dup1\n      swap2\n      sub\n      swap1\n      revert\n    tag_116:\n        /* \"LoadManager.sol\":6223:6232  uint256 i */\n      0x00\n        /* \"LoadManager.sol\":6235:6236  0 */\n      0x00\n        /* \"LoadManager.sol\":6223:6236  uint256 i = 0 */\n      swap1\n      pop\n        /* \"LoadManager.sol\":6218:6342  for (uint256 i = 0; Lender[msg.sender].length > i; i++) {... */\n    tag_119:\n        /* \"LoadManager.sol\":6266:6267  i */\n      dup1\n        /* \"LoadManager.sol\":6238:6244  Lender */\n      0x0b\n        /* \"LoadManager.sol\":6238:6256  Lender[msg.sender] */\n      0x00\n        /* \"LoadManager.sol\":6245:6255  msg.sender */\n      caller\n        /* \"LoadManager.sol\":6238:6256  Lender[msg.sender] */\n      0xffffffffffffffffffffffffffffffffffffffff\n      and\n      0xffffffffffffffffffffffffffffffffffffffff\n      and\n      dup2\n      mstore\n      0x20\n      add\n      swap1\n      dup2\n      mstore\n      0x20\n      add\n      0x00\n      keccak256\n        /* \"LoadManager.sol\":6238:6263  Lender[msg.sender].length */\n      dup1\n      sload\n      swap1\n      pop\n        /* \"LoadManager.sol\":6238:6267  Lender[msg.sender].length > i */\n      gt\n        /* \"LoadManager.sol\":6218:6342  for (uint256 i = 0; Lender[msg.sender].length > i; i++) {... */\n      iszero\n      tag_120\n      jumpi\n        /* \"LoadManager.sol\":6319:6334  block.timestamp */\n      timestamp\n        /* \"LoadManager.sol\":6283:6289  Lender */\n      0x0b\n        /* \"LoadManager.sol\":6283:6301  Lender[msg.sender] */\n      0x00\n        /* \"LoadManager.sol\":6290:6300  msg.sender */\n      caller\n        /* \"LoadManager.sol\":6283:6301  Lender[msg.sender] */\n      0xffffffffffffffffffffffffffffffffffffffff\n      and\n      0xffffffffffffffffffffffffffffffffffffffff\n      and\n      dup2\n      mstore\n      0x20\n      add\n      swap1\n      dup2\n      mstore\n      0x20\n      add\n      0x00\n      keccak256\n        /* \"LoadManager.sol\":6302:6303  i */\n      dup3\n        /* \"LoadManager.sol\":6283:6304  Lender[msg.sender][i] */\n      dup2\n      sload\n      dup2\n      lt\n      tag_122\n      jumpi\n      tag_123\n      tag_124\n      jump\t// in\n    tag_123:\n    tag_122:\n      swap1\n      0x00\n      mstore\n      keccak256(0x00, 0x20)\n      swap1\n      0x03\n      mul\n      add\n        /* \"LoadManager.sol\":6283:6316  Lender[msg.sender][i].depositTime */\n      0x01\n      add\n        /* \"LoadManager.sol\":6283:6334  Lender[msg.sender][i].depositTime = block.timestamp */\n      dup2\n      swap1\n      sstore\n      pop\n        /* \"LoadManager.sol\":6269:6272  i++ */\n      dup1\n      dup1\n      tag_126\n      swap1\n      tag_127\n      jump\t// in\n    tag_126:\n      swap2\n      pop\n      pop\n        /* \"LoadManager.sol\":6218:6342  for (uint256 i = 0; Lender[msg.sender].length > i; i++) {... */\n      jump(tag_119)\n    tag_120:\n      pop\n        /* \"LoadManager.sol\":6349:6361  bool success */\n      0x00\n        /* \"LoadManager.sol\":6367:6377  msg.sender */\n      caller\n        /* \"LoadManager.sol\":6367:6382  msg.sender.call */\n      0xffffffffffffffffffffffffffffffffffffffff\n      and\n        /* \"LoadManager.sol\":6391:6399  interest */\n      dup3\n        /* \"LoadManager.sol\":6367:6405  msg.sender.call{ value: interest }('') */\n      mload(0x40)\n      tag_128\n      swap1\n      tag_129\n      jump\t// in\n    tag_128:\n      0x00\n      mload(0x40)\n      dup1\n      dup4\n      sub\n      dup2\n      dup6\n      dup8\n      gas\n      call\n      swap3\n      pop\n      pop\n      pop\n      returndatasize\n      dup1\n      0x00\n      dup2\n      eq\n      tag_132\n      jumpi\n      mload(0x40)\n      swap2\n      pop\n      and(add(returndatasize, 0x3f), not(0x1f))\n      dup3\n      add\n      0x40\n      mstore\n      returndatasize\n      dup3\n      mstore\n      returndatasize\n      0x00\n      0x20\n      dup5\n      add\n      returndatacopy\n      jump(tag_131)\n    tag_132:\n      0x60\n      swap2\n      pop\n    tag_131:\n      pop\n        /* \"LoadManager.sol\":6348:6405  (bool success, ) = msg.sender.call{ value: interest }('') */\n      pop\n      swap1\n      pop\n        /* \"LoadManager.sol\":6420:6427  success */\n      dup1\n        /* \"LoadManager.sol\":6412:6450  require(success, 'Transaction failed') */\n      tag_133\n      jumpi\n      mload(0x40)\n      0x08c379a000000000000000000000000000000000000000000000000000000000\n      dup2\n      mstore\n      0x04\n      add\n      tag_134\n      swap1\n      tag_135\n      jump\t// in\n    tag_134:\n      mload(0x40)\n      dup1\n      swap2\n      sub\n      swap1\n      revert\n    tag_133:\n        /* \"LoadManager.sol\":6107:6462  {... */\n      pop\n      pop\n        /* \"LoadManager.sol\":4012:4017  false */\n      0x00\n        /* \"LoadManager.sol\":4003:4009  locked */\n      0x08\n      0x00\n        /* \"LoadManager.sol\":4003:4017  locked = false */\n      0x0100\n      exp\n      dup2\n      sload\n      dup2\n      0xff\n      mul\n      not\n      and\n      swap1\n      dup4\n      iszero\n      iszero\n      mul\n      or\n      swap1\n      sstore\n      pop\n        /* \"LoadManager.sol\":6059:6462  function withdrawInterest() public nonReentrant {... */\n      jump\t// out\n        /* \"LoadManager.sol\":1769:1796  uint256 public penalty = 25 */\n    tag_29:\n      sload(0x07)\n      dup2\n      jump\t// out\n        /* \"LoadManager.sol\":2180:2230  mapping(address => uint256) public interestMatured */\n    tag_36:\n      mstore(0x20, 0x0c)\n      dup1\n      0x00\n      mstore\n      keccak256(0x00, 0x40)\n      0x00\n      swap2\n      pop\n      swap1\n      pop\n      sload\n      dup2\n      jump\t// out\n        /* \"LoadManager.sol\":5120:6053  function withdraw(uint256 amount) public checkNetPosition(amount) nonReentrant {... */\n    tag_42:\n        /* \"LoadManager.sol\":5178:5184  amount */\n      dup1\n        /* \"LoadManager.sol\":3851:3857  amount */\n      dup1\n        /* \"LoadManager.sol\":3824:3835  netPosition */\n      0x0d\n        /* \"LoadManager.sol\":3824:3847  netPosition[msg.sender] */\n      0x00\n        /* \"LoadManager.sol\":3836:3846  msg.sender */\n      caller\n        /* \"LoadManager.sol\":3824:3847  netPosition[msg.sender] */\n      0xffffffffffffffffffffffffffffffffffffffff\n      and\n      0xffffffffffffffffffffffffffffffffffffffff\n      and\n      dup2\n      mstore\n      0x20\n      add\n      swap1\n      dup2\n      mstore\n      0x20\n      add\n      0x00\n      keccak256\n      sload\n        /* \"LoadManager.sol\":3824:3857  netPosition[msg.sender] >= amount */\n      lt\n      iszero\n        /* \"LoadManager.sol\":3816:3887  require(netPosition[msg.sender] >= amount, 'Excedeed maximum withdraw') */\n      tag_137\n      jumpi\n      mload(0x40)\n      0x08c379a000000000000000000000000000000000000000000000000000000000\n      dup2\n      mstore\n      0x04\n      add\n      tag_138\n      swap1\n      tag_139\n      jump\t// in\n    tag_138:\n      mload(0x40)\n      dup1\n      swap2\n      sub\n      swap1\n      revert\n    tag_137:\n        /* \"LoadManager.sol\":3947:3953  locked */\n      0x08\n      0x00\n      swap1\n      sload\n      swap1\n      0x0100\n      exp\n      swap1\n      div\n      0xff\n      and\n        /* \"LoadManager.sol\":3946:3953  !locked */\n      iszero\n        /* \"LoadManager.sol\":3938:3968  require(!locked, 'Reentrancy') */\n      tag_141\n      jumpi\n      mload(0x40)\n      0x08c379a000000000000000000000000000000000000000000000000000000000\n      dup2\n      mstore\n      0x04\n      add\n      tag_142\n      swap1\n      tag_113\n      jump\t// in\n    tag_142:\n      mload(0x40)\n      dup1\n      swap2\n      sub\n      swap1\n      revert\n    tag_141:\n        /* \"LoadManager.sol\":3984:3988  true */\n      0x01\n        /* \"LoadManager.sol\":3975:3981  locked */\n      0x08\n      0x00\n        /* \"LoadManager.sol\":3975:3988  locked = true */\n      0x0100\n      exp\n      dup2\n      sload\n      dup2\n      0xff\n      mul\n      not\n      and\n      swap1\n      dup4\n      iszero\n      iszero\n      mul\n      or\n      swap1\n      sstore\n      pop\n        /* \"LoadManager.sol\":5223:5224  0 */\n      0x00\n        /* \"LoadManager.sol\":5214:5220  amount */\n      dup3\n        /* \"LoadManager.sol\":5214:5224  amount > 0 */\n      gt\n        /* \"LoadManager.sol\":5206:5261  require(amount > 0, 'Amount must be greater than zero') */\n      tag_144\n      jumpi\n      mload(0x40)\n      0x08c379a000000000000000000000000000000000000000000000000000000000\n      dup2\n      mstore\n      0x04\n      add\n      tag_145\n      swap1\n      tag_146\n      jump\t// in\n    tag_145:\n      mload(0x40)\n      dup1\n      swap2\n      sub\n      swap1\n      revert\n    tag_144:\n        /* \"LoadManager.sol\":5303:5309  amount */\n      dup2\n        /* \"LoadManager.sol\":5276:5287  netPosition */\n      0x0d\n        /* \"LoadManager.sol\":5276:5299  netPosition[msg.sender] */\n      0x00\n        /* \"LoadManager.sol\":5288:5298  msg.sender */\n      caller\n        /* \"LoadManager.sol\":5276:5299  netPosition[msg.sender] */\n      0xffffffffffffffffffffffffffffffffffffffff\n      and\n      0xffffffffffffffffffffffffffffffffffffffff\n      and\n      dup2\n      mstore\n      0x20\n      add\n      swap1\n      dup2\n      mstore\n      0x20\n      add\n      0x00\n      keccak256\n      sload\n        /* \"LoadManager.sol\":5276:5309  netPosition[msg.sender] >= amount */\n      lt\n      iszero\n        /* \"LoadManager.sol\":5268:5362  require(netPosition[msg.sender] >= amount, 'Not enough funds in deposits to cover withdrawal') */\n      tag_147\n      jumpi\n      mload(0x40)\n      0x08c379a000000000000000000000000000000000000000000000000000000000\n      dup2\n      mstore\n      0x04\n      add\n      tag_148\n      swap1\n      tag_149\n      jump\t// in\n    tag_148:\n      mload(0x40)\n      dup1\n      swap2\n      sub\n      swap1\n      revert\n    tag_147:\n        /* \"LoadManager.sol\":5369:5391  uint256 startingAmount */\n      0x00\n        /* \"LoadManager.sol\":5394:5400  amount */\n      dup3\n        /* \"LoadManager.sol\":5369:5400  uint256 startingAmount = amount */\n      swap1\n      pop\n        /* \"LoadManager.sol\":5472:5481  uint256 i */\n      0x00\n        /* \"LoadManager.sol\":5484:5485  0 */\n      0x00\n        /* \"LoadManager.sol\":5472:5485  uint256 i = 0 */\n      swap1\n      pop\n        /* \"LoadManager.sol\":5467:5809  for (uint256 i = 0; i < Lender[msg.sender].length; i++) {... */\n    tag_150:\n        /* \"LoadManager.sol\":5491:5497  Lender */\n      0x0b\n        /* \"LoadManager.sol\":5491:5509  Lender[msg.sender] */\n      0x00\n        /* \"LoadManager.sol\":5498:5508  msg.sender */\n      caller\n        /* \"LoadManager.sol\":5491:5509  Lender[msg.sender] */\n      0xffffffffffffffffffffffffffffffffffffffff\n      and\n      0xffffffffffffffffffffffffffffffffffffffff\n      and\n      dup2\n      mstore\n      0x20\n      add\n      swap1\n      dup2\n      mstore\n      0x20\n      add\n      0x00\n      keccak256\n        /* \"LoadManager.sol\":5491:5516  Lender[msg.sender].length */\n      dup1\n      sload\n      swap1\n      pop\n        /* \"LoadManager.sol\":5487:5488  i */\n      dup2\n        /* \"LoadManager.sol\":5487:5516  i < Lender[msg.sender].length */\n      lt\n        /* \"LoadManager.sol\":5467:5809  for (uint256 i = 0; i < Lender[msg.sender].length; i++) {... */\n      iszero\n      tag_151\n      jumpi\n        /* \"LoadManager.sol\":5545:5551  Lender */\n      0x0b\n        /* \"LoadManager.sol\":5545:5563  Lender[msg.sender] */\n      0x00\n        /* \"LoadManager.sol\":5552:5562  msg.sender */\n      caller\n        /* \"LoadManager.sol\":5545:5563  Lender[msg.sender] */\n      0xffffffffffffffffffffffffffffffffffffffff\n      and\n      0xffffffffffffffffffffffffffffffffffffffff\n      and\n      dup2\n      mstore\n      0x20\n      add\n      swap1\n      dup2\n      mstore\n      0x20\n      add\n      0x00\n      keccak256\n        /* \"LoadManager.sol\":5564:5565  i */\n      dup2\n        /* \"LoadManager.sol\":5545:5566  Lender[msg.sender][i] */\n      dup2\n      sload\n      dup2\n      lt\n      tag_153\n      jumpi\n      tag_154\n      tag_124\n      jump\t// in\n    tag_154:\n    tag_153:\n      swap1\n      0x00\n      mstore\n      keccak256(0x00, 0x20)\n      swap1\n      0x03\n      mul\n      add\n        /* \"LoadManager.sol\":5545:5573  Lender[msg.sender][i].amount */\n      0x02\n      add\n      sload\n        /* \"LoadManager.sol\":5536:5542  amount */\n      dup5\n        /* \"LoadManager.sol\":5536:5573  amount > Lender[msg.sender][i].amount */\n      gt\n        /* \"LoadManager.sol\":5532:5802  if (amount > Lender[msg.sender][i].amount) {... */\n      iszero\n      tag_156\n      jumpi\n        /* \"LoadManager.sol\":5596:5602  Lender */\n      0x0b\n        /* \"LoadManager.sol\":5596:5614  Lender[msg.sender] */\n      0x00\n        /* \"LoadManager.sol\":5603:5613  msg.sender */\n      caller\n        /* \"LoadManager.sol\":5596:5614  Lender[msg.sender] */\n      0xffffffffffffffffffffffffffffffffffffffff\n      and\n      0xffffffffffffffffffffffffffffffffffffffff\n      and\n      dup2\n      mstore\n      0x20\n      add\n      swap1\n      dup2\n      mstore\n      0x20\n      add\n      0x00\n      keccak256\n        /* \"LoadManager.sol\":5615:5616  i */\n      dup2\n        /* \"LoadManager.sol\":5596:5617  Lender[msg.sender][i] */\n      dup2\n      sload\n      dup2\n      lt\n      tag_157\n      jumpi\n      tag_158\n      tag_124\n      jump\t// in\n    tag_158:\n    tag_157:\n      swap1\n      0x00\n      mstore\n      keccak256(0x00, 0x20)\n      swap1\n      0x03\n      mul\n      add\n        /* \"LoadManager.sol\":5596:5624  Lender[msg.sender][i].amount */\n      0x02\n      add\n      sload\n        /* \"LoadManager.sol\":5586:5624  amount -= Lender[msg.sender][i].amount */\n      dup5\n      tag_160\n      swap2\n      swap1\n      tag_161\n      jump\t// in\n    tag_160:\n      swap4\n      pop\n        /* \"LoadManager.sol\":5666:5667  0 */\n      0x00\n        /* \"LoadManager.sol\":5635:5641  Lender */\n      0x0b\n        /* \"LoadManager.sol\":5635:5653  Lender[msg.sender] */\n      0x00\n        /* \"LoadManager.sol\":5642:5652  msg.sender */\n      caller\n        /* \"LoadManager.sol\":5635:5653  Lender[msg.sender] */\n      0xffffffffffffffffffffffffffffffffffffffff\n      and\n      0xffffffffffffffffffffffffffffffffffffffff\n      and\n      dup2\n      mstore\n      0x20\n      add\n      swap1\n      dup2\n      mstore\n      0x20\n      add\n      0x00\n      keccak256\n        /* \"LoadManager.sol\":5654:5655  i */\n      dup3\n        /* \"LoadManager.sol\":5635:5656  Lender[msg.sender][i] */\n      dup2\n      sload\n      dup2\n      lt\n      tag_162\n      jumpi\n      tag_163\n      tag_124\n      jump\t// in\n    tag_163:\n    tag_162:\n      swap1\n      0x00\n      mstore\n      keccak256(0x00, 0x20)\n      swap1\n      0x03\n      mul\n      add\n        /* \"LoadManager.sol\":5635:5663  Lender[msg.sender][i].amount */\n      0x02\n      add\n        /* \"LoadManager.sol\":5635:5667  Lender[msg.sender][i].amount = 0 */\n      dup2\n      swap1\n      sstore\n      pop\n        /* \"LoadManager.sol\":5532:5802  if (amount > Lender[msg.sender][i].amount) {... */\n      jump(tag_165)\n    tag_156:\n        /* \"LoadManager.sol\":5719:5725  amount */\n      dup4\n        /* \"LoadManager.sol\":5687:5693  Lender */\n      0x0b\n        /* \"LoadManager.sol\":5687:5705  Lender[msg.sender] */\n      0x00\n        /* \"LoadManager.sol\":5694:5704  msg.sender */\n      caller\n        /* \"LoadManager.sol\":5687:5705  Lender[msg.sender] */\n      0xffffffffffffffffffffffffffffffffffffffff\n      and\n      0xffffffffffffffffffffffffffffffffffffffff\n      and\n      dup2\n      mstore\n      0x20\n      add\n      swap1\n      dup2\n      mstore\n      0x20\n      add\n      0x00\n      keccak256\n        /* \"LoadManager.sol\":5706:5707  i */\n      dup3\n        /* \"LoadManager.sol\":5687:5708  Lender[msg.sender][i] */\n      dup2\n      sload\n      dup2\n      lt\n      tag_166\n      jumpi\n      tag_167\n      tag_124\n      jump\t// in\n    tag_167:\n    tag_166:\n      swap1\n      0x00\n      mstore\n      keccak256(0x00, 0x20)\n      swap1\n      0x03\n      mul\n      add\n        /* \"LoadManager.sol\":5687:5715  Lender[msg.sender][i].amount */\n      0x02\n      add\n      sload\n        /* \"LoadManager.sol\":5687:5725  Lender[msg.sender][i].amount >= amount */\n      lt\n        /* \"LoadManager.sol\":5683:5802  if (Lender[msg.sender][i].amount >= amount) {... */\n      tag_169\n      jumpi\n        /* \"LoadManager.sol\":5770:5776  amount */\n      dup4\n        /* \"LoadManager.sol\":5738:5744  Lender */\n      0x0b\n        /* \"LoadManager.sol\":5738:5756  Lender[msg.sender] */\n      0x00\n        /* \"LoadManager.sol\":5745:5755  msg.sender */\n      caller\n        /* \"LoadManager.sol\":5738:5756  Lender[msg.sender] */\n      0xffffffffffffffffffffffffffffffffffffffff\n      and\n      0xffffffffffffffffffffffffffffffffffffffff\n      and\n      dup2\n      mstore\n      0x20\n      add\n      swap1\n      dup2\n      mstore\n      0x20\n      add\n      0x00\n      keccak256\n        /* \"LoadManager.sol\":5757:5758  i */\n      dup3\n        /* \"LoadManager.sol\":5738:5759  Lender[msg.sender][i] */\n      dup2\n      sload\n      dup2\n      lt\n      tag_170\n      jumpi\n      tag_171\n      tag_124\n      jump\t// in\n    tag_171:\n    tag_170:\n      swap1\n      0x00\n      mstore\n      keccak256(0x00, 0x20)\n      swap1\n      0x03\n      mul\n      add\n        /* \"LoadManager.sol\":5738:5766  Lender[msg.sender][i].amount */\n      0x02\n      add\n      0x00\n        /* \"LoadManager.sol\":5738:5776  Lender[msg.sender][i].amount -= amount */\n      dup3\n      dup3\n      sload\n      tag_173\n      swap2\n      swap1\n      tag_161\n      jump\t// in\n    tag_173:\n      swap3\n      pop\n      pop\n      dup2\n      swap1\n      sstore\n      pop\n        /* \"LoadManager.sol\":5787:5792  break */\n      jump(tag_151)\n        /* \"LoadManager.sol\":5683:5802  if (Lender[msg.sender][i].amount >= amount) {... */\n    tag_169:\n        /* \"LoadManager.sol\":5532:5802  if (amount > Lender[msg.sender][i].amount) {... */\n    tag_165:\n        /* \"LoadManager.sol\":5518:5521  i++ */\n      dup1\n      dup1\n      0x01\n      add\n      swap2\n      pop\n      pop\n        /* \"LoadManager.sol\":5467:5809  for (uint256 i = 0; i < Lender[msg.sender].length; i++) {... */\n      jump(tag_150)\n    tag_151:\n      pop\n        /* \"LoadManager.sol\":5842:5856  startingAmount */\n      dup1\n        /* \"LoadManager.sol\":5815:5826  netPosition */\n      0x0d\n        /* \"LoadManager.sol\":5815:5838  netPosition[msg.sender] */\n      0x00\n        /* \"LoadManager.sol\":5827:5837  msg.sender */\n      caller\n        /* \"LoadManager.sol\":5815:5838  netPosition[msg.sender] */\n      0xffffffffffffffffffffffffffffffffffffffff\n      and\n      0xffffffffffffffffffffffffffffffffffffffff\n      and\n      dup2\n      mstore\n      0x20\n      add\n      swap1\n      dup2\n      mstore\n      0x20\n      add\n      0x00\n      keccak256\n      0x00\n        /* \"LoadManager.sol\":5815:5856  netPosition[msg.sender] -= startingAmount */\n      dup3\n      dup3\n      sload\n      tag_174\n      swap2\n      swap1\n      tag_161\n      jump\t// in\n    tag_174:\n      swap3\n      pop\n      pop\n      dup2\n      swap1\n      sstore\n      pop\n        /* \"LoadManager.sol\":5864:5875  bool result */\n      0x00\n        /* \"LoadManager.sol\":5889:5899  msg.sender */\n      caller\n        /* \"LoadManager.sol\":5881:5905  payable(msg.sender).call */\n      0xffffffffffffffffffffffffffffffffffffffff\n      and\n        /* \"LoadManager.sol\":5914:5928  startingAmount */\n      dup3\n        /* \"LoadManager.sol\":5881:5934  payable(msg.sender).call{ value: startingAmount }('') */\n      mload(0x40)\n      tag_175\n      swap1\n      tag_129\n      jump\t// in\n    tag_175:\n      0x00\n      mload(0x40)\n      dup1\n      dup4\n      sub\n      dup2\n      dup6\n      dup8\n      gas\n      call\n      swap3\n      pop\n      pop\n      pop\n      returndatasize\n      dup1\n      0x00\n      dup2\n      eq\n      tag_178\n      jumpi\n      mload(0x40)\n      swap2\n      pop\n      and(add(returndatasize, 0x3f), not(0x1f))\n      dup3\n      add\n      0x40\n      mstore\n      returndatasize\n      dup3\n      mstore\n      returndatasize\n      0x00\n      0x20\n      dup5\n      add\n      returndatacopy\n      jump(tag_177)\n    tag_178:\n      0x60\n      swap2\n      pop\n    tag_177:\n      pop\n        /* \"LoadManager.sol\":5863:5934  (bool result, ) = payable(msg.sender).call{ value: startingAmount }('') */\n      pop\n      swap1\n      pop\n        /* \"LoadManager.sol\":5949:5955  result */\n      dup1\n        /* \"LoadManager.sol\":5941:5978  require(result, 'Transaction failed') */\n      tag_179\n      jumpi\n      mload(0x40)\n      0x08c379a000000000000000000000000000000000000000000000000000000000\n      dup2\n      mstore\n      0x04\n      add\n      tag_180\n      swap1\n      tag_135\n      jump\t// in\n    tag_180:\n      mload(0x40)\n      dup1\n      swap2\n      sub\n      swap1\n      revert\n    tag_179:\n        /* \"LoadManager.sol\":5990:6047  withdrawDone(msg.sender, startingAmount, block.timestamp) */\n      0x4061a3c2fb8ed4fa13eb41ac8af4b4b8f67955285ea176d176be39483c38136a\n        /* \"LoadManager.sol\":6003:6013  msg.sender */\n      caller\n        /* \"LoadManager.sol\":6015:6029  startingAmount */\n      dup4\n        /* \"LoadManager.sol\":6031:6046  block.timestamp */\n      timestamp\n        /* \"LoadManager.sol\":5990:6047  withdrawDone(msg.sender, startingAmount, block.timestamp) */\n      mload(0x40)\n      tag_181\n      swap4\n      swap3\n      swap2\n      swap1\n      tag_182\n      jump\t// in\n    tag_181:\n      mload(0x40)\n      dup1\n      swap2\n      sub\n      swap1\n      log1\n        /* \"LoadManager.sol\":5199:6053  {... */\n      pop\n      pop\n        /* \"LoadManager.sol\":4012:4017  false */\n      0x00\n        /* \"LoadManager.sol\":4003:4009  locked */\n      0x08\n      0x00\n        /* \"LoadManager.sol\":4003:4017  locked = false */\n      0x0100\n      exp\n      dup2\n      sload\n      dup2\n      0xff\n      mul\n      not\n      and\n      swap1\n      dup4\n      iszero\n      iszero\n      mul\n      or\n      swap1\n      sstore\n      pop\n        /* \"LoadManager.sol\":5120:6053  function withdraw(uint256 amount) public checkNetPosition(amount) nonReentrant {... */\n      pop\n      pop\n      jump\t// out\n        /* \"LoadManager.sol\":6468:8048  function openBorrow(... */\n    tag_46:\n        /* \"LoadManager.sol\":6579:6585  _weeks */\n      dup2\n        /* \"LoadManager.sol\":3478:3481  260 */\n      0x0104\n        /* \"LoadManager.sol\":3468:3474  _weeks */\n      dup2\n        /* \"LoadManager.sol\":3468:3481  _weeks <= 260 */\n      gt\n      iszero\n        /* \"LoadManager.sol\":3460:3505  require(_weeks <= 260, 'Invalid week number') */\n      tag_184\n      jumpi\n      mload(0x40)\n      0x08c379a000000000000000000000000000000000000000000000000000000000\n      dup2\n      mstore\n      0x04\n      add\n      tag_185\n      swap1\n      tag_186\n      jump\t// in\n    tag_185:\n      mload(0x40)\n      dup1\n      swap2\n      sub\n      swap1\n      revert\n    tag_184:\n        /* \"LoadManager.sol\":6611:6617  amount */\n      dup2\n        /* \"LoadManager.sol\":3596:3605  0.2 ether */\n      0x02c68af0bb140000\n        /* \"LoadManager.sol\":3587:3593  amount */\n      dup2\n        /* \"LoadManager.sol\":3587:3605  amount > 0.2 ether */\n      gt\n        /* \"LoadManager.sol\":3579:3635  require(amount > 0.2 ether, 'Minimal borrow is 0.2 Eth') */\n      tag_188\n      jumpi\n      mload(0x40)\n      0x08c379a000000000000000000000000000000000000000000000000000000000\n      dup2\n      mstore\n      0x04\n      add\n      tag_189\n      swap1\n      tag_190\n      jump\t// in\n    tag_189:\n      mload(0x40)\n      dup1\n      swap2\n      sub\n      swap1\n      revert\n    tag_188:\n        /* \"LoadManager.sol\":6645:6651  amount */\n      dup3\n        /* \"LoadManager.sol\":4119:4125  amount */\n      dup1\n        /* \"LoadManager.sol\":4090:4094  this */\n      address\n        /* \"LoadManager.sol\":4090:4113  this.getContractBalance */\n      0xffffffffffffffffffffffffffffffffffffffff\n      and\n      0x6f9fb98a\n        /* \"LoadManager.sol\":4090:4115  this.getContractBalance() */\n      mload(0x40)\n      dup2\n      0xffffffff\n      and\n      0xe0\n      shl\n      dup2\n      mstore\n      0x04\n      add\n      0x20\n      mload(0x40)\n      dup1\n      dup4\n      sub\n      dup2\n      dup7\n      gas\n      staticcall\n      iszero\n      dup1\n      iszero\n      tag_193\n      jumpi\n      returndatacopy(0x00, 0x00, returndatasize)\n      revert(0x00, returndatasize)\n    tag_193:\n      pop\n      pop\n      pop\n      pop\n      mload(0x40)\n      returndatasize\n      not(0x1f)\n      0x1f\n      dup3\n      add\n      and\n      dup3\n      add\n      dup1\n      0x40\n      mstore\n      pop\n      dup2\n      add\n      swap1\n      tag_194\n      swap2\n      swap1\n      tag_195\n      jump\t// in\n    tag_194:\n        /* \"LoadManager.sol\":4090:4125  this.getContractBalance() >= amount */\n      lt\n      iszero\n        /* \"LoadManager.sol\":4082:4126  require(this.getContractBalance() >= amount) */\n      tag_196\n      jumpi\n      revert(0x00, 0x00)\n    tag_196:\n        /* \"LoadManager.sol\":3947:3953  locked */\n      0x08\n      0x00\n      swap1\n      sload\n      swap1\n      0x0100\n      exp\n      swap1\n      div\n      0xff\n      and\n        /* \"LoadManager.sol\":3946:3953  !locked */\n      iszero\n        /* \"LoadManager.sol\":3938:3968  require(!locked, 'Reentrancy') */\n      tag_198\n      jumpi\n      mload(0x40)\n      0x08c379a000000000000000000000000000000000000000000000000000000000\n      dup2\n      mstore\n      0x04\n      add\n      tag_199\n      swap1\n      tag_113\n      jump\t// in\n    tag_199:\n      mload(0x40)\n      dup1\n      swap2\n      sub\n      swap1\n      revert\n    tag_198:\n        /* \"LoadManager.sol\":3984:3988  true */\n      0x01\n        /* \"LoadManager.sol\":3975:3981  locked */\n      0x08\n      0x00\n        /* \"LoadManager.sol\":3975:3988  locked = true */\n      0x0100\n      exp\n      dup2\n      sload\n      dup2\n      0xff\n      mul\n      not\n      and\n      swap1\n      dup4\n      iszero\n      iszero\n      mul\n      or\n      swap1\n      sstore\n      pop\n        /* \"LoadManager.sol\":6679:6690  borrowCount */\n      0x0a\n        /* \"LoadManager.sol\":6679:6702  borrowCount[msg.sender] */\n      0x00\n        /* \"LoadManager.sol\":6691:6701  msg.sender */\n      caller\n        /* \"LoadManager.sol\":6679:6702  borrowCount[msg.sender] */\n      0xffffffffffffffffffffffffffffffffffffffff\n      and\n      0xffffffffffffffffffffffffffffffffffffffff\n      and\n      dup2\n      mstore\n      0x20\n      add\n      swap1\n      dup2\n      mstore\n      0x20\n      add\n      0x00\n      keccak256\n      0x00\n        /* \"LoadManager.sol\":6679:6704  borrowCount[msg.sender]++ */\n      dup2\n      sload\n      dup1\n      swap3\n      swap2\n      swap1\n      tag_201\n      swap1\n      tag_202\n      jump\t// in\n    tag_201:\n      swap2\n      swap1\n      pop\n      sstore\n      pop\n        /* \"LoadManager.sol\":6777:6783  amount */\n      dup4\n        /* \"LoadManager.sol\":6750:6761  netPosition */\n      0x0d\n        /* \"LoadManager.sol\":6750:6773  netPosition[msg.sender] */\n      0x00\n        /* \"LoadManager.sol\":6762:6772  msg.sender */\n      caller\n        /* \"LoadManager.sol\":6750:6773  netPosition[msg.sender] */\n      0xffffffffffffffffffffffffffffffffffffffff\n      and\n      0xffffffffffffffffffffffffffffffffffffffff\n      and\n      dup2\n      mstore\n      0x20\n      add\n      swap1\n      dup2\n      mstore\n      0x20\n      add\n      0x00\n      keccak256\n      0x00\n        /* \"LoadManager.sol\":6750:6783  netPosition[msg.sender] -= amount */\n      dup3\n      dup3\n      sload\n      tag_203\n      swap2\n      swap1\n      tag_161\n      jump\t// in\n    tag_203:\n      swap3\n      pop\n      pop\n      dup2\n      swap1\n      sstore\n      pop\n        /* \"LoadManager.sol\":6908:6924  uint256 _dueDate */\n      0x00\n        /* \"LoadManager.sol\":6955:6961  604800 */\n      0x093a80\n        /* \"LoadManager.sol\":6946:6952  _weeks */\n      dup7\n        /* \"LoadManager.sol\":6946:6961  _weeks * 604800 */\n      tag_204\n      swap2\n      swap1\n      tag_205\n      jump\t// in\n    tag_204:\n        /* \"LoadManager.sol\":6927:6942  block.timestamp */\n      timestamp\n        /* \"LoadManager.sol\":6927:6962  block.timestamp + (_weeks * 604800) */\n      tag_206\n      swap2\n      swap1\n      tag_207\n      jump\t// in\n    tag_206:\n        /* \"LoadManager.sol\":6908:6962  uint256 _dueDate = block.timestamp + (_weeks * 604800) */\n      swap1\n      pop\n        /* \"LoadManager.sol\":7016:7027  uint256 APY */\n      0x00\n        /* \"LoadManager.sol\":7047:7049  24 */\n      0x18\n        /* \"LoadManager.sol\":7038:7044  _weeks */\n      dup8\n        /* \"LoadManager.sol\":7038:7049  _weeks < 24 */\n      lt\n        /* \"LoadManager.sol\":7034:7156  if (_weeks < 24) {... */\n      iszero\n      tag_208\n      jumpi\n        /* \"LoadManager.sol\":7068:7069  7 */\n      0x07\n        /* \"LoadManager.sol\":7062:7069  APY = 7 */\n      swap1\n      pop\n        /* \"LoadManager.sol\":7034:7156  if (_weeks < 24) {... */\n      jump(tag_209)\n    tag_208:\n        /* \"LoadManager.sol\":7097:7099  24 */\n      0x18\n        /* \"LoadManager.sol\":7087:7093  _weeks */\n      dup8\n        /* \"LoadManager.sol\":7087:7099  _weeks >= 24 */\n      lt\n      iszero\n        /* \"LoadManager.sol\":7087:7115  _weeks >= 24 && _weeks < 104 */\n      dup1\n      iszero\n      tag_210\n      jumpi\n      pop\n        /* \"LoadManager.sol\":7112:7115  104 */\n      0x68\n        /* \"LoadManager.sol\":7103:7109  _weeks */\n      dup8\n        /* \"LoadManager.sol\":7103:7115  _weeks < 104 */\n      lt\n        /* \"LoadManager.sol\":7087:7115  _weeks >= 24 && _weeks < 104 */\n    tag_210:\n        /* \"LoadManager.sol\":7083:7156  if (_weeks >= 24 && _weeks < 104) {... */\n      iszero\n      tag_211\n      jumpi\n        /* \"LoadManager.sol\":7134:7135  6 */\n      0x06\n        /* \"LoadManager.sol\":7128:7135  APY = 6 */\n      swap1\n      pop\n        /* \"LoadManager.sol\":7083:7156  if (_weeks >= 24 && _weeks < 104) {... */\n      jump(tag_212)\n    tag_211:\n        /* \"LoadManager.sol\":7155:7156  5 */\n      0x05\n        /* \"LoadManager.sol\":7149:7156  APY = 5 */\n      swap1\n      pop\n        /* \"LoadManager.sol\":7083:7156  if (_weeks >= 24 && _weeks < 104) {... */\n    tag_212:\n        /* \"LoadManager.sol\":7034:7156  if (_weeks < 24) {... */\n    tag_209:\n        /* \"LoadManager.sol\":7227:7249  uint256 _paybackAmount */\n      0x00\n        /* \"LoadManager.sol\":7289:7297  100 * 52 */\n      0x1450\n        /* \"LoadManager.sol\":7278:7284  _weeks */\n      dup9\n        /* \"LoadManager.sol\":7272:7275  APY */\n      dup4\n        /* \"LoadManager.sol\":7263:7269  amount */\n      dup10\n        /* \"LoadManager.sol\":7263:7275  amount * APY */\n      tag_213\n      swap2\n      swap1\n      tag_205\n      jump\t// in\n    tag_213:\n        /* \"LoadManager.sol\":7263:7284  amount * APY * _weeks */\n      tag_214\n      swap2\n      swap1\n      tag_205\n      jump\t// in\n    tag_214:\n        /* \"LoadManager.sol\":7262:7298  (amount * APY * _weeks) / (100 * 52) */\n      tag_215\n      swap2\n      swap1\n      tag_216\n      jump\t// in\n    tag_215:\n        /* \"LoadManager.sol\":7252:7258  amount */\n      dup8\n        /* \"LoadManager.sol\":7252:7299  amount + ((amount * APY * _weeks) / (100 * 52)) */\n      tag_217\n      swap2\n      swap1\n      tag_207\n      jump\t// in\n    tag_217:\n        /* \"LoadManager.sol\":7227:7299  uint256 _paybackAmount = amount + ((amount * APY * _weeks) / (100 * 52)) */\n      swap1\n      pop\n        /* \"LoadManager.sol\":7360:7368  Borrower */\n      0x09\n        /* \"LoadManager.sol\":7360:7380  Borrower[msg.sender] */\n      0x00\n        /* \"LoadManager.sol\":7369:7379  msg.sender */\n      caller\n        /* \"LoadManager.sol\":7360:7380  Borrower[msg.sender] */\n      0xffffffffffffffffffffffffffffffffffffffff\n      and\n      0xffffffffffffffffffffffffffffffffffffffff\n      and\n      dup2\n      mstore\n      0x20\n      add\n      swap1\n      dup2\n      mstore\n      0x20\n      add\n      0x00\n      keccak256\n        /* \"LoadManager.sol\":7394:7704  borrowInfo({... */\n      mload(0x40)\n      dup1\n      0x0100\n      add\n      0x40\n      mstore\n      dup1\n        /* \"LoadManager.sol\":7427:7442  block.timestamp */\n      timestamp\n        /* \"LoadManager.sol\":7394:7704  borrowInfo({... */\n      dup2\n      mstore\n      0x20\n      add\n        /* \"LoadManager.sol\":7462:7463  0 */\n      0x00\n        /* \"LoadManager.sol\":7394:7704  borrowInfo({... */\n      dup2\n      mstore\n      0x20\n      add\n        /* \"LoadManager.sol\":7549:7550  1 */\n      0x01\n        /* \"LoadManager.sol\":7518:7526  Borrower */\n      0x09\n        /* \"LoadManager.sol\":7518:7538  Borrower[msg.sender] */\n      0x00\n        /* \"LoadManager.sol\":7527:7537  msg.sender */\n      caller\n        /* \"LoadManager.sol\":7518:7538  Borrower[msg.sender] */\n      0xffffffffffffffffffffffffffffffffffffffff\n      and\n      0xffffffffffffffffffffffffffffffffffffffff\n      and\n      dup2\n      mstore\n      0x20\n      add\n      swap1\n      dup2\n      mstore\n      0x20\n      add\n      0x00\n      keccak256\n        /* \"LoadManager.sol\":7518:7545  Borrower[msg.sender].length */\n      dup1\n      sload\n      swap1\n      pop\n        /* \"LoadManager.sol\":7510:7550  uint256(Borrower[msg.sender].length) + 1 */\n      tag_218\n      swap2\n      swap1\n      tag_207\n      jump\t// in\n    tag_218:\n        /* \"LoadManager.sol\":7394:7704  borrowInfo({... */\n      dup2\n      mstore\n      0x20\n      add\n      mload(0x40)\n      dup1\n      0x40\n      add\n      0x40\n      mstore\n      dup1\n      0x06\n      dup2\n      mstore\n      0x20\n      add\n      0x4163746976650000000000000000000000000000000000000000000000000000\n      dup2\n      mstore\n      pop\n      dup2\n      mstore\n      0x20\n      add\n        /* \"LoadManager.sol\":7596:7604  _dueDate */\n      dup6\n        /* \"LoadManager.sol\":7394:7704  borrowInfo({... */\n      dup2\n      mstore\n      0x20\n      add\n        /* \"LoadManager.sol\":7620:7623  APY */\n      dup5\n        /* \"LoadManager.sol\":7394:7704  borrowInfo({... */\n      dup2\n      mstore\n      0x20\n      add\n        /* \"LoadManager.sol\":7648:7654  amount */\n      dup10\n        /* \"LoadManager.sol\":7394:7704  borrowInfo({... */\n      dup2\n      mstore\n      0x20\n      add\n        /* \"LoadManager.sol\":7680:7694  _paybackAmount */\n      dup4\n        /* \"LoadManager.sol\":7394:7704  borrowInfo({... */\n      dup2\n      mstore\n      pop\n        /* \"LoadManager.sol\":7360:7711  Borrower[msg.sender].push(... */\n      swap1\n      dup1\n      0x01\n      dup2\n      sload\n      add\n      dup1\n      dup3\n      sstore\n      dup1\n      swap2\n      pop\n      pop\n      0x01\n      swap1\n      sub\n      swap1\n      0x00\n      mstore\n      keccak256(0x00, 0x20)\n      swap1\n      0x08\n      mul\n      add\n      0x00\n      swap1\n      swap2\n      swap1\n      swap2\n      swap1\n      swap2\n      pop\n      0x00\n      dup3\n      add\n      mload\n      dup2\n      0x00\n      add\n      sstore\n      0x20\n      dup3\n      add\n      mload\n      dup2\n      0x01\n      add\n      sstore\n      0x40\n      dup3\n      add\n      mload\n      dup2\n      0x02\n      add\n      sstore\n      0x60\n      dup3\n      add\n      mload\n      dup2\n      0x03\n      add\n      swap1\n      dup2\n      tag_220\n      swap2\n      swap1\n      tag_221\n      jump\t// in\n    tag_220:\n      pop\n      0x80\n      dup3\n      add\n      mload\n      dup2\n      0x04\n      add\n      sstore\n      0xa0\n      dup3\n      add\n      mload\n      dup2\n      0x05\n      add\n      sstore\n      0xc0\n      dup3\n      add\n      mload\n      dup2\n      0x06\n      add\n      sstore\n      0xe0\n      dup3\n      add\n      mload\n      dup2\n      0x07\n      add\n      sstore\n      pop\n      pop\n        /* \"LoadManager.sol\":7780:7841  checkCategoryRegistration(userBorrowersList, userLendersList) */\n      tag_222\n        /* \"LoadManager.sol\":7806:7823  userBorrowersList */\n      0x02\n        /* \"LoadManager.sol\":7825:7840  userLendersList */\n      0x03\n        /* \"LoadManager.sol\":7780:7805  checkCategoryRegistration */\n      tag_223\n        /* \"LoadManager.sol\":7780:7841  checkCategoryRegistration(userBorrowersList, userLendersList) */\n      jump\t// in\n    tag_222:\n        /* \"LoadManager.sol\":7867:7884  userBorrowersList */\n      0x02\n        /* \"LoadManager.sol\":7867:7891  userBorrowersList.length */\n      dup1\n      sload\n      swap1\n      pop\n        /* \"LoadManager.sol\":7848:7864  borrowersCounter */\n      0x04\n        /* \"LoadManager.sol\":7848:7891  borrowersCounter = userBorrowersList.length */\n      dup2\n      swap1\n      sstore\n      pop\n        /* \"LoadManager.sol\":7945:7957  bool success */\n      0x00\n        /* \"LoadManager.sol\":7963:7973  msg.sender */\n      caller\n        /* \"LoadManager.sol\":7963:7978  msg.sender.call */\n      0xffffffffffffffffffffffffffffffffffffffff\n      and\n        /* \"LoadManager.sol\":7987:7993  amount */\n      dup9\n        /* \"LoadManager.sol\":7963:7999  msg.sender.call{ value: amount }('') */\n      mload(0x40)\n      tag_224\n      swap1\n      tag_129\n      jump\t// in\n    tag_224:\n      0x00\n      mload(0x40)\n      dup1\n      dup4\n      sub\n      dup2\n      dup6\n      dup8\n      gas\n      call\n      swap3\n      pop\n      pop\n      pop\n      returndatasize\n      dup1\n      0x00\n      dup2\n      eq\n      tag_227\n      jumpi\n      mload(0x40)\n      swap2\n      pop\n      and(add(returndatasize, 0x3f), not(0x1f))\n      dup3\n      add\n      0x40\n      mstore\n      returndatasize\n      dup3\n      mstore\n      returndatasize\n      0x00\n      0x20\n      dup5\n      add\n      returndatacopy\n      jump(tag_226)\n    tag_227:\n      0x60\n      swap2\n      pop\n    tag_226:\n      pop\n        /* \"LoadManager.sol\":7944:7999  (bool success, ) = msg.sender.call{ value: amount }('') */\n      pop\n      swap1\n      pop\n        /* \"LoadManager.sol\":8014:8021  success */\n      dup1\n        /* \"LoadManager.sol\":8006:8044  require(success, 'Transaction failed') */\n      tag_228\n      jumpi\n      mload(0x40)\n      0x08c379a000000000000000000000000000000000000000000000000000000000\n      dup2\n      mstore\n      0x04\n      add\n      tag_229\n      swap1\n      tag_135\n      jump\t// in\n    tag_229:\n      mload(0x40)\n      dup1\n      swap2\n      sub\n      swap1\n      revert\n    tag_228:\n        /* \"LoadManager.sol\":6672:8048  {... */\n      pop\n      pop\n      pop\n      pop\n        /* \"LoadManager.sol\":4012:4017  false */\n      0x00\n        /* \"LoadManager.sol\":4003:4009  locked */\n      0x08\n      0x00\n        /* \"LoadManager.sol\":4003:4017  locked = false */\n      0x0100\n      exp\n      dup2\n      sload\n      dup2\n      0xff\n      mul\n      not\n      and\n      swap1\n      dup4\n      iszero\n      iszero\n      mul\n      or\n      swap1\n      sstore\n      pop\n        /* \"LoadManager.sol\":3642:3643  _ */\n      pop\n        /* \"LoadManager.sol\":3512:3513  _ */\n      pop\n        /* \"LoadManager.sol\":6468:8048  function openBorrow(... */\n      pop\n      pop\n      pop\n      jump\t// out\n        /* \"LoadManager.sol\":4876:5114  function updateInterestMatured() public returns (uint256) {... */\n    tag_49:\n        /* \"LoadManager.sol\":4925:4932  uint256 */\n      0x00\n        /* \"LoadManager.sol\":4941:4962  uint256 totalInterest */\n      0x00\n        /* \"LoadManager.sol\":4965:5017  Lender.calculateInterestMatured(msg.sender, lendAPY) */\n      tag_231\n        /* \"LoadManager.sol\":4997:5007  msg.sender */\n      caller\n        /* \"LoadManager.sol\":5009:5016  lendAPY */\n      sload(0x06)\n        /* \"LoadManager.sol\":4965:4971  Lender */\n      0x0b\n        /* \"LoadManager.sol\":4965:4996  Lender.calculateInterestMatured */\n      tag_232\n      swap1\n        /* \"LoadManager.sol\":4965:5017  Lender.calculateInterestMatured(msg.sender, lendAPY) */\n      swap3\n      swap2\n      swap1\n      0xffffffff\n      and\n      jump\t// in\n    tag_231:\n        /* \"LoadManager.sol\":4941:5017  uint256 totalInterest = Lender.calculateInterestMatured(msg.sender, lendAPY) */\n      swap1\n      pop\n        /* \"LoadManager.sol\":5054:5067  totalInterest */\n      dup1\n        /* \"LoadManager.sol\":5024:5039  interestMatured */\n      0x0c\n        /* \"LoadManager.sol\":5024:5051  interestMatured[msg.sender] */\n      0x00\n        /* \"LoadManager.sol\":5040:5050  msg.sender */\n      caller\n        /* \"LoadManager.sol\":5024:5051  interestMatured[msg.sender] */\n      0xffffffffffffffffffffffffffffffffffffffff\n      and\n      0xffffffffffffffffffffffffffffffffffffffff\n      and\n      dup2\n      mstore\n      0x20\n      add\n      swap1\n      dup2\n      mstore\n      0x20\n      add\n      0x00\n      keccak256\n        /* \"LoadManager.sol\":5024:5067  interestMatured[msg.sender] = totalInterest */\n      dup2\n      swap1\n      sstore\n      pop\n        /* \"LoadManager.sol\":5081:5096  interestMatured */\n      0x0c\n        /* \"LoadManager.sol\":5081:5108  interestMatured[msg.sender] */\n      0x00\n        /* \"LoadManager.sol\":5097:5107  msg.sender */\n      caller\n        /* \"LoadManager.sol\":5081:5108  interestMatured[msg.sender] */\n      0xffffffffffffffffffffffffffffffffffffffff\n      and\n      0xffffffffffffffffffffffffffffffffffffffff\n      and\n      dup2\n      mstore\n      0x20\n      add\n      swap1\n      dup2\n      mstore\n      0x20\n      add\n      0x00\n      keccak256\n      sload\n        /* \"LoadManager.sol\":5074:5108  return interestMatured[msg.sender] */\n      swap2\n      pop\n      pop\n        /* \"LoadManager.sol\":4876:5114  function updateInterestMatured() public returns (uint256) {... */\n      swap1\n      jump\t// out\n        /* \"LoadManager.sol\":2341:2448  function getUserBorrowerList() public view returns (address[] memory) {... */\n    tag_53:\n        /* \"LoadManager.sol\":2393:2409  address[] memory */\n      0x60\n        /* \"LoadManager.sol\":2425:2442  userBorrowersList */\n      0x02\n        /* \"LoadManager.sol\":2418:2442  return userBorrowersList */\n      dup1\n      sload\n      dup1\n      0x20\n      mul\n      0x20\n      add\n      mload(0x40)\n      swap1\n      dup2\n      add\n      0x40\n      mstore\n      dup1\n      swap3\n      swap2\n      swap1\n      dup2\n      dup2\n      mstore\n      0x20\n      add\n      dup3\n      dup1\n      sload\n      dup1\n      iszero\n      tag_234\n      jumpi\n      0x20\n      mul\n      dup3\n      add\n      swap2\n      swap1\n      0x00\n      mstore\n      keccak256(0x00, 0x20)\n      swap1\n    tag_235:\n      dup2\n      0x00\n      swap1\n      sload\n      swap1\n      0x0100\n      exp\n      swap1\n      div\n      0xffffffffffffffffffffffffffffffffffffffff\n      and\n      0xffffffffffffffffffffffffffffffffffffffff\n      and\n      dup2\n      mstore\n      0x20\n      add\n      swap1\n      0x01\n      add\n      swap1\n      dup1\n      dup4\n      gt\n      tag_235\n      jumpi\n    tag_234:\n      pop\n      pop\n      pop\n      pop\n      pop\n      swap1\n      pop\n        /* \"LoadManager.sol\":2341:2448  function getUserBorrowerList() public view returns (address[] memory) {... */\n      swap1\n      jump\t// out\n        /* \"LoadManager.sol\":1737:1763  uint256 public lendAPY = 3 */\n    tag_58:\n      sload(0x06)\n      dup2\n      jump\t// out\n        /* \"LoadManager.sol\":1869:1970  function getContractBalance() public view returns (uint256) {... */\n    tag_62:\n        /* \"LoadManager.sol\":1920:1927  uint256 */\n      0x00\n        /* \"LoadManager.sol\":1943:1964  address(this).balance */\n      selfbalance\n        /* \"LoadManager.sol\":1936:1964  return address(this).balance */\n      swap1\n      pop\n        /* \"LoadManager.sol\":1869:1970  function getContractBalance() public view returns (uint256) {... */\n      swap1\n      jump\t// out\n        /* \"LoadManager.sol\":2029:2074  mapping(address => int256) public borrowCount */\n    tag_67:\n      mstore(0x20, 0x0a)\n      dup1\n      0x00\n      mstore\n      keccak256(0x00, 0x40)\n      0x00\n      swap2\n      pop\n      swap1\n      pop\n      sload\n      dup2\n      jump\t// out\n        /* \"LoadManager.sol\":1526:1546  address public owner */\n    tag_72:\n      0x00\n      0x00\n      swap1\n      sload\n      swap1\n      0x0100\n      exp\n      swap1\n      div\n      0xffffffffffffffffffffffffffffffffffffffff\n      and\n      dup2\n      jump\t// out\n        /* \"LoadManager.sol\":4372:4866  function lend() public payable checkMinimalLend {... */\n    tag_76:\n        /* \"LoadManager.sol\":3710:3719  0.1 ether */\n      0x016345785d8a0000\n        /* \"LoadManager.sol\":3698:3707  msg.value */\n      callvalue\n        /* \"LoadManager.sol\":3698:3719  msg.value > 0.1 ether */\n      gt\n        /* \"LoadManager.sol\":3690:3747  require(msg.value > 0.1 ether, 'Minimal lend is 0.1 Eth') */\n      tag_238\n      jumpi\n      mload(0x40)\n      0x08c379a000000000000000000000000000000000000000000000000000000000\n      dup2\n      mstore\n      0x04\n      add\n      tag_239\n      swap1\n      tag_240\n      jump\t// in\n    tag_239:\n      mload(0x40)\n      dup1\n      swap2\n      sub\n      swap1\n      revert\n    tag_238:\n        /* \"LoadManager.sol\":4454:4463  msg.value */\n      callvalue\n        /* \"LoadManager.sol\":4427:4438  netPosition */\n      0x0d\n        /* \"LoadManager.sol\":4427:4450  netPosition[msg.sender] */\n      0x00\n        /* \"LoadManager.sol\":4439:4449  msg.sender */\n      caller\n        /* \"LoadManager.sol\":4427:4450  netPosition[msg.sender] */\n      0xffffffffffffffffffffffffffffffffffffffff\n      and\n      0xffffffffffffffffffffffffffffffffffffffff\n      and\n      dup2\n      mstore\n      0x20\n      add\n      swap1\n      dup2\n      mstore\n      0x20\n      add\n      0x00\n      keccak256\n      0x00\n        /* \"LoadManager.sol\":4427:4463  netPosition[msg.sender] += msg.value */\n      dup3\n      dup3\n      sload\n      tag_242\n      swap2\n      swap1\n      tag_207\n      jump\t// in\n    tag_242:\n      swap3\n      pop\n      pop\n      dup2\n      swap1\n      sstore\n      pop\n        /* \"LoadManager.sol\":4470:4531  checkCategoryRegistration(userLendersList, userBorrowersList) */\n      tag_243\n        /* \"LoadManager.sol\":4496:4511  userLendersList */\n      0x03\n        /* \"LoadManager.sol\":4513:4530  userBorrowersList */\n      0x02\n        /* \"LoadManager.sol\":4470:4495  checkCategoryRegistration */\n      tag_223\n        /* \"LoadManager.sol\":4470:4531  checkCategoryRegistration(userLendersList, userBorrowersList) */\n      jump\t// in\n    tag_243:\n        /* \"LoadManager.sol\":4555:4570  userLendersList */\n      0x03\n        /* \"LoadManager.sol\":4555:4577  userLendersList.length */\n      dup1\n      sload\n      swap1\n      pop\n        /* \"LoadManager.sol\":4538:4552  lendersCounter */\n      0x05\n        /* \"LoadManager.sol\":4538:4577  lendersCounter = userLendersList.length */\n      dup2\n      swap1\n      sstore\n      pop\n        /* \"LoadManager.sol\":4618:4624  Lender */\n      0x0b\n        /* \"LoadManager.sol\":4618:4636  Lender[msg.sender] */\n      0x00\n        /* \"LoadManager.sol\":4625:4635  msg.sender */\n      caller\n        /* \"LoadManager.sol\":4618:4636  Lender[msg.sender] */\n      0xffffffffffffffffffffffffffffffffffffffff\n      and\n      0xffffffffffffffffffffffffffffffffffffffff\n      and\n      dup2\n      mstore\n      0x20\n      add\n      swap1\n      dup2\n      mstore\n      0x20\n      add\n      0x00\n      keccak256\n        /* \"LoadManager.sol\":4650:4793  lendInfo({... */\n      mload(0x40)\n      dup1\n      0x60\n      add\n      0x40\n      mstore\n      dup1\n        /* \"LoadManager.sol\":4715:4716  1 */\n      0x01\n        /* \"LoadManager.sol\":4686:4692  Lender */\n      0x0b\n        /* \"LoadManager.sol\":4686:4704  Lender[msg.sender] */\n      0x00\n        /* \"LoadManager.sol\":4693:4703  msg.sender */\n      caller\n        /* \"LoadManager.sol\":4686:4704  Lender[msg.sender] */\n      0xffffffffffffffffffffffffffffffffffffffff\n      and\n      0xffffffffffffffffffffffffffffffffffffffff\n      and\n      dup2\n      mstore\n      0x20\n      add\n      swap1\n      dup2\n      mstore\n      0x20\n      add\n      0x00\n      keccak256\n        /* \"LoadManager.sol\":4686:4711  Lender[msg.sender].length */\n      dup1\n      sload\n      swap1\n      pop\n        /* \"LoadManager.sol\":4678:4716  uint256(Lender[msg.sender].length) + 1 */\n      tag_244\n      swap2\n      swap1\n      tag_207\n      jump\t// in\n    tag_244:\n        /* \"LoadManager.sol\":4650:4793  lendInfo({... */\n      dup2\n      mstore\n      0x20\n      add\n        /* \"LoadManager.sol\":4740:4755  block.timestamp */\n      timestamp\n        /* \"LoadManager.sol\":4650:4793  lendInfo({... */\n      dup2\n      mstore\n      0x20\n      add\n        /* \"LoadManager.sol\":4774:4783  msg.value */\n      callvalue\n        /* \"LoadManager.sol\":4650:4793  lendInfo({... */\n      dup2\n      mstore\n      pop\n        /* \"LoadManager.sol\":4618:4800  Lender[msg.sender].push(... */\n      swap1\n      dup1\n      0x01\n      dup2\n      sload\n      add\n      dup1\n      dup3\n      sstore\n      dup1\n      swap2\n      pop\n      pop\n      0x01\n      swap1\n      sub\n      swap1\n      0x00\n      mstore\n      keccak256(0x00, 0x20)\n      swap1\n      0x03\n      mul\n      add\n      0x00\n      swap1\n      swap2\n      swap1\n      swap2\n      swap1\n      swap2\n      pop\n      0x00\n      dup3\n      add\n      mload\n      dup2\n      0x00\n      add\n      sstore\n      0x20\n      dup3\n      add\n      mload\n      dup2\n      0x01\n      add\n      sstore\n      0x40\n      dup3\n      add\n      mload\n      dup2\n      0x02\n      add\n      sstore\n      pop\n      pop\n        /* \"LoadManager.sol\":4812:4860  lendDone(msg.sender, msg.value, block.timestamp) */\n      0xf6285a60c92fd2767bc48a572b64940a62be26cb7c523e64bf3bd75a82062559\n        /* \"LoadManager.sol\":4821:4831  msg.sender */\n      caller\n        /* \"LoadManager.sol\":4833:4842  msg.value */\n      callvalue\n        /* \"LoadManager.sol\":4844:4859  block.timestamp */\n      timestamp\n        /* \"LoadManager.sol\":4812:4860  lendDone(msg.sender, msg.value, block.timestamp) */\n      mload(0x40)\n      tag_246\n      swap4\n      swap3\n      swap2\n      swap1\n      tag_182\n      jump\t// in\n    tag_246:\n      mload(0x40)\n      dup1\n      swap2\n      sub\n      swap1\n      log1\n        /* \"LoadManager.sol\":4372:4866  function lend() public payable checkMinimalLend {... */\n      jump\t// out\n        /* \"LoadManager.sol\":1976:2024  mapping(address => borrowInfo[]) public Borrower */\n    tag_81:\n      mstore(0x20, 0x09)\n      dup2\n      0x00\n      mstore\n      keccak256(0x00, 0x40)\n      dup2\n      dup2\n      sload\n      dup2\n      lt\n      tag_247\n      jumpi\n      0x00\n      dup1\n      revert\n    tag_247:\n      swap1\n      0x00\n      mstore\n      keccak256(0x00, 0x20)\n      swap1\n      0x08\n      mul\n      add\n      0x00\n      swap2\n      pop\n      swap2\n      pop\n      pop\n      dup1\n      0x00\n      add\n      sload\n      swap1\n      dup1\n      0x01\n      add\n      sload\n      swap1\n      dup1\n      0x02\n      add\n      sload\n      swap1\n      dup1\n      0x03\n      add\n      dup1\n      sload\n      tag_249\n      swap1\n      tag_250\n      jump\t// in\n    tag_249:\n      dup1\n      0x1f\n      add\n      0x20\n      dup1\n      swap2\n      div\n      mul\n      0x20\n      add\n      mload(0x40)\n      swap1\n      dup2\n      add\n      0x40\n      mstore\n      dup1\n      swap3\n      swap2\n      swap1\n      dup2\n      dup2\n      mstore\n      0x20\n      add\n      dup3\n      dup1\n      sload\n      tag_251\n      swap1\n      tag_250\n      jump\t// in\n    tag_251:\n      dup1\n      iszero\n      tag_252\n      jumpi\n      dup1\n      0x1f\n      lt\n      tag_253\n      jumpi\n      0x0100\n      dup1\n      dup4\n      sload\n      div\n      mul\n      dup4\n      mstore\n      swap2\n      0x20\n      add\n      swap2\n      jump(tag_252)\n    tag_253:\n      dup3\n      add\n      swap2\n      swap1\n      0x00\n      mstore\n      keccak256(0x00, 0x20)\n      swap1\n    tag_254:\n      dup2\n      sload\n      dup2\n      mstore\n      swap1\n      0x01\n      add\n      swap1\n      0x20\n      add\n      dup1\n      dup4\n      gt\n      tag_254\n      jumpi\n      dup3\n      swap1\n      sub\n      0x1f\n      and\n      dup3\n      add\n      swap2\n    tag_252:\n      pop\n      pop\n      pop\n      pop\n      pop\n      swap1\n      dup1\n      0x04\n      add\n      sload\n      swap1\n      dup1\n      0x05\n      add\n      sload\n      swap1\n      dup1\n      0x06\n      add\n      sload\n      swap1\n      dup1\n      0x07\n      add\n      sload\n      swap1\n      pop\n      dup9\n      jump\t// out\n        /* \"LoadManager.sol\":1703:1732  uint256 public lendersCounter */\n    tag_86:\n      sload(0x05)\n      dup2\n      jump\t// out\n        /* \"LoadManager.sol\":2454:2558  function getUserLendersList() public view returns (address[] memory) {... */\n    tag_90:\n        /* \"LoadManager.sol\":2505:2521  address[] memory */\n      0x60\n        /* \"LoadManager.sol\":2537:2552  userLendersList */\n      0x03\n        /* \"LoadManager.sol\":2530:2552  return userLendersList */\n      dup1\n      sload\n      dup1\n      0x20\n      mul\n      0x20\n      add\n      mload(0x40)\n      swap1\n      dup2\n      add\n      0x40\n      mstore\n      dup1\n      swap3\n      swap2\n      swap1\n      dup2\n      dup2\n      mstore\n      0x20\n      add\n      dup3\n      dup1\n      sload\n      dup1\n      iszero\n      tag_256\n      jumpi\n      0x20\n      mul\n      dup3\n      add\n      swap2\n      swap1\n      0x00\n      mstore\n      keccak256(0x00, 0x20)\n      swap1\n    tag_257:\n      dup2\n      0x00\n      swap1\n      sload\n      swap1\n      0x0100\n      exp\n      swap1\n      div\n      0xffffffffffffffffffffffffffffffffffffffff\n      and\n      0xffffffffffffffffffffffffffffffffffffffff\n      and\n      dup2\n      mstore\n      0x20\n      add\n      swap1\n      0x01\n      add\n      swap1\n      dup1\n      dup4\n      gt\n      tag_257\n      jumpi\n    tag_256:\n      pop\n      pop\n      pop\n      pop\n      pop\n      swap1\n      pop\n        /* \"LoadManager.sol\":2454:2558  function getUserLendersList() public view returns (address[] memory) {... */\n      swap1\n      jump\t// out\n        /* \"LoadManager.sol\":2237:2283  mapping(address => uint256) public netPosition */\n    tag_95:\n      mstore(0x20, 0x0d)\n      dup1\n      0x00\n      mstore\n      keccak256(0x00, 0x40)\n      0x00\n      swap2\n      pop\n      swap1\n      pop\n      sload\n      dup2\n      jump\t// out\n        /* \"LoadManager.sol\":1667:1698  uint256 public borrowersCounter */\n    tag_99:\n      sload(0x04)\n      dup2\n      jump\t// out\n        /* \"LoadManager.sol\":8298:10091  function payBorrow(uint256 borrowNumber) public payable nonReentrant {... */\n    tag_103:\n        /* \"LoadManager.sol\":3947:3953  locked */\n      0x08\n      0x00\n      swap1\n      sload\n      swap1\n      0x0100\n      exp\n      swap1\n      div\n      0xff\n      and\n        /* \"LoadManager.sol\":3946:3953  !locked */\n      iszero\n        /* \"LoadManager.sol\":3938:3968  require(!locked, 'Reentrancy') */\n      tag_259\n      jumpi\n      mload(0x40)\n      0x08c379a000000000000000000000000000000000000000000000000000000000\n      dup2\n      mstore\n      0x04\n      add\n      tag_260\n      swap1\n      tag_113\n      jump\t// in\n    tag_260:\n      mload(0x40)\n      dup1\n      swap2\n      sub\n      swap1\n      revert\n    tag_259:\n        /* \"LoadManager.sol\":3984:3988  true */\n      0x01\n        /* \"LoadManager.sol\":3975:3981  locked */\n      0x08\n      0x00\n        /* \"LoadManager.sol\":3975:3988  locked = true */\n      0x0100\n      exp\n      dup2\n      sload\n      dup2\n      0xff\n      mul\n      not\n      and\n      swap1\n      dup4\n      iszero\n      iszero\n      mul\n      or\n      swap1\n      sstore\n      pop\n        /* \"LoadManager.sol\":8513:8528  bytes('Active') */\n      mload(0x40)\n      dup1\n      0x40\n      add\n      0x40\n      mstore\n      dup1\n      0x06\n      dup2\n      mstore\n      0x20\n      add\n      0x4163746976650000000000000000000000000000000000000000000000000000\n      dup2\n      mstore\n      pop\n        /* \"LoadManager.sol\":8503:8529  keccak256(bytes('Active')) */\n      dup1\n      mload\n      swap1\n      0x20\n      add\n      keccak256\n        /* \"LoadManager.sol\":8457:8465  Borrower */\n      0x09\n        /* \"LoadManager.sol\":8457:8477  Borrower[msg.sender] */\n      0x00\n        /* \"LoadManager.sol\":8466:8476  msg.sender */\n      caller\n        /* \"LoadManager.sol\":8457:8477  Borrower[msg.sender] */\n      0xffffffffffffffffffffffffffffffffffffffff\n      and\n      0xffffffffffffffffffffffffffffffffffffffff\n      and\n      dup2\n      mstore\n      0x20\n      add\n      swap1\n      dup2\n      mstore\n      0x20\n      add\n      0x00\n      keccak256\n        /* \"LoadManager.sol\":8478:8490  borrowNumber */\n      dup3\n        /* \"LoadManager.sol\":8457:8491  Borrower[msg.sender][borrowNumber] */\n      dup2\n      sload\n      dup2\n      lt\n      tag_262\n      jumpi\n      tag_263\n      tag_124\n      jump\t// in\n    tag_263:\n    tag_262:\n      swap1\n      0x00\n      mstore\n      keccak256(0x00, 0x20)\n      swap1\n      0x08\n      mul\n      add\n        /* \"LoadManager.sol\":8457:8497  Borrower[msg.sender][borrowNumber].state */\n      0x03\n      add\n        /* \"LoadManager.sol\":8441:8499  keccak256(bytes(Borrower[msg.sender][borrowNumber].state)) */\n      mload(0x40)\n      tag_265\n      swap2\n      swap1\n      tag_266\n      jump\t// in\n    tag_265:\n      mload(0x40)\n      dup1\n      swap2\n      sub\n      swap1\n      keccak256\n        /* \"LoadManager.sol\":8441:8529  keccak256(bytes(Borrower[msg.sender][borrowNumber].state)) == keccak256(bytes('Active')) */\n      eq\n        /* \"LoadManager.sol\":8425:8573  require(... */\n      tag_267\n      jumpi\n      mload(0x40)\n      0x08c379a000000000000000000000000000000000000000000000000000000000\n      dup2\n      mstore\n      0x04\n      add\n      tag_268\n      swap1\n      tag_269\n      jump\t// in\n    tag_268:\n      mload(0x40)\n      dup1\n      swap2\n      sub\n      swap1\n      revert\n    tag_267:\n        /* \"LoadManager.sol\":8600:8601  0 */\n      0x00\n        /* \"LoadManager.sol\":8588:8597  msg.value */\n      callvalue\n        /* \"LoadManager.sol\":8588:8601  msg.value > 0 */\n      gt\n        /* \"LoadManager.sol\":8580:8635  require(msg.value > 0, 'Repayment must be more than 0') */\n      tag_270\n      jumpi\n      mload(0x40)\n      0x08c379a000000000000000000000000000000000000000000000000000000000\n      dup2\n      mstore\n      0x04\n      add\n      tag_271\n      swap1\n      tag_272\n      jump\t// in\n    tag_271:\n      mload(0x40)\n      dup1\n      swap2\n      sub\n      swap1\n      revert\n    tag_270:\n        /* \"LoadManager.sol\":8665:8673  Borrower */\n      0x09\n        /* \"LoadManager.sol\":8665:8685  Borrower[msg.sender] */\n      0x00\n        /* \"LoadManager.sol\":8674:8684  msg.sender */\n      caller\n        /* \"LoadManager.sol\":8665:8685  Borrower[msg.sender] */\n      0xffffffffffffffffffffffffffffffffffffffff\n      and\n      0xffffffffffffffffffffffffffffffffffffffff\n      and\n      dup2\n      mstore\n      0x20\n      add\n      swap1\n      dup2\n      mstore\n      0x20\n      add\n      0x00\n      keccak256\n        /* \"LoadManager.sol\":8665:8692  Borrower[msg.sender].length */\n      dup1\n      sload\n      swap1\n      pop\n        /* \"LoadManager.sol\":8650:8662  borrowNumber */\n      dup2\n        /* \"LoadManager.sol\":8650:8692  borrowNumber < Borrower[msg.sender].length */\n      lt\n        /* \"LoadManager.sol\":8642:8717  require(borrowNumber < Borrower[msg.sender].length, 'Invalid borrow index') */\n      tag_273\n      jumpi\n      mload(0x40)\n      0x08c379a000000000000000000000000000000000000000000000000000000000\n      dup2\n      mstore\n      0x04\n      add\n      tag_274\n      swap1\n      tag_275\n      jump\t// in\n    tag_274:\n      mload(0x40)\n      dup1\n      swap2\n      sub\n      swap1\n      revert\n    tag_273:\n        /* \"LoadManager.sol\":8798:8806  Borrower */\n      0x09\n        /* \"LoadManager.sol\":8798:8818  Borrower[msg.sender] */\n      0x00\n        /* \"LoadManager.sol\":8807:8817  msg.sender */\n      caller\n        /* \"LoadManager.sol\":8798:8818  Borrower[msg.sender] */\n      0xffffffffffffffffffffffffffffffffffffffff\n      and\n      0xffffffffffffffffffffffffffffffffffffffff\n      and\n      dup2\n      mstore\n      0x20\n      add\n      swap1\n      dup2\n      mstore\n      0x20\n      add\n      0x00\n      keccak256\n        /* \"LoadManager.sol\":8819:8831  borrowNumber */\n      dup2\n        /* \"LoadManager.sol\":8798:8832  Borrower[msg.sender][borrowNumber] */\n      dup2\n      sload\n      dup2\n      lt\n      tag_276\n      jumpi\n      tag_277\n      tag_124\n      jump\t// in\n    tag_277:\n    tag_276:\n      swap1\n      0x00\n      mstore\n      keccak256(0x00, 0x20)\n      swap1\n      0x08\n      mul\n      add\n        /* \"LoadManager.sol\":8798:8840  Borrower[msg.sender][borrowNumber].dueDate */\n      0x04\n      add\n      sload\n        /* \"LoadManager.sol\":8780:8795  block.timestamp */\n      timestamp\n        /* \"LoadManager.sol\":8780:8840  block.timestamp > Borrower[msg.sender][borrowNumber].dueDate */\n      gt\n        /* \"LoadManager.sol\":8776:8941  if (block.timestamp > Borrower[msg.sender][borrowNumber].dueDate) {... */\n      iszero\n      tag_279\n      jumpi\n        /* \"LoadManager.sol\":8903:8933  calculatePenalty(borrowNumber) */\n      tag_280\n        /* \"LoadManager.sol\":8920:8932  borrowNumber */\n      dup2\n        /* \"LoadManager.sol\":8903:8919  calculatePenalty */\n      tag_281\n        /* \"LoadManager.sol\":8903:8933  calculatePenalty(borrowNumber) */\n      jump\t// in\n    tag_280:\n        /* \"LoadManager.sol\":8851:8859  Borrower */\n      0x09\n        /* \"LoadManager.sol\":8851:8871  Borrower[msg.sender] */\n      0x00\n        /* \"LoadManager.sol\":8860:8870  msg.sender */\n      caller\n        /* \"LoadManager.sol\":8851:8871  Borrower[msg.sender] */\n      0xffffffffffffffffffffffffffffffffffffffff\n      and\n      0xffffffffffffffffffffffffffffffffffffffff\n      and\n      dup2\n      mstore\n      0x20\n      add\n      swap1\n      dup2\n      mstore\n      0x20\n      add\n      0x00\n      keccak256\n        /* \"LoadManager.sol\":8872:8884  borrowNumber */\n      dup3\n        /* \"LoadManager.sol\":8851:8885  Borrower[msg.sender][borrowNumber] */\n      dup2\n      sload\n      dup2\n      lt\n      tag_282\n      jumpi\n      tag_283\n      tag_124\n      jump\t// in\n    tag_283:\n    tag_282:\n      swap1\n      0x00\n      mstore\n      keccak256(0x00, 0x20)\n      swap1\n      0x08\n      mul\n      add\n        /* \"LoadManager.sol\":8851:8899  Borrower[msg.sender][borrowNumber].paybackAmount */\n      0x07\n      add\n      0x00\n        /* \"LoadManager.sol\":8851:8933  Borrower[msg.sender][borrowNumber].paybackAmount += calculatePenalty(borrowNumber) */\n      dup3\n      dup3\n      sload\n      tag_285\n      swap2\n      swap1\n      tag_207\n      jump\t// in\n    tag_285:\n      swap3\n      pop\n      pop\n      dup2\n      swap1\n      sstore\n      pop\n        /* \"LoadManager.sol\":8776:8941  if (block.timestamp > Borrower[msg.sender][borrowNumber].dueDate) {... */\n    tag_279:\n        /* \"LoadManager.sol\":9012:9020  Borrower */\n      0x09\n        /* \"LoadManager.sol\":9012:9032  Borrower[msg.sender] */\n      0x00\n        /* \"LoadManager.sol\":9021:9031  msg.sender */\n      caller\n        /* \"LoadManager.sol\":9012:9032  Borrower[msg.sender] */\n      0xffffffffffffffffffffffffffffffffffffffff\n      and\n      0xffffffffffffffffffffffffffffffffffffffff\n      and\n      dup2\n      mstore\n      0x20\n      add\n      swap1\n      dup2\n      mstore\n      0x20\n      add\n      0x00\n      keccak256\n        /* \"LoadManager.sol\":9033:9045  borrowNumber */\n      dup2\n        /* \"LoadManager.sol\":9012:9046  Borrower[msg.sender][borrowNumber] */\n      dup2\n      sload\n      dup2\n      lt\n      tag_286\n      jumpi\n      tag_287\n      tag_124\n      jump\t// in\n    tag_287:\n    tag_286:\n      swap1\n      0x00\n      mstore\n      keccak256(0x00, 0x20)\n      swap1\n      0x08\n      mul\n      add\n        /* \"LoadManager.sol\":9012:9060  Borrower[msg.sender][borrowNumber].paybackAmount */\n      0x07\n      add\n      sload\n        /* \"LoadManager.sol\":9000:9009  msg.value */\n      callvalue\n        /* \"LoadManager.sol\":9000:9060  msg.value > Borrower[msg.sender][borrowNumber].paybackAmount */\n      gt\n        /* \"LoadManager.sol\":8996:9771  if (msg.value > Borrower[msg.sender][borrowNumber].paybackAmount) {... */\n      iszero\n      tag_289\n      jumpi\n        /* \"LoadManager.sol\":9071:9089  uint256 difference */\n      0x00\n        /* \"LoadManager.sol\":9104:9112  Borrower */\n      0x09\n        /* \"LoadManager.sol\":9104:9124  Borrower[msg.sender] */\n      0x00\n        /* \"LoadManager.sol\":9113:9123  msg.sender */\n      caller\n        /* \"LoadManager.sol\":9104:9124  Borrower[msg.sender] */\n      0xffffffffffffffffffffffffffffffffffffffff\n      and\n      0xffffffffffffffffffffffffffffffffffffffff\n      and\n      dup2\n      mstore\n      0x20\n      add\n      swap1\n      dup2\n      mstore\n      0x20\n      add\n      0x00\n      keccak256\n        /* \"LoadManager.sol\":9125:9137  borrowNumber */\n      dup3\n        /* \"LoadManager.sol\":9104:9138  Borrower[msg.sender][borrowNumber] */\n      dup2\n      sload\n      dup2\n      lt\n      tag_290\n      jumpi\n      tag_291\n      tag_124\n      jump\t// in\n    tag_291:\n    tag_290:\n      swap1\n      0x00\n      mstore\n      keccak256(0x00, 0x20)\n      swap1\n      0x08\n      mul\n      add\n        /* \"LoadManager.sol\":9104:9152  Borrower[msg.sender][borrowNumber].paybackAmount */\n      0x07\n      add\n      sload\n        /* \"LoadManager.sol\":9092:9101  msg.value */\n      callvalue\n        /* \"LoadManager.sol\":9092:9152  msg.value - Borrower[msg.sender][borrowNumber].paybackAmount */\n      tag_293\n      swap2\n      swap1\n      tag_161\n      jump\t// in\n    tag_293:\n        /* \"LoadManager.sol\":9071:9152  uint256 difference = msg.value - Borrower[msg.sender][borrowNumber].paybackAmount */\n      swap1\n      pop\n        /* \"LoadManager.sol\":9200:9210  difference */\n      dup1\n        /* \"LoadManager.sol\":9188:9197  msg.value */\n      callvalue\n        /* \"LoadManager.sol\":9188:9210  msg.value - difference */\n      tag_294\n      swap2\n      swap1\n      tag_161\n      jump\t// in\n    tag_294:\n        /* \"LoadManager.sol\":9161:9172  netPosition */\n      0x0d\n        /* \"LoadManager.sol\":9161:9184  netPosition[msg.sender] */\n      0x00\n        /* \"LoadManager.sol\":9173:9183  msg.sender */\n      caller\n        /* \"LoadManager.sol\":9161:9184  netPosition[msg.sender] */\n      0xffffffffffffffffffffffffffffffffffffffff\n      and\n      0xffffffffffffffffffffffffffffffffffffffff\n      and\n      dup2\n      mstore\n      0x20\n      add\n      swap1\n      dup2\n      mstore\n      0x20\n      add\n      0x00\n      keccak256\n      0x00\n        /* \"LoadManager.sol\":9161:9210  netPosition[msg.sender] += msg.value - difference */\n      dup3\n      dup3\n      sload\n      tag_295\n      swap2\n      swap1\n      tag_207\n      jump\t// in\n    tag_295:\n      swap3\n      pop\n      pop\n      dup2\n      swap1\n      sstore\n      pop\n        /* \"LoadManager.sol\":9254:9303  Borrower[msg.sender][borrowNumber].state = 'Paid' */\n      mload(0x40)\n      dup1\n      0x40\n      add\n      0x40\n      mstore\n      dup1\n      0x04\n      dup2\n      mstore\n      0x20\n      add\n      0x5061696400000000000000000000000000000000000000000000000000000000\n      dup2\n      mstore\n      pop\n        /* \"LoadManager.sol\":9254:9262  Borrower */\n      0x09\n        /* \"LoadManager.sol\":9254:9274  Borrower[msg.sender] */\n      0x00\n        /* \"LoadManager.sol\":9263:9273  msg.sender */\n      caller\n        /* \"LoadManager.sol\":9254:9274  Borrower[msg.sender] */\n      0xffffffffffffffffffffffffffffffffffffffff\n      and\n      0xffffffffffffffffffffffffffffffffffffffff\n      and\n      dup2\n      mstore\n      0x20\n      add\n      swap1\n      dup2\n      mstore\n      0x20\n      add\n      0x00\n      keccak256\n        /* \"LoadManager.sol\":9275:9287  borrowNumber */\n      dup4\n        /* \"LoadManager.sol\":9254:9288  Borrower[msg.sender][borrowNumber] */\n      dup2\n      sload\n      dup2\n      lt\n      tag_296\n      jumpi\n      tag_297\n      tag_124\n      jump\t// in\n    tag_297:\n    tag_296:\n      swap1\n      0x00\n      mstore\n      keccak256(0x00, 0x20)\n      swap1\n      0x08\n      mul\n      add\n        /* \"LoadManager.sol\":9254:9294  Borrower[msg.sender][borrowNumber].state */\n      0x03\n      add\n        /* \"LoadManager.sol\":9254:9303  Borrower[msg.sender][borrowNumber].state = 'Paid' */\n      swap1\n      dup2\n      tag_299\n      swap2\n      swap1\n      tag_221\n      jump\t// in\n    tag_299:\n      pop\n        /* \"LoadManager.sol\":9313:9325  bool success */\n      0x00\n        /* \"LoadManager.sol\":9331:9341  msg.sender */\n      caller\n        /* \"LoadManager.sol\":9331:9346  msg.sender.call */\n      0xffffffffffffffffffffffffffffffffffffffff\n      and\n        /* \"LoadManager.sol\":9355:9365  difference */\n      dup3\n        /* \"LoadManager.sol\":9331:9371  msg.sender.call{ value: difference }('') */\n      mload(0x40)\n      tag_300\n      swap1\n      tag_129\n      jump\t// in\n    tag_300:\n      0x00\n      mload(0x40)\n      dup1\n      dup4\n      sub\n      dup2\n      dup6\n      dup8\n      gas\n      call\n      swap3\n      pop\n      pop\n      pop\n      returndatasize\n      dup1\n      0x00\n      dup2\n      eq\n      tag_303\n      jumpi\n      mload(0x40)\n      swap2\n      pop\n      and(add(returndatasize, 0x3f), not(0x1f))\n      dup3\n      add\n      0x40\n      mstore\n      returndatasize\n      dup3\n      mstore\n      returndatasize\n      0x00\n      0x20\n      dup5\n      add\n      returndatacopy\n      jump(tag_302)\n    tag_303:\n      0x60\n      swap2\n      pop\n    tag_302:\n      pop\n        /* \"LoadManager.sol\":9312:9371  (bool success, ) = msg.sender.call{ value: difference }('') */\n      pop\n      swap1\n      pop\n        /* \"LoadManager.sol\":9388:9395  success */\n      dup1\n        /* \"LoadManager.sol\":9380:9418  require(success, 'Transaction failed') */\n      tag_304\n      jumpi\n      mload(0x40)\n      0x08c379a000000000000000000000000000000000000000000000000000000000\n      dup2\n      mstore\n      0x04\n      add\n      tag_305\n      swap1\n      tag_135\n      jump\t// in\n    tag_305:\n      mload(0x40)\n      dup1\n      swap2\n      sub\n      swap1\n      revert\n    tag_304:\n        /* \"LoadManager.sol\":9062:9458  {... */\n      pop\n      pop\n        /* \"LoadManager.sol\":8996:9771  if (msg.value > Borrower[msg.sender][borrowNumber].paybackAmount) {... */\n      jump(tag_306)\n    tag_289:\n        /* \"LoadManager.sol\":9481:9489  Borrower */\n      0x09\n        /* \"LoadManager.sol\":9481:9501  Borrower[msg.sender] */\n      0x00\n        /* \"LoadManager.sol\":9490:9500  msg.sender */\n      caller\n        /* \"LoadManager.sol\":9481:9501  Borrower[msg.sender] */\n      0xffffffffffffffffffffffffffffffffffffffff\n      and\n      0xffffffffffffffffffffffffffffffffffffffff\n      and\n      dup2\n      mstore\n      0x20\n      add\n      swap1\n      dup2\n      mstore\n      0x20\n      add\n      0x00\n      keccak256\n        /* \"LoadManager.sol\":9502:9514  borrowNumber */\n      dup2\n        /* \"LoadManager.sol\":9481:9515  Borrower[msg.sender][borrowNumber] */\n      dup2\n      sload\n      dup2\n      lt\n      tag_307\n      jumpi\n      tag_308\n      tag_124\n      jump\t// in\n    tag_308:\n    tag_307:\n      swap1\n      0x00\n      mstore\n      keccak256(0x00, 0x20)\n      swap1\n      0x08\n      mul\n      add\n        /* \"LoadManager.sol\":9481:9529  Borrower[msg.sender][borrowNumber].paybackAmount */\n      0x07\n      add\n      sload\n        /* \"LoadManager.sol\":9468:9477  msg.value */\n      callvalue\n        /* \"LoadManager.sol\":9468:9529  msg.value == Borrower[msg.sender][borrowNumber].paybackAmount */\n      sub\n        /* \"LoadManager.sol\":9464:9771  if (msg.value == Borrower[msg.sender][borrowNumber].paybackAmount) {... */\n      tag_310\n      jumpi\n        /* \"LoadManager.sol\":9567:9576  msg.value */\n      callvalue\n        /* \"LoadManager.sol\":9540:9551  netPosition */\n      0x0d\n        /* \"LoadManager.sol\":9540:9563  netPosition[msg.sender] */\n      0x00\n        /* \"LoadManager.sol\":9552:9562  msg.sender */\n      caller\n        /* \"LoadManager.sol\":9540:9563  netPosition[msg.sender] */\n      0xffffffffffffffffffffffffffffffffffffffff\n      and\n      0xffffffffffffffffffffffffffffffffffffffff\n      and\n      dup2\n      mstore\n      0x20\n      add\n      swap1\n      dup2\n      mstore\n      0x20\n      add\n      0x00\n      keccak256\n      0x00\n        /* \"LoadManager.sol\":9540:9576  netPosition[msg.sender] += msg.value */\n      dup3\n      dup3\n      sload\n      tag_311\n      swap2\n      swap1\n      tag_207\n      jump\t// in\n    tag_311:\n      swap3\n      pop\n      pop\n      dup2\n      swap1\n      sstore\n      pop\n        /* \"LoadManager.sol\":9585:9634  Borrower[msg.sender][borrowNumber].state = 'Paid' */\n      mload(0x40)\n      dup1\n      0x40\n      add\n      0x40\n      mstore\n      dup1\n      0x04\n      dup2\n      mstore\n      0x20\n      add\n      0x5061696400000000000000000000000000000000000000000000000000000000\n      dup2\n      mstore\n      pop\n        /* \"LoadManager.sol\":9585:9593  Borrower */\n      0x09\n        /* \"LoadManager.sol\":9585:9605  Borrower[msg.sender] */\n      0x00\n        /* \"LoadManager.sol\":9594:9604  msg.sender */\n      caller\n        /* \"LoadManager.sol\":9585:9605  Borrower[msg.sender] */\n      0xffffffffffffffffffffffffffffffffffffffff\n      and\n      0xffffffffffffffffffffffffffffffffffffffff\n      and\n      dup2\n      mstore\n      0x20\n      add\n      swap1\n      dup2\n      mstore\n      0x20\n      add\n      0x00\n      keccak256\n        /* \"LoadManager.sol\":9606:9618  borrowNumber */\n      dup3\n        /* \"LoadManager.sol\":9585:9619  Borrower[msg.sender][borrowNumber] */\n      dup2\n      sload\n      dup2\n      lt\n      tag_312\n      jumpi\n      tag_313\n      tag_124\n      jump\t// in\n    tag_313:\n    tag_312:\n      swap1\n      0x00\n      mstore\n      keccak256(0x00, 0x20)\n      swap1\n      0x08\n      mul\n      add\n        /* \"LoadManager.sol\":9585:9625  Borrower[msg.sender][borrowNumber].state */\n      0x03\n      add\n        /* \"LoadManager.sol\":9585:9634  Borrower[msg.sender][borrowNumber].state = 'Paid' */\n      swap1\n      dup2\n      tag_315\n      swap2\n      swap1\n      tag_221\n      jump\t// in\n    tag_315:\n      pop\n        /* \"LoadManager.sol\":9464:9771  if (msg.value == Borrower[msg.sender][borrowNumber].paybackAmount) {... */\n      jump(tag_316)\n    tag_310:\n        /* \"LoadManager.sol\":9711:9763  revert('Payment is lower than the amount requested') */\n      mload(0x40)\n      0x08c379a000000000000000000000000000000000000000000000000000000000\n      dup2\n      mstore\n      0x04\n      add\n      tag_317\n      swap1\n      tag_318\n      jump\t// in\n    tag_317:\n      mload(0x40)\n      dup1\n      swap2\n      sub\n      swap1\n      revert\n        /* \"LoadManager.sol\":9464:9771  if (msg.value == Borrower[msg.sender][borrowNumber].paybackAmount) {... */\n    tag_316:\n        /* \"LoadManager.sol\":8996:9771  if (msg.value > Borrower[msg.sender][borrowNumber].paybackAmount) {... */\n    tag_306:\n        /* \"LoadManager.sol\":9854:9869  block.timestamp */\n      timestamp\n        /* \"LoadManager.sol\":9809:9817  Borrower */\n      0x09\n        /* \"LoadManager.sol\":9809:9829  Borrower[msg.sender] */\n      0x00\n        /* \"LoadManager.sol\":9818:9828  msg.sender */\n      caller\n        /* \"LoadManager.sol\":9809:9829  Borrower[msg.sender] */\n      0xffffffffffffffffffffffffffffffffffffffff\n      and\n      0xffffffffffffffffffffffffffffffffffffffff\n      and\n      dup2\n      mstore\n      0x20\n      add\n      swap1\n      dup2\n      mstore\n      0x20\n      add\n      0x00\n      keccak256\n        /* \"LoadManager.sol\":9830:9842  borrowNumber */\n      dup3\n        /* \"LoadManager.sol\":9809:9843  Borrower[msg.sender][borrowNumber] */\n      dup2\n      sload\n      dup2\n      lt\n      tag_319\n      jumpi\n      tag_320\n      tag_124\n      jump\t// in\n    tag_320:\n    tag_319:\n      swap1\n      0x00\n      mstore\n      keccak256(0x00, 0x20)\n      swap1\n      0x08\n      mul\n      add\n        /* \"LoadManager.sol\":9809:9851  Borrower[msg.sender][borrowNumber].endDate */\n      0x01\n      add\n        /* \"LoadManager.sol\":9809:9869  Borrower[msg.sender][borrowNumber].endDate = block.timestamp */\n      dup2\n      swap1\n      sstore\n      pop\n        /* \"LoadManager.sol\":9912:10087  borrowRepaid(... */\n      0x54d1b8845ff9c436636b708cde6357819c40d995c0f6a2d794032c96f33c6a43\n        /* \"LoadManager.sol\":9933:9943  msg.sender */\n      caller\n        /* \"LoadManager.sol\":9952:9960  Borrower */\n      0x09\n        /* \"LoadManager.sol\":9952:9972  Borrower[msg.sender] */\n      0x00\n        /* \"LoadManager.sol\":9961:9971  msg.sender */\n      caller\n        /* \"LoadManager.sol\":9952:9972  Borrower[msg.sender] */\n      0xffffffffffffffffffffffffffffffffffffffff\n      and\n      0xffffffffffffffffffffffffffffffffffffffff\n      and\n      dup2\n      mstore\n      0x20\n      add\n      swap1\n      dup2\n      mstore\n      0x20\n      add\n      0x00\n      keccak256\n        /* \"LoadManager.sol\":9973:9985  borrowNumber */\n      dup4\n        /* \"LoadManager.sol\":9952:9986  Borrower[msg.sender][borrowNumber] */\n      dup2\n      sload\n      dup2\n      lt\n      tag_322\n      jumpi\n      tag_323\n      tag_124\n      jump\t// in\n    tag_323:\n    tag_322:\n      swap1\n      0x00\n      mstore\n      keccak256(0x00, 0x20)\n      swap1\n      0x08\n      mul\n      add\n        /* \"LoadManager.sol\":9952:10000  Borrower[msg.sender][borrowNumber].paybackAmount */\n      0x07\n      add\n      sload\n        /* \"LoadManager.sol\":10009:10024  block.timestamp */\n      timestamp\n        /* \"LoadManager.sol\":10033:10041  Borrower */\n      0x09\n        /* \"LoadManager.sol\":10033:10053  Borrower[msg.sender] */\n      0x00\n        /* \"LoadManager.sol\":10042:10052  msg.sender */\n      caller\n        /* \"LoadManager.sol\":10033:10053  Borrower[msg.sender] */\n      0xffffffffffffffffffffffffffffffffffffffff\n      and\n      0xffffffffffffffffffffffffffffffffffffffff\n      and\n      dup2\n      mstore\n      0x20\n      add\n      swap1\n      dup2\n      mstore\n      0x20\n      add\n      0x00\n      keccak256\n        /* \"LoadManager.sol\":10054:10066  borrowNumber */\n      dup6\n        /* \"LoadManager.sol\":10033:10067  Borrower[msg.sender][borrowNumber] */\n      dup2\n      sload\n      dup2\n      lt\n      tag_325\n      jumpi\n      tag_326\n      tag_124\n      jump\t// in\n    tag_326:\n    tag_325:\n      swap1\n      0x00\n      mstore\n      keccak256(0x00, 0x20)\n      swap1\n      0x08\n      mul\n      add\n        /* \"LoadManager.sol\":10033:10080  Borrower[msg.sender][borrowNumber].borrowAmount */\n      0x06\n      add\n      sload\n        /* \"LoadManager.sol\":9912:10087  borrowRepaid(... */\n      mload(0x40)\n      tag_328\n      swap5\n      swap4\n      swap3\n      swap2\n      swap1\n      tag_329\n      jump\t// in\n    tag_328:\n      mload(0x40)\n      dup1\n      swap2\n      sub\n      swap1\n      log1\n        /* \"LoadManager.sol\":4012:4017  false */\n      0x00\n        /* \"LoadManager.sol\":4003:4009  locked */\n      0x08\n      0x00\n        /* \"LoadManager.sol\":4003:4017  locked = false */\n      0x0100\n      exp\n      dup2\n      sload\n      dup2\n      0xff\n      mul\n      not\n      and\n      swap1\n      dup4\n      iszero\n      iszero\n      mul\n      or\n      swap1\n      sstore\n      pop\n        /* \"LoadManager.sol\":8298:10091  function payBorrow(uint256 borrowNumber) public payable nonReentrant {... */\n      pop\n      jump\t// out\n        /* \"LoadManager.sol\":2131:2175  mapping(address => lendInfo[]) public Lender */\n    tag_107:\n      mstore(0x20, 0x0b)\n      dup2\n      0x00\n      mstore\n      keccak256(0x00, 0x40)\n      dup2\n      dup2\n      sload\n      dup2\n      lt\n      tag_330\n      jumpi\n      0x00\n      dup1\n      revert\n    tag_330:\n      swap1\n      0x00\n      mstore\n      keccak256(0x00, 0x20)\n      swap1\n      0x03\n      mul\n      add\n      0x00\n      swap2\n      pop\n      swap2\n      pop\n      pop\n      dup1\n      0x00\n      add\n      sload\n      swap1\n      dup1\n      0x01\n      add\n      sload\n      swap1\n      dup1\n      0x02\n      add\n      sload\n      swap1\n      pop\n      dup4\n      jump\t// out\n        /* \"LoadManager.sol\":2628:3404  function checkCategoryRegistration(address[] storage list, address[] storage list2) internal {... */\n    tag_223:\n        /* \"LoadManager.sol\":2728:2738  bool found */\n      0x00\n        /* \"LoadManager.sol\":2745:2756  bool found2 */\n      0x00\n        /* \"LoadManager.sol\":2828:2837  uint256 i */\n      0x00\n        /* \"LoadManager.sol\":2840:2841  0 */\n      0x00\n        /* \"LoadManager.sol\":2828:2841  uint256 i = 0 */\n      swap1\n      pop\n        /* \"LoadManager.sol\":2823:2957  for (uint256 i = 0; i < list.length; i++) {... */\n    tag_333:\n        /* \"LoadManager.sol\":2847:2851  list */\n      dup5\n        /* \"LoadManager.sol\":2847:2858  list.length */\n      dup1\n      sload\n      swap1\n      pop\n        /* \"LoadManager.sol\":2843:2844  i */\n      dup2\n        /* \"LoadManager.sol\":2843:2858  i < list.length */\n      lt\n        /* \"LoadManager.sol\":2823:2957  for (uint256 i = 0; i < list.length; i++) {... */\n      iszero\n      tag_334\n      jumpi\n        /* \"LoadManager.sol\":2889:2899  msg.sender */\n      caller\n        /* \"LoadManager.sol\":2878:2899  list[i] == msg.sender */\n      0xffffffffffffffffffffffffffffffffffffffff\n      and\n        /* \"LoadManager.sol\":2878:2882  list */\n      dup6\n        /* \"LoadManager.sol\":2883:2884  i */\n      dup3\n        /* \"LoadManager.sol\":2878:2885  list[i] */\n      dup2\n      sload\n      dup2\n      lt\n      tag_336\n      jumpi\n      tag_337\n      tag_124\n      jump\t// in\n    tag_337:\n    tag_336:\n      swap1\n      0x00\n      mstore\n      keccak256(0x00, 0x20)\n      add\n      0x00\n      swap1\n      sload\n      swap1\n      0x0100\n      exp\n      swap1\n      div\n      0xffffffffffffffffffffffffffffffffffffffff\n      and\n        /* \"LoadManager.sol\":2878:2899  list[i] == msg.sender */\n      0xffffffffffffffffffffffffffffffffffffffff\n      and\n      sub\n        /* \"LoadManager.sol\":2874:2950  if (list[i] == msg.sender) {... */\n      tag_339\n      jumpi\n        /* \"LoadManager.sol\":2920:2924  true */\n      0x01\n        /* \"LoadManager.sol\":2912:2924  found = true */\n      swap3\n      pop\n        /* \"LoadManager.sol\":2935:2940  break */\n      jump(tag_334)\n        /* \"LoadManager.sol\":2874:2950  if (list[i] == msg.sender) {... */\n    tag_339:\n        /* \"LoadManager.sol\":2860:2863  i++ */\n      dup1\n      dup1\n      0x01\n      add\n      swap2\n      pop\n      pop\n        /* \"LoadManager.sol\":2823:2957  for (uint256 i = 0; i < list.length; i++) {... */\n      jump(tag_333)\n    tag_334:\n      pop\n        /* \"LoadManager.sol\":3003:3008  found */\n      dup2\n        /* \"LoadManager.sol\":2998:3048  if (!found) {... */\n      tag_340\n      jumpi\n        /* \"LoadManager.sol\":3019:3023  list */\n      dup4\n        /* \"LoadManager.sol\":3029:3039  msg.sender */\n      caller\n        /* \"LoadManager.sol\":3019:3040  list.push(msg.sender) */\n      swap1\n      dup1\n      0x01\n      dup2\n      sload\n      add\n      dup1\n      dup3\n      sstore\n      dup1\n      swap2\n      pop\n      pop\n      0x01\n      swap1\n      sub\n      swap1\n      0x00\n      mstore\n      keccak256(0x00, 0x20)\n      add\n      0x00\n      swap1\n      swap2\n      swap1\n      swap2\n      swap1\n      swap2\n      0x0100\n      exp\n      dup2\n      sload\n      dup2\n      0xffffffffffffffffffffffffffffffffffffffff\n      mul\n      not\n      and\n      swap1\n      dup4\n      0xffffffffffffffffffffffffffffffffffffffff\n      and\n      mul\n      or\n      swap1\n      sstore\n      pop\n        /* \"LoadManager.sol\":2998:3048  if (!found) {... */\n    tag_340:\n        /* \"LoadManager.sol\":3105:3114  uint256 i */\n      0x00\n        /* \"LoadManager.sol\":3117:3118  0 */\n      0x00\n        /* \"LoadManager.sol\":3105:3118  uint256 i = 0 */\n      swap1\n      pop\n        /* \"LoadManager.sol\":3100:3237  for (uint256 i = 0; i < list2.length; i++) {... */\n    tag_342:\n        /* \"LoadManager.sol\":3124:3129  list2 */\n      dup4\n        /* \"LoadManager.sol\":3124:3136  list2.length */\n      dup1\n      sload\n      swap1\n      pop\n        /* \"LoadManager.sol\":3120:3121  i */\n      dup2\n        /* \"LoadManager.sol\":3120:3136  i < list2.length */\n      lt\n        /* \"LoadManager.sol\":3100:3237  for (uint256 i = 0; i < list2.length; i++) {... */\n      iszero\n      tag_343\n      jumpi\n        /* \"LoadManager.sol\":3168:3178  msg.sender */\n      caller\n        /* \"LoadManager.sol\":3156:3178  list2[i] == msg.sender */\n      0xffffffffffffffffffffffffffffffffffffffff\n      and\n        /* \"LoadManager.sol\":3156:3161  list2 */\n      dup5\n        /* \"LoadManager.sol\":3162:3163  i */\n      dup3\n        /* \"LoadManager.sol\":3156:3164  list2[i] */\n      dup2\n      sload\n      dup2\n      lt\n      tag_345\n      jumpi\n      tag_346\n      tag_124\n      jump\t// in\n    tag_346:\n    tag_345:\n      swap1\n      0x00\n      mstore\n      keccak256(0x00, 0x20)\n      add\n      0x00\n      swap1\n      sload\n      swap1\n      0x0100\n      exp\n      swap1\n      div\n      0xffffffffffffffffffffffffffffffffffffffff\n      and\n        /* \"LoadManager.sol\":3156:3178  list2[i] == msg.sender */\n      0xffffffffffffffffffffffffffffffffffffffff\n      and\n      sub\n        /* \"LoadManager.sol\":3152:3230  if (list2[i] == msg.sender) {... */\n      tag_348\n      jumpi\n        /* \"LoadManager.sol\":3200:3204  true */\n      0x01\n        /* \"LoadManager.sol\":3191:3204  found2 = true */\n      swap2\n      pop\n        /* \"LoadManager.sol\":3215:3220  break */\n      jump(tag_343)\n        /* \"LoadManager.sol\":3152:3230  if (list2[i] == msg.sender) {... */\n    tag_348:\n        /* \"LoadManager.sol\":3138:3141  i++ */\n      dup1\n      dup1\n      0x01\n      add\n      swap2\n      pop\n      pop\n        /* \"LoadManager.sol\":3100:3237  for (uint256 i = 0; i < list2.length; i++) {... */\n      jump(tag_342)\n    tag_343:\n      pop\n        /* \"LoadManager.sol\":3324:3329  false */\n      0x00\n        /* \"LoadManager.sol\":3315:3329  found == false */\n      iszero\n      iszero\n        /* \"LoadManager.sol\":3315:3320  found */\n      dup3\n        /* \"LoadManager.sol\":3315:3329  found == false */\n      iszero\n      iszero\n      eq\n        /* \"LoadManager.sol\":3315:3348  found == false && found2 == false */\n      dup1\n      iszero\n      tag_349\n      jumpi\n      pop\n        /* \"LoadManager.sol\":3343:3348  false */\n      0x00\n        /* \"LoadManager.sol\":3333:3348  found2 == false */\n      iszero\n      iszero\n        /* \"LoadManager.sol\":3333:3339  found2 */\n      dup2\n        /* \"LoadManager.sol\":3333:3348  found2 == false */\n      iszero\n      iszero\n      eq\n        /* \"LoadManager.sol\":3315:3348  found == false && found2 == false */\n    tag_349:\n        /* \"LoadManager.sol\":3311:3399  if (found == false && found2 == false) {... */\n      iszero\n      tag_350\n      jumpi\n        /* \"LoadManager.sol\":3359:3374  userAddressList */\n      0x01\n        /* \"LoadManager.sol\":3380:3390  msg.sender */\n      caller\n        /* \"LoadManager.sol\":3359:3391  userAddressList.push(msg.sender) */\n      swap1\n      dup1\n      0x01\n      dup2\n      sload\n      add\n      dup1\n      dup3\n      sstore\n      dup1\n      swap2\n      pop\n      pop\n      0x01\n      swap1\n      sub\n      swap1\n      0x00\n      mstore\n      keccak256(0x00, 0x20)\n      add\n      0x00\n      swap1\n      swap2\n      swap1\n      swap2\n      swap1\n      swap2\n      0x0100\n      exp\n      dup2\n      sload\n      dup2\n      0xffffffffffffffffffffffffffffffffffffffff\n      mul\n      not\n      and\n      swap1\n      dup4\n      0xffffffffffffffffffffffffffffffffffffffff\n      and\n      mul\n      or\n      swap1\n      sstore\n      pop\n        /* \"LoadManager.sol\":3311:3399  if (found == false && found2 == false) {... */\n    tag_350:\n        /* \"LoadManager.sol\":2721:3404  {... */\n      pop\n      pop\n        /* \"LoadManager.sol\":2628:3404  function checkCategoryRegistration(address[] storage list, address[] storage list2) internal {... */\n      pop\n      pop\n      jump\t// out\n        /* \"LoadManager.sol\":408:949  function calculateInterestMatured(... */\n    tag_232:\n        /* \"LoadManager.sol\":563:570  uint256 */\n      0x00\n        /* \"LoadManager.sol\":579:600  uint256 totalInterest */\n      0x00\n        /* \"LoadManager.sol\":667:676  uint256 i */\n      0x00\n        /* \"LoadManager.sol\":679:680  0 */\n      0x00\n        /* \"LoadManager.sol\":667:680  uint256 i = 0 */\n      swap1\n      pop\n        /* \"LoadManager.sol\":662:917  for (uint256 i = 0; i < Lender[user].length; i++) {... */\n    tag_353:\n        /* \"LoadManager.sol\":686:692  Lender */\n      dup6\n        /* \"LoadManager.sol\":686:698  Lender[user] */\n      0x00\n        /* \"LoadManager.sol\":693:697  user */\n      dup7\n        /* \"LoadManager.sol\":686:698  Lender[user] */\n      0xffffffffffffffffffffffffffffffffffffffff\n      and\n      0xffffffffffffffffffffffffffffffffffffffff\n      and\n      dup2\n      mstore\n      0x20\n      add\n      swap1\n      dup2\n      mstore\n      0x20\n      add\n      0x00\n      keccak256\n        /* \"LoadManager.sol\":686:705  Lender[user].length */\n      dup1\n      sload\n      swap1\n      pop\n        /* \"LoadManager.sol\":682:683  i */\n      dup2\n        /* \"LoadManager.sol\":682:705  i < Lender[user].length */\n      lt\n        /* \"LoadManager.sol\":662:917  for (uint256 i = 0; i < Lender[user].length; i++) {... */\n      iszero\n      tag_354\n      jumpi\n        /* \"LoadManager.sol\":751:752  0 */\n      0x00\n        /* \"LoadManager.sol\":725:731  Lender */\n      dup7\n        /* \"LoadManager.sol\":725:737  Lender[user] */\n      0x00\n        /* \"LoadManager.sol\":732:736  user */\n      dup8\n        /* \"LoadManager.sol\":725:737  Lender[user] */\n      0xffffffffffffffffffffffffffffffffffffffff\n      and\n      0xffffffffffffffffffffffffffffffffffffffff\n      and\n      dup2\n      mstore\n      0x20\n      add\n      swap1\n      dup2\n      mstore\n      0x20\n      add\n      0x00\n      keccak256\n        /* \"LoadManager.sol\":738:739  i */\n      dup3\n        /* \"LoadManager.sol\":725:740  Lender[user][i] */\n      dup2\n      sload\n      dup2\n      lt\n      tag_356\n      jumpi\n      tag_357\n      tag_124\n      jump\t// in\n    tag_357:\n    tag_356:\n      swap1\n      0x00\n      mstore\n      keccak256(0x00, 0x20)\n      swap1\n      0x03\n      mul\n      add\n        /* \"LoadManager.sol\":725:747  Lender[user][i].amount */\n      0x02\n      add\n      sload\n        /* \"LoadManager.sol\":725:752  Lender[user][i].amount == 0 */\n      sub\n        /* \"LoadManager.sol\":721:762  if (Lender[user][i].amount == 0) continue */\n      iszero\n        /* \"LoadManager.sol\":754:762  continue */\n      tag_355\n        /* \"LoadManager.sol\":721:762  if (Lender[user][i].amount == 0) continue */\n      jumpi\n        /* \"LoadManager.sol\":894:908  100 * 365 days */\n      0xbbf81e00\n        /* \"LoadManager.sol\":858:864  Lender */\n      dup7\n        /* \"LoadManager.sol\":858:870  Lender[user] */\n      0x00\n        /* \"LoadManager.sol\":865:869  user */\n      dup8\n        /* \"LoadManager.sol\":858:870  Lender[user] */\n      0xffffffffffffffffffffffffffffffffffffffff\n      and\n      0xffffffffffffffffffffffffffffffffffffffff\n      and\n      dup2\n      mstore\n      0x20\n      add\n      swap1\n      dup2\n      mstore\n      0x20\n      add\n      0x00\n      keccak256\n        /* \"LoadManager.sol\":871:872  i */\n      dup3\n        /* \"LoadManager.sol\":858:873  Lender[user][i] */\n      dup2\n      sload\n      dup2\n      lt\n      tag_360\n      jumpi\n      tag_361\n      tag_124\n      jump\t// in\n    tag_361:\n    tag_360:\n      swap1\n      0x00\n      mstore\n      keccak256(0x00, 0x20)\n      swap1\n      0x03\n      mul\n      add\n        /* \"LoadManager.sol\":858:880  Lender[user][i].amount */\n      0x02\n      add\n      sload\n        /* \"LoadManager.sol\":848:855  lendAPY */\n      dup6\n        /* \"LoadManager.sol\":817:823  Lender */\n      dup9\n        /* \"LoadManager.sol\":817:829  Lender[user] */\n      0x00\n        /* \"LoadManager.sol\":824:828  user */\n      dup10\n        /* \"LoadManager.sol\":817:829  Lender[user] */\n      0xffffffffffffffffffffffffffffffffffffffff\n      and\n      0xffffffffffffffffffffffffffffffffffffffff\n      and\n      dup2\n      mstore\n      0x20\n      add\n      swap1\n      dup2\n      mstore\n      0x20\n      add\n      0x00\n      keccak256\n        /* \"LoadManager.sol\":830:831  i */\n      dup5\n        /* \"LoadManager.sol\":817:832  Lender[user][i] */\n      dup2\n      sload\n      dup2\n      lt\n      tag_363\n      jumpi\n      tag_364\n      tag_124\n      jump\t// in\n    tag_364:\n    tag_363:\n      swap1\n      0x00\n      mstore\n      keccak256(0x00, 0x20)\n      swap1\n      0x03\n      mul\n      add\n        /* \"LoadManager.sol\":817:844  Lender[user][i].depositTime */\n      0x01\n      add\n      sload\n        /* \"LoadManager.sol\":799:814  block.timestamp */\n      timestamp\n        /* \"LoadManager.sol\":799:844  block.timestamp - Lender[user][i].depositTime */\n      tag_366\n      swap2\n      swap1\n      tag_161\n      jump\t// in\n    tag_366:\n        /* \"LoadManager.sol\":798:855  (block.timestamp - Lender[user][i].depositTime) * lendAPY */\n      tag_367\n      swap2\n      swap1\n      tag_205\n      jump\t// in\n    tag_367:\n        /* \"LoadManager.sol\":798:880  (block.timestamp - Lender[user][i].depositTime) * lendAPY * Lender[user][i].amount */\n      tag_368\n      swap2\n      swap1\n      tag_205\n      jump\t// in\n    tag_368:\n        /* \"LoadManager.sol\":797:909  ((block.timestamp - Lender[user][i].depositTime) * lendAPY * Lender[user][i].amount) /... */\n      tag_369\n      swap2\n      swap1\n      tag_216\n      jump\t// in\n    tag_369:\n        /* \"LoadManager.sol\":771:909  totalInterest +=... */\n      dup3\n      tag_370\n      swap2\n      swap1\n      tag_207\n      jump\t// in\n    tag_370:\n      swap2\n      pop\n        /* \"LoadManager.sol\":662:917  for (uint256 i = 0; i < Lender[user].length; i++) {... */\n    tag_355:\n        /* \"LoadManager.sol\":707:710  i++ */\n      dup1\n      dup1\n      0x01\n      add\n      swap2\n      pop\n      pop\n        /* \"LoadManager.sol\":662:917  for (uint256 i = 0; i < Lender[user].length; i++) {... */\n      jump(tag_353)\n    tag_354:\n      pop\n        /* \"LoadManager.sol\":930:943  totalInterest */\n      dup1\n        /* \"LoadManager.sol\":923:943  return totalInterest */\n      swap2\n      pop\n      pop\n        /* \"LoadManager.sol\":408:949  function calculateInterestMatured(... */\n      swap4\n      swap3\n      pop\n      pop\n      pop\n      jump\t// out\n        /* \"LoadManager.sol\":8052:8294  function calculatePenalty(uint256 borrowNumber) internal view returns (uint256) {... */\n    tag_281:\n        /* \"LoadManager.sol\":8123:8130  uint256 */\n      0x00\n        /* \"LoadManager.sol\":8191:8212  uint256 penaltyAmount */\n      0x00\n        /* \"LoadManager.sol\":8215:8263  Borrower.calculatePenalty(borrowNumber, penalty) */\n      tag_372\n        /* \"LoadManager.sol\":8241:8253  borrowNumber */\n      dup4\n        /* \"LoadManager.sol\":8255:8262  penalty */\n      sload(0x07)\n        /* \"LoadManager.sol\":8215:8223  Borrower */\n      0x09\n        /* \"LoadManager.sol\":8215:8240  Borrower.calculatePenalty */\n      tag_373\n      swap1\n        /* \"LoadManager.sol\":8215:8263  Borrower.calculatePenalty(borrowNumber, penalty) */\n      swap3\n      swap2\n      swap1\n      0xffffffff\n      and\n      jump\t// in\n    tag_372:\n        /* \"LoadManager.sol\":8191:8263  uint256 penaltyAmount = Borrower.calculatePenalty(borrowNumber, penalty) */\n      swap1\n      pop\n        /* \"LoadManager.sol\":8277:8290  penaltyAmount */\n      dup1\n        /* \"LoadManager.sol\":8270:8290  return penaltyAmount */\n      swap2\n      pop\n      pop\n        /* \"LoadManager.sol\":8052:8294  function calculatePenalty(uint256 borrowNumber) internal view returns (uint256) {... */\n      swap2\n      swap1\n      pop\n      jump\t// out\n        /* \"LoadManager.sol\":955:1375  function calculatePenalty(... */\n    tag_373:\n        /* \"LoadManager.sol\":1114:1121  uint256 */\n      0x00\n        /* \"LoadManager.sol\":1130:1146  uint256 daysLate */\n      0x00\n        /* \"LoadManager.sol\":1214:1220  1 days */\n      0x015180\n        /* \"LoadManager.sol\":1168:1176  Borrower */\n      dup6\n        /* \"LoadManager.sol\":1168:1188  Borrower[msg.sender] */\n      0x00\n        /* \"LoadManager.sol\":1177:1187  msg.sender */\n      caller\n        /* \"LoadManager.sol\":1168:1188  Borrower[msg.sender] */\n      0xffffffffffffffffffffffffffffffffffffffff\n      and\n      0xffffffffffffffffffffffffffffffffffffffff\n      and\n      dup2\n      mstore\n      0x20\n      add\n      swap1\n      dup2\n      mstore\n      0x20\n      add\n      0x00\n      keccak256\n        /* \"LoadManager.sol\":1189:1201  borrowNumber */\n      dup6\n        /* \"LoadManager.sol\":1168:1202  Borrower[msg.sender][borrowNumber] */\n      dup2\n      sload\n      dup2\n      lt\n      tag_375\n      jumpi\n      tag_376\n      tag_124\n      jump\t// in\n    tag_376:\n    tag_375:\n      swap1\n      0x00\n      mstore\n      keccak256(0x00, 0x20)\n      swap1\n      0x08\n      mul\n      add\n        /* \"LoadManager.sol\":1168:1210  Borrower[msg.sender][borrowNumber].dueDate */\n      0x04\n      add\n      sload\n        /* \"LoadManager.sol\":1150:1165  block.timestamp */\n      timestamp\n        /* \"LoadManager.sol\":1150:1210  block.timestamp - Borrower[msg.sender][borrowNumber].dueDate */\n      tag_378\n      swap2\n      swap1\n      tag_161\n      jump\t// in\n    tag_378:\n        /* \"LoadManager.sol\":1149:1220  (block.timestamp - Borrower[msg.sender][borrowNumber].dueDate) / 1 days */\n      tag_379\n      swap2\n      swap1\n      tag_216\n      jump\t// in\n    tag_379:\n        /* \"LoadManager.sol\":1130:1220  uint256 daysLate = (block.timestamp - Borrower[msg.sender][borrowNumber].dueDate) / 1 days */\n      swap1\n      pop\n        /* \"LoadManager.sol\":1227:1248  uint256 penaltyAmount */\n      0x00\n        /* \"LoadManager.sol\":1332:1341  100 * 365 */\n      0x8e94\n        /* \"LoadManager.sol\":1312:1320  daysLate */\n      dup3\n        /* \"LoadManager.sol\":1302:1309  penalty */\n      dup6\n        /* \"LoadManager.sol\":1252:1260  Borrower */\n      dup9\n        /* \"LoadManager.sol\":1252:1272  Borrower[msg.sender] */\n      0x00\n        /* \"LoadManager.sol\":1261:1271  msg.sender */\n      caller\n        /* \"LoadManager.sol\":1252:1272  Borrower[msg.sender] */\n      0xffffffffffffffffffffffffffffffffffffffff\n      and\n      0xffffffffffffffffffffffffffffffffffffffff\n      and\n      dup2\n      mstore\n      0x20\n      add\n      swap1\n      dup2\n      mstore\n      0x20\n      add\n      0x00\n      keccak256\n        /* \"LoadManager.sol\":1273:1285  borrowNumber */\n      dup9\n        /* \"LoadManager.sol\":1252:1286  Borrower[msg.sender][borrowNumber] */\n      dup2\n      sload\n      dup2\n      lt\n      tag_380\n      jumpi\n      tag_381\n      tag_124\n      jump\t// in\n    tag_381:\n    tag_380:\n      swap1\n      0x00\n      mstore\n      keccak256(0x00, 0x20)\n      swap1\n      0x08\n      mul\n      add\n        /* \"LoadManager.sol\":1252:1299  Borrower[msg.sender][borrowNumber].borrowAmount */\n      0x06\n      add\n      sload\n        /* \"LoadManager.sol\":1252:1309  Borrower[msg.sender][borrowNumber].borrowAmount * penalty */\n      tag_383\n      swap2\n      swap1\n      tag_205\n      jump\t// in\n    tag_383:\n        /* \"LoadManager.sol\":1252:1320  Borrower[msg.sender][borrowNumber].borrowAmount * penalty * daysLate */\n      tag_384\n      swap2\n      swap1\n      tag_205\n      jump\t// in\n    tag_384:\n        /* \"LoadManager.sol\":1251:1342  (Borrower[msg.sender][borrowNumber].borrowAmount * penalty * daysLate) /... */\n      tag_385\n      swap2\n      swap1\n      tag_216\n      jump\t// in\n    tag_385:\n        /* \"LoadManager.sol\":1227:1342  uint256 penaltyAmount = (Borrower[msg.sender][borrowNumber].borrowAmount * penalty * daysLate) /... */\n      swap1\n      pop\n        /* \"LoadManager.sol\":1356:1369  penaltyAmount */\n      dup1\n        /* \"LoadManager.sol\":1349:1369  return penaltyAmount */\n      swap3\n      pop\n      pop\n      pop\n        /* \"LoadManager.sol\":955:1375  function calculatePenalty(... */\n      swap4\n      swap3\n      pop\n      pop\n      pop\n      jump\t// out\n        /* \"#utility.yul\":7:84   */\n    tag_386:\n        /* \"#utility.yul\":44:51   */\n      0x00\n        /* \"#utility.yul\":73:78   */\n      dup2\n        /* \"#utility.yul\":62:78   */\n      swap1\n      pop\n        /* \"#utility.yul\":7:84   */\n      swap2\n      swap1\n      pop\n      jump\t// out\n        /* \"#utility.yul\":90:208   */\n    tag_387:\n        /* \"#utility.yul\":177:201   */\n      tag_466\n        /* \"#utility.yul\":195:200   */\n      dup2\n        /* \"#utility.yul\":177:201   */\n      tag_386\n      jump\t// in\n    tag_466:\n        /* \"#utility.yul\":172:175   */\n      dup3\n        /* \"#utility.yul\":165:202   */\n      mstore\n        /* \"#utility.yul\":90:208   */\n      pop\n      pop\n      jump\t// out\n        /* \"#utility.yul\":214:436   */\n    tag_31:\n        /* \"#utility.yul\":307:311   */\n      0x00\n        /* \"#utility.yul\":345:347   */\n      0x20\n        /* \"#utility.yul\":334:343   */\n      dup3\n        /* \"#utility.yul\":330:348   */\n      add\n        /* \"#utility.yul\":322:348   */\n      swap1\n      pop\n        /* \"#utility.yul\":358:429   */\n      tag_468\n        /* \"#utility.yul\":426:427   */\n      0x00\n        /* \"#utility.yul\":415:424   */\n      dup4\n        /* \"#utility.yul\":411:428   */\n      add\n        /* \"#utility.yul\":402:408   */\n      dup5\n        /* \"#utility.yul\":358:429   */\n      tag_387\n      jump\t// in\n    tag_468:\n        /* \"#utility.yul\":214:436   */\n      swap3\n      swap2\n      pop\n      pop\n      jump\t// out\n        /* \"#utility.yul\":523:640   */\n    tag_389:\n        /* \"#utility.yul\":632:633   */\n      0x00\n        /* \"#utility.yul\":629:630   */\n      0x00\n        /* \"#utility.yul\":622:634   */\n      revert\n        /* \"#utility.yul\":769:895   */\n    tag_391:\n        /* \"#utility.yul\":806:813   */\n      0x00\n        /* \"#utility.yul\":846:888   */\n      0xffffffffffffffffffffffffffffffffffffffff\n        /* \"#utility.yul\":839:844   */\n      dup3\n        /* \"#utility.yul\":835:889   */\n      and\n        /* \"#utility.yul\":824:889   */\n      swap1\n      pop\n        /* \"#utility.yul\":769:895   */\n      swap2\n      swap1\n      pop\n      jump\t// out\n        /* \"#utility.yul\":901:997   */\n    tag_392:\n        /* \"#utility.yul\":938:945   */\n      0x00\n        /* \"#utility.yul\":967:991   */\n      tag_474\n        /* \"#utility.yul\":985:990   */\n      dup3\n        /* \"#utility.yul\":967:991   */\n      tag_391\n      jump\t// in\n    tag_474:\n        /* \"#utility.yul\":956:991   */\n      swap1\n      pop\n        /* \"#utility.yul\":901:997   */\n      swap2\n      swap1\n      pop\n      jump\t// out\n        /* \"#utility.yul\":1003:1125   */\n    tag_393:\n        /* \"#utility.yul\":1076:1100   */\n      tag_476\n        /* \"#utility.yul\":1094:1099   */\n      dup2\n        /* \"#utility.yul\":1076:1100   */\n      tag_392\n      jump\t// in\n    tag_476:\n        /* \"#utility.yul\":1069:1074   */\n      dup2\n        /* \"#utility.yul\":1066:1101   */\n      eq\n        /* \"#utility.yul\":1056:1119   */\n      tag_477\n      jumpi\n        /* \"#utility.yul\":1115:1116   */\n      0x00\n        /* \"#utility.yul\":1112:1113   */\n      0x00\n        /* \"#utility.yul\":1105:1117   */\n      revert\n        /* \"#utility.yul\":1056:1119   */\n    tag_477:\n        /* \"#utility.yul\":1003:1125   */\n      pop\n      jump\t// out\n        /* \"#utility.yul\":1131:1270   */\n    tag_394:\n        /* \"#utility.yul\":1177:1182   */\n      0x00\n        /* \"#utility.yul\":1215:1221   */\n      dup2\n        /* \"#utility.yul\":1202:1222   */\n      calldataload\n        /* \"#utility.yul\":1193:1222   */\n      swap1\n      pop\n        /* \"#utility.yul\":1231:1264   */\n      tag_479\n        /* \"#utility.yul\":1258:1263   */\n      dup2\n        /* \"#utility.yul\":1231:1264   */\n      tag_393\n      jump\t// in\n    tag_479:\n        /* \"#utility.yul\":1131:1270   */\n      swap3\n      swap2\n      pop\n      pop\n      jump\t// out\n        /* \"#utility.yul\":1276:1605   */\n    tag_35:\n        /* \"#utility.yul\":1335:1341   */\n      0x00\n        /* \"#utility.yul\":1384:1386   */\n      0x20\n        /* \"#utility.yul\":1372:1381   */\n      dup3\n        /* \"#utility.yul\":1363:1370   */\n      dup5\n        /* \"#utility.yul\":1359:1382   */\n      sub\n        /* \"#utility.yul\":1355:1387   */\n      slt\n        /* \"#utility.yul\":1352:1471   */\n      iszero\n      tag_481\n      jumpi\n        /* \"#utility.yul\":1390:1469   */\n      tag_482\n      tag_389\n      jump\t// in\n    tag_482:\n        /* \"#utility.yul\":1352:1471   */\n    tag_481:\n        /* \"#utility.yul\":1510:1511   */\n      0x00\n        /* \"#utility.yul\":1535:1588   */\n      tag_483\n        /* \"#utility.yul\":1580:1587   */\n      dup5\n        /* \"#utility.yul\":1571:1577   */\n      dup3\n        /* \"#utility.yul\":1560:1569   */\n      dup6\n        /* \"#utility.yul\":1556:1578   */\n      add\n        /* \"#utility.yul\":1535:1588   */\n      tag_394\n      jump\t// in\n    tag_483:\n        /* \"#utility.yul\":1525:1588   */\n      swap2\n      pop\n        /* \"#utility.yul\":1481:1598   */\n      pop\n        /* \"#utility.yul\":1276:1605   */\n      swap3\n      swap2\n      pop\n      pop\n      jump\t// out\n        /* \"#utility.yul\":1611:1733   */\n    tag_395:\n        /* \"#utility.yul\":1684:1708   */\n      tag_485\n        /* \"#utility.yul\":1702:1707   */\n      dup2\n        /* \"#utility.yul\":1684:1708   */\n      tag_386\n      jump\t// in\n    tag_485:\n        /* \"#utility.yul\":1677:1682   */\n      dup2\n        /* \"#utility.yul\":1674:1709   */\n      eq\n        /* \"#utility.yul\":1664:1727   */\n      tag_486\n      jumpi\n        /* \"#utility.yul\":1723:1724   */\n      0x00\n        /* \"#utility.yul\":1720:1721   */\n      0x00\n        /* \"#utility.yul\":1713:1725   */\n      revert\n        /* \"#utility.yul\":1664:1727   */\n    tag_486:\n        /* \"#utility.yul\":1611:1733   */\n      pop\n      jump\t// out\n        /* \"#utility.yul\":1739:1878   */\n    tag_396:\n        /* \"#utility.yul\":1785:1790   */\n      0x00\n        /* \"#utility.yul\":1823:1829   */\n      dup2\n        /* \"#utility.yul\":1810:1830   */\n      calldataload\n        /* \"#utility.yul\":1801:1830   */\n      swap1\n      pop\n        /* \"#utility.yul\":1839:1872   */\n      tag_488\n        /* \"#utility.yul\":1866:1871   */\n      dup2\n        /* \"#utility.yul\":1839:1872   */\n      tag_395\n      jump\t// in\n    tag_488:\n        /* \"#utility.yul\":1739:1878   */\n      swap3\n      swap2\n      pop\n      pop\n      jump\t// out\n        /* \"#utility.yul\":1884:2213   */\n    tag_41:\n        /* \"#utility.yul\":1943:1949   */\n      0x00\n        /* \"#utility.yul\":1992:1994   */\n      0x20\n        /* \"#utility.yul\":1980:1989   */\n      dup3\n        /* \"#utility.yul\":1971:1978   */\n      dup5\n        /* \"#utility.yul\":1967:1990   */\n      sub\n        /* \"#utility.yul\":1963:1995   */\n      slt\n        /* \"#utility.yul\":1960:2079   */\n      iszero\n      tag_490\n      jumpi\n        /* \"#utility.yul\":1998:2077   */\n      tag_491\n      tag_389\n      jump\t// in\n    tag_491:\n        /* \"#utility.yul\":1960:2079   */\n    tag_490:\n        /* \"#utility.yul\":2118:2119   */\n      0x00\n        /* \"#utility.yul\":2143:2196   */\n      tag_492\n        /* \"#utility.yul\":2188:2195   */\n      dup5\n        /* \"#utility.yul\":2179:2185   */\n      dup3\n        /* \"#utility.yul\":2168:2177   */\n      dup6\n        /* \"#utility.yul\":2164:2186   */\n      add\n        /* \"#utility.yul\":2143:2196   */\n      tag_396\n      jump\t// in\n    tag_492:\n        /* \"#utility.yul\":2133:2196   */\n      swap2\n      pop\n        /* \"#utility.yul\":2089:2206   */\n      pop\n        /* \"#utility.yul\":1884:2213   */\n      swap3\n      swap2\n      pop\n      pop\n      jump\t// out\n        /* \"#utility.yul\":2219:2693   */\n    tag_45:\n        /* \"#utility.yul\":2287:2293   */\n      0x00\n        /* \"#utility.yul\":2295:2301   */\n      0x00\n        /* \"#utility.yul\":2344:2346   */\n      0x40\n        /* \"#utility.yul\":2332:2341   */\n      dup4\n        /* \"#utility.yul\":2323:2330   */\n      dup6\n        /* \"#utility.yul\":2319:2342   */\n      sub\n        /* \"#utility.yul\":2315:2347   */\n      slt\n        /* \"#utility.yul\":2312:2431   */\n      iszero\n      tag_494\n      jumpi\n        /* \"#utility.yul\":2350:2429   */\n      tag_495\n      tag_389\n      jump\t// in\n    tag_495:\n        /* \"#utility.yul\":2312:2431   */\n    tag_494:\n        /* \"#utility.yul\":2470:2471   */\n      0x00\n        /* \"#utility.yul\":2495:2548   */\n      tag_496\n        /* \"#utility.yul\":2540:2547   */\n      dup6\n        /* \"#utility.yul\":2531:2537   */\n      dup3\n        /* \"#utility.yul\":2520:2529   */\n      dup7\n        /* \"#utility.yul\":2516:2538   */\n      add\n        /* \"#utility.yul\":2495:2548   */\n      tag_396\n      jump\t// in\n    tag_496:\n        /* \"#utility.yul\":2485:2548   */\n      swap3\n      pop\n        /* \"#utility.yul\":2441:2558   */\n      pop\n        /* \"#utility.yul\":2597:2599   */\n      0x20\n        /* \"#utility.yul\":2623:2676   */\n      tag_497\n        /* \"#utility.yul\":2668:2675   */\n      dup6\n        /* \"#utility.yul\":2659:2665   */\n      dup3\n        /* \"#utility.yul\":2648:2657   */\n      dup7\n        /* \"#utility.yul\":2644:2666   */\n      add\n        /* \"#utility.yul\":2623:2676   */\n      tag_396\n      jump\t// in\n    tag_497:\n        /* \"#utility.yul\":2613:2676   */\n      swap2\n      pop\n        /* \"#utility.yul\":2568:2686   */\n      pop\n        /* \"#utility.yul\":2219:2693   */\n      swap3\n      pop\n      swap3\n      swap1\n      pop\n      jump\t// out\n        /* \"#utility.yul\":2699:2813   */\n    tag_397:\n        /* \"#utility.yul\":2766:2772   */\n      0x00\n        /* \"#utility.yul\":2800:2805   */\n      dup2\n        /* \"#utility.yul\":2794:2806   */\n      mload\n        /* \"#utility.yul\":2784:2806   */\n      swap1\n      pop\n        /* \"#utility.yul\":2699:2813   */\n      swap2\n      swap1\n      pop\n      jump\t// out\n        /* \"#utility.yul\":2819:3003   */\n    tag_398:\n        /* \"#utility.yul\":2918:2929   */\n      0x00\n        /* \"#utility.yul\":2952:2958   */\n      dup3\n        /* \"#utility.yul\":2947:2950   */\n      dup3\n        /* \"#utility.yul\":2940:2959   */\n      mstore\n        /* \"#utility.yul\":2992:2996   */\n      0x20\n        /* \"#utility.yul\":2987:2990   */\n      dup3\n        /* \"#utility.yul\":2983:2997   */\n      add\n        /* \"#utility.yul\":2968:2997   */\n      swap1\n      pop\n        /* \"#utility.yul\":2819:3003   */\n      swap3\n      swap2\n      pop\n      pop\n      jump\t// out\n        /* \"#utility.yul\":3009:3141   */\n    tag_399:\n        /* \"#utility.yul\":3076:3080   */\n      0x00\n        /* \"#utility.yul\":3099:3102   */\n      dup2\n        /* \"#utility.yul\":3091:3102   */\n      swap1\n      pop\n        /* \"#utility.yul\":3129:3133   */\n      0x20\n        /* \"#utility.yul\":3124:3127   */\n      dup3\n        /* \"#utility.yul\":3120:3134   */\n      add\n        /* \"#utility.yul\":3112:3134   */\n      swap1\n      pop\n        /* \"#utility.yul\":3009:3141   */\n      swap2\n      swap1\n      pop\n      jump\t// out\n        /* \"#utility.yul\":3147:3255   */\n    tag_400:\n        /* \"#utility.yul\":3224:3248   */\n      tag_502\n        /* \"#utility.yul\":3242:3247   */\n      dup2\n        /* \"#utility.yul\":3224:3248   */\n      tag_392\n      jump\t// in\n    tag_502:\n        /* \"#utility.yul\":3219:3222   */\n      dup3\n        /* \"#utility.yul\":3212:3249   */\n      mstore\n        /* \"#utility.yul\":3147:3255   */\n      pop\n      pop\n      jump\t// out\n        /* \"#utility.yul\":3261:3440   */\n    tag_401:\n        /* \"#utility.yul\":3330:3340   */\n      0x00\n        /* \"#utility.yul\":3351:3397   */\n      tag_504\n        /* \"#utility.yul\":3393:3396   */\n      dup4\n        /* \"#utility.yul\":3385:3391   */\n      dup4\n        /* \"#utility.yul\":3351:3397   */\n      tag_400\n      jump\t// in\n    tag_504:\n        /* \"#utility.yul\":3429:3433   */\n      0x20\n        /* \"#utility.yul\":3424:3427   */\n      dup4\n        /* \"#utility.yul\":3420:3434   */\n      add\n        /* \"#utility.yul\":3406:3434   */\n      swap1\n      pop\n        /* \"#utility.yul\":3261:3440   */\n      swap3\n      swap2\n      pop\n      pop\n      jump\t// out\n        /* \"#utility.yul\":3446:3559   */\n    tag_402:\n        /* \"#utility.yul\":3516:3520   */\n      0x00\n        /* \"#utility.yul\":3548:3552   */\n      0x20\n        /* \"#utility.yul\":3543:3546   */\n      dup3\n        /* \"#utility.yul\":3539:3553   */\n      add\n        /* \"#utility.yul\":3531:3553   */\n      swap1\n      pop\n        /* \"#utility.yul\":3446:3559   */\n      swap2\n      swap1\n      pop\n      jump\t// out\n        /* \"#utility.yul\":3595:4327   */\n    tag_403:\n        /* \"#utility.yul\":3714:3717   */\n      0x00\n        /* \"#utility.yul\":3743:3797   */\n      tag_507\n        /* \"#utility.yul\":3791:3796   */\n      dup3\n        /* \"#utility.yul\":3743:3797   */\n      tag_397\n      jump\t// in\n    tag_507:\n        /* \"#utility.yul\":3813:3899   */\n      tag_508\n        /* \"#utility.yul\":3892:3898   */\n      dup2\n        /* \"#utility.yul\":3887:3890   */\n      dup6\n        /* \"#utility.yul\":3813:3899   */\n      tag_398\n      jump\t// in\n    tag_508:\n        /* \"#utility.yul\":3806:3899   */\n      swap4\n      pop\n        /* \"#utility.yul\":3923:3979   */\n      tag_509\n        /* \"#utility.yul\":3973:3978   */\n      dup4\n        /* \"#utility.yul\":3923:3979   */\n      tag_399\n      jump\t// in\n    tag_509:\n        /* \"#utility.yul\":4002:4009   */\n      dup1\n        /* \"#utility.yul\":4033:4034   */\n      0x00\n        /* \"#utility.yul\":4018:4302   */\n    tag_510:\n        /* \"#utility.yul\":4043:4049   */\n      dup4\n        /* \"#utility.yul\":4040:4041   */\n      dup2\n        /* \"#utility.yul\":4037:4050   */\n      lt\n        /* \"#utility.yul\":4018:4302   */\n      iszero\n      tag_512\n      jumpi\n        /* \"#utility.yul\":4119:4125   */\n      dup2\n        /* \"#utility.yul\":4113:4126   */\n      mload\n        /* \"#utility.yul\":4146:4209   */\n      tag_513\n        /* \"#utility.yul\":4205:4208   */\n      dup9\n        /* \"#utility.yul\":4190:4203   */\n      dup3\n        /* \"#utility.yul\":4146:4209   */\n      tag_401\n      jump\t// in\n    tag_513:\n        /* \"#utility.yul\":4139:4209   */\n      swap8\n      pop\n        /* \"#utility.yul\":4232:4292   */\n      tag_514\n        /* \"#utility.yul\":4285:4291   */\n      dup4\n        /* \"#utility.yul\":4232:4292   */\n      tag_402\n      jump\t// in\n    tag_514:\n        /* \"#utility.yul\":4222:4292   */\n      swap3\n      pop\n        /* \"#utility.yul\":4078:4302   */\n      pop\n        /* \"#utility.yul\":4065:4066   */\n      0x01\n        /* \"#utility.yul\":4062:4063   */\n      dup2\n        /* \"#utility.yul\":4058:4067   */\n      add\n        /* \"#utility.yul\":4053:4067   */\n      swap1\n      pop\n        /* \"#utility.yul\":4018:4302   */\n      jump(tag_510)\n    tag_512:\n        /* \"#utility.yul\":4022:4036   */\n      pop\n        /* \"#utility.yul\":4318:4321   */\n      dup6\n        /* \"#utility.yul\":4311:4321   */\n      swap4\n      pop\n        /* \"#utility.yul\":3719:4327   */\n      pop\n      pop\n      pop\n        /* \"#utility.yul\":3595:4327   */\n      swap3\n      swap2\n      pop\n      pop\n      jump\t// out\n        /* \"#utility.yul\":4333:4706   */\n    tag_55:\n        /* \"#utility.yul\":4476:4480   */\n      0x00\n        /* \"#utility.yul\":4514:4516   */\n      0x20\n        /* \"#utility.yul\":4503:4512   */\n      dup3\n        /* \"#utility.yul\":4499:4517   */\n      add\n        /* \"#utility.yul\":4491:4517   */\n      swap1\n      pop\n        /* \"#utility.yul\":4563:4572   */\n      dup2\n        /* \"#utility.yul\":4557:4561   */\n      dup2\n        /* \"#utility.yul\":4553:4573   */\n      sub\n        /* \"#utility.yul\":4549:4550   */\n      0x00\n        /* \"#utility.yul\":4538:4547   */\n      dup4\n        /* \"#utility.yul\":4534:4551   */\n      add\n        /* \"#utility.yul\":4527:4574   */\n      mstore\n        /* \"#utility.yul\":4591:4699   */\n      tag_516\n        /* \"#utility.yul\":4694:4698   */\n      dup2\n        /* \"#utility.yul\":4685:4691   */\n      dup5\n        /* \"#utility.yul\":4591:4699   */\n      tag_403\n      jump\t// in\n    tag_516:\n        /* \"#utility.yul\":4583:4699   */\n      swap1\n      pop\n        /* \"#utility.yul\":4333:4706   */\n      swap3\n      swap2\n      pop\n      pop\n      jump\t// out\n        /* \"#utility.yul\":4712:4788   */\n    tag_404:\n        /* \"#utility.yul\":4748:4755   */\n      0x00\n        /* \"#utility.yul\":4777:4782   */\n      dup2\n        /* \"#utility.yul\":4766:4782   */\n      swap1\n      pop\n        /* \"#utility.yul\":4712:4788   */\n      swap2\n      swap1\n      pop\n      jump\t// out\n        /* \"#utility.yul\":4794:4909   */\n    tag_405:\n        /* \"#utility.yul\":4879:4902   */\n      tag_519\n        /* \"#utility.yul\":4896:4901   */\n      dup2\n        /* \"#utility.yul\":4879:4902   */\n      tag_404\n      jump\t// in\n    tag_519:\n        /* \"#utility.yul\":4874:4877   */\n      dup3\n        /* \"#utility.yul\":4867:4903   */\n      mstore\n        /* \"#utility.yul\":4794:4909   */\n      pop\n      pop\n      jump\t// out\n        /* \"#utility.yul\":4915:5133   */\n    tag_69:\n        /* \"#utility.yul\":5006:5010   */\n      0x00\n        /* \"#utility.yul\":5044:5046   */\n      0x20\n        /* \"#utility.yul\":5033:5042   */\n      dup3\n        /* \"#utility.yul\":5029:5047   */\n      add\n        /* \"#utility.yul\":5021:5047   */\n      swap1\n      pop\n        /* \"#utility.yul\":5057:5126   */\n      tag_521\n        /* \"#utility.yul\":5123:5124   */\n      0x00\n        /* \"#utility.yul\":5112:5121   */\n      dup4\n        /* \"#utility.yul\":5108:5125   */\n      add\n        /* \"#utility.yul\":5099:5105   */\n      dup5\n        /* \"#utility.yul\":5057:5126   */\n      tag_405\n      jump\t// in\n    tag_521:\n        /* \"#utility.yul\":4915:5133   */\n      swap3\n      swap2\n      pop\n      pop\n      jump\t// out\n        /* \"#utility.yul\":5139:5257   */\n    tag_406:\n        /* \"#utility.yul\":5226:5250   */\n      tag_523\n        /* \"#utility.yul\":5244:5249   */\n      dup2\n        /* \"#utility.yul\":5226:5250   */\n      tag_392\n      jump\t// in\n    tag_523:\n        /* \"#utility.yul\":5221:5224   */\n      dup3\n        /* \"#utility.yul\":5214:5251   */\n      mstore\n        /* \"#utility.yul\":5139:5257   */\n      pop\n      pop\n      jump\t// out\n        /* \"#utility.yul\":5263:5485   */\n    tag_74:\n        /* \"#utility.yul\":5356:5360   */\n      0x00\n        /* \"#utility.yul\":5394:5396   */\n      0x20\n        /* \"#utility.yul\":5383:5392   */\n      dup3\n        /* \"#utility.yul\":5379:5397   */\n      add\n        /* \"#utility.yul\":5371:5397   */\n      swap1\n      pop\n        /* \"#utility.yul\":5407:5478   */\n      tag_525\n        /* \"#utility.yul\":5475:5476   */\n      0x00\n        /* \"#utility.yul\":5464:5473   */\n      dup4\n        /* \"#utility.yul\":5460:5477   */\n      add\n        /* \"#utility.yul\":5451:5457   */\n      dup5\n        /* \"#utility.yul\":5407:5478   */\n      tag_406\n      jump\t// in\n    tag_525:\n        /* \"#utility.yul\":5263:5485   */\n      swap3\n      swap2\n      pop\n      pop\n      jump\t// out\n        /* \"#utility.yul\":5491:5965   */\n    tag_80:\n        /* \"#utility.yul\":5559:5565   */\n      0x00\n        /* \"#utility.yul\":5567:5573   */\n      0x00\n        /* \"#utility.yul\":5616:5618   */\n      0x40\n        /* \"#utility.yul\":5604:5613   */\n      dup4\n        /* \"#utility.yul\":5595:5602   */\n      dup6\n        /* \"#utility.yul\":5591:5614   */\n      sub\n        /* \"#utility.yul\":5587:5619   */\n      slt\n        /* \"#utility.yul\":5584:5703   */\n      iszero\n      tag_527\n      jumpi\n        /* \"#utility.yul\":5622:5701   */\n      tag_528\n      tag_389\n      jump\t// in\n    tag_528:\n        /* \"#utility.yul\":5584:5703   */\n    tag_527:\n        /* \"#utility.yul\":5742:5743   */\n      0x00\n        /* \"#utility.yul\":5767:5820   */\n      tag_529\n        /* \"#utility.yul\":5812:5819   */\n      dup6\n        /* \"#utility.yul\":5803:5809   */\n      dup3\n        /* \"#utility.yul\":5792:5801   */\n      dup7\n        /* \"#utility.yul\":5788:5810   */\n      add\n        /* \"#utility.yul\":5767:5820   */\n      tag_394\n      jump\t// in\n    tag_529:\n        /* \"#utility.yul\":5757:5820   */\n      swap3\n      pop\n        /* \"#utility.yul\":5713:5830   */\n      pop\n        /* \"#utility.yul\":5869:5871   */\n      0x20\n        /* \"#utility.yul\":5895:5948   */\n      tag_530\n        /* \"#utility.yul\":5940:5947   */\n      dup6\n        /* \"#utility.yul\":5931:5937   */\n      dup3\n        /* \"#utility.yul\":5920:5929   */\n      dup7\n        /* \"#utility.yul\":5916:5938   */\n      add\n        /* \"#utility.yul\":5895:5948   */\n      tag_396\n      jump\t// in\n    tag_530:\n        /* \"#utility.yul\":5885:5948   */\n      swap2\n      pop\n        /* \"#utility.yul\":5840:5958   */\n      pop\n        /* \"#utility.yul\":5491:5965   */\n      swap3\n      pop\n      swap3\n      swap1\n      pop\n      jump\t// out\n        /* \"#utility.yul\":5971:6070   */\n    tag_407:\n        /* \"#utility.yul\":6023:6029   */\n      0x00\n        /* \"#utility.yul\":6057:6062   */\n      dup2\n        /* \"#utility.yul\":6051:6063   */\n      mload\n        /* \"#utility.yul\":6041:6063   */\n      swap1\n      pop\n        /* \"#utility.yul\":5971:6070   */\n      swap2\n      swap1\n      pop\n      jump\t// out\n        /* \"#utility.yul\":6076:6245   */\n    tag_408:\n        /* \"#utility.yul\":6160:6171   */\n      0x00\n        /* \"#utility.yul\":6194:6200   */\n      dup3\n        /* \"#utility.yul\":6189:6192   */\n      dup3\n        /* \"#utility.yul\":6182:6201   */\n      mstore\n        /* \"#utility.yul\":6234:6238   */\n      0x20\n        /* \"#utility.yul\":6229:6232   */\n      dup3\n        /* \"#utility.yul\":6225:6239   */\n      add\n        /* \"#utility.yul\":6210:6239   */\n      swap1\n      pop\n        /* \"#utility.yul\":6076:6245   */\n      swap3\n      swap2\n      pop\n      pop\n      jump\t// out\n        /* \"#utility.yul\":6251:6390   */\n    tag_409:\n        /* \"#utility.yul\":6340:6346   */\n      dup3\n        /* \"#utility.yul\":6335:6338   */\n      dup2\n        /* \"#utility.yul\":6330:6333   */\n      dup4\n        /* \"#utility.yul\":6324:6347   */\n      mcopy\n        /* \"#utility.yul\":6381:6382   */\n      0x00\n        /* \"#utility.yul\":6372:6378   */\n      dup4\n        /* \"#utility.yul\":6367:6370   */\n      dup4\n        /* \"#utility.yul\":6363:6379   */\n      add\n        /* \"#utility.yul\":6356:6383   */\n      mstore\n        /* \"#utility.yul\":6251:6390   */\n      pop\n      pop\n      pop\n      jump\t// out\n        /* \"#utility.yul\":6396:6498   */\n    tag_410:\n        /* \"#utility.yul\":6437:6443   */\n      0x00\n        /* \"#utility.yul\":6488:6490   */\n      0x1f\n        /* \"#utility.yul\":6484:6491   */\n      not\n        /* \"#utility.yul\":6479:6481   */\n      0x1f\n        /* \"#utility.yul\":6472:6477   */\n      dup4\n        /* \"#utility.yul\":6468:6482   */\n      add\n        /* \"#utility.yul\":6464:6492   */\n      and\n        /* \"#utility.yul\":6454:6492   */\n      swap1\n      pop\n        /* \"#utility.yul\":6396:6498   */\n      swap2\n      swap1\n      pop\n      jump\t// out\n        /* \"#utility.yul\":6504:6881   */\n    tag_411:\n        /* \"#utility.yul\":6592:6595   */\n      0x00\n        /* \"#utility.yul\":6620:6659   */\n      tag_536\n        /* \"#utility.yul\":6653:6658   */\n      dup3\n        /* \"#utility.yul\":6620:6659   */\n      tag_407\n      jump\t// in\n    tag_536:\n        /* \"#utility.yul\":6675:6746   */\n      tag_537\n        /* \"#utility.yul\":6739:6745   */\n      dup2\n        /* \"#utility.yul\":6734:6737   */\n      dup6\n        /* \"#utility.yul\":6675:6746   */\n      tag_408\n      jump\t// in\n    tag_537:\n        /* \"#utility.yul\":6668:6746   */\n      swap4\n      pop\n        /* \"#utility.yul\":6755:6820   */\n      tag_538\n        /* \"#utility.yul\":6813:6819   */\n      dup2\n        /* \"#utility.yul\":6808:6811   */\n      dup6\n        /* \"#utility.yul\":6801:6805   */\n      0x20\n        /* \"#utility.yul\":6794:6799   */\n      dup7\n        /* \"#utility.yul\":6790:6806   */\n      add\n        /* \"#utility.yul\":6755:6820   */\n      tag_409\n      jump\t// in\n    tag_538:\n        /* \"#utility.yul\":6845:6874   */\n      tag_539\n        /* \"#utility.yul\":6867:6873   */\n      dup2\n        /* \"#utility.yul\":6845:6874   */\n      tag_410\n      jump\t// in\n    tag_539:\n        /* \"#utility.yul\":6840:6843   */\n      dup5\n        /* \"#utility.yul\":6836:6875   */\n      add\n        /* \"#utility.yul\":6829:6875   */\n      swap2\n      pop\n        /* \"#utility.yul\":6596:6881   */\n      pop\n        /* \"#utility.yul\":6504:6881   */\n      swap3\n      swap2\n      pop\n      pop\n      jump\t// out\n        /* \"#utility.yul\":6887:7975   */\n    tag_83:\n        /* \"#utility.yul\":7196:7200   */\n      0x00\n        /* \"#utility.yul\":7234:7237   */\n      0x0100\n        /* \"#utility.yul\":7223:7232   */\n      dup3\n        /* \"#utility.yul\":7219:7238   */\n      add\n        /* \"#utility.yul\":7211:7238   */\n      swap1\n      pop\n        /* \"#utility.yul\":7248:7319   */\n      tag_541\n        /* \"#utility.yul\":7316:7317   */\n      0x00\n        /* \"#utility.yul\":7305:7314   */\n      dup4\n        /* \"#utility.yul\":7301:7318   */\n      add\n        /* \"#utility.yul\":7292:7298   */\n      dup12\n        /* \"#utility.yul\":7248:7319   */\n      tag_387\n      jump\t// in\n    tag_541:\n        /* \"#utility.yul\":7329:7401   */\n      tag_542\n        /* \"#utility.yul\":7397:7399   */\n      0x20\n        /* \"#utility.yul\":7386:7395   */\n      dup4\n        /* \"#utility.yul\":7382:7400   */\n      add\n        /* \"#utility.yul\":7373:7379   */\n      dup11\n        /* \"#utility.yul\":7329:7401   */\n      tag_387\n      jump\t// in\n    tag_542:\n        /* \"#utility.yul\":7411:7483   */\n      tag_543\n        /* \"#utility.yul\":7479:7481   */\n      0x40\n        /* \"#utility.yul\":7468:7477   */\n      dup4\n        /* \"#utility.yul\":7464:7482   */\n      add\n        /* \"#utility.yul\":7455:7461   */\n      dup10\n        /* \"#utility.yul\":7411:7483   */\n      tag_387\n      jump\t// in\n    tag_543:\n        /* \"#utility.yul\":7530:7539   */\n      dup2\n        /* \"#utility.yul\":7524:7528   */\n      dup2\n        /* \"#utility.yul\":7520:7540   */\n      sub\n        /* \"#utility.yul\":7515:7517   */\n      0x60\n        /* \"#utility.yul\":7504:7513   */\n      dup4\n        /* \"#utility.yul\":7500:7518   */\n      add\n        /* \"#utility.yul\":7493:7541   */\n      mstore\n        /* \"#utility.yul\":7558:7636   */\n      tag_544\n        /* \"#utility.yul\":7631:7635   */\n      dup2\n        /* \"#utility.yul\":7622:7628   */\n      dup9\n        /* \"#utility.yul\":7558:7636   */\n      tag_411\n      jump\t// in\n    tag_544:\n        /* \"#utility.yul\":7550:7636   */\n      swap1\n      pop\n        /* \"#utility.yul\":7646:7719   */\n      tag_545\n        /* \"#utility.yul\":7714:7717   */\n      0x80\n        /* \"#utility.yul\":7703:7712   */\n      dup4\n        /* \"#utility.yul\":7699:7718   */\n      add\n        /* \"#utility.yul\":7690:7696   */\n      dup8\n        /* \"#utility.yul\":7646:7719   */\n      tag_387\n      jump\t// in\n    tag_545:\n        /* \"#utility.yul\":7729:7802   */\n      tag_546\n        /* \"#utility.yul\":7797:7800   */\n      0xa0\n        /* \"#utility.yul\":7786:7795   */\n      dup4\n        /* \"#utility.yul\":7782:7801   */\n      add\n        /* \"#utility.yul\":7773:7779   */\n      dup7\n        /* \"#utility.yul\":7729:7802   */\n      tag_387\n      jump\t// in\n    tag_546:\n        /* \"#utility.yul\":7812:7885   */\n      tag_547\n        /* \"#utility.yul\":7880:7883   */\n      0xc0\n        /* \"#utility.yul\":7869:7878   */\n      dup4\n        /* \"#utility.yul\":7865:7884   */\n      add\n        /* \"#utility.yul\":7856:7862   */\n      dup6\n        /* \"#utility.yul\":7812:7885   */\n      tag_387\n      jump\t// in\n    tag_547:\n        /* \"#utility.yul\":7895:7968   */\n      tag_548\n        /* \"#utility.yul\":7963:7966   */\n      0xe0\n        /* \"#utility.yul\":7952:7961   */\n      dup4\n        /* \"#utility.yul\":7948:7967   */\n      add\n        /* \"#utility.yul\":7939:7945   */\n      dup5\n        /* \"#utility.yul\":7895:7968   */\n      tag_387\n      jump\t// in\n    tag_548:\n        /* \"#utility.yul\":6887:7975   */\n      swap10\n      swap9\n      pop\n      pop\n      pop\n      pop\n      pop\n      pop\n      pop\n      pop\n      pop\n      jump\t// out\n        /* \"#utility.yul\":7981:8423   */\n    tag_109:\n        /* \"#utility.yul\":8130:8134   */\n      0x00\n        /* \"#utility.yul\":8168:8170   */\n      0x60\n        /* \"#utility.yul\":8157:8166   */\n      dup3\n        /* \"#utility.yul\":8153:8171   */\n      add\n        /* \"#utility.yul\":8145:8171   */\n      swap1\n      pop\n        /* \"#utility.yul\":8181:8252   */\n      tag_550\n        /* \"#utility.yul\":8249:8250   */\n      0x00\n        /* \"#utility.yul\":8238:8247   */\n      dup4\n        /* \"#utility.yul\":8234:8251   */\n      add\n        /* \"#utility.yul\":8225:8231   */\n      dup7\n        /* \"#utility.yul\":8181:8252   */\n      tag_387\n      jump\t// in\n    tag_550:\n        /* \"#utility.yul\":8262:8334   */\n      tag_551\n        /* \"#utility.yul\":8330:8332   */\n      0x20\n        /* \"#utility.yul\":8319:8328   */\n      dup4\n        /* \"#utility.yul\":8315:8333   */\n      add\n        /* \"#utility.yul\":8306:8312   */\n      dup6\n        /* \"#utility.yul\":8262:8334   */\n      tag_387\n      jump\t// in\n    tag_551:\n        /* \"#utility.yul\":8344:8416   */\n      tag_552\n        /* \"#utility.yul\":8412:8414   */\n      0x40\n        /* \"#utility.yul\":8401:8410   */\n      dup4\n        /* \"#utility.yul\":8397:8415   */\n      add\n        /* \"#utility.yul\":8388:8394   */\n      dup5\n        /* \"#utility.yul\":8344:8416   */\n      tag_387\n      jump\t// in\n    tag_552:\n        /* \"#utility.yul\":7981:8423   */\n      swap5\n      swap4\n      pop\n      pop\n      pop\n      pop\n      jump\t// out\n        /* \"#utility.yul\":8429:8589   */\n    tag_412:\n        /* \"#utility.yul\":8569:8581   */\n      0x5265656e7472616e637900000000000000000000000000000000000000000000\n        /* \"#utility.yul\":8565:8566   */\n      0x00\n        /* \"#utility.yul\":8557:8563   */\n      dup3\n        /* \"#utility.yul\":8553:8567   */\n      add\n        /* \"#utility.yul\":8546:8582   */\n      mstore\n        /* \"#utility.yul\":8429:8589   */\n      pop\n      jump\t// out\n        /* \"#utility.yul\":8595:8961   */\n    tag_413:\n        /* \"#utility.yul\":8737:8740   */\n      0x00\n        /* \"#utility.yul\":8758:8825   */\n      tag_555\n        /* \"#utility.yul\":8822:8824   */\n      0x0a\n        /* \"#utility.yul\":8817:8820   */\n      dup4\n        /* \"#utility.yul\":8758:8825   */\n      tag_408\n      jump\t// in\n    tag_555:\n        /* \"#utility.yul\":8751:8825   */\n      swap2\n      pop\n        /* \"#utility.yul\":8834:8927   */\n      tag_556\n        /* \"#utility.yul\":8923:8926   */\n      dup3\n        /* \"#utility.yul\":8834:8927   */\n      tag_412\n      jump\t// in\n    tag_556:\n        /* \"#utility.yul\":8952:8954   */\n      0x20\n        /* \"#utility.yul\":8947:8950   */\n      dup3\n        /* \"#utility.yul\":8943:8955   */\n      add\n        /* \"#utility.yul\":8936:8955   */\n      swap1\n      pop\n        /* \"#utility.yul\":8595:8961   */\n      swap2\n      swap1\n      pop\n      jump\t// out\n        /* \"#utility.yul\":8967:9386   */\n    tag_113:\n        /* \"#utility.yul\":9133:9137   */\n      0x00\n        /* \"#utility.yul\":9171:9173   */\n      0x20\n        /* \"#utility.yul\":9160:9169   */\n      dup3\n        /* \"#utility.yul\":9156:9174   */\n      add\n        /* \"#utility.yul\":9148:9174   */\n      swap1\n      pop\n        /* \"#utility.yul\":9220:9229   */\n      dup2\n        /* \"#utility.yul\":9214:9218   */\n      dup2\n        /* \"#utility.yul\":9210:9230   */\n      sub\n        /* \"#utility.yul\":9206:9207   */\n      0x00\n        /* \"#utility.yul\":9195:9204   */\n      dup4\n        /* \"#utility.yul\":9191:9208   */\n      add\n        /* \"#utility.yul\":9184:9231   */\n      mstore\n        /* \"#utility.yul\":9248:9379   */\n      tag_558\n        /* \"#utility.yul\":9374:9378   */\n      dup2\n        /* \"#utility.yul\":9248:9379   */\n      tag_413\n      jump\t// in\n    tag_558:\n        /* \"#utility.yul\":9240:9379   */\n      swap1\n      pop\n        /* \"#utility.yul\":8967:9386   */\n      swap2\n      swap1\n      pop\n      jump\t// out\n        /* \"#utility.yul\":9392:9565   */\n    tag_414:\n        /* \"#utility.yul\":9532:9557   */\n      0x4e6f20696e74657265737420746f207769746864726177000000000000000000\n        /* \"#utility.yul\":9528:9529   */\n      0x00\n        /* \"#utility.yul\":9520:9526   */\n      dup3\n        /* \"#utility.yul\":9516:9530   */\n      add\n        /* \"#utility.yul\":9509:9558   */\n      mstore\n        /* \"#utility.yul\":9392:9565   */\n      pop\n      jump\t// out\n        /* \"#utility.yul\":9571:9937   */\n    tag_415:\n        /* \"#utility.yul\":9713:9716   */\n      0x00\n        /* \"#utility.yul\":9734:9801   */\n      tag_561\n        /* \"#utility.yul\":9798:9800   */\n      0x17\n        /* \"#utility.yul\":9793:9796   */\n      dup4\n        /* \"#utility.yul\":9734:9801   */\n      tag_408\n      jump\t// in\n    tag_561:\n        /* \"#utility.yul\":9727:9801   */\n      swap2\n      pop\n        /* \"#utility.yul\":9810:9903   */\n      tag_562\n        /* \"#utility.yul\":9899:9902   */\n      dup3\n        /* \"#utility.yul\":9810:9903   */\n      tag_414\n      jump\t// in\n    tag_562:\n        /* \"#utility.yul\":9928:9930   */\n      0x20\n        /* \"#utility.yul\":9923:9926   */\n      dup3\n        /* \"#utility.yul\":9919:9931   */\n      add\n        /* \"#utility.yul\":9912:9931   */\n      swap1\n      pop\n        /* \"#utility.yul\":9571:9937   */\n      swap2\n      swap1\n      pop\n      jump\t// out\n        /* \"#utility.yul\":9943:10362   */\n    tag_118:\n        /* \"#utility.yul\":10109:10113   */\n      0x00\n        /* \"#utility.yul\":10147:10149   */\n      0x20\n        /* \"#utility.yul\":10136:10145   */\n      dup3\n        /* \"#utility.yul\":10132:10150   */\n      add\n        /* \"#utility.yul\":10124:10150   */\n      swap1\n      pop\n        /* \"#utility.yul\":10196:10205   */\n      dup2\n        /* \"#utility.yul\":10190:10194   */\n      dup2\n        /* \"#utility.yul\":10186:10206   */\n      sub\n        /* \"#utility.yul\":10182:10183   */\n      0x00\n        /* \"#utility.yul\":10171:10180   */\n      dup4\n        /* \"#utility.yul\":10167:10184   */\n      add\n        /* \"#utility.yul\":10160:10207   */\n      mstore\n        /* \"#utility.yul\":10224:10355   */\n      tag_564\n        /* \"#utility.yul\":10350:10354   */\n      dup2\n        /* \"#utility.yul\":10224:10355   */\n      tag_415\n      jump\t// in\n    tag_564:\n        /* \"#utility.yul\":10216:10355   */\n      swap1\n      pop\n        /* \"#utility.yul\":9943:10362   */\n      swap2\n      swap1\n      pop\n      jump\t// out\n        /* \"#utility.yul\":10368:10548   */\n    tag_124:\n        /* \"#utility.yul\":10416:10493   */\n      0x4e487b7100000000000000000000000000000000000000000000000000000000\n        /* \"#utility.yul\":10413:10414   */\n      0x00\n        /* \"#utility.yul\":10406:10494   */\n      mstore\n        /* \"#utility.yul\":10513:10517   */\n      0x32\n        /* \"#utility.yul\":10510:10511   */\n      0x04\n        /* \"#utility.yul\":10503:10518   */\n      mstore\n        /* \"#utility.yul\":10537:10541   */\n      0x24\n        /* \"#utility.yul\":10534:10535   */\n      0x00\n        /* \"#utility.yul\":10527:10542   */\n      revert\n        /* \"#utility.yul\":10554:10734   */\n    tag_416:\n        /* \"#utility.yul\":10602:10679   */\n      0x4e487b7100000000000000000000000000000000000000000000000000000000\n        /* \"#utility.yul\":10599:10600   */\n      0x00\n        /* \"#utility.yul\":10592:10680   */\n      mstore\n        /* \"#utility.yul\":10699:10703   */\n      0x11\n        /* \"#utility.yul\":10696:10697   */\n      0x04\n        /* \"#utility.yul\":10689:10704   */\n      mstore\n        /* \"#utility.yul\":10723:10727   */\n      0x24\n        /* \"#utility.yul\":10720:10721   */\n      0x00\n        /* \"#utility.yul\":10713:10728   */\n      revert\n        /* \"#utility.yul\":10740:10973   */\n    tag_127:\n        /* \"#utility.yul\":10779:10782   */\n      0x00\n        /* \"#utility.yul\":10802:10826   */\n      tag_568\n        /* \"#utility.yul\":10820:10825   */\n      dup3\n        /* \"#utility.yul\":10802:10826   */\n      tag_386\n      jump\t// in\n    tag_568:\n        /* \"#utility.yul\":10793:10826   */\n      swap2\n      pop\n        /* \"#utility.yul\":10848:10914   */\n      0xffffffffffffffffffffffffffffffffffffffffffffffffffffffffffffffff\n        /* \"#utility.yul\":10841:10846   */\n      dup3\n        /* \"#utility.yul\":10838:10915   */\n      sub\n        /* \"#utility.yul\":10835:10938   */\n      tag_569\n      jumpi\n        /* \"#utility.yul\":10918:10936   */\n      tag_570\n      tag_416\n      jump\t// in\n    tag_570:\n        /* \"#utility.yul\":10835:10938   */\n    tag_569:\n        /* \"#utility.yul\":10965:10966   */\n      0x01\n        /* \"#utility.yul\":10958:10963   */\n      dup3\n        /* \"#utility.yul\":10954:10967   */\n      add\n        /* \"#utility.yul\":10947:10967   */\n      swap1\n      pop\n        /* \"#utility.yul\":10740:10973   */\n      swap2\n      swap1\n      pop\n      jump\t// out\n        /* \"#utility.yul\":10979:11126   */\n    tag_417:\n        /* \"#utility.yul\":11080:11091   */\n      0x00\n        /* \"#utility.yul\":11117:11120   */\n      dup2\n        /* \"#utility.yul\":11102:11120   */\n      swap1\n      pop\n        /* \"#utility.yul\":10979:11126   */\n      swap3\n      swap2\n      pop\n      pop\n      jump\t// out\n        /* \"#utility.yul\":11132:11246   */\n    tag_418:\n      pop\n      jump\t// out\n        /* \"#utility.yul\":11252:11650   */\n    tag_419:\n        /* \"#utility.yul\":11411:11414   */\n      0x00\n        /* \"#utility.yul\":11432:11515   */\n      tag_574\n        /* \"#utility.yul\":11513:11514   */\n      0x00\n        /* \"#utility.yul\":11508:11511   */\n      dup4\n        /* \"#utility.yul\":11432:11515   */\n      tag_417\n      jump\t// in\n    tag_574:\n        /* \"#utility.yul\":11425:11515   */\n      swap2\n      pop\n        /* \"#utility.yul\":11524:11617   */\n      tag_575\n        /* \"#utility.yul\":11613:11616   */\n      dup3\n        /* \"#utility.yul\":11524:11617   */\n      tag_418\n      jump\t// in\n    tag_575:\n        /* \"#utility.yul\":11642:11643   */\n      0x00\n        /* \"#utility.yul\":11637:11640   */\n      dup3\n        /* \"#utility.yul\":11633:11644   */\n      add\n        /* \"#utility.yul\":11626:11644   */\n      swap1\n      pop\n        /* \"#utility.yul\":11252:11650   */\n      swap2\n      swap1\n      pop\n      jump\t// out\n        /* \"#utility.yul\":11656:12035   */\n    tag_129:\n        /* \"#utility.yul\":11840:11843   */\n      0x00\n        /* \"#utility.yul\":11862:12009   */\n      tag_577\n        /* \"#utility.yul\":12005:12008   */\n      dup3\n        /* \"#utility.yul\":11862:12009   */\n      tag_419\n      jump\t// in\n    tag_577:\n        /* \"#utility.yul\":11855:12009   */\n      swap2\n      pop\n        /* \"#utility.yul\":12026:12029   */\n      dup2\n        /* \"#utility.yul\":12019:12029   */\n      swap1\n      pop\n        /* \"#utility.yul\":11656:12035   */\n      swap2\n      swap1\n      pop\n      jump\t// out\n        /* \"#utility.yul\":12041:12209   */\n    tag_420:\n        /* \"#utility.yul\":12181:12201   */\n      0x5472616e73616374696f6e206661696c65640000000000000000000000000000\n        /* \"#utility.yul\":12177:12178   */\n      0x00\n        /* \"#utility.yul\":12169:12175   */\n      dup3\n        /* \"#utility.yul\":12165:12179   */\n      add\n        /* \"#utility.yul\":12158:12202   */\n      mstore\n        /* \"#utility.yul\":12041:12209   */\n      pop\n      jump\t// out\n        /* \"#utility.yul\":12215:12581   */\n    tag_421:\n        /* \"#utility.yul\":12357:12360   */\n      0x00\n        /* \"#utility.yul\":12378:12445   */\n      tag_580\n        /* \"#utility.yul\":12442:12444   */\n      0x12\n        /* \"#utility.yul\":12437:12440   */\n      dup4\n        /* \"#utility.yul\":12378:12445   */\n      tag_408\n      jump\t// in\n    tag_580:\n        /* \"#utility.yul\":12371:12445   */\n      swap2\n      pop\n        /* \"#utility.yul\":12454:12547   */\n      tag_581\n        /* \"#utility.yul\":12543:12546   */\n      dup3\n        /* \"#utility.yul\":12454:12547   */\n      tag_420\n      jump\t// in\n    tag_581:\n        /* \"#utility.yul\":12572:12574   */\n      0x20\n        /* \"#utility.yul\":12567:12570   */\n      dup3\n        /* \"#utility.yul\":12563:12575   */\n      add\n        /* \"#utility.yul\":12556:12575   */\n      swap1\n      pop\n        /* \"#utility.yul\":12215:12581   */\n      swap2\n      swap1\n      pop\n      jump\t// out\n        /* \"#utility.yul\":12587:13006   */\n    tag_135:\n        /* \"#utility.yul\":12753:12757   */\n      0x00\n        /* \"#utility.yul\":12791:12793   */\n      0x20\n        /* \"#utility.yul\":12780:12789   */\n      dup3\n        /* \"#utility.yul\":12776:12794   */\n      add\n        /* \"#utility.yul\":12768:12794   */\n      swap1\n      pop\n        /* \"#utility.yul\":12840:12849   */\n      dup2\n        /* \"#utility.yul\":12834:12838   */\n      dup2\n        /* \"#utility.yul\":12830:12850   */\n      sub\n        /* \"#utility.yul\":12826:12827   */\n      0x00\n        /* \"#utility.yul\":12815:12824   */\n      dup4\n        /* \"#utility.yul\":12811:12828   */\n      add\n        /* \"#utility.yul\":12804:12851   */\n      mstore\n        /* \"#utility.yul\":12868:12999   */\n      tag_583\n        /* \"#utility.yul\":12994:12998   */\n      dup2\n        /* \"#utility.yul\":12868:12999   */\n      tag_421\n      jump\t// in\n    tag_583:\n        /* \"#utility.yul\":12860:12999   */\n      swap1\n      pop\n        /* \"#utility.yul\":12587:13006   */\n      swap2\n      swap1\n      pop\n      jump\t// out\n        /* \"#utility.yul\":13012:13187   */\n    tag_422:\n        /* \"#utility.yul\":13152:13179   */\n      0x4578636564656564206d6178696d756d20776974686472617700000000000000\n        /* \"#utility.yul\":13148:13149   */\n      0x00\n        /* \"#utility.yul\":13140:13146   */\n      dup3\n        /* \"#utility.yul\":13136:13150   */\n      add\n        /* \"#utility.yul\":13129:13180   */\n      mstore\n        /* \"#utility.yul\":13012:13187   */\n      pop\n      jump\t// out\n        /* \"#utility.yul\":13193:13559   */\n    tag_423:\n        /* \"#utility.yul\":13335:13338   */\n      0x00\n        /* \"#utility.yul\":13356:13423   */\n      tag_586\n        /* \"#utility.yul\":13420:13422   */\n      0x19\n        /* \"#utility.yul\":13415:13418   */\n      dup4\n        /* \"#utility.yul\":13356:13423   */\n      tag_408\n      jump\t// in\n    tag_586:\n        /* \"#utility.yul\":13349:13423   */\n      swap2\n      pop\n        /* \"#utility.yul\":13432:13525   */\n      tag_587\n        /* \"#utility.yul\":13521:13524   */\n      dup3\n        /* \"#utility.yul\":13432:13525   */\n      tag_422\n      jump\t// in\n    tag_587:\n        /* \"#utility.yul\":13550:13552   */\n      0x20\n        /* \"#utility.yul\":13545:13548   */\n      dup3\n        /* \"#utility.yul\":13541:13553   */\n      add\n        /* \"#utility.yul\":13534:13553   */\n      swap1\n      pop\n        /* \"#utility.yul\":13193:13559   */\n      swap2\n      swap1\n      pop\n      jump\t// out\n        /* \"#utility.yul\":13565:13984   */\n    tag_139:\n        /* \"#utility.yul\":13731:13735   */\n      0x00\n        /* \"#utility.yul\":13769:13771   */\n      0x20\n        /* \"#utility.yul\":13758:13767   */\n      dup3\n        /* \"#utility.yul\":13754:13772   */\n      add\n        /* \"#utility.yul\":13746:13772   */\n      swap1\n      pop\n        /* \"#utility.yul\":13818:13827   */\n      dup2\n        /* \"#utility.yul\":13812:13816   */\n      dup2\n        /* \"#utility.yul\":13808:13828   */\n      sub\n        /* \"#utility.yul\":13804:13805   */\n      0x00\n        /* \"#utility.yul\":13793:13802   */\n      dup4\n        /* \"#utility.yul\":13789:13806   */\n      add\n        /* \"#utility.yul\":13782:13829   */\n      mstore\n        /* \"#utility.yul\":13846:13977   */\n      tag_589\n        /* \"#utility.yul\":13972:13976   */\n      dup2\n        /* \"#utility.yul\":13846:13977   */\n      tag_423\n      jump\t// in\n    tag_589:\n        /* \"#utility.yul\":13838:13977   */\n      swap1\n      pop\n        /* \"#utility.yul\":13565:13984   */\n      swap2\n      swap1\n      pop\n      jump\t// out\n        /* \"#utility.yul\":13990:14172   */\n    tag_424:\n        /* \"#utility.yul\":14130:14164   */\n      0x416d6f756e74206d7573742062652067726561746572207468616e207a65726f\n        /* \"#utility.yul\":14126:14127   */\n      0x00\n        /* \"#utility.yul\":14118:14124   */\n      dup3\n        /* \"#utility.yul\":14114:14128   */\n      add\n        /* \"#utility.yul\":14107:14165   */\n      mstore\n        /* \"#utility.yul\":13990:14172   */\n      pop\n      jump\t// out\n        /* \"#utility.yul\":14178:14544   */\n    tag_425:\n        /* \"#utility.yul\":14320:14323   */\n      0x00\n        /* \"#utility.yul\":14341:14408   */\n      tag_592\n        /* \"#utility.yul\":14405:14407   */\n      0x20\n        /* \"#utility.yul\":14400:14403   */\n      dup4\n        /* \"#utility.yul\":14341:14408   */\n      tag_408\n      jump\t// in\n    tag_592:\n        /* \"#utility.yul\":14334:14408   */\n      swap2\n      pop\n        /* \"#utility.yul\":14417:14510   */\n      tag_593\n        /* \"#utility.yul\":14506:14509   */\n      dup3\n        /* \"#utility.yul\":14417:14510   */\n      tag_424\n      jump\t// in\n    tag_593:\n        /* \"#utility.yul\":14535:14537   */\n      0x20\n        /* \"#utility.yul\":14530:14533   */\n      dup3\n        /* \"#utility.yul\":14526:14538   */\n      add\n        /* \"#utility.yul\":14519:14538   */\n      swap1\n      pop\n        /* \"#utility.yul\":14178:14544   */\n      swap2\n      swap1\n      pop\n      jump\t// out\n        /* \"#utility.yul\":14550:14969   */\n    tag_146:\n        /* \"#utility.yul\":14716:14720   */\n      0x00\n        /* \"#utility.yul\":14754:14756   */\n      0x20\n        /* \"#utility.yul\":14743:14752   */\n      dup3\n        /* \"#utility.yul\":14739:14757   */\n      add\n        /* \"#utility.yul\":14731:14757   */\n      swap1\n      pop\n        /* \"#utility.yul\":14803:14812   */\n      dup2\n        /* \"#utility.yul\":14797:14801   */\n      dup2\n        /* \"#utility.yul\":14793:14813   */\n      sub\n        /* \"#utility.yul\":14789:14790   */\n      0x00\n        /* \"#utility.yul\":14778:14787   */\n      dup4\n        /* \"#utility.yul\":14774:14791   */\n      add\n        /* \"#utility.yul\":14767:14814   */\n      mstore\n        /* \"#utility.yul\":14831:14962   */\n      tag_595\n        /* \"#utility.yul\":14957:14961   */\n      dup2\n        /* \"#utility.yul\":14831:14962   */\n      tag_425\n      jump\t// in\n    tag_595:\n        /* \"#utility.yul\":14823:14962   */\n      swap1\n      pop\n        /* \"#utility.yul\":14550:14969   */\n      swap2\n      swap1\n      pop\n      jump\t// out\n        /* \"#utility.yul\":14975:15210   */\n    tag_426:\n        /* \"#utility.yul\":15115:15149   */\n      0x4e6f7420656e6f7567682066756e647320696e206465706f7369747320746f20\n        /* \"#utility.yul\":15111:15112   */\n      0x00\n        /* \"#utility.yul\":15103:15109   */\n      dup3\n        /* \"#utility.yul\":15099:15113   */\n      add\n        /* \"#utility.yul\":15092:15150   */\n      mstore\n        /* \"#utility.yul\":15184:15202   */\n      0x636f766572207769746864726177616c00000000000000000000000000000000\n        /* \"#utility.yul\":15179:15181   */\n      0x20\n        /* \"#utility.yul\":15171:15177   */\n      dup3\n        /* \"#utility.yul\":15167:15182   */\n      add\n        /* \"#utility.yul\":15160:15203   */\n      mstore\n        /* \"#utility.yul\":14975:15210   */\n      pop\n      jump\t// out\n        /* \"#utility.yul\":15216:15582   */\n    tag_427:\n        /* \"#utility.yul\":15358:15361   */\n      0x00\n        /* \"#utility.yul\":15379:15446   */\n      tag_598\n        /* \"#utility.yul\":15443:15445   */\n      0x30\n        /* \"#utility.yul\":15438:15441   */\n      dup4\n        /* \"#utility.yul\":15379:15446   */\n      tag_408\n      jump\t// in\n    tag_598:\n        /* \"#utility.yul\":15372:15446   */\n      swap2\n      pop\n        /* \"#utility.yul\":15455:15548   */\n      tag_599\n        /* \"#utility.yul\":15544:15547   */\n      dup3\n        /* \"#utility.yul\":15455:15548   */\n      tag_426\n      jump\t// in\n    tag_599:\n        /* \"#utility.yul\":15573:15575   */\n      0x40\n        /* \"#utility.yul\":15568:15571   */\n      dup3\n        /* \"#utility.yul\":15564:15576   */\n      add\n        /* \"#utility.yul\":15557:15576   */\n      swap1\n      pop\n        /* \"#utility.yul\":15216:15582   */\n      swap2\n      swap1\n      pop\n      jump\t// out\n        /* \"#utility.yul\":15588:16007   */\n    tag_149:\n        /* \"#utility.yul\":15754:15758   */\n      0x00\n        /* \"#utility.yul\":15792:15794   */\n      0x20\n        /* \"#utility.yul\":15781:15790   */\n      dup3\n        /* \"#utility.yul\":15777:15795   */\n      add\n        /* \"#utility.yul\":15769:15795   */\n      swap1\n      pop\n        /* \"#utility.yul\":15841:15850   */\n      dup2\n        /* \"#utility.yul\":15835:15839   */\n      dup2\n        /* \"#utility.yul\":15831:15851   */\n      sub\n        /* \"#utility.yul\":15827:15828   */\n      0x00\n        /* \"#utility.yul\":15816:15825   */\n      dup4\n        /* \"#utility.yul\":15812:15829   */\n      add\n        /* \"#utility.yul\":15805:15852   */\n      mstore\n        /* \"#utility.yul\":15869:16000   */\n      tag_601\n        /* \"#utility.yul\":15995:15999   */\n      dup2\n        /* \"#utility.yul\":15869:16000   */\n      tag_427\n      jump\t// in\n    tag_601:\n        /* \"#utility.yul\":15861:16000   */\n      swap1\n      pop\n        /* \"#utility.yul\":15588:16007   */\n      swap2\n      swap1\n      pop\n      jump\t// out\n        /* \"#utility.yul\":16013:16207   */\n    tag_161:\n        /* \"#utility.yul\":16053:16057   */\n      0x00\n        /* \"#utility.yul\":16073:16093   */\n      tag_603\n        /* \"#utility.yul\":16091:16092   */\n      dup3\n        /* \"#utility.yul\":16073:16093   */\n      tag_386\n      jump\t// in\n    tag_603:\n        /* \"#utility.yul\":16068:16093   */\n      swap2\n      pop\n        /* \"#utility.yul\":16107:16127   */\n      tag_604\n        /* \"#utility.yul\":16125:16126   */\n      dup4\n        /* \"#utility.yul\":16107:16127   */\n      tag_386\n      jump\t// in\n    tag_604:\n        /* \"#utility.yul\":16102:16127   */\n      swap3\n      pop\n        /* \"#utility.yul\":16151:16152   */\n      dup3\n        /* \"#utility.yul\":16148:16149   */\n      dup3\n        /* \"#utility.yul\":16144:16153   */\n      sub\n        /* \"#utility.yul\":16136:16153   */\n      swap1\n      pop\n        /* \"#utility.yul\":16175:16176   */\n      dup2\n        /* \"#utility.yul\":16169:16173   */\n      dup2\n        /* \"#utility.yul\":16166:16177   */\n      gt\n        /* \"#utility.yul\":16163:16200   */\n      iszero\n      tag_605\n      jumpi\n        /* \"#utility.yul\":16180:16198   */\n      tag_606\n      tag_416\n      jump\t// in\n    tag_606:\n        /* \"#utility.yul\":16163:16200   */\n    tag_605:\n        /* \"#utility.yul\":16013:16207   */\n      swap3\n      swap2\n      pop\n      pop\n      jump\t// out\n        /* \"#utility.yul\":16213:16655   */\n    tag_182:\n        /* \"#utility.yul\":16362:16366   */\n      0x00\n        /* \"#utility.yul\":16400:16402   */\n      0x60\n        /* \"#utility.yul\":16389:16398   */\n      dup3\n        /* \"#utility.yul\":16385:16403   */\n      add\n        /* \"#utility.yul\":16377:16403   */\n      swap1\n      pop\n        /* \"#utility.yul\":16413:16484   */\n      tag_608\n        /* \"#utility.yul\":16481:16482   */\n      0x00\n        /* \"#utility.yul\":16470:16479   */\n      dup4\n        /* \"#utility.yul\":16466:16483   */\n      add\n        /* \"#utility.yul\":16457:16463   */\n      dup7\n        /* \"#utility.yul\":16413:16484   */\n      tag_406\n      jump\t// in\n    tag_608:\n        /* \"#utility.yul\":16494:16566   */\n      tag_609\n        /* \"#utility.yul\":16562:16564   */\n      0x20\n        /* \"#utility.yul\":16551:16560   */\n      dup4\n        /* \"#utility.yul\":16547:16565   */\n      add\n        /* \"#utility.yul\":16538:16544   */\n      dup6\n        /* \"#utility.yul\":16494:16566   */\n      tag_387\n      jump\t// in\n    tag_609:\n        /* \"#utility.yul\":16576:16648   */\n      tag_610\n        /* \"#utility.yul\":16644:16646   */\n      0x40\n        /* \"#utility.yul\":16633:16642   */\n      dup4\n        /* \"#utility.yul\":16629:16647   */\n      add\n        /* \"#utility.yul\":16620:16626   */\n      dup5\n        /* \"#utility.yul\":16576:16648   */\n      tag_387\n      jump\t// in\n    tag_610:\n        /* \"#utility.yul\":16213:16655   */\n      swap5\n      swap4\n      pop\n      pop\n      pop\n      pop\n      jump\t// out\n        /* \"#utility.yul\":16661:16830   */\n    tag_428:\n        /* \"#utility.yul\":16801:16822   */\n      0x496e76616c6964207765656b206e756d62657200000000000000000000000000\n        /* \"#utility.yul\":16797:16798   */\n      0x00\n        /* \"#utility.yul\":16789:16795   */\n      dup3\n        /* \"#utility.yul\":16785:16799   */\n      add\n        /* \"#utility.yul\":16778:16823   */\n      mstore\n        /* \"#utility.yul\":16661:16830   */\n      pop\n      jump\t// out\n        /* \"#utility.yul\":16836:17202   */\n    tag_429:\n        /* \"#utility.yul\":16978:16981   */\n      0x00\n        /* \"#utility.yul\":16999:17066   */\n      tag_613\n        /* \"#utility.yul\":17063:17065   */\n      0x13\n        /* \"#utility.yul\":17058:17061   */\n      dup4\n        /* \"#utility.yul\":16999:17066   */\n      tag_408\n      jump\t// in\n    tag_613:\n        /* \"#utility.yul\":16992:17066   */\n      swap2\n      pop\n        /* \"#utility.yul\":17075:17168   */\n      tag_614\n        /* \"#utility.yul\":17164:17167   */\n      dup3\n        /* \"#utility.yul\":17075:17168   */\n      tag_428\n      jump\t// in\n    tag_614:\n        /* \"#utility.yul\":17193:17195   */\n      0x20\n        /* \"#utility.yul\":17188:17191   */\n      dup3\n        /* \"#utility.yul\":17184:17196   */\n      add\n        /* \"#utility.yul\":17177:17196   */\n      swap1\n      pop\n        /* \"#utility.yul\":16836:17202   */\n      swap2\n      swap1\n      pop\n      jump\t// out\n        /* \"#utility.yul\":17208:17627   */\n    tag_186:\n        /* \"#utility.yul\":17374:17378   */\n      0x00\n        /* \"#utility.yul\":17412:17414   */\n      0x20\n        /* \"#utility.yul\":17401:17410   */\n      dup3\n        /* \"#utility.yul\":17397:17415   */\n      add\n        /* \"#utility.yul\":17389:17415   */\n      swap1\n      pop\n        /* \"#utility.yul\":17461:17470   */\n      dup2\n        /* \"#utility.yul\":17455:17459   */\n      dup2\n        /* \"#utility.yul\":17451:17471   */\n      sub\n        /* \"#utility.yul\":17447:17448   */\n      0x00\n        /* \"#utility.yul\":17436:17445   */\n      dup4\n        /* \"#utility.yul\":17432:17449   */\n      add\n        /* \"#utility.yul\":17425:17472   */\n      mstore\n        /* \"#utility.yul\":17489:17620   */\n      tag_616\n        /* \"#utility.yul\":17615:17619   */\n      dup2\n        /* \"#utility.yul\":17489:17620   */\n      tag_429\n      jump\t// in\n    tag_616:\n        /* \"#utility.yul\":17481:17620   */\n      swap1\n      pop\n        /* \"#utility.yul\":17208:17627   */\n      swap2\n      swap1\n      pop\n      jump\t// out\n        /* \"#utility.yul\":17633:17808   */\n    tag_430:\n        /* \"#utility.yul\":17773:17800   */\n      0x4d696e696d616c20626f72726f7720697320302e322045746800000000000000\n        /* \"#utility.yul\":17769:17770   */\n      0x00\n        /* \"#utility.yul\":17761:17767   */\n      dup3\n        /* \"#utility.yul\":17757:17771   */\n      add\n        /* \"#utility.yul\":17750:17801   */\n      mstore\n        /* \"#utility.yul\":17633:17808   */\n      pop\n      jump\t// out\n        /* \"#utility.yul\":17814:18180   */\n    tag_431:\n        /* \"#utility.yul\":17956:17959   */\n      0x00\n        /* \"#utility.yul\":17977:18044   */\n      tag_619\n        /* \"#utility.yul\":18041:18043   */\n      0x19\n        /* \"#utility.yul\":18036:18039   */\n      dup4\n        /* \"#utility.yul\":17977:18044   */\n      tag_408\n      jump\t// in\n    tag_619:\n        /* \"#utility.yul\":17970:18044   */\n      swap2\n      pop\n        /* \"#utility.yul\":18053:18146   */\n      tag_620\n        /* \"#utility.yul\":18142:18145   */\n      dup3\n        /* \"#utility.yul\":18053:18146   */\n      tag_430\n      jump\t// in\n    tag_620:\n        /* \"#utility.yul\":18171:18173   */\n      0x20\n        /* \"#utility.yul\":18166:18169   */\n      dup3\n        /* \"#utility.yul\":18162:18174   */\n      add\n        /* \"#utility.yul\":18155:18174   */\n      swap1\n      pop\n        /* \"#utility.yul\":17814:18180   */\n      swap2\n      swap1\n      pop\n      jump\t// out\n        /* \"#utility.yul\":18186:18605   */\n    tag_190:\n        /* \"#utility.yul\":18352:18356   */\n      0x00\n        /* \"#utility.yul\":18390:18392   */\n      0x20\n        /* \"#utility.yul\":18379:18388   */\n      dup3\n        /* \"#utility.yul\":18375:18393   */\n      add\n        /* \"#utility.yul\":18367:18393   */\n      swap1\n      pop\n        /* \"#utility.yul\":18439:18448   */\n      dup2\n        /* \"#utility.yul\":18433:18437   */\n      dup2\n        /* \"#utility.yul\":18429:18449   */\n      sub\n        /* \"#utility.yul\":18425:18426   */\n      0x00\n        /* \"#utility.yul\":18414:18423   */\n      dup4\n        /* \"#utility.yul\":18410:18427   */\n      add\n        /* \"#utility.yul\":18403:18450   */\n      mstore\n        /* \"#utility.yul\":18467:18598   */\n      tag_622\n        /* \"#utility.yul\":18593:18597   */\n      dup2\n        /* \"#utility.yul\":18467:18598   */\n      tag_431\n      jump\t// in\n    tag_622:\n        /* \"#utility.yul\":18459:18598   */\n      swap1\n      pop\n        /* \"#utility.yul\":18186:18605   */\n      swap2\n      swap1\n      pop\n      jump\t// out\n        /* \"#utility.yul\":18611:18754   */\n    tag_432:\n        /* \"#utility.yul\":18668:18673   */\n      0x00\n        /* \"#utility.yul\":18699:18705   */\n      dup2\n        /* \"#utility.yul\":18693:18706   */\n      mload\n        /* \"#utility.yul\":18684:18706   */\n      swap1\n      pop\n        /* \"#utility.yul\":18715:18748   */\n      tag_624\n        /* \"#utility.yul\":18742:18747   */\n      dup2\n        /* \"#utility.yul\":18715:18748   */\n      tag_395\n      jump\t// in\n    tag_624:\n        /* \"#utility.yul\":18611:18754   */\n      swap3\n      swap2\n      pop\n      pop\n      jump\t// out\n        /* \"#utility.yul\":18760:19111   */\n    tag_195:\n        /* \"#utility.yul\":18830:18836   */\n      0x00\n        /* \"#utility.yul\":18879:18881   */\n      0x20\n        /* \"#utility.yul\":18867:18876   */\n      dup3\n        /* \"#utility.yul\":18858:18865   */\n      dup5\n        /* \"#utility.yul\":18854:18877   */\n      sub\n        /* \"#utility.yul\":18850:18882   */\n      slt\n        /* \"#utility.yul\":18847:18966   */\n      iszero\n      tag_626\n      jumpi\n        /* \"#utility.yul\":18885:18964   */\n      tag_627\n      tag_389\n      jump\t// in\n    tag_627:\n        /* \"#utility.yul\":18847:18966   */\n    tag_626:\n        /* \"#utility.yul\":19005:19006   */\n      0x00\n        /* \"#utility.yul\":19030:19094   */\n      tag_628\n        /* \"#utility.yul\":19086:19093   */\n      dup5\n        /* \"#utility.yul\":19077:19083   */\n      dup3\n        /* \"#utility.yul\":19066:19075   */\n      dup6\n        /* \"#utility.yul\":19062:19084   */\n      add\n        /* \"#utility.yul\":19030:19094   */\n      tag_432\n      jump\t// in\n    tag_628:\n        /* \"#utility.yul\":19020:19094   */\n      swap2\n      pop\n        /* \"#utility.yul\":18976:19104   */\n      pop\n        /* \"#utility.yul\":18760:19111   */\n      swap3\n      swap2\n      pop\n      pop\n      jump\t// out\n        /* \"#utility.yul\":19117:19348   */\n    tag_202:\n        /* \"#utility.yul\":19155:19158   */\n      0x00\n        /* \"#utility.yul\":19178:19201   */\n      tag_630\n        /* \"#utility.yul\":19195:19200   */\n      dup3\n        /* \"#utility.yul\":19178:19201   */\n      tag_404\n      jump\t// in\n    tag_630:\n        /* \"#utility.yul\":19169:19201   */\n      swap2\n      pop\n        /* \"#utility.yul\":19223:19289   */\n      0x7fffffffffffffffffffffffffffffffffffffffffffffffffffffffffffffff\n        /* \"#utility.yul\":19216:19221   */\n      dup3\n        /* \"#utility.yul\":19213:19290   */\n      sub\n        /* \"#utility.yul\":19210:19313   */\n      tag_631\n      jumpi\n        /* \"#utility.yul\":19293:19311   */\n      tag_632\n      tag_416\n      jump\t// in\n    tag_632:\n        /* \"#utility.yul\":19210:19313   */\n    tag_631:\n        /* \"#utility.yul\":19340:19341   */\n      0x01\n        /* \"#utility.yul\":19333:19338   */\n      dup3\n        /* \"#utility.yul\":19329:19342   */\n      add\n        /* \"#utility.yul\":19322:19342   */\n      swap1\n      pop\n        /* \"#utility.yul\":19117:19348   */\n      swap2\n      swap1\n      pop\n      jump\t// out\n        /* \"#utility.yul\":19354:19764   */\n    tag_205:\n        /* \"#utility.yul\":19394:19401   */\n      0x00\n        /* \"#utility.yul\":19417:19437   */\n      tag_634\n        /* \"#utility.yul\":19435:19436   */\n      dup3\n        /* \"#utility.yul\":19417:19437   */\n      tag_386\n      jump\t// in\n    tag_634:\n        /* \"#utility.yul\":19412:19437   */\n      swap2\n      pop\n        /* \"#utility.yul\":19451:19471   */\n      tag_635\n        /* \"#utility.yul\":19469:19470   */\n      dup4\n        /* \"#utility.yul\":19451:19471   */\n      tag_386\n      jump\t// in\n    tag_635:\n        /* \"#utility.yul\":19446:19471   */\n      swap3\n      pop\n        /* \"#utility.yul\":19506:19507   */\n      dup3\n        /* \"#utility.yul\":19503:19504   */\n      dup3\n        /* \"#utility.yul\":19499:19508   */\n      mul\n        /* \"#utility.yul\":19528:19558   */\n      tag_636\n        /* \"#utility.yul\":19546:19557   */\n      dup2\n        /* \"#utility.yul\":19528:19558   */\n      tag_386\n      jump\t// in\n    tag_636:\n        /* \"#utility.yul\":19517:19558   */\n      swap2\n      pop\n        /* \"#utility.yul\":19707:19708   */\n      dup3\n        /* \"#utility.yul\":19698:19705   */\n      dup3\n        /* \"#utility.yul\":19694:19709   */\n      div\n        /* \"#utility.yul\":19691:19692   */\n      dup5\n        /* \"#utility.yul\":19688:19710   */\n      eq\n        /* \"#utility.yul\":19668:19669   */\n      dup4\n        /* \"#utility.yul\":19661:19670   */\n      iszero\n        /* \"#utility.yul\":19641:19724   */\n      or\n        /* \"#utility.yul\":19618:19757   */\n      tag_637\n      jumpi\n        /* \"#utility.yul\":19737:19755   */\n      tag_638\n      tag_416\n      jump\t// in\n    tag_638:\n        /* \"#utility.yul\":19618:19757   */\n    tag_637:\n        /* \"#utility.yul\":19402:19764   */\n      pop\n        /* \"#utility.yul\":19354:19764   */\n      swap3\n      swap2\n      pop\n      pop\n      jump\t// out\n        /* \"#utility.yul\":19770:19961   */\n    tag_207:\n        /* \"#utility.yul\":19810:19813   */\n      0x00\n        /* \"#utility.yul\":19829:19849   */\n      tag_640\n        /* \"#utility.yul\":19847:19848   */\n      dup3\n        /* \"#utility.yul\":19829:19849   */\n      tag_386\n      jump\t// in\n    tag_640:\n        /* \"#utility.yul\":19824:19849   */\n      swap2\n      pop\n        /* \"#utility.yul\":19863:19883   */\n      tag_641\n        /* \"#utility.yul\":19881:19882   */\n      dup4\n        /* \"#utility.yul\":19863:19883   */\n      tag_386\n      jump\t// in\n    tag_641:\n        /* \"#utility.yul\":19858:19883   */\n      swap3\n      pop\n        /* \"#utility.yul\":19906:19907   */\n      dup3\n        /* \"#utility.yul\":19903:19904   */\n      dup3\n        /* \"#utility.yul\":19899:19908   */\n      add\n        /* \"#utility.yul\":19892:19908   */\n      swap1\n      pop\n        /* \"#utility.yul\":19927:19930   */\n      dup1\n        /* \"#utility.yul\":19924:19925   */\n      dup3\n        /* \"#utility.yul\":19921:19931   */\n      gt\n        /* \"#utility.yul\":19918:19954   */\n      iszero\n      tag_642\n      jumpi\n        /* \"#utility.yul\":19934:19952   */\n      tag_643\n      tag_416\n      jump\t// in\n    tag_643:\n        /* \"#utility.yul\":19918:19954   */\n    tag_642:\n        /* \"#utility.yul\":19770:19961   */\n      swap3\n      swap2\n      pop\n      pop\n      jump\t// out\n        /* \"#utility.yul\":19967:20147   */\n    tag_433:\n        /* \"#utility.yul\":20015:20092   */\n      0x4e487b7100000000000000000000000000000000000000000000000000000000\n        /* \"#utility.yul\":20012:20013   */\n      0x00\n        /* \"#utility.yul\":20005:20093   */\n      mstore\n        /* \"#utility.yul\":20112:20116   */\n      0x12\n        /* \"#utility.yul\":20109:20110   */\n      0x04\n        /* \"#utility.yul\":20102:20117   */\n      mstore\n        /* \"#utility.yul\":20136:20140   */\n      0x24\n        /* \"#utility.yul\":20133:20134   */\n      0x00\n        /* \"#utility.yul\":20126:20141   */\n      revert\n        /* \"#utility.yul\":20153:20338   */\n    tag_216:\n        /* \"#utility.yul\":20193:20194   */\n      0x00\n        /* \"#utility.yul\":20210:20230   */\n      tag_646\n        /* \"#utility.yul\":20228:20229   */\n      dup3\n        /* \"#utility.yul\":20210:20230   */\n      tag_386\n      jump\t// in\n    tag_646:\n        /* \"#utility.yul\":20205:20230   */\n      swap2\n      pop\n        /* \"#utility.yul\":20244:20264   */\n      tag_647\n        /* \"#utility.yul\":20262:20263   */\n      dup4\n        /* \"#utility.yul\":20244:20264   */\n      tag_386\n      jump\t// in\n    tag_647:\n        /* \"#utility.yul\":20239:20264   */\n      swap3\n      pop\n        /* \"#utility.yul\":20283:20284   */\n      dup3\n        /* \"#utility.yul\":20273:20308   */\n      tag_648\n      jumpi\n        /* \"#utility.yul\":20288:20306   */\n      tag_649\n      tag_433\n      jump\t// in\n    tag_649:\n        /* \"#utility.yul\":20273:20308   */\n    tag_648:\n        /* \"#utility.yul\":20330:20331   */\n      dup3\n        /* \"#utility.yul\":20327:20328   */\n      dup3\n        /* \"#utility.yul\":20323:20332   */\n      div\n        /* \"#utility.yul\":20318:20332   */\n      swap1\n      pop\n        /* \"#utility.yul\":20153:20338   */\n      swap3\n      swap2\n      pop\n      pop\n      jump\t// out\n        /* \"#utility.yul\":20344:20524   */\n    tag_434:\n        /* \"#utility.yul\":20392:20469   */\n      0x4e487b7100000000000000000000000000000000000000000000000000000000\n        /* \"#utility.yul\":20389:20390   */\n      0x00\n        /* \"#utility.yul\":20382:20470   */\n      mstore\n        /* \"#utility.yul\":20489:20493   */\n      0x41\n        /* \"#utility.yul\":20486:20487   */\n      0x04\n        /* \"#utility.yul\":20479:20494   */\n      mstore\n        /* \"#utility.yul\":20513:20517   */\n      0x24\n        /* \"#utility.yul\":20510:20511   */\n      0x00\n        /* \"#utility.yul\":20503:20518   */\n      revert\n        /* \"#utility.yul\":20530:20710   */\n    tag_435:\n        /* \"#utility.yul\":20578:20655   */\n      0x4e487b7100000000000000000000000000000000000000000000000000000000\n        /* \"#utility.yul\":20575:20576   */\n      0x00\n        /* \"#utility.yul\":20568:20656   */\n      mstore\n        /* \"#utility.yul\":20675:20679   */\n      0x22\n        /* \"#utility.yul\":20672:20673   */\n      0x04\n        /* \"#utility.yul\":20665:20680   */\n      mstore\n        /* \"#utility.yul\":20699:20703   */\n      0x24\n        /* \"#utility.yul\":20696:20697   */\n      0x00\n        /* \"#utility.yul\":20689:20704   */\n      revert\n        /* \"#utility.yul\":20716:21036   */\n    tag_250:\n        /* \"#utility.yul\":20760:20766   */\n      0x00\n        /* \"#utility.yul\":20797:20798   */\n      0x02\n        /* \"#utility.yul\":20791:20795   */\n      dup3\n        /* \"#utility.yul\":20787:20799   */\n      div\n        /* \"#utility.yul\":20777:20799   */\n      swap1\n      pop\n        /* \"#utility.yul\":20844:20845   */\n      0x01\n        /* \"#utility.yul\":20838:20842   */\n      dup3\n        /* \"#utility.yul\":20834:20846   */\n      and\n        /* \"#utility.yul\":20865:20883   */\n      dup1\n        /* \"#utility.yul\":20855:20936   */\n      tag_653\n      jumpi\n        /* \"#utility.yul\":20921:20925   */\n      0x7f\n        /* \"#utility.yul\":20913:20919   */\n      dup3\n        /* \"#utility.yul\":20909:20926   */\n      and\n        /* \"#utility.yul\":20899:20926   */\n      swap2\n      pop\n        /* \"#utility.yul\":20855:20936   */\n    tag_653:\n        /* \"#utility.yul\":20983:20985   */\n      0x20\n        /* \"#utility.yul\":20975:20981   */\n      dup3\n        /* \"#utility.yul\":20972:20986   */\n      lt\n        /* \"#utility.yul\":20952:20970   */\n      dup2\n        /* \"#utility.yul\":20949:20987   */\n      sub\n        /* \"#utility.yul\":20946:21030   */\n      tag_654\n      jumpi\n        /* \"#utility.yul\":21002:21020   */\n      tag_655\n      tag_435\n      jump\t// in\n    tag_655:\n        /* \"#utility.yul\":20946:21030   */\n    tag_654:\n        /* \"#utility.yul\":20767:21036   */\n      pop\n        /* \"#utility.yul\":20716:21036   */\n      swap2\n      swap1\n      pop\n      jump\t// out\n        /* \"#utility.yul\":21042:21183   */\n    tag_436:\n        /* \"#utility.yul\":21091:21095   */\n      0x00\n        /* \"#utility.yul\":21114:21117   */\n      dup2\n        /* \"#utility.yul\":21106:21117   */\n      swap1\n      pop\n        /* \"#utility.yul\":21137:21140   */\n      dup2\n        /* \"#utility.yul\":21134:21135   */\n      0x00\n        /* \"#utility.yul\":21127:21141   */\n      mstore\n        /* \"#utility.yul\":21171:21175   */\n      0x20\n        /* \"#utility.yul\":21168:21169   */\n      0x00\n        /* \"#utility.yul\":21158:21176   */\n      keccak256\n        /* \"#utility.yul\":21150:21176   */\n      swap1\n      pop\n        /* \"#utility.yul\":21042:21183   */\n      swap2\n      swap1\n      pop\n      jump\t// out\n        /* \"#utility.yul\":21189:21282   */\n    tag_437:\n        /* \"#utility.yul\":21226:21232   */\n      0x00\n        /* \"#utility.yul\":21273:21275   */\n      0x20\n        /* \"#utility.yul\":21268:21270   */\n      0x1f\n        /* \"#utility.yul\":21261:21266   */\n      dup4\n        /* \"#utility.yul\":21257:21271   */\n      add\n        /* \"#utility.yul\":21253:21276   */\n      div\n        /* \"#utility.yul\":21243:21276   */\n      swap1\n      pop\n        /* \"#utility.yul\":21189:21282   */\n      swap2\n      swap1\n      pop\n      jump\t// out\n        /* \"#utility.yul\":21288:21395   */\n    tag_438:\n        /* \"#utility.yul\":21332:21340   */\n      0x00\n        /* \"#utility.yul\":21382:21387   */\n      dup3\n        /* \"#utility.yul\":21376:21380   */\n      dup3\n        /* \"#utility.yul\":21372:21388   */\n      shl\n        /* \"#utility.yul\":21351:21388   */\n      swap1\n      pop\n        /* \"#utility.yul\":21288:21395   */\n      swap3\n      swap2\n      pop\n      pop\n      jump\t// out\n        /* \"#utility.yul\":21401:21794   */\n    tag_439:\n        /* \"#utility.yul\":21470:21476   */\n      0x00\n        /* \"#utility.yul\":21520:21521   */\n      0x08\n        /* \"#utility.yul\":21508:21518   */\n      dup4\n        /* \"#utility.yul\":21504:21522   */\n      mul\n        /* \"#utility.yul\":21543:21640   */\n      tag_660\n        /* \"#utility.yul\":21573:21639   */\n      0xffffffffffffffffffffffffffffffffffffffffffffffffffffffffffffffff\n        /* \"#utility.yul\":21562:21571   */\n      dup3\n        /* \"#utility.yul\":21543:21640   */\n      tag_438\n      jump\t// in\n    tag_660:\n        /* \"#utility.yul\":21661:21700   */\n      tag_661\n        /* \"#utility.yul\":21691:21699   */\n      dup7\n        /* \"#utility.yul\":21680:21689   */\n      dup4\n        /* \"#utility.yul\":21661:21700   */\n      tag_438\n      jump\t// in\n    tag_661:\n        /* \"#utility.yul\":21649:21700   */\n      swap6\n      pop\n        /* \"#utility.yul\":21733:21737   */\n      dup1\n        /* \"#utility.yul\":21729:21738   */\n      not\n        /* \"#utility.yul\":21722:21727   */\n      dup5\n        /* \"#utility.yul\":21718:21739   */\n      and\n        /* \"#utility.yul\":21709:21739   */\n      swap4\n      pop\n        /* \"#utility.yul\":21782:21786   */\n      dup1\n        /* \"#utility.yul\":21772:21780   */\n      dup7\n        /* \"#utility.yul\":21768:21787   */\n      and\n        /* \"#utility.yul\":21761:21766   */\n      dup5\n        /* \"#utility.yul\":21758:21788   */\n      or\n        /* \"#utility.yul\":21748:21788   */\n      swap3\n      pop\n        /* \"#utility.yul\":21477:21794   */\n      pop\n      pop\n        /* \"#utility.yul\":21401:21794   */\n      swap4\n      swap3\n      pop\n      pop\n      pop\n      jump\t// out\n        /* \"#utility.yul\":21800:21860   */\n    tag_440:\n        /* \"#utility.yul\":21828:21831   */\n      0x00\n        /* \"#utility.yul\":21849:21854   */\n      dup2\n        /* \"#utility.yul\":21842:21854   */\n      swap1\n      pop\n        /* \"#utility.yul\":21800:21860   */\n      swap2\n      swap1\n      pop\n      jump\t// out\n        /* \"#utility.yul\":21866:22008   */\n    tag_441:\n        /* \"#utility.yul\":21916:21925   */\n      0x00\n        /* \"#utility.yul\":21949:22002   */\n      tag_664\n        /* \"#utility.yul\":21967:22001   */\n      tag_665\n        /* \"#utility.yul\":21976:22000   */\n      tag_666\n        /* \"#utility.yul\":21994:21999   */\n      dup5\n        /* \"#utility.yul\":21976:22000   */\n      tag_386\n      jump\t// in\n    tag_666:\n        /* \"#utility.yul\":21967:22001   */\n      tag_440\n      jump\t// in\n    tag_665:\n        /* \"#utility.yul\":21949:22002   */\n      tag_386\n      jump\t// in\n    tag_664:\n        /* \"#utility.yul\":21936:22002   */\n      swap1\n      pop\n        /* \"#utility.yul\":21866:22008   */\n      swap2\n      swap1\n      pop\n      jump\t// out\n        /* \"#utility.yul\":22014:22089   */\n    tag_442:\n        /* \"#utility.yul\":22057:22060   */\n      0x00\n        /* \"#utility.yul\":22078:22083   */\n      dup2\n        /* \"#utility.yul\":22071:22083   */\n      swap1\n      pop\n        /* \"#utility.yul\":22014:22089   */\n      swap2\n      swap1\n      pop\n      jump\t// out\n        /* \"#utility.yul\":22095:22364   */\n    tag_443:\n        /* \"#utility.yul\":22205:22244   */\n      tag_669\n        /* \"#utility.yul\":22236:22243   */\n      dup4\n        /* \"#utility.yul\":22205:22244   */\n      tag_441\n      jump\t// in\n    tag_669:\n        /* \"#utility.yul\":22266:22357   */\n      tag_670\n        /* \"#utility.yul\":22315:22356   */\n      tag_671\n        /* \"#utility.yul\":22339:22355   */\n      dup3\n        /* \"#utility.yul\":22315:22356   */\n      tag_442\n      jump\t// in\n    tag_671:\n        /* \"#utility.yul\":22307:22313   */\n      dup5\n        /* \"#utility.yul\":22300:22304   */\n      dup5\n        /* \"#utility.yul\":22294:22305   */\n      sload\n        /* \"#utility.yul\":22266:22357   */\n      tag_439\n      jump\t// in\n    tag_670:\n        /* \"#utility.yul\":22260:22264   */\n      dup3\n        /* \"#utility.yul\":22253:22358   */\n      sstore\n        /* \"#utility.yul\":22171:22364   */\n      pop\n        /* \"#utility.yul\":22095:22364   */\n      pop\n      pop\n      pop\n      jump\t// out\n        /* \"#utility.yul\":22370:22443   */\n    tag_444:\n        /* \"#utility.yul\":22415:22418   */\n      0x00\n        /* \"#utility.yul\":22436:22437   */\n      0x00\n        /* \"#utility.yul\":22429:22437   */\n      swap1\n      pop\n        /* \"#utility.yul\":22370:22443   */\n      swap1\n      jump\t// out\n        /* \"#utility.yul\":22449:22638   */\n    tag_445:\n        /* \"#utility.yul\":22526:22558   */\n      tag_674\n      tag_444\n      jump\t// in\n    tag_674:\n        /* \"#utility.yul\":22567:22632   */\n      tag_675\n        /* \"#utility.yul\":22625:22631   */\n      dup2\n        /* \"#utility.yul\":22617:22623   */\n      dup5\n        /* \"#utility.yul\":22611:22615   */\n      dup5\n        /* \"#utility.yul\":22567:22632   */\n      tag_443\n      jump\t// in\n    tag_675:\n        /* \"#utility.yul\":22502:22638   */\n      pop\n        /* \"#utility.yul\":22449:22638   */\n      pop\n      pop\n      jump\t// out\n        /* \"#utility.yul\":22644:22830   */\n    tag_446:\n        /* \"#utility.yul\":22704:22824   */\n    tag_677:\n        /* \"#utility.yul\":22721:22724   */\n      dup2\n        /* \"#utility.yul\":22714:22719   */\n      dup2\n        /* \"#utility.yul\":22711:22725   */\n      lt\n        /* \"#utility.yul\":22704:22824   */\n      iszero\n      tag_679\n      jumpi\n        /* \"#utility.yul\":22775:22814   */\n      tag_680\n        /* \"#utility.yul\":22812:22813   */\n      0x00\n        /* \"#utility.yul\":22805:22810   */\n      dup3\n        /* \"#utility.yul\":22775:22814   */\n      tag_445\n      jump\t// in\n    tag_680:\n        /* \"#utility.yul\":22748:22749   */\n      0x01\n        /* \"#utility.yul\":22741:22746   */\n      dup2\n        /* \"#utility.yul\":22737:22750   */\n      add\n        /* \"#utility.yul\":22728:22750   */\n      swap1\n      pop\n        /* \"#utility.yul\":22704:22824   */\n      jump(tag_677)\n    tag_679:\n        /* \"#utility.yul\":22644:22830   */\n      pop\n      pop\n      jump\t// out\n        /* \"#utility.yul\":22836:23379   */\n    tag_447:\n        /* \"#utility.yul\":22937:22939   */\n      0x1f\n        /* \"#utility.yul\":22932:22935   */\n      dup3\n        /* \"#utility.yul\":22929:22940   */\n      gt\n        /* \"#utility.yul\":22926:23372   */\n      iszero\n      tag_682\n      jumpi\n        /* \"#utility.yul\":22971:23009   */\n      tag_683\n        /* \"#utility.yul\":23003:23008   */\n      dup2\n        /* \"#utility.yul\":22971:23009   */\n      tag_436\n      jump\t// in\n    tag_683:\n        /* \"#utility.yul\":23055:23084   */\n      tag_684\n        /* \"#utility.yul\":23073:23083   */\n      dup5\n        /* \"#utility.yul\":23055:23084   */\n      tag_437\n      jump\t// in\n    tag_684:\n        /* \"#utility.yul\":23045:23053   */\n      dup2\n        /* \"#utility.yul\":23041:23085   */\n      add\n        /* \"#utility.yul\":23238:23240   */\n      0x20\n        /* \"#utility.yul\":23226:23236   */\n      dup6\n        /* \"#utility.yul\":23223:23241   */\n      lt\n        /* \"#utility.yul\":23220:23269   */\n      iszero\n      tag_685\n      jumpi\n        /* \"#utility.yul\":23259:23267   */\n      dup2\n        /* \"#utility.yul\":23244:23267   */\n      swap1\n      pop\n        /* \"#utility.yul\":23220:23269   */\n    tag_685:\n        /* \"#utility.yul\":23282:23362   */\n      tag_686\n        /* \"#utility.yul\":23338:23360   */\n      tag_687\n        /* \"#utility.yul\":23356:23359   */\n      dup6\n        /* \"#utility.yul\":23338:23360   */\n      tag_437\n      jump\t// in\n    tag_687:\n        /* \"#utility.yul\":23328:23336   */\n      dup4\n        /* \"#utility.yul\":23324:23361   */\n      add\n        /* \"#utility.yul\":23311:23322   */\n      dup3\n        /* \"#utility.yul\":23282:23362   */\n      tag_446\n      jump\t// in\n    tag_686:\n        /* \"#utility.yul\":22941:23372   */\n      pop\n      pop\n        /* \"#utility.yul\":22926:23372   */\n    tag_682:\n        /* \"#utility.yul\":22836:23379   */\n      pop\n      pop\n      pop\n      jump\t// out\n        /* \"#utility.yul\":23385:23502   */\n    tag_448:\n        /* \"#utility.yul\":23439:23447   */\n      0x00\n        /* \"#utility.yul\":23489:23494   */\n      dup3\n        /* \"#utility.yul\":23483:23487   */\n      dup3\n        /* \"#utility.yul\":23479:23495   */\n      shr\n        /* \"#utility.yul\":23458:23495   */\n      swap1\n      pop\n        /* \"#utility.yul\":23385:23502   */\n      swap3\n      swap2\n      pop\n      pop\n      jump\t// out\n        /* \"#utility.yul\":23508:23677   */\n    tag_449:\n        /* \"#utility.yul\":23552:23558   */\n      0x00\n        /* \"#utility.yul\":23585:23636   */\n      tag_690\n        /* \"#utility.yul\":23633:23634   */\n      0x00\n        /* \"#utility.yul\":23629:23635   */\n      not\n        /* \"#utility.yul\":23621:23626   */\n      dup5\n        /* \"#utility.yul\":23618:23619   */\n      0x08\n        /* \"#utility.yul\":23614:23627   */\n      mul\n        /* \"#utility.yul\":23585:23636   */\n      tag_448\n      jump\t// in\n    tag_690:\n        /* \"#utility.yul\":23581:23637   */\n      not\n        /* \"#utility.yul\":23666:23670   */\n      dup1\n        /* \"#utility.yul\":23660:23664   */\n      dup4\n        /* \"#utility.yul\":23656:23671   */\n      and\n        /* \"#utility.yul\":23646:23671   */\n      swap2\n      pop\n        /* \"#utility.yul\":23559:23677   */\n      pop\n        /* \"#utility.yul\":23508:23677   */\n      swap3\n      swap2\n      pop\n      pop\n      jump\t// out\n        /* \"#utility.yul\":23682:23977   */\n    tag_450:\n        /* \"#utility.yul\":23758:23762   */\n      0x00\n        /* \"#utility.yul\":23904:23933   */\n      tag_692\n        /* \"#utility.yul\":23929:23932   */\n      dup4\n        /* \"#utility.yul\":23923:23927   */\n      dup4\n        /* \"#utility.yul\":23904:23933   */\n      tag_449\n      jump\t// in\n    tag_692:\n        /* \"#utility.yul\":23896:23933   */\n      swap2\n      pop\n        /* \"#utility.yul\":23966:23969   */\n      dup3\n        /* \"#utility.yul\":23963:23964   */\n      0x02\n        /* \"#utility.yul\":23959:23970   */\n      mul\n        /* \"#utility.yul\":23953:23957   */\n      dup3\n        /* \"#utility.yul\":23950:23971   */\n      or\n        /* \"#utility.yul\":23942:23971   */\n      swap1\n      pop\n        /* \"#utility.yul\":23682:23977   */\n      swap3\n      swap2\n      pop\n      pop\n      jump\t// out\n        /* \"#utility.yul\":23982:25377   */\n    tag_221:\n        /* \"#utility.yul\":24099:24136   */\n      tag_694\n        /* \"#utility.yul\":24132:24135   */\n      dup3\n        /* \"#utility.yul\":24099:24136   */\n      tag_407\n      jump\t// in\n    tag_694:\n        /* \"#utility.yul\":24201:24219   */\n      0xffffffffffffffff\n        /* \"#utility.yul\":24193:24199   */\n      dup2\n        /* \"#utility.yul\":24190:24220   */\n      gt\n        /* \"#utility.yul\":24187:24243   */\n      iszero\n      tag_695\n      jumpi\n        /* \"#utility.yul\":24223:24241   */\n      tag_696\n      tag_434\n      jump\t// in\n    tag_696:\n        /* \"#utility.yul\":24187:24243   */\n    tag_695:\n        /* \"#utility.yul\":24267:24305   */\n      tag_697\n        /* \"#utility.yul\":24299:24303   */\n      dup3\n        /* \"#utility.yul\":24293:24304   */\n      sload\n        /* \"#utility.yul\":24267:24305   */\n      tag_250\n      jump\t// in\n    tag_697:\n        /* \"#utility.yul\":24352:24419   */\n      tag_698\n        /* \"#utility.yul\":24412:24418   */\n      dup3\n        /* \"#utility.yul\":24404:24410   */\n      dup3\n        /* \"#utility.yul\":24398:24402   */\n      dup6\n        /* \"#utility.yul\":24352:24419   */\n      tag_447\n      jump\t// in\n    tag_698:\n        /* \"#utility.yul\":24446:24447   */\n      0x00\n        /* \"#utility.yul\":24470:24474   */\n      0x20\n        /* \"#utility.yul\":24457:24474   */\n      swap1\n      pop\n        /* \"#utility.yul\":24502:24504   */\n      0x1f\n        /* \"#utility.yul\":24494:24500   */\n      dup4\n        /* \"#utility.yul\":24491:24505   */\n      gt\n        /* \"#utility.yul\":24519:24520   */\n      0x01\n        /* \"#utility.yul\":24514:25132   */\n      dup2\n      eq\n      tag_700\n      jumpi\n        /* \"#utility.yul\":25176:25177   */\n      0x00\n        /* \"#utility.yul\":25193:25199   */\n      dup5\n        /* \"#utility.yul\":25190:25267   */\n      iszero\n      tag_701\n      jumpi\n        /* \"#utility.yul\":25242:25251   */\n      dup3\n        /* \"#utility.yul\":25237:25240   */\n      dup8\n        /* \"#utility.yul\":25233:25252   */\n      add\n        /* \"#utility.yul\":25227:25253   */\n      mload\n        /* \"#utility.yul\":25218:25253   */\n      swap1\n      pop\n        /* \"#utility.yul\":25190:25267   */\n    tag_701:\n        /* \"#utility.yul\":25293:25360   */\n      tag_702\n        /* \"#utility.yul\":25353:25359   */\n      dup6\n        /* \"#utility.yul\":25346:25351   */\n      dup3\n        /* \"#utility.yul\":25293:25360   */\n      tag_450\n      jump\t// in\n    tag_702:\n        /* \"#utility.yul\":25287:25291   */\n      dup7\n        /* \"#utility.yul\":25280:25361   */\n      sstore\n        /* \"#utility.yul\":25149:25371   */\n      pop\n        /* \"#utility.yul\":24484:25371   */\n      jump(tag_699)\n        /* \"#utility.yul\":24514:25132   */\n    tag_700:\n        /* \"#utility.yul\":24566:24570   */\n      0x1f\n        /* \"#utility.yul\":24562:24571   */\n      not\n        /* \"#utility.yul\":24554:24560   */\n      dup5\n        /* \"#utility.yul\":24550:24572   */\n      and\n        /* \"#utility.yul\":24600:24637   */\n      tag_703\n        /* \"#utility.yul\":24632:24636   */\n      dup7\n        /* \"#utility.yul\":24600:24637   */\n      tag_436\n      jump\t// in\n    tag_703:\n        /* \"#utility.yul\":24659:24660   */\n      0x00\n        /* \"#utility.yul\":24673:24881   */\n    tag_704:\n        /* \"#utility.yul\":24687:24694   */\n      dup3\n        /* \"#utility.yul\":24684:24685   */\n      dup2\n        /* \"#utility.yul\":24681:24695   */\n      lt\n        /* \"#utility.yul\":24673:24881   */\n      iszero\n      tag_706\n      jumpi\n        /* \"#utility.yul\":24766:24775   */\n      dup5\n        /* \"#utility.yul\":24761:24764   */\n      dup10\n        /* \"#utility.yul\":24757:24776   */\n      add\n        /* \"#utility.yul\":24751:24777   */\n      mload\n        /* \"#utility.yul\":24743:24749   */\n      dup3\n        /* \"#utility.yul\":24736:24778   */\n      sstore\n        /* \"#utility.yul\":24817:24818   */\n      0x01\n        /* \"#utility.yul\":24809:24815   */\n      dup3\n        /* \"#utility.yul\":24805:24819   */\n      add\n        /* \"#utility.yul\":24795:24819   */\n      swap2\n      pop\n        /* \"#utility.yul\":24864:24866   */\n      0x20\n        /* \"#utility.yul\":24853:24862   */\n      dup6\n        /* \"#utility.yul\":24849:24867   */\n      add\n        /* \"#utility.yul\":24836:24867   */\n      swap5\n      pop\n        /* \"#utility.yul\":24710:24714   */\n      0x20\n        /* \"#utility.yul\":24707:24708   */\n      dup2\n        /* \"#utility.yul\":24703:24715   */\n      add\n        /* \"#utility.yul\":24698:24715   */\n      swap1\n      pop\n        /* \"#utility.yul\":24673:24881   */\n      jump(tag_704)\n    tag_706:\n        /* \"#utility.yul\":24909:24915   */\n      dup7\n        /* \"#utility.yul\":24900:24907   */\n      dup4\n        /* \"#utility.yul\":24897:24916   */\n      lt\n        /* \"#utility.yul\":24894:25073   */\n      iszero\n      tag_707\n      jumpi\n        /* \"#utility.yul\":24967:24976   */\n      dup5\n        /* \"#utility.yul\":24962:24965   */\n      dup10\n        /* \"#utility.yul\":24958:24977   */\n      add\n        /* \"#utility.yul\":24952:24978   */\n      mload\n        /* \"#utility.yul\":25010:25058   */\n      tag_708\n        /* \"#utility.yul\":25052:25056   */\n      0x1f\n        /* \"#utility.yul\":25044:25050   */\n      dup10\n        /* \"#utility.yul\":25040:25057   */\n      and\n        /* \"#utility.yul\":25029:25038   */\n      dup3\n        /* \"#utility.yul\":25010:25058   */\n      tag_449\n      jump\t// in\n    tag_708:\n        /* \"#utility.yul\":25002:25008   */\n      dup4\n        /* \"#utility.yul\":24995:25059   */\n      sstore\n        /* \"#utility.yul\":24917:25073   */\n      pop\n        /* \"#utility.yul\":24894:25073   */\n    tag_707:\n        /* \"#utility.yul\":25119:25120   */\n      0x01\n        /* \"#utility.yul\":25115:25116   */\n      0x02\n        /* \"#utility.yul\":25107:25113   */\n      dup9\n        /* \"#utility.yul\":25103:25117   */\n      mul\n        /* \"#utility.yul\":25099:25121   */\n      add\n        /* \"#utility.yul\":25093:25097   */\n      dup9\n        /* \"#utility.yul\":25086:25122   */\n      sstore\n        /* \"#utility.yul\":24521:25132   */\n      pop\n      pop\n      pop\n        /* \"#utility.yul\":24484:25371   */\n    tag_699:\n      pop\n        /* \"#utility.yul\":24074:25377   */\n      pop\n      pop\n      pop\n        /* \"#utility.yul\":23982:25377   */\n      pop\n      pop\n      jump\t// out\n        /* \"#utility.yul\":25383:25556   */\n    tag_451:\n        /* \"#utility.yul\":25523:25548   */\n      0x4d696e696d616c206c656e6420697320302e3120457468000000000000000000\n        /* \"#utility.yul\":25519:25520   */\n      0x00\n        /* \"#utility.yul\":25511:25517   */\n      dup3\n        /* \"#utility.yul\":25507:25521   */\n      add\n        /* \"#utility.yul\":25500:25549   */\n      mstore\n        /* \"#utility.yul\":25383:25556   */\n      pop\n      jump\t// out\n        /* \"#utility.yul\":25562:25928   */\n    tag_452:\n        /* \"#utility.yul\":25704:25707   */\n      0x00\n        /* \"#utility.yul\":25725:25792   */\n      tag_711\n        /* \"#utility.yul\":25789:25791   */\n      0x17\n        /* \"#utility.yul\":25784:25787   */\n      dup4\n        /* \"#utility.yul\":25725:25792   */\n      tag_408\n      jump\t// in\n    tag_711:\n        /* \"#utility.yul\":25718:25792   */\n      swap2\n      pop\n        /* \"#utility.yul\":25801:25894   */\n      tag_712\n        /* \"#utility.yul\":25890:25893   */\n      dup3\n        /* \"#utility.yul\":25801:25894   */\n      tag_451\n      jump\t// in\n    tag_712:\n        /* \"#utility.yul\":25919:25921   */\n      0x20\n        /* \"#utility.yul\":25914:25917   */\n      dup3\n        /* \"#utility.yul\":25910:25922   */\n      add\n        /* \"#utility.yul\":25903:25922   */\n      swap1\n      pop\n        /* \"#utility.yul\":25562:25928   */\n      swap2\n      swap1\n      pop\n      jump\t// out\n        /* \"#utility.yul\":25934:26353   */\n    tag_240:\n        /* \"#utility.yul\":26100:26104   */\n      0x00\n        /* \"#utility.yul\":26138:26140   */\n      0x20\n        /* \"#utility.yul\":26127:26136   */\n      dup3\n        /* \"#utility.yul\":26123:26141   */\n      add\n        /* \"#utility.yul\":26115:26141   */\n      swap1\n      pop\n        /* \"#utility.yul\":26187:26196   */\n      dup2\n        /* \"#utility.yul\":26181:26185   */\n      dup2\n        /* \"#utility.yul\":26177:26197   */\n      sub\n        /* \"#utility.yul\":26173:26174   */\n      0x00\n        /* \"#utility.yul\":26162:26171   */\n      dup4\n        /* \"#utility.yul\":26158:26175   */\n      add\n        /* \"#utility.yul\":26151:26198   */\n      mstore\n        /* \"#utility.yul\":26215:26346   */\n      tag_714\n        /* \"#utility.yul\":26341:26345   */\n      dup2\n        /* \"#utility.yul\":26215:26346   */\n      tag_452\n      jump\t// in\n    tag_714:\n        /* \"#utility.yul\":26207:26346   */\n      swap1\n      pop\n        /* \"#utility.yul\":25934:26353   */\n      swap2\n      swap1\n      pop\n      jump\t// out\n        /* \"#utility.yul\":26359:26503   */\n    tag_453:\n        /* \"#utility.yul\":26411:26415   */\n      0x00\n        /* \"#utility.yul\":26434:26437   */\n      dup2\n        /* \"#utility.yul\":26426:26437   */\n      swap1\n      pop\n        /* \"#utility.yul\":26457:26460   */\n      dup2\n        /* \"#utility.yul\":26454:26455   */\n      0x00\n        /* \"#utility.yul\":26447:26461   */\n      mstore\n        /* \"#utility.yul\":26491:26495   */\n      0x20\n        /* \"#utility.yul\":26488:26489   */\n      0x00\n        /* \"#utility.yul\":26478:26496   */\n      keccak256\n        /* \"#utility.yul\":26470:26496   */\n      swap1\n      pop\n        /* \"#utility.yul\":26359:26503   */\n      swap2\n      swap1\n      pop\n      jump\t// out\n        /* \"#utility.yul\":26531:27409   */\n    tag_454:\n        /* \"#utility.yul\":26636:26639   */\n      0x00\n        /* \"#utility.yul\":26673:26678   */\n      dup2\n        /* \"#utility.yul\":26667:26679   */\n      sload\n        /* \"#utility.yul\":26702:26738   */\n      tag_717\n        /* \"#utility.yul\":26728:26737   */\n      dup2\n        /* \"#utility.yul\":26702:26738   */\n      tag_250\n      jump\t// in\n    tag_717:\n        /* \"#utility.yul\":26754:26842   */\n      tag_718\n        /* \"#utility.yul\":26835:26841   */\n      dup2\n        /* \"#utility.yul\":26830:26833   */\n      dup7\n        /* \"#utility.yul\":26754:26842   */\n      tag_417\n      jump\t// in\n    tag_718:\n        /* \"#utility.yul\":26747:26842   */\n      swap5\n      pop\n        /* \"#utility.yul\":26873:26874   */\n      0x01\n        /* \"#utility.yul\":26862:26871   */\n      dup3\n        /* \"#utility.yul\":26858:26875   */\n      and\n        /* \"#utility.yul\":26889:26890   */\n      0x00\n        /* \"#utility.yul\":26884:27050   */\n      dup2\n      eq\n      tag_720\n      jumpi\n        /* \"#utility.yul\":27064:27065   */\n      0x01\n        /* \"#utility.yul\":27059:27403   */\n      dup2\n      eq\n      tag_721\n      jumpi\n        /* \"#utility.yul\":26851:27403   */\n      jump(tag_719)\n        /* \"#utility.yul\":26884:27050   */\n    tag_720:\n        /* \"#utility.yul\":26968:26972   */\n      0xff\n        /* \"#utility.yul\":26964:26973   */\n      not\n        /* \"#utility.yul\":26953:26962   */\n      dup4\n        /* \"#utility.yul\":26949:26974   */\n      and\n        /* \"#utility.yul\":26944:26947   */\n      dup7\n        /* \"#utility.yul\":26937:26975   */\n      mstore\n        /* \"#utility.yul\":27030:27036   */\n      dup2\n        /* \"#utility.yul\":27023:27037   */\n      iszero\n        /* \"#utility.yul\":27016:27038   */\n      iszero\n        /* \"#utility.yul\":27008:27014   */\n      dup3\n        /* \"#utility.yul\":27004:27039   */\n      mul\n        /* \"#utility.yul\":26999:27002   */\n      dup7\n        /* \"#utility.yul\":26995:27040   */\n      add\n        /* \"#utility.yul\":26988:27040   */\n      swap4\n      pop\n        /* \"#utility.yul\":26884:27050   */\n      jump(tag_719)\n        /* \"#utility.yul\":27059:27403   */\n    tag_721:\n        /* \"#utility.yul\":27126:27167   */\n      tag_722\n        /* \"#utility.yul\":27161:27166   */\n      dup6\n        /* \"#utility.yul\":27126:27167   */\n      tag_453\n      jump\t// in\n    tag_722:\n        /* \"#utility.yul\":27189:27190   */\n      0x00\n        /* \"#utility.yul\":27203:27357   */\n    tag_723:\n        /* \"#utility.yul\":27217:27223   */\n      dup4\n        /* \"#utility.yul\":27214:27215   */\n      dup2\n        /* \"#utility.yul\":27211:27224   */\n      lt\n        /* \"#utility.yul\":27203:27357   */\n      iszero\n      tag_725\n      jumpi\n        /* \"#utility.yul\":27291:27298   */\n      dup2\n        /* \"#utility.yul\":27285:27299   */\n      sload\n        /* \"#utility.yul\":27281:27282   */\n      dup2\n        /* \"#utility.yul\":27276:27279   */\n      dup10\n        /* \"#utility.yul\":27272:27283   */\n      add\n        /* \"#utility.yul\":27265:27300   */\n      mstore\n        /* \"#utility.yul\":27341:27342   */\n      0x01\n        /* \"#utility.yul\":27332:27339   */\n      dup3\n        /* \"#utility.yul\":27328:27343   */\n      add\n        /* \"#utility.yul\":27317:27343   */\n      swap2\n      pop\n        /* \"#utility.yul\":27239:27243   */\n      0x20\n        /* \"#utility.yul\":27236:27237   */\n      dup2\n        /* \"#utility.yul\":27232:27244   */\n      add\n        /* \"#utility.yul\":27227:27244   */\n      swap1\n      pop\n        /* \"#utility.yul\":27203:27357   */\n      jump(tag_723)\n    tag_725:\n        /* \"#utility.yul\":27386:27392   */\n      dup4\n        /* \"#utility.yul\":27381:27384   */\n      dup9\n        /* \"#utility.yul\":27377:27393   */\n      add\n        /* \"#utility.yul\":27370:27393   */\n      swap6\n      pop\n        /* \"#utility.yul\":27066:27403   */\n      pop\n      pop\n        /* \"#utility.yul\":26851:27403   */\n    tag_719:\n      pop\n        /* \"#utility.yul\":26640:27409   */\n      pop\n      pop\n        /* \"#utility.yul\":26531:27409   */\n      swap3\n      swap2\n      pop\n      pop\n      jump\t// out\n        /* \"#utility.yul\":27415:27688   */\n    tag_266:\n        /* \"#utility.yul\":27546:27549   */\n      0x00\n        /* \"#utility.yul\":27568:27662   */\n      tag_727\n        /* \"#utility.yul\":27658:27661   */\n      dup3\n        /* \"#utility.yul\":27649:27655   */\n      dup5\n        /* \"#utility.yul\":27568:27662   */\n      tag_454\n      jump\t// in\n    tag_727:\n        /* \"#utility.yul\":27561:27662   */\n      swap2\n      pop\n        /* \"#utility.yul\":27679:27682   */\n      dup2\n        /* \"#utility.yul\":27672:27682   */\n      swap1\n      pop\n        /* \"#utility.yul\":27415:27688   */\n      swap3\n      swap2\n      pop\n      pop\n      jump\t// out\n        /* \"#utility.yul\":27694:27870   */\n    tag_455:\n        /* \"#utility.yul\":27834:27862   */\n      0x426f72726f772073656c6563746564206e6f7420616374697665000000000000\n        /* \"#utility.yul\":27830:27831   */\n      0x00\n        /* \"#utility.yul\":27822:27828   */\n      dup3\n        /* \"#utility.yul\":27818:27832   */\n      add\n        /* \"#utility.yul\":27811:27863   */\n      mstore\n        /* \"#utility.yul\":27694:27870   */\n      pop\n      jump\t// out\n        /* \"#utility.yul\":27876:28242   */\n    tag_456:\n        /* \"#utility.yul\":28018:28021   */\n      0x00\n        /* \"#utility.yul\":28039:28106   */\n      tag_730\n        /* \"#utility.yul\":28103:28105   */\n      0x1a\n        /* \"#utility.yul\":28098:28101   */\n      dup4\n        /* \"#utility.yul\":28039:28106   */\n      tag_408\n      jump\t// in\n    tag_730:\n        /* \"#utility.yul\":28032:28106   */\n      swap2\n      pop\n        /* \"#utility.yul\":28115:28208   */\n      tag_731\n        /* \"#utility.yul\":28204:28207   */\n      dup3\n        /* \"#utility.yul\":28115:28208   */\n      tag_455\n      jump\t// in\n    tag_731:\n        /* \"#utility.yul\":28233:28235   */\n      0x20\n        /* \"#utility.yul\":28228:28231   */\n      dup3\n        /* \"#utility.yul\":28224:28236   */\n      add\n        /* \"#utility.yul\":28217:28236   */\n      swap1\n      pop\n        /* \"#utility.yul\":27876:28242   */\n      swap2\n      swap1\n      pop\n      jump\t// out\n        /* \"#utility.yul\":28248:28667   */\n    tag_269:\n        /* \"#utility.yul\":28414:28418   */\n      0x00\n        /* \"#utility.yul\":28452:28454   */\n      0x20\n        /* \"#utility.yul\":28441:28450   */\n      dup3\n        /* \"#utility.yul\":28437:28455   */\n      add\n        /* \"#utility.yul\":28429:28455   */\n      swap1\n      pop\n        /* \"#utility.yul\":28501:28510   */\n      dup2\n        /* \"#utility.yul\":28495:28499   */\n      dup2\n        /* \"#utility.yul\":28491:28511   */\n      sub\n        /* \"#utility.yul\":28487:28488   */\n      0x00\n        /* \"#utility.yul\":28476:28485   */\n      dup4\n        /* \"#utility.yul\":28472:28489   */\n      add\n        /* \"#utility.yul\":28465:28512   */\n      mstore\n        /* \"#utility.yul\":28529:28660   */\n      tag_733\n        /* \"#utility.yul\":28655:28659   */\n      dup2\n        /* \"#utility.yul\":28529:28660   */\n      tag_456\n      jump\t// in\n    tag_733:\n        /* \"#utility.yul\":28521:28660   */\n      swap1\n      pop\n        /* \"#utility.yul\":28248:28667   */\n      swap2\n      swap1\n      pop\n      jump\t// out\n        /* \"#utility.yul\":28673:28852   */\n    tag_457:\n        /* \"#utility.yul\":28813:28844   */\n      0x52657061796d656e74206d757374206265206d6f7265207468616e2030000000\n        /* \"#utility.yul\":28809:28810   */\n      0x00\n        /* \"#utility.yul\":28801:28807   */\n      dup3\n        /* \"#utility.yul\":28797:28811   */\n      add\n        /* \"#utility.yul\":28790:28845   */\n      mstore\n        /* \"#utility.yul\":28673:28852   */\n      pop\n      jump\t// out\n        /* \"#utility.yul\":28858:29224   */\n    tag_458:\n        /* \"#utility.yul\":29000:29003   */\n      0x00\n        /* \"#utility.yul\":29021:29088   */\n      tag_736\n        /* \"#utility.yul\":29085:29087   */\n      0x1d\n        /* \"#utility.yul\":29080:29083   */\n      dup4\n        /* \"#utility.yul\":29021:29088   */\n      tag_408\n      jump\t// in\n    tag_736:\n        /* \"#utility.yul\":29014:29088   */\n      swap2\n      pop\n        /* \"#utility.yul\":29097:29190   */\n      tag_737\n        /* \"#utility.yul\":29186:29189   */\n      dup3\n        /* \"#utility.yul\":29097:29190   */\n      tag_457\n      jump\t// in\n    tag_737:\n        /* \"#utility.yul\":29215:29217   */\n      0x20\n        /* \"#utility.yul\":29210:29213   */\n      dup3\n        /* \"#utility.yul\":29206:29218   */\n      add\n        /* \"#utility.yul\":29199:29218   */\n      swap1\n      pop\n        /* \"#utility.yul\":28858:29224   */\n      swap2\n      swap1\n      pop\n      jump\t// out\n        /* \"#utility.yul\":29230:29649   */\n    tag_272:\n        /* \"#utility.yul\":29396:29400   */\n      0x00\n        /* \"#utility.yul\":29434:29436   */\n      0x20\n        /* \"#utility.yul\":29423:29432   */\n      dup3\n        /* \"#utility.yul\":29419:29437   */\n      add\n        /* \"#utility.yul\":29411:29437   */\n      swap1\n      pop\n        /* \"#utility.yul\":29483:29492   */\n      dup2\n        /* \"#utility.yul\":29477:29481   */\n      dup2\n        /* \"#utility.yul\":29473:29493   */\n      sub\n        /* \"#utility.yul\":29469:29470   */\n      0x00\n        /* \"#utility.yul\":29458:29467   */\n      dup4\n        /* \"#utility.yul\":29454:29471   */\n      add\n        /* \"#utility.yul\":29447:29494   */\n      mstore\n        /* \"#utility.yul\":29511:29642   */\n      tag_739\n        /* \"#utility.yul\":29637:29641   */\n      dup2\n        /* \"#utility.yul\":29511:29642   */\n      tag_458\n      jump\t// in\n    tag_739:\n        /* \"#utility.yul\":29503:29642   */\n      swap1\n      pop\n        /* \"#utility.yul\":29230:29649   */\n      swap2\n      swap1\n      pop\n      jump\t// out\n        /* \"#utility.yul\":29655:29825   */\n    tag_459:\n        /* \"#utility.yul\":29795:29817   */\n      0x496e76616c696420626f72726f7720696e646578000000000000000000000000\n        /* \"#utility.yul\":29791:29792   */\n      0x00\n        /* \"#utility.yul\":29783:29789   */\n      dup3\n        /* \"#utility.yul\":29779:29793   */\n      add\n        /* \"#utility.yul\":29772:29818   */\n      mstore\n        /* \"#utility.yul\":29655:29825   */\n      pop\n      jump\t// out\n        /* \"#utility.yul\":29831:30197   */\n    tag_460:\n        /* \"#utility.yul\":29973:29976   */\n      0x00\n        /* \"#utility.yul\":29994:30061   */\n      tag_742\n        /* \"#utility.yul\":30058:30060   */\n      0x14\n        /* \"#utility.yul\":30053:30056   */\n      dup4\n        /* \"#utility.yul\":29994:30061   */\n      tag_408\n      jump\t// in\n    tag_742:\n        /* \"#utility.yul\":29987:30061   */\n      swap2\n      pop\n        /* \"#utility.yul\":30070:30163   */\n      tag_743\n        /* \"#utility.yul\":30159:30162   */\n      dup3\n        /* \"#utility.yul\":30070:30163   */\n      tag_459\n      jump\t// in\n    tag_743:\n        /* \"#utility.yul\":30188:30190   */\n      0x20\n        /* \"#utility.yul\":30183:30186   */\n      dup3\n        /* \"#utility.yul\":30179:30191   */\n      add\n        /* \"#utility.yul\":30172:30191   */\n      swap1\n      pop\n        /* \"#utility.yul\":29831:30197   */\n      swap2\n      swap1\n      pop\n      jump\t// out\n        /* \"#utility.yul\":30203:30622   */\n    tag_275:\n        /* \"#utility.yul\":30369:30373   */\n      0x00\n        /* \"#utility.yul\":30407:30409   */\n      0x20\n        /* \"#utility.yul\":30396:30405   */\n      dup3\n        /* \"#utility.yul\":30392:30410   */\n      add\n        /* \"#utility.yul\":30384:30410   */\n      swap1\n      pop\n        /* \"#utility.yul\":30456:30465   */\n      dup2\n        /* \"#utility.yul\":30450:30454   */\n      dup2\n        /* \"#utility.yul\":30446:30466   */\n      sub\n        /* \"#utility.yul\":30442:30443   */\n      0x00\n        /* \"#utility.yul\":30431:30440   */\n      dup4\n        /* \"#utility.yul\":30427:30444   */\n      add\n        /* \"#utility.yul\":30420:30467   */\n      mstore\n        /* \"#utility.yul\":30484:30615   */\n      tag_745\n        /* \"#utility.yul\":30610:30614   */\n      dup2\n        /* \"#utility.yul\":30484:30615   */\n      tag_460\n      jump\t// in\n    tag_745:\n        /* \"#utility.yul\":30476:30615   */\n      swap1\n      pop\n        /* \"#utility.yul\":30203:30622   */\n      swap2\n      swap1\n      pop\n      jump\t// out\n        /* \"#utility.yul\":30628:30857   */\n    tag_461:\n        /* \"#utility.yul\":30768:30802   */\n      0x5061796d656e74206973206c6f776572207468616e2074686520616d6f756e74\n        /* \"#utility.yul\":30764:30765   */\n      0x00\n        /* \"#utility.yul\":30756:30762   */\n      dup3\n        /* \"#utility.yul\":30752:30766   */\n      add\n        /* \"#utility.yul\":30745:30803   */\n      mstore\n        /* \"#utility.yul\":30837:30849   */\n      0x2072657175657374656400000000000000000000000000000000000000000000\n        /* \"#utility.yul\":30832:30834   */\n      0x20\n        /* \"#utility.yul\":30824:30830   */\n      dup3\n        /* \"#utility.yul\":30820:30835   */\n      add\n        /* \"#utility.yul\":30813:30850   */\n      mstore\n        /* \"#utility.yul\":30628:30857   */\n      pop\n      jump\t// out\n        /* \"#utility.yul\":30863:31229   */\n    tag_462:\n        /* \"#utility.yul\":31005:31008   */\n      0x00\n        /* \"#utility.yul\":31026:31093   */\n      tag_748\n        /* \"#utility.yul\":31090:31092   */\n      0x2a\n        /* \"#utility.yul\":31085:31088   */\n      dup4\n        /* \"#utility.yul\":31026:31093   */\n      tag_408\n      jump\t// in\n    tag_748:\n        /* \"#utility.yul\":31019:31093   */\n      swap2\n      pop\n        /* \"#utility.yul\":31102:31195   */\n      tag_749\n        /* \"#utility.yul\":31191:31194   */\n      dup3\n        /* \"#utility.yul\":31102:31195   */\n      tag_461\n      jump\t// in\n    tag_749:\n        /* \"#utility.yul\":31220:31222   */\n      0x40\n        /* \"#utility.yul\":31215:31218   */\n      dup3\n        /* \"#utility.yul\":31211:31223   */\n      add\n        /* \"#utility.yul\":31204:31223   */\n      swap1\n      pop\n        /* \"#utility.yul\":30863:31229   */\n      swap2\n      swap1\n      pop\n      jump\t// out\n        /* \"#utility.yul\":31235:31654   */\n    tag_318:\n        /* \"#utility.yul\":31401:31405   */\n      0x00\n        /* \"#utility.yul\":31439:31441   */\n      0x20\n        /* \"#utility.yul\":31428:31437   */\n      dup3\n        /* \"#utility.yul\":31424:31442   */\n      add\n        /* \"#utility.yul\":31416:31442   */\n      swap1\n      pop\n        /* \"#utility.yul\":31488:31497   */\n      dup2\n        /* \"#utility.yul\":31482:31486   */\n      dup2\n        /* \"#utility.yul\":31478:31498   */\n      sub\n        /* \"#utility.yul\":31474:31475   */\n      0x00\n        /* \"#utility.yul\":31463:31472   */\n      dup4\n        /* \"#utility.yul\":31459:31476   */\n      add\n        /* \"#utility.yul\":31452:31499   */\n      mstore\n        /* \"#utility.yul\":31516:31647   */\n      tag_751\n        /* \"#utility.yul\":31642:31646   */\n      dup2\n        /* \"#utility.yul\":31516:31647   */\n      tag_462\n      jump\t// in\n    tag_751:\n        /* \"#utility.yul\":31508:31647   */\n      swap1\n      pop\n        /* \"#utility.yul\":31235:31654   */\n      swap2\n      swap1\n      pop\n      jump\t// out\n        /* \"#utility.yul\":31660:32213   */\n    tag_329:\n        /* \"#utility.yul\":31837:31841   */\n      0x00\n        /* \"#utility.yul\":31875:31878   */\n      0x80\n        /* \"#utility.yul\":31864:31873   */\n      dup3\n        /* \"#utility.yul\":31860:31879   */\n      add\n        /* \"#utility.yul\":31852:31879   */\n      swap1\n      pop\n        /* \"#utility.yul\":31889:31960   */\n      tag_753\n        /* \"#utility.yul\":31957:31958   */\n      0x00\n        /* \"#utility.yul\":31946:31955   */\n      dup4\n        /* \"#utility.yul\":31942:31959   */\n      add\n        /* \"#utility.yul\":31933:31939   */\n      dup8\n        /* \"#utility.yul\":31889:31960   */\n      tag_406\n      jump\t// in\n    tag_753:\n        /* \"#utility.yul\":31970:32042   */\n      tag_754\n        /* \"#utility.yul\":32038:32040   */\n      0x20\n        /* \"#utility.yul\":32027:32036   */\n      dup4\n        /* \"#utility.yul\":32023:32041   */\n      add\n        /* \"#utility.yul\":32014:32020   */\n      dup7\n        /* \"#utility.yul\":31970:32042   */\n      tag_387\n      jump\t// in\n    tag_754:\n        /* \"#utility.yul\":32052:32124   */\n      tag_755\n        /* \"#utility.yul\":32120:32122   */\n      0x40\n        /* \"#utility.yul\":32109:32118   */\n      dup4\n        /* \"#utility.yul\":32105:32123   */\n      add\n        /* \"#utility.yul\":32096:32102   */\n      dup6\n        /* \"#utility.yul\":32052:32124   */\n      tag_387\n      jump\t// in\n    tag_755:\n        /* \"#utility.yul\":32134:32206   */\n      tag_756\n        /* \"#utility.yul\":32202:32204   */\n      0x60\n        /* \"#utility.yul\":32191:32200   */\n      dup4\n        /* \"#utility.yul\":32187:32205   */\n      add\n        /* \"#utility.yul\":32178:32184   */\n      dup5\n        /* \"#utility.yul\":32134:32206   */\n      tag_387\n      jump\t// in\n    tag_756:\n        /* \"#utility.yul\":31660:32213   */\n      swap6\n      swap5\n      pop\n      pop\n      pop\n      pop\n      pop\n      jump\t// out\n\n    auxdata: 0xa2646970667358221220bdd1fbd4c772ebe952e40f5f1a7703a9813c12390bb44621ab43406e22ab09f164736f6c634300081e0033\n}\n",
				"bytecode": {
					"linkReferences": {},
					"object": "6080604052600360065560196007553480156018575f5ffd5b50335f5f6101000a81548173ffffffffffffffffffffffffffffffffffffffff021916908373ffffffffffffffffffffffffffffffffffffffff1602179055506133ff806100655f395ff3fe608060405260043610610112575f3560e01c8063716049091161009f578063d602081111610063578063d60208111461035b578063dce8e84814610385578063ddd899a1146103c1578063f5d1b7e8146103eb578063ff6d4f731461040757610112565b8063716049091461027e5780638da5cb5b146102ba57806397dffc61146102e457806399c8fbf6146102ee578063cb50bb741461033157610112565b806333d5281f116100e657806333d5281f146101ba578063392f6356146101d65780633e86e2131461020057806365ad976e1461022a5780636f9fb98a1461025457610112565b806263750c146101165780630edd2ffc1461012c57806326a39c07146101565780632e1a7d4d14610192575b5f5ffd5b348015610121575f5ffd5b5061012a610445565b005b348015610137575f5ffd5b50610140610684565b60405161014d91906123e5565b60405180910390f35b348015610161575f5ffd5b5061017c6004803603810190610177919061245c565b61068a565b60405161018991906123e5565b60405180910390f35b34801561019d575f5ffd5b506101b860048036038101906101b391906124b1565b61069f565b005b6101d460048036038101906101cf91906124dc565b610c18565b005b3480156101e1575f5ffd5b506101ea611115565b6040516101f791906123e5565b60405180910390f35b34801561020b575f5ffd5b506102146111b7565b60405161022191906125d1565b60405180910390f35b348015610235575f5ffd5b5061023e611242565b60405161024b91906123e5565b60405180910390f35b34801561025f575f5ffd5b50610268611248565b60405161027591906123e5565b60405180910390f35b348015610289575f5ffd5b506102a4600480360381019061029f919061245c565b61124f565b6040516102b19190612609565b60405180910390f35b3480156102c5575f5ffd5b506102ce611264565b6040516102db9190612631565b60405180910390f35b6102ec611288565b005b3480156102f9575f5ffd5b50610314600480360381019061030f919061264a565b611462565b6040516103289897969594939291906126f8565b60405180910390f35b34801561033c575f5ffd5b50610345611546565b60405161035291906123e5565b60405180910390f35b348015610366575f5ffd5b5061036f61154c565b60405161037c91906125d1565b60405180910390f35b348015610390575f5ffd5b506103ab60048036038101906103a6919061245c565b6115d7565b6040516103b891906123e5565b60405180910390f35b3480156103cc575f5ffd5b506103d56115ec565b6040516103e291906123e5565b60405180910390f35b610405600480360381019061040091906124b1565b6115f2565b005b348015610412575f5ffd5b5061042d6004803603810190610428919061264a565b611e85565b60405161043c9392919061277b565b60405180910390f35b60085f9054906101000a900460ff1615610494576040517f08c379a000000000000000000000000000000000000000000000000000000000815260040161048b906127fa565b60405180910390fd5b600160085f6101000a81548160ff0219169083151502179055505f6104b7611115565b90505f81116104fb576040517f08c379a00000000000000000000000000000000000000000000000000000000081526004016104f290612862565b60405180910390fd5b5f5f90505b80600b5f3373ffffffffffffffffffffffffffffffffffffffff1673ffffffffffffffffffffffffffffffffffffffff1681526020019081526020015f208054905011156105be5742600b5f3373ffffffffffffffffffffffffffffffffffffffff1673ffffffffffffffffffffffffffffffffffffffff1681526020019081526020015f20828154811061059857610597612880565b5b905f5260205f2090600302016001018190555080806105b6906128da565b915050610500565b505f3373ffffffffffffffffffffffffffffffffffffffff16826040516105e49061294e565b5f6040518083038185875af1925050503d805f811461061e576040519150601f19603f3d011682016040523d82523d5f602084013e610623565b606091505b5050905080610667576040517f08c379a000000000000000000000000000000000000000000000000000000000815260040161065e906129ac565b60405180910390fd5b50505f60085f6101000a81548160ff021916908315150217905550565b60075481565b600c602052805f5260405f205f915090505481565b8080600d5f3373ffffffffffffffffffffffffffffffffffffffff1673ffffffffffffffffffffffffffffffffffffffff1681526020019081526020015f20541015610720576040517f08c379a000000000000000000000000000000000000000000000000000000000815260040161071790612a14565b60405180910390fd5b60085f9054906101000a900460ff161561076f576040517f08c379a0000000000000000000000000000000000000000000000000000000008152600401610766906127fa565b60405180910390fd5b600160085f6101000a81548160ff0219169083151502179055505f82116107cb576040517f08c379a00000000000000000000000000000000000000000000000000000000081526004016107c290612a7c565b60405180910390fd5b81600d5f3373ffffffffffffffffffffffffffffffffffffffff1673ffffffffffffffffffffffffffffffffffffffff1681526020019081526020015f2054101561084b576040517f08c379a000000000000000000000000000000000000000000000000000000000815260040161084290612b0a565b60405180910390fd5b5f8290505f5f90505b600b5f3373ffffffffffffffffffffffffffffffffffffffff1673ffffffffffffffffffffffffffffffffffffffff1681526020019081526020015f2080549050811015610ac257600b5f3373ffffffffffffffffffffffffffffffffffffffff1673ffffffffffffffffffffffffffffffffffffffff1681526020019081526020015f2081815481106108eb576108ea612880565b5b905f5260205f209060030201600201548411156109d657600b5f3373ffffffffffffffffffffffffffffffffffffffff1673ffffffffffffffffffffffffffffffffffffffff1681526020019081526020015f20818154811061095157610950612880565b5b905f5260205f209060030201600201548461096c9190612b28565b93505f600b5f3373ffffffffffffffffffffffffffffffffffffffff1673ffffffffffffffffffffffffffffffffffffffff1681526020019081526020015f2082815481106109be576109bd612880565b5b905f5260205f20906003020160020181905550610ab5565b83600b5f3373ffffffffffffffffffffffffffffffffffffffff1673ffffffffffffffffffffffffffffffffffffffff1681526020019081526020015f208281548110610a2657610a25612880565b5b905f5260205f2090600302016002015410610ab45783600b5f3373ffffffffffffffffffffffffffffffffffffffff1673ffffffffffffffffffffffffffffffffffffffff1681526020019081526020015f208281548110610a8b57610a8a612880565b5b905f5260205f2090600302016002015f828254610aa89190612b28565b92505081905550610ac2565b5b8080600101915050610854565b5080600d5f3373ffffffffffffffffffffffffffffffffffffffff1673ffffffffffffffffffffffffffffffffffffffff1681526020019081526020015f205f828254610b0f9190612b28565b925050819055505f3373ffffffffffffffffffffffffffffffffffffffff1682604051610b3b9061294e565b5f6040518083038185875af1925050503d805f8114610b75576040519150601f19603f3d011682016040523d82523d5f602084013e610b7a565b606091505b5050905080610bbe576040517f08c379a0000000000000000000000000000000000000000000000000000000008152600401610bb5906129ac565b60405180910390fd5b7f4061a3c2fb8ed4fa13eb41ac8af4b4b8f67955285ea176d176be39483c38136a338342604051610bf193929190612b5b565b60405180910390a150505f60085f6101000a81548160ff0219169083151502179055505050565b81610104811115610c5e576040517f08c379a0000000000000000000000000000000000000000000000000000000008152600401610c5590612bda565b60405180910390fd5b816702c68af0bb1400008111610ca9576040517f08c379a0000000000000000000000000000000000000000000000000000000008152600401610ca090612c42565b60405180910390fd5b82803073ffffffffffffffffffffffffffffffffffffffff16636f9fb98a6040518163ffffffff1660e01b8152600401602060405180830381865afa158015610cf4573d5f5f3e3d5ffd5b505050506040513d601f19601f82011682018060405250810190610d189190612c74565b1015610d22575f5ffd5b60085f9054906101000a900460ff1615610d71576040517f08c379a0000000000000000000000000000000000000000000000000000000008152600401610d68906127fa565b60405180910390fd5b600160085f6101000a81548160ff021916908315150217905550600a5f3373ffffffffffffffffffffffffffffffffffffffff1673ffffffffffffffffffffffffffffffffffffffff1681526020019081526020015f205f815480929190610dd890612c9f565b919050555083600d5f3373ffffffffffffffffffffffffffffffffffffffff1673ffffffffffffffffffffffffffffffffffffffff1681526020019081526020015f205f828254610e299190612b28565b925050819055505f62093a8086610e409190612ce6565b42610e4b9190612d27565b90505f6018871015610e605760079050610e85565b60188710158015610e715750606887105b15610e7f5760069050610e84565b600590505b5b5f611450888389610e969190612ce6565b610ea09190612ce6565b610eaa9190612d87565b87610eb59190612d27565b905060095f3373ffffffffffffffffffffffffffffffffffffffff1673ffffffffffffffffffffffffffffffffffffffff1681526020019081526020015f206040518061010001604052804281526020015f8152602001600160095f3373ffffffffffffffffffffffffffffffffffffffff1673ffffffffffffffffffffffffffffffffffffffff1681526020019081526020015f2080549050610f599190612d27565b81526020016040518060400160405280600681526020017f4163746976650000000000000000000000000000000000000000000000000000815250815260200185815260200184815260200189815260200183815250908060018154018082558091505060019003905f5260205f2090600802015f909190919091505f820151815f0155602082015181600101556040820151816002015560608201518160030190816110069190612fe1565b506080820151816004015560a0820151816005015560c0820151816006015560e08201518160070155505061103d60026003611ec5565b6002805490506004819055505f3373ffffffffffffffffffffffffffffffffffffffff168860405161106e9061294e565b5f6040518083038185875af1925050503d805f81146110a8576040519150601f19603f3d011682016040523d82523d5f602084013e6110ad565b606091505b50509050806110f1576040517f08c379a00000000000000000000000000000000000000000000000000000000081526004016110e8906129ac565b60405180910390fd5b505050505f60085f6101000a81548160ff0219169083151502179055505050505050565b5f5f61112f33600654600b6120d89092919063ffffffff16565b905080600c5f3373ffffffffffffffffffffffffffffffffffffffff1673ffffffffffffffffffffffffffffffffffffffff1681526020019081526020015f2081905550600c5f3373ffffffffffffffffffffffffffffffffffffffff1673ffffffffffffffffffffffffffffffffffffffff1681526020019081526020015f205491505090565b6060600280548060200260200160405190810160405280929190818152602001828054801561123857602002820191905f5260205f20905b815f9054906101000a900473ffffffffffffffffffffffffffffffffffffffff1673ffffffffffffffffffffffffffffffffffffffff16815260200190600101908083116111ef575b5050505050905090565b60065481565b5f47905090565b600a602052805f5260405f205f915090505481565b5f5f9054906101000a900473ffffffffffffffffffffffffffffffffffffffff1681565b67016345785d8a000034116112d2576040517f08c379a00000000000000000000000000000000000000000000000000000000081526004016112c9906130fa565b60405180910390fd5b34600d5f3373ffffffffffffffffffffffffffffffffffffffff1673ffffffffffffffffffffffffffffffffffffffff1681526020019081526020015f205f82825461131e9190612d27565b9250508190555061133160036002611ec5565b600380549050600581905550600b5f3373ffffffffffffffffffffffffffffffffffffffff1673ffffffffffffffffffffffffffffffffffffffff1681526020019081526020015f2060405180606001604052806001600b5f3373ffffffffffffffffffffffffffffffffffffffff1673ffffffffffffffffffffffffffffffffffffffff1681526020019081526020015f20805490506113d29190612d27565b815260200142815260200134815250908060018154018082558091505060019003905f5260205f2090600302015f909190919091505f820151815f0155602082015181600101556040820151816002015550507ff6285a60c92fd2767bc48a572b64940a62be26cb7c523e64bf3bd75a8206255933344260405161145893929190612b5b565b60405180910390a1565b6009602052815f5260405f20818154811061147b575f80fd5b905f5260205f2090600802015f9150915050805f0154908060010154908060020154908060030180546114ad90612e11565b80601f01602080910402602001604051908101604052809291908181526020018280546114d990612e11565b80156115245780601f106114fb57610100808354040283529160200191611524565b820191905f5260205f20905b81548152906001019060200180831161150757829003601f168201915b5050505050908060040154908060050154908060060154908060070154905088565b60055481565b606060038054806020026020016040519081016040528092919081815260200182805480156115cd57602002820191905f5260205f20905b815f9054906101000a900473ffffffffffffffffffffffffffffffffffffffff1673ffffffffffffffffffffffffffffffffffffffff1681526020019060010190808311611584575b5050505050905090565b600d602052805f5260405f205f915090505481565b60045481565b60085f9054906101000a900460ff1615611641576040517f08c379a0000000000000000000000000000000000000000000000000000000008152600401611638906127fa565b60405180910390fd5b600160085f6101000a81548160ff0219169083151502179055506040518060400160405280600681526020017f41637469766500000000000000000000000000000000000000000000000000008152508051906020012060095f3373ffffffffffffffffffffffffffffffffffffffff1673ffffffffffffffffffffffffffffffffffffffff1681526020019081526020015f2082815481106116e7576116e6612880565b5b905f5260205f20906008020160030160405161170391906131aa565b60405180910390201461174b576040517f08c379a00000000000000000000000000000000000000000000000000000000081526004016117429061320a565b60405180910390fd5b5f341161178d576040517f08c379a000000000000000000000000000000000000000000000000000000000815260040161178490613272565b60405180910390fd5b60095f3373ffffffffffffffffffffffffffffffffffffffff1673ffffffffffffffffffffffffffffffffffffffff1681526020019081526020015f2080549050811061180f576040517f08c379a0000000000000000000000000000000000000000000000000000000008152600401611806906132da565b60405180910390fd5b60095f3373ffffffffffffffffffffffffffffffffffffffff1673ffffffffffffffffffffffffffffffffffffffff1681526020019081526020015f20818154811061185e5761185d612880565b5b905f5260205f209060080201600401544211156118f25761187e8161229d565b60095f3373ffffffffffffffffffffffffffffffffffffffff1673ffffffffffffffffffffffffffffffffffffffff1681526020019081526020015f2082815481106118cd576118cc612880565b5b905f5260205f2090600802016007015f8282546118ea9190612d27565b925050819055505b60095f3373ffffffffffffffffffffffffffffffffffffffff1673ffffffffffffffffffffffffffffffffffffffff1681526020019081526020015f20818154811061194157611940612880565b5b905f5260205f20906008020160070154341115611b73575f60095f3373ffffffffffffffffffffffffffffffffffffffff1673ffffffffffffffffffffffffffffffffffffffff1681526020019081526020015f2082815481106119a8576119a7612880565b5b905f5260205f20906008020160070154346119c39190612b28565b905080346119d19190612b28565b600d5f3373ffffffffffffffffffffffffffffffffffffffff1673ffffffffffffffffffffffffffffffffffffffff1681526020019081526020015f205f828254611a1c9190612d27565b925050819055506040518060400160405280600481526020017f506169640000000000000000000000000000000000000000000000000000000081525060095f3373ffffffffffffffffffffffffffffffffffffffff1673ffffffffffffffffffffffffffffffffffffffff1681526020019081526020015f208381548110611aa857611aa7612880565b5b905f5260205f2090600802016003019081611ac39190612fe1565b505f3373ffffffffffffffffffffffffffffffffffffffff1682604051611ae99061294e565b5f6040518083038185875af1925050503d805f8114611b23576040519150601f19603f3d011682016040523d82523d5f602084013e611b28565b606091505b5050905080611b6c576040517f08c379a0000000000000000000000000000000000000000000000000000000008152600401611b63906129ac565b60405180910390fd5b5050611d0d565b60095f3373ffffffffffffffffffffffffffffffffffffffff1673ffffffffffffffffffffffffffffffffffffffff1681526020019081526020015f208181548110611bc257611bc1612880565b5b905f5260205f209060080201600701543403611cd15734600d5f3373ffffffffffffffffffffffffffffffffffffffff1673ffffffffffffffffffffffffffffffffffffffff1681526020019081526020015f205f828254611c249190612d27565b925050819055506040518060400160405280600481526020017f506169640000000000000000000000000000000000000000000000000000000081525060095f3373ffffffffffffffffffffffffffffffffffffffff1673ffffffffffffffffffffffffffffffffffffffff1681526020019081526020015f208281548110611cb057611caf612880565b5b905f5260205f2090600802016003019081611ccb9190612fe1565b50611d0c565b6040517f08c379a0000000000000000000000000000000000000000000000000000000008152600401611d0390613368565b60405180910390fd5b5b4260095f3373ffffffffffffffffffffffffffffffffffffffff1673ffffffffffffffffffffffffffffffffffffffff1681526020019081526020015f208281548110611d5d57611d5c612880565b5b905f5260205f209060080201600101819055507f54d1b8845ff9c436636b708cde6357819c40d995c0f6a2d794032c96f33c6a433360095f3373ffffffffffffffffffffffffffffffffffffffff1673ffffffffffffffffffffffffffffffffffffffff1681526020019081526020015f208381548110611de157611de0612880565b5b905f5260205f209060080201600701544260095f3373ffffffffffffffffffffffffffffffffffffffff1673ffffffffffffffffffffffffffffffffffffffff1681526020019081526020015f208581548110611e4157611e40612880565b5b905f5260205f20906008020160060154604051611e619493929190613386565b60405180910390a15f60085f6101000a81548160ff02191690831515021790555050565b600b602052815f5260405f208181548110611e9e575f80fd5b905f5260205f2090600302015f9150915050805f0154908060010154908060020154905083565b5f5f5f5f90505b8480549050811015611f5b573373ffffffffffffffffffffffffffffffffffffffff16858281548110611f0257611f01612880565b5b905f5260205f20015f9054906101000a900473ffffffffffffffffffffffffffffffffffffffff1673ffffffffffffffffffffffffffffffffffffffff1603611f4e5760019250611f5b565b8080600101915050611ecc565b5081611fc1578333908060018154018082558091505060019003905f5260205f20015f9091909190916101000a81548173ffffffffffffffffffffffffffffffffffffffff021916908373ffffffffffffffffffffffffffffffffffffffff1602179055505b5f5f90505b8380549050811015612055573373ffffffffffffffffffffffffffffffffffffffff16848281548110611ffc57611ffb612880565b5b905f5260205f20015f9054906101000a900473ffffffffffffffffffffffffffffffffffffffff1673ffffffffffffffffffffffffffffffffffffffff16036120485760019150612055565b8080600101915050611fc6565b505f151582151514801561206c57505f1515811515145b156120d257600133908060018154018082558091505060019003905f5260205f20015f9091909190916101000a81548173ffffffffffffffffffffffffffffffffffffffff021916908373ffffffffffffffffffffffffffffffffffffffff1602179055505b50505050565b5f5f5f5f90505b855f8673ffffffffffffffffffffffffffffffffffffffff1673ffffffffffffffffffffffffffffffffffffffff1681526020019081526020015f2080549050811015612291575f865f8773ffffffffffffffffffffffffffffffffffffffff1673ffffffffffffffffffffffffffffffffffffffff1681526020019081526020015f20828154811061217557612174612880565b5b905f5260205f2090600302016002015403156122845763bbf81e00865f8773ffffffffffffffffffffffffffffffffffffffff1673ffffffffffffffffffffffffffffffffffffffff1681526020019081526020015f2082815481106121de576121dd612880565b5b905f5260205f2090600302016002015485885f8973ffffffffffffffffffffffffffffffffffffffff1673ffffffffffffffffffffffffffffffffffffffff1681526020019081526020015f20848154811061223d5761223c612880565b5b905f5260205f20906003020160010154426122589190612b28565b6122629190612ce6565b61226c9190612ce6565b6122769190612d87565b826122819190612d27565b91505b80806001019150506120df565b50809150509392505050565b5f5f6122b78360075460096122c29092919063ffffffff16565b905080915050919050565b5f5f62015180855f3373ffffffffffffffffffffffffffffffffffffffff1673ffffffffffffffffffffffffffffffffffffffff1681526020019081526020015f20858154811061231657612315612880565b5b905f5260205f20906008020160040154426123319190612b28565b61233b9190612d87565b90505f618e948285885f3373ffffffffffffffffffffffffffffffffffffffff1673ffffffffffffffffffffffffffffffffffffffff1681526020019081526020015f20888154811061239157612390612880565b5b905f5260205f209060080201600601546123ab9190612ce6565b6123b59190612ce6565b6123bf9190612d87565b905080925050509392505050565b5f819050919050565b6123df816123cd565b82525050565b5f6020820190506123f85f8301846123d6565b92915050565b5f5ffd5b5f73ffffffffffffffffffffffffffffffffffffffff82169050919050565b5f61242b82612402565b9050919050565b61243b81612421565b8114612445575f5ffd5b50565b5f8135905061245681612432565b92915050565b5f60208284031215612471576124706123fe565b5b5f61247e84828501612448565b91505092915050565b612490816123cd565b811461249a575f5ffd5b50565b5f813590506124ab81612487565b92915050565b5f602082840312156124c6576124c56123fe565b5b5f6124d38482850161249d565b91505092915050565b5f5f604083850312156124f2576124f16123fe565b5b5f6124ff8582860161249d565b92505060206125108582860161249d565b9150509250929050565b5f81519050919050565b5f82825260208201905092915050565b5f819050602082019050919050565b61254c81612421565b82525050565b5f61255d8383612543565b60208301905092915050565b5f602082019050919050565b5f61257f8261251a565b6125898185612524565b935061259483612534565b805f5b838110156125c45781516125ab8882612552565b97506125b683612569565b925050600181019050612597565b5085935050505092915050565b5f6020820190508181035f8301526125e98184612575565b905092915050565b5f819050919050565b612603816125f1565b82525050565b5f60208201905061261c5f8301846125fa565b92915050565b61262b81612421565b82525050565b5f6020820190506126445f830184612622565b92915050565b5f5f604083850312156126605761265f6123fe565b5b5f61266d85828601612448565b925050602061267e8582860161249d565b9150509250929050565b5f81519050919050565b5f82825260208201905092915050565b8281835e5f83830152505050565b5f601f19601f8301169050919050565b5f6126ca82612688565b6126d48185612692565b93506126e48185602086016126a2565b6126ed816126b0565b840191505092915050565b5f6101008201905061270c5f83018b6123d6565b612719602083018a6123d6565b61272660408301896123d6565b818103606083015261273881886126c0565b905061274760808301876123d6565b61275460a08301866123d6565b61276160c08301856123d6565b61276e60e08301846123d6565b9998505050505050505050565b5f60608201905061278e5f8301866123d6565b61279b60208301856123d6565b6127a860408301846123d6565b949350505050565b7f5265656e7472616e6379000000000000000000000000000000000000000000005f82015250565b5f6127e4600a83612692565b91506127ef826127b0565b602082019050919050565b5f6020820190508181035f830152612811816127d8565b9050919050565b7f4e6f20696e74657265737420746f2077697468647261770000000000000000005f82015250565b5f61284c601783612692565b915061285782612818565b602082019050919050565b5f6020820190508181035f83015261287981612840565b9050919050565b7f4e487b71000000000000000000000000000000000000000000000000000000005f52603260045260245ffd5b7f4e487b71000000000000000000000000000000000000000000000000000000005f52601160045260245ffd5b5f6128e4826123cd565b91507fffffffffffffffffffffffffffffffffffffffffffffffffffffffffffffffff8203612916576129156128ad565b5b600182019050919050565b5f81905092915050565b50565b5f6129395f83612921565b91506129448261292b565b5f82019050919050565b5f6129588261292e565b9150819050919050565b7f5472616e73616374696f6e206661696c656400000000000000000000000000005f82015250565b5f612996601283612692565b91506129a182612962565b602082019050919050565b5f6020820190508181035f8301526129c38161298a565b9050919050565b7f4578636564656564206d6178696d756d207769746864726177000000000000005f82015250565b5f6129fe601983612692565b9150612a09826129ca565b602082019050919050565b5f6020820190508181035f830152612a2b816129f2565b9050919050565b7f416d6f756e74206d7573742062652067726561746572207468616e207a65726f5f82015250565b5f612a66602083612692565b9150612a7182612a32565b602082019050919050565b5f6020820190508181035f830152612a9381612a5a565b9050919050565b7f4e6f7420656e6f7567682066756e647320696e206465706f7369747320746f205f8201527f636f766572207769746864726177616c00000000000000000000000000000000602082015250565b5f612af4603083612692565b9150612aff82612a9a565b604082019050919050565b5f6020820190508181035f830152612b2181612ae8565b9050919050565b5f612b32826123cd565b9150612b3d836123cd565b9250828203905081811115612b5557612b546128ad565b5b92915050565b5f606082019050612b6e5f830186612622565b612b7b60208301856123d6565b612b8860408301846123d6565b949350505050565b7f496e76616c6964207765656b206e756d626572000000000000000000000000005f82015250565b5f612bc4601383612692565b9150612bcf82612b90565b602082019050919050565b5f6020820190508181035f830152612bf181612bb8565b9050919050565b7f4d696e696d616c20626f72726f7720697320302e3220457468000000000000005f82015250565b5f612c2c601983612692565b9150612c3782612bf8565b602082019050919050565b5f6020820190508181035f830152612c5981612c20565b9050919050565b5f81519050612c6e81612487565b92915050565b5f60208284031215612c8957612c886123fe565b5b5f612c9684828501612c60565b91505092915050565b5f612ca9826125f1565b91507f7fffffffffffffffffffffffffffffffffffffffffffffffffffffffffffffff8203612cdb57612cda6128ad565b5b600182019050919050565b5f612cf0826123cd565b9150612cfb836123cd565b9250828202612d09816123cd565b91508282048414831517612d2057612d1f6128ad565b5b5092915050565b5f612d31826123cd565b9150612d3c836123cd565b9250828201905080821115612d5457612d536128ad565b5b92915050565b7f4e487b71000000000000000000000000000000000000000000000000000000005f52601260045260245ffd5b5f612d91826123cd565b9150612d9c836123cd565b925082612dac57612dab612d5a565b5b828204905092915050565b7f4e487b71000000000000000000000000000000000000000000000000000000005f52604160045260245ffd5b7f4e487b71000000000000000000000000000000000000000000000000000000005f52602260045260245ffd5b5f6002820490506001821680612e2857607f821691505b602082108103612e3b57612e3a612de4565b5b50919050565b5f819050815f5260205f209050919050565b5f6020601f8301049050919050565b5f82821b905092915050565b5f60088302612e9d7fffffffffffffffffffffffffffffffffffffffffffffffffffffffffffffffff82612e62565b612ea78683612e62565b95508019841693508086168417925050509392505050565b5f819050919050565b5f612ee2612edd612ed8846123cd565b612ebf565b6123cd565b9050919050565b5f819050919050565b612efb83612ec8565b612f0f612f0782612ee9565b848454612e6e565b825550505050565b5f5f905090565b612f26612f17565b612f31818484612ef2565b505050565b5b81811015612f5457612f495f82612f1e565b600181019050612f37565b5050565b601f821115612f9957612f6a81612e41565b612f7384612e53565b81016020851015612f82578190505b612f96612f8e85612e53565b830182612f36565b50505b505050565b5f82821c905092915050565b5f612fb95f1984600802612f9e565b1980831691505092915050565b5f612fd18383612faa565b9150826002028217905092915050565b612fea82612688565b67ffffffffffffffff81111561300357613002612db7565b5b61300d8254612e11565b613018828285612f58565b5f60209050601f831160018114613049575f8415613037578287015190505b6130418582612fc6565b8655506130a8565b601f19841661305786612e41565b5f5b8281101561307e57848901518255600182019150602085019450602081019050613059565b8683101561309b5784890151613097601f891682612faa565b8355505b6001600288020188555050505b505050505050565b7f4d696e696d616c206c656e6420697320302e31204574680000000000000000005f82015250565b5f6130e4601783612692565b91506130ef826130b0565b602082019050919050565b5f6020820190508181035f830152613111816130d8565b9050919050565b5f819050815f5260205f209050919050565b5f815461313681612e11565b6131408186612921565b9450600182165f811461315a576001811461316f576131a1565b60ff19831686528115158202860193506131a1565b61317885613118565b5f5b838110156131995781548189015260018201915060208101905061317a565b838801955050505b50505092915050565b5f6131b5828461312a565b915081905092915050565b7f426f72726f772073656c6563746564206e6f74206163746976650000000000005f82015250565b5f6131f4601a83612692565b91506131ff826131c0565b602082019050919050565b5f6020820190508181035f830152613221816131e8565b9050919050565b7f52657061796d656e74206d757374206265206d6f7265207468616e20300000005f82015250565b5f61325c601d83612692565b915061326782613228565b602082019050919050565b5f6020820190508181035f83015261328981613250565b9050919050565b7f496e76616c696420626f72726f7720696e6465780000000000000000000000005f82015250565b5f6132c4601483612692565b91506132cf82613290565b602082019050919050565b5f6020820190508181035f8301526132f1816132b8565b9050919050565b7f5061796d656e74206973206c6f776572207468616e2074686520616d6f756e745f8201527f2072657175657374656400000000000000000000000000000000000000000000602082015250565b5f613352602a83612692565b915061335d826132f8565b604082019050919050565b5f6020820190508181035f83015261337f81613346565b9050919050565b5f6080820190506133995f830187612622565b6133a660208301866123d6565b6133b360408301856123d6565b6133c060608301846123d6565b9594505050505056fea2646970667358221220bdd1fbd4c772ebe952e40f5f1a7703a9813c12390bb44621ab43406e22ab09f164736f6c634300081e0033",
					"opcodes": "PUSH1 0x80 PUSH1 0x40 MSTORE PUSH1 0x3 PUSH1 0x6 SSTORE PUSH1 0x19 PUSH1 0x7 SSTORE CALLVALUE DUP1 ISZERO PUSH1 0x18 JUMPI PUSH0 PUSH0 REVERT JUMPDEST POP CALLER PUSH0 PUSH0 PUSH2 0x100 EXP DUP2 SLOAD DUP2 PUSH20 0xFFFFFFFFFFFFFFFFFFFFFFFFFFFFFFFFFFFFFFFF MUL NOT AND SWAP1 DUP4 PUSH20 0xFFFFFFFFFFFFFFFFFFFFFFFFFFFFFFFFFFFFFFFF AND MUL OR SWAP1 SSTORE POP PUSH2 0x33FF DUP1 PUSH2 0x65 PUSH0 CODECOPY PUSH0 RETURN INVALID PUSH1 0x80 PUSH1 0x40 MSTORE PUSH1 0x4 CALLDATASIZE LT PUSH2 0x112 JUMPI PUSH0 CALLDATALOAD PUSH1 0xE0 SHR DUP1 PUSH4 0x71604909 GT PUSH2 0x9F JUMPI DUP1 PUSH4 0xD6020811 GT PUSH2 0x63 JUMPI DUP1 PUSH4 0xD6020811 EQ PUSH2 0x35B JUMPI DUP1 PUSH4 0xDCE8E848 EQ PUSH2 0x385 JUMPI DUP1 PUSH4 0xDDD899A1 EQ PUSH2 0x3C1 JUMPI DUP1 PUSH4 0xF5D1B7E8 EQ PUSH2 0x3EB JUMPI DUP1 PUSH4 0xFF6D4F73 EQ PUSH2 0x407 JUMPI PUSH2 0x112 JUMP JUMPDEST DUP1 PUSH4 0x71604909 EQ PUSH2 0x27E JUMPI DUP1 PUSH4 0x8DA5CB5B EQ PUSH2 0x2BA JUMPI DUP1 PUSH4 0x97DFFC61 EQ PUSH2 0x2E4 JUMPI DUP1 PUSH4 0x99C8FBF6 EQ PUSH2 0x2EE JUMPI DUP1 PUSH4 0xCB50BB74 EQ PUSH2 0x331 JUMPI PUSH2 0x112 JUMP JUMPDEST DUP1 PUSH4 0x33D5281F GT PUSH2 0xE6 JUMPI DUP1 PUSH4 0x33D5281F EQ PUSH2 0x1BA JUMPI DUP1 PUSH4 0x392F6356 EQ PUSH2 0x1D6 JUMPI DUP1 PUSH4 0x3E86E213 EQ PUSH2 0x200 JUMPI DUP1 PUSH4 0x65AD976E EQ PUSH2 0x22A JUMPI DUP1 PUSH4 0x6F9FB98A EQ PUSH2 0x254 JUMPI PUSH2 0x112 JUMP JUMPDEST DUP1 PUSH3 0x63750C EQ PUSH2 0x116 JUMPI DUP1 PUSH4 0xEDD2FFC EQ PUSH2 0x12C JUMPI DUP1 PUSH4 0x26A39C07 EQ PUSH2 0x156 JUMPI DUP1 PUSH4 0x2E1A7D4D EQ PUSH2 0x192 JUMPI JUMPDEST PUSH0 PUSH0 REVERT JUMPDEST CALLVALUE DUP1 ISZERO PUSH2 0x121 JUMPI PUSH0 PUSH0 REVERT JUMPDEST POP PUSH2 0x12A PUSH2 0x445 JUMP JUMPDEST STOP JUMPDEST CALLVALUE DUP1 ISZERO PUSH2 0x137 JUMPI PUSH0 PUSH0 REVERT JUMPDEST POP PUSH2 0x140 PUSH2 0x684 JUMP JUMPDEST PUSH1 0x40 MLOAD PUSH2 0x14D SWAP2 SWAP1 PUSH2 0x23E5 JUMP JUMPDEST PUSH1 0x40 MLOAD DUP1 SWAP2 SUB SWAP1 RETURN JUMPDEST CALLVALUE DUP1 ISZERO PUSH2 0x161 JUMPI PUSH0 PUSH0 REVERT JUMPDEST POP PUSH2 0x17C PUSH1 0x4 DUP1 CALLDATASIZE SUB DUP2 ADD SWAP1 PUSH2 0x177 SWAP2 SWAP1 PUSH2 0x245C JUMP JUMPDEST PUSH2 0x68A JUMP JUMPDEST PUSH1 0x40 MLOAD PUSH2 0x189 SWAP2 SWAP1 PUSH2 0x23E5 JUMP JUMPDEST PUSH1 0x40 MLOAD DUP1 SWAP2 SUB SWAP1 RETURN JUMPDEST CALLVALUE DUP1 ISZERO PUSH2 0x19D JUMPI PUSH0 PUSH0 REVERT JUMPDEST POP PUSH2 0x1B8 PUSH1 0x4 DUP1 CALLDATASIZE SUB DUP2 ADD SWAP1 PUSH2 0x1B3 SWAP2 SWAP1 PUSH2 0x24B1 JUMP JUMPDEST PUSH2 0x69F JUMP JUMPDEST STOP JUMPDEST PUSH2 0x1D4 PUSH1 0x4 DUP1 CALLDATASIZE SUB DUP2 ADD SWAP1 PUSH2 0x1CF SWAP2 SWAP1 PUSH2 0x24DC JUMP JUMPDEST PUSH2 0xC18 JUMP JUMPDEST STOP JUMPDEST CALLVALUE DUP1 ISZERO PUSH2 0x1E1 JUMPI PUSH0 PUSH0 REVERT JUMPDEST POP PUSH2 0x1EA PUSH2 0x1115 JUMP JUMPDEST PUSH1 0x40 MLOAD PUSH2 0x1F7 SWAP2 SWAP1 PUSH2 0x23E5 JUMP JUMPDEST PUSH1 0x40 MLOAD DUP1 SWAP2 SUB SWAP1 RETURN JUMPDEST CALLVALUE DUP1 ISZERO PUSH2 0x20B JUMPI PUSH0 PUSH0 REVERT JUMPDEST POP PUSH2 0x214 PUSH2 0x11B7 JUMP JUMPDEST PUSH1 0x40 MLOAD PUSH2 0x221 SWAP2 SWAP1 PUSH2 0x25D1 JUMP JUMPDEST PUSH1 0x40 MLOAD DUP1 SWAP2 SUB SWAP1 RETURN JUMPDEST CALLVALUE DUP1 ISZERO PUSH2 0x235 JUMPI PUSH0 PUSH0 REVERT JUMPDEST POP PUSH2 0x23E PUSH2 0x1242 JUMP JUMPDEST PUSH1 0x40 MLOAD PUSH2 0x24B SWAP2 SWAP1 PUSH2 0x23E5 JUMP JUMPDEST PUSH1 0x40 MLOAD DUP1 SWAP2 SUB SWAP1 RETURN JUMPDEST CALLVALUE DUP1 ISZERO PUSH2 0x25F JUMPI PUSH0 PUSH0 REVERT JUMPDEST POP PUSH2 0x268 PUSH2 0x1248 JUMP JUMPDEST PUSH1 0x40 MLOAD PUSH2 0x275 SWAP2 SWAP1 PUSH2 0x23E5 JUMP JUMPDEST PUSH1 0x40 MLOAD DUP1 SWAP2 SUB SWAP1 RETURN JUMPDEST CALLVALUE DUP1 ISZERO PUSH2 0x289 JUMPI PUSH0 PUSH0 REVERT JUMPDEST POP PUSH2 0x2A4 PUSH1 0x4 DUP1 CALLDATASIZE SUB DUP2 ADD SWAP1 PUSH2 0x29F SWAP2 SWAP1 PUSH2 0x245C JUMP JUMPDEST PUSH2 0x124F JUMP JUMPDEST PUSH1 0x40 MLOAD PUSH2 0x2B1 SWAP2 SWAP1 PUSH2 0x2609 JUMP JUMPDEST PUSH1 0x40 MLOAD DUP1 SWAP2 SUB SWAP1 RETURN JUMPDEST CALLVALUE DUP1 ISZERO PUSH2 0x2C5 JUMPI PUSH0 PUSH0 REVERT JUMPDEST POP PUSH2 0x2CE PUSH2 0x1264 JUMP JUMPDEST PUSH1 0x40 MLOAD PUSH2 0x2DB SWAP2 SWAP1 PUSH2 0x2631 JUMP JUMPDEST PUSH1 0x40 MLOAD DUP1 SWAP2 SUB SWAP1 RETURN JUMPDEST PUSH2 0x2EC PUSH2 0x1288 JUMP JUMPDEST STOP JUMPDEST CALLVALUE DUP1 ISZERO PUSH2 0x2F9 JUMPI PUSH0 PUSH0 REVERT JUMPDEST POP PUSH2 0x314 PUSH1 0x4 DUP1 CALLDATASIZE SUB DUP2 ADD SWAP1 PUSH2 0x30F SWAP2 SWAP1 PUSH2 0x264A JUMP JUMPDEST PUSH2 0x1462 JUMP JUMPDEST PUSH1 0x40 MLOAD PUSH2 0x328 SWAP9 SWAP8 SWAP7 SWAP6 SWAP5 SWAP4 SWAP3 SWAP2 SWAP1 PUSH2 0x26F8 JUMP JUMPDEST PUSH1 0x40 MLOAD DUP1 SWAP2 SUB SWAP1 RETURN JUMPDEST CALLVALUE DUP1 ISZERO PUSH2 0x33C JUMPI PUSH0 PUSH0 REVERT JUMPDEST POP PUSH2 0x345 PUSH2 0x1546 JUMP JUMPDEST PUSH1 0x40 MLOAD PUSH2 0x352 SWAP2 SWAP1 PUSH2 0x23E5 JUMP JUMPDEST PUSH1 0x40 MLOAD DUP1 SWAP2 SUB SWAP1 RETURN JUMPDEST CALLVALUE DUP1 ISZERO PUSH2 0x366 JUMPI PUSH0 PUSH0 REVERT JUMPDEST POP PUSH2 0x36F PUSH2 0x154C JUMP JUMPDEST PUSH1 0x40 MLOAD PUSH2 0x37C SWAP2 SWAP1 PUSH2 0x25D1 JUMP JUMPDEST PUSH1 0x40 MLOAD DUP1 SWAP2 SUB SWAP1 RETURN JUMPDEST CALLVALUE DUP1 ISZERO PUSH2 0x390 JUMPI PUSH0 PUSH0 REVERT JUMPDEST POP PUSH2 0x3AB PUSH1 0x4 DUP1 CALLDATASIZE SUB DUP2 ADD SWAP1 PUSH2 0x3A6 SWAP2 SWAP1 PUSH2 0x245C JUMP JUMPDEST PUSH2 0x15D7 JUMP JUMPDEST PUSH1 0x40 MLOAD PUSH2 0x3B8 SWAP2 SWAP1 PUSH2 0x23E5 JUMP JUMPDEST PUSH1 0x40 MLOAD DUP1 SWAP2 SUB SWAP1 RETURN JUMPDEST CALLVALUE DUP1 ISZERO PUSH2 0x3CC JUMPI PUSH0 PUSH0 REVERT JUMPDEST POP PUSH2 0x3D5 PUSH2 0x15EC JUMP JUMPDEST PUSH1 0x40 MLOAD PUSH2 0x3E2 SWAP2 SWAP1 PUSH2 0x23E5 JUMP JUMPDEST PUSH1 0x40 MLOAD DUP1 SWAP2 SUB SWAP1 RETURN JUMPDEST PUSH2 0x405 PUSH1 0x4 DUP1 CALLDATASIZE SUB DUP2 ADD SWAP1 PUSH2 0x400 SWAP2 SWAP1 PUSH2 0x24B1 JUMP JUMPDEST PUSH2 0x15F2 JUMP JUMPDEST STOP JUMPDEST CALLVALUE DUP1 ISZERO PUSH2 0x412 JUMPI PUSH0 PUSH0 REVERT JUMPDEST POP PUSH2 0x42D PUSH1 0x4 DUP1 CALLDATASIZE SUB DUP2 ADD SWAP1 PUSH2 0x428 SWAP2 SWAP1 PUSH2 0x264A JUMP JUMPDEST PUSH2 0x1E85 JUMP JUMPDEST PUSH1 0x40 MLOAD PUSH2 0x43C SWAP4 SWAP3 SWAP2 SWAP1 PUSH2 0x277B JUMP JUMPDEST PUSH1 0x40 MLOAD DUP1 SWAP2 SUB SWAP1 RETURN JUMPDEST PUSH1 0x8 PUSH0 SWAP1 SLOAD SWAP1 PUSH2 0x100 EXP SWAP1 DIV PUSH1 0xFF AND ISZERO PUSH2 0x494 JUMPI PUSH1 0x40 MLOAD PUSH32 0x8C379A000000000000000000000000000000000000000000000000000000000 DUP2 MSTORE PUSH1 0x4 ADD PUSH2 0x48B SWAP1 PUSH2 0x27FA JUMP JUMPDEST PUSH1 0x40 MLOAD DUP1 SWAP2 SUB SWAP1 REVERT JUMPDEST PUSH1 0x1 PUSH1 0x8 PUSH0 PUSH2 0x100 EXP DUP2 SLOAD DUP2 PUSH1 0xFF MUL NOT AND SWAP1 DUP4 ISZERO ISZERO MUL OR SWAP1 SSTORE POP PUSH0 PUSH2 0x4B7 PUSH2 0x1115 JUMP JUMPDEST SWAP1 POP PUSH0 DUP2 GT PUSH2 0x4FB JUMPI PUSH1 0x40 MLOAD PUSH32 0x8C379A000000000000000000000000000000000000000000000000000000000 DUP2 MSTORE PUSH1 0x4 ADD PUSH2 0x4F2 SWAP1 PUSH2 0x2862 JUMP JUMPDEST PUSH1 0x40 MLOAD DUP1 SWAP2 SUB SWAP1 REVERT JUMPDEST PUSH0 PUSH0 SWAP1 POP JUMPDEST DUP1 PUSH1 0xB PUSH0 CALLER PUSH20 0xFFFFFFFFFFFFFFFFFFFFFFFFFFFFFFFFFFFFFFFF AND PUSH20 0xFFFFFFFFFFFFFFFFFFFFFFFFFFFFFFFFFFFFFFFF AND DUP2 MSTORE PUSH1 0x20 ADD SWAP1 DUP2 MSTORE PUSH1 0x20 ADD PUSH0 KECCAK256 DUP1 SLOAD SWAP1 POP GT ISZERO PUSH2 0x5BE JUMPI TIMESTAMP PUSH1 0xB PUSH0 CALLER PUSH20 0xFFFFFFFFFFFFFFFFFFFFFFFFFFFFFFFFFFFFFFFF AND PUSH20 0xFFFFFFFFFFFFFFFFFFFFFFFFFFFFFFFFFFFFFFFF AND DUP2 MSTORE PUSH1 0x20 ADD SWAP1 DUP2 MSTORE PUSH1 0x20 ADD PUSH0 KECCAK256 DUP3 DUP2 SLOAD DUP2 LT PUSH2 0x598 JUMPI PUSH2 0x597 PUSH2 0x2880 JUMP JUMPDEST JUMPDEST SWAP1 PUSH0 MSTORE PUSH1 0x20 PUSH0 KECCAK256 SWAP1 PUSH1 0x3 MUL ADD PUSH1 0x1 ADD DUP2 SWAP1 SSTORE POP DUP1 DUP1 PUSH2 0x5B6 SWAP1 PUSH2 0x28DA JUMP JUMPDEST SWAP2 POP POP PUSH2 0x500 JUMP JUMPDEST POP PUSH0 CALLER PUSH20 0xFFFFFFFFFFFFFFFFFFFFFFFFFFFFFFFFFFFFFFFF AND DUP3 PUSH1 0x40 MLOAD PUSH2 0x5E4 SWAP1 PUSH2 0x294E JUMP JUMPDEST PUSH0 PUSH1 0x40 MLOAD DUP1 DUP4 SUB DUP2 DUP6 DUP8 GAS CALL SWAP3 POP POP POP RETURNDATASIZE DUP1 PUSH0 DUP2 EQ PUSH2 0x61E JUMPI PUSH1 0x40 MLOAD SWAP2 POP PUSH1 0x1F NOT PUSH1 0x3F RETURNDATASIZE ADD AND DUP3 ADD PUSH1 0x40 MSTORE RETURNDATASIZE DUP3 MSTORE RETURNDATASIZE PUSH0 PUSH1 0x20 DUP5 ADD RETURNDATACOPY PUSH2 0x623 JUMP JUMPDEST PUSH1 0x60 SWAP2 POP JUMPDEST POP POP SWAP1 POP DUP1 PUSH2 0x667 JUMPI PUSH1 0x40 MLOAD PUSH32 0x8C379A000000000000000000000000000000000000000000000000000000000 DUP2 MSTORE PUSH1 0x4 ADD PUSH2 0x65E SWAP1 PUSH2 0x29AC JUMP JUMPDEST PUSH1 0x40 MLOAD DUP1 SWAP2 SUB SWAP1 REVERT JUMPDEST POP POP PUSH0 PUSH1 0x8 PUSH0 PUSH2 0x100 EXP DUP2 SLOAD DUP2 PUSH1 0xFF MUL NOT AND SWAP1 DUP4 ISZERO ISZERO MUL OR SWAP1 SSTORE POP JUMP JUMPDEST PUSH1 0x7 SLOAD DUP2 JUMP JUMPDEST PUSH1 0xC PUSH1 0x20 MSTORE DUP1 PUSH0 MSTORE PUSH1 0x40 PUSH0 KECCAK256 PUSH0 SWAP2 POP SWAP1 POP SLOAD DUP2 JUMP JUMPDEST DUP1 DUP1 PUSH1 0xD PUSH0 CALLER PUSH20 0xFFFFFFFFFFFFFFFFFFFFFFFFFFFFFFFFFFFFFFFF AND PUSH20 0xFFFFFFFFFFFFFFFFFFFFFFFFFFFFFFFFFFFFFFFF AND DUP2 MSTORE PUSH1 0x20 ADD SWAP1 DUP2 MSTORE PUSH1 0x20 ADD PUSH0 KECCAK256 SLOAD LT ISZERO PUSH2 0x720 JUMPI PUSH1 0x40 MLOAD PUSH32 0x8C379A000000000000000000000000000000000000000000000000000000000 DUP2 MSTORE PUSH1 0x4 ADD PUSH2 0x717 SWAP1 PUSH2 0x2A14 JUMP JUMPDEST PUSH1 0x40 MLOAD DUP1 SWAP2 SUB SWAP1 REVERT JUMPDEST PUSH1 0x8 PUSH0 SWAP1 SLOAD SWAP1 PUSH2 0x100 EXP SWAP1 DIV PUSH1 0xFF AND ISZERO PUSH2 0x76F JUMPI PUSH1 0x40 MLOAD PUSH32 0x8C379A000000000000000000000000000000000000000000000000000000000 DUP2 MSTORE PUSH1 0x4 ADD PUSH2 0x766 SWAP1 PUSH2 0x27FA JUMP JUMPDEST PUSH1 0x40 MLOAD DUP1 SWAP2 SUB SWAP1 REVERT JUMPDEST PUSH1 0x1 PUSH1 0x8 PUSH0 PUSH2 0x100 EXP DUP2 SLOAD DUP2 PUSH1 0xFF MUL NOT AND SWAP1 DUP4 ISZERO ISZERO MUL OR SWAP1 SSTORE POP PUSH0 DUP3 GT PUSH2 0x7CB JUMPI PUSH1 0x40 MLOAD PUSH32 0x8C379A000000000000000000000000000000000000000000000000000000000 DUP2 MSTORE PUSH1 0x4 ADD PUSH2 0x7C2 SWAP1 PUSH2 0x2A7C JUMP JUMPDEST PUSH1 0x40 MLOAD DUP1 SWAP2 SUB SWAP1 REVERT JUMPDEST DUP2 PUSH1 0xD PUSH0 CALLER PUSH20 0xFFFFFFFFFFFFFFFFFFFFFFFFFFFFFFFFFFFFFFFF AND PUSH20 0xFFFFFFFFFFFFFFFFFFFFFFFFFFFFFFFFFFFFFFFF AND DUP2 MSTORE PUSH1 0x20 ADD SWAP1 DUP2 MSTORE PUSH1 0x20 ADD PUSH0 KECCAK256 SLOAD LT ISZERO PUSH2 0x84B JUMPI PUSH1 0x40 MLOAD PUSH32 0x8C379A000000000000000000000000000000000000000000000000000000000 DUP2 MSTORE PUSH1 0x4 ADD PUSH2 0x842 SWAP1 PUSH2 0x2B0A JUMP JUMPDEST PUSH1 0x40 MLOAD DUP1 SWAP2 SUB SWAP1 REVERT JUMPDEST PUSH0 DUP3 SWAP1 POP PUSH0 PUSH0 SWAP1 POP JUMPDEST PUSH1 0xB PUSH0 CALLER PUSH20 0xFFFFFFFFFFFFFFFFFFFFFFFFFFFFFFFFFFFFFFFF AND PUSH20 0xFFFFFFFFFFFFFFFFFFFFFFFFFFFFFFFFFFFFFFFF AND DUP2 MSTORE PUSH1 0x20 ADD SWAP1 DUP2 MSTORE PUSH1 0x20 ADD PUSH0 KECCAK256 DUP1 SLOAD SWAP1 POP DUP2 LT ISZERO PUSH2 0xAC2 JUMPI PUSH1 0xB PUSH0 CALLER PUSH20 0xFFFFFFFFFFFFFFFFFFFFFFFFFFFFFFFFFFFFFFFF AND PUSH20 0xFFFFFFFFFFFFFFFFFFFFFFFFFFFFFFFFFFFFFFFF AND DUP2 MSTORE PUSH1 0x20 ADD SWAP1 DUP2 MSTORE PUSH1 0x20 ADD PUSH0 KECCAK256 DUP2 DUP2 SLOAD DUP2 LT PUSH2 0x8EB JUMPI PUSH2 0x8EA PUSH2 0x2880 JUMP JUMPDEST JUMPDEST SWAP1 PUSH0 MSTORE PUSH1 0x20 PUSH0 KECCAK256 SWAP1 PUSH1 0x3 MUL ADD PUSH1 0x2 ADD SLOAD DUP5 GT ISZERO PUSH2 0x9D6 JUMPI PUSH1 0xB PUSH0 CALLER PUSH20 0xFFFFFFFFFFFFFFFFFFFFFFFFFFFFFFFFFFFFFFFF AND PUSH20 0xFFFFFFFFFFFFFFFFFFFFFFFFFFFFFFFFFFFFFFFF AND DUP2 MSTORE PUSH1 0x20 ADD SWAP1 DUP2 MSTORE PUSH1 0x20 ADD PUSH0 KECCAK256 DUP2 DUP2 SLOAD DUP2 LT PUSH2 0x951 JUMPI PUSH2 0x950 PUSH2 0x2880 JUMP JUMPDEST JUMPDEST SWAP1 PUSH0 MSTORE PUSH1 0x20 PUSH0 KECCAK256 SWAP1 PUSH1 0x3 MUL ADD PUSH1 0x2 ADD SLOAD DUP5 PUSH2 0x96C SWAP2 SWAP1 PUSH2 0x2B28 JUMP JUMPDEST SWAP4 POP PUSH0 PUSH1 0xB PUSH0 CALLER PUSH20 0xFFFFFFFFFFFFFFFFFFFFFFFFFFFFFFFFFFFFFFFF AND PUSH20 0xFFFFFFFFFFFFFFFFFFFFFFFFFFFFFFFFFFFFFFFF AND DUP2 MSTORE PUSH1 0x20 ADD SWAP1 DUP2 MSTORE PUSH1 0x20 ADD PUSH0 KECCAK256 DUP3 DUP2 SLOAD DUP2 LT PUSH2 0x9BE JUMPI PUSH2 0x9BD PUSH2 0x2880 JUMP JUMPDEST JUMPDEST SWAP1 PUSH0 MSTORE PUSH1 0x20 PUSH0 KECCAK256 SWAP1 PUSH1 0x3 MUL ADD PUSH1 0x2 ADD DUP2 SWAP1 SSTORE POP PUSH2 0xAB5 JUMP JUMPDEST DUP4 PUSH1 0xB PUSH0 CALLER PUSH20 0xFFFFFFFFFFFFFFFFFFFFFFFFFFFFFFFFFFFFFFFF AND PUSH20 0xFFFFFFFFFFFFFFFFFFFFFFFFFFFFFFFFFFFFFFFF AND DUP2 MSTORE PUSH1 0x20 ADD SWAP1 DUP2 MSTORE PUSH1 0x20 ADD PUSH0 KECCAK256 DUP3 DUP2 SLOAD DUP2 LT PUSH2 0xA26 JUMPI PUSH2 0xA25 PUSH2 0x2880 JUMP JUMPDEST JUMPDEST SWAP1 PUSH0 MSTORE PUSH1 0x20 PUSH0 KECCAK256 SWAP1 PUSH1 0x3 MUL ADD PUSH1 0x2 ADD SLOAD LT PUSH2 0xAB4 JUMPI DUP4 PUSH1 0xB PUSH0 CALLER PUSH20 0xFFFFFFFFFFFFFFFFFFFFFFFFFFFFFFFFFFFFFFFF AND PUSH20 0xFFFFFFFFFFFFFFFFFFFFFFFFFFFFFFFFFFFFFFFF AND DUP2 MSTORE PUSH1 0x20 ADD SWAP1 DUP2 MSTORE PUSH1 0x20 ADD PUSH0 KECCAK256 DUP3 DUP2 SLOAD DUP2 LT PUSH2 0xA8B JUMPI PUSH2 0xA8A PUSH2 0x2880 JUMP JUMPDEST JUMPDEST SWAP1 PUSH0 MSTORE PUSH1 0x20 PUSH0 KECCAK256 SWAP1 PUSH1 0x3 MUL ADD PUSH1 0x2 ADD PUSH0 DUP3 DUP3 SLOAD PUSH2 0xAA8 SWAP2 SWAP1 PUSH2 0x2B28 JUMP JUMPDEST SWAP3 POP POP DUP2 SWAP1 SSTORE POP PUSH2 0xAC2 JUMP JUMPDEST JUMPDEST DUP1 DUP1 PUSH1 0x1 ADD SWAP2 POP POP PUSH2 0x854 JUMP JUMPDEST POP DUP1 PUSH1 0xD PUSH0 CALLER PUSH20 0xFFFFFFFFFFFFFFFFFFFFFFFFFFFFFFFFFFFFFFFF AND PUSH20 0xFFFFFFFFFFFFFFFFFFFFFFFFFFFFFFFFFFFFFFFF AND DUP2 MSTORE PUSH1 0x20 ADD SWAP1 DUP2 MSTORE PUSH1 0x20 ADD PUSH0 KECCAK256 PUSH0 DUP3 DUP3 SLOAD PUSH2 0xB0F SWAP2 SWAP1 PUSH2 0x2B28 JUMP JUMPDEST SWAP3 POP POP DUP2 SWAP1 SSTORE POP PUSH0 CALLER PUSH20 0xFFFFFFFFFFFFFFFFFFFFFFFFFFFFFFFFFFFFFFFF AND DUP3 PUSH1 0x40 MLOAD PUSH2 0xB3B SWAP1 PUSH2 0x294E JUMP JUMPDEST PUSH0 PUSH1 0x40 MLOAD DUP1 DUP4 SUB DUP2 DUP6 DUP8 GAS CALL SWAP3 POP POP POP RETURNDATASIZE DUP1 PUSH0 DUP2 EQ PUSH2 0xB75 JUMPI PUSH1 0x40 MLOAD SWAP2 POP PUSH1 0x1F NOT PUSH1 0x3F RETURNDATASIZE ADD AND DUP3 ADD PUSH1 0x40 MSTORE RETURNDATASIZE DUP3 MSTORE RETURNDATASIZE PUSH0 PUSH1 0x20 DUP5 ADD RETURNDATACOPY PUSH2 0xB7A JUMP JUMPDEST PUSH1 0x60 SWAP2 POP JUMPDEST POP POP SWAP1 POP DUP1 PUSH2 0xBBE JUMPI PUSH1 0x40 MLOAD PUSH32 0x8C379A000000000000000000000000000000000000000000000000000000000 DUP2 MSTORE PUSH1 0x4 ADD PUSH2 0xBB5 SWAP1 PUSH2 0x29AC JUMP JUMPDEST PUSH1 0x40 MLOAD DUP1 SWAP2 SUB SWAP1 REVERT JUMPDEST PUSH32 0x4061A3C2FB8ED4FA13EB41AC8AF4B4B8F67955285EA176D176BE39483C38136A CALLER DUP4 TIMESTAMP PUSH1 0x40 MLOAD PUSH2 0xBF1 SWAP4 SWAP3 SWAP2 SWAP1 PUSH2 0x2B5B JUMP JUMPDEST PUSH1 0x40 MLOAD DUP1 SWAP2 SUB SWAP1 LOG1 POP POP PUSH0 PUSH1 0x8 PUSH0 PUSH2 0x100 EXP DUP2 SLOAD DUP2 PUSH1 0xFF MUL NOT AND SWAP1 DUP4 ISZERO ISZERO MUL OR SWAP1 SSTORE POP POP POP JUMP JUMPDEST DUP2 PUSH2 0x104 DUP2 GT ISZERO PUSH2 0xC5E JUMPI PUSH1 0x40 MLOAD PUSH32 0x8C379A000000000000000000000000000000000000000000000000000000000 DUP2 MSTORE PUSH1 0x4 ADD PUSH2 0xC55 SWAP1 PUSH2 0x2BDA JUMP JUMPDEST PUSH1 0x40 MLOAD DUP1 SWAP2 SUB SWAP1 REVERT JUMPDEST DUP2 PUSH8 0x2C68AF0BB140000 DUP2 GT PUSH2 0xCA9 JUMPI PUSH1 0x40 MLOAD PUSH32 0x8C379A000000000000000000000000000000000000000000000000000000000 DUP2 MSTORE PUSH1 0x4 ADD PUSH2 0xCA0 SWAP1 PUSH2 0x2C42 JUMP JUMPDEST PUSH1 0x40 MLOAD DUP1 SWAP2 SUB SWAP1 REVERT JUMPDEST DUP3 DUP1 ADDRESS PUSH20 0xFFFFFFFFFFFFFFFFFFFFFFFFFFFFFFFFFFFFFFFF AND PUSH4 0x6F9FB98A PUSH1 0x40 MLOAD DUP2 PUSH4 0xFFFFFFFF AND PUSH1 0xE0 SHL DUP2 MSTORE PUSH1 0x4 ADD PUSH1 0x20 PUSH1 0x40 MLOAD DUP1 DUP4 SUB DUP2 DUP7 GAS STATICCALL ISZERO DUP1 ISZERO PUSH2 0xCF4 JUMPI RETURNDATASIZE PUSH0 PUSH0 RETURNDATACOPY RETURNDATASIZE PUSH0 REVERT JUMPDEST POP POP POP POP PUSH1 0x40 MLOAD RETURNDATASIZE PUSH1 0x1F NOT PUSH1 0x1F DUP3 ADD AND DUP3 ADD DUP1 PUSH1 0x40 MSTORE POP DUP2 ADD SWAP1 PUSH2 0xD18 SWAP2 SWAP1 PUSH2 0x2C74 JUMP JUMPDEST LT ISZERO PUSH2 0xD22 JUMPI PUSH0 PUSH0 REVERT JUMPDEST PUSH1 0x8 PUSH0 SWAP1 SLOAD SWAP1 PUSH2 0x100 EXP SWAP1 DIV PUSH1 0xFF AND ISZERO PUSH2 0xD71 JUMPI PUSH1 0x40 MLOAD PUSH32 0x8C379A000000000000000000000000000000000000000000000000000000000 DUP2 MSTORE PUSH1 0x4 ADD PUSH2 0xD68 SWAP1 PUSH2 0x27FA JUMP JUMPDEST PUSH1 0x40 MLOAD DUP1 SWAP2 SUB SWAP1 REVERT JUMPDEST PUSH1 0x1 PUSH1 0x8 PUSH0 PUSH2 0x100 EXP DUP2 SLOAD DUP2 PUSH1 0xFF MUL NOT AND SWAP1 DUP4 ISZERO ISZERO MUL OR SWAP1 SSTORE POP PUSH1 0xA PUSH0 CALLER PUSH20 0xFFFFFFFFFFFFFFFFFFFFFFFFFFFFFFFFFFFFFFFF AND PUSH20 0xFFFFFFFFFFFFFFFFFFFFFFFFFFFFFFFFFFFFFFFF AND DUP2 MSTORE PUSH1 0x20 ADD SWAP1 DUP2 MSTORE PUSH1 0x20 ADD PUSH0 KECCAK256 PUSH0 DUP2 SLOAD DUP1 SWAP3 SWAP2 SWAP1 PUSH2 0xDD8 SWAP1 PUSH2 0x2C9F JUMP JUMPDEST SWAP2 SWAP1 POP SSTORE POP DUP4 PUSH1 0xD PUSH0 CALLER PUSH20 0xFFFFFFFFFFFFFFFFFFFFFFFFFFFFFFFFFFFFFFFF AND PUSH20 0xFFFFFFFFFFFFFFFFFFFFFFFFFFFFFFFFFFFFFFFF AND DUP2 MSTORE PUSH1 0x20 ADD SWAP1 DUP2 MSTORE PUSH1 0x20 ADD PUSH0 KECCAK256 PUSH0 DUP3 DUP3 SLOAD PUSH2 0xE29 SWAP2 SWAP1 PUSH2 0x2B28 JUMP JUMPDEST SWAP3 POP POP DUP2 SWAP1 SSTORE POP PUSH0 PUSH3 0x93A80 DUP7 PUSH2 0xE40 SWAP2 SWAP1 PUSH2 0x2CE6 JUMP JUMPDEST TIMESTAMP PUSH2 0xE4B SWAP2 SWAP1 PUSH2 0x2D27 JUMP JUMPDEST SWAP1 POP PUSH0 PUSH1 0x18 DUP8 LT ISZERO PUSH2 0xE60 JUMPI PUSH1 0x7 SWAP1 POP PUSH2 0xE85 JUMP JUMPDEST PUSH1 0x18 DUP8 LT ISZERO DUP1 ISZERO PUSH2 0xE71 JUMPI POP PUSH1 0x68 DUP8 LT JUMPDEST ISZERO PUSH2 0xE7F JUMPI PUSH1 0x6 SWAP1 POP PUSH2 0xE84 JUMP JUMPDEST PUSH1 0x5 SWAP1 POP JUMPDEST JUMPDEST PUSH0 PUSH2 0x1450 DUP9 DUP4 DUP10 PUSH2 0xE96 SWAP2 SWAP1 PUSH2 0x2CE6 JUMP JUMPDEST PUSH2 0xEA0 SWAP2 SWAP1 PUSH2 0x2CE6 JUMP JUMPDEST PUSH2 0xEAA SWAP2 SWAP1 PUSH2 0x2D87 JUMP JUMPDEST DUP8 PUSH2 0xEB5 SWAP2 SWAP1 PUSH2 0x2D27 JUMP JUMPDEST SWAP1 POP PUSH1 0x9 PUSH0 CALLER PUSH20 0xFFFFFFFFFFFFFFFFFFFFFFFFFFFFFFFFFFFFFFFF AND PUSH20 0xFFFFFFFFFFFFFFFFFFFFFFFFFFFFFFFFFFFFFFFF AND DUP2 MSTORE PUSH1 0x20 ADD SWAP1 DUP2 MSTORE PUSH1 0x20 ADD PUSH0 KECCAK256 PUSH1 0x40 MLOAD DUP1 PUSH2 0x100 ADD PUSH1 0x40 MSTORE DUP1 TIMESTAMP DUP2 MSTORE PUSH1 0x20 ADD PUSH0 DUP2 MSTORE PUSH1 0x20 ADD PUSH1 0x1 PUSH1 0x9 PUSH0 CALLER PUSH20 0xFFFFFFFFFFFFFFFFFFFFFFFFFFFFFFFFFFFFFFFF AND PUSH20 0xFFFFFFFFFFFFFFFFFFFFFFFFFFFFFFFFFFFFFFFF AND DUP2 MSTORE PUSH1 0x20 ADD SWAP1 DUP2 MSTORE PUSH1 0x20 ADD PUSH0 KECCAK256 DUP1 SLOAD SWAP1 POP PUSH2 0xF59 SWAP2 SWAP1 PUSH2 0x2D27 JUMP JUMPDEST DUP2 MSTORE PUSH1 0x20 ADD PUSH1 0x40 MLOAD DUP1 PUSH1 0x40 ADD PUSH1 0x40 MSTORE DUP1 PUSH1 0x6 DUP2 MSTORE PUSH1 0x20 ADD PUSH32 0x4163746976650000000000000000000000000000000000000000000000000000 DUP2 MSTORE POP DUP2 MSTORE PUSH1 0x20 ADD DUP6 DUP2 MSTORE PUSH1 0x20 ADD DUP5 DUP2 MSTORE PUSH1 0x20 ADD DUP10 DUP2 MSTORE PUSH1 0x20 ADD DUP4 DUP2 MSTORE POP SWAP1 DUP1 PUSH1 0x1 DUP2 SLOAD ADD DUP1 DUP3 SSTORE DUP1 SWAP2 POP POP PUSH1 0x1 SWAP1 SUB SWAP1 PUSH0 MSTORE PUSH1 0x20 PUSH0 KECCAK256 SWAP1 PUSH1 0x8 MUL ADD PUSH0 SWAP1 SWAP2 SWAP1 SWAP2 SWAP1 SWAP2 POP PUSH0 DUP3 ADD MLOAD DUP2 PUSH0 ADD SSTORE PUSH1 0x20 DUP3 ADD MLOAD DUP2 PUSH1 0x1 ADD SSTORE PUSH1 0x40 DUP3 ADD MLOAD DUP2 PUSH1 0x2 ADD SSTORE PUSH1 0x60 DUP3 ADD MLOAD DUP2 PUSH1 0x3 ADD SWAP1 DUP2 PUSH2 0x1006 SWAP2 SWAP1 PUSH2 0x2FE1 JUMP JUMPDEST POP PUSH1 0x80 DUP3 ADD MLOAD DUP2 PUSH1 0x4 ADD SSTORE PUSH1 0xA0 DUP3 ADD MLOAD DUP2 PUSH1 0x5 ADD SSTORE PUSH1 0xC0 DUP3 ADD MLOAD DUP2 PUSH1 0x6 ADD SSTORE PUSH1 0xE0 DUP3 ADD MLOAD DUP2 PUSH1 0x7 ADD SSTORE POP POP PUSH2 0x103D PUSH1 0x2 PUSH1 0x3 PUSH2 0x1EC5 JUMP JUMPDEST PUSH1 0x2 DUP1 SLOAD SWAP1 POP PUSH1 0x4 DUP2 SWAP1 SSTORE POP PUSH0 CALLER PUSH20 0xFFFFFFFFFFFFFFFFFFFFFFFFFFFFFFFFFFFFFFFF AND DUP9 PUSH1 0x40 MLOAD PUSH2 0x106E SWAP1 PUSH2 0x294E JUMP JUMPDEST PUSH0 PUSH1 0x40 MLOAD DUP1 DUP4 SUB DUP2 DUP6 DUP8 GAS CALL SWAP3 POP POP POP RETURNDATASIZE DUP1 PUSH0 DUP2 EQ PUSH2 0x10A8 JUMPI PUSH1 0x40 MLOAD SWAP2 POP PUSH1 0x1F NOT PUSH1 0x3F RETURNDATASIZE ADD AND DUP3 ADD PUSH1 0x40 MSTORE RETURNDATASIZE DUP3 MSTORE RETURNDATASIZE PUSH0 PUSH1 0x20 DUP5 ADD RETURNDATACOPY PUSH2 0x10AD JUMP JUMPDEST PUSH1 0x60 SWAP2 POP JUMPDEST POP POP SWAP1 POP DUP1 PUSH2 0x10F1 JUMPI PUSH1 0x40 MLOAD PUSH32 0x8C379A000000000000000000000000000000000000000000000000000000000 DUP2 MSTORE PUSH1 0x4 ADD PUSH2 0x10E8 SWAP1 PUSH2 0x29AC JUMP JUMPDEST PUSH1 0x40 MLOAD DUP1 SWAP2 SUB SWAP1 REVERT JUMPDEST POP POP POP POP PUSH0 PUSH1 0x8 PUSH0 PUSH2 0x100 EXP DUP2 SLOAD DUP2 PUSH1 0xFF MUL NOT AND SWAP1 DUP4 ISZERO ISZERO MUL OR SWAP1 SSTORE POP POP POP POP POP POP JUMP JUMPDEST PUSH0 PUSH0 PUSH2 0x112F CALLER PUSH1 0x6 SLOAD PUSH1 0xB PUSH2 0x20D8 SWAP1 SWAP3 SWAP2 SWAP1 PUSH4 0xFFFFFFFF AND JUMP JUMPDEST SWAP1 POP DUP1 PUSH1 0xC PUSH0 CALLER PUSH20 0xFFFFFFFFFFFFFFFFFFFFFFFFFFFFFFFFFFFFFFFF AND PUSH20 0xFFFFFFFFFFFFFFFFFFFFFFFFFFFFFFFFFFFFFFFF AND DUP2 MSTORE PUSH1 0x20 ADD SWAP1 DUP2 MSTORE PUSH1 0x20 ADD PUSH0 KECCAK256 DUP2 SWAP1 SSTORE POP PUSH1 0xC PUSH0 CALLER PUSH20 0xFFFFFFFFFFFFFFFFFFFFFFFFFFFFFFFFFFFFFFFF AND PUSH20 0xFFFFFFFFFFFFFFFFFFFFFFFFFFFFFFFFFFFFFFFF AND DUP2 MSTORE PUSH1 0x20 ADD SWAP1 DUP2 MSTORE PUSH1 0x20 ADD PUSH0 KECCAK256 SLOAD SWAP2 POP POP SWAP1 JUMP JUMPDEST PUSH1 0x60 PUSH1 0x2 DUP1 SLOAD DUP1 PUSH1 0x20 MUL PUSH1 0x20 ADD PUSH1 0x40 MLOAD SWAP1 DUP2 ADD PUSH1 0x40 MSTORE DUP1 SWAP3 SWAP2 SWAP1 DUP2 DUP2 MSTORE PUSH1 0x20 ADD DUP3 DUP1 SLOAD DUP1 ISZERO PUSH2 0x1238 JUMPI PUSH1 0x20 MUL DUP3 ADD SWAP2 SWAP1 PUSH0 MSTORE PUSH1 0x20 PUSH0 KECCAK256 SWAP1 JUMPDEST DUP2 PUSH0 SWAP1 SLOAD SWAP1 PUSH2 0x100 EXP SWAP1 DIV PUSH20 0xFFFFFFFFFFFFFFFFFFFFFFFFFFFFFFFFFFFFFFFF AND PUSH20 0xFFFFFFFFFFFFFFFFFFFFFFFFFFFFFFFFFFFFFFFF AND DUP2 MSTORE PUSH1 0x20 ADD SWAP1 PUSH1 0x1 ADD SWAP1 DUP1 DUP4 GT PUSH2 0x11EF JUMPI JUMPDEST POP POP POP POP POP SWAP1 POP SWAP1 JUMP JUMPDEST PUSH1 0x6 SLOAD DUP2 JUMP JUMPDEST PUSH0 SELFBALANCE SWAP1 POP SWAP1 JUMP JUMPDEST PUSH1 0xA PUSH1 0x20 MSTORE DUP1 PUSH0 MSTORE PUSH1 0x40 PUSH0 KECCAK256 PUSH0 SWAP2 POP SWAP1 POP SLOAD DUP2 JUMP JUMPDEST PUSH0 PUSH0 SWAP1 SLOAD SWAP1 PUSH2 0x100 EXP SWAP1 DIV PUSH20 0xFFFFFFFFFFFFFFFFFFFFFFFFFFFFFFFFFFFFFFFF AND DUP2 JUMP JUMPDEST PUSH8 0x16345785D8A0000 CALLVALUE GT PUSH2 0x12D2 JUMPI PUSH1 0x40 MLOAD PUSH32 0x8C379A000000000000000000000000000000000000000000000000000000000 DUP2 MSTORE PUSH1 0x4 ADD PUSH2 0x12C9 SWAP1 PUSH2 0x30FA JUMP JUMPDEST PUSH1 0x40 MLOAD DUP1 SWAP2 SUB SWAP1 REVERT JUMPDEST CALLVALUE PUSH1 0xD PUSH0 CALLER PUSH20 0xFFFFFFFFFFFFFFFFFFFFFFFFFFFFFFFFFFFFFFFF AND PUSH20 0xFFFFFFFFFFFFFFFFFFFFFFFFFFFFFFFFFFFFFFFF AND DUP2 MSTORE PUSH1 0x20 ADD SWAP1 DUP2 MSTORE PUSH1 0x20 ADD PUSH0 KECCAK256 PUSH0 DUP3 DUP3 SLOAD PUSH2 0x131E SWAP2 SWAP1 PUSH2 0x2D27 JUMP JUMPDEST SWAP3 POP POP DUP2 SWAP1 SSTORE POP PUSH2 0x1331 PUSH1 0x3 PUSH1 0x2 PUSH2 0x1EC5 JUMP JUMPDEST PUSH1 0x3 DUP1 SLOAD SWAP1 POP PUSH1 0x5 DUP2 SWAP1 SSTORE POP PUSH1 0xB PUSH0 CALLER PUSH20 0xFFFFFFFFFFFFFFFFFFFFFFFFFFFFFFFFFFFFFFFF AND PUSH20 0xFFFFFFFFFFFFFFFFFFFFFFFFFFFFFFFFFFFFFFFF AND DUP2 MSTORE PUSH1 0x20 ADD SWAP1 DUP2 MSTORE PUSH1 0x20 ADD PUSH0 KECCAK256 PUSH1 0x40 MLOAD DUP1 PUSH1 0x60 ADD PUSH1 0x40 MSTORE DUP1 PUSH1 0x1 PUSH1 0xB PUSH0 CALLER PUSH20 0xFFFFFFFFFFFFFFFFFFFFFFFFFFFFFFFFFFFFFFFF AND PUSH20 0xFFFFFFFFFFFFFFFFFFFFFFFFFFFFFFFFFFFFFFFF AND DUP2 MSTORE PUSH1 0x20 ADD SWAP1 DUP2 MSTORE PUSH1 0x20 ADD PUSH0 KECCAK256 DUP1 SLOAD SWAP1 POP PUSH2 0x13D2 SWAP2 SWAP1 PUSH2 0x2D27 JUMP JUMPDEST DUP2 MSTORE PUSH1 0x20 ADD TIMESTAMP DUP2 MSTORE PUSH1 0x20 ADD CALLVALUE DUP2 MSTORE POP SWAP1 DUP1 PUSH1 0x1 DUP2 SLOAD ADD DUP1 DUP3 SSTORE DUP1 SWAP2 POP POP PUSH1 0x1 SWAP1 SUB SWAP1 PUSH0 MSTORE PUSH1 0x20 PUSH0 KECCAK256 SWAP1 PUSH1 0x3 MUL ADD PUSH0 SWAP1 SWAP2 SWAP1 SWAP2 SWAP1 SWAP2 POP PUSH0 DUP3 ADD MLOAD DUP2 PUSH0 ADD SSTORE PUSH1 0x20 DUP3 ADD MLOAD DUP2 PUSH1 0x1 ADD SSTORE PUSH1 0x40 DUP3 ADD MLOAD DUP2 PUSH1 0x2 ADD SSTORE POP POP PUSH32 0xF6285A60C92FD2767BC48A572B64940A62BE26CB7C523E64BF3BD75A82062559 CALLER CALLVALUE TIMESTAMP PUSH1 0x40 MLOAD PUSH2 0x1458 SWAP4 SWAP3 SWAP2 SWAP1 PUSH2 0x2B5B JUMP JUMPDEST PUSH1 0x40 MLOAD DUP1 SWAP2 SUB SWAP1 LOG1 JUMP JUMPDEST PUSH1 0x9 PUSH1 0x20 MSTORE DUP2 PUSH0 MSTORE PUSH1 0x40 PUSH0 KECCAK256 DUP2 DUP2 SLOAD DUP2 LT PUSH2 0x147B JUMPI PUSH0 DUP1 REVERT JUMPDEST SWAP1 PUSH0 MSTORE PUSH1 0x20 PUSH0 KECCAK256 SWAP1 PUSH1 0x8 MUL ADD PUSH0 SWAP2 POP SWAP2 POP POP DUP1 PUSH0 ADD SLOAD SWAP1 DUP1 PUSH1 0x1 ADD SLOAD SWAP1 DUP1 PUSH1 0x2 ADD SLOAD SWAP1 DUP1 PUSH1 0x3 ADD DUP1 SLOAD PUSH2 0x14AD SWAP1 PUSH2 0x2E11 JUMP JUMPDEST DUP1 PUSH1 0x1F ADD PUSH1 0x20 DUP1 SWAP2 DIV MUL PUSH1 0x20 ADD PUSH1 0x40 MLOAD SWAP1 DUP2 ADD PUSH1 0x40 MSTORE DUP1 SWAP3 SWAP2 SWAP1 DUP2 DUP2 MSTORE PUSH1 0x20 ADD DUP3 DUP1 SLOAD PUSH2 0x14D9 SWAP1 PUSH2 0x2E11 JUMP JUMPDEST DUP1 ISZERO PUSH2 0x1524 JUMPI DUP1 PUSH1 0x1F LT PUSH2 0x14FB JUMPI PUSH2 0x100 DUP1 DUP4 SLOAD DIV MUL DUP4 MSTORE SWAP2 PUSH1 0x20 ADD SWAP2 PUSH2 0x1524 JUMP JUMPDEST DUP3 ADD SWAP2 SWAP1 PUSH0 MSTORE PUSH1 0x20 PUSH0 KECCAK256 SWAP1 JUMPDEST DUP2 SLOAD DUP2 MSTORE SWAP1 PUSH1 0x1 ADD SWAP1 PUSH1 0x20 ADD DUP1 DUP4 GT PUSH2 0x1507 JUMPI DUP3 SWAP1 SUB PUSH1 0x1F AND DUP3 ADD SWAP2 JUMPDEST POP POP POP POP POP SWAP1 DUP1 PUSH1 0x4 ADD SLOAD SWAP1 DUP1 PUSH1 0x5 ADD SLOAD SWAP1 DUP1 PUSH1 0x6 ADD SLOAD SWAP1 DUP1 PUSH1 0x7 ADD SLOAD SWAP1 POP DUP9 JUMP JUMPDEST PUSH1 0x5 SLOAD DUP2 JUMP JUMPDEST PUSH1 0x60 PUSH1 0x3 DUP1 SLOAD DUP1 PUSH1 0x20 MUL PUSH1 0x20 ADD PUSH1 0x40 MLOAD SWAP1 DUP2 ADD PUSH1 0x40 MSTORE DUP1 SWAP3 SWAP2 SWAP1 DUP2 DUP2 MSTORE PUSH1 0x20 ADD DUP3 DUP1 SLOAD DUP1 ISZERO PUSH2 0x15CD JUMPI PUSH1 0x20 MUL DUP3 ADD SWAP2 SWAP1 PUSH0 MSTORE PUSH1 0x20 PUSH0 KECCAK256 SWAP1 JUMPDEST DUP2 PUSH0 SWAP1 SLOAD SWAP1 PUSH2 0x100 EXP SWAP1 DIV PUSH20 0xFFFFFFFFFFFFFFFFFFFFFFFFFFFFFFFFFFFFFFFF AND PUSH20 0xFFFFFFFFFFFFFFFFFFFFFFFFFFFFFFFFFFFFFFFF AND DUP2 MSTORE PUSH1 0x20 ADD SWAP1 PUSH1 0x1 ADD SWAP1 DUP1 DUP4 GT PUSH2 0x1584 JUMPI JUMPDEST POP POP POP POP POP SWAP1 POP SWAP1 JUMP JUMPDEST PUSH1 0xD PUSH1 0x20 MSTORE DUP1 PUSH0 MSTORE PUSH1 0x40 PUSH0 KECCAK256 PUSH0 SWAP2 POP SWAP1 POP SLOAD DUP2 JUMP JUMPDEST PUSH1 0x4 SLOAD DUP2 JUMP JUMPDEST PUSH1 0x8 PUSH0 SWAP1 SLOAD SWAP1 PUSH2 0x100 EXP SWAP1 DIV PUSH1 0xFF AND ISZERO PUSH2 0x1641 JUMPI PUSH1 0x40 MLOAD PUSH32 0x8C379A000000000000000000000000000000000000000000000000000000000 DUP2 MSTORE PUSH1 0x4 ADD PUSH2 0x1638 SWAP1 PUSH2 0x27FA JUMP JUMPDEST PUSH1 0x40 MLOAD DUP1 SWAP2 SUB SWAP1 REVERT JUMPDEST PUSH1 0x1 PUSH1 0x8 PUSH0 PUSH2 0x100 EXP DUP2 SLOAD DUP2 PUSH1 0xFF MUL NOT AND SWAP1 DUP4 ISZERO ISZERO MUL OR SWAP1 SSTORE POP PUSH1 0x40 MLOAD DUP1 PUSH1 0x40 ADD PUSH1 0x40 MSTORE DUP1 PUSH1 0x6 DUP2 MSTORE PUSH1 0x20 ADD PUSH32 0x4163746976650000000000000000000000000000000000000000000000000000 DUP2 MSTORE POP DUP1 MLOAD SWAP1 PUSH1 0x20 ADD KECCAK256 PUSH1 0x9 PUSH0 CALLER PUSH20 0xFFFFFFFFFFFFFFFFFFFFFFFFFFFFFFFFFFFFFFFF AND PUSH20 0xFFFFFFFFFFFFFFFFFFFFFFFFFFFFFFFFFFFFFFFF AND DUP2 MSTORE PUSH1 0x20 ADD SWAP1 DUP2 MSTORE PUSH1 0x20 ADD PUSH0 KECCAK256 DUP3 DUP2 SLOAD DUP2 LT PUSH2 0x16E7 JUMPI PUSH2 0x16E6 PUSH2 0x2880 JUMP JUMPDEST JUMPDEST SWAP1 PUSH0 MSTORE PUSH1 0x20 PUSH0 KECCAK256 SWAP1 PUSH1 0x8 MUL ADD PUSH1 0x3 ADD PUSH1 0x40 MLOAD PUSH2 0x1703 SWAP2 SWAP1 PUSH2 0x31AA JUMP JUMPDEST PUSH1 0x40 MLOAD DUP1 SWAP2 SUB SWAP1 KECCAK256 EQ PUSH2 0x174B JUMPI PUSH1 0x40 MLOAD PUSH32 0x8C379A000000000000000000000000000000000000000000000000000000000 DUP2 MSTORE PUSH1 0x4 ADD PUSH2 0x1742 SWAP1 PUSH2 0x320A JUMP JUMPDEST PUSH1 0x40 MLOAD DUP1 SWAP2 SUB SWAP1 REVERT JUMPDEST PUSH0 CALLVALUE GT PUSH2 0x178D JUMPI PUSH1 0x40 MLOAD PUSH32 0x8C379A000000000000000000000000000000000000000000000000000000000 DUP2 MSTORE PUSH1 0x4 ADD PUSH2 0x1784 SWAP1 PUSH2 0x3272 JUMP JUMPDEST PUSH1 0x40 MLOAD DUP1 SWAP2 SUB SWAP1 REVERT JUMPDEST PUSH1 0x9 PUSH0 CALLER PUSH20 0xFFFFFFFFFFFFFFFFFFFFFFFFFFFFFFFFFFFFFFFF AND PUSH20 0xFFFFFFFFFFFFFFFFFFFFFFFFFFFFFFFFFFFFFFFF AND DUP2 MSTORE PUSH1 0x20 ADD SWAP1 DUP2 MSTORE PUSH1 0x20 ADD PUSH0 KECCAK256 DUP1 SLOAD SWAP1 POP DUP2 LT PUSH2 0x180F JUMPI PUSH1 0x40 MLOAD PUSH32 0x8C379A000000000000000000000000000000000000000000000000000000000 DUP2 MSTORE PUSH1 0x4 ADD PUSH2 0x1806 SWAP1 PUSH2 0x32DA JUMP JUMPDEST PUSH1 0x40 MLOAD DUP1 SWAP2 SUB SWAP1 REVERT JUMPDEST PUSH1 0x9 PUSH0 CALLER PUSH20 0xFFFFFFFFFFFFFFFFFFFFFFFFFFFFFFFFFFFFFFFF AND PUSH20 0xFFFFFFFFFFFFFFFFFFFFFFFFFFFFFFFFFFFFFFFF AND DUP2 MSTORE PUSH1 0x20 ADD SWAP1 DUP2 MSTORE PUSH1 0x20 ADD PUSH0 KECCAK256 DUP2 DUP2 SLOAD DUP2 LT PUSH2 0x185E JUMPI PUSH2 0x185D PUSH2 0x2880 JUMP JUMPDEST JUMPDEST SWAP1 PUSH0 MSTORE PUSH1 0x20 PUSH0 KECCAK256 SWAP1 PUSH1 0x8 MUL ADD PUSH1 0x4 ADD SLOAD TIMESTAMP GT ISZERO PUSH2 0x18F2 JUMPI PUSH2 0x187E DUP2 PUSH2 0x229D JUMP JUMPDEST PUSH1 0x9 PUSH0 CALLER PUSH20 0xFFFFFFFFFFFFFFFFFFFFFFFFFFFFFFFFFFFFFFFF AND PUSH20 0xFFFFFFFFFFFFFFFFFFFFFFFFFFFFFFFFFFFFFFFF AND DUP2 MSTORE PUSH1 0x20 ADD SWAP1 DUP2 MSTORE PUSH1 0x20 ADD PUSH0 KECCAK256 DUP3 DUP2 SLOAD DUP2 LT PUSH2 0x18CD JUMPI PUSH2 0x18CC PUSH2 0x2880 JUMP JUMPDEST JUMPDEST SWAP1 PUSH0 MSTORE PUSH1 0x20 PUSH0 KECCAK256 SWAP1 PUSH1 0x8 MUL ADD PUSH1 0x7 ADD PUSH0 DUP3 DUP3 SLOAD PUSH2 0x18EA SWAP2 SWAP1 PUSH2 0x2D27 JUMP JUMPDEST SWAP3 POP POP DUP2 SWAP1 SSTORE POP JUMPDEST PUSH1 0x9 PUSH0 CALLER PUSH20 0xFFFFFFFFFFFFFFFFFFFFFFFFFFFFFFFFFFFFFFFF AND PUSH20 0xFFFFFFFFFFFFFFFFFFFFFFFFFFFFFFFFFFFFFFFF AND DUP2 MSTORE PUSH1 0x20 ADD SWAP1 DUP2 MSTORE PUSH1 0x20 ADD PUSH0 KECCAK256 DUP2 DUP2 SLOAD DUP2 LT PUSH2 0x1941 JUMPI PUSH2 0x1940 PUSH2 0x2880 JUMP JUMPDEST JUMPDEST SWAP1 PUSH0 MSTORE PUSH1 0x20 PUSH0 KECCAK256 SWAP1 PUSH1 0x8 MUL ADD PUSH1 0x7 ADD SLOAD CALLVALUE GT ISZERO PUSH2 0x1B73 JUMPI PUSH0 PUSH1 0x9 PUSH0 CALLER PUSH20 0xFFFFFFFFFFFFFFFFFFFFFFFFFFFFFFFFFFFFFFFF AND PUSH20 0xFFFFFFFFFFFFFFFFFFFFFFFFFFFFFFFFFFFFFFFF AND DUP2 MSTORE PUSH1 0x20 ADD SWAP1 DUP2 MSTORE PUSH1 0x20 ADD PUSH0 KECCAK256 DUP3 DUP2 SLOAD DUP2 LT PUSH2 0x19A8 JUMPI PUSH2 0x19A7 PUSH2 0x2880 JUMP JUMPDEST JUMPDEST SWAP1 PUSH0 MSTORE PUSH1 0x20 PUSH0 KECCAK256 SWAP1 PUSH1 0x8 MUL ADD PUSH1 0x7 ADD SLOAD CALLVALUE PUSH2 0x19C3 SWAP2 SWAP1 PUSH2 0x2B28 JUMP JUMPDEST SWAP1 POP DUP1 CALLVALUE PUSH2 0x19D1 SWAP2 SWAP1 PUSH2 0x2B28 JUMP JUMPDEST PUSH1 0xD PUSH0 CALLER PUSH20 0xFFFFFFFFFFFFFFFFFFFFFFFFFFFFFFFFFFFFFFFF AND PUSH20 0xFFFFFFFFFFFFFFFFFFFFFFFFFFFFFFFFFFFFFFFF AND DUP2 MSTORE PUSH1 0x20 ADD SWAP1 DUP2 MSTORE PUSH1 0x20 ADD PUSH0 KECCAK256 PUSH0 DUP3 DUP3 SLOAD PUSH2 0x1A1C SWAP2 SWAP1 PUSH2 0x2D27 JUMP JUMPDEST SWAP3 POP POP DUP2 SWAP1 SSTORE POP PUSH1 0x40 MLOAD DUP1 PUSH1 0x40 ADD PUSH1 0x40 MSTORE DUP1 PUSH1 0x4 DUP2 MSTORE PUSH1 0x20 ADD PUSH32 0x5061696400000000000000000000000000000000000000000000000000000000 DUP2 MSTORE POP PUSH1 0x9 PUSH0 CALLER PUSH20 0xFFFFFFFFFFFFFFFFFFFFFFFFFFFFFFFFFFFFFFFF AND PUSH20 0xFFFFFFFFFFFFFFFFFFFFFFFFFFFFFFFFFFFFFFFF AND DUP2 MSTORE PUSH1 0x20 ADD SWAP1 DUP2 MSTORE PUSH1 0x20 ADD PUSH0 KECCAK256 DUP4 DUP2 SLOAD DUP2 LT PUSH2 0x1AA8 JUMPI PUSH2 0x1AA7 PUSH2 0x2880 JUMP JUMPDEST JUMPDEST SWAP1 PUSH0 MSTORE PUSH1 0x20 PUSH0 KECCAK256 SWAP1 PUSH1 0x8 MUL ADD PUSH1 0x3 ADD SWAP1 DUP2 PUSH2 0x1AC3 SWAP2 SWAP1 PUSH2 0x2FE1 JUMP JUMPDEST POP PUSH0 CALLER PUSH20 0xFFFFFFFFFFFFFFFFFFFFFFFFFFFFFFFFFFFFFFFF AND DUP3 PUSH1 0x40 MLOAD PUSH2 0x1AE9 SWAP1 PUSH2 0x294E JUMP JUMPDEST PUSH0 PUSH1 0x40 MLOAD DUP1 DUP4 SUB DUP2 DUP6 DUP8 GAS CALL SWAP3 POP POP POP RETURNDATASIZE DUP1 PUSH0 DUP2 EQ PUSH2 0x1B23 JUMPI PUSH1 0x40 MLOAD SWAP2 POP PUSH1 0x1F NOT PUSH1 0x3F RETURNDATASIZE ADD AND DUP3 ADD PUSH1 0x40 MSTORE RETURNDATASIZE DUP3 MSTORE RETURNDATASIZE PUSH0 PUSH1 0x20 DUP5 ADD RETURNDATACOPY PUSH2 0x1B28 JUMP JUMPDEST PUSH1 0x60 SWAP2 POP JUMPDEST POP POP SWAP1 POP DUP1 PUSH2 0x1B6C JUMPI PUSH1 0x40 MLOAD PUSH32 0x8C379A000000000000000000000000000000000000000000000000000000000 DUP2 MSTORE PUSH1 0x4 ADD PUSH2 0x1B63 SWAP1 PUSH2 0x29AC JUMP JUMPDEST PUSH1 0x40 MLOAD DUP1 SWAP2 SUB SWAP1 REVERT JUMPDEST POP POP PUSH2 0x1D0D JUMP JUMPDEST PUSH1 0x9 PUSH0 CALLER PUSH20 0xFFFFFFFFFFFFFFFFFFFFFFFFFFFFFFFFFFFFFFFF AND PUSH20 0xFFFFFFFFFFFFFFFFFFFFFFFFFFFFFFFFFFFFFFFF AND DUP2 MSTORE PUSH1 0x20 ADD SWAP1 DUP2 MSTORE PUSH1 0x20 ADD PUSH0 KECCAK256 DUP2 DUP2 SLOAD DUP2 LT PUSH2 0x1BC2 JUMPI PUSH2 0x1BC1 PUSH2 0x2880 JUMP JUMPDEST JUMPDEST SWAP1 PUSH0 MSTORE PUSH1 0x20 PUSH0 KECCAK256 SWAP1 PUSH1 0x8 MUL ADD PUSH1 0x7 ADD SLOAD CALLVALUE SUB PUSH2 0x1CD1 JUMPI CALLVALUE PUSH1 0xD PUSH0 CALLER PUSH20 0xFFFFFFFFFFFFFFFFFFFFFFFFFFFFFFFFFFFFFFFF AND PUSH20 0xFFFFFFFFFFFFFFFFFFFFFFFFFFFFFFFFFFFFFFFF AND DUP2 MSTORE PUSH1 0x20 ADD SWAP1 DUP2 MSTORE PUSH1 0x20 ADD PUSH0 KECCAK256 PUSH0 DUP3 DUP3 SLOAD PUSH2 0x1C24 SWAP2 SWAP1 PUSH2 0x2D27 JUMP JUMPDEST SWAP3 POP POP DUP2 SWAP1 SSTORE POP PUSH1 0x40 MLOAD DUP1 PUSH1 0x40 ADD PUSH1 0x40 MSTORE DUP1 PUSH1 0x4 DUP2 MSTORE PUSH1 0x20 ADD PUSH32 0x5061696400000000000000000000000000000000000000000000000000000000 DUP2 MSTORE POP PUSH1 0x9 PUSH0 CALLER PUSH20 0xFFFFFFFFFFFFFFFFFFFFFFFFFFFFFFFFFFFFFFFF AND PUSH20 0xFFFFFFFFFFFFFFFFFFFFFFFFFFFFFFFFFFFFFFFF AND DUP2 MSTORE PUSH1 0x20 ADD SWAP1 DUP2 MSTORE PUSH1 0x20 ADD PUSH0 KECCAK256 DUP3 DUP2 SLOAD DUP2 LT PUSH2 0x1CB0 JUMPI PUSH2 0x1CAF PUSH2 0x2880 JUMP JUMPDEST JUMPDEST SWAP1 PUSH0 MSTORE PUSH1 0x20 PUSH0 KECCAK256 SWAP1 PUSH1 0x8 MUL ADD PUSH1 0x3 ADD SWAP1 DUP2 PUSH2 0x1CCB SWAP2 SWAP1 PUSH2 0x2FE1 JUMP JUMPDEST POP PUSH2 0x1D0C JUMP JUMPDEST PUSH1 0x40 MLOAD PUSH32 0x8C379A000000000000000000000000000000000000000000000000000000000 DUP2 MSTORE PUSH1 0x4 ADD PUSH2 0x1D03 SWAP1 PUSH2 0x3368 JUMP JUMPDEST PUSH1 0x40 MLOAD DUP1 SWAP2 SUB SWAP1 REVERT JUMPDEST JUMPDEST TIMESTAMP PUSH1 0x9 PUSH0 CALLER PUSH20 0xFFFFFFFFFFFFFFFFFFFFFFFFFFFFFFFFFFFFFFFF AND PUSH20 0xFFFFFFFFFFFFFFFFFFFFFFFFFFFFFFFFFFFFFFFF AND DUP2 MSTORE PUSH1 0x20 ADD SWAP1 DUP2 MSTORE PUSH1 0x20 ADD PUSH0 KECCAK256 DUP3 DUP2 SLOAD DUP2 LT PUSH2 0x1D5D JUMPI PUSH2 0x1D5C PUSH2 0x2880 JUMP JUMPDEST JUMPDEST SWAP1 PUSH0 MSTORE PUSH1 0x20 PUSH0 KECCAK256 SWAP1 PUSH1 0x8 MUL ADD PUSH1 0x1 ADD DUP2 SWAP1 SSTORE POP PUSH32 0x54D1B8845FF9C436636B708CDE6357819C40D995C0F6A2D794032C96F33C6A43 CALLER PUSH1 0x9 PUSH0 CALLER PUSH20 0xFFFFFFFFFFFFFFFFFFFFFFFFFFFFFFFFFFFFFFFF AND PUSH20 0xFFFFFFFFFFFFFFFFFFFFFFFFFFFFFFFFFFFFFFFF AND DUP2 MSTORE PUSH1 0x20 ADD SWAP1 DUP2 MSTORE PUSH1 0x20 ADD PUSH0 KECCAK256 DUP4 DUP2 SLOAD DUP2 LT PUSH2 0x1DE1 JUMPI PUSH2 0x1DE0 PUSH2 0x2880 JUMP JUMPDEST JUMPDEST SWAP1 PUSH0 MSTORE PUSH1 0x20 PUSH0 KECCAK256 SWAP1 PUSH1 0x8 MUL ADD PUSH1 0x7 ADD SLOAD TIMESTAMP PUSH1 0x9 PUSH0 CALLER PUSH20 0xFFFFFFFFFFFFFFFFFFFFFFFFFFFFFFFFFFFFFFFF AND PUSH20 0xFFFFFFFFFFFFFFFFFFFFFFFFFFFFFFFFFFFFFFFF AND DUP2 MSTORE PUSH1 0x20 ADD SWAP1 DUP2 MSTORE PUSH1 0x20 ADD PUSH0 KECCAK256 DUP6 DUP2 SLOAD DUP2 LT PUSH2 0x1E41 JUMPI PUSH2 0x1E40 PUSH2 0x2880 JUMP JUMPDEST JUMPDEST SWAP1 PUSH0 MSTORE PUSH1 0x20 PUSH0 KECCAK256 SWAP1 PUSH1 0x8 MUL ADD PUSH1 0x6 ADD SLOAD PUSH1 0x40 MLOAD PUSH2 0x1E61 SWAP5 SWAP4 SWAP3 SWAP2 SWAP1 PUSH2 0x3386 JUMP JUMPDEST PUSH1 0x40 MLOAD DUP1 SWAP2 SUB SWAP1 LOG1 PUSH0 PUSH1 0x8 PUSH0 PUSH2 0x100 EXP DUP2 SLOAD DUP2 PUSH1 0xFF MUL NOT AND SWAP1 DUP4 ISZERO ISZERO MUL OR SWAP1 SSTORE POP POP JUMP JUMPDEST PUSH1 0xB PUSH1 0x20 MSTORE DUP2 PUSH0 MSTORE PUSH1 0x40 PUSH0 KECCAK256 DUP2 DUP2 SLOAD DUP2 LT PUSH2 0x1E9E JUMPI PUSH0 DUP1 REVERT JUMPDEST SWAP1 PUSH0 MSTORE PUSH1 0x20 PUSH0 KECCAK256 SWAP1 PUSH1 0x3 MUL ADD PUSH0 SWAP2 POP SWAP2 POP POP DUP1 PUSH0 ADD SLOAD SWAP1 DUP1 PUSH1 0x1 ADD SLOAD SWAP1 DUP1 PUSH1 0x2 ADD SLOAD SWAP1 POP DUP4 JUMP JUMPDEST PUSH0 PUSH0 PUSH0 PUSH0 SWAP1 POP JUMPDEST DUP5 DUP1 SLOAD SWAP1 POP DUP2 LT ISZERO PUSH2 0x1F5B JUMPI CALLER PUSH20 0xFFFFFFFFFFFFFFFFFFFFFFFFFFFFFFFFFFFFFFFF AND DUP6 DUP3 DUP2 SLOAD DUP2 LT PUSH2 0x1F02 JUMPI PUSH2 0x1F01 PUSH2 0x2880 JUMP JUMPDEST JUMPDEST SWAP1 PUSH0 MSTORE PUSH1 0x20 PUSH0 KECCAK256 ADD PUSH0 SWAP1 SLOAD SWAP1 PUSH2 0x100 EXP SWAP1 DIV PUSH20 0xFFFFFFFFFFFFFFFFFFFFFFFFFFFFFFFFFFFFFFFF AND PUSH20 0xFFFFFFFFFFFFFFFFFFFFFFFFFFFFFFFFFFFFFFFF AND SUB PUSH2 0x1F4E JUMPI PUSH1 0x1 SWAP3 POP PUSH2 0x1F5B JUMP JUMPDEST DUP1 DUP1 PUSH1 0x1 ADD SWAP2 POP POP PUSH2 0x1ECC JUMP JUMPDEST POP DUP2 PUSH2 0x1FC1 JUMPI DUP4 CALLER SWAP1 DUP1 PUSH1 0x1 DUP2 SLOAD ADD DUP1 DUP3 SSTORE DUP1 SWAP2 POP POP PUSH1 0x1 SWAP1 SUB SWAP1 PUSH0 MSTORE PUSH1 0x20 PUSH0 KECCAK256 ADD PUSH0 SWAP1 SWAP2 SWAP1 SWAP2 SWAP1 SWAP2 PUSH2 0x100 EXP DUP2 SLOAD DUP2 PUSH20 0xFFFFFFFFFFFFFFFFFFFFFFFFFFFFFFFFFFFFFFFF MUL NOT AND SWAP1 DUP4 PUSH20 0xFFFFFFFFFFFFFFFFFFFFFFFFFFFFFFFFFFFFFFFF AND MUL OR SWAP1 SSTORE POP JUMPDEST PUSH0 PUSH0 SWAP1 POP JUMPDEST DUP4 DUP1 SLOAD SWAP1 POP DUP2 LT ISZERO PUSH2 0x2055 JUMPI CALLER PUSH20 0xFFFFFFFFFFFFFFFFFFFFFFFFFFFFFFFFFFFFFFFF AND DUP5 DUP3 DUP2 SLOAD DUP2 LT PUSH2 0x1FFC JUMPI PUSH2 0x1FFB PUSH2 0x2880 JUMP JUMPDEST JUMPDEST SWAP1 PUSH0 MSTORE PUSH1 0x20 PUSH0 KECCAK256 ADD PUSH0 SWAP1 SLOAD SWAP1 PUSH2 0x100 EXP SWAP1 DIV PUSH20 0xFFFFFFFFFFFFFFFFFFFFFFFFFFFFFFFFFFFFFFFF AND PUSH20 0xFFFFFFFFFFFFFFFFFFFFFFFFFFFFFFFFFFFFFFFF AND SUB PUSH2 0x2048 JUMPI PUSH1 0x1 SWAP2 POP PUSH2 0x2055 JUMP JUMPDEST DUP1 DUP1 PUSH1 0x1 ADD SWAP2 POP POP PUSH2 0x1FC6 JUMP JUMPDEST POP PUSH0 ISZERO ISZERO DUP3 ISZERO ISZERO EQ DUP1 ISZERO PUSH2 0x206C JUMPI POP PUSH0 ISZERO ISZERO DUP2 ISZERO ISZERO EQ JUMPDEST ISZERO PUSH2 0x20D2 JUMPI PUSH1 0x1 CALLER SWAP1 DUP1 PUSH1 0x1 DUP2 SLOAD ADD DUP1 DUP3 SSTORE DUP1 SWAP2 POP POP PUSH1 0x1 SWAP1 SUB SWAP1 PUSH0 MSTORE PUSH1 0x20 PUSH0 KECCAK256 ADD PUSH0 SWAP1 SWAP2 SWAP1 SWAP2 SWAP1 SWAP2 PUSH2 0x100 EXP DUP2 SLOAD DUP2 PUSH20 0xFFFFFFFFFFFFFFFFFFFFFFFFFFFFFFFFFFFFFFFF MUL NOT AND SWAP1 DUP4 PUSH20 0xFFFFFFFFFFFFFFFFFFFFFFFFFFFFFFFFFFFFFFFF AND MUL OR SWAP1 SSTORE POP JUMPDEST POP POP POP POP JUMP JUMPDEST PUSH0 PUSH0 PUSH0 PUSH0 SWAP1 POP JUMPDEST DUP6 PUSH0 DUP7 PUSH20 0xFFFFFFFFFFFFFFFFFFFFFFFFFFFFFFFFFFFFFFFF AND PUSH20 0xFFFFFFFFFFFFFFFFFFFFFFFFFFFFFFFFFFFFFFFF AND DUP2 MSTORE PUSH1 0x20 ADD SWAP1 DUP2 MSTORE PUSH1 0x20 ADD PUSH0 KECCAK256 DUP1 SLOAD SWAP1 POP DUP2 LT ISZERO PUSH2 0x2291 JUMPI PUSH0 DUP7 PUSH0 DUP8 PUSH20 0xFFFFFFFFFFFFFFFFFFFFFFFFFFFFFFFFFFFFFFFF AND PUSH20 0xFFFFFFFFFFFFFFFFFFFFFFFFFFFFFFFFFFFFFFFF AND DUP2 MSTORE PUSH1 0x20 ADD SWAP1 DUP2 MSTORE PUSH1 0x20 ADD PUSH0 KECCAK256 DUP3 DUP2 SLOAD DUP2 LT PUSH2 0x2175 JUMPI PUSH2 0x2174 PUSH2 0x2880 JUMP JUMPDEST JUMPDEST SWAP1 PUSH0 MSTORE PUSH1 0x20 PUSH0 KECCAK256 SWAP1 PUSH1 0x3 MUL ADD PUSH1 0x2 ADD SLOAD SUB ISZERO PUSH2 0x2284 JUMPI PUSH4 0xBBF81E00 DUP7 PUSH0 DUP8 PUSH20 0xFFFFFFFFFFFFFFFFFFFFFFFFFFFFFFFFFFFFFFFF AND PUSH20 0xFFFFFFFFFFFFFFFFFFFFFFFFFFFFFFFFFFFFFFFF AND DUP2 MSTORE PUSH1 0x20 ADD SWAP1 DUP2 MSTORE PUSH1 0x20 ADD PUSH0 KECCAK256 DUP3 DUP2 SLOAD DUP2 LT PUSH2 0x21DE JUMPI PUSH2 0x21DD PUSH2 0x2880 JUMP JUMPDEST JUMPDEST SWAP1 PUSH0 MSTORE PUSH1 0x20 PUSH0 KECCAK256 SWAP1 PUSH1 0x3 MUL ADD PUSH1 0x2 ADD SLOAD DUP6 DUP9 PUSH0 DUP10 PUSH20 0xFFFFFFFFFFFFFFFFFFFFFFFFFFFFFFFFFFFFFFFF AND PUSH20 0xFFFFFFFFFFFFFFFFFFFFFFFFFFFFFFFFFFFFFFFF AND DUP2 MSTORE PUSH1 0x20 ADD SWAP1 DUP2 MSTORE PUSH1 0x20 ADD PUSH0 KECCAK256 DUP5 DUP2 SLOAD DUP2 LT PUSH2 0x223D JUMPI PUSH2 0x223C PUSH2 0x2880 JUMP JUMPDEST JUMPDEST SWAP1 PUSH0 MSTORE PUSH1 0x20 PUSH0 KECCAK256 SWAP1 PUSH1 0x3 MUL ADD PUSH1 0x1 ADD SLOAD TIMESTAMP PUSH2 0x2258 SWAP2 SWAP1 PUSH2 0x2B28 JUMP JUMPDEST PUSH2 0x2262 SWAP2 SWAP1 PUSH2 0x2CE6 JUMP JUMPDEST PUSH2 0x226C SWAP2 SWAP1 PUSH2 0x2CE6 JUMP JUMPDEST PUSH2 0x2276 SWAP2 SWAP1 PUSH2 0x2D87 JUMP JUMPDEST DUP3 PUSH2 0x2281 SWAP2 SWAP1 PUSH2 0x2D27 JUMP JUMPDEST SWAP2 POP JUMPDEST DUP1 DUP1 PUSH1 0x1 ADD SWAP2 POP POP PUSH2 0x20DF JUMP JUMPDEST POP DUP1 SWAP2 POP POP SWAP4 SWAP3 POP POP POP JUMP JUMPDEST PUSH0 PUSH0 PUSH2 0x22B7 DUP4 PUSH1 0x7 SLOAD PUSH1 0x9 PUSH2 0x22C2 SWAP1 SWAP3 SWAP2 SWAP1 PUSH4 0xFFFFFFFF AND JUMP JUMPDEST SWAP1 POP DUP1 SWAP2 POP POP SWAP2 SWAP1 POP JUMP JUMPDEST PUSH0 PUSH0 PUSH3 0x15180 DUP6 PUSH0 CALLER PUSH20 0xFFFFFFFFFFFFFFFFFFFFFFFFFFFFFFFFFFFFFFFF AND PUSH20 0xFFFFFFFFFFFFFFFFFFFFFFFFFFFFFFFFFFFFFFFF AND DUP2 MSTORE PUSH1 0x20 ADD SWAP1 DUP2 MSTORE PUSH1 0x20 ADD PUSH0 KECCAK256 DUP6 DUP2 SLOAD DUP2 LT PUSH2 0x2316 JUMPI PUSH2 0x2315 PUSH2 0x2880 JUMP JUMPDEST JUMPDEST SWAP1 PUSH0 MSTORE PUSH1 0x20 PUSH0 KECCAK256 SWAP1 PUSH1 0x8 MUL ADD PUSH1 0x4 ADD SLOAD TIMESTAMP PUSH2 0x2331 SWAP2 SWAP1 PUSH2 0x2B28 JUMP JUMPDEST PUSH2 0x233B SWAP2 SWAP1 PUSH2 0x2D87 JUMP JUMPDEST SWAP1 POP PUSH0 PUSH2 0x8E94 DUP3 DUP6 DUP9 PUSH0 CALLER PUSH20 0xFFFFFFFFFFFFFFFFFFFFFFFFFFFFFFFFFFFFFFFF AND PUSH20 0xFFFFFFFFFFFFFFFFFFFFFFFFFFFFFFFFFFFFFFFF AND DUP2 MSTORE PUSH1 0x20 ADD SWAP1 DUP2 MSTORE PUSH1 0x20 ADD PUSH0 KECCAK256 DUP9 DUP2 SLOAD DUP2 LT PUSH2 0x2391 JUMPI PUSH2 0x2390 PUSH2 0x2880 JUMP JUMPDEST JUMPDEST SWAP1 PUSH0 MSTORE PUSH1 0x20 PUSH0 KECCAK256 SWAP1 PUSH1 0x8 MUL ADD PUSH1 0x6 ADD SLOAD PUSH2 0x23AB SWAP2 SWAP1 PUSH2 0x2CE6 JUMP JUMPDEST PUSH2 0x23B5 SWAP2 SWAP1 PUSH2 0x2CE6 JUMP JUMPDEST PUSH2 0x23BF SWAP2 SWAP1 PUSH2 0x2D87 JUMP JUMPDEST SWAP1 POP DUP1 SWAP3 POP POP POP SWAP4 SWAP3 POP POP POP JUMP JUMPDEST PUSH0 DUP2 SWAP1 POP SWAP2 SWAP1 POP JUMP JUMPDEST PUSH2 0x23DF DUP2 PUSH2 0x23CD JUMP JUMPDEST DUP3 MSTORE POP POP JUMP JUMPDEST PUSH0 PUSH1 0x20 DUP3 ADD SWAP1 POP PUSH2 0x23F8 PUSH0 DUP4 ADD DUP5 PUSH2 0x23D6 JUMP JUMPDEST SWAP3 SWAP2 POP POP JUMP JUMPDEST PUSH0 PUSH0 REVERT JUMPDEST PUSH0 PUSH20 0xFFFFFFFFFFFFFFFFFFFFFFFFFFFFFFFFFFFFFFFF DUP3 AND SWAP1 POP SWAP2 SWAP1 POP JUMP JUMPDEST PUSH0 PUSH2 0x242B DUP3 PUSH2 0x2402 JUMP JUMPDEST SWAP1 POP SWAP2 SWAP1 POP JUMP JUMPDEST PUSH2 0x243B DUP2 PUSH2 0x2421 JUMP JUMPDEST DUP2 EQ PUSH2 0x2445 JUMPI PUSH0 PUSH0 REVERT JUMPDEST POP JUMP JUMPDEST PUSH0 DUP2 CALLDATALOAD SWAP1 POP PUSH2 0x2456 DUP2 PUSH2 0x2432 JUMP JUMPDEST SWAP3 SWAP2 POP POP JUMP JUMPDEST PUSH0 PUSH1 0x20 DUP3 DUP5 SUB SLT ISZERO PUSH2 0x2471 JUMPI PUSH2 0x2470 PUSH2 0x23FE JUMP JUMPDEST JUMPDEST PUSH0 PUSH2 0x247E DUP5 DUP3 DUP6 ADD PUSH2 0x2448 JUMP JUMPDEST SWAP2 POP POP SWAP3 SWAP2 POP POP JUMP JUMPDEST PUSH2 0x2490 DUP2 PUSH2 0x23CD JUMP JUMPDEST DUP2 EQ PUSH2 0x249A JUMPI PUSH0 PUSH0 REVERT JUMPDEST POP JUMP JUMPDEST PUSH0 DUP2 CALLDATALOAD SWAP1 POP PUSH2 0x24AB DUP2 PUSH2 0x2487 JUMP JUMPDEST SWAP3 SWAP2 POP POP JUMP JUMPDEST PUSH0 PUSH1 0x20 DUP3 DUP5 SUB SLT ISZERO PUSH2 0x24C6 JUMPI PUSH2 0x24C5 PUSH2 0x23FE JUMP JUMPDEST JUMPDEST PUSH0 PUSH2 0x24D3 DUP5 DUP3 DUP6 ADD PUSH2 0x249D JUMP JUMPDEST SWAP2 POP POP SWAP3 SWAP2 POP POP JUMP JUMPDEST PUSH0 PUSH0 PUSH1 0x40 DUP4 DUP6 SUB SLT ISZERO PUSH2 0x24F2 JUMPI PUSH2 0x24F1 PUSH2 0x23FE JUMP JUMPDEST JUMPDEST PUSH0 PUSH2 0x24FF DUP6 DUP3 DUP7 ADD PUSH2 0x249D JUMP JUMPDEST SWAP3 POP POP PUSH1 0x20 PUSH2 0x2510 DUP6 DUP3 DUP7 ADD PUSH2 0x249D JUMP JUMPDEST SWAP2 POP POP SWAP3 POP SWAP3 SWAP1 POP JUMP JUMPDEST PUSH0 DUP2 MLOAD SWAP1 POP SWAP2 SWAP1 POP JUMP JUMPDEST PUSH0 DUP3 DUP3 MSTORE PUSH1 0x20 DUP3 ADD SWAP1 POP SWAP3 SWAP2 POP POP JUMP JUMPDEST PUSH0 DUP2 SWAP1 POP PUSH1 0x20 DUP3 ADD SWAP1 POP SWAP2 SWAP1 POP JUMP JUMPDEST PUSH2 0x254C DUP2 PUSH2 0x2421 JUMP JUMPDEST DUP3 MSTORE POP POP JUMP JUMPDEST PUSH0 PUSH2 0x255D DUP4 DUP4 PUSH2 0x2543 JUMP JUMPDEST PUSH1 0x20 DUP4 ADD SWAP1 POP SWAP3 SWAP2 POP POP JUMP JUMPDEST PUSH0 PUSH1 0x20 DUP3 ADD SWAP1 POP SWAP2 SWAP1 POP JUMP JUMPDEST PUSH0 PUSH2 0x257F DUP3 PUSH2 0x251A JUMP JUMPDEST PUSH2 0x2589 DUP2 DUP6 PUSH2 0x2524 JUMP JUMPDEST SWAP4 POP PUSH2 0x2594 DUP4 PUSH2 0x2534 JUMP JUMPDEST DUP1 PUSH0 JUMPDEST DUP4 DUP2 LT ISZERO PUSH2 0x25C4 JUMPI DUP2 MLOAD PUSH2 0x25AB DUP9 DUP3 PUSH2 0x2552 JUMP JUMPDEST SWAP8 POP PUSH2 0x25B6 DUP4 PUSH2 0x2569 JUMP JUMPDEST SWAP3 POP POP PUSH1 0x1 DUP2 ADD SWAP1 POP PUSH2 0x2597 JUMP JUMPDEST POP DUP6 SWAP4 POP POP POP POP SWAP3 SWAP2 POP POP JUMP JUMPDEST PUSH0 PUSH1 0x20 DUP3 ADD SWAP1 POP DUP2 DUP2 SUB PUSH0 DUP4 ADD MSTORE PUSH2 0x25E9 DUP2 DUP5 PUSH2 0x2575 JUMP JUMPDEST SWAP1 POP SWAP3 SWAP2 POP POP JUMP JUMPDEST PUSH0 DUP2 SWAP1 POP SWAP2 SWAP1 POP JUMP JUMPDEST PUSH2 0x2603 DUP2 PUSH2 0x25F1 JUMP JUMPDEST DUP3 MSTORE POP POP JUMP JUMPDEST PUSH0 PUSH1 0x20 DUP3 ADD SWAP1 POP PUSH2 0x261C PUSH0 DUP4 ADD DUP5 PUSH2 0x25FA JUMP JUMPDEST SWAP3 SWAP2 POP POP JUMP JUMPDEST PUSH2 0x262B DUP2 PUSH2 0x2421 JUMP JUMPDEST DUP3 MSTORE POP POP JUMP JUMPDEST PUSH0 PUSH1 0x20 DUP3 ADD SWAP1 POP PUSH2 0x2644 PUSH0 DUP4 ADD DUP5 PUSH2 0x2622 JUMP JUMPDEST SWAP3 SWAP2 POP POP JUMP JUMPDEST PUSH0 PUSH0 PUSH1 0x40 DUP4 DUP6 SUB SLT ISZERO PUSH2 0x2660 JUMPI PUSH2 0x265F PUSH2 0x23FE JUMP JUMPDEST JUMPDEST PUSH0 PUSH2 0x266D DUP6 DUP3 DUP7 ADD PUSH2 0x2448 JUMP JUMPDEST SWAP3 POP POP PUSH1 0x20 PUSH2 0x267E DUP6 DUP3 DUP7 ADD PUSH2 0x249D JUMP JUMPDEST SWAP2 POP POP SWAP3 POP SWAP3 SWAP1 POP JUMP JUMPDEST PUSH0 DUP2 MLOAD SWAP1 POP SWAP2 SWAP1 POP JUMP JUMPDEST PUSH0 DUP3 DUP3 MSTORE PUSH1 0x20 DUP3 ADD SWAP1 POP SWAP3 SWAP2 POP POP JUMP JUMPDEST DUP3 DUP2 DUP4 MCOPY PUSH0 DUP4 DUP4 ADD MSTORE POP POP POP JUMP JUMPDEST PUSH0 PUSH1 0x1F NOT PUSH1 0x1F DUP4 ADD AND SWAP1 POP SWAP2 SWAP1 POP JUMP JUMPDEST PUSH0 PUSH2 0x26CA DUP3 PUSH2 0x2688 JUMP JUMPDEST PUSH2 0x26D4 DUP2 DUP6 PUSH2 0x2692 JUMP JUMPDEST SWAP4 POP PUSH2 0x26E4 DUP2 DUP6 PUSH1 0x20 DUP7 ADD PUSH2 0x26A2 JUMP JUMPDEST PUSH2 0x26ED DUP2 PUSH2 0x26B0 JUMP JUMPDEST DUP5 ADD SWAP2 POP POP SWAP3 SWAP2 POP POP JUMP JUMPDEST PUSH0 PUSH2 0x100 DUP3 ADD SWAP1 POP PUSH2 0x270C PUSH0 DUP4 ADD DUP12 PUSH2 0x23D6 JUMP JUMPDEST PUSH2 0x2719 PUSH1 0x20 DUP4 ADD DUP11 PUSH2 0x23D6 JUMP JUMPDEST PUSH2 0x2726 PUSH1 0x40 DUP4 ADD DUP10 PUSH2 0x23D6 JUMP JUMPDEST DUP2 DUP2 SUB PUSH1 0x60 DUP4 ADD MSTORE PUSH2 0x2738 DUP2 DUP9 PUSH2 0x26C0 JUMP JUMPDEST SWAP1 POP PUSH2 0x2747 PUSH1 0x80 DUP4 ADD DUP8 PUSH2 0x23D6 JUMP JUMPDEST PUSH2 0x2754 PUSH1 0xA0 DUP4 ADD DUP7 PUSH2 0x23D6 JUMP JUMPDEST PUSH2 0x2761 PUSH1 0xC0 DUP4 ADD DUP6 PUSH2 0x23D6 JUMP JUMPDEST PUSH2 0x276E PUSH1 0xE0 DUP4 ADD DUP5 PUSH2 0x23D6 JUMP JUMPDEST SWAP10 SWAP9 POP POP POP POP POP POP POP POP POP JUMP JUMPDEST PUSH0 PUSH1 0x60 DUP3 ADD SWAP1 POP PUSH2 0x278E PUSH0 DUP4 ADD DUP7 PUSH2 0x23D6 JUMP JUMPDEST PUSH2 0x279B PUSH1 0x20 DUP4 ADD DUP6 PUSH2 0x23D6 JUMP JUMPDEST PUSH2 0x27A8 PUSH1 0x40 DUP4 ADD DUP5 PUSH2 0x23D6 JUMP JUMPDEST SWAP5 SWAP4 POP POP POP POP JUMP JUMPDEST PUSH32 0x5265656E7472616E637900000000000000000000000000000000000000000000 PUSH0 DUP3 ADD MSTORE POP JUMP JUMPDEST PUSH0 PUSH2 0x27E4 PUSH1 0xA DUP4 PUSH2 0x2692 JUMP JUMPDEST SWAP2 POP PUSH2 0x27EF DUP3 PUSH2 0x27B0 JUMP JUMPDEST PUSH1 0x20 DUP3 ADD SWAP1 POP SWAP2 SWAP1 POP JUMP JUMPDEST PUSH0 PUSH1 0x20 DUP3 ADD SWAP1 POP DUP2 DUP2 SUB PUSH0 DUP4 ADD MSTORE PUSH2 0x2811 DUP2 PUSH2 0x27D8 JUMP JUMPDEST SWAP1 POP SWAP2 SWAP1 POP JUMP JUMPDEST PUSH32 0x4E6F20696E74657265737420746F207769746864726177000000000000000000 PUSH0 DUP3 ADD MSTORE POP JUMP JUMPDEST PUSH0 PUSH2 0x284C PUSH1 0x17 DUP4 PUSH2 0x2692 JUMP JUMPDEST SWAP2 POP PUSH2 0x2857 DUP3 PUSH2 0x2818 JUMP JUMPDEST PUSH1 0x20 DUP3 ADD SWAP1 POP SWAP2 SWAP1 POP JUMP JUMPDEST PUSH0 PUSH1 0x20 DUP3 ADD SWAP1 POP DUP2 DUP2 SUB PUSH0 DUP4 ADD MSTORE PUSH2 0x2879 DUP2 PUSH2 0x2840 JUMP JUMPDEST SWAP1 POP SWAP2 SWAP1 POP JUMP JUMPDEST PUSH32 0x4E487B7100000000000000000000000000000000000000000000000000000000 PUSH0 MSTORE PUSH1 0x32 PUSH1 0x4 MSTORE PUSH1 0x24 PUSH0 REVERT JUMPDEST PUSH32 0x4E487B7100000000000000000000000000000000000000000000000000000000 PUSH0 MSTORE PUSH1 0x11 PUSH1 0x4 MSTORE PUSH1 0x24 PUSH0 REVERT JUMPDEST PUSH0 PUSH2 0x28E4 DUP3 PUSH2 0x23CD JUMP JUMPDEST SWAP2 POP PUSH32 0xFFFFFFFFFFFFFFFFFFFFFFFFFFFFFFFFFFFFFFFFFFFFFFFFFFFFFFFFFFFFFFFF DUP3 SUB PUSH2 0x2916 JUMPI PUSH2 0x2915 PUSH2 0x28AD JUMP JUMPDEST JUMPDEST PUSH1 0x1 DUP3 ADD SWAP1 POP SWAP2 SWAP1 POP JUMP JUMPDEST PUSH0 DUP2 SWAP1 POP SWAP3 SWAP2 POP POP JUMP JUMPDEST POP JUMP JUMPDEST PUSH0 PUSH2 0x2939 PUSH0 DUP4 PUSH2 0x2921 JUMP JUMPDEST SWAP2 POP PUSH2 0x2944 DUP3 PUSH2 0x292B JUMP JUMPDEST PUSH0 DUP3 ADD SWAP1 POP SWAP2 SWAP1 POP JUMP JUMPDEST PUSH0 PUSH2 0x2958 DUP3 PUSH2 0x292E JUMP JUMPDEST SWAP2 POP DUP2 SWAP1 POP SWAP2 SWAP1 POP JUMP JUMPDEST PUSH32 0x5472616E73616374696F6E206661696C65640000000000000000000000000000 PUSH0 DUP3 ADD MSTORE POP JUMP JUMPDEST PUSH0 PUSH2 0x2996 PUSH1 0x12 DUP4 PUSH2 0x2692 JUMP JUMPDEST SWAP2 POP PUSH2 0x29A1 DUP3 PUSH2 0x2962 JUMP JUMPDEST PUSH1 0x20 DUP3 ADD SWAP1 POP SWAP2 SWAP1 POP JUMP JUMPDEST PUSH0 PUSH1 0x20 DUP3 ADD SWAP1 POP DUP2 DUP2 SUB PUSH0 DUP4 ADD MSTORE PUSH2 0x29C3 DUP2 PUSH2 0x298A JUMP JUMPDEST SWAP1 POP SWAP2 SWAP1 POP JUMP JUMPDEST PUSH32 0x4578636564656564206D6178696D756D20776974686472617700000000000000 PUSH0 DUP3 ADD MSTORE POP JUMP JUMPDEST PUSH0 PUSH2 0x29FE PUSH1 0x19 DUP4 PUSH2 0x2692 JUMP JUMPDEST SWAP2 POP PUSH2 0x2A09 DUP3 PUSH2 0x29CA JUMP JUMPDEST PUSH1 0x20 DUP3 ADD SWAP1 POP SWAP2 SWAP1 POP JUMP JUMPDEST PUSH0 PUSH1 0x20 DUP3 ADD SWAP1 POP DUP2 DUP2 SUB PUSH0 DUP4 ADD MSTORE PUSH2 0x2A2B DUP2 PUSH2 0x29F2 JUMP JUMPDEST SWAP1 POP SWAP2 SWAP1 POP JUMP JUMPDEST PUSH32 0x416D6F756E74206D7573742062652067726561746572207468616E207A65726F PUSH0 DUP3 ADD MSTORE POP JUMP JUMPDEST PUSH0 PUSH2 0x2A66 PUSH1 0x20 DUP4 PUSH2 0x2692 JUMP JUMPDEST SWAP2 POP PUSH2 0x2A71 DUP3 PUSH2 0x2A32 JUMP JUMPDEST PUSH1 0x20 DUP3 ADD SWAP1 POP SWAP2 SWAP1 POP JUMP JUMPDEST PUSH0 PUSH1 0x20 DUP3 ADD SWAP1 POP DUP2 DUP2 SUB PUSH0 DUP4 ADD MSTORE PUSH2 0x2A93 DUP2 PUSH2 0x2A5A JUMP JUMPDEST SWAP1 POP SWAP2 SWAP1 POP JUMP JUMPDEST PUSH32 0x4E6F7420656E6F7567682066756E647320696E206465706F7369747320746F20 PUSH0 DUP3 ADD MSTORE PUSH32 0x636F766572207769746864726177616C00000000000000000000000000000000 PUSH1 0x20 DUP3 ADD MSTORE POP JUMP JUMPDEST PUSH0 PUSH2 0x2AF4 PUSH1 0x30 DUP4 PUSH2 0x2692 JUMP JUMPDEST SWAP2 POP PUSH2 0x2AFF DUP3 PUSH2 0x2A9A JUMP JUMPDEST PUSH1 0x40 DUP3 ADD SWAP1 POP SWAP2 SWAP1 POP JUMP JUMPDEST PUSH0 PUSH1 0x20 DUP3 ADD SWAP1 POP DUP2 DUP2 SUB PUSH0 DUP4 ADD MSTORE PUSH2 0x2B21 DUP2 PUSH2 0x2AE8 JUMP JUMPDEST SWAP1 POP SWAP2 SWAP1 POP JUMP JUMPDEST PUSH0 PUSH2 0x2B32 DUP3 PUSH2 0x23CD JUMP JUMPDEST SWAP2 POP PUSH2 0x2B3D DUP4 PUSH2 0x23CD JUMP JUMPDEST SWAP3 POP DUP3 DUP3 SUB SWAP1 POP DUP2 DUP2 GT ISZERO PUSH2 0x2B55 JUMPI PUSH2 0x2B54 PUSH2 0x28AD JUMP JUMPDEST JUMPDEST SWAP3 SWAP2 POP POP JUMP JUMPDEST PUSH0 PUSH1 0x60 DUP3 ADD SWAP1 POP PUSH2 0x2B6E PUSH0 DUP4 ADD DUP7 PUSH2 0x2622 JUMP JUMPDEST PUSH2 0x2B7B PUSH1 0x20 DUP4 ADD DUP6 PUSH2 0x23D6 JUMP JUMPDEST PUSH2 0x2B88 PUSH1 0x40 DUP4 ADD DUP5 PUSH2 0x23D6 JUMP JUMPDEST SWAP5 SWAP4 POP POP POP POP JUMP JUMPDEST PUSH32 0x496E76616C6964207765656B206E756D62657200000000000000000000000000 PUSH0 DUP3 ADD MSTORE POP JUMP JUMPDEST PUSH0 PUSH2 0x2BC4 PUSH1 0x13 DUP4 PUSH2 0x2692 JUMP JUMPDEST SWAP2 POP PUSH2 0x2BCF DUP3 PUSH2 0x2B90 JUMP JUMPDEST PUSH1 0x20 DUP3 ADD SWAP1 POP SWAP2 SWAP1 POP JUMP JUMPDEST PUSH0 PUSH1 0x20 DUP3 ADD SWAP1 POP DUP2 DUP2 SUB PUSH0 DUP4 ADD MSTORE PUSH2 0x2BF1 DUP2 PUSH2 0x2BB8 JUMP JUMPDEST SWAP1 POP SWAP2 SWAP1 POP JUMP JUMPDEST PUSH32 0x4D696E696D616C20626F72726F7720697320302E322045746800000000000000 PUSH0 DUP3 ADD MSTORE POP JUMP JUMPDEST PUSH0 PUSH2 0x2C2C PUSH1 0x19 DUP4 PUSH2 0x2692 JUMP JUMPDEST SWAP2 POP PUSH2 0x2C37 DUP3 PUSH2 0x2BF8 JUMP JUMPDEST PUSH1 0x20 DUP3 ADD SWAP1 POP SWAP2 SWAP1 POP JUMP JUMPDEST PUSH0 PUSH1 0x20 DUP3 ADD SWAP1 POP DUP2 DUP2 SUB PUSH0 DUP4 ADD MSTORE PUSH2 0x2C59 DUP2 PUSH2 0x2C20 JUMP JUMPDEST SWAP1 POP SWAP2 SWAP1 POP JUMP JUMPDEST PUSH0 DUP2 MLOAD SWAP1 POP PUSH2 0x2C6E DUP2 PUSH2 0x2487 JUMP JUMPDEST SWAP3 SWAP2 POP POP JUMP JUMPDEST PUSH0 PUSH1 0x20 DUP3 DUP5 SUB SLT ISZERO PUSH2 0x2C89 JUMPI PUSH2 0x2C88 PUSH2 0x23FE JUMP JUMPDEST JUMPDEST PUSH0 PUSH2 0x2C96 DUP5 DUP3 DUP6 ADD PUSH2 0x2C60 JUMP JUMPDEST SWAP2 POP POP SWAP3 SWAP2 POP POP JUMP JUMPDEST PUSH0 PUSH2 0x2CA9 DUP3 PUSH2 0x25F1 JUMP JUMPDEST SWAP2 POP PUSH32 0x7FFFFFFFFFFFFFFFFFFFFFFFFFFFFFFFFFFFFFFFFFFFFFFFFFFFFFFFFFFFFFFF DUP3 SUB PUSH2 0x2CDB JUMPI PUSH2 0x2CDA PUSH2 0x28AD JUMP JUMPDEST JUMPDEST PUSH1 0x1 DUP3 ADD SWAP1 POP SWAP2 SWAP1 POP JUMP JUMPDEST PUSH0 PUSH2 0x2CF0 DUP3 PUSH2 0x23CD JUMP JUMPDEST SWAP2 POP PUSH2 0x2CFB DUP4 PUSH2 0x23CD JUMP JUMPDEST SWAP3 POP DUP3 DUP3 MUL PUSH2 0x2D09 DUP2 PUSH2 0x23CD JUMP JUMPDEST SWAP2 POP DUP3 DUP3 DIV DUP5 EQ DUP4 ISZERO OR PUSH2 0x2D20 JUMPI PUSH2 0x2D1F PUSH2 0x28AD JUMP JUMPDEST JUMPDEST POP SWAP3 SWAP2 POP POP JUMP JUMPDEST PUSH0 PUSH2 0x2D31 DUP3 PUSH2 0x23CD JUMP JUMPDEST SWAP2 POP PUSH2 0x2D3C DUP4 PUSH2 0x23CD JUMP JUMPDEST SWAP3 POP DUP3 DUP3 ADD SWAP1 POP DUP1 DUP3 GT ISZERO PUSH2 0x2D54 JUMPI PUSH2 0x2D53 PUSH2 0x28AD JUMP JUMPDEST JUMPDEST SWAP3 SWAP2 POP POP JUMP JUMPDEST PUSH32 0x4E487B7100000000000000000000000000000000000000000000000000000000 PUSH0 MSTORE PUSH1 0x12 PUSH1 0x4 MSTORE PUSH1 0x24 PUSH0 REVERT JUMPDEST PUSH0 PUSH2 0x2D91 DUP3 PUSH2 0x23CD JUMP JUMPDEST SWAP2 POP PUSH2 0x2D9C DUP4 PUSH2 0x23CD JUMP JUMPDEST SWAP3 POP DUP3 PUSH2 0x2DAC JUMPI PUSH2 0x2DAB PUSH2 0x2D5A JUMP JUMPDEST JUMPDEST DUP3 DUP3 DIV SWAP1 POP SWAP3 SWAP2 POP POP JUMP JUMPDEST PUSH32 0x4E487B7100000000000000000000000000000000000000000000000000000000 PUSH0 MSTORE PUSH1 0x41 PUSH1 0x4 MSTORE PUSH1 0x24 PUSH0 REVERT JUMPDEST PUSH32 0x4E487B7100000000000000000000000000000000000000000000000000000000 PUSH0 MSTORE PUSH1 0x22 PUSH1 0x4 MSTORE PUSH1 0x24 PUSH0 REVERT JUMPDEST PUSH0 PUSH1 0x2 DUP3 DIV SWAP1 POP PUSH1 0x1 DUP3 AND DUP1 PUSH2 0x2E28 JUMPI PUSH1 0x7F DUP3 AND SWAP2 POP JUMPDEST PUSH1 0x20 DUP3 LT DUP2 SUB PUSH2 0x2E3B JUMPI PUSH2 0x2E3A PUSH2 0x2DE4 JUMP JUMPDEST JUMPDEST POP SWAP2 SWAP1 POP JUMP JUMPDEST PUSH0 DUP2 SWAP1 POP DUP2 PUSH0 MSTORE PUSH1 0x20 PUSH0 KECCAK256 SWAP1 POP SWAP2 SWAP1 POP JUMP JUMPDEST PUSH0 PUSH1 0x20 PUSH1 0x1F DUP4 ADD DIV SWAP1 POP SWAP2 SWAP1 POP JUMP JUMPDEST PUSH0 DUP3 DUP3 SHL SWAP1 POP SWAP3 SWAP2 POP POP JUMP JUMPDEST PUSH0 PUSH1 0x8 DUP4 MUL PUSH2 0x2E9D PUSH32 0xFFFFFFFFFFFFFFFFFFFFFFFFFFFFFFFFFFFFFFFFFFFFFFFFFFFFFFFFFFFFFFFF DUP3 PUSH2 0x2E62 JUMP JUMPDEST PUSH2 0x2EA7 DUP7 DUP4 PUSH2 0x2E62 JUMP JUMPDEST SWAP6 POP DUP1 NOT DUP5 AND SWAP4 POP DUP1 DUP7 AND DUP5 OR SWAP3 POP POP POP SWAP4 SWAP3 POP POP POP JUMP JUMPDEST PUSH0 DUP2 SWAP1 POP SWAP2 SWAP1 POP JUMP JUMPDEST PUSH0 PUSH2 0x2EE2 PUSH2 0x2EDD PUSH2 0x2ED8 DUP5 PUSH2 0x23CD JUMP JUMPDEST PUSH2 0x2EBF JUMP JUMPDEST PUSH2 0x23CD JUMP JUMPDEST SWAP1 POP SWAP2 SWAP1 POP JUMP JUMPDEST PUSH0 DUP2 SWAP1 POP SWAP2 SWAP1 POP JUMP JUMPDEST PUSH2 0x2EFB DUP4 PUSH2 0x2EC8 JUMP JUMPDEST PUSH2 0x2F0F PUSH2 0x2F07 DUP3 PUSH2 0x2EE9 JUMP JUMPDEST DUP5 DUP5 SLOAD PUSH2 0x2E6E JUMP JUMPDEST DUP3 SSTORE POP POP POP POP JUMP JUMPDEST PUSH0 PUSH0 SWAP1 POP SWAP1 JUMP JUMPDEST PUSH2 0x2F26 PUSH2 0x2F17 JUMP JUMPDEST PUSH2 0x2F31 DUP2 DUP5 DUP5 PUSH2 0x2EF2 JUMP JUMPDEST POP POP POP JUMP JUMPDEST JUMPDEST DUP2 DUP2 LT ISZERO PUSH2 0x2F54 JUMPI PUSH2 0x2F49 PUSH0 DUP3 PUSH2 0x2F1E JUMP JUMPDEST PUSH1 0x1 DUP2 ADD SWAP1 POP PUSH2 0x2F37 JUMP JUMPDEST POP POP JUMP JUMPDEST PUSH1 0x1F DUP3 GT ISZERO PUSH2 0x2F99 JUMPI PUSH2 0x2F6A DUP2 PUSH2 0x2E41 JUMP JUMPDEST PUSH2 0x2F73 DUP5 PUSH2 0x2E53 JUMP JUMPDEST DUP2 ADD PUSH1 0x20 DUP6 LT ISZERO PUSH2 0x2F82 JUMPI DUP2 SWAP1 POP JUMPDEST PUSH2 0x2F96 PUSH2 0x2F8E DUP6 PUSH2 0x2E53 JUMP JUMPDEST DUP4 ADD DUP3 PUSH2 0x2F36 JUMP JUMPDEST POP POP JUMPDEST POP POP POP JUMP JUMPDEST PUSH0 DUP3 DUP3 SHR SWAP1 POP SWAP3 SWAP2 POP POP JUMP JUMPDEST PUSH0 PUSH2 0x2FB9 PUSH0 NOT DUP5 PUSH1 0x8 MUL PUSH2 0x2F9E JUMP JUMPDEST NOT DUP1 DUP4 AND SWAP2 POP POP SWAP3 SWAP2 POP POP JUMP JUMPDEST PUSH0 PUSH2 0x2FD1 DUP4 DUP4 PUSH2 0x2FAA JUMP JUMPDEST SWAP2 POP DUP3 PUSH1 0x2 MUL DUP3 OR SWAP1 POP SWAP3 SWAP2 POP POP JUMP JUMPDEST PUSH2 0x2FEA DUP3 PUSH2 0x2688 JUMP JUMPDEST PUSH8 0xFFFFFFFFFFFFFFFF DUP2 GT ISZERO PUSH2 0x3003 JUMPI PUSH2 0x3002 PUSH2 0x2DB7 JUMP JUMPDEST JUMPDEST PUSH2 0x300D DUP3 SLOAD PUSH2 0x2E11 JUMP JUMPDEST PUSH2 0x3018 DUP3 DUP3 DUP6 PUSH2 0x2F58 JUMP JUMPDEST PUSH0 PUSH1 0x20 SWAP1 POP PUSH1 0x1F DUP4 GT PUSH1 0x1 DUP2 EQ PUSH2 0x3049 JUMPI PUSH0 DUP5 ISZERO PUSH2 0x3037 JUMPI DUP3 DUP8 ADD MLOAD SWAP1 POP JUMPDEST PUSH2 0x3041 DUP6 DUP3 PUSH2 0x2FC6 JUMP JUMPDEST DUP7 SSTORE POP PUSH2 0x30A8 JUMP JUMPDEST PUSH1 0x1F NOT DUP5 AND PUSH2 0x3057 DUP7 PUSH2 0x2E41 JUMP JUMPDEST PUSH0 JUMPDEST DUP3 DUP2 LT ISZERO PUSH2 0x307E JUMPI DUP5 DUP10 ADD MLOAD DUP3 SSTORE PUSH1 0x1 DUP3 ADD SWAP2 POP PUSH1 0x20 DUP6 ADD SWAP5 POP PUSH1 0x20 DUP2 ADD SWAP1 POP PUSH2 0x3059 JUMP JUMPDEST DUP7 DUP4 LT ISZERO PUSH2 0x309B JUMPI DUP5 DUP10 ADD MLOAD PUSH2 0x3097 PUSH1 0x1F DUP10 AND DUP3 PUSH2 0x2FAA JUMP JUMPDEST DUP4 SSTORE POP JUMPDEST PUSH1 0x1 PUSH1 0x2 DUP9 MUL ADD DUP9 SSTORE POP POP POP JUMPDEST POP POP POP POP POP POP JUMP JUMPDEST PUSH32 0x4D696E696D616C206C656E6420697320302E3120457468000000000000000000 PUSH0 DUP3 ADD MSTORE POP JUMP JUMPDEST PUSH0 PUSH2 0x30E4 PUSH1 0x17 DUP4 PUSH2 0x2692 JUMP JUMPDEST SWAP2 POP PUSH2 0x30EF DUP3 PUSH2 0x30B0 JUMP JUMPDEST PUSH1 0x20 DUP3 ADD SWAP1 POP SWAP2 SWAP1 POP JUMP JUMPDEST PUSH0 PUSH1 0x20 DUP3 ADD SWAP1 POP DUP2 DUP2 SUB PUSH0 DUP4 ADD MSTORE PUSH2 0x3111 DUP2 PUSH2 0x30D8 JUMP JUMPDEST SWAP1 POP SWAP2 SWAP1 POP JUMP JUMPDEST PUSH0 DUP2 SWAP1 POP DUP2 PUSH0 MSTORE PUSH1 0x20 PUSH0 KECCAK256 SWAP1 POP SWAP2 SWAP1 POP JUMP JUMPDEST PUSH0 DUP2 SLOAD PUSH2 0x3136 DUP2 PUSH2 0x2E11 JUMP JUMPDEST PUSH2 0x3140 DUP2 DUP7 PUSH2 0x2921 JUMP JUMPDEST SWAP5 POP PUSH1 0x1 DUP3 AND PUSH0 DUP2 EQ PUSH2 0x315A JUMPI PUSH1 0x1 DUP2 EQ PUSH2 0x316F JUMPI PUSH2 0x31A1 JUMP JUMPDEST PUSH1 0xFF NOT DUP4 AND DUP7 MSTORE DUP2 ISZERO ISZERO DUP3 MUL DUP7 ADD SWAP4 POP PUSH2 0x31A1 JUMP JUMPDEST PUSH2 0x3178 DUP6 PUSH2 0x3118 JUMP JUMPDEST PUSH0 JUMPDEST DUP4 DUP2 LT ISZERO PUSH2 0x3199 JUMPI DUP2 SLOAD DUP2 DUP10 ADD MSTORE PUSH1 0x1 DUP3 ADD SWAP2 POP PUSH1 0x20 DUP2 ADD SWAP1 POP PUSH2 0x317A JUMP JUMPDEST DUP4 DUP9 ADD SWAP6 POP POP POP JUMPDEST POP POP POP SWAP3 SWAP2 POP POP JUMP JUMPDEST PUSH0 PUSH2 0x31B5 DUP3 DUP5 PUSH2 0x312A JUMP JUMPDEST SWAP2 POP DUP2 SWAP1 POP SWAP3 SWAP2 POP POP JUMP JUMPDEST PUSH32 0x426F72726F772073656C6563746564206E6F7420616374697665000000000000 PUSH0 DUP3 ADD MSTORE POP JUMP JUMPDEST PUSH0 PUSH2 0x31F4 PUSH1 0x1A DUP4 PUSH2 0x2692 JUMP JUMPDEST SWAP2 POP PUSH2 0x31FF DUP3 PUSH2 0x31C0 JUMP JUMPDEST PUSH1 0x20 DUP3 ADD SWAP1 POP SWAP2 SWAP1 POP JUMP JUMPDEST PUSH0 PUSH1 0x20 DUP3 ADD SWAP1 POP DUP2 DUP2 SUB PUSH0 DUP4 ADD MSTORE PUSH2 0x3221 DUP2 PUSH2 0x31E8 JUMP JUMPDEST SWAP1 POP SWAP2 SWAP1 POP JUMP JUMPDEST PUSH32 0x52657061796D656E74206D757374206265206D6F7265207468616E2030000000 PUSH0 DUP3 ADD MSTORE POP JUMP JUMPDEST PUSH0 PUSH2 0x325C PUSH1 0x1D DUP4 PUSH2 0x2692 JUMP JUMPDEST SWAP2 POP PUSH2 0x3267 DUP3 PUSH2 0x3228 JUMP JUMPDEST PUSH1 0x20 DUP3 ADD SWAP1 POP SWAP2 SWAP1 POP JUMP JUMPDEST PUSH0 PUSH1 0x20 DUP3 ADD SWAP1 POP DUP2 DUP2 SUB PUSH0 DUP4 ADD MSTORE PUSH2 0x3289 DUP2 PUSH2 0x3250 JUMP JUMPDEST SWAP1 POP SWAP2 SWAP1 POP JUMP JUMPDEST PUSH32 0x496E76616C696420626F72726F7720696E646578000000000000000000000000 PUSH0 DUP3 ADD MSTORE POP JUMP JUMPDEST PUSH0 PUSH2 0x32C4 PUSH1 0x14 DUP4 PUSH2 0x2692 JUMP JUMPDEST SWAP2 POP PUSH2 0x32CF DUP3 PUSH2 0x3290 JUMP JUMPDEST PUSH1 0x20 DUP3 ADD SWAP1 POP SWAP2 SWAP1 POP JUMP JUMPDEST PUSH0 PUSH1 0x20 DUP3 ADD SWAP1 POP DUP2 DUP2 SUB PUSH0 DUP4 ADD MSTORE PUSH2 0x32F1 DUP2 PUSH2 0x32B8 JUMP JUMPDEST SWAP1 POP SWAP2 SWAP1 POP JUMP JUMPDEST PUSH32 0x5061796D656E74206973206C6F776572207468616E2074686520616D6F756E74 PUSH0 DUP3 ADD MSTORE PUSH32 0x2072657175657374656400000000000000000000000000000000000000000000 PUSH1 0x20 DUP3 ADD MSTORE POP JUMP JUMPDEST PUSH0 PUSH2 0x3352 PUSH1 0x2A DUP4 PUSH2 0x2692 JUMP JUMPDEST SWAP2 POP PUSH2 0x335D DUP3 PUSH2 0x32F8 JUMP JUMPDEST PUSH1 0x40 DUP3 ADD SWAP1 POP SWAP2 SWAP1 POP JUMP JUMPDEST PUSH0 PUSH1 0x20 DUP3 ADD SWAP1 POP DUP2 DUP2 SUB PUSH0 DUP4 ADD MSTORE PUSH2 0x337F DUP2 PUSH2 0x3346 JUMP JUMPDEST SWAP1 POP SWAP2 SWAP1 POP JUMP JUMPDEST PUSH0 PUSH1 0x80 DUP3 ADD SWAP1 POP PUSH2 0x3399 PUSH0 DUP4 ADD DUP8 PUSH2 0x2622 JUMP JUMPDEST PUSH2 0x33A6 PUSH1 0x20 DUP4 ADD DUP7 PUSH2 0x23D6 JUMP JUMPDEST PUSH2 0x33B3 PUSH1 0x40 DUP4 ADD DUP6 PUSH2 0x23D6 JUMP JUMPDEST PUSH2 0x33C0 PUSH1 0x60 DUP4 ADD DUP5 PUSH2 0x23D6 JUMP JUMPDEST SWAP6 SWAP5 POP POP POP POP POP JUMP INVALID LOG2 PUSH5 0x6970667358 0x22 SLT KECCAK256 0xBD DATALOADN 0xFBD4 0xC7 PUSH19 0xEBE952E40F5F1A7703A9813C12390BB44621AB NUMBER BLOCKHASH PUSH15 0x22AB09F164736F6C634300081E0033 "
				},
				"gasEstimates": {
					"creation": {
						"codeDepositCost": "2662200",
						"executionCost": "71359",
						"totalCost": "2733559"
					},
					"external": {
						"Borrower(address,uint256)": "infinite",
						"Lender(address,uint256)": "infinite",
						"borrowCount(address)": "2825",
						"borrowersCounter()": "2491",
						"getContractBalance()": "445",
						"getUserBorrowerList()": "infinite",
						"getUserLendersList()": "infinite",
						"interestMatured(address)": "2870",
						"lend()": "infinite",
						"lendAPY()": "2514",
						"lendersCounter()": "2536",
						"netPosition(address)": "2846",
						"openBorrow(uint256,uint256)": "infinite",
						"owner()": "2552",
						"payBorrow(uint256)": "infinite",
						"penalty()": "2471",
						"updateInterestMatured()": "infinite",
						"withdraw(uint256)": "infinite",
						"withdrawInterest()": "infinite"
					},
					"internal": {
						"calculatePenalty(uint256)": "infinite",
						"checkCategoryRegistration(address[] storage pointer,address[] storage pointer)": "infinite"
					}
				},
				"methodIdentifiers": {
					"Borrower(address,uint256)": "99c8fbf6",
					"Lender(address,uint256)": "ff6d4f73",
					"borrowCount(address)": "71604909",
					"borrowersCounter()": "ddd899a1",
					"getContractBalance()": "6f9fb98a",
					"getUserBorrowerList()": "3e86e213",
					"getUserLendersList()": "d6020811",
					"interestMatured(address)": "26a39c07",
					"lend()": "97dffc61",
					"lendAPY()": "65ad976e",
					"lendersCounter()": "cb50bb74",
					"netPosition(address)": "dce8e848",
					"openBorrow(uint256,uint256)": "33d5281f",
					"owner()": "8da5cb5b",
					"payBorrow(uint256)": "f5d1b7e8",
					"penalty()": "0edd2ffc",
					"updateInterestMatured()": "392f6356",
					"withdraw(uint256)": "2e1a7d4d",
					"withdrawInterest()": "0063750c"
				}
			},
			"storageLayout": {
				"storage": [
					{
						"astId": 170,
						"contract": "LoadManager.sol:LoanManager",
						"label": "owner",
						"offset": 0,
						"slot": "0",
						"type": "t_address"
					},
					{
						"astId": 173,
						"contract": "LoadManager.sol:LoanManager",
						"label": "userAddressList",
						"offset": 0,
						"slot": "1",
						"type": "t_array(t_address)dyn_storage"
					},
					{
						"astId": 176,
						"contract": "LoadManager.sol:LoanManager",
						"label": "userBorrowersList",
						"offset": 0,
						"slot": "2",
						"type": "t_array(t_address)dyn_storage"
					},
					{
						"astId": 179,
						"contract": "LoadManager.sol:LoanManager",
						"label": "userLendersList",
						"offset": 0,
						"slot": "3",
						"type": "t_array(t_address)dyn_storage"
					},
					{
						"astId": 181,
						"contract": "LoadManager.sol:LoanManager",
						"label": "borrowersCounter",
						"offset": 0,
						"slot": "4",
						"type": "t_uint256"
					},
					{
						"astId": 183,
						"contract": "LoadManager.sol:LoanManager",
						"label": "lendersCounter",
						"offset": 0,
						"slot": "5",
						"type": "t_uint256"
					},
					{
						"astId": 186,
						"contract": "LoadManager.sol:LoanManager",
						"label": "lendAPY",
						"offset": 0,
						"slot": "6",
						"type": "t_uint256"
					},
					{
						"astId": 189,
						"contract": "LoadManager.sol:LoanManager",
						"label": "penalty",
						"offset": 0,
						"slot": "7",
						"type": "t_uint256"
					},
					{
						"astId": 191,
						"contract": "LoadManager.sol:LoanManager",
						"label": "locked",
						"offset": 0,
						"slot": "8",
						"type": "t_bool"
					},
					{
						"astId": 209,
						"contract": "LoadManager.sol:LoanManager",
						"label": "Borrower",
						"offset": 0,
						"slot": "9",
						"type": "t_mapping(t_address,t_array(t_struct(borrowInfo)25_storage)dyn_storage)"
					},
					{
						"astId": 213,
						"contract": "LoadManager.sol:LoanManager",
						"label": "borrowCount",
						"offset": 0,
						"slot": "10",
						"type": "t_mapping(t_address,t_int256)"
					},
					{
						"astId": 219,
						"contract": "LoadManager.sol:LoanManager",
						"label": "Lender",
						"offset": 0,
						"slot": "11",
						"type": "t_mapping(t_address,t_array(t_struct(lendInfo)8_storage)dyn_storage)"
					},
					{
						"astId": 223,
						"contract": "LoadManager.sol:LoanManager",
						"label": "interestMatured",
						"offset": 0,
						"slot": "12",
						"type": "t_mapping(t_address,t_uint256)"
					},
					{
						"astId": 227,
						"contract": "LoadManager.sol:LoanManager",
						"label": "netPosition",
						"offset": 0,
						"slot": "13",
						"type": "t_mapping(t_address,t_uint256)"
					}
				],
				"types": {
					"t_address": {
						"encoding": "inplace",
						"label": "address",
						"numberOfBytes": "20"
					},
					"t_array(t_address)dyn_storage": {
						"base": "t_address",
						"encoding": "dynamic_array",
						"label": "address[]",
						"numberOfBytes": "32"
					},
					"t_array(t_struct(borrowInfo)25_storage)dyn_storage": {
						"base": "t_struct(borrowInfo)25_storage",
						"encoding": "dynamic_array",
						"label": "struct borrowInfo[]",
						"numberOfBytes": "32"
					},
					"t_array(t_struct(lendInfo)8_storage)dyn_storage": {
						"base": "t_struct(lendInfo)8_storage",
						"encoding": "dynamic_array",
						"label": "struct lendInfo[]",
						"numberOfBytes": "32"
					},
					"t_bool": {
						"encoding": "inplace",
						"label": "bool",
						"numberOfBytes": "1"
					},
					"t_int256": {
						"encoding": "inplace",
						"label": "int256",
						"numberOfBytes": "32"
					},
					"t_mapping(t_address,t_array(t_struct(borrowInfo)25_storage)dyn_storage)": {
						"encoding": "mapping",
						"key": "t_address",
						"label": "mapping(address => struct borrowInfo[])",
						"numberOfBytes": "32",
						"value": "t_array(t_struct(borrowInfo)25_storage)dyn_storage"
					},
					"t_mapping(t_address,t_array(t_struct(lendInfo)8_storage)dyn_storage)": {
						"encoding": "mapping",
						"key": "t_address",
						"label": "mapping(address => struct lendInfo[])",
						"numberOfBytes": "32",
						"value": "t_array(t_struct(lendInfo)8_storage)dyn_storage"
					},
					"t_mapping(t_address,t_int256)": {
						"encoding": "mapping",
						"key": "t_address",
						"label": "mapping(address => int256)",
						"numberOfBytes": "32",
						"value": "t_int256"
					},
					"t_mapping(t_address,t_uint256)": {
						"encoding": "mapping",
						"key": "t_address",
						"label": "mapping(address => uint256)",
						"numberOfBytes": "32",
						"value": "t_uint256"
					},
					"t_string_storage": {
						"encoding": "bytes",
						"label": "string",
						"numberOfBytes": "32"
					},
					"t_struct(borrowInfo)25_storage": {
						"encoding": "inplace",
						"label": "struct borrowInfo",
						"members": [
							{
								"astId": 10,
								"contract": "LoadManager.sol:LoanManager",
								"label": "startDate",
								"offset": 0,
								"slot": "0",
								"type": "t_uint256"
							},
							{
								"astId": 12,
								"contract": "LoadManager.sol:LoanManager",
								"label": "endDate",
								"offset": 0,
								"slot": "1",
								"type": "t_uint256"
							},
							{
								"astId": 14,
								"contract": "LoadManager.sol:LoanManager",
								"label": "borrowId",
								"offset": 0,
								"slot": "2",
								"type": "t_uint256"
							},
							{
								"astId": 16,
								"contract": "LoadManager.sol:LoanManager",
								"label": "state",
								"offset": 0,
								"slot": "3",
								"type": "t_string_storage"
							},
							{
								"astId": 18,
								"contract": "LoadManager.sol:LoanManager",
								"label": "dueDate",
								"offset": 0,
								"slot": "4",
								"type": "t_uint256"
							},
							{
								"astId": 20,
								"contract": "LoadManager.sol:LoanManager",
								"label": "APY",
								"offset": 0,
								"slot": "5",
								"type": "t_uint256"
							},
							{
								"astId": 22,
								"contract": "LoadManager.sol:LoanManager",
								"label": "borrowAmount",
								"offset": 0,
								"slot": "6",
								"type": "t_uint256"
							},
							{
								"astId": 24,
								"contract": "LoadManager.sol:LoanManager",
								"label": "paybackAmount",
								"offset": 0,
								"slot": "7",
								"type": "t_uint256"
							}
						],
						"numberOfBytes": "256"
					},
					"t_struct(lendInfo)8_storage": {
						"encoding": "inplace",
						"label": "struct lendInfo",
						"members": [
							{
								"astId": 3,
								"contract": "LoadManager.sol:LoanManager",
								"label": "lendId",
								"offset": 0,
								"slot": "0",
								"type": "t_uint256"
							},
							{
								"astId": 5,
								"contract": "LoadManager.sol:LoanManager",
								"label": "depositTime",
								"offset": 0,
								"slot": "1",
								"type": "t_uint256"
							},
							{
								"astId": 7,
								"contract": "LoadManager.sol:LoanManager",
								"label": "amount",
								"offset": 0,
								"slot": "2",
								"type": "t_uint256"
							}
						],
						"numberOfBytes": "96"
					},
					"t_uint256": {
						"encoding": "inplace",
						"label": "uint256",
						"numberOfBytes": "32"
					}
				}
			},
			"userdoc": {
				"kind": "user",
				"methods": {},
				"version": 1
			}
		}
	}
}