{
	"data": {
		"bytecode": {
			"linkReferences": {},
			"object": "6080604052600360065560196007553480156018575f5ffd5b50335f5f6101000a81548173ffffffffffffffffffffffffffffffffffffffff021916908373ffffffffffffffffffffffffffffffffffffffff160217905550613421806100655f395ff3fe608060405260043610610112575f3560e01c8063716049091161009f578063d602081111610063578063d60208111461035b578063dce8e84814610385578063ddd899a1146103c1578063f5d1b7e8146103eb578063ff6d4f731461040757610112565b8063716049091461027e5780638da5cb5b146102ba57806397dffc61146102e457806399c8fbf6146102ee578063cb50bb741461033157610112565b806333d5281f116100e657806333d5281f146101ba578063392f6356146101d65780633e86e2131461020057806365ad976e1461022a5780636f9fb98a1461025457610112565b806263750c146101165780630edd2ffc1461012c57806326a39c07146101565780632e1a7d4d14610192575b5f5ffd5b348015610121575f5ffd5b5061012a610445565b005b348015610137575f5ffd5b50610140610684565b60405161014d9190612407565b60405180910390f35b348015610161575f5ffd5b5061017c6004803603810190610177919061247e565b61068a565b6040516101899190612407565b60405180910390f35b34801561019d575f5ffd5b506101b860048036038101906101b391906124d3565b61069f565b005b6101d460048036038101906101cf91906124fe565b610c18565b005b3480156101e1575f5ffd5b506101ea611137565b6040516101f79190612407565b60405180910390f35b34801561020b575f5ffd5b506102146111d9565b60405161022191906125f3565b60405180910390f35b348015610235575f5ffd5b5061023e611264565b60405161024b9190612407565b60405180910390f35b34801561025f575f5ffd5b5061026861126a565b6040516102759190612407565b60405180910390f35b348015610289575f5ffd5b506102a4600480360381019061029f919061247e565b611271565b6040516102b1919061262b565b60405180910390f35b3480156102c5575f5ffd5b506102ce611286565b6040516102db9190612653565b60405180910390f35b6102ec6112aa565b005b3480156102f9575f5ffd5b50610314600480360381019061030f919061266c565b611484565b60405161032898979695949392919061271a565b60405180910390f35b34801561033c575f5ffd5b50610345611568565b6040516103529190612407565b60405180910390f35b348015610366575f5ffd5b5061036f61156e565b60405161037c91906125f3565b60405180910390f35b348015610390575f5ffd5b506103ab60048036038101906103a6919061247e565b6115f9565b6040516103b89190612407565b60405180910390f35b3480156103cc575f5ffd5b506103d561160e565b6040516103e29190612407565b60405180910390f35b610405600480360381019061040091906124d3565b611614565b005b348015610412575f5ffd5b5061042d6004803603810190610428919061266c565b611ea7565b60405161043c9392919061279d565b60405180910390f35b60085f9054906101000a900460ff1615610494576040517f08c379a000000000000000000000000000000000000000000000000000000000815260040161048b9061281c565b60405180910390fd5b600160085f6101000a81548160ff0219169083151502179055505f6104b7611137565b90505f81116104fb576040517f08c379a00000000000000000000000000000000000000000000000000000000081526004016104f290612884565b60405180910390fd5b5f3373ffffffffffffffffffffffffffffffffffffffff1682604051610520906128cf565b5f6040518083038185875af1925050503d805f811461055a576040519150601f19603f3d011682016040523d82523d5f602084013e61055f565b606091505b50509050806105a3576040517f08c379a000000000000000000000000000000000000000000000000000000000815260040161059a9061292d565b60405180910390fd5b5f5f90505b80600b5f3373ffffffffffffffffffffffffffffffffffffffff1673ffffffffffffffffffffffffffffffffffffffff1681526020019081526020015f208054905011156106665742600b5f3373ffffffffffffffffffffffffffffffffffffffff1673ffffffffffffffffffffffffffffffffffffffff1681526020019081526020015f2082815481106106405761063f61294b565b5b905f5260205f20906003020160010181905550808061065e906129a5565b9150506105a8565b5050505f60085f6101000a81548160ff021916908315150217905550565b60075481565b600c602052805f5260405f205f915090505481565b8080600d5f3373ffffffffffffffffffffffffffffffffffffffff1673ffffffffffffffffffffffffffffffffffffffff1681526020019081526020015f20541015610720576040517f08c379a000000000000000000000000000000000000000000000000000000000815260040161071790612a36565b60405180910390fd5b60085f9054906101000a900460ff161561076f576040517f08c379a00000000000000000000000000000000000000000000000000000000081526004016107669061281c565b60405180910390fd5b600160085f6101000a81548160ff0219169083151502179055505f82116107cb576040517f08c379a00000000000000000000000000000000000000000000000000000000081526004016107c290612a9e565b60405180910390fd5b81600d5f3373ffffffffffffffffffffffffffffffffffffffff1673ffffffffffffffffffffffffffffffffffffffff1681526020019081526020015f2054101561084b576040517f08c379a000000000000000000000000000000000000000000000000000000000815260040161084290612b2c565b60405180910390fd5b5f8290505f5f90505b600b5f3373ffffffffffffffffffffffffffffffffffffffff1673ffffffffffffffffffffffffffffffffffffffff1681526020019081526020015f2080549050811015610ac257600b5f3373ffffffffffffffffffffffffffffffffffffffff1673ffffffffffffffffffffffffffffffffffffffff1681526020019081526020015f2081815481106108eb576108ea61294b565b5b905f5260205f209060030201600201548411156109d657600b5f3373ffffffffffffffffffffffffffffffffffffffff1673ffffffffffffffffffffffffffffffffffffffff1681526020019081526020015f2081815481106109515761095061294b565b5b905f5260205f209060030201600201548461096c9190612b4a565b93505f600b5f3373ffffffffffffffffffffffffffffffffffffffff1673ffffffffffffffffffffffffffffffffffffffff1681526020019081526020015f2082815481106109be576109bd61294b565b5b905f5260205f20906003020160020181905550610ab5565b83600b5f3373ffffffffffffffffffffffffffffffffffffffff1673ffffffffffffffffffffffffffffffffffffffff1681526020019081526020015f208281548110610a2657610a2561294b565b5b905f5260205f2090600302016002015410610ab45783600b5f3373ffffffffffffffffffffffffffffffffffffffff1673ffffffffffffffffffffffffffffffffffffffff1681526020019081526020015f208281548110610a8b57610a8a61294b565b5b905f5260205f2090600302016002015f828254610aa89190612b4a565b92505081905550610ac2565b5b8080600101915050610854565b5080600d5f3373ffffffffffffffffffffffffffffffffffffffff1673ffffffffffffffffffffffffffffffffffffffff1681526020019081526020015f205f828254610b0f9190612b4a565b925050819055505f3373ffffffffffffffffffffffffffffffffffffffff1682604051610b3b906128cf565b5f6040518083038185875af1925050503d805f8114610b75576040519150601f19603f3d011682016040523d82523d5f602084013e610b7a565b606091505b5050905080610bbe576040517f08c379a0000000000000000000000000000000000000000000000000000000008152600401610bb59061292d565b60405180910390fd5b7f4061a3c2fb8ed4fa13eb41ac8af4b4b8f67955285ea176d176be39483c38136a338342604051610bf193929190612b7d565b60405180910390a150505f60085f6101000a81548160ff0219169083151502179055505050565b81610104811115610c5e576040517f08c379a0000000000000000000000000000000000000000000000000000000008152600401610c5590612bfc565b60405180910390fd5b816702c68af0bb1400008111610ca9576040517f08c379a0000000000000000000000000000000000000000000000000000000008152600401610ca090612c64565b60405180910390fd5b82803073ffffffffffffffffffffffffffffffffffffffff16636f9fb98a6040518163ffffffff1660e01b8152600401602060405180830381865afa158015610cf4573d5f5f3e3d5ffd5b505050506040513d601f19601f82011682018060405250810190610d189190612c96565b1015610d22575f5ffd5b60085f9054906101000a900460ff1615610d71576040517f08c379a0000000000000000000000000000000000000000000000000000000008152600401610d689061281c565b60405180910390fd5b600160085f6101000a81548160ff021916908315150217905550600a5f3373ffffffffffffffffffffffffffffffffffffffff1673ffffffffffffffffffffffffffffffffffffffff1681526020019081526020015f205f815480929190610dd890612cc1565b919050555083600d5f3373ffffffffffffffffffffffffffffffffffffffff1673ffffffffffffffffffffffffffffffffffffffff1681526020019081526020015f205f828254610e299190612b4a565b925050819055505f62093a8086610e409190612d08565b42610e4b9190612d49565b90505f6018871015610e605760079050610ea7565b60188710158015610e715750606887105b15610e7f5760069050610ea6565b60688710158015610e9257506101048711155b15610ea05760059050610ea5565b600490505b5b5b5f611450888389610eb89190612d08565b610ec29190612d08565b610ecc9190612da9565b87610ed79190612d49565b905060095f3373ffffffffffffffffffffffffffffffffffffffff1673ffffffffffffffffffffffffffffffffffffffff1681526020019081526020015f206040518061010001604052804281526020015f8152602001600160095f3373ffffffffffffffffffffffffffffffffffffffff1673ffffffffffffffffffffffffffffffffffffffff1681526020019081526020015f2080549050610f7b9190612d49565b81526020016040518060400160405280600681526020017f4163746976650000000000000000000000000000000000000000000000000000815250815260200185815260200184815260200189815260200183815250908060018154018082558091505060019003905f5260205f2090600802015f909190919091505f820151815f0155602082015181600101556040820151816002015560608201518160030190816110289190613003565b506080820151816004015560a0820151816005015560c0820151816006015560e08201518160070155505061105f60026003611ee7565b6002805490506004819055505f3373ffffffffffffffffffffffffffffffffffffffff1688604051611090906128cf565b5f6040518083038185875af1925050503d805f81146110ca576040519150601f19603f3d011682016040523d82523d5f602084013e6110cf565b606091505b5050905080611113576040517f08c379a000000000000000000000000000000000000000000000000000000000815260040161110a9061292d565b60405180910390fd5b505050505f60085f6101000a81548160ff0219169083151502179055505050505050565b5f5f61115133600654600b6120fa9092919063ffffffff16565b905080600c5f3373ffffffffffffffffffffffffffffffffffffffff1673ffffffffffffffffffffffffffffffffffffffff1681526020019081526020015f2081905550600c5f3373ffffffffffffffffffffffffffffffffffffffff1673ffffffffffffffffffffffffffffffffffffffff1681526020019081526020015f205491505090565b6060600280548060200260200160405190810160405280929190818152602001828054801561125a57602002820191905f5260205f20905b815f9054906101000a900473ffffffffffffffffffffffffffffffffffffffff1673ffffffffffffffffffffffffffffffffffffffff1681526020019060010190808311611211575b5050505050905090565b60065481565b5f47905090565b600a602052805f5260405f205f915090505481565b5f5f9054906101000a900473ffffffffffffffffffffffffffffffffffffffff1681565b67016345785d8a000034116112f4576040517f08c379a00000000000000000000000000000000000000000000000000000000081526004016112eb9061311c565b60405180910390fd5b34600d5f3373ffffffffffffffffffffffffffffffffffffffff1673ffffffffffffffffffffffffffffffffffffffff1681526020019081526020015f205f8282546113409190612d49565b9250508190555061135360036002611ee7565b600380549050600581905550600b5f3373ffffffffffffffffffffffffffffffffffffffff1673ffffffffffffffffffffffffffffffffffffffff1681526020019081526020015f2060405180606001604052806001600b5f3373ffffffffffffffffffffffffffffffffffffffff1673ffffffffffffffffffffffffffffffffffffffff1681526020019081526020015f20805490506113f49190612d49565b815260200142815260200134815250908060018154018082558091505060019003905f5260205f2090600302015f909190919091505f820151815f0155602082015181600101556040820151816002015550507ff6285a60c92fd2767bc48a572b64940a62be26cb7c523e64bf3bd75a8206255933344260405161147a93929190612b7d565b60405180910390a1565b6009602052815f5260405f20818154811061149d575f80fd5b905f5260205f2090600802015f9150915050805f0154908060010154908060020154908060030180546114cf90612e33565b80601f01602080910402602001604051908101604052809291908181526020018280546114fb90612e33565b80156115465780601f1061151d57610100808354040283529160200191611546565b820191905f5260205f20905b81548152906001019060200180831161152957829003601f168201915b5050505050908060040154908060050154908060060154908060070154905088565b60055481565b606060038054806020026020016040519081016040528092919081815260200182805480156115ef57602002820191905f5260205f20905b815f9054906101000a900473ffffffffffffffffffffffffffffffffffffffff1673ffffffffffffffffffffffffffffffffffffffff16815260200190600101908083116115a6575b5050505050905090565b600d602052805f5260405f205f915090505481565b60045481565b60085f9054906101000a900460ff1615611663576040517f08c379a000000000000000000000000000000000000000000000000000000000815260040161165a9061281c565b60405180910390fd5b600160085f6101000a81548160ff0219169083151502179055506040518060400160405280600681526020017f41637469766500000000000000000000000000000000000000000000000000008152508051906020012060095f3373ffffffffffffffffffffffffffffffffffffffff1673ffffffffffffffffffffffffffffffffffffffff1681526020019081526020015f2082815481106117095761170861294b565b5b905f5260205f20906008020160030160405161172591906131cc565b60405180910390201461176d576040517f08c379a00000000000000000000000000000000000000000000000000000000081526004016117649061322c565b60405180910390fd5b5f34116117af576040517f08c379a00000000000000000000000000000000000000000000000000000000081526004016117a690613294565b60405180910390fd5b60095f3373ffffffffffffffffffffffffffffffffffffffff1673ffffffffffffffffffffffffffffffffffffffff1681526020019081526020015f20805490508110611831576040517f08c379a0000000000000000000000000000000000000000000000000000000008152600401611828906132fc565b60405180910390fd5b60095f3373ffffffffffffffffffffffffffffffffffffffff1673ffffffffffffffffffffffffffffffffffffffff1681526020019081526020015f2081815481106118805761187f61294b565b5b905f5260205f20906008020160040154421115611914576118a0816122bf565b60095f3373ffffffffffffffffffffffffffffffffffffffff1673ffffffffffffffffffffffffffffffffffffffff1681526020019081526020015f2082815481106118ef576118ee61294b565b5b905f5260205f2090600802016007015f82825461190c9190612d49565b925050819055505b60095f3373ffffffffffffffffffffffffffffffffffffffff1673ffffffffffffffffffffffffffffffffffffffff1681526020019081526020015f2081815481106119635761196261294b565b5b905f5260205f20906008020160070154341115611b95575f60095f3373ffffffffffffffffffffffffffffffffffffffff1673ffffffffffffffffffffffffffffffffffffffff1681526020019081526020015f2082815481106119ca576119c961294b565b5b905f5260205f20906008020160070154346119e59190612b4a565b905080346119f39190612b4a565b600d5f3373ffffffffffffffffffffffffffffffffffffffff1673ffffffffffffffffffffffffffffffffffffffff1681526020019081526020015f205f828254611a3e9190612d49565b925050819055506040518060400160405280600481526020017f506169640000000000000000000000000000000000000000000000000000000081525060095f3373ffffffffffffffffffffffffffffffffffffffff1673ffffffffffffffffffffffffffffffffffffffff1681526020019081526020015f208381548110611aca57611ac961294b565b5b905f5260205f2090600802016003019081611ae59190613003565b505f3373ffffffffffffffffffffffffffffffffffffffff1682604051611b0b906128cf565b5f6040518083038185875af1925050503d805f8114611b45576040519150601f19603f3d011682016040523d82523d5f602084013e611b4a565b606091505b5050905080611b8e576040517f08c379a0000000000000000000000000000000000000000000000000000000008152600401611b859061292d565b60405180910390fd5b5050611d2f565b60095f3373ffffffffffffffffffffffffffffffffffffffff1673ffffffffffffffffffffffffffffffffffffffff1681526020019081526020015f208181548110611be457611be361294b565b5b905f5260205f209060080201600701543403611cf35734600d5f3373ffffffffffffffffffffffffffffffffffffffff1673ffffffffffffffffffffffffffffffffffffffff1681526020019081526020015f205f828254611c469190612d49565b925050819055506040518060400160405280600481526020017f506169640000000000000000000000000000000000000000000000000000000081525060095f3373ffffffffffffffffffffffffffffffffffffffff1673ffffffffffffffffffffffffffffffffffffffff1681526020019081526020015f208281548110611cd257611cd161294b565b5b905f5260205f2090600802016003019081611ced9190613003565b50611d2e565b6040517f08c379a0000000000000000000000000000000000000000000000000000000008152600401611d259061338a565b60405180910390fd5b5b4260095f3373ffffffffffffffffffffffffffffffffffffffff1673ffffffffffffffffffffffffffffffffffffffff1681526020019081526020015f208281548110611d7f57611d7e61294b565b5b905f5260205f209060080201600101819055507f54d1b8845ff9c436636b708cde6357819c40d995c0f6a2d794032c96f33c6a433360095f3373ffffffffffffffffffffffffffffffffffffffff1673ffffffffffffffffffffffffffffffffffffffff1681526020019081526020015f208381548110611e0357611e0261294b565b5b905f5260205f209060080201600701544260095f3373ffffffffffffffffffffffffffffffffffffffff1673ffffffffffffffffffffffffffffffffffffffff1681526020019081526020015f208581548110611e6357611e6261294b565b5b905f5260205f20906008020160060154604051611e8394939291906133a8565b60405180910390a15f60085f6101000a81548160ff02191690831515021790555050565b600b602052815f5260405f208181548110611ec0575f80fd5b905f5260205f2090600302015f9150915050805f0154908060010154908060020154905083565b5f5f5f5f90505b8480549050811015611f7d573373ffffffffffffffffffffffffffffffffffffffff16858281548110611f2457611f2361294b565b5b905f5260205f20015f9054906101000a900473ffffffffffffffffffffffffffffffffffffffff1673ffffffffffffffffffffffffffffffffffffffff1603611f705760019250611f7d565b8080600101915050611eee565b5081611fe3578333908060018154018082558091505060019003905f5260205f20015f9091909190916101000a81548173ffffffffffffffffffffffffffffffffffffffff021916908373ffffffffffffffffffffffffffffffffffffffff1602179055505b5f5f90505b8380549050811015612077573373ffffffffffffffffffffffffffffffffffffffff1684828154811061201e5761201d61294b565b5b905f5260205f20015f9054906101000a900473ffffffffffffffffffffffffffffffffffffffff1673ffffffffffffffffffffffffffffffffffffffff160361206a5760019150612077565b8080600101915050611fe8565b505f151582151514801561208e57505f1515811515145b156120f457600133908060018154018082558091505060019003905f5260205f20015f9091909190916101000a81548173ffffffffffffffffffffffffffffffffffffffff021916908373ffffffffffffffffffffffffffffffffffffffff1602179055505b50505050565b5f5f5f5f90505b855f8673ffffffffffffffffffffffffffffffffffffffff1673ffffffffffffffffffffffffffffffffffffffff1681526020019081526020015f20805490508110156122b3575f865f8773ffffffffffffffffffffffffffffffffffffffff1673ffffffffffffffffffffffffffffffffffffffff1681526020019081526020015f2082815481106121975761219661294b565b5b905f5260205f2090600302016002015403156122a65763bbf81e00865f8773ffffffffffffffffffffffffffffffffffffffff1673ffffffffffffffffffffffffffffffffffffffff1681526020019081526020015f208281548110612200576121ff61294b565b5b905f5260205f2090600302016002015485885f8973ffffffffffffffffffffffffffffffffffffffff1673ffffffffffffffffffffffffffffffffffffffff1681526020019081526020015f20848154811061225f5761225e61294b565b5b905f5260205f209060030201600101544261227a9190612b4a565b6122849190612d08565b61228e9190612d08565b6122989190612da9565b826122a39190612d49565b91505b8080600101915050612101565b50809150509392505050565b5f5f6122d98360075460096122e49092919063ffffffff16565b905080915050919050565b5f5f62015180855f3373ffffffffffffffffffffffffffffffffffffffff1673ffffffffffffffffffffffffffffffffffffffff1681526020019081526020015f2085815481106123385761233761294b565b5b905f5260205f20906008020160040154426123539190612b4a565b61235d9190612da9565b90505f618e948285885f3373ffffffffffffffffffffffffffffffffffffffff1673ffffffffffffffffffffffffffffffffffffffff1681526020019081526020015f2088815481106123b3576123b261294b565b5b905f5260205f209060080201600601546123cd9190612d08565b6123d79190612d08565b6123e19190612da9565b905080925050509392505050565b5f819050919050565b612401816123ef565b82525050565b5f60208201905061241a5f8301846123f8565b92915050565b5f5ffd5b5f73ffffffffffffffffffffffffffffffffffffffff82169050919050565b5f61244d82612424565b9050919050565b61245d81612443565b8114612467575f5ffd5b50565b5f8135905061247881612454565b92915050565b5f6020828403121561249357612492612420565b5b5f6124a08482850161246a565b91505092915050565b6124b2816123ef565b81146124bc575f5ffd5b50565b5f813590506124cd816124a9565b92915050565b5f602082840312156124e8576124e7612420565b5b5f6124f5848285016124bf565b91505092915050565b5f5f6040838503121561251457612513612420565b5b5f612521858286016124bf565b9250506020612532858286016124bf565b9150509250929050565b5f81519050919050565b5f82825260208201905092915050565b5f819050602082019050919050565b61256e81612443565b82525050565b5f61257f8383612565565b60208301905092915050565b5f602082019050919050565b5f6125a18261253c565b6125ab8185612546565b93506125b683612556565b805f5b838110156125e65781516125cd8882612574565b97506125d88361258b565b9250506001810190506125b9565b5085935050505092915050565b5f6020820190508181035f83015261260b8184612597565b905092915050565b5f819050919050565b61262581612613565b82525050565b5f60208201905061263e5f83018461261c565b92915050565b61264d81612443565b82525050565b5f6020820190506126665f830184612644565b92915050565b5f5f6040838503121561268257612681612420565b5b5f61268f8582860161246a565b92505060206126a0858286016124bf565b9150509250929050565b5f81519050919050565b5f82825260208201905092915050565b8281835e5f83830152505050565b5f601f19601f8301169050919050565b5f6126ec826126aa565b6126f681856126b4565b93506127068185602086016126c4565b61270f816126d2565b840191505092915050565b5f6101008201905061272e5f83018b6123f8565b61273b602083018a6123f8565b61274860408301896123f8565b818103606083015261275a81886126e2565b905061276960808301876123f8565b61277660a08301866123f8565b61278360c08301856123f8565b61279060e08301846123f8565b9998505050505050505050565b5f6060820190506127b05f8301866123f8565b6127bd60208301856123f8565b6127ca60408301846123f8565b949350505050565b7f5265656e7472616e6379000000000000000000000000000000000000000000005f82015250565b5f612806600a836126b4565b9150612811826127d2565b602082019050919050565b5f6020820190508181035f830152612833816127fa565b9050919050565b7f4e6f20696e74657265737420746f2077697468647261770000000000000000005f82015250565b5f61286e6017836126b4565b91506128798261283a565b602082019050919050565b5f6020820190508181035f83015261289b81612862565b9050919050565b5f81905092915050565b50565b5f6128ba5f836128a2565b91506128c5826128ac565b5f82019050919050565b5f6128d9826128af565b9150819050919050565b7f5472616e73616374696f6e206661696c656400000000000000000000000000005f82015250565b5f6129176012836126b4565b9150612922826128e3565b602082019050919050565b5f6020820190508181035f8301526129448161290b565b9050919050565b7f4e487b71000000000000000000000000000000000000000000000000000000005f52603260045260245ffd5b7f4e487b71000000000000000000000000000000000000000000000000000000005f52601160045260245ffd5b5f6129af826123ef565b91507fffffffffffffffffffffffffffffffffffffffffffffffffffffffffffffffff82036129e1576129e0612978565b5b600182019050919050565b7f4578636564656564206d6178696d756d207769746864726177000000000000005f82015250565b5f612a206019836126b4565b9150612a2b826129ec565b602082019050919050565b5f6020820190508181035f830152612a4d81612a14565b9050919050565b7f416d6f756e74206d7573742062652067726561746572207468616e207a65726f5f82015250565b5f612a886020836126b4565b9150612a9382612a54565b602082019050919050565b5f6020820190508181035f830152612ab581612a7c565b9050919050565b7f4e6f7420656e6f7567682066756e647320696e206465706f7369747320746f205f8201527f636f766572207769746864726177616c00000000000000000000000000000000602082015250565b5f612b166030836126b4565b9150612b2182612abc565b604082019050919050565b5f6020820190508181035f830152612b4381612b0a565b9050919050565b5f612b54826123ef565b9150612b5f836123ef565b9250828203905081811115612b7757612b76612978565b5b92915050565b5f606082019050612b905f830186612644565b612b9d60208301856123f8565b612baa60408301846123f8565b949350505050565b7f496e76616c6964207765656b206e756d626572000000000000000000000000005f82015250565b5f612be66013836126b4565b9150612bf182612bb2565b602082019050919050565b5f6020820190508181035f830152612c1381612bda565b9050919050565b7f4d696e696d616c20626f72726f7720697320302e3220457468000000000000005f82015250565b5f612c4e6019836126b4565b9150612c5982612c1a565b602082019050919050565b5f6020820190508181035f830152612c7b81612c42565b9050919050565b5f81519050612c90816124a9565b92915050565b5f60208284031215612cab57612caa612420565b5b5f612cb884828501612c82565b91505092915050565b5f612ccb82612613565b91507f7fffffffffffffffffffffffffffffffffffffffffffffffffffffffffffffff8203612cfd57612cfc612978565b5b600182019050919050565b5f612d12826123ef565b9150612d1d836123ef565b9250828202612d2b816123ef565b91508282048414831517612d4257612d41612978565b5b5092915050565b5f612d53826123ef565b9150612d5e836123ef565b9250828201905080821115612d7657612d75612978565b5b92915050565b7f4e487b71000000000000000000000000000000000000000000000000000000005f52601260045260245ffd5b5f612db3826123ef565b9150612dbe836123ef565b925082612dce57612dcd612d7c565b5b828204905092915050565b7f4e487b71000000000000000000000000000000000000000000000000000000005f52604160045260245ffd5b7f4e487b71000000000000000000000000000000000000000000000000000000005f52602260045260245ffd5b5f6002820490506001821680612e4a57607f821691505b602082108103612e5d57612e5c612e06565b5b50919050565b5f819050815f5260205f209050919050565b5f6020601f8301049050919050565b5f82821b905092915050565b5f60088302612ebf7fffffffffffffffffffffffffffffffffffffffffffffffffffffffffffffffff82612e84565b612ec98683612e84565b95508019841693508086168417925050509392505050565b5f819050919050565b5f612f04612eff612efa846123ef565b612ee1565b6123ef565b9050919050565b5f819050919050565b612f1d83612eea565b612f31612f2982612f0b565b848454612e90565b825550505050565b5f5f905090565b612f48612f39565b612f53818484612f14565b505050565b5b81811015612f7657612f6b5f82612f40565b600181019050612f59565b5050565b601f821115612fbb57612f8c81612e63565b612f9584612e75565b81016020851015612fa4578190505b612fb8612fb085612e75565b830182612f58565b50505b505050565b5f82821c905092915050565b5f612fdb5f1984600802612fc0565b1980831691505092915050565b5f612ff38383612fcc565b9150826002028217905092915050565b61300c826126aa565b67ffffffffffffffff81111561302557613024612dd9565b5b61302f8254612e33565b61303a828285612f7a565b5f60209050601f83116001811461306b575f8415613059578287015190505b6130638582612fe8565b8655506130ca565b601f19841661307986612e63565b5f5b828110156130a05784890151825560018201915060208501945060208101905061307b565b868310156130bd57848901516130b9601f891682612fcc565b8355505b6001600288020188555050505b505050505050565b7f4d696e696d616c206c656e6420697320302e31204574680000000000000000005f82015250565b5f6131066017836126b4565b9150613111826130d2565b602082019050919050565b5f6020820190508181035f830152613133816130fa565b9050919050565b5f819050815f5260205f209050919050565b5f815461315881612e33565b61316281866128a2565b9450600182165f811461317c5760018114613191576131c3565b60ff19831686528115158202860193506131c3565b61319a8561313a565b5f5b838110156131bb5781548189015260018201915060208101905061319c565b838801955050505b50505092915050565b5f6131d7828461314c565b915081905092915050565b7f426f72726f772073656c6563746564206e6f74206163746976650000000000005f82015250565b5f613216601a836126b4565b9150613221826131e2565b602082019050919050565b5f6020820190508181035f8301526132438161320a565b9050919050565b7f52657061796d656e74206d757374206265206d6f7265207468616e20300000005f82015250565b5f61327e601d836126b4565b91506132898261324a565b602082019050919050565b5f6020820190508181035f8301526132ab81613272565b9050919050565b7f496e76616c696420626f72726f7720696e6465780000000000000000000000005f82015250565b5f6132e66014836126b4565b91506132f1826132b2565b602082019050919050565b5f6020820190508181035f830152613313816132da565b9050919050565b7f5061796d656e74206973206c6f776572207468616e2074686520616d6f756e745f8201527f2072657175657374656400000000000000000000000000000000000000000000602082015250565b5f613374602a836126b4565b915061337f8261331a565b604082019050919050565b5f6020820190508181035f8301526133a181613368565b9050919050565b5f6080820190506133bb5f830187612644565b6133c860208301866123f8565b6133d560408301856123f8565b6133e260608301846123f8565b9594505050505056fea2646970667358221220212197c2d9037dc603f279f5211cd36119c651ef0200d6ec091db1d8846b416664736f6c634300081e0033",
			"opcodes": "PUSH1 0x80 PUSH1 0x40 MSTORE PUSH1 0x3 PUSH1 0x6 SSTORE PUSH1 0x19 PUSH1 0x7 SSTORE CALLVALUE DUP1 ISZERO PUSH1 0x18 JUMPI PUSH0 PUSH0 REVERT JUMPDEST POP CALLER PUSH0 PUSH0 PUSH2 0x100 EXP DUP2 SLOAD DUP2 PUSH20 0xFFFFFFFFFFFFFFFFFFFFFFFFFFFFFFFFFFFFFFFF MUL NOT AND SWAP1 DUP4 PUSH20 0xFFFFFFFFFFFFFFFFFFFFFFFFFFFFFFFFFFFFFFFF AND MUL OR SWAP1 SSTORE POP PUSH2 0x3421 DUP1 PUSH2 0x65 PUSH0 CODECOPY PUSH0 RETURN INVALID PUSH1 0x80 PUSH1 0x40 MSTORE PUSH1 0x4 CALLDATASIZE LT PUSH2 0x112 JUMPI PUSH0 CALLDATALOAD PUSH1 0xE0 SHR DUP1 PUSH4 0x71604909 GT PUSH2 0x9F JUMPI DUP1 PUSH4 0xD6020811 GT PUSH2 0x63 JUMPI DUP1 PUSH4 0xD6020811 EQ PUSH2 0x35B JUMPI DUP1 PUSH4 0xDCE8E848 EQ PUSH2 0x385 JUMPI DUP1 PUSH4 0xDDD899A1 EQ PUSH2 0x3C1 JUMPI DUP1 PUSH4 0xF5D1B7E8 EQ PUSH2 0x3EB JUMPI DUP1 PUSH4 0xFF6D4F73 EQ PUSH2 0x407 JUMPI PUSH2 0x112 JUMP JUMPDEST DUP1 PUSH4 0x71604909 EQ PUSH2 0x27E JUMPI DUP1 PUSH4 0x8DA5CB5B EQ PUSH2 0x2BA JUMPI DUP1 PUSH4 0x97DFFC61 EQ PUSH2 0x2E4 JUMPI DUP1 PUSH4 0x99C8FBF6 EQ PUSH2 0x2EE JUMPI DUP1 PUSH4 0xCB50BB74 EQ PUSH2 0x331 JUMPI PUSH2 0x112 JUMP JUMPDEST DUP1 PUSH4 0x33D5281F GT PUSH2 0xE6 JUMPI DUP1 PUSH4 0x33D5281F EQ PUSH2 0x1BA JUMPI DUP1 PUSH4 0x392F6356 EQ PUSH2 0x1D6 JUMPI DUP1 PUSH4 0x3E86E213 EQ PUSH2 0x200 JUMPI DUP1 PUSH4 0x65AD976E EQ PUSH2 0x22A JUMPI DUP1 PUSH4 0x6F9FB98A EQ PUSH2 0x254 JUMPI PUSH2 0x112 JUMP JUMPDEST DUP1 PUSH3 0x63750C EQ PUSH2 0x116 JUMPI DUP1 PUSH4 0xEDD2FFC EQ PUSH2 0x12C JUMPI DUP1 PUSH4 0x26A39C07 EQ PUSH2 0x156 JUMPI DUP1 PUSH4 0x2E1A7D4D EQ PUSH2 0x192 JUMPI JUMPDEST PUSH0 PUSH0 REVERT JUMPDEST CALLVALUE DUP1 ISZERO PUSH2 0x121 JUMPI PUSH0 PUSH0 REVERT JUMPDEST POP PUSH2 0x12A PUSH2 0x445 JUMP JUMPDEST STOP JUMPDEST CALLVALUE DUP1 ISZERO PUSH2 0x137 JUMPI PUSH0 PUSH0 REVERT JUMPDEST POP PUSH2 0x140 PUSH2 0x684 JUMP JUMPDEST PUSH1 0x40 MLOAD PUSH2 0x14D SWAP2 SWAP1 PUSH2 0x2407 JUMP JUMPDEST PUSH1 0x40 MLOAD DUP1 SWAP2 SUB SWAP1 RETURN JUMPDEST CALLVALUE DUP1 ISZERO PUSH2 0x161 JUMPI PUSH0 PUSH0 REVERT JUMPDEST POP PUSH2 0x17C PUSH1 0x4 DUP1 CALLDATASIZE SUB DUP2 ADD SWAP1 PUSH2 0x177 SWAP2 SWAP1 PUSH2 0x247E JUMP JUMPDEST PUSH2 0x68A JUMP JUMPDEST PUSH1 0x40 MLOAD PUSH2 0x189 SWAP2 SWAP1 PUSH2 0x2407 JUMP JUMPDEST PUSH1 0x40 MLOAD DUP1 SWAP2 SUB SWAP1 RETURN JUMPDEST CALLVALUE DUP1 ISZERO PUSH2 0x19D JUMPI PUSH0 PUSH0 REVERT JUMPDEST POP PUSH2 0x1B8 PUSH1 0x4 DUP1 CALLDATASIZE SUB DUP2 ADD SWAP1 PUSH2 0x1B3 SWAP2 SWAP1 PUSH2 0x24D3 JUMP JUMPDEST PUSH2 0x69F JUMP JUMPDEST STOP JUMPDEST PUSH2 0x1D4 PUSH1 0x4 DUP1 CALLDATASIZE SUB DUP2 ADD SWAP1 PUSH2 0x1CF SWAP2 SWAP1 PUSH2 0x24FE JUMP JUMPDEST PUSH2 0xC18 JUMP JUMPDEST STOP JUMPDEST CALLVALUE DUP1 ISZERO PUSH2 0x1E1 JUMPI PUSH0 PUSH0 REVERT JUMPDEST POP PUSH2 0x1EA PUSH2 0x1137 JUMP JUMPDEST PUSH1 0x40 MLOAD PUSH2 0x1F7 SWAP2 SWAP1 PUSH2 0x2407 JUMP JUMPDEST PUSH1 0x40 MLOAD DUP1 SWAP2 SUB SWAP1 RETURN JUMPDEST CALLVALUE DUP1 ISZERO PUSH2 0x20B JUMPI PUSH0 PUSH0 REVERT JUMPDEST POP PUSH2 0x214 PUSH2 0x11D9 JUMP JUMPDEST PUSH1 0x40 MLOAD PUSH2 0x221 SWAP2 SWAP1 PUSH2 0x25F3 JUMP JUMPDEST PUSH1 0x40 MLOAD DUP1 SWAP2 SUB SWAP1 RETURN JUMPDEST CALLVALUE DUP1 ISZERO PUSH2 0x235 JUMPI PUSH0 PUSH0 REVERT JUMPDEST POP PUSH2 0x23E PUSH2 0x1264 JUMP JUMPDEST PUSH1 0x40 MLOAD PUSH2 0x24B SWAP2 SWAP1 PUSH2 0x2407 JUMP JUMPDEST PUSH1 0x40 MLOAD DUP1 SWAP2 SUB SWAP1 RETURN JUMPDEST CALLVALUE DUP1 ISZERO PUSH2 0x25F JUMPI PUSH0 PUSH0 REVERT JUMPDEST POP PUSH2 0x268 PUSH2 0x126A JUMP JUMPDEST PUSH1 0x40 MLOAD PUSH2 0x275 SWAP2 SWAP1 PUSH2 0x2407 JUMP JUMPDEST PUSH1 0x40 MLOAD DUP1 SWAP2 SUB SWAP1 RETURN JUMPDEST CALLVALUE DUP1 ISZERO PUSH2 0x289 JUMPI PUSH0 PUSH0 REVERT JUMPDEST POP PUSH2 0x2A4 PUSH1 0x4 DUP1 CALLDATASIZE SUB DUP2 ADD SWAP1 PUSH2 0x29F SWAP2 SWAP1 PUSH2 0x247E JUMP JUMPDEST PUSH2 0x1271 JUMP JUMPDEST PUSH1 0x40 MLOAD PUSH2 0x2B1 SWAP2 SWAP1 PUSH2 0x262B JUMP JUMPDEST PUSH1 0x40 MLOAD DUP1 SWAP2 SUB SWAP1 RETURN JUMPDEST CALLVALUE DUP1 ISZERO PUSH2 0x2C5 JUMPI PUSH0 PUSH0 REVERT JUMPDEST POP PUSH2 0x2CE PUSH2 0x1286 JUMP JUMPDEST PUSH1 0x40 MLOAD PUSH2 0x2DB SWAP2 SWAP1 PUSH2 0x2653 JUMP JUMPDEST PUSH1 0x40 MLOAD DUP1 SWAP2 SUB SWAP1 RETURN JUMPDEST PUSH2 0x2EC PUSH2 0x12AA JUMP JUMPDEST STOP JUMPDEST CALLVALUE DUP1 ISZERO PUSH2 0x2F9 JUMPI PUSH0 PUSH0 REVERT JUMPDEST POP PUSH2 0x314 PUSH1 0x4 DUP1 CALLDATASIZE SUB DUP2 ADD SWAP1 PUSH2 0x30F SWAP2 SWAP1 PUSH2 0x266C JUMP JUMPDEST PUSH2 0x1484 JUMP JUMPDEST PUSH1 0x40 MLOAD PUSH2 0x328 SWAP9 SWAP8 SWAP7 SWAP6 SWAP5 SWAP4 SWAP3 SWAP2 SWAP1 PUSH2 0x271A JUMP JUMPDEST PUSH1 0x40 MLOAD DUP1 SWAP2 SUB SWAP1 RETURN JUMPDEST CALLVALUE DUP1 ISZERO PUSH2 0x33C JUMPI PUSH0 PUSH0 REVERT JUMPDEST POP PUSH2 0x345 PUSH2 0x1568 JUMP JUMPDEST PUSH1 0x40 MLOAD PUSH2 0x352 SWAP2 SWAP1 PUSH2 0x2407 JUMP JUMPDEST PUSH1 0x40 MLOAD DUP1 SWAP2 SUB SWAP1 RETURN JUMPDEST CALLVALUE DUP1 ISZERO PUSH2 0x366 JUMPI PUSH0 PUSH0 REVERT JUMPDEST POP PUSH2 0x36F PUSH2 0x156E JUMP JUMPDEST PUSH1 0x40 MLOAD PUSH2 0x37C SWAP2 SWAP1 PUSH2 0x25F3 JUMP JUMPDEST PUSH1 0x40 MLOAD DUP1 SWAP2 SUB SWAP1 RETURN JUMPDEST CALLVALUE DUP1 ISZERO PUSH2 0x390 JUMPI PUSH0 PUSH0 REVERT JUMPDEST POP PUSH2 0x3AB PUSH1 0x4 DUP1 CALLDATASIZE SUB DUP2 ADD SWAP1 PUSH2 0x3A6 SWAP2 SWAP1 PUSH2 0x247E JUMP JUMPDEST PUSH2 0x15F9 JUMP JUMPDEST PUSH1 0x40 MLOAD PUSH2 0x3B8 SWAP2 SWAP1 PUSH2 0x2407 JUMP JUMPDEST PUSH1 0x40 MLOAD DUP1 SWAP2 SUB SWAP1 RETURN JUMPDEST CALLVALUE DUP1 ISZERO PUSH2 0x3CC JUMPI PUSH0 PUSH0 REVERT JUMPDEST POP PUSH2 0x3D5 PUSH2 0x160E JUMP JUMPDEST PUSH1 0x40 MLOAD PUSH2 0x3E2 SWAP2 SWAP1 PUSH2 0x2407 JUMP JUMPDEST PUSH1 0x40 MLOAD DUP1 SWAP2 SUB SWAP1 RETURN JUMPDEST PUSH2 0x405 PUSH1 0x4 DUP1 CALLDATASIZE SUB DUP2 ADD SWAP1 PUSH2 0x400 SWAP2 SWAP1 PUSH2 0x24D3 JUMP JUMPDEST PUSH2 0x1614 JUMP JUMPDEST STOP JUMPDEST CALLVALUE DUP1 ISZERO PUSH2 0x412 JUMPI PUSH0 PUSH0 REVERT JUMPDEST POP PUSH2 0x42D PUSH1 0x4 DUP1 CALLDATASIZE SUB DUP2 ADD SWAP1 PUSH2 0x428 SWAP2 SWAP1 PUSH2 0x266C JUMP JUMPDEST PUSH2 0x1EA7 JUMP JUMPDEST PUSH1 0x40 MLOAD PUSH2 0x43C SWAP4 SWAP3 SWAP2 SWAP1 PUSH2 0x279D JUMP JUMPDEST PUSH1 0x40 MLOAD DUP1 SWAP2 SUB SWAP1 RETURN JUMPDEST PUSH1 0x8 PUSH0 SWAP1 SLOAD SWAP1 PUSH2 0x100 EXP SWAP1 DIV PUSH1 0xFF AND ISZERO PUSH2 0x494 JUMPI PUSH1 0x40 MLOAD PUSH32 0x8C379A000000000000000000000000000000000000000000000000000000000 DUP2 MSTORE PUSH1 0x4 ADD PUSH2 0x48B SWAP1 PUSH2 0x281C JUMP JUMPDEST PUSH1 0x40 MLOAD DUP1 SWAP2 SUB SWAP1 REVERT JUMPDEST PUSH1 0x1 PUSH1 0x8 PUSH0 PUSH2 0x100 EXP DUP2 SLOAD DUP2 PUSH1 0xFF MUL NOT AND SWAP1 DUP4 ISZERO ISZERO MUL OR SWAP1 SSTORE POP PUSH0 PUSH2 0x4B7 PUSH2 0x1137 JUMP JUMPDEST SWAP1 POP PUSH0 DUP2 GT PUSH2 0x4FB JUMPI PUSH1 0x40 MLOAD PUSH32 0x8C379A000000000000000000000000000000000000000000000000000000000 DUP2 MSTORE PUSH1 0x4 ADD PUSH2 0x4F2 SWAP1 PUSH2 0x2884 JUMP JUMPDEST PUSH1 0x40 MLOAD DUP1 SWAP2 SUB SWAP1 REVERT JUMPDEST PUSH0 CALLER PUSH20 0xFFFFFFFFFFFFFFFFFFFFFFFFFFFFFFFFFFFFFFFF AND DUP3 PUSH1 0x40 MLOAD PUSH2 0x520 SWAP1 PUSH2 0x28CF JUMP JUMPDEST PUSH0 PUSH1 0x40 MLOAD DUP1 DUP4 SUB DUP2 DUP6 DUP8 GAS CALL SWAP3 POP POP POP RETURNDATASIZE DUP1 PUSH0 DUP2 EQ PUSH2 0x55A JUMPI PUSH1 0x40 MLOAD SWAP2 POP PUSH1 0x1F NOT PUSH1 0x3F RETURNDATASIZE ADD AND DUP3 ADD PUSH1 0x40 MSTORE RETURNDATASIZE DUP3 MSTORE RETURNDATASIZE PUSH0 PUSH1 0x20 DUP5 ADD RETURNDATACOPY PUSH2 0x55F JUMP JUMPDEST PUSH1 0x60 SWAP2 POP JUMPDEST POP POP SWAP1 POP DUP1 PUSH2 0x5A3 JUMPI PUSH1 0x40 MLOAD PUSH32 0x8C379A000000000000000000000000000000000000000000000000000000000 DUP2 MSTORE PUSH1 0x4 ADD PUSH2 0x59A SWAP1 PUSH2 0x292D JUMP JUMPDEST PUSH1 0x40 MLOAD DUP1 SWAP2 SUB SWAP1 REVERT JUMPDEST PUSH0 PUSH0 SWAP1 POP JUMPDEST DUP1 PUSH1 0xB PUSH0 CALLER PUSH20 0xFFFFFFFFFFFFFFFFFFFFFFFFFFFFFFFFFFFFFFFF AND PUSH20 0xFFFFFFFFFFFFFFFFFFFFFFFFFFFFFFFFFFFFFFFF AND DUP2 MSTORE PUSH1 0x20 ADD SWAP1 DUP2 MSTORE PUSH1 0x20 ADD PUSH0 KECCAK256 DUP1 SLOAD SWAP1 POP GT ISZERO PUSH2 0x666 JUMPI TIMESTAMP PUSH1 0xB PUSH0 CALLER PUSH20 0xFFFFFFFFFFFFFFFFFFFFFFFFFFFFFFFFFFFFFFFF AND PUSH20 0xFFFFFFFFFFFFFFFFFFFFFFFFFFFFFFFFFFFFFFFF AND DUP2 MSTORE PUSH1 0x20 ADD SWAP1 DUP2 MSTORE PUSH1 0x20 ADD PUSH0 KECCAK256 DUP3 DUP2 SLOAD DUP2 LT PUSH2 0x640 JUMPI PUSH2 0x63F PUSH2 0x294B JUMP JUMPDEST JUMPDEST SWAP1 PUSH0 MSTORE PUSH1 0x20 PUSH0 KECCAK256 SWAP1 PUSH1 0x3 MUL ADD PUSH1 0x1 ADD DUP2 SWAP1 SSTORE POP DUP1 DUP1 PUSH2 0x65E SWAP1 PUSH2 0x29A5 JUMP JUMPDEST SWAP2 POP POP PUSH2 0x5A8 JUMP JUMPDEST POP POP POP PUSH0 PUSH1 0x8 PUSH0 PUSH2 0x100 EXP DUP2 SLOAD DUP2 PUSH1 0xFF MUL NOT AND SWAP1 DUP4 ISZERO ISZERO MUL OR SWAP1 SSTORE POP JUMP JUMPDEST PUSH1 0x7 SLOAD DUP2 JUMP JUMPDEST PUSH1 0xC PUSH1 0x20 MSTORE DUP1 PUSH0 MSTORE PUSH1 0x40 PUSH0 KECCAK256 PUSH0 SWAP2 POP SWAP1 POP SLOAD DUP2 JUMP JUMPDEST DUP1 DUP1 PUSH1 0xD PUSH0 CALLER PUSH20 0xFFFFFFFFFFFFFFFFFFFFFFFFFFFFFFFFFFFFFFFF AND PUSH20 0xFFFFFFFFFFFFFFFFFFFFFFFFFFFFFFFFFFFFFFFF AND DUP2 MSTORE PUSH1 0x20 ADD SWAP1 DUP2 MSTORE PUSH1 0x20 ADD PUSH0 KECCAK256 SLOAD LT ISZERO PUSH2 0x720 JUMPI PUSH1 0x40 MLOAD PUSH32 0x8C379A000000000000000000000000000000000000000000000000000000000 DUP2 MSTORE PUSH1 0x4 ADD PUSH2 0x717 SWAP1 PUSH2 0x2A36 JUMP JUMPDEST PUSH1 0x40 MLOAD DUP1 SWAP2 SUB SWAP1 REVERT JUMPDEST PUSH1 0x8 PUSH0 SWAP1 SLOAD SWAP1 PUSH2 0x100 EXP SWAP1 DIV PUSH1 0xFF AND ISZERO PUSH2 0x76F JUMPI PUSH1 0x40 MLOAD PUSH32 0x8C379A000000000000000000000000000000000000000000000000000000000 DUP2 MSTORE PUSH1 0x4 ADD PUSH2 0x766 SWAP1 PUSH2 0x281C JUMP JUMPDEST PUSH1 0x40 MLOAD DUP1 SWAP2 SUB SWAP1 REVERT JUMPDEST PUSH1 0x1 PUSH1 0x8 PUSH0 PUSH2 0x100 EXP DUP2 SLOAD DUP2 PUSH1 0xFF MUL NOT AND SWAP1 DUP4 ISZERO ISZERO MUL OR SWAP1 SSTORE POP PUSH0 DUP3 GT PUSH2 0x7CB JUMPI PUSH1 0x40 MLOAD PUSH32 0x8C379A000000000000000000000000000000000000000000000000000000000 DUP2 MSTORE PUSH1 0x4 ADD PUSH2 0x7C2 SWAP1 PUSH2 0x2A9E JUMP JUMPDEST PUSH1 0x40 MLOAD DUP1 SWAP2 SUB SWAP1 REVERT JUMPDEST DUP2 PUSH1 0xD PUSH0 CALLER PUSH20 0xFFFFFFFFFFFFFFFFFFFFFFFFFFFFFFFFFFFFFFFF AND PUSH20 0xFFFFFFFFFFFFFFFFFFFFFFFFFFFFFFFFFFFFFFFF AND DUP2 MSTORE PUSH1 0x20 ADD SWAP1 DUP2 MSTORE PUSH1 0x20 ADD PUSH0 KECCAK256 SLOAD LT ISZERO PUSH2 0x84B JUMPI PUSH1 0x40 MLOAD PUSH32 0x8C379A000000000000000000000000000000000000000000000000000000000 DUP2 MSTORE PUSH1 0x4 ADD PUSH2 0x842 SWAP1 PUSH2 0x2B2C JUMP JUMPDEST PUSH1 0x40 MLOAD DUP1 SWAP2 SUB SWAP1 REVERT JUMPDEST PUSH0 DUP3 SWAP1 POP PUSH0 PUSH0 SWAP1 POP JUMPDEST PUSH1 0xB PUSH0 CALLER PUSH20 0xFFFFFFFFFFFFFFFFFFFFFFFFFFFFFFFFFFFFFFFF AND PUSH20 0xFFFFFFFFFFFFFFFFFFFFFFFFFFFFFFFFFFFFFFFF AND DUP2 MSTORE PUSH1 0x20 ADD SWAP1 DUP2 MSTORE PUSH1 0x20 ADD PUSH0 KECCAK256 DUP1 SLOAD SWAP1 POP DUP2 LT ISZERO PUSH2 0xAC2 JUMPI PUSH1 0xB PUSH0 CALLER PUSH20 0xFFFFFFFFFFFFFFFFFFFFFFFFFFFFFFFFFFFFFFFF AND PUSH20 0xFFFFFFFFFFFFFFFFFFFFFFFFFFFFFFFFFFFFFFFF AND DUP2 MSTORE PUSH1 0x20 ADD SWAP1 DUP2 MSTORE PUSH1 0x20 ADD PUSH0 KECCAK256 DUP2 DUP2 SLOAD DUP2 LT PUSH2 0x8EB JUMPI PUSH2 0x8EA PUSH2 0x294B JUMP JUMPDEST JUMPDEST SWAP1 PUSH0 MSTORE PUSH1 0x20 PUSH0 KECCAK256 SWAP1 PUSH1 0x3 MUL ADD PUSH1 0x2 ADD SLOAD DUP5 GT ISZERO PUSH2 0x9D6 JUMPI PUSH1 0xB PUSH0 CALLER PUSH20 0xFFFFFFFFFFFFFFFFFFFFFFFFFFFFFFFFFFFFFFFF AND PUSH20 0xFFFFFFFFFFFFFFFFFFFFFFFFFFFFFFFFFFFFFFFF AND DUP2 MSTORE PUSH1 0x20 ADD SWAP1 DUP2 MSTORE PUSH1 0x20 ADD PUSH0 KECCAK256 DUP2 DUP2 SLOAD DUP2 LT PUSH2 0x951 JUMPI PUSH2 0x950 PUSH2 0x294B JUMP JUMPDEST JUMPDEST SWAP1 PUSH0 MSTORE PUSH1 0x20 PUSH0 KECCAK256 SWAP1 PUSH1 0x3 MUL ADD PUSH1 0x2 ADD SLOAD DUP5 PUSH2 0x96C SWAP2 SWAP1 PUSH2 0x2B4A JUMP JUMPDEST SWAP4 POP PUSH0 PUSH1 0xB PUSH0 CALLER PUSH20 0xFFFFFFFFFFFFFFFFFFFFFFFFFFFFFFFFFFFFFFFF AND PUSH20 0xFFFFFFFFFFFFFFFFFFFFFFFFFFFFFFFFFFFFFFFF AND DUP2 MSTORE PUSH1 0x20 ADD SWAP1 DUP2 MSTORE PUSH1 0x20 ADD PUSH0 KECCAK256 DUP3 DUP2 SLOAD DUP2 LT PUSH2 0x9BE JUMPI PUSH2 0x9BD PUSH2 0x294B JUMP JUMPDEST JUMPDEST SWAP1 PUSH0 MSTORE PUSH1 0x20 PUSH0 KECCAK256 SWAP1 PUSH1 0x3 MUL ADD PUSH1 0x2 ADD DUP2 SWAP1 SSTORE POP PUSH2 0xAB5 JUMP JUMPDEST DUP4 PUSH1 0xB PUSH0 CALLER PUSH20 0xFFFFFFFFFFFFFFFFFFFFFFFFFFFFFFFFFFFFFFFF AND PUSH20 0xFFFFFFFFFFFFFFFFFFFFFFFFFFFFFFFFFFFFFFFF AND DUP2 MSTORE PUSH1 0x20 ADD SWAP1 DUP2 MSTORE PUSH1 0x20 ADD PUSH0 KECCAK256 DUP3 DUP2 SLOAD DUP2 LT PUSH2 0xA26 JUMPI PUSH2 0xA25 PUSH2 0x294B JUMP JUMPDEST JUMPDEST SWAP1 PUSH0 MSTORE PUSH1 0x20 PUSH0 KECCAK256 SWAP1 PUSH1 0x3 MUL ADD PUSH1 0x2 ADD SLOAD LT PUSH2 0xAB4 JUMPI DUP4 PUSH1 0xB PUSH0 CALLER PUSH20 0xFFFFFFFFFFFFFFFFFFFFFFFFFFFFFFFFFFFFFFFF AND PUSH20 0xFFFFFFFFFFFFFFFFFFFFFFFFFFFFFFFFFFFFFFFF AND DUP2 MSTORE PUSH1 0x20 ADD SWAP1 DUP2 MSTORE PUSH1 0x20 ADD PUSH0 KECCAK256 DUP3 DUP2 SLOAD DUP2 LT PUSH2 0xA8B JUMPI PUSH2 0xA8A PUSH2 0x294B JUMP JUMPDEST JUMPDEST SWAP1 PUSH0 MSTORE PUSH1 0x20 PUSH0 KECCAK256 SWAP1 PUSH1 0x3 MUL ADD PUSH1 0x2 ADD PUSH0 DUP3 DUP3 SLOAD PUSH2 0xAA8 SWAP2 SWAP1 PUSH2 0x2B4A JUMP JUMPDEST SWAP3 POP POP DUP2 SWAP1 SSTORE POP PUSH2 0xAC2 JUMP JUMPDEST JUMPDEST DUP1 DUP1 PUSH1 0x1 ADD SWAP2 POP POP PUSH2 0x854 JUMP JUMPDEST POP DUP1 PUSH1 0xD PUSH0 CALLER PUSH20 0xFFFFFFFFFFFFFFFFFFFFFFFFFFFFFFFFFFFFFFFF AND PUSH20 0xFFFFFFFFFFFFFFFFFFFFFFFFFFFFFFFFFFFFFFFF AND DUP2 MSTORE PUSH1 0x20 ADD SWAP1 DUP2 MSTORE PUSH1 0x20 ADD PUSH0 KECCAK256 PUSH0 DUP3 DUP3 SLOAD PUSH2 0xB0F SWAP2 SWAP1 PUSH2 0x2B4A JUMP JUMPDEST SWAP3 POP POP DUP2 SWAP1 SSTORE POP PUSH0 CALLER PUSH20 0xFFFFFFFFFFFFFFFFFFFFFFFFFFFFFFFFFFFFFFFF AND DUP3 PUSH1 0x40 MLOAD PUSH2 0xB3B SWAP1 PUSH2 0x28CF JUMP JUMPDEST PUSH0 PUSH1 0x40 MLOAD DUP1 DUP4 SUB DUP2 DUP6 DUP8 GAS CALL SWAP3 POP POP POP RETURNDATASIZE DUP1 PUSH0 DUP2 EQ PUSH2 0xB75 JUMPI PUSH1 0x40 MLOAD SWAP2 POP PUSH1 0x1F NOT PUSH1 0x3F RETURNDATASIZE ADD AND DUP3 ADD PUSH1 0x40 MSTORE RETURNDATASIZE DUP3 MSTORE RETURNDATASIZE PUSH0 PUSH1 0x20 DUP5 ADD RETURNDATACOPY PUSH2 0xB7A JUMP JUMPDEST PUSH1 0x60 SWAP2 POP JUMPDEST POP POP SWAP1 POP DUP1 PUSH2 0xBBE JUMPI PUSH1 0x40 MLOAD PUSH32 0x8C379A000000000000000000000000000000000000000000000000000000000 DUP2 MSTORE PUSH1 0x4 ADD PUSH2 0xBB5 SWAP1 PUSH2 0x292D JUMP JUMPDEST PUSH1 0x40 MLOAD DUP1 SWAP2 SUB SWAP1 REVERT JUMPDEST PUSH32 0x4061A3C2FB8ED4FA13EB41AC8AF4B4B8F67955285EA176D176BE39483C38136A CALLER DUP4 TIMESTAMP PUSH1 0x40 MLOAD PUSH2 0xBF1 SWAP4 SWAP3 SWAP2 SWAP1 PUSH2 0x2B7D JUMP JUMPDEST PUSH1 0x40 MLOAD DUP1 SWAP2 SUB SWAP1 LOG1 POP POP PUSH0 PUSH1 0x8 PUSH0 PUSH2 0x100 EXP DUP2 SLOAD DUP2 PUSH1 0xFF MUL NOT AND SWAP1 DUP4 ISZERO ISZERO MUL OR SWAP1 SSTORE POP POP POP JUMP JUMPDEST DUP2 PUSH2 0x104 DUP2 GT ISZERO PUSH2 0xC5E JUMPI PUSH1 0x40 MLOAD PUSH32 0x8C379A000000000000000000000000000000000000000000000000000000000 DUP2 MSTORE PUSH1 0x4 ADD PUSH2 0xC55 SWAP1 PUSH2 0x2BFC JUMP JUMPDEST PUSH1 0x40 MLOAD DUP1 SWAP2 SUB SWAP1 REVERT JUMPDEST DUP2 PUSH8 0x2C68AF0BB140000 DUP2 GT PUSH2 0xCA9 JUMPI PUSH1 0x40 MLOAD PUSH32 0x8C379A000000000000000000000000000000000000000000000000000000000 DUP2 MSTORE PUSH1 0x4 ADD PUSH2 0xCA0 SWAP1 PUSH2 0x2C64 JUMP JUMPDEST PUSH1 0x40 MLOAD DUP1 SWAP2 SUB SWAP1 REVERT JUMPDEST DUP3 DUP1 ADDRESS PUSH20 0xFFFFFFFFFFFFFFFFFFFFFFFFFFFFFFFFFFFFFFFF AND PUSH4 0x6F9FB98A PUSH1 0x40 MLOAD DUP2 PUSH4 0xFFFFFFFF AND PUSH1 0xE0 SHL DUP2 MSTORE PUSH1 0x4 ADD PUSH1 0x20 PUSH1 0x40 MLOAD DUP1 DUP4 SUB DUP2 DUP7 GAS STATICCALL ISZERO DUP1 ISZERO PUSH2 0xCF4 JUMPI RETURNDATASIZE PUSH0 PUSH0 RETURNDATACOPY RETURNDATASIZE PUSH0 REVERT JUMPDEST POP POP POP POP PUSH1 0x40 MLOAD RETURNDATASIZE PUSH1 0x1F NOT PUSH1 0x1F DUP3 ADD AND DUP3 ADD DUP1 PUSH1 0x40 MSTORE POP DUP2 ADD SWAP1 PUSH2 0xD18 SWAP2 SWAP1 PUSH2 0x2C96 JUMP JUMPDEST LT ISZERO PUSH2 0xD22 JUMPI PUSH0 PUSH0 REVERT JUMPDEST PUSH1 0x8 PUSH0 SWAP1 SLOAD SWAP1 PUSH2 0x100 EXP SWAP1 DIV PUSH1 0xFF AND ISZERO PUSH2 0xD71 JUMPI PUSH1 0x40 MLOAD PUSH32 0x8C379A000000000000000000000000000000000000000000000000000000000 DUP2 MSTORE PUSH1 0x4 ADD PUSH2 0xD68 SWAP1 PUSH2 0x281C JUMP JUMPDEST PUSH1 0x40 MLOAD DUP1 SWAP2 SUB SWAP1 REVERT JUMPDEST PUSH1 0x1 PUSH1 0x8 PUSH0 PUSH2 0x100 EXP DUP2 SLOAD DUP2 PUSH1 0xFF MUL NOT AND SWAP1 DUP4 ISZERO ISZERO MUL OR SWAP1 SSTORE POP PUSH1 0xA PUSH0 CALLER PUSH20 0xFFFFFFFFFFFFFFFFFFFFFFFFFFFFFFFFFFFFFFFF AND PUSH20 0xFFFFFFFFFFFFFFFFFFFFFFFFFFFFFFFFFFFFFFFF AND DUP2 MSTORE PUSH1 0x20 ADD SWAP1 DUP2 MSTORE PUSH1 0x20 ADD PUSH0 KECCAK256 PUSH0 DUP2 SLOAD DUP1 SWAP3 SWAP2 SWAP1 PUSH2 0xDD8 SWAP1 PUSH2 0x2CC1 JUMP JUMPDEST SWAP2 SWAP1 POP SSTORE POP DUP4 PUSH1 0xD PUSH0 CALLER PUSH20 0xFFFFFFFFFFFFFFFFFFFFFFFFFFFFFFFFFFFFFFFF AND PUSH20 0xFFFFFFFFFFFFFFFFFFFFFFFFFFFFFFFFFFFFFFFF AND DUP2 MSTORE PUSH1 0x20 ADD SWAP1 DUP2 MSTORE PUSH1 0x20 ADD PUSH0 KECCAK256 PUSH0 DUP3 DUP3 SLOAD PUSH2 0xE29 SWAP2 SWAP1 PUSH2 0x2B4A JUMP JUMPDEST SWAP3 POP POP DUP2 SWAP1 SSTORE POP PUSH0 PUSH3 0x93A80 DUP7 PUSH2 0xE40 SWAP2 SWAP1 PUSH2 0x2D08 JUMP JUMPDEST TIMESTAMP PUSH2 0xE4B SWAP2 SWAP1 PUSH2 0x2D49 JUMP JUMPDEST SWAP1 POP PUSH0 PUSH1 0x18 DUP8 LT ISZERO PUSH2 0xE60 JUMPI PUSH1 0x7 SWAP1 POP PUSH2 0xEA7 JUMP JUMPDEST PUSH1 0x18 DUP8 LT ISZERO DUP1 ISZERO PUSH2 0xE71 JUMPI POP PUSH1 0x68 DUP8 LT JUMPDEST ISZERO PUSH2 0xE7F JUMPI PUSH1 0x6 SWAP1 POP PUSH2 0xEA6 JUMP JUMPDEST PUSH1 0x68 DUP8 LT ISZERO DUP1 ISZERO PUSH2 0xE92 JUMPI POP PUSH2 0x104 DUP8 GT ISZERO JUMPDEST ISZERO PUSH2 0xEA0 JUMPI PUSH1 0x5 SWAP1 POP PUSH2 0xEA5 JUMP JUMPDEST PUSH1 0x4 SWAP1 POP JUMPDEST JUMPDEST JUMPDEST PUSH0 PUSH2 0x1450 DUP9 DUP4 DUP10 PUSH2 0xEB8 SWAP2 SWAP1 PUSH2 0x2D08 JUMP JUMPDEST PUSH2 0xEC2 SWAP2 SWAP1 PUSH2 0x2D08 JUMP JUMPDEST PUSH2 0xECC SWAP2 SWAP1 PUSH2 0x2DA9 JUMP JUMPDEST DUP8 PUSH2 0xED7 SWAP2 SWAP1 PUSH2 0x2D49 JUMP JUMPDEST SWAP1 POP PUSH1 0x9 PUSH0 CALLER PUSH20 0xFFFFFFFFFFFFFFFFFFFFFFFFFFFFFFFFFFFFFFFF AND PUSH20 0xFFFFFFFFFFFFFFFFFFFFFFFFFFFFFFFFFFFFFFFF AND DUP2 MSTORE PUSH1 0x20 ADD SWAP1 DUP2 MSTORE PUSH1 0x20 ADD PUSH0 KECCAK256 PUSH1 0x40 MLOAD DUP1 PUSH2 0x100 ADD PUSH1 0x40 MSTORE DUP1 TIMESTAMP DUP2 MSTORE PUSH1 0x20 ADD PUSH0 DUP2 MSTORE PUSH1 0x20 ADD PUSH1 0x1 PUSH1 0x9 PUSH0 CALLER PUSH20 0xFFFFFFFFFFFFFFFFFFFFFFFFFFFFFFFFFFFFFFFF AND PUSH20 0xFFFFFFFFFFFFFFFFFFFFFFFFFFFFFFFFFFFFFFFF AND DUP2 MSTORE PUSH1 0x20 ADD SWAP1 DUP2 MSTORE PUSH1 0x20 ADD PUSH0 KECCAK256 DUP1 SLOAD SWAP1 POP PUSH2 0xF7B SWAP2 SWAP1 PUSH2 0x2D49 JUMP JUMPDEST DUP2 MSTORE PUSH1 0x20 ADD PUSH1 0x40 MLOAD DUP1 PUSH1 0x40 ADD PUSH1 0x40 MSTORE DUP1 PUSH1 0x6 DUP2 MSTORE PUSH1 0x20 ADD PUSH32 0x4163746976650000000000000000000000000000000000000000000000000000 DUP2 MSTORE POP DUP2 MSTORE PUSH1 0x20 ADD DUP6 DUP2 MSTORE PUSH1 0x20 ADD DUP5 DUP2 MSTORE PUSH1 0x20 ADD DUP10 DUP2 MSTORE PUSH1 0x20 ADD DUP4 DUP2 MSTORE POP SWAP1 DUP1 PUSH1 0x1 DUP2 SLOAD ADD DUP1 DUP3 SSTORE DUP1 SWAP2 POP POP PUSH1 0x1 SWAP1 SUB SWAP1 PUSH0 MSTORE PUSH1 0x20 PUSH0 KECCAK256 SWAP1 PUSH1 0x8 MUL ADD PUSH0 SWAP1 SWAP2 SWAP1 SWAP2 SWAP1 SWAP2 POP PUSH0 DUP3 ADD MLOAD DUP2 PUSH0 ADD SSTORE PUSH1 0x20 DUP3 ADD MLOAD DUP2 PUSH1 0x1 ADD SSTORE PUSH1 0x40 DUP3 ADD MLOAD DUP2 PUSH1 0x2 ADD SSTORE PUSH1 0x60 DUP3 ADD MLOAD DUP2 PUSH1 0x3 ADD SWAP1 DUP2 PUSH2 0x1028 SWAP2 SWAP1 PUSH2 0x3003 JUMP JUMPDEST POP PUSH1 0x80 DUP3 ADD MLOAD DUP2 PUSH1 0x4 ADD SSTORE PUSH1 0xA0 DUP3 ADD MLOAD DUP2 PUSH1 0x5 ADD SSTORE PUSH1 0xC0 DUP3 ADD MLOAD DUP2 PUSH1 0x6 ADD SSTORE PUSH1 0xE0 DUP3 ADD MLOAD DUP2 PUSH1 0x7 ADD SSTORE POP POP PUSH2 0x105F PUSH1 0x2 PUSH1 0x3 PUSH2 0x1EE7 JUMP JUMPDEST PUSH1 0x2 DUP1 SLOAD SWAP1 POP PUSH1 0x4 DUP2 SWAP1 SSTORE POP PUSH0 CALLER PUSH20 0xFFFFFFFFFFFFFFFFFFFFFFFFFFFFFFFFFFFFFFFF AND DUP9 PUSH1 0x40 MLOAD PUSH2 0x1090 SWAP1 PUSH2 0x28CF JUMP JUMPDEST PUSH0 PUSH1 0x40 MLOAD DUP1 DUP4 SUB DUP2 DUP6 DUP8 GAS CALL SWAP3 POP POP POP RETURNDATASIZE DUP1 PUSH0 DUP2 EQ PUSH2 0x10CA JUMPI PUSH1 0x40 MLOAD SWAP2 POP PUSH1 0x1F NOT PUSH1 0x3F RETURNDATASIZE ADD AND DUP3 ADD PUSH1 0x40 MSTORE RETURNDATASIZE DUP3 MSTORE RETURNDATASIZE PUSH0 PUSH1 0x20 DUP5 ADD RETURNDATACOPY PUSH2 0x10CF JUMP JUMPDEST PUSH1 0x60 SWAP2 POP JUMPDEST POP POP SWAP1 POP DUP1 PUSH2 0x1113 JUMPI PUSH1 0x40 MLOAD PUSH32 0x8C379A000000000000000000000000000000000000000000000000000000000 DUP2 MSTORE PUSH1 0x4 ADD PUSH2 0x110A SWAP1 PUSH2 0x292D JUMP JUMPDEST PUSH1 0x40 MLOAD DUP1 SWAP2 SUB SWAP1 REVERT JUMPDEST POP POP POP POP PUSH0 PUSH1 0x8 PUSH0 PUSH2 0x100 EXP DUP2 SLOAD DUP2 PUSH1 0xFF MUL NOT AND SWAP1 DUP4 ISZERO ISZERO MUL OR SWAP1 SSTORE POP POP POP POP POP POP JUMP JUMPDEST PUSH0 PUSH0 PUSH2 0x1151 CALLER PUSH1 0x6 SLOAD PUSH1 0xB PUSH2 0x20FA SWAP1 SWAP3 SWAP2 SWAP1 PUSH4 0xFFFFFFFF AND JUMP JUMPDEST SWAP1 POP DUP1 PUSH1 0xC PUSH0 CALLER PUSH20 0xFFFFFFFFFFFFFFFFFFFFFFFFFFFFFFFFFFFFFFFF AND PUSH20 0xFFFFFFFFFFFFFFFFFFFFFFFFFFFFFFFFFFFFFFFF AND DUP2 MSTORE PUSH1 0x20 ADD SWAP1 DUP2 MSTORE PUSH1 0x20 ADD PUSH0 KECCAK256 DUP2 SWAP1 SSTORE POP PUSH1 0xC PUSH0 CALLER PUSH20 0xFFFFFFFFFFFFFFFFFFFFFFFFFFFFFFFFFFFFFFFF AND PUSH20 0xFFFFFFFFFFFFFFFFFFFFFFFFFFFFFFFFFFFFFFFF AND DUP2 MSTORE PUSH1 0x20 ADD SWAP1 DUP2 MSTORE PUSH1 0x20 ADD PUSH0 KECCAK256 SLOAD SWAP2 POP POP SWAP1 JUMP JUMPDEST PUSH1 0x60 PUSH1 0x2 DUP1 SLOAD DUP1 PUSH1 0x20 MUL PUSH1 0x20 ADD PUSH1 0x40 MLOAD SWAP1 DUP2 ADD PUSH1 0x40 MSTORE DUP1 SWAP3 SWAP2 SWAP1 DUP2 DUP2 MSTORE PUSH1 0x20 ADD DUP3 DUP1 SLOAD DUP1 ISZERO PUSH2 0x125A JUMPI PUSH1 0x20 MUL DUP3 ADD SWAP2 SWAP1 PUSH0 MSTORE PUSH1 0x20 PUSH0 KECCAK256 SWAP1 JUMPDEST DUP2 PUSH0 SWAP1 SLOAD SWAP1 PUSH2 0x100 EXP SWAP1 DIV PUSH20 0xFFFFFFFFFFFFFFFFFFFFFFFFFFFFFFFFFFFFFFFF AND PUSH20 0xFFFFFFFFFFFFFFFFFFFFFFFFFFFFFFFFFFFFFFFF AND DUP2 MSTORE PUSH1 0x20 ADD SWAP1 PUSH1 0x1 ADD SWAP1 DUP1 DUP4 GT PUSH2 0x1211 JUMPI JUMPDEST POP POP POP POP POP SWAP1 POP SWAP1 JUMP JUMPDEST PUSH1 0x6 SLOAD DUP2 JUMP JUMPDEST PUSH0 SELFBALANCE SWAP1 POP SWAP1 JUMP JUMPDEST PUSH1 0xA PUSH1 0x20 MSTORE DUP1 PUSH0 MSTORE PUSH1 0x40 PUSH0 KECCAK256 PUSH0 SWAP2 POP SWAP1 POP SLOAD DUP2 JUMP JUMPDEST PUSH0 PUSH0 SWAP1 SLOAD SWAP1 PUSH2 0x100 EXP SWAP1 DIV PUSH20 0xFFFFFFFFFFFFFFFFFFFFFFFFFFFFFFFFFFFFFFFF AND DUP2 JUMP JUMPDEST PUSH8 0x16345785D8A0000 CALLVALUE GT PUSH2 0x12F4 JUMPI PUSH1 0x40 MLOAD PUSH32 0x8C379A000000000000000000000000000000000000000000000000000000000 DUP2 MSTORE PUSH1 0x4 ADD PUSH2 0x12EB SWAP1 PUSH2 0x311C JUMP JUMPDEST PUSH1 0x40 MLOAD DUP1 SWAP2 SUB SWAP1 REVERT JUMPDEST CALLVALUE PUSH1 0xD PUSH0 CALLER PUSH20 0xFFFFFFFFFFFFFFFFFFFFFFFFFFFFFFFFFFFFFFFF AND PUSH20 0xFFFFFFFFFFFFFFFFFFFFFFFFFFFFFFFFFFFFFFFF AND DUP2 MSTORE PUSH1 0x20 ADD SWAP1 DUP2 MSTORE PUSH1 0x20 ADD PUSH0 KECCAK256 PUSH0 DUP3 DUP3 SLOAD PUSH2 0x1340 SWAP2 SWAP1 PUSH2 0x2D49 JUMP JUMPDEST SWAP3 POP POP DUP2 SWAP1 SSTORE POP PUSH2 0x1353 PUSH1 0x3 PUSH1 0x2 PUSH2 0x1EE7 JUMP JUMPDEST PUSH1 0x3 DUP1 SLOAD SWAP1 POP PUSH1 0x5 DUP2 SWAP1 SSTORE POP PUSH1 0xB PUSH0 CALLER PUSH20 0xFFFFFFFFFFFFFFFFFFFFFFFFFFFFFFFFFFFFFFFF AND PUSH20 0xFFFFFFFFFFFFFFFFFFFFFFFFFFFFFFFFFFFFFFFF AND DUP2 MSTORE PUSH1 0x20 ADD SWAP1 DUP2 MSTORE PUSH1 0x20 ADD PUSH0 KECCAK256 PUSH1 0x40 MLOAD DUP1 PUSH1 0x60 ADD PUSH1 0x40 MSTORE DUP1 PUSH1 0x1 PUSH1 0xB PUSH0 CALLER PUSH20 0xFFFFFFFFFFFFFFFFFFFFFFFFFFFFFFFFFFFFFFFF AND PUSH20 0xFFFFFFFFFFFFFFFFFFFFFFFFFFFFFFFFFFFFFFFF AND DUP2 MSTORE PUSH1 0x20 ADD SWAP1 DUP2 MSTORE PUSH1 0x20 ADD PUSH0 KECCAK256 DUP1 SLOAD SWAP1 POP PUSH2 0x13F4 SWAP2 SWAP1 PUSH2 0x2D49 JUMP JUMPDEST DUP2 MSTORE PUSH1 0x20 ADD TIMESTAMP DUP2 MSTORE PUSH1 0x20 ADD CALLVALUE DUP2 MSTORE POP SWAP1 DUP1 PUSH1 0x1 DUP2 SLOAD ADD DUP1 DUP3 SSTORE DUP1 SWAP2 POP POP PUSH1 0x1 SWAP1 SUB SWAP1 PUSH0 MSTORE PUSH1 0x20 PUSH0 KECCAK256 SWAP1 PUSH1 0x3 MUL ADD PUSH0 SWAP1 SWAP2 SWAP1 SWAP2 SWAP1 SWAP2 POP PUSH0 DUP3 ADD MLOAD DUP2 PUSH0 ADD SSTORE PUSH1 0x20 DUP3 ADD MLOAD DUP2 PUSH1 0x1 ADD SSTORE PUSH1 0x40 DUP3 ADD MLOAD DUP2 PUSH1 0x2 ADD SSTORE POP POP PUSH32 0xF6285A60C92FD2767BC48A572B64940A62BE26CB7C523E64BF3BD75A82062559 CALLER CALLVALUE TIMESTAMP PUSH1 0x40 MLOAD PUSH2 0x147A SWAP4 SWAP3 SWAP2 SWAP1 PUSH2 0x2B7D JUMP JUMPDEST PUSH1 0x40 MLOAD DUP1 SWAP2 SUB SWAP1 LOG1 JUMP JUMPDEST PUSH1 0x9 PUSH1 0x20 MSTORE DUP2 PUSH0 MSTORE PUSH1 0x40 PUSH0 KECCAK256 DUP2 DUP2 SLOAD DUP2 LT PUSH2 0x149D JUMPI PUSH0 DUP1 REVERT JUMPDEST SWAP1 PUSH0 MSTORE PUSH1 0x20 PUSH0 KECCAK256 SWAP1 PUSH1 0x8 MUL ADD PUSH0 SWAP2 POP SWAP2 POP POP DUP1 PUSH0 ADD SLOAD SWAP1 DUP1 PUSH1 0x1 ADD SLOAD SWAP1 DUP1 PUSH1 0x2 ADD SLOAD SWAP1 DUP1 PUSH1 0x3 ADD DUP1 SLOAD PUSH2 0x14CF SWAP1 PUSH2 0x2E33 JUMP JUMPDEST DUP1 PUSH1 0x1F ADD PUSH1 0x20 DUP1 SWAP2 DIV MUL PUSH1 0x20 ADD PUSH1 0x40 MLOAD SWAP1 DUP2 ADD PUSH1 0x40 MSTORE DUP1 SWAP3 SWAP2 SWAP1 DUP2 DUP2 MSTORE PUSH1 0x20 ADD DUP3 DUP1 SLOAD PUSH2 0x14FB SWAP1 PUSH2 0x2E33 JUMP JUMPDEST DUP1 ISZERO PUSH2 0x1546 JUMPI DUP1 PUSH1 0x1F LT PUSH2 0x151D JUMPI PUSH2 0x100 DUP1 DUP4 SLOAD DIV MUL DUP4 MSTORE SWAP2 PUSH1 0x20 ADD SWAP2 PUSH2 0x1546 JUMP JUMPDEST DUP3 ADD SWAP2 SWAP1 PUSH0 MSTORE PUSH1 0x20 PUSH0 KECCAK256 SWAP1 JUMPDEST DUP2 SLOAD DUP2 MSTORE SWAP1 PUSH1 0x1 ADD SWAP1 PUSH1 0x20 ADD DUP1 DUP4 GT PUSH2 0x1529 JUMPI DUP3 SWAP1 SUB PUSH1 0x1F AND DUP3 ADD SWAP2 JUMPDEST POP POP POP POP POP SWAP1 DUP1 PUSH1 0x4 ADD SLOAD SWAP1 DUP1 PUSH1 0x5 ADD SLOAD SWAP1 DUP1 PUSH1 0x6 ADD SLOAD SWAP1 DUP1 PUSH1 0x7 ADD SLOAD SWAP1 POP DUP9 JUMP JUMPDEST PUSH1 0x5 SLOAD DUP2 JUMP JUMPDEST PUSH1 0x60 PUSH1 0x3 DUP1 SLOAD DUP1 PUSH1 0x20 MUL PUSH1 0x20 ADD PUSH1 0x40 MLOAD SWAP1 DUP2 ADD PUSH1 0x40 MSTORE DUP1 SWAP3 SWAP2 SWAP1 DUP2 DUP2 MSTORE PUSH1 0x20 ADD DUP3 DUP1 SLOAD DUP1 ISZERO PUSH2 0x15EF JUMPI PUSH1 0x20 MUL DUP3 ADD SWAP2 SWAP1 PUSH0 MSTORE PUSH1 0x20 PUSH0 KECCAK256 SWAP1 JUMPDEST DUP2 PUSH0 SWAP1 SLOAD SWAP1 PUSH2 0x100 EXP SWAP1 DIV PUSH20 0xFFFFFFFFFFFFFFFFFFFFFFFFFFFFFFFFFFFFFFFF AND PUSH20 0xFFFFFFFFFFFFFFFFFFFFFFFFFFFFFFFFFFFFFFFF AND DUP2 MSTORE PUSH1 0x20 ADD SWAP1 PUSH1 0x1 ADD SWAP1 DUP1 DUP4 GT PUSH2 0x15A6 JUMPI JUMPDEST POP POP POP POP POP SWAP1 POP SWAP1 JUMP JUMPDEST PUSH1 0xD PUSH1 0x20 MSTORE DUP1 PUSH0 MSTORE PUSH1 0x40 PUSH0 KECCAK256 PUSH0 SWAP2 POP SWAP1 POP SLOAD DUP2 JUMP JUMPDEST PUSH1 0x4 SLOAD DUP2 JUMP JUMPDEST PUSH1 0x8 PUSH0 SWAP1 SLOAD SWAP1 PUSH2 0x100 EXP SWAP1 DIV PUSH1 0xFF AND ISZERO PUSH2 0x1663 JUMPI PUSH1 0x40 MLOAD PUSH32 0x8C379A000000000000000000000000000000000000000000000000000000000 DUP2 MSTORE PUSH1 0x4 ADD PUSH2 0x165A SWAP1 PUSH2 0x281C JUMP JUMPDEST PUSH1 0x40 MLOAD DUP1 SWAP2 SUB SWAP1 REVERT JUMPDEST PUSH1 0x1 PUSH1 0x8 PUSH0 PUSH2 0x100 EXP DUP2 SLOAD DUP2 PUSH1 0xFF MUL NOT AND SWAP1 DUP4 ISZERO ISZERO MUL OR SWAP1 SSTORE POP PUSH1 0x40 MLOAD DUP1 PUSH1 0x40 ADD PUSH1 0x40 MSTORE DUP1 PUSH1 0x6 DUP2 MSTORE PUSH1 0x20 ADD PUSH32 0x4163746976650000000000000000000000000000000000000000000000000000 DUP2 MSTORE POP DUP1 MLOAD SWAP1 PUSH1 0x20 ADD KECCAK256 PUSH1 0x9 PUSH0 CALLER PUSH20 0xFFFFFFFFFFFFFFFFFFFFFFFFFFFFFFFFFFFFFFFF AND PUSH20 0xFFFFFFFFFFFFFFFFFFFFFFFFFFFFFFFFFFFFFFFF AND DUP2 MSTORE PUSH1 0x20 ADD SWAP1 DUP2 MSTORE PUSH1 0x20 ADD PUSH0 KECCAK256 DUP3 DUP2 SLOAD DUP2 LT PUSH2 0x1709 JUMPI PUSH2 0x1708 PUSH2 0x294B JUMP JUMPDEST JUMPDEST SWAP1 PUSH0 MSTORE PUSH1 0x20 PUSH0 KECCAK256 SWAP1 PUSH1 0x8 MUL ADD PUSH1 0x3 ADD PUSH1 0x40 MLOAD PUSH2 0x1725 SWAP2 SWAP1 PUSH2 0x31CC JUMP JUMPDEST PUSH1 0x40 MLOAD DUP1 SWAP2 SUB SWAP1 KECCAK256 EQ PUSH2 0x176D JUMPI PUSH1 0x40 MLOAD PUSH32 0x8C379A000000000000000000000000000000000000000000000000000000000 DUP2 MSTORE PUSH1 0x4 ADD PUSH2 0x1764 SWAP1 PUSH2 0x322C JUMP JUMPDEST PUSH1 0x40 MLOAD DUP1 SWAP2 SUB SWAP1 REVERT JUMPDEST PUSH0 CALLVALUE GT PUSH2 0x17AF JUMPI PUSH1 0x40 MLOAD PUSH32 0x8C379A000000000000000000000000000000000000000000000000000000000 DUP2 MSTORE PUSH1 0x4 ADD PUSH2 0x17A6 SWAP1 PUSH2 0x3294 JUMP JUMPDEST PUSH1 0x40 MLOAD DUP1 SWAP2 SUB SWAP1 REVERT JUMPDEST PUSH1 0x9 PUSH0 CALLER PUSH20 0xFFFFFFFFFFFFFFFFFFFFFFFFFFFFFFFFFFFFFFFF AND PUSH20 0xFFFFFFFFFFFFFFFFFFFFFFFFFFFFFFFFFFFFFFFF AND DUP2 MSTORE PUSH1 0x20 ADD SWAP1 DUP2 MSTORE PUSH1 0x20 ADD PUSH0 KECCAK256 DUP1 SLOAD SWAP1 POP DUP2 LT PUSH2 0x1831 JUMPI PUSH1 0x40 MLOAD PUSH32 0x8C379A000000000000000000000000000000000000000000000000000000000 DUP2 MSTORE PUSH1 0x4 ADD PUSH2 0x1828 SWAP1 PUSH2 0x32FC JUMP JUMPDEST PUSH1 0x40 MLOAD DUP1 SWAP2 SUB SWAP1 REVERT JUMPDEST PUSH1 0x9 PUSH0 CALLER PUSH20 0xFFFFFFFFFFFFFFFFFFFFFFFFFFFFFFFFFFFFFFFF AND PUSH20 0xFFFFFFFFFFFFFFFFFFFFFFFFFFFFFFFFFFFFFFFF AND DUP2 MSTORE PUSH1 0x20 ADD SWAP1 DUP2 MSTORE PUSH1 0x20 ADD PUSH0 KECCAK256 DUP2 DUP2 SLOAD DUP2 LT PUSH2 0x1880 JUMPI PUSH2 0x187F PUSH2 0x294B JUMP JUMPDEST JUMPDEST SWAP1 PUSH0 MSTORE PUSH1 0x20 PUSH0 KECCAK256 SWAP1 PUSH1 0x8 MUL ADD PUSH1 0x4 ADD SLOAD TIMESTAMP GT ISZERO PUSH2 0x1914 JUMPI PUSH2 0x18A0 DUP2 PUSH2 0x22BF JUMP JUMPDEST PUSH1 0x9 PUSH0 CALLER PUSH20 0xFFFFFFFFFFFFFFFFFFFFFFFFFFFFFFFFFFFFFFFF AND PUSH20 0xFFFFFFFFFFFFFFFFFFFFFFFFFFFFFFFFFFFFFFFF AND DUP2 MSTORE PUSH1 0x20 ADD SWAP1 DUP2 MSTORE PUSH1 0x20 ADD PUSH0 KECCAK256 DUP3 DUP2 SLOAD DUP2 LT PUSH2 0x18EF JUMPI PUSH2 0x18EE PUSH2 0x294B JUMP JUMPDEST JUMPDEST SWAP1 PUSH0 MSTORE PUSH1 0x20 PUSH0 KECCAK256 SWAP1 PUSH1 0x8 MUL ADD PUSH1 0x7 ADD PUSH0 DUP3 DUP3 SLOAD PUSH2 0x190C SWAP2 SWAP1 PUSH2 0x2D49 JUMP JUMPDEST SWAP3 POP POP DUP2 SWAP1 SSTORE POP JUMPDEST PUSH1 0x9 PUSH0 CALLER PUSH20 0xFFFFFFFFFFFFFFFFFFFFFFFFFFFFFFFFFFFFFFFF AND PUSH20 0xFFFFFFFFFFFFFFFFFFFFFFFFFFFFFFFFFFFFFFFF AND DUP2 MSTORE PUSH1 0x20 ADD SWAP1 DUP2 MSTORE PUSH1 0x20 ADD PUSH0 KECCAK256 DUP2 DUP2 SLOAD DUP2 LT PUSH2 0x1963 JUMPI PUSH2 0x1962 PUSH2 0x294B JUMP JUMPDEST JUMPDEST SWAP1 PUSH0 MSTORE PUSH1 0x20 PUSH0 KECCAK256 SWAP1 PUSH1 0x8 MUL ADD PUSH1 0x7 ADD SLOAD CALLVALUE GT ISZERO PUSH2 0x1B95 JUMPI PUSH0 PUSH1 0x9 PUSH0 CALLER PUSH20 0xFFFFFFFFFFFFFFFFFFFFFFFFFFFFFFFFFFFFFFFF AND PUSH20 0xFFFFFFFFFFFFFFFFFFFFFFFFFFFFFFFFFFFFFFFF AND DUP2 MSTORE PUSH1 0x20 ADD SWAP1 DUP2 MSTORE PUSH1 0x20 ADD PUSH0 KECCAK256 DUP3 DUP2 SLOAD DUP2 LT PUSH2 0x19CA JUMPI PUSH2 0x19C9 PUSH2 0x294B JUMP JUMPDEST JUMPDEST SWAP1 PUSH0 MSTORE PUSH1 0x20 PUSH0 KECCAK256 SWAP1 PUSH1 0x8 MUL ADD PUSH1 0x7 ADD SLOAD CALLVALUE PUSH2 0x19E5 SWAP2 SWAP1 PUSH2 0x2B4A JUMP JUMPDEST SWAP1 POP DUP1 CALLVALUE PUSH2 0x19F3 SWAP2 SWAP1 PUSH2 0x2B4A JUMP JUMPDEST PUSH1 0xD PUSH0 CALLER PUSH20 0xFFFFFFFFFFFFFFFFFFFFFFFFFFFFFFFFFFFFFFFF AND PUSH20 0xFFFFFFFFFFFFFFFFFFFFFFFFFFFFFFFFFFFFFFFF AND DUP2 MSTORE PUSH1 0x20 ADD SWAP1 DUP2 MSTORE PUSH1 0x20 ADD PUSH0 KECCAK256 PUSH0 DUP3 DUP3 SLOAD PUSH2 0x1A3E SWAP2 SWAP1 PUSH2 0x2D49 JUMP JUMPDEST SWAP3 POP POP DUP2 SWAP1 SSTORE POP PUSH1 0x40 MLOAD DUP1 PUSH1 0x40 ADD PUSH1 0x40 MSTORE DUP1 PUSH1 0x4 DUP2 MSTORE PUSH1 0x20 ADD PUSH32 0x5061696400000000000000000000000000000000000000000000000000000000 DUP2 MSTORE POP PUSH1 0x9 PUSH0 CALLER PUSH20 0xFFFFFFFFFFFFFFFFFFFFFFFFFFFFFFFFFFFFFFFF AND PUSH20 0xFFFFFFFFFFFFFFFFFFFFFFFFFFFFFFFFFFFFFFFF AND DUP2 MSTORE PUSH1 0x20 ADD SWAP1 DUP2 MSTORE PUSH1 0x20 ADD PUSH0 KECCAK256 DUP4 DUP2 SLOAD DUP2 LT PUSH2 0x1ACA JUMPI PUSH2 0x1AC9 PUSH2 0x294B JUMP JUMPDEST JUMPDEST SWAP1 PUSH0 MSTORE PUSH1 0x20 PUSH0 KECCAK256 SWAP1 PUSH1 0x8 MUL ADD PUSH1 0x3 ADD SWAP1 DUP2 PUSH2 0x1AE5 SWAP2 SWAP1 PUSH2 0x3003 JUMP JUMPDEST POP PUSH0 CALLER PUSH20 0xFFFFFFFFFFFFFFFFFFFFFFFFFFFFFFFFFFFFFFFF AND DUP3 PUSH1 0x40 MLOAD PUSH2 0x1B0B SWAP1 PUSH2 0x28CF JUMP JUMPDEST PUSH0 PUSH1 0x40 MLOAD DUP1 DUP4 SUB DUP2 DUP6 DUP8 GAS CALL SWAP3 POP POP POP RETURNDATASIZE DUP1 PUSH0 DUP2 EQ PUSH2 0x1B45 JUMPI PUSH1 0x40 MLOAD SWAP2 POP PUSH1 0x1F NOT PUSH1 0x3F RETURNDATASIZE ADD AND DUP3 ADD PUSH1 0x40 MSTORE RETURNDATASIZE DUP3 MSTORE RETURNDATASIZE PUSH0 PUSH1 0x20 DUP5 ADD RETURNDATACOPY PUSH2 0x1B4A JUMP JUMPDEST PUSH1 0x60 SWAP2 POP JUMPDEST POP POP SWAP1 POP DUP1 PUSH2 0x1B8E JUMPI PUSH1 0x40 MLOAD PUSH32 0x8C379A000000000000000000000000000000000000000000000000000000000 DUP2 MSTORE PUSH1 0x4 ADD PUSH2 0x1B85 SWAP1 PUSH2 0x292D JUMP JUMPDEST PUSH1 0x40 MLOAD DUP1 SWAP2 SUB SWAP1 REVERT JUMPDEST POP POP PUSH2 0x1D2F JUMP JUMPDEST PUSH1 0x9 PUSH0 CALLER PUSH20 0xFFFFFFFFFFFFFFFFFFFFFFFFFFFFFFFFFFFFFFFF AND PUSH20 0xFFFFFFFFFFFFFFFFFFFFFFFFFFFFFFFFFFFFFFFF AND DUP2 MSTORE PUSH1 0x20 ADD SWAP1 DUP2 MSTORE PUSH1 0x20 ADD PUSH0 KECCAK256 DUP2 DUP2 SLOAD DUP2 LT PUSH2 0x1BE4 JUMPI PUSH2 0x1BE3 PUSH2 0x294B JUMP JUMPDEST JUMPDEST SWAP1 PUSH0 MSTORE PUSH1 0x20 PUSH0 KECCAK256 SWAP1 PUSH1 0x8 MUL ADD PUSH1 0x7 ADD SLOAD CALLVALUE SUB PUSH2 0x1CF3 JUMPI CALLVALUE PUSH1 0xD PUSH0 CALLER PUSH20 0xFFFFFFFFFFFFFFFFFFFFFFFFFFFFFFFFFFFFFFFF AND PUSH20 0xFFFFFFFFFFFFFFFFFFFFFFFFFFFFFFFFFFFFFFFF AND DUP2 MSTORE PUSH1 0x20 ADD SWAP1 DUP2 MSTORE PUSH1 0x20 ADD PUSH0 KECCAK256 PUSH0 DUP3 DUP3 SLOAD PUSH2 0x1C46 SWAP2 SWAP1 PUSH2 0x2D49 JUMP JUMPDEST SWAP3 POP POP DUP2 SWAP1 SSTORE POP PUSH1 0x40 MLOAD DUP1 PUSH1 0x40 ADD PUSH1 0x40 MSTORE DUP1 PUSH1 0x4 DUP2 MSTORE PUSH1 0x20 ADD PUSH32 0x5061696400000000000000000000000000000000000000000000000000000000 DUP2 MSTORE POP PUSH1 0x9 PUSH0 CALLER PUSH20 0xFFFFFFFFFFFFFFFFFFFFFFFFFFFFFFFFFFFFFFFF AND PUSH20 0xFFFFFFFFFFFFFFFFFFFFFFFFFFFFFFFFFFFFFFFF AND DUP2 MSTORE PUSH1 0x20 ADD SWAP1 DUP2 MSTORE PUSH1 0x20 ADD PUSH0 KECCAK256 DUP3 DUP2 SLOAD DUP2 LT PUSH2 0x1CD2 JUMPI PUSH2 0x1CD1 PUSH2 0x294B JUMP JUMPDEST JUMPDEST SWAP1 PUSH0 MSTORE PUSH1 0x20 PUSH0 KECCAK256 SWAP1 PUSH1 0x8 MUL ADD PUSH1 0x3 ADD SWAP1 DUP2 PUSH2 0x1CED SWAP2 SWAP1 PUSH2 0x3003 JUMP JUMPDEST POP PUSH2 0x1D2E JUMP JUMPDEST PUSH1 0x40 MLOAD PUSH32 0x8C379A000000000000000000000000000000000000000000000000000000000 DUP2 MSTORE PUSH1 0x4 ADD PUSH2 0x1D25 SWAP1 PUSH2 0x338A JUMP JUMPDEST PUSH1 0x40 MLOAD DUP1 SWAP2 SUB SWAP1 REVERT JUMPDEST JUMPDEST TIMESTAMP PUSH1 0x9 PUSH0 CALLER PUSH20 0xFFFFFFFFFFFFFFFFFFFFFFFFFFFFFFFFFFFFFFFF AND PUSH20 0xFFFFFFFFFFFFFFFFFFFFFFFFFFFFFFFFFFFFFFFF AND DUP2 MSTORE PUSH1 0x20 ADD SWAP1 DUP2 MSTORE PUSH1 0x20 ADD PUSH0 KECCAK256 DUP3 DUP2 SLOAD DUP2 LT PUSH2 0x1D7F JUMPI PUSH2 0x1D7E PUSH2 0x294B JUMP JUMPDEST JUMPDEST SWAP1 PUSH0 MSTORE PUSH1 0x20 PUSH0 KECCAK256 SWAP1 PUSH1 0x8 MUL ADD PUSH1 0x1 ADD DUP2 SWAP1 SSTORE POP PUSH32 0x54D1B8845FF9C436636B708CDE6357819C40D995C0F6A2D794032C96F33C6A43 CALLER PUSH1 0x9 PUSH0 CALLER PUSH20 0xFFFFFFFFFFFFFFFFFFFFFFFFFFFFFFFFFFFFFFFF AND PUSH20 0xFFFFFFFFFFFFFFFFFFFFFFFFFFFFFFFFFFFFFFFF AND DUP2 MSTORE PUSH1 0x20 ADD SWAP1 DUP2 MSTORE PUSH1 0x20 ADD PUSH0 KECCAK256 DUP4 DUP2 SLOAD DUP2 LT PUSH2 0x1E03 JUMPI PUSH2 0x1E02 PUSH2 0x294B JUMP JUMPDEST JUMPDEST SWAP1 PUSH0 MSTORE PUSH1 0x20 PUSH0 KECCAK256 SWAP1 PUSH1 0x8 MUL ADD PUSH1 0x7 ADD SLOAD TIMESTAMP PUSH1 0x9 PUSH0 CALLER PUSH20 0xFFFFFFFFFFFFFFFFFFFFFFFFFFFFFFFFFFFFFFFF AND PUSH20 0xFFFFFFFFFFFFFFFFFFFFFFFFFFFFFFFFFFFFFFFF AND DUP2 MSTORE PUSH1 0x20 ADD SWAP1 DUP2 MSTORE PUSH1 0x20 ADD PUSH0 KECCAK256 DUP6 DUP2 SLOAD DUP2 LT PUSH2 0x1E63 JUMPI PUSH2 0x1E62 PUSH2 0x294B JUMP JUMPDEST JUMPDEST SWAP1 PUSH0 MSTORE PUSH1 0x20 PUSH0 KECCAK256 SWAP1 PUSH1 0x8 MUL ADD PUSH1 0x6 ADD SLOAD PUSH1 0x40 MLOAD PUSH2 0x1E83 SWAP5 SWAP4 SWAP3 SWAP2 SWAP1 PUSH2 0x33A8 JUMP JUMPDEST PUSH1 0x40 MLOAD DUP1 SWAP2 SUB SWAP1 LOG1 PUSH0 PUSH1 0x8 PUSH0 PUSH2 0x100 EXP DUP2 SLOAD DUP2 PUSH1 0xFF MUL NOT AND SWAP1 DUP4 ISZERO ISZERO MUL OR SWAP1 SSTORE POP POP JUMP JUMPDEST PUSH1 0xB PUSH1 0x20 MSTORE DUP2 PUSH0 MSTORE PUSH1 0x40 PUSH0 KECCAK256 DUP2 DUP2 SLOAD DUP2 LT PUSH2 0x1EC0 JUMPI PUSH0 DUP1 REVERT JUMPDEST SWAP1 PUSH0 MSTORE PUSH1 0x20 PUSH0 KECCAK256 SWAP1 PUSH1 0x3 MUL ADD PUSH0 SWAP2 POP SWAP2 POP POP DUP1 PUSH0 ADD SLOAD SWAP1 DUP1 PUSH1 0x1 ADD SLOAD SWAP1 DUP1 PUSH1 0x2 ADD SLOAD SWAP1 POP DUP4 JUMP JUMPDEST PUSH0 PUSH0 PUSH0 PUSH0 SWAP1 POP JUMPDEST DUP5 DUP1 SLOAD SWAP1 POP DUP2 LT ISZERO PUSH2 0x1F7D JUMPI CALLER PUSH20 0xFFFFFFFFFFFFFFFFFFFFFFFFFFFFFFFFFFFFFFFF AND DUP6 DUP3 DUP2 SLOAD DUP2 LT PUSH2 0x1F24 JUMPI PUSH2 0x1F23 PUSH2 0x294B JUMP JUMPDEST JUMPDEST SWAP1 PUSH0 MSTORE PUSH1 0x20 PUSH0 KECCAK256 ADD PUSH0 SWAP1 SLOAD SWAP1 PUSH2 0x100 EXP SWAP1 DIV PUSH20 0xFFFFFFFFFFFFFFFFFFFFFFFFFFFFFFFFFFFFFFFF AND PUSH20 0xFFFFFFFFFFFFFFFFFFFFFFFFFFFFFFFFFFFFFFFF AND SUB PUSH2 0x1F70 JUMPI PUSH1 0x1 SWAP3 POP PUSH2 0x1F7D JUMP JUMPDEST DUP1 DUP1 PUSH1 0x1 ADD SWAP2 POP POP PUSH2 0x1EEE JUMP JUMPDEST POP DUP2 PUSH2 0x1FE3 JUMPI DUP4 CALLER SWAP1 DUP1 PUSH1 0x1 DUP2 SLOAD ADD DUP1 DUP3 SSTORE DUP1 SWAP2 POP POP PUSH1 0x1 SWAP1 SUB SWAP1 PUSH0 MSTORE PUSH1 0x20 PUSH0 KECCAK256 ADD PUSH0 SWAP1 SWAP2 SWAP1 SWAP2 SWAP1 SWAP2 PUSH2 0x100 EXP DUP2 SLOAD DUP2 PUSH20 0xFFFFFFFFFFFFFFFFFFFFFFFFFFFFFFFFFFFFFFFF MUL NOT AND SWAP1 DUP4 PUSH20 0xFFFFFFFFFFFFFFFFFFFFFFFFFFFFFFFFFFFFFFFF AND MUL OR SWAP1 SSTORE POP JUMPDEST PUSH0 PUSH0 SWAP1 POP JUMPDEST DUP4 DUP1 SLOAD SWAP1 POP DUP2 LT ISZERO PUSH2 0x2077 JUMPI CALLER PUSH20 0xFFFFFFFFFFFFFFFFFFFFFFFFFFFFFFFFFFFFFFFF AND DUP5 DUP3 DUP2 SLOAD DUP2 LT PUSH2 0x201E JUMPI PUSH2 0x201D PUSH2 0x294B JUMP JUMPDEST JUMPDEST SWAP1 PUSH0 MSTORE PUSH1 0x20 PUSH0 KECCAK256 ADD PUSH0 SWAP1 SLOAD SWAP1 PUSH2 0x100 EXP SWAP1 DIV PUSH20 0xFFFFFFFFFFFFFFFFFFFFFFFFFFFFFFFFFFFFFFFF AND PUSH20 0xFFFFFFFFFFFFFFFFFFFFFFFFFFFFFFFFFFFFFFFF AND SUB PUSH2 0x206A JUMPI PUSH1 0x1 SWAP2 POP PUSH2 0x2077 JUMP JUMPDEST DUP1 DUP1 PUSH1 0x1 ADD SWAP2 POP POP PUSH2 0x1FE8 JUMP JUMPDEST POP PUSH0 ISZERO ISZERO DUP3 ISZERO ISZERO EQ DUP1 ISZERO PUSH2 0x208E JUMPI POP PUSH0 ISZERO ISZERO DUP2 ISZERO ISZERO EQ JUMPDEST ISZERO PUSH2 0x20F4 JUMPI PUSH1 0x1 CALLER SWAP1 DUP1 PUSH1 0x1 DUP2 SLOAD ADD DUP1 DUP3 SSTORE DUP1 SWAP2 POP POP PUSH1 0x1 SWAP1 SUB SWAP1 PUSH0 MSTORE PUSH1 0x20 PUSH0 KECCAK256 ADD PUSH0 SWAP1 SWAP2 SWAP1 SWAP2 SWAP1 SWAP2 PUSH2 0x100 EXP DUP2 SLOAD DUP2 PUSH20 0xFFFFFFFFFFFFFFFFFFFFFFFFFFFFFFFFFFFFFFFF MUL NOT AND SWAP1 DUP4 PUSH20 0xFFFFFFFFFFFFFFFFFFFFFFFFFFFFFFFFFFFFFFFF AND MUL OR SWAP1 SSTORE POP JUMPDEST POP POP POP POP JUMP JUMPDEST PUSH0 PUSH0 PUSH0 PUSH0 SWAP1 POP JUMPDEST DUP6 PUSH0 DUP7 PUSH20 0xFFFFFFFFFFFFFFFFFFFFFFFFFFFFFFFFFFFFFFFF AND PUSH20 0xFFFFFFFFFFFFFFFFFFFFFFFFFFFFFFFFFFFFFFFF AND DUP2 MSTORE PUSH1 0x20 ADD SWAP1 DUP2 MSTORE PUSH1 0x20 ADD PUSH0 KECCAK256 DUP1 SLOAD SWAP1 POP DUP2 LT ISZERO PUSH2 0x22B3 JUMPI PUSH0 DUP7 PUSH0 DUP8 PUSH20 0xFFFFFFFFFFFFFFFFFFFFFFFFFFFFFFFFFFFFFFFF AND PUSH20 0xFFFFFFFFFFFFFFFFFFFFFFFFFFFFFFFFFFFFFFFF AND DUP2 MSTORE PUSH1 0x20 ADD SWAP1 DUP2 MSTORE PUSH1 0x20 ADD PUSH0 KECCAK256 DUP3 DUP2 SLOAD DUP2 LT PUSH2 0x2197 JUMPI PUSH2 0x2196 PUSH2 0x294B JUMP JUMPDEST JUMPDEST SWAP1 PUSH0 MSTORE PUSH1 0x20 PUSH0 KECCAK256 SWAP1 PUSH1 0x3 MUL ADD PUSH1 0x2 ADD SLOAD SUB ISZERO PUSH2 0x22A6 JUMPI PUSH4 0xBBF81E00 DUP7 PUSH0 DUP8 PUSH20 0xFFFFFFFFFFFFFFFFFFFFFFFFFFFFFFFFFFFFFFFF AND PUSH20 0xFFFFFFFFFFFFFFFFFFFFFFFFFFFFFFFFFFFFFFFF AND DUP2 MSTORE PUSH1 0x20 ADD SWAP1 DUP2 MSTORE PUSH1 0x20 ADD PUSH0 KECCAK256 DUP3 DUP2 SLOAD DUP2 LT PUSH2 0x2200 JUMPI PUSH2 0x21FF PUSH2 0x294B JUMP JUMPDEST JUMPDEST SWAP1 PUSH0 MSTORE PUSH1 0x20 PUSH0 KECCAK256 SWAP1 PUSH1 0x3 MUL ADD PUSH1 0x2 ADD SLOAD DUP6 DUP9 PUSH0 DUP10 PUSH20 0xFFFFFFFFFFFFFFFFFFFFFFFFFFFFFFFFFFFFFFFF AND PUSH20 0xFFFFFFFFFFFFFFFFFFFFFFFFFFFFFFFFFFFFFFFF AND DUP2 MSTORE PUSH1 0x20 ADD SWAP1 DUP2 MSTORE PUSH1 0x20 ADD PUSH0 KECCAK256 DUP5 DUP2 SLOAD DUP2 LT PUSH2 0x225F JUMPI PUSH2 0x225E PUSH2 0x294B JUMP JUMPDEST JUMPDEST SWAP1 PUSH0 MSTORE PUSH1 0x20 PUSH0 KECCAK256 SWAP1 PUSH1 0x3 MUL ADD PUSH1 0x1 ADD SLOAD TIMESTAMP PUSH2 0x227A SWAP2 SWAP1 PUSH2 0x2B4A JUMP JUMPDEST PUSH2 0x2284 SWAP2 SWAP1 PUSH2 0x2D08 JUMP JUMPDEST PUSH2 0x228E SWAP2 SWAP1 PUSH2 0x2D08 JUMP JUMPDEST PUSH2 0x2298 SWAP2 SWAP1 PUSH2 0x2DA9 JUMP JUMPDEST DUP3 PUSH2 0x22A3 SWAP2 SWAP1 PUSH2 0x2D49 JUMP JUMPDEST SWAP2 POP JUMPDEST DUP1 DUP1 PUSH1 0x1 ADD SWAP2 POP POP PUSH2 0x2101 JUMP JUMPDEST POP DUP1 SWAP2 POP POP SWAP4 SWAP3 POP POP POP JUMP JUMPDEST PUSH0 PUSH0 PUSH2 0x22D9 DUP4 PUSH1 0x7 SLOAD PUSH1 0x9 PUSH2 0x22E4 SWAP1 SWAP3 SWAP2 SWAP1 PUSH4 0xFFFFFFFF AND JUMP JUMPDEST SWAP1 POP DUP1 SWAP2 POP POP SWAP2 SWAP1 POP JUMP JUMPDEST PUSH0 PUSH0 PUSH3 0x15180 DUP6 PUSH0 CALLER PUSH20 0xFFFFFFFFFFFFFFFFFFFFFFFFFFFFFFFFFFFFFFFF AND PUSH20 0xFFFFFFFFFFFFFFFFFFFFFFFFFFFFFFFFFFFFFFFF AND DUP2 MSTORE PUSH1 0x20 ADD SWAP1 DUP2 MSTORE PUSH1 0x20 ADD PUSH0 KECCAK256 DUP6 DUP2 SLOAD DUP2 LT PUSH2 0x2338 JUMPI PUSH2 0x2337 PUSH2 0x294B JUMP JUMPDEST JUMPDEST SWAP1 PUSH0 MSTORE PUSH1 0x20 PUSH0 KECCAK256 SWAP1 PUSH1 0x8 MUL ADD PUSH1 0x4 ADD SLOAD TIMESTAMP PUSH2 0x2353 SWAP2 SWAP1 PUSH2 0x2B4A JUMP JUMPDEST PUSH2 0x235D SWAP2 SWAP1 PUSH2 0x2DA9 JUMP JUMPDEST SWAP1 POP PUSH0 PUSH2 0x8E94 DUP3 DUP6 DUP9 PUSH0 CALLER PUSH20 0xFFFFFFFFFFFFFFFFFFFFFFFFFFFFFFFFFFFFFFFF AND PUSH20 0xFFFFFFFFFFFFFFFFFFFFFFFFFFFFFFFFFFFFFFFF AND DUP2 MSTORE PUSH1 0x20 ADD SWAP1 DUP2 MSTORE PUSH1 0x20 ADD PUSH0 KECCAK256 DUP9 DUP2 SLOAD DUP2 LT PUSH2 0x23B3 JUMPI PUSH2 0x23B2 PUSH2 0x294B JUMP JUMPDEST JUMPDEST SWAP1 PUSH0 MSTORE PUSH1 0x20 PUSH0 KECCAK256 SWAP1 PUSH1 0x8 MUL ADD PUSH1 0x6 ADD SLOAD PUSH2 0x23CD SWAP2 SWAP1 PUSH2 0x2D08 JUMP JUMPDEST PUSH2 0x23D7 SWAP2 SWAP1 PUSH2 0x2D08 JUMP JUMPDEST PUSH2 0x23E1 SWAP2 SWAP1 PUSH2 0x2DA9 JUMP JUMPDEST SWAP1 POP DUP1 SWAP3 POP POP POP SWAP4 SWAP3 POP POP POP JUMP JUMPDEST PUSH0 DUP2 SWAP1 POP SWAP2 SWAP1 POP JUMP JUMPDEST PUSH2 0x2401 DUP2 PUSH2 0x23EF JUMP JUMPDEST DUP3 MSTORE POP POP JUMP JUMPDEST PUSH0 PUSH1 0x20 DUP3 ADD SWAP1 POP PUSH2 0x241A PUSH0 DUP4 ADD DUP5 PUSH2 0x23F8 JUMP JUMPDEST SWAP3 SWAP2 POP POP JUMP JUMPDEST PUSH0 PUSH0 REVERT JUMPDEST PUSH0 PUSH20 0xFFFFFFFFFFFFFFFFFFFFFFFFFFFFFFFFFFFFFFFF DUP3 AND SWAP1 POP SWAP2 SWAP1 POP JUMP JUMPDEST PUSH0 PUSH2 0x244D DUP3 PUSH2 0x2424 JUMP JUMPDEST SWAP1 POP SWAP2 SWAP1 POP JUMP JUMPDEST PUSH2 0x245D DUP2 PUSH2 0x2443 JUMP JUMPDEST DUP2 EQ PUSH2 0x2467 JUMPI PUSH0 PUSH0 REVERT JUMPDEST POP JUMP JUMPDEST PUSH0 DUP2 CALLDATALOAD SWAP1 POP PUSH2 0x2478 DUP2 PUSH2 0x2454 JUMP JUMPDEST SWAP3 SWAP2 POP POP JUMP JUMPDEST PUSH0 PUSH1 0x20 DUP3 DUP5 SUB SLT ISZERO PUSH2 0x2493 JUMPI PUSH2 0x2492 PUSH2 0x2420 JUMP JUMPDEST JUMPDEST PUSH0 PUSH2 0x24A0 DUP5 DUP3 DUP6 ADD PUSH2 0x246A JUMP JUMPDEST SWAP2 POP POP SWAP3 SWAP2 POP POP JUMP JUMPDEST PUSH2 0x24B2 DUP2 PUSH2 0x23EF JUMP JUMPDEST DUP2 EQ PUSH2 0x24BC JUMPI PUSH0 PUSH0 REVERT JUMPDEST POP JUMP JUMPDEST PUSH0 DUP2 CALLDATALOAD SWAP1 POP PUSH2 0x24CD DUP2 PUSH2 0x24A9 JUMP JUMPDEST SWAP3 SWAP2 POP POP JUMP JUMPDEST PUSH0 PUSH1 0x20 DUP3 DUP5 SUB SLT ISZERO PUSH2 0x24E8 JUMPI PUSH2 0x24E7 PUSH2 0x2420 JUMP JUMPDEST JUMPDEST PUSH0 PUSH2 0x24F5 DUP5 DUP3 DUP6 ADD PUSH2 0x24BF JUMP JUMPDEST SWAP2 POP POP SWAP3 SWAP2 POP POP JUMP JUMPDEST PUSH0 PUSH0 PUSH1 0x40 DUP4 DUP6 SUB SLT ISZERO PUSH2 0x2514 JUMPI PUSH2 0x2513 PUSH2 0x2420 JUMP JUMPDEST JUMPDEST PUSH0 PUSH2 0x2521 DUP6 DUP3 DUP7 ADD PUSH2 0x24BF JUMP JUMPDEST SWAP3 POP POP PUSH1 0x20 PUSH2 0x2532 DUP6 DUP3 DUP7 ADD PUSH2 0x24BF JUMP JUMPDEST SWAP2 POP POP SWAP3 POP SWAP3 SWAP1 POP JUMP JUMPDEST PUSH0 DUP2 MLOAD SWAP1 POP SWAP2 SWAP1 POP JUMP JUMPDEST PUSH0 DUP3 DUP3 MSTORE PUSH1 0x20 DUP3 ADD SWAP1 POP SWAP3 SWAP2 POP POP JUMP JUMPDEST PUSH0 DUP2 SWAP1 POP PUSH1 0x20 DUP3 ADD SWAP1 POP SWAP2 SWAP1 POP JUMP JUMPDEST PUSH2 0x256E DUP2 PUSH2 0x2443 JUMP JUMPDEST DUP3 MSTORE POP POP JUMP JUMPDEST PUSH0 PUSH2 0x257F DUP4 DUP4 PUSH2 0x2565 JUMP JUMPDEST PUSH1 0x20 DUP4 ADD SWAP1 POP SWAP3 SWAP2 POP POP JUMP JUMPDEST PUSH0 PUSH1 0x20 DUP3 ADD SWAP1 POP SWAP2 SWAP1 POP JUMP JUMPDEST PUSH0 PUSH2 0x25A1 DUP3 PUSH2 0x253C JUMP JUMPDEST PUSH2 0x25AB DUP2 DUP6 PUSH2 0x2546 JUMP JUMPDEST SWAP4 POP PUSH2 0x25B6 DUP4 PUSH2 0x2556 JUMP JUMPDEST DUP1 PUSH0 JUMPDEST DUP4 DUP2 LT ISZERO PUSH2 0x25E6 JUMPI DUP2 MLOAD PUSH2 0x25CD DUP9 DUP3 PUSH2 0x2574 JUMP JUMPDEST SWAP8 POP PUSH2 0x25D8 DUP4 PUSH2 0x258B JUMP JUMPDEST SWAP3 POP POP PUSH1 0x1 DUP2 ADD SWAP1 POP PUSH2 0x25B9 JUMP JUMPDEST POP DUP6 SWAP4 POP POP POP POP SWAP3 SWAP2 POP POP JUMP JUMPDEST PUSH0 PUSH1 0x20 DUP3 ADD SWAP1 POP DUP2 DUP2 SUB PUSH0 DUP4 ADD MSTORE PUSH2 0x260B DUP2 DUP5 PUSH2 0x2597 JUMP JUMPDEST SWAP1 POP SWAP3 SWAP2 POP POP JUMP JUMPDEST PUSH0 DUP2 SWAP1 POP SWAP2 SWAP1 POP JUMP JUMPDEST PUSH2 0x2625 DUP2 PUSH2 0x2613 JUMP JUMPDEST DUP3 MSTORE POP POP JUMP JUMPDEST PUSH0 PUSH1 0x20 DUP3 ADD SWAP1 POP PUSH2 0x263E PUSH0 DUP4 ADD DUP5 PUSH2 0x261C JUMP JUMPDEST SWAP3 SWAP2 POP POP JUMP JUMPDEST PUSH2 0x264D DUP2 PUSH2 0x2443 JUMP JUMPDEST DUP3 MSTORE POP POP JUMP JUMPDEST PUSH0 PUSH1 0x20 DUP3 ADD SWAP1 POP PUSH2 0x2666 PUSH0 DUP4 ADD DUP5 PUSH2 0x2644 JUMP JUMPDEST SWAP3 SWAP2 POP POP JUMP JUMPDEST PUSH0 PUSH0 PUSH1 0x40 DUP4 DUP6 SUB SLT ISZERO PUSH2 0x2682 JUMPI PUSH2 0x2681 PUSH2 0x2420 JUMP JUMPDEST JUMPDEST PUSH0 PUSH2 0x268F DUP6 DUP3 DUP7 ADD PUSH2 0x246A JUMP JUMPDEST SWAP3 POP POP PUSH1 0x20 PUSH2 0x26A0 DUP6 DUP3 DUP7 ADD PUSH2 0x24BF JUMP JUMPDEST SWAP2 POP POP SWAP3 POP SWAP3 SWAP1 POP JUMP JUMPDEST PUSH0 DUP2 MLOAD SWAP1 POP SWAP2 SWAP1 POP JUMP JUMPDEST PUSH0 DUP3 DUP3 MSTORE PUSH1 0x20 DUP3 ADD SWAP1 POP SWAP3 SWAP2 POP POP JUMP JUMPDEST DUP3 DUP2 DUP4 MCOPY PUSH0 DUP4 DUP4 ADD MSTORE POP POP POP JUMP JUMPDEST PUSH0 PUSH1 0x1F NOT PUSH1 0x1F DUP4 ADD AND SWAP1 POP SWAP2 SWAP1 POP JUMP JUMPDEST PUSH0 PUSH2 0x26EC DUP3 PUSH2 0x26AA JUMP JUMPDEST PUSH2 0x26F6 DUP2 DUP6 PUSH2 0x26B4 JUMP JUMPDEST SWAP4 POP PUSH2 0x2706 DUP2 DUP6 PUSH1 0x20 DUP7 ADD PUSH2 0x26C4 JUMP JUMPDEST PUSH2 0x270F DUP2 PUSH2 0x26D2 JUMP JUMPDEST DUP5 ADD SWAP2 POP POP SWAP3 SWAP2 POP POP JUMP JUMPDEST PUSH0 PUSH2 0x100 DUP3 ADD SWAP1 POP PUSH2 0x272E PUSH0 DUP4 ADD DUP12 PUSH2 0x23F8 JUMP JUMPDEST PUSH2 0x273B PUSH1 0x20 DUP4 ADD DUP11 PUSH2 0x23F8 JUMP JUMPDEST PUSH2 0x2748 PUSH1 0x40 DUP4 ADD DUP10 PUSH2 0x23F8 JUMP JUMPDEST DUP2 DUP2 SUB PUSH1 0x60 DUP4 ADD MSTORE PUSH2 0x275A DUP2 DUP9 PUSH2 0x26E2 JUMP JUMPDEST SWAP1 POP PUSH2 0x2769 PUSH1 0x80 DUP4 ADD DUP8 PUSH2 0x23F8 JUMP JUMPDEST PUSH2 0x2776 PUSH1 0xA0 DUP4 ADD DUP7 PUSH2 0x23F8 JUMP JUMPDEST PUSH2 0x2783 PUSH1 0xC0 DUP4 ADD DUP6 PUSH2 0x23F8 JUMP JUMPDEST PUSH2 0x2790 PUSH1 0xE0 DUP4 ADD DUP5 PUSH2 0x23F8 JUMP JUMPDEST SWAP10 SWAP9 POP POP POP POP POP POP POP POP POP JUMP JUMPDEST PUSH0 PUSH1 0x60 DUP3 ADD SWAP1 POP PUSH2 0x27B0 PUSH0 DUP4 ADD DUP7 PUSH2 0x23F8 JUMP JUMPDEST PUSH2 0x27BD PUSH1 0x20 DUP4 ADD DUP6 PUSH2 0x23F8 JUMP JUMPDEST PUSH2 0x27CA PUSH1 0x40 DUP4 ADD DUP5 PUSH2 0x23F8 JUMP JUMPDEST SWAP5 SWAP4 POP POP POP POP JUMP JUMPDEST PUSH32 0x5265656E7472616E637900000000000000000000000000000000000000000000 PUSH0 DUP3 ADD MSTORE POP JUMP JUMPDEST PUSH0 PUSH2 0x2806 PUSH1 0xA DUP4 PUSH2 0x26B4 JUMP JUMPDEST SWAP2 POP PUSH2 0x2811 DUP3 PUSH2 0x27D2 JUMP JUMPDEST PUSH1 0x20 DUP3 ADD SWAP1 POP SWAP2 SWAP1 POP JUMP JUMPDEST PUSH0 PUSH1 0x20 DUP3 ADD SWAP1 POP DUP2 DUP2 SUB PUSH0 DUP4 ADD MSTORE PUSH2 0x2833 DUP2 PUSH2 0x27FA JUMP JUMPDEST SWAP1 POP SWAP2 SWAP1 POP JUMP JUMPDEST PUSH32 0x4E6F20696E74657265737420746F207769746864726177000000000000000000 PUSH0 DUP3 ADD MSTORE POP JUMP JUMPDEST PUSH0 PUSH2 0x286E PUSH1 0x17 DUP4 PUSH2 0x26B4 JUMP JUMPDEST SWAP2 POP PUSH2 0x2879 DUP3 PUSH2 0x283A JUMP JUMPDEST PUSH1 0x20 DUP3 ADD SWAP1 POP SWAP2 SWAP1 POP JUMP JUMPDEST PUSH0 PUSH1 0x20 DUP3 ADD SWAP1 POP DUP2 DUP2 SUB PUSH0 DUP4 ADD MSTORE PUSH2 0x289B DUP2 PUSH2 0x2862 JUMP JUMPDEST SWAP1 POP SWAP2 SWAP1 POP JUMP JUMPDEST PUSH0 DUP2 SWAP1 POP SWAP3 SWAP2 POP POP JUMP JUMPDEST POP JUMP JUMPDEST PUSH0 PUSH2 0x28BA PUSH0 DUP4 PUSH2 0x28A2 JUMP JUMPDEST SWAP2 POP PUSH2 0x28C5 DUP3 PUSH2 0x28AC JUMP JUMPDEST PUSH0 DUP3 ADD SWAP1 POP SWAP2 SWAP1 POP JUMP JUMPDEST PUSH0 PUSH2 0x28D9 DUP3 PUSH2 0x28AF JUMP JUMPDEST SWAP2 POP DUP2 SWAP1 POP SWAP2 SWAP1 POP JUMP JUMPDEST PUSH32 0x5472616E73616374696F6E206661696C65640000000000000000000000000000 PUSH0 DUP3 ADD MSTORE POP JUMP JUMPDEST PUSH0 PUSH2 0x2917 PUSH1 0x12 DUP4 PUSH2 0x26B4 JUMP JUMPDEST SWAP2 POP PUSH2 0x2922 DUP3 PUSH2 0x28E3 JUMP JUMPDEST PUSH1 0x20 DUP3 ADD SWAP1 POP SWAP2 SWAP1 POP JUMP JUMPDEST PUSH0 PUSH1 0x20 DUP3 ADD SWAP1 POP DUP2 DUP2 SUB PUSH0 DUP4 ADD MSTORE PUSH2 0x2944 DUP2 PUSH2 0x290B JUMP JUMPDEST SWAP1 POP SWAP2 SWAP1 POP JUMP JUMPDEST PUSH32 0x4E487B7100000000000000000000000000000000000000000000000000000000 PUSH0 MSTORE PUSH1 0x32 PUSH1 0x4 MSTORE PUSH1 0x24 PUSH0 REVERT JUMPDEST PUSH32 0x4E487B7100000000000000000000000000000000000000000000000000000000 PUSH0 MSTORE PUSH1 0x11 PUSH1 0x4 MSTORE PUSH1 0x24 PUSH0 REVERT JUMPDEST PUSH0 PUSH2 0x29AF DUP3 PUSH2 0x23EF JUMP JUMPDEST SWAP2 POP PUSH32 0xFFFFFFFFFFFFFFFFFFFFFFFFFFFFFFFFFFFFFFFFFFFFFFFFFFFFFFFFFFFFFFFF DUP3 SUB PUSH2 0x29E1 JUMPI PUSH2 0x29E0 PUSH2 0x2978 JUMP JUMPDEST JUMPDEST PUSH1 0x1 DUP3 ADD SWAP1 POP SWAP2 SWAP1 POP JUMP JUMPDEST PUSH32 0x4578636564656564206D6178696D756D20776974686472617700000000000000 PUSH0 DUP3 ADD MSTORE POP JUMP JUMPDEST PUSH0 PUSH2 0x2A20 PUSH1 0x19 DUP4 PUSH2 0x26B4 JUMP JUMPDEST SWAP2 POP PUSH2 0x2A2B DUP3 PUSH2 0x29EC JUMP JUMPDEST PUSH1 0x20 DUP3 ADD SWAP1 POP SWAP2 SWAP1 POP JUMP JUMPDEST PUSH0 PUSH1 0x20 DUP3 ADD SWAP1 POP DUP2 DUP2 SUB PUSH0 DUP4 ADD MSTORE PUSH2 0x2A4D DUP2 PUSH2 0x2A14 JUMP JUMPDEST SWAP1 POP SWAP2 SWAP1 POP JUMP JUMPDEST PUSH32 0x416D6F756E74206D7573742062652067726561746572207468616E207A65726F PUSH0 DUP3 ADD MSTORE POP JUMP JUMPDEST PUSH0 PUSH2 0x2A88 PUSH1 0x20 DUP4 PUSH2 0x26B4 JUMP JUMPDEST SWAP2 POP PUSH2 0x2A93 DUP3 PUSH2 0x2A54 JUMP JUMPDEST PUSH1 0x20 DUP3 ADD SWAP1 POP SWAP2 SWAP1 POP JUMP JUMPDEST PUSH0 PUSH1 0x20 DUP3 ADD SWAP1 POP DUP2 DUP2 SUB PUSH0 DUP4 ADD MSTORE PUSH2 0x2AB5 DUP2 PUSH2 0x2A7C JUMP JUMPDEST SWAP1 POP SWAP2 SWAP1 POP JUMP JUMPDEST PUSH32 0x4E6F7420656E6F7567682066756E647320696E206465706F7369747320746F20 PUSH0 DUP3 ADD MSTORE PUSH32 0x636F766572207769746864726177616C00000000000000000000000000000000 PUSH1 0x20 DUP3 ADD MSTORE POP JUMP JUMPDEST PUSH0 PUSH2 0x2B16 PUSH1 0x30 DUP4 PUSH2 0x26B4 JUMP JUMPDEST SWAP2 POP PUSH2 0x2B21 DUP3 PUSH2 0x2ABC JUMP JUMPDEST PUSH1 0x40 DUP3 ADD SWAP1 POP SWAP2 SWAP1 POP JUMP JUMPDEST PUSH0 PUSH1 0x20 DUP3 ADD SWAP1 POP DUP2 DUP2 SUB PUSH0 DUP4 ADD MSTORE PUSH2 0x2B43 DUP2 PUSH2 0x2B0A JUMP JUMPDEST SWAP1 POP SWAP2 SWAP1 POP JUMP JUMPDEST PUSH0 PUSH2 0x2B54 DUP3 PUSH2 0x23EF JUMP JUMPDEST SWAP2 POP PUSH2 0x2B5F DUP4 PUSH2 0x23EF JUMP JUMPDEST SWAP3 POP DUP3 DUP3 SUB SWAP1 POP DUP2 DUP2 GT ISZERO PUSH2 0x2B77 JUMPI PUSH2 0x2B76 PUSH2 0x2978 JUMP JUMPDEST JUMPDEST SWAP3 SWAP2 POP POP JUMP JUMPDEST PUSH0 PUSH1 0x60 DUP3 ADD SWAP1 POP PUSH2 0x2B90 PUSH0 DUP4 ADD DUP7 PUSH2 0x2644 JUMP JUMPDEST PUSH2 0x2B9D PUSH1 0x20 DUP4 ADD DUP6 PUSH2 0x23F8 JUMP JUMPDEST PUSH2 0x2BAA PUSH1 0x40 DUP4 ADD DUP5 PUSH2 0x23F8 JUMP JUMPDEST SWAP5 SWAP4 POP POP POP POP JUMP JUMPDEST PUSH32 0x496E76616C6964207765656B206E756D62657200000000000000000000000000 PUSH0 DUP3 ADD MSTORE POP JUMP JUMPDEST PUSH0 PUSH2 0x2BE6 PUSH1 0x13 DUP4 PUSH2 0x26B4 JUMP JUMPDEST SWAP2 POP PUSH2 0x2BF1 DUP3 PUSH2 0x2BB2 JUMP JUMPDEST PUSH1 0x20 DUP3 ADD SWAP1 POP SWAP2 SWAP1 POP JUMP JUMPDEST PUSH0 PUSH1 0x20 DUP3 ADD SWAP1 POP DUP2 DUP2 SUB PUSH0 DUP4 ADD MSTORE PUSH2 0x2C13 DUP2 PUSH2 0x2BDA JUMP JUMPDEST SWAP1 POP SWAP2 SWAP1 POP JUMP JUMPDEST PUSH32 0x4D696E696D616C20626F72726F7720697320302E322045746800000000000000 PUSH0 DUP3 ADD MSTORE POP JUMP JUMPDEST PUSH0 PUSH2 0x2C4E PUSH1 0x19 DUP4 PUSH2 0x26B4 JUMP JUMPDEST SWAP2 POP PUSH2 0x2C59 DUP3 PUSH2 0x2C1A JUMP JUMPDEST PUSH1 0x20 DUP3 ADD SWAP1 POP SWAP2 SWAP1 POP JUMP JUMPDEST PUSH0 PUSH1 0x20 DUP3 ADD SWAP1 POP DUP2 DUP2 SUB PUSH0 DUP4 ADD MSTORE PUSH2 0x2C7B DUP2 PUSH2 0x2C42 JUMP JUMPDEST SWAP1 POP SWAP2 SWAP1 POP JUMP JUMPDEST PUSH0 DUP2 MLOAD SWAP1 POP PUSH2 0x2C90 DUP2 PUSH2 0x24A9 JUMP JUMPDEST SWAP3 SWAP2 POP POP JUMP JUMPDEST PUSH0 PUSH1 0x20 DUP3 DUP5 SUB SLT ISZERO PUSH2 0x2CAB JUMPI PUSH2 0x2CAA PUSH2 0x2420 JUMP JUMPDEST JUMPDEST PUSH0 PUSH2 0x2CB8 DUP5 DUP3 DUP6 ADD PUSH2 0x2C82 JUMP JUMPDEST SWAP2 POP POP SWAP3 SWAP2 POP POP JUMP JUMPDEST PUSH0 PUSH2 0x2CCB DUP3 PUSH2 0x2613 JUMP JUMPDEST SWAP2 POP PUSH32 0x7FFFFFFFFFFFFFFFFFFFFFFFFFFFFFFFFFFFFFFFFFFFFFFFFFFFFFFFFFFFFFFF DUP3 SUB PUSH2 0x2CFD JUMPI PUSH2 0x2CFC PUSH2 0x2978 JUMP JUMPDEST JUMPDEST PUSH1 0x1 DUP3 ADD SWAP1 POP SWAP2 SWAP1 POP JUMP JUMPDEST PUSH0 PUSH2 0x2D12 DUP3 PUSH2 0x23EF JUMP JUMPDEST SWAP2 POP PUSH2 0x2D1D DUP4 PUSH2 0x23EF JUMP JUMPDEST SWAP3 POP DUP3 DUP3 MUL PUSH2 0x2D2B DUP2 PUSH2 0x23EF JUMP JUMPDEST SWAP2 POP DUP3 DUP3 DIV DUP5 EQ DUP4 ISZERO OR PUSH2 0x2D42 JUMPI PUSH2 0x2D41 PUSH2 0x2978 JUMP JUMPDEST JUMPDEST POP SWAP3 SWAP2 POP POP JUMP JUMPDEST PUSH0 PUSH2 0x2D53 DUP3 PUSH2 0x23EF JUMP JUMPDEST SWAP2 POP PUSH2 0x2D5E DUP4 PUSH2 0x23EF JUMP JUMPDEST SWAP3 POP DUP3 DUP3 ADD SWAP1 POP DUP1 DUP3 GT ISZERO PUSH2 0x2D76 JUMPI PUSH2 0x2D75 PUSH2 0x2978 JUMP JUMPDEST JUMPDEST SWAP3 SWAP2 POP POP JUMP JUMPDEST PUSH32 0x4E487B7100000000000000000000000000000000000000000000000000000000 PUSH0 MSTORE PUSH1 0x12 PUSH1 0x4 MSTORE PUSH1 0x24 PUSH0 REVERT JUMPDEST PUSH0 PUSH2 0x2DB3 DUP3 PUSH2 0x23EF JUMP JUMPDEST SWAP2 POP PUSH2 0x2DBE DUP4 PUSH2 0x23EF JUMP JUMPDEST SWAP3 POP DUP3 PUSH2 0x2DCE JUMPI PUSH2 0x2DCD PUSH2 0x2D7C JUMP JUMPDEST JUMPDEST DUP3 DUP3 DIV SWAP1 POP SWAP3 SWAP2 POP POP JUMP JUMPDEST PUSH32 0x4E487B7100000000000000000000000000000000000000000000000000000000 PUSH0 MSTORE PUSH1 0x41 PUSH1 0x4 MSTORE PUSH1 0x24 PUSH0 REVERT JUMPDEST PUSH32 0x4E487B7100000000000000000000000000000000000000000000000000000000 PUSH0 MSTORE PUSH1 0x22 PUSH1 0x4 MSTORE PUSH1 0x24 PUSH0 REVERT JUMPDEST PUSH0 PUSH1 0x2 DUP3 DIV SWAP1 POP PUSH1 0x1 DUP3 AND DUP1 PUSH2 0x2E4A JUMPI PUSH1 0x7F DUP3 AND SWAP2 POP JUMPDEST PUSH1 0x20 DUP3 LT DUP2 SUB PUSH2 0x2E5D JUMPI PUSH2 0x2E5C PUSH2 0x2E06 JUMP JUMPDEST JUMPDEST POP SWAP2 SWAP1 POP JUMP JUMPDEST PUSH0 DUP2 SWAP1 POP DUP2 PUSH0 MSTORE PUSH1 0x20 PUSH0 KECCAK256 SWAP1 POP SWAP2 SWAP1 POP JUMP JUMPDEST PUSH0 PUSH1 0x20 PUSH1 0x1F DUP4 ADD DIV SWAP1 POP SWAP2 SWAP1 POP JUMP JUMPDEST PUSH0 DUP3 DUP3 SHL SWAP1 POP SWAP3 SWAP2 POP POP JUMP JUMPDEST PUSH0 PUSH1 0x8 DUP4 MUL PUSH2 0x2EBF PUSH32 0xFFFFFFFFFFFFFFFFFFFFFFFFFFFFFFFFFFFFFFFFFFFFFFFFFFFFFFFFFFFFFFFF DUP3 PUSH2 0x2E84 JUMP JUMPDEST PUSH2 0x2EC9 DUP7 DUP4 PUSH2 0x2E84 JUMP JUMPDEST SWAP6 POP DUP1 NOT DUP5 AND SWAP4 POP DUP1 DUP7 AND DUP5 OR SWAP3 POP POP POP SWAP4 SWAP3 POP POP POP JUMP JUMPDEST PUSH0 DUP2 SWAP1 POP SWAP2 SWAP1 POP JUMP JUMPDEST PUSH0 PUSH2 0x2F04 PUSH2 0x2EFF PUSH2 0x2EFA DUP5 PUSH2 0x23EF JUMP JUMPDEST PUSH2 0x2EE1 JUMP JUMPDEST PUSH2 0x23EF JUMP JUMPDEST SWAP1 POP SWAP2 SWAP1 POP JUMP JUMPDEST PUSH0 DUP2 SWAP1 POP SWAP2 SWAP1 POP JUMP JUMPDEST PUSH2 0x2F1D DUP4 PUSH2 0x2EEA JUMP JUMPDEST PUSH2 0x2F31 PUSH2 0x2F29 DUP3 PUSH2 0x2F0B JUMP JUMPDEST DUP5 DUP5 SLOAD PUSH2 0x2E90 JUMP JUMPDEST DUP3 SSTORE POP POP POP POP JUMP JUMPDEST PUSH0 PUSH0 SWAP1 POP SWAP1 JUMP JUMPDEST PUSH2 0x2F48 PUSH2 0x2F39 JUMP JUMPDEST PUSH2 0x2F53 DUP2 DUP5 DUP5 PUSH2 0x2F14 JUMP JUMPDEST POP POP POP JUMP JUMPDEST JUMPDEST DUP2 DUP2 LT ISZERO PUSH2 0x2F76 JUMPI PUSH2 0x2F6B PUSH0 DUP3 PUSH2 0x2F40 JUMP JUMPDEST PUSH1 0x1 DUP2 ADD SWAP1 POP PUSH2 0x2F59 JUMP JUMPDEST POP POP JUMP JUMPDEST PUSH1 0x1F DUP3 GT ISZERO PUSH2 0x2FBB JUMPI PUSH2 0x2F8C DUP2 PUSH2 0x2E63 JUMP JUMPDEST PUSH2 0x2F95 DUP5 PUSH2 0x2E75 JUMP JUMPDEST DUP2 ADD PUSH1 0x20 DUP6 LT ISZERO PUSH2 0x2FA4 JUMPI DUP2 SWAP1 POP JUMPDEST PUSH2 0x2FB8 PUSH2 0x2FB0 DUP6 PUSH2 0x2E75 JUMP JUMPDEST DUP4 ADD DUP3 PUSH2 0x2F58 JUMP JUMPDEST POP POP JUMPDEST POP POP POP JUMP JUMPDEST PUSH0 DUP3 DUP3 SHR SWAP1 POP SWAP3 SWAP2 POP POP JUMP JUMPDEST PUSH0 PUSH2 0x2FDB PUSH0 NOT DUP5 PUSH1 0x8 MUL PUSH2 0x2FC0 JUMP JUMPDEST NOT DUP1 DUP4 AND SWAP2 POP POP SWAP3 SWAP2 POP POP JUMP JUMPDEST PUSH0 PUSH2 0x2FF3 DUP4 DUP4 PUSH2 0x2FCC JUMP JUMPDEST SWAP2 POP DUP3 PUSH1 0x2 MUL DUP3 OR SWAP1 POP SWAP3 SWAP2 POP POP JUMP JUMPDEST PUSH2 0x300C DUP3 PUSH2 0x26AA JUMP JUMPDEST PUSH8 0xFFFFFFFFFFFFFFFF DUP2 GT ISZERO PUSH2 0x3025 JUMPI PUSH2 0x3024 PUSH2 0x2DD9 JUMP JUMPDEST JUMPDEST PUSH2 0x302F DUP3 SLOAD PUSH2 0x2E33 JUMP JUMPDEST PUSH2 0x303A DUP3 DUP3 DUP6 PUSH2 0x2F7A JUMP JUMPDEST PUSH0 PUSH1 0x20 SWAP1 POP PUSH1 0x1F DUP4 GT PUSH1 0x1 DUP2 EQ PUSH2 0x306B JUMPI PUSH0 DUP5 ISZERO PUSH2 0x3059 JUMPI DUP3 DUP8 ADD MLOAD SWAP1 POP JUMPDEST PUSH2 0x3063 DUP6 DUP3 PUSH2 0x2FE8 JUMP JUMPDEST DUP7 SSTORE POP PUSH2 0x30CA JUMP JUMPDEST PUSH1 0x1F NOT DUP5 AND PUSH2 0x3079 DUP7 PUSH2 0x2E63 JUMP JUMPDEST PUSH0 JUMPDEST DUP3 DUP2 LT ISZERO PUSH2 0x30A0 JUMPI DUP5 DUP10 ADD MLOAD DUP3 SSTORE PUSH1 0x1 DUP3 ADD SWAP2 POP PUSH1 0x20 DUP6 ADD SWAP5 POP PUSH1 0x20 DUP2 ADD SWAP1 POP PUSH2 0x307B JUMP JUMPDEST DUP7 DUP4 LT ISZERO PUSH2 0x30BD JUMPI DUP5 DUP10 ADD MLOAD PUSH2 0x30B9 PUSH1 0x1F DUP10 AND DUP3 PUSH2 0x2FCC JUMP JUMPDEST DUP4 SSTORE POP JUMPDEST PUSH1 0x1 PUSH1 0x2 DUP9 MUL ADD DUP9 SSTORE POP POP POP JUMPDEST POP POP POP POP POP POP JUMP JUMPDEST PUSH32 0x4D696E696D616C206C656E6420697320302E3120457468000000000000000000 PUSH0 DUP3 ADD MSTORE POP JUMP JUMPDEST PUSH0 PUSH2 0x3106 PUSH1 0x17 DUP4 PUSH2 0x26B4 JUMP JUMPDEST SWAP2 POP PUSH2 0x3111 DUP3 PUSH2 0x30D2 JUMP JUMPDEST PUSH1 0x20 DUP3 ADD SWAP1 POP SWAP2 SWAP1 POP JUMP JUMPDEST PUSH0 PUSH1 0x20 DUP3 ADD SWAP1 POP DUP2 DUP2 SUB PUSH0 DUP4 ADD MSTORE PUSH2 0x3133 DUP2 PUSH2 0x30FA JUMP JUMPDEST SWAP1 POP SWAP2 SWAP1 POP JUMP JUMPDEST PUSH0 DUP2 SWAP1 POP DUP2 PUSH0 MSTORE PUSH1 0x20 PUSH0 KECCAK256 SWAP1 POP SWAP2 SWAP1 POP JUMP JUMPDEST PUSH0 DUP2 SLOAD PUSH2 0x3158 DUP2 PUSH2 0x2E33 JUMP JUMPDEST PUSH2 0x3162 DUP2 DUP7 PUSH2 0x28A2 JUMP JUMPDEST SWAP5 POP PUSH1 0x1 DUP3 AND PUSH0 DUP2 EQ PUSH2 0x317C JUMPI PUSH1 0x1 DUP2 EQ PUSH2 0x3191 JUMPI PUSH2 0x31C3 JUMP JUMPDEST PUSH1 0xFF NOT DUP4 AND DUP7 MSTORE DUP2 ISZERO ISZERO DUP3 MUL DUP7 ADD SWAP4 POP PUSH2 0x31C3 JUMP JUMPDEST PUSH2 0x319A DUP6 PUSH2 0x313A JUMP JUMPDEST PUSH0 JUMPDEST DUP4 DUP2 LT ISZERO PUSH2 0x31BB JUMPI DUP2 SLOAD DUP2 DUP10 ADD MSTORE PUSH1 0x1 DUP3 ADD SWAP2 POP PUSH1 0x20 DUP2 ADD SWAP1 POP PUSH2 0x319C JUMP JUMPDEST DUP4 DUP9 ADD SWAP6 POP POP POP JUMPDEST POP POP POP SWAP3 SWAP2 POP POP JUMP JUMPDEST PUSH0 PUSH2 0x31D7 DUP3 DUP5 PUSH2 0x314C JUMP JUMPDEST SWAP2 POP DUP2 SWAP1 POP SWAP3 SWAP2 POP POP JUMP JUMPDEST PUSH32 0x426F72726F772073656C6563746564206E6F7420616374697665000000000000 PUSH0 DUP3 ADD MSTORE POP JUMP JUMPDEST PUSH0 PUSH2 0x3216 PUSH1 0x1A DUP4 PUSH2 0x26B4 JUMP JUMPDEST SWAP2 POP PUSH2 0x3221 DUP3 PUSH2 0x31E2 JUMP JUMPDEST PUSH1 0x20 DUP3 ADD SWAP1 POP SWAP2 SWAP1 POP JUMP JUMPDEST PUSH0 PUSH1 0x20 DUP3 ADD SWAP1 POP DUP2 DUP2 SUB PUSH0 DUP4 ADD MSTORE PUSH2 0x3243 DUP2 PUSH2 0x320A JUMP JUMPDEST SWAP1 POP SWAP2 SWAP1 POP JUMP JUMPDEST PUSH32 0x52657061796D656E74206D757374206265206D6F7265207468616E2030000000 PUSH0 DUP3 ADD MSTORE POP JUMP JUMPDEST PUSH0 PUSH2 0x327E PUSH1 0x1D DUP4 PUSH2 0x26B4 JUMP JUMPDEST SWAP2 POP PUSH2 0x3289 DUP3 PUSH2 0x324A JUMP JUMPDEST PUSH1 0x20 DUP3 ADD SWAP1 POP SWAP2 SWAP1 POP JUMP JUMPDEST PUSH0 PUSH1 0x20 DUP3 ADD SWAP1 POP DUP2 DUP2 SUB PUSH0 DUP4 ADD MSTORE PUSH2 0x32AB DUP2 PUSH2 0x3272 JUMP JUMPDEST SWAP1 POP SWAP2 SWAP1 POP JUMP JUMPDEST PUSH32 0x496E76616C696420626F72726F7720696E646578000000000000000000000000 PUSH0 DUP3 ADD MSTORE POP JUMP JUMPDEST PUSH0 PUSH2 0x32E6 PUSH1 0x14 DUP4 PUSH2 0x26B4 JUMP JUMPDEST SWAP2 POP PUSH2 0x32F1 DUP3 PUSH2 0x32B2 JUMP JUMPDEST PUSH1 0x20 DUP3 ADD SWAP1 POP SWAP2 SWAP1 POP JUMP JUMPDEST PUSH0 PUSH1 0x20 DUP3 ADD SWAP1 POP DUP2 DUP2 SUB PUSH0 DUP4 ADD MSTORE PUSH2 0x3313 DUP2 PUSH2 0x32DA JUMP JUMPDEST SWAP1 POP SWAP2 SWAP1 POP JUMP JUMPDEST PUSH32 0x5061796D656E74206973206C6F776572207468616E2074686520616D6F756E74 PUSH0 DUP3 ADD MSTORE PUSH32 0x2072657175657374656400000000000000000000000000000000000000000000 PUSH1 0x20 DUP3 ADD MSTORE POP JUMP JUMPDEST PUSH0 PUSH2 0x3374 PUSH1 0x2A DUP4 PUSH2 0x26B4 JUMP JUMPDEST SWAP2 POP PUSH2 0x337F DUP3 PUSH2 0x331A JUMP JUMPDEST PUSH1 0x40 DUP3 ADD SWAP1 POP SWAP2 SWAP1 POP JUMP JUMPDEST PUSH0 PUSH1 0x20 DUP3 ADD SWAP1 POP DUP2 DUP2 SUB PUSH0 DUP4 ADD MSTORE PUSH2 0x33A1 DUP2 PUSH2 0x3368 JUMP JUMPDEST SWAP1 POP SWAP2 SWAP1 POP JUMP JUMPDEST PUSH0 PUSH1 0x80 DUP3 ADD SWAP1 POP PUSH2 0x33BB PUSH0 DUP4 ADD DUP8 PUSH2 0x2644 JUMP JUMPDEST PUSH2 0x33C8 PUSH1 0x20 DUP4 ADD DUP7 PUSH2 0x23F8 JUMP JUMPDEST PUSH2 0x33D5 PUSH1 0x40 DUP4 ADD DUP6 PUSH2 0x23F8 JUMP JUMPDEST PUSH2 0x33E2 PUSH1 0x60 DUP4 ADD DUP5 PUSH2 0x23F8 JUMP JUMPDEST SWAP6 SWAP5 POP POP POP POP POP JUMP INVALID LOG2 PUSH5 0x6970667358 0x22 SLT KECCAK256 0x21 0x21 SWAP8 0xC2 0xD9 SUB PUSH30 0xC603F279F5211CD36119C651EF0200D6EC091DB1D8846B416664736F6C63 NUMBER STOP ADDMOD 0x1E STOP CALLER "
		},
		"gasEstimates": {
			"creation": {
				"codeDepositCost": "2669000",
				"executionCost": "71374",
				"totalCost": "2740374"
			},
			"external": {
				"Borrower(address,uint256)": "infinite",
				"Lender(address,uint256)": "infinite",
				"borrowCount(address)": "2825",
				"borrowersCounter()": "2491",
				"getContractBalance()": "445",
				"getUserBorrowerList()": "infinite",
				"getUserLendersList()": "infinite",
				"interestMatured(address)": "2870",
				"lend()": "infinite",
				"lendAPY()": "2514",
				"lendersCounter()": "2536",
				"netPosition(address)": "2846",
				"openBorrow(uint256,uint256)": "infinite",
				"owner()": "2552",
				"payBorrow(uint256)": "infinite",
				"penalty()": "2471",
				"updateInterestMatured()": "infinite",
				"withdraw(uint256)": "infinite",
				"withdrawInterest()": "infinite"
			},
			"internal": {
				"calculatePenalty(uint256)": "infinite",
				"checkCategoryRegistration(address[] storage pointer,address[] storage pointer)": "infinite"
			}
		},
		"methodIdentifiers": {
			"Borrower(address,uint256)": "99c8fbf6",
			"Lender(address,uint256)": "ff6d4f73",
			"borrowCount(address)": "71604909",
			"borrowersCounter()": "ddd899a1",
			"getContractBalance()": "6f9fb98a",
			"getUserBorrowerList()": "3e86e213",
			"getUserLendersList()": "d6020811",
			"interestMatured(address)": "26a39c07",
			"lend()": "97dffc61",
			"lendAPY()": "65ad976e",
			"lendersCounter()": "cb50bb74",
			"netPosition(address)": "dce8e848",
			"openBorrow(uint256,uint256)": "33d5281f",
			"owner()": "8da5cb5b",
			"payBorrow(uint256)": "f5d1b7e8",
			"penalty()": "0edd2ffc",
			"updateInterestMatured()": "392f6356",
			"withdraw(uint256)": "2e1a7d4d",
			"withdrawInterest()": "0063750c"
		}
	},
	"abi": [
		{
			"inputs": [],
			"stateMutability": "nonpayable",
			"type": "constructor"
		},
		{
			"anonymous": false,
			"inputs": [
				{
					"indexed": false,
					"internalType": "address",
					"name": "who",
					"type": "address"
				},
				{
					"indexed": false,
					"internalType": "uint256",
					"name": "howmuch",
					"type": "uint256"
				},
				{
					"indexed": false,
					"internalType": "uint256",
					"name": "when",
					"type": "uint256"
				},
				{
					"indexed": false,
					"internalType": "uint256",
					"name": "initialBorrow",
					"type": "uint256"
				}
			],
			"name": "borrowRepaid",
			"type": "event"
		},
		{
			"anonymous": false,
			"inputs": [
				{
					"indexed": false,
					"internalType": "address",
					"name": "who",
					"type": "address"
				},
				{
					"indexed": false,
					"internalType": "uint256",
					"name": "howMuch",
					"type": "uint256"
				},
				{
					"indexed": false,
					"internalType": "uint256",
					"name": "when",
					"type": "uint256"
				}
			],
			"name": "lendDone",
			"type": "event"
		},
		{
			"anonymous": false,
			"inputs": [
				{
					"indexed": false,
					"internalType": "address",
					"name": "who",
					"type": "address"
				},
				{
					"indexed": false,
					"internalType": "uint256",
					"name": "howMuch",
					"type": "uint256"
				},
				{
					"indexed": false,
					"internalType": "uint256",
					"name": "when",
					"type": "uint256"
				}
			],
			"name": "withdrawDone",
			"type": "event"
		},
		{
			"inputs": [
				{
					"internalType": "address",
					"name": "",
					"type": "address"
				},
				{
					"internalType": "uint256",
					"name": "",
					"type": "uint256"
				}
			],
			"name": "Borrower",
			"outputs": [
				{
					"internalType": "uint256",
					"name": "startDate",
					"type": "uint256"
				},
				{
					"internalType": "uint256",
					"name": "endDate",
					"type": "uint256"
				},
				{
					"internalType": "uint256",
					"name": "borrowId",
					"type": "uint256"
				},
				{
					"internalType": "string",
					"name": "state",
					"type": "string"
				},
				{
					"internalType": "uint256",
					"name": "dueDate",
					"type": "uint256"
				},
				{
					"internalType": "uint256",
					"name": "APY",
					"type": "uint256"
				},
				{
					"internalType": "uint256",
					"name": "borrowAmount",
					"type": "uint256"
				},
				{
					"internalType": "uint256",
					"name": "paybackAmount",
					"type": "uint256"
				}
			],
			"stateMutability": "view",
			"type": "function"
		},
		{
			"inputs": [
				{
					"internalType": "address",
					"name": "",
					"type": "address"
				},
				{
					"internalType": "uint256",
					"name": "",
					"type": "uint256"
				}
			],
			"name": "Lender",
			"outputs": [
				{
					"internalType": "uint256",
					"name": "lendId",
					"type": "uint256"
				},
				{
					"internalType": "uint256",
					"name": "depositTime",
					"type": "uint256"
				},
				{
					"internalType": "uint256",
					"name": "amount",
					"type": "uint256"
				}
			],
			"stateMutability": "view",
			"type": "function"
		},
		{
			"inputs": [
				{
					"internalType": "address",
					"name": "",
					"type": "address"
				}
			],
			"name": "borrowCount",
			"outputs": [
				{
					"internalType": "int256",
					"name": "",
					"type": "int256"
				}
			],
			"stateMutability": "view",
			"type": "function"
		},
		{
			"inputs": [],
			"name": "borrowersCounter",
			"outputs": [
				{
					"internalType": "uint256",
					"name": "",
					"type": "uint256"
				}
			],
			"stateMutability": "view",
			"type": "function"
		},
		{
			"inputs": [],
			"name": "getContractBalance",
			"outputs": [
				{
					"internalType": "uint256",
					"name": "",
					"type": "uint256"
				}
			],
			"stateMutability": "view",
			"type": "function"
		},
		{
			"inputs": [],
			"name": "getUserBorrowerList",
			"outputs": [
				{
					"internalType": "address[]",
					"name": "",
					"type": "address[]"
				}
			],
			"stateMutability": "view",
			"type": "function"
		},
		{
			"inputs": [],
			"name": "getUserLendersList",
			"outputs": [
				{
					"internalType": "address[]",
					"name": "",
					"type": "address[]"
				}
			],
			"stateMutability": "view",
			"type": "function"
		},
		{
			"inputs": [
				{
					"internalType": "address",
					"name": "",
					"type": "address"
				}
			],
			"name": "interestMatured",
			"outputs": [
				{
					"internalType": "uint256",
					"name": "",
					"type": "uint256"
				}
			],
			"stateMutability": "view",
			"type": "function"
		},
		{
			"inputs": [],
			"name": "lend",
			"outputs": [],
			"stateMutability": "payable",
			"type": "function"
		},
		{
			"inputs": [],
			"name": "lendAPY",
			"outputs": [
				{
					"internalType": "uint256",
					"name": "",
					"type": "uint256"
				}
			],
			"stateMutability": "view",
			"type": "function"
		},
		{
			"inputs": [],
			"name": "lendersCounter",
			"outputs": [
				{
					"internalType": "uint256",
					"name": "",
					"type": "uint256"
				}
			],
			"stateMutability": "view",
			"type": "function"
		},
		{
			"inputs": [
				{
					"internalType": "address",
					"name": "",
					"type": "address"
				}
			],
			"name": "netPosition",
			"outputs": [
				{
					"internalType": "uint256",
					"name": "",
					"type": "uint256"
				}
			],
			"stateMutability": "view",
			"type": "function"
		},
		{
			"inputs": [
				{
					"internalType": "uint256",
					"name": "_weeks",
					"type": "uint256"
				},
				{
					"internalType": "uint256",
					"name": "amount",
					"type": "uint256"
				}
			],
			"name": "openBorrow",
			"outputs": [],
			"stateMutability": "payable",
			"type": "function"
		},
		{
			"inputs": [],
			"name": "owner",
			"outputs": [
				{
					"internalType": "address",
					"name": "",
					"type": "address"
				}
			],
			"stateMutability": "view",
			"type": "function"
		},
		{
			"inputs": [
				{
					"internalType": "uint256",
					"name": "borrowNumber",
					"type": "uint256"
				}
			],
			"name": "payBorrow",
			"outputs": [],
			"stateMutability": "payable",
			"type": "function"
		},
		{
			"inputs": [],
			"name": "penalty",
			"outputs": [
				{
					"internalType": "uint256",
					"name": "",
					"type": "uint256"
				}
			],
			"stateMutability": "view",
			"type": "function"
		},
		{
			"inputs": [],
			"name": "updateInterestMatured",
			"outputs": [
				{
					"internalType": "uint256",
					"name": "",
					"type": "uint256"
				}
			],
			"stateMutability": "nonpayable",
			"type": "function"
		},
		{
			"inputs": [
				{
					"internalType": "uint256",
					"name": "amount",
					"type": "uint256"
				}
			],
			"name": "withdraw",
			"outputs": [],
			"stateMutability": "nonpayable",
			"type": "function"
		},
		{
			"inputs": [],
			"name": "withdrawInterest",
			"outputs": [],
			"stateMutability": "nonpayable",
			"type": "function"
		}
	]
}